{"project/contracts/SimplePaymaster.sol":{"SimplePaymaster":{"abi":[{"inputs":[{"internalType":"address","name":"_entryPoint","type":"address"}],"stateMutability":"nonpayable","type":"constructor"},{"inputs":[],"name":"entryPoint","outputs":[{"internalType":"address","name":"","type":"address"}],"stateMutability":"view","type":"function"},{"inputs":[{"internalType":"uint8","name":"","type":"uint8"},{"internalType":"bytes","name":"","type":"bytes"},{"internalType":"uint256","name":"","type":"uint256"}],"name":"postOp","outputs":[],"stateMutability":"nonpayable","type":"function"},{"inputs":[{"components":[{"internalType":"address","name":"sender","type":"address"},{"internalType":"uint256","name":"nonce","type":"uint256"},{"internalType":"bytes","name":"initCode","type":"bytes"},{"internalType":"bytes","name":"callData","type":"bytes"},{"internalType":"uint256","name":"callGasLimit","type":"uint256"},{"internalType":"uint256","name":"verificationGasLimit","type":"uint256"},{"internalType":"uint256","name":"preVerificationGas","type":"uint256"},{"internalType":"uint256","name":"maxFeePerGas","type":"uint256"},{"internalType":"uint256","name":"maxPriorityFeePerGas","type":"uint256"},{"internalType":"address","name":"paymasterAndData","type":"address"},{"internalType":"bytes","name":"signature","type":"bytes"}],"internalType":"struct SimplePaymaster.UserOperation","name":"userOp","type":"tuple"},{"internalType":"bytes32","name":"","type":"bytes32"},{"internalType":"uint256","name":"","type":"uint256"}],"name":"validatePaymasterUserOp","outputs":[{"internalType":"bytes","name":"context","type":"bytes"},{"internalType":"uint256","name":"validationData","type":"uint256"}],"stateMutability":"view","type":"function"},{"inputs":[{"internalType":"address payable","name":"to","type":"address"}],"name":"withdraw","outputs":[],"stateMutability":"nonpayable","type":"function"},{"stateMutability":"payable","type":"receive"}],"evm":{"bytecode":{"linkReferences":{},"object":"60a060405234610038576100196100146100fd565b61011e565b61002161003d565b61067c610124823960805181610398015261067c90f35b610043565b60405190565b5f80fd5b601f801991011690565b634e487b7160e01b5f52604160045260245ffd5b9061006f90610047565b810190811060018060401b0382111761008757604052565b610051565b9061009f61009861003d565b9283610065565b565b5f80fd5b60018060a01b031690565b6100b9906100a5565b90565b6100c5816100b0565b036100cc57565b5f80fd5b905051906100dd826100bc565b565b906020828203126100f8576100f5915f016100d0565b90565b6100a1565b61011b6107a0803803806101108161008c565b9283398101906100df565b90565b60805256fe60806040526004361015610015575b3661041d57005b61001f5f3561005e565b806351cff8d914610059578063a9a2340914610054578063af1c78601461004f5763b0d691fe0361000e576103e8565b610350565b6101f3565b6100d3565b60e01c90565b60405190565b5f80fd5b5f80fd5b5f80fd5b60018060a01b031690565b61008a90610076565b90565b61009681610081565b0361009d57565b5f80fd5b905035906100ae8261008d565b565b906020828203126100c9576100c6915f016100a1565b90565b61006e565b5f0190565b34610101576100eb6100e63660046100b0565b6104ff565b6100f3610064565b806100fd816100ce565b0390f35b61006a565b60ff1690565b61011581610106565b0361011c57565b5f80fd5b9050359061012d8261010c565b565b5f80fd5b5f80fd5b5f80fd5b909182601f830112156101755781359167ffffffffffffffff831161017057602001926001830284011161016b57565b610137565b610133565b61012f565b90565b6101868161017a565b0361018d57565b5f80fd5b9050359061019e8261017d565b565b906060828203126101ee576101b7815f8401610120565b92602083013567ffffffffffffffff81116101e9576101db836101e692860161013b565b939094604001610191565b90565b610072565b61006e565b3461021d576102033660046101a0565b5050505061020f610064565b80610219816100ce565b0390f35b61006a565b5f80fd5b90816101609103126102355790565b610222565b90565b6102468161023a565b0361024d57565b5f80fd5b9050359061025e8261023d565b565b90916060828403126102ad575f82013567ffffffffffffffff81116102a85761028e846102a5928501610226565b9361029c8160208601610251565b93604001610191565b90565b610072565b61006e565b5190565b60209181520190565b5f5b8381106102d1575050905f910152565b8060209183015181850152016102c1565b601f801991011690565b61030b61031460209361031993610302816102b2565b938480936102b6565b958691016102bf565b6102e2565b0190565b6103269061017a565b9052565b9291602061034661034e9360408701908782035f8901526102ec565b94019061031d565b565b3461038257610369610363366004610260565b9161061c565b9061037e610375610064565b9283928361032a565b0390f35b61006a565b5f91031261039157565b61006e565b7f000000000000000000000000000000000000000000000000000000000000000090565b6103c390610076565b90565b6103cf906103ba565b9052565b91906103e6905f602085019401906103c6565b565b34610418576103f8366004610387565b610414610403610396565b61040b610064565b918291826103d3565b0390f35b61006a565b5f80fd5b60209181520190565b5f7f4f6e6c7920454f41000000000000000000000000000000000000000000000000910152565b61045e6008602092610421565b6104678161042a565b0190565b6104809060208101905f818303910152610451565b90565b1561048a57565b610492610064565b62461bcd60e51b8152806104a86004820161046b565b0390fd5b90565b6104c36104be6104c892610076565b6104ac565b610076565b90565b6104d4906104af565b90565b6104e0906104cb565b90565b6104ec906104cb565b90565b6104f7610064565b3d5f823e3d90fd5b5f808061052881946105233361051d610517326103ba565b916103ba565b14610483565b6104d7565b610531306104e3565b3190828215610548575bf11561054357565b6104ef565b506108fc61053b565b606090565b5f90565b634e487b7160e01b5f52604160045260245ffd5b90610578906102e2565b810190811067ffffffffffffffff82111761059257604052565b61055a565b906105aa6105a3610064565b928361056e565b565b67ffffffffffffffff81116105ca576105c66020916102e2565b0190565b61055a565b906105e16105dc836105ac565b610597565b918252565b6105ef5f6105cf565b90565b6105fa6105e6565b90565b90565b61061461060f610619926105fd565b6104ac565b61017a565b90565b505050610627610551565b50610630610556565b506106396105f2565b906106435f610600565b9056fea2646970667358221220ea2cbd5b334c7f68de6748543f93c5002b5c5055f4a456b821ba9deb2a752a4664736f6c63430008180033","opcodes":"PUSH1 0xA0 PUSH1 0x40 MSTORE CALLVALUE PUSH2 0x38 JUMPI PUSH2 0x19 PUSH2 0x14 PUSH2 0xFD JUMP JUMPDEST PUSH2 0x11E JUMP JUMPDEST PUSH2 0x21 PUSH2 0x3D JUMP JUMPDEST PUSH2 0x67C PUSH2 0x124 DUP3 CODECOPY PUSH1 0x80 MLOAD DUP2 PUSH2 0x398 ADD MSTORE PUSH2 0x67C SWAP1 RETURN JUMPDEST PUSH2 0x43 JUMP JUMPDEST PUSH1 0x40 MLOAD SWAP1 JUMP JUMPDEST PUSH0 DUP1 REVERT JUMPDEST PUSH1 0x1F DUP1 NOT SWAP2 ADD AND SWAP1 JUMP JUMPDEST PUSH4 0x4E487B71 PUSH1 0xE0 SHL PUSH0 MSTORE PUSH1 0x41 PUSH1 0x4 MSTORE PUSH1 0x24 PUSH0 REVERT JUMPDEST SWAP1 PUSH2 0x6F SWAP1 PUSH2 0x47 JUMP JUMPDEST DUP2 ADD SWAP1 DUP2 LT PUSH1 0x1 DUP1 PUSH1 0x40 SHL SUB DUP3 GT OR PUSH2 0x87 JUMPI PUSH1 0x40 MSTORE JUMP JUMPDEST PUSH2 0x51 JUMP JUMPDEST SWAP1 PUSH2 0x9F PUSH2 0x98 PUSH2 0x3D JUMP JUMPDEST SWAP3 DUP4 PUSH2 0x65 JUMP JUMPDEST JUMP JUMPDEST PUSH0 DUP1 REVERT JUMPDEST PUSH1 0x1 DUP1 PUSH1 0xA0 SHL SUB AND SWAP1 JUMP JUMPDEST PUSH2 0xB9 SWAP1 PUSH2 0xA5 JUMP JUMPDEST SWAP1 JUMP JUMPDEST PUSH2 0xC5 DUP2 PUSH2 0xB0 JUMP JUMPDEST SUB PUSH2 0xCC JUMPI JUMP JUMPDEST PUSH0 DUP1 REVERT JUMPDEST SWAP1 POP MLOAD SWAP1 PUSH2 0xDD DUP3 PUSH2 0xBC JUMP JUMPDEST JUMP JUMPDEST SWAP1 PUSH1 0x20 DUP3 DUP3 SUB SLT PUSH2 0xF8 JUMPI PUSH2 0xF5 SWAP2 PUSH0 ADD PUSH2 0xD0 JUMP JUMPDEST SWAP1 JUMP JUMPDEST PUSH2 0xA1 JUMP JUMPDEST PUSH2 0x11B PUSH2 0x7A0 DUP1 CODESIZE SUB DUP1 PUSH2 0x110 DUP2 PUSH2 0x8C JUMP JUMPDEST SWAP3 DUP4 CODECOPY DUP2 ADD SWAP1 PUSH2 0xDF JUMP JUMPDEST SWAP1 JUMP JUMPDEST PUSH1 0x80 MSTORE JUMP INVALID PUSH1 0x80 PUSH1 0x40 MSTORE PUSH1 0x4 CALLDATASIZE LT ISZERO PUSH2 0x15 JUMPI JUMPDEST CALLDATASIZE PUSH2 0x41D JUMPI STOP JUMPDEST PUSH2 0x1F PUSH0 CALLDATALOAD PUSH2 0x5E JUMP JUMPDEST DUP1 PUSH4 0x51CFF8D9 EQ PUSH2 0x59 JUMPI DUP1 PUSH4 0xA9A23409 EQ PUSH2 0x54 JUMPI DUP1 PUSH4 0xAF1C7860 EQ PUSH2 0x4F JUMPI PUSH4 0xB0D691FE SUB PUSH2 0xE JUMPI PUSH2 0x3E8 JUMP JUMPDEST PUSH2 0x350 JUMP JUMPDEST PUSH2 0x1F3 JUMP JUMPDEST PUSH2 0xD3 JUMP JUMPDEST PUSH1 0xE0 SHR SWAP1 JUMP JUMPDEST PUSH1 0x40 MLOAD SWAP1 JUMP JUMPDEST PUSH0 DUP1 REVERT JUMPDEST PUSH0 DUP1 REVERT JUMPDEST PUSH0 DUP1 REVERT JUMPDEST PUSH1 0x1 DUP1 PUSH1 0xA0 SHL SUB AND SWAP1 JUMP JUMPDEST PUSH2 0x8A SWAP1 PUSH2 0x76 JUMP JUMPDEST SWAP1 JUMP JUMPDEST PUSH2 0x96 DUP2 PUSH2 0x81 JUMP JUMPDEST SUB PUSH2 0x9D JUMPI JUMP JUMPDEST PUSH0 DUP1 REVERT JUMPDEST SWAP1 POP CALLDATALOAD SWAP1 PUSH2 0xAE DUP3 PUSH2 0x8D JUMP JUMPDEST JUMP JUMPDEST SWAP1 PUSH1 0x20 DUP3 DUP3 SUB SLT PUSH2 0xC9 JUMPI PUSH2 0xC6 SWAP2 PUSH0 ADD PUSH2 0xA1 JUMP JUMPDEST SWAP1 JUMP JUMPDEST PUSH2 0x6E JUMP JUMPDEST PUSH0 ADD SWAP1 JUMP JUMPDEST CALLVALUE PUSH2 0x101 JUMPI PUSH2 0xEB PUSH2 0xE6 CALLDATASIZE PUSH1 0x4 PUSH2 0xB0 JUMP JUMPDEST PUSH2 0x4FF JUMP JUMPDEST PUSH2 0xF3 PUSH2 0x64 JUMP JUMPDEST DUP1 PUSH2 0xFD DUP2 PUSH2 0xCE JUMP JUMPDEST SUB SWAP1 RETURN JUMPDEST PUSH2 0x6A JUMP JUMPDEST PUSH1 0xFF AND SWAP1 JUMP JUMPDEST PUSH2 0x115 DUP2 PUSH2 0x106 JUMP JUMPDEST SUB PUSH2 0x11C JUMPI JUMP JUMPDEST PUSH0 DUP1 REVERT JUMPDEST SWAP1 POP CALLDATALOAD SWAP1 PUSH2 0x12D DUP3 PUSH2 0x10C JUMP JUMPDEST JUMP JUMPDEST PUSH0 DUP1 REVERT JUMPDEST PUSH0 DUP1 REVERT JUMPDEST PUSH0 DUP1 REVERT JUMPDEST SWAP1 SWAP2 DUP3 PUSH1 0x1F DUP4 ADD SLT ISZERO PUSH2 0x175 JUMPI DUP2 CALLDATALOAD SWAP2 PUSH8 0xFFFFFFFFFFFFFFFF DUP4 GT PUSH2 0x170 JUMPI PUSH1 0x20 ADD SWAP3 PUSH1 0x1 DUP4 MUL DUP5 ADD GT PUSH2 0x16B JUMPI JUMP JUMPDEST PUSH2 0x137 JUMP JUMPDEST PUSH2 0x133 JUMP JUMPDEST PUSH2 0x12F JUMP JUMPDEST SWAP1 JUMP JUMPDEST PUSH2 0x186 DUP2 PUSH2 0x17A JUMP JUMPDEST SUB PUSH2 0x18D JUMPI JUMP JUMPDEST PUSH0 DUP1 REVERT JUMPDEST SWAP1 POP CALLDATALOAD SWAP1 PUSH2 0x19E DUP3 PUSH2 0x17D JUMP JUMPDEST JUMP JUMPDEST SWAP1 PUSH1 0x60 DUP3 DUP3 SUB SLT PUSH2 0x1EE JUMPI PUSH2 0x1B7 DUP2 PUSH0 DUP5 ADD PUSH2 0x120 JUMP JUMPDEST SWAP3 PUSH1 0x20 DUP4 ADD CALLDATALOAD PUSH8 0xFFFFFFFFFFFFFFFF DUP2 GT PUSH2 0x1E9 JUMPI PUSH2 0x1DB DUP4 PUSH2 0x1E6 SWAP3 DUP7 ADD PUSH2 0x13B JUMP JUMPDEST SWAP4 SWAP1 SWAP5 PUSH1 0x40 ADD PUSH2 0x191 JUMP JUMPDEST SWAP1 JUMP JUMPDEST PUSH2 0x72 JUMP JUMPDEST PUSH2 0x6E JUMP JUMPDEST CALLVALUE PUSH2 0x21D JUMPI PUSH2 0x203 CALLDATASIZE PUSH1 0x4 PUSH2 0x1A0 JUMP JUMPDEST POP POP POP POP PUSH2 0x20F PUSH2 0x64 JUMP JUMPDEST DUP1 PUSH2 0x219 DUP2 PUSH2 0xCE JUMP JUMPDEST SUB SWAP1 RETURN JUMPDEST PUSH2 0x6A JUMP JUMPDEST PUSH0 DUP1 REVERT JUMPDEST SWAP1 DUP2 PUSH2 0x160 SWAP2 SUB SLT PUSH2 0x235 JUMPI SWAP1 JUMP JUMPDEST PUSH2 0x222 JUMP JUMPDEST SWAP1 JUMP JUMPDEST PUSH2 0x246 DUP2 PUSH2 0x23A JUMP JUMPDEST SUB PUSH2 0x24D JUMPI JUMP JUMPDEST PUSH0 DUP1 REVERT JUMPDEST SWAP1 POP CALLDATALOAD SWAP1 PUSH2 0x25E DUP3 PUSH2 0x23D JUMP JUMPDEST JUMP JUMPDEST SWAP1 SWAP2 PUSH1 0x60 DUP3 DUP5 SUB SLT PUSH2 0x2AD JUMPI PUSH0 DUP3 ADD CALLDATALOAD PUSH8 0xFFFFFFFFFFFFFFFF DUP2 GT PUSH2 0x2A8 JUMPI PUSH2 0x28E DUP5 PUSH2 0x2A5 SWAP3 DUP6 ADD PUSH2 0x226 JUMP JUMPDEST SWAP4 PUSH2 0x29C DUP2 PUSH1 0x20 DUP7 ADD PUSH2 0x251 JUMP JUMPDEST SWAP4 PUSH1 0x40 ADD PUSH2 0x191 JUMP JUMPDEST SWAP1 JUMP JUMPDEST PUSH2 0x72 JUMP JUMPDEST PUSH2 0x6E JUMP JUMPDEST MLOAD SWAP1 JUMP JUMPDEST PUSH1 0x20 SWAP2 DUP2 MSTORE ADD SWAP1 JUMP JUMPDEST PUSH0 JUMPDEST DUP4 DUP2 LT PUSH2 0x2D1 JUMPI POP POP SWAP1 PUSH0 SWAP2 ADD MSTORE JUMP JUMPDEST DUP1 PUSH1 0x20 SWAP2 DUP4 ADD MLOAD DUP2 DUP6 ADD MSTORE ADD PUSH2 0x2C1 JUMP JUMPDEST PUSH1 0x1F DUP1 NOT SWAP2 ADD AND SWAP1 JUMP JUMPDEST PUSH2 0x30B PUSH2 0x314 PUSH1 0x20 SWAP4 PUSH2 0x319 SWAP4 PUSH2 0x302 DUP2 PUSH2 0x2B2 JUMP JUMPDEST SWAP4 DUP5 DUP1 SWAP4 PUSH2 0x2B6 JUMP JUMPDEST SWAP6 DUP7 SWAP2 ADD PUSH2 0x2BF JUMP JUMPDEST PUSH2 0x2E2 JUMP JUMPDEST ADD SWAP1 JUMP JUMPDEST PUSH2 0x326 SWAP1 PUSH2 0x17A JUMP JUMPDEST SWAP1 MSTORE JUMP JUMPDEST SWAP3 SWAP2 PUSH1 0x20 PUSH2 0x346 PUSH2 0x34E SWAP4 PUSH1 0x40 DUP8 ADD SWAP1 DUP8 DUP3 SUB PUSH0 DUP10 ADD MSTORE PUSH2 0x2EC JUMP JUMPDEST SWAP5 ADD SWAP1 PUSH2 0x31D JUMP JUMPDEST JUMP JUMPDEST CALLVALUE PUSH2 0x382 JUMPI PUSH2 0x369 PUSH2 0x363 CALLDATASIZE PUSH1 0x4 PUSH2 0x260 JUMP JUMPDEST SWAP2 PUSH2 0x61C JUMP JUMPDEST SWAP1 PUSH2 0x37E PUSH2 0x375 PUSH2 0x64 JUMP JUMPDEST SWAP3 DUP4 SWAP3 DUP4 PUSH2 0x32A JUMP JUMPDEST SUB SWAP1 RETURN JUMPDEST PUSH2 0x6A JUMP JUMPDEST PUSH0 SWAP2 SUB SLT PUSH2 0x391 JUMPI JUMP JUMPDEST PUSH2 0x6E JUMP JUMPDEST PUSH32 0x0 SWAP1 JUMP JUMPDEST PUSH2 0x3C3 SWAP1 PUSH2 0x76 JUMP JUMPDEST SWAP1 JUMP JUMPDEST PUSH2 0x3CF SWAP1 PUSH2 0x3BA JUMP JUMPDEST SWAP1 MSTORE JUMP JUMPDEST SWAP2 SWAP1 PUSH2 0x3E6 SWAP1 PUSH0 PUSH1 0x20 DUP6 ADD SWAP5 ADD SWAP1 PUSH2 0x3C6 JUMP JUMPDEST JUMP JUMPDEST CALLVALUE PUSH2 0x418 JUMPI PUSH2 0x3F8 CALLDATASIZE PUSH1 0x4 PUSH2 0x387 JUMP JUMPDEST PUSH2 0x414 PUSH2 0x403 PUSH2 0x396 JUMP JUMPDEST PUSH2 0x40B PUSH2 0x64 JUMP JUMPDEST SWAP2 DUP3 SWAP2 DUP3 PUSH2 0x3D3 JUMP JUMPDEST SUB SWAP1 RETURN JUMPDEST PUSH2 0x6A JUMP JUMPDEST PUSH0 DUP1 REVERT JUMPDEST PUSH1 0x20 SWAP2 DUP2 MSTORE ADD SWAP1 JUMP JUMPDEST PUSH0 PUSH32 0x4F6E6C7920454F41000000000000000000000000000000000000000000000000 SWAP2 ADD MSTORE JUMP JUMPDEST PUSH2 0x45E PUSH1 0x8 PUSH1 0x20 SWAP3 PUSH2 0x421 JUMP JUMPDEST PUSH2 0x467 DUP2 PUSH2 0x42A JUMP JUMPDEST ADD SWAP1 JUMP JUMPDEST PUSH2 0x480 SWAP1 PUSH1 0x20 DUP2 ADD SWAP1 PUSH0 DUP2 DUP4 SUB SWAP2 ADD MSTORE PUSH2 0x451 JUMP JUMPDEST SWAP1 JUMP JUMPDEST ISZERO PUSH2 0x48A JUMPI JUMP JUMPDEST PUSH2 0x492 PUSH2 0x64 JUMP JUMPDEST PUSH3 0x461BCD PUSH1 0xE5 SHL DUP2 MSTORE DUP1 PUSH2 0x4A8 PUSH1 0x4 DUP3 ADD PUSH2 0x46B JUMP JUMPDEST SUB SWAP1 REVERT JUMPDEST SWAP1 JUMP JUMPDEST PUSH2 0x4C3 PUSH2 0x4BE PUSH2 0x4C8 SWAP3 PUSH2 0x76 JUMP JUMPDEST PUSH2 0x4AC JUMP JUMPDEST PUSH2 0x76 JUMP JUMPDEST SWAP1 JUMP JUMPDEST PUSH2 0x4D4 SWAP1 PUSH2 0x4AF JUMP JUMPDEST SWAP1 JUMP JUMPDEST PUSH2 0x4E0 SWAP1 PUSH2 0x4CB JUMP JUMPDEST SWAP1 JUMP JUMPDEST PUSH2 0x4EC SWAP1 PUSH2 0x4CB JUMP JUMPDEST SWAP1 JUMP JUMPDEST PUSH2 0x4F7 PUSH2 0x64 JUMP JUMPDEST RETURNDATASIZE PUSH0 DUP3 RETURNDATACOPY RETURNDATASIZE SWAP1 REVERT JUMPDEST PUSH0 DUP1 DUP1 PUSH2 0x528 DUP2 SWAP5 PUSH2 0x523 CALLER PUSH2 0x51D PUSH2 0x517 ORIGIN PUSH2 0x3BA JUMP JUMPDEST SWAP2 PUSH2 0x3BA JUMP JUMPDEST EQ PUSH2 0x483 JUMP JUMPDEST PUSH2 0x4D7 JUMP JUMPDEST PUSH2 0x531 ADDRESS PUSH2 0x4E3 JUMP JUMPDEST BALANCE SWAP1 DUP3 DUP3 ISZERO PUSH2 0x548 JUMPI JUMPDEST CALL ISZERO PUSH2 0x543 JUMPI JUMP JUMPDEST PUSH2 0x4EF JUMP JUMPDEST POP PUSH2 0x8FC PUSH2 0x53B JUMP JUMPDEST PUSH1 0x60 SWAP1 JUMP JUMPDEST PUSH0 SWAP1 JUMP JUMPDEST PUSH4 0x4E487B71 PUSH1 0xE0 SHL PUSH0 MSTORE PUSH1 0x41 PUSH1 0x4 MSTORE PUSH1 0x24 PUSH0 REVERT JUMPDEST SWAP1 PUSH2 0x578 SWAP1 PUSH2 0x2E2 JUMP JUMPDEST DUP2 ADD SWAP1 DUP2 LT PUSH8 0xFFFFFFFFFFFFFFFF DUP3 GT OR PUSH2 0x592 JUMPI PUSH1 0x40 MSTORE JUMP JUMPDEST PUSH2 0x55A JUMP JUMPDEST SWAP1 PUSH2 0x5AA PUSH2 0x5A3 PUSH2 0x64 JUMP JUMPDEST SWAP3 DUP4 PUSH2 0x56E JUMP JUMPDEST JUMP JUMPDEST PUSH8 0xFFFFFFFFFFFFFFFF DUP2 GT PUSH2 0x5CA JUMPI PUSH2 0x5C6 PUSH1 0x20 SWAP2 PUSH2 0x2E2 JUMP JUMPDEST ADD SWAP1 JUMP JUMPDEST PUSH2 0x55A JUMP JUMPDEST SWAP1 PUSH2 0x5E1 PUSH2 0x5DC DUP4 PUSH2 0x5AC JUMP JUMPDEST PUSH2 0x597 JUMP JUMPDEST SWAP2 DUP3 MSTORE JUMP JUMPDEST PUSH2 0x5EF PUSH0 PUSH2 0x5CF JUMP JUMPDEST SWAP1 JUMP JUMPDEST PUSH2 0x5FA PUSH2 0x5E6 JUMP JUMPDEST SWAP1 JUMP JUMPDEST SWAP1 JUMP JUMPDEST PUSH2 0x614 PUSH2 0x60F PUSH2 0x619 SWAP3 PUSH2 0x5FD JUMP JUMPDEST PUSH2 0x4AC JUMP JUMPDEST PUSH2 0x17A JUMP JUMPDEST SWAP1 JUMP JUMPDEST POP POP POP PUSH2 0x627 PUSH2 0x551 JUMP JUMPDEST POP PUSH2 0x630 PUSH2 0x556 JUMP JUMPDEST POP PUSH2 0x639 PUSH2 0x5F2 JUMP JUMPDEST SWAP1 PUSH2 0x643 PUSH0 PUSH2 0x600 JUMP JUMPDEST SWAP1 JUMP INVALID LOG2 PUSH5 0x6970667358 0x22 SLT KECCAK256 0xEA 0x2C 0xBD JUMPDEST CALLER 0x4C PUSH32 0x68DE6748543F93C5002B5C5055F4A456B821BA9DEB2A752A4664736F6C634300 ADDMOD XOR STOP CALLER "},"methodIdentifiers":{"entryPoint()":"b0d691fe","postOp(uint8,bytes,uint256)":"a9a23409","validatePaymasterUserOp((address,uint256,bytes,bytes,uint256,uint256,uint256,uint256,uint256,address,bytes),bytes32,uint256)":"af1c7860","withdraw(address)":"51cff8d9"}}}}}