{"project/contracts/GameLogic.sol":{"GameLogic":{"abi":[{"inputs":[{"internalType":"address","name":"_gameItem","type":"address"}],"stateMutability":"nonpayable","type":"constructor"},{"anonymous":false,"inputs":[{"indexed":true,"internalType":"address","name":"player","type":"address"},{"indexed":false,"internalType":"uint256","name":"tokenId","type":"uint256"},{"indexed":false,"internalType":"string","name":"uri","type":"string"}],"name":"ItemMinted","type":"event"},{"anonymous":false,"inputs":[{"indexed":true,"internalType":"address","name":"player","type":"address"},{"indexed":false,"internalType":"uint256","name":"tokenId","type":"uint256"},{"indexed":false,"internalType":"uint8","name":"newLevel","type":"uint8"}],"name":"ItemUpgraded","type":"event"},{"anonymous":false,"inputs":[{"indexed":true,"internalType":"address","name":"previousOwner","type":"address"},{"indexed":true,"internalType":"address","name":"newOwner","type":"address"}],"name":"OwnershipTransferred","type":"event"},{"anonymous":false,"inputs":[{"indexed":true,"internalType":"address","name":"player","type":"address"},{"indexed":false,"internalType":"uint256","name":"amount","type":"uint256"},{"indexed":false,"internalType":"uint256","name":"total","type":"uint256"}],"name":"XPGained","type":"event"},{"anonymous":false,"inputs":[{"indexed":true,"internalType":"address","name":"player","type":"address"},{"indexed":false,"internalType":"uint256","name":"amount","type":"uint256"},{"indexed":false,"internalType":"uint256","name":"remaining","type":"uint256"}],"name":"XPSpent","type":"event"},{"inputs":[],"name":"gameItem","outputs":[{"internalType":"contract GameItem","name":"","type":"address"}],"stateMutability":"view","type":"function"},{"inputs":[{"internalType":"address","name":"player","type":"address"},{"internalType":"uint256","name":"amount","type":"uint256"}],"name":"grantXP","outputs":[],"stateMutability":"nonpayable","type":"function"},{"inputs":[{"internalType":"uint256","name":"","type":"uint256"}],"name":"itemLevel","outputs":[{"internalType":"uint8","name":"","type":"uint8"}],"stateMutability":"view","type":"function"},{"inputs":[{"internalType":"address","name":"to","type":"address"},{"internalType":"string","name":"uri","type":"string"},{"internalType":"uint256","name":"initialXP","type":"uint256"}],"name":"mintItem","outputs":[{"internalType":"uint256","name":"tokenId","type":"uint256"}],"stateMutability":"nonpayable","type":"function"},{"inputs":[],"name":"owner","outputs":[{"internalType":"address","name":"","type":"address"}],"stateMutability":"view","type":"function"},{"inputs":[],"name":"renounceOwnership","outputs":[],"stateMutability":"nonpayable","type":"function"},{"inputs":[{"internalType":"address","name":"player","type":"address"},{"internalType":"uint256","name":"amount","type":"uint256"}],"name":"spendXP","outputs":[],"stateMutability":"nonpayable","type":"function"},{"inputs":[{"internalType":"address","name":"newOwner","type":"address"}],"name":"transferOwnership","outputs":[],"stateMutability":"nonpayable","type":"function"},{"inputs":[{"internalType":"uint256","name":"tokenId","type":"uint256"},{"internalType":"uint256","name":"xpCost","type":"uint256"}],"name":"upgradeItem","outputs":[],"stateMutability":"nonpayable","type":"function"},{"inputs":[{"internalType":"address","name":"","type":"address"}],"name":"xpBalance","outputs":[{"internalType":"uint256","name":"","type":"uint256"}],"stateMutability":"view","type":"function"}],"evm":{"bytecode":{"linkReferences":{},"object":"60a0604052346200004e576200001e6200001862000127565b62000257565b6200002862000054565b611319620003d6823960805181818161020c01528181610b5d0152611067015261131990f35b6200005a565b60405190565b5f80fd5b601f801991011690565b634e487b7160e01b5f52604160045260245ffd5b9062000088906200005e565b810190811060018060401b03821117620000a157604052565b62000068565b90620000be620000b662000054565b92836200007c565b565b5f80fd5b60018060a01b031690565b620000da90620000c4565b90565b620000e881620000cf565b03620000f057565b5f80fd5b905051906200010382620000dd565b565b9060208282031262000121576200011e915f01620000f4565b90565b620000c0565b6200014a620016ef803803806200013e81620000a7565b92833981019062000105565b90565b90565b90565b6200016c6200016662000172926200014d565b62000150565b620000c4565b90565b620001809062000153565b90565b60209181520190565b5f7f47616d654974656d2061646472657373207a65726f0000000000000000000000910152565b620001c2601560209262000183565b620001cd816200018c565b0190565b620001e89060208101905f818303910152620001b3565b90565b15620001f357565b620001fd62000054565b62461bcd60e51b8152806200021560048201620001d1565b0390fd5b620002326200022c6200023892620000c4565b62000150565b620000c4565b90565b620002469062000219565b90565b62000254906200023b565b90565b6200029990620002666200029e565b62000293816200028b620002846200027e5f62000175565b620000cf565b91620000cf565b1415620001eb565b62000249565b608052565b620002b2620002ac620002b8565b6200036a565b565b5f90565b620002c2620002b4565b503390565b5f1c90565b60018060a01b031690565b620002e6620002ec91620002c7565b620002cc565b90565b620002fb9054620002d7565b90565b5f1b90565b906200031660018060a01b0391620002fe565b9181191691161790565b6200032b9062000219565b90565b620003399062000320565b90565b90565b90620003596200035362000361926200032e565b6200033c565b825462000303565b9055565b5f0190565b620003755f620002ef565b62000381825f6200033f565b90620003b9620003b27f8be0079c531659141344cd1fd0a4f28419497f9722a3daafe3b4186f6b6457e0936200032e565b916200032e565b91620003c462000054565b80620003d08162000365565b0390a356fe60806040526004361015610013575b6106f0565b61001d5f356100bc565b80630551e88d146100b75780632500eacc146100b25780635e8e9cd6146100ad578063715018a6146100a85780638da5cb5b146100a35780639b72f1c11461009e578063c1442fff14610099578063cc6ace0314610094578063f2fde38b1461008f5763fe0f75070361000e576106ba565b610549565b610514565b610423565b6103ee565b610311565b6102bc565b610287565b6101c7565b610166565b60e01c90565b60405190565b5f80fd5b5f80fd5b5f80fd5b60018060a01b031690565b6100e8906100d4565b90565b6100f4816100df565b036100fb57565b5f80fd5b9050359061010c826100eb565b565b90565b61011a8161010e565b0361012157565b5f80fd5b9050359061013282610111565b565b919060408382031261015c5780610150610159925f86016100ff565b93602001610125565b90565b6100cc565b5f0190565b346101955761017f610179366004610134565b90610925565b6101876100c2565b8061019181610161565b0390f35b6100c8565b91906040838203126101c257806101b66101bf925f8601610125565b93602001610125565b90565b6100cc565b346101f6576101e06101da36600461019a565b90610b52565b6101e86100c2565b806101f281610161565b0390f35b6100c8565b5f91031261020557565b6100cc565b7f000000000000000000000000000000000000000000000000000000000000000090565b90565b61024561024061024a926100d4565b61022e565b6100d4565b90565b61025690610231565b90565b6102629061024d565b90565b61026e90610259565b9052565b9190610285905f60208501940190610265565b565b346102b7576102973660046101fb565b6102b36102a261020a565b6102aa6100c2565b91829182610272565b0390f35b6100c8565b346102ea576102cc3660046101fb565b6102d4610d46565b6102dc6100c2565b806102e681610161565b0390f35b6100c8565b6102f8906100df565b9052565b919061030f905f602085019401906102ef565b565b34610341576103213660046101fb565b61033d61032c610d80565b6103346100c2565b918291826102fc565b0390f35b6100c8565b9060208282031261035f5761035c915f016100ff565b90565b6100cc565b61036d9061024d565b90565b9061037a90610364565b5f5260205260405f2090565b1c90565b90565b61039d9060086103a29302610386565b61038a565b90565b906103b0915461038d565b90565b6103c9906103c46001915f92610370565b6103a5565b90565b6103d59061010e565b9052565b91906103ec905f602085019401906103cc565b565b3461041e5761041a610409610404366004610346565b6103b3565b6104116100c2565b918291826103d9565b0390f35b6100c8565b346104525761043c610436366004610134565b90610e52565b6104446100c2565b8061044e81610161565b0390f35b6100c8565b906020828203126104705761046d915f01610125565b90565b6100cc565b61048961048461048e9261010e565b61022e565b61010e565b90565b9061049b90610475565b5f5260205260405f2090565b60ff1690565b6104bd9060086104c29302610386565b6104a7565b90565b906104d091546104ad565b90565b6104e9906104e46002915f92610491565b6104c5565b90565b60ff1690565b6104fb906104ec565b9052565b9190610512905f602085019401906104f2565b565b346105445761054061052f61052a366004610457565b6104d3565b6105376100c2565b918291826104ff565b0390f35b6100c8565b346105775761056161055c366004610346565b610f49565b6105696100c2565b8061057381610161565b0390f35b6100c8565b5f80fd5b5f80fd5b601f801991011690565b634e487b7160e01b5f52604160045260245ffd5b906105ac90610584565b810190811067ffffffffffffffff8211176105c657604052565b61058e565b906105de6105d76100c2565b92836105a2565b565b67ffffffffffffffff81116105fe576105fa602091610584565b0190565b61058e565b90825f939282370152565b9092919261062361061e826105e0565b6105cb565b9381855260208501908284011161063f5761063d92610603565b565b610580565b9080601f830112156106625781602061065f9335910161060e565b90565b61057c565b90916060828403126106b55761067f835f84016100ff565b9260208301359067ffffffffffffffff82116106b0576106a4816106ad938601610644565b93604001610125565b90565b6100d0565b6100cc565b346106eb576106e76106d66106d0366004610667565b91611176565b6106de6100c2565b918291826103d9565b0390f35b6100c8565b5f80fd5b906107069161070161120d565b61087e565b565b90565b61071f61071a61072492610708565b61022e565b6100d4565b90565b6107309061070b565b90565b60209181520190565b5f7f5a65726f20616464726573730000000000000000000000000000000000000000910152565b610770600c602092610733565b6107798161073c565b0190565b6107929060208101905f818303910152610763565b90565b1561079c57565b6107a46100c2565b62461bcd60e51b8152806107ba6004820161077d565b0390fd5b5f1c90565b6107cf6107d4916107be565b61038a565b90565b6107e190546107c3565b90565b634e487b7160e01b5f52601160045260245ffd5b61080761080d9193929361010e565b9261010e565b820180921161081857565b6107e4565b5f1b90565b9061082e5f199161081d565b9181191691161790565b90565b9061085061084b61085792610475565b610838565b8254610822565b9055565b91602061087c92949361087560408201965f8301906103cc565b01906103cc565b565b906108a48261089d6108976108925f610727565b6100df565b916100df565b1415610795565b6108cc816108c66108b760018690610370565b916108c1836107d7565b6107f8565b9061083b565b6108e16108dc8392936001610370565b6107d7565b61090b7f018fb4e3082b6ab8359296d38dbbabea72e8c0f7b492f7d9a9cc0854b365eff292610364565b926109206109176100c2565b9283928361085b565b0390a2565b9061092f916106f4565b565b60e01b90565b90505190610944826100eb565b565b9060208282031261095f5761095c915f01610937565b90565b6100cc565b61096c6100c2565b3d5f823e3d90fd5b5f7f4e6f74206974656d206f776e6572000000000000000000000000000000000000910152565b6109a8600e602092610733565b6109b181610974565b0190565b6109ca9060208101905f81830391015261099b565b90565b156109d457565b6109dc6100c2565b62461bcd60e51b8152806109f2600482016109b5565b0390fd5b5f7f496e73756666696369656e742058500000000000000000000000000000000000910152565b610a2a600f602092610733565b610a33816109f6565b0190565b610a4c9060208101905f818303910152610a1d565b90565b15610a5657565b610a5e6100c2565b62461bcd60e51b815280610a7460048201610a37565b0390fd5b610a87610a8d9193929361010e565b9261010e565b8203918211610a9857565b6107e4565b610aa9610aae916107be565b6104a7565b90565b610abb9054610a9d565b90565b610ac7906104ec565b60ff8114610ad55760010190565b6107e4565b90610ae660ff9161081d565b9181191691161790565b610b04610aff610b09926104ec565b61022e565b6104ec565b90565b90565b90610b24610b1f610b2b92610af0565b610b0c565b8254610ada565b9055565b916020610b50929493610b4960408201965f8301906103cc565b01906104f2565b565b90610bab6020610b817f0000000000000000000000000000000000000000000000000000000000000000610259565b636352211e90610ba08692610b946100c2565b95869485938493610931565b8352600483016103d9565b03915afa8015610d1c57610bd9915f91610cee575b50610bd3610bcd336100df565b916100df565b146109cd565b610c28610c17610bf3610bee60013390610370565b6107d7565b610c1081610c09610c038761010e565b9161010e565b1015610a4f565b8390610a78565b610c2360013390610370565b61083b565b33610c3d610c3860013390610370565b6107d7565b610c677f44b283a234156030adfb0466f3245047a25246498f69b08f363513cdb6fed36c92610364565b92610c7c610c736100c2565b9283928361085b565b0390a2610c8b60028290610491565b610ca6610c9f610c9a83610ab1565b610abe565b8092610b0f565b90339091610cd47f9e16fe98daf9ffc5a41b550582c3980004f6720b94040dd500fc93677571a1e292610364565b92610ce9610ce06100c2565b92839283610b2f565b0390a2565b610d0f915060203d8111610d15575b610d0781836105a2565b810190610946565b5f610bc0565b503d610cfd565b610964565b610d2961120d565b610d31610d33565b565b610d44610d3f5f610727565b611277565b565b610d4e610d21565b565b5f90565b60018060a01b031690565b610d6b610d70916107be565b610d54565b90565b610d7d9054610d5f565b90565b610d88610d50565b50610d925f610d73565b90565b90610da791610da261120d565b610da9565b565b90610df9610de8610dc4610dbf60018690610370565b6107d7565b610de181610dda610dd48761010e565b9161010e565b1015610a4f565b8390610a78565b610df460018590610370565b61083b565b610e0e610e098392936001610370565b6107d7565b610e387f44b283a234156030adfb0466f3245047a25246498f69b08f363513cdb6fed36c92610364565b92610e4d610e446100c2565b9283928361085b565b0390a2565b90610e5c91610d95565b565b610e6f90610e6a61120d565b610f19565b565b60207f6464726573730000000000000000000000000000000000000000000000000000917f4f776e61626c653a206e6577206f776e657220697320746865207a65726f20615f8201520152565b610ecb6026604092610733565b610ed481610e71565b0190565b610eed9060208101905f818303910152610ebe565b90565b15610ef757565b610eff6100c2565b62461bcd60e51b815280610f1560048201610ed8565b0390fd5b610f4790610f4281610f3b610f35610f305f610727565b6100df565b916100df565b1415610ef0565b611277565b565b610f5290610e5e565b565b5f90565b90610f6c939291610f6761120d565b61105c565b90565b90505190610f7c82610111565b565b90602082820312610f9757610f94915f01610f6f565b90565b6100cc565b5190565b5f5b838110610fb2575050905f910152565b806020918301518185015201610fa2565b610fe2610feb602093610ff093610fd981610f9c565b93848093610733565b95869101610fa0565b610584565b0190565b916110179261100a60408201935f8301906102ef565b6020818403910152610fc3565b90565b9161103d9261103060408201935f8301906103cc565b6020818403910152610fc3565b90565b61105461104f61105992610708565b61022e565b61010e565b90565b93929091935061108b7f0000000000000000000000000000000000000000000000000000000000000000610259565b602063d0def5219184906110b25f89956110bd6110a66100c2565b97889687958694610931565b845260048401610ff4565b03925af1908115611171575f91611143575b50938285916110fe7f9aad673c07866c8b5f7049a3b0a7e8091c80c3685b33244faf2bb621f050fdd792610364565b9261111361110a6100c2565b9283928361101a565b0390a2806111296111235f611040565b9161010e565b11611133575b5050565b61113c91610925565b5f8061112f565b611164915060203d811161116a575b61115c81836105a2565b810190610f7e565b5f6110cf565b503d611152565b610964565b906111899291611184610f54565b610f58565b90565b5f7f4f776e61626c653a2063616c6c6572206973206e6f7420746865206f776e6572910152565b6111bf60208092610733565b6111c88161118c565b0190565b6111e19060208101905f8183039101526111b3565b90565b156111eb57565b6111f36100c2565b62461bcd60e51b815280611209600482016111cc565b0390fd5b611237611218610d80565b61123161122b6112266112d6565b6100df565b916100df565b146111e4565b565b9061124a60018060a01b039161081d565b9181191691161790565b90565b9061126c61126761127392610364565b611254565b8254611239565b9055565b6112805f610d73565b61128a825f611257565b906112be6112b87f8be0079c531659141344cd1fd0a4f28419497f9722a3daafe3b4186f6b6457e093610364565b91610364565b916112c76100c2565b806112d181610161565b0390a3565b6112de610d50565b50339056fea26469706673582212200f76223c56084674683e9d343151666c3a2fcf881b3609b06c8942d0fcf6e55164736f6c63430008180033","opcodes":"PUSH1 0xA0 PUSH1 0x40 MSTORE CALLVALUE PUSH3 0x4E JUMPI PUSH3 0x1E PUSH3 0x18 PUSH3 0x127 JUMP JUMPDEST PUSH3 0x257 JUMP JUMPDEST PUSH3 0x28 PUSH3 0x54 JUMP JUMPDEST PUSH2 0x1319 PUSH3 0x3D6 DUP3 CODECOPY PUSH1 0x80 MLOAD DUP2 DUP2 DUP2 PUSH2 0x20C ADD MSTORE DUP2 DUP2 PUSH2 0xB5D ADD MSTORE PUSH2 0x1067 ADD MSTORE PUSH2 0x1319 SWAP1 RETURN JUMPDEST PUSH3 0x5A JUMP JUMPDEST PUSH1 0x40 MLOAD SWAP1 JUMP JUMPDEST PUSH0 DUP1 REVERT JUMPDEST PUSH1 0x1F DUP1 NOT SWAP2 ADD AND SWAP1 JUMP JUMPDEST PUSH4 0x4E487B71 PUSH1 0xE0 SHL PUSH0 MSTORE PUSH1 0x41 PUSH1 0x4 MSTORE PUSH1 0x24 PUSH0 REVERT JUMPDEST SWAP1 PUSH3 0x88 SWAP1 PUSH3 0x5E JUMP JUMPDEST DUP2 ADD SWAP1 DUP2 LT PUSH1 0x1 DUP1 PUSH1 0x40 SHL SUB DUP3 GT OR PUSH3 0xA1 JUMPI PUSH1 0x40 MSTORE JUMP JUMPDEST PUSH3 0x68 JUMP JUMPDEST SWAP1 PUSH3 0xBE PUSH3 0xB6 PUSH3 0x54 JUMP JUMPDEST SWAP3 DUP4 PUSH3 0x7C JUMP JUMPDEST JUMP JUMPDEST PUSH0 DUP1 REVERT JUMPDEST PUSH1 0x1 DUP1 PUSH1 0xA0 SHL SUB AND SWAP1 JUMP JUMPDEST PUSH3 0xDA SWAP1 PUSH3 0xC4 JUMP JUMPDEST SWAP1 JUMP JUMPDEST PUSH3 0xE8 DUP2 PUSH3 0xCF JUMP JUMPDEST SUB PUSH3 0xF0 JUMPI JUMP JUMPDEST PUSH0 DUP1 REVERT JUMPDEST SWAP1 POP MLOAD SWAP1 PUSH3 0x103 DUP3 PUSH3 0xDD JUMP JUMPDEST JUMP JUMPDEST SWAP1 PUSH1 0x20 DUP3 DUP3 SUB SLT PUSH3 0x121 JUMPI PUSH3 0x11E SWAP2 PUSH0 ADD PUSH3 0xF4 JUMP JUMPDEST SWAP1 JUMP JUMPDEST PUSH3 0xC0 JUMP JUMPDEST PUSH3 0x14A PUSH3 0x16EF DUP1 CODESIZE SUB DUP1 PUSH3 0x13E DUP2 PUSH3 0xA7 JUMP JUMPDEST SWAP3 DUP4 CODECOPY DUP2 ADD SWAP1 PUSH3 0x105 JUMP JUMPDEST SWAP1 JUMP JUMPDEST SWAP1 JUMP JUMPDEST SWAP1 JUMP JUMPDEST PUSH3 0x16C PUSH3 0x166 PUSH3 0x172 SWAP3 PUSH3 0x14D JUMP JUMPDEST PUSH3 0x150 JUMP JUMPDEST PUSH3 0xC4 JUMP JUMPDEST SWAP1 JUMP JUMPDEST PUSH3 0x180 SWAP1 PUSH3 0x153 JUMP JUMPDEST SWAP1 JUMP JUMPDEST PUSH1 0x20 SWAP2 DUP2 MSTORE ADD SWAP1 JUMP JUMPDEST PUSH0 PUSH32 0x47616D654974656D2061646472657373207A65726F0000000000000000000000 SWAP2 ADD MSTORE JUMP JUMPDEST PUSH3 0x1C2 PUSH1 0x15 PUSH1 0x20 SWAP3 PUSH3 0x183 JUMP JUMPDEST PUSH3 0x1CD DUP2 PUSH3 0x18C JUMP JUMPDEST ADD SWAP1 JUMP JUMPDEST PUSH3 0x1E8 SWAP1 PUSH1 0x20 DUP2 ADD SWAP1 PUSH0 DUP2 DUP4 SUB SWAP2 ADD MSTORE PUSH3 0x1B3 JUMP JUMPDEST SWAP1 JUMP JUMPDEST ISZERO PUSH3 0x1F3 JUMPI JUMP JUMPDEST PUSH3 0x1FD PUSH3 0x54 JUMP JUMPDEST PUSH3 0x461BCD PUSH1 0xE5 SHL DUP2 MSTORE DUP1 PUSH3 0x215 PUSH1 0x4 DUP3 ADD PUSH3 0x1D1 JUMP JUMPDEST SUB SWAP1 REVERT JUMPDEST PUSH3 0x232 PUSH3 0x22C PUSH3 0x238 SWAP3 PUSH3 0xC4 JUMP JUMPDEST PUSH3 0x150 JUMP JUMPDEST PUSH3 0xC4 JUMP JUMPDEST SWAP1 JUMP JUMPDEST PUSH3 0x246 SWAP1 PUSH3 0x219 JUMP JUMPDEST SWAP1 JUMP JUMPDEST PUSH3 0x254 SWAP1 PUSH3 0x23B JUMP JUMPDEST SWAP1 JUMP JUMPDEST PUSH3 0x299 SWAP1 PUSH3 0x266 PUSH3 0x29E JUMP JUMPDEST PUSH3 0x293 DUP2 PUSH3 0x28B PUSH3 0x284 PUSH3 0x27E PUSH0 PUSH3 0x175 JUMP JUMPDEST PUSH3 0xCF JUMP JUMPDEST SWAP2 PUSH3 0xCF JUMP JUMPDEST EQ ISZERO PUSH3 0x1EB JUMP JUMPDEST PUSH3 0x249 JUMP JUMPDEST PUSH1 0x80 MSTORE JUMP JUMPDEST PUSH3 0x2B2 PUSH3 0x2AC PUSH3 0x2B8 JUMP JUMPDEST PUSH3 0x36A JUMP JUMPDEST JUMP JUMPDEST PUSH0 SWAP1 JUMP JUMPDEST PUSH3 0x2C2 PUSH3 0x2B4 JUMP JUMPDEST POP CALLER SWAP1 JUMP JUMPDEST PUSH0 SHR SWAP1 JUMP JUMPDEST PUSH1 0x1 DUP1 PUSH1 0xA0 SHL SUB AND SWAP1 JUMP JUMPDEST PUSH3 0x2E6 PUSH3 0x2EC SWAP2 PUSH3 0x2C7 JUMP JUMPDEST PUSH3 0x2CC JUMP JUMPDEST SWAP1 JUMP JUMPDEST PUSH3 0x2FB SWAP1 SLOAD PUSH3 0x2D7 JUMP JUMPDEST SWAP1 JUMP JUMPDEST PUSH0 SHL SWAP1 JUMP JUMPDEST SWAP1 PUSH3 0x316 PUSH1 0x1 DUP1 PUSH1 0xA0 SHL SUB SWAP2 PUSH3 0x2FE JUMP JUMPDEST SWAP2 DUP2 NOT AND SWAP2 AND OR SWAP1 JUMP JUMPDEST PUSH3 0x32B SWAP1 PUSH3 0x219 JUMP JUMPDEST SWAP1 JUMP JUMPDEST PUSH3 0x339 SWAP1 PUSH3 0x320 JUMP JUMPDEST SWAP1 JUMP JUMPDEST SWAP1 JUMP JUMPDEST SWAP1 PUSH3 0x359 PUSH3 0x353 PUSH3 0x361 SWAP3 PUSH3 0x32E JUMP JUMPDEST PUSH3 0x33C JUMP JUMPDEST DUP3 SLOAD PUSH3 0x303 JUMP JUMPDEST SWAP1 SSTORE JUMP JUMPDEST PUSH0 ADD SWAP1 JUMP JUMPDEST PUSH3 0x375 PUSH0 PUSH3 0x2EF JUMP JUMPDEST PUSH3 0x381 DUP3 PUSH0 PUSH3 0x33F JUMP JUMPDEST SWAP1 PUSH3 0x3B9 PUSH3 0x3B2 PUSH32 0x8BE0079C531659141344CD1FD0A4F28419497F9722A3DAAFE3B4186F6B6457E0 SWAP4 PUSH3 0x32E JUMP JUMPDEST SWAP2 PUSH3 0x32E JUMP JUMPDEST SWAP2 PUSH3 0x3C4 PUSH3 0x54 JUMP JUMPDEST DUP1 PUSH3 0x3D0 DUP2 PUSH3 0x365 JUMP JUMPDEST SUB SWAP1 LOG3 JUMP INVALID PUSH1 0x80 PUSH1 0x40 MSTORE PUSH1 0x4 CALLDATASIZE LT ISZERO PUSH2 0x13 JUMPI JUMPDEST PUSH2 0x6F0 JUMP JUMPDEST PUSH2 0x1D PUSH0 CALLDATALOAD PUSH2 0xBC JUMP JUMPDEST DUP1 PUSH4 0x551E88D EQ PUSH2 0xB7 JUMPI DUP1 PUSH4 0x2500EACC EQ PUSH2 0xB2 JUMPI DUP1 PUSH4 0x5E8E9CD6 EQ PUSH2 0xAD JUMPI DUP1 PUSH4 0x715018A6 EQ PUSH2 0xA8 JUMPI DUP1 PUSH4 0x8DA5CB5B EQ PUSH2 0xA3 JUMPI DUP1 PUSH4 0x9B72F1C1 EQ PUSH2 0x9E JUMPI DUP1 PUSH4 0xC1442FFF EQ PUSH2 0x99 JUMPI DUP1 PUSH4 0xCC6ACE03 EQ PUSH2 0x94 JUMPI DUP1 PUSH4 0xF2FDE38B EQ PUSH2 0x8F JUMPI PUSH4 0xFE0F7507 SUB PUSH2 0xE JUMPI PUSH2 0x6BA JUMP JUMPDEST PUSH2 0x549 JUMP JUMPDEST PUSH2 0x514 JUMP JUMPDEST PUSH2 0x423 JUMP JUMPDEST PUSH2 0x3EE JUMP JUMPDEST PUSH2 0x311 JUMP JUMPDEST PUSH2 0x2BC JUMP JUMPDEST PUSH2 0x287 JUMP JUMPDEST PUSH2 0x1C7 JUMP JUMPDEST PUSH2 0x166 JUMP JUMPDEST PUSH1 0xE0 SHR SWAP1 JUMP JUMPDEST PUSH1 0x40 MLOAD SWAP1 JUMP JUMPDEST PUSH0 DUP1 REVERT JUMPDEST PUSH0 DUP1 REVERT JUMPDEST PUSH0 DUP1 REVERT JUMPDEST PUSH1 0x1 DUP1 PUSH1 0xA0 SHL SUB AND SWAP1 JUMP JUMPDEST PUSH2 0xE8 SWAP1 PUSH2 0xD4 JUMP JUMPDEST SWAP1 JUMP JUMPDEST PUSH2 0xF4 DUP2 PUSH2 0xDF JUMP JUMPDEST SUB PUSH2 0xFB JUMPI JUMP JUMPDEST PUSH0 DUP1 REVERT JUMPDEST SWAP1 POP CALLDATALOAD SWAP1 PUSH2 0x10C DUP3 PUSH2 0xEB JUMP JUMPDEST JUMP JUMPDEST SWAP1 JUMP JUMPDEST PUSH2 0x11A DUP2 PUSH2 0x10E JUMP JUMPDEST SUB PUSH2 0x121 JUMPI JUMP JUMPDEST PUSH0 DUP1 REVERT JUMPDEST SWAP1 POP CALLDATALOAD SWAP1 PUSH2 0x132 DUP3 PUSH2 0x111 JUMP JUMPDEST JUMP JUMPDEST SWAP2 SWAP1 PUSH1 0x40 DUP4 DUP3 SUB SLT PUSH2 0x15C JUMPI DUP1 PUSH2 0x150 PUSH2 0x159 SWAP3 PUSH0 DUP7 ADD PUSH2 0xFF JUMP JUMPDEST SWAP4 PUSH1 0x20 ADD PUSH2 0x125 JUMP JUMPDEST SWAP1 JUMP JUMPDEST PUSH2 0xCC JUMP JUMPDEST PUSH0 ADD SWAP1 JUMP JUMPDEST CALLVALUE PUSH2 0x195 JUMPI PUSH2 0x17F PUSH2 0x179 CALLDATASIZE PUSH1 0x4 PUSH2 0x134 JUMP JUMPDEST SWAP1 PUSH2 0x925 JUMP JUMPDEST PUSH2 0x187 PUSH2 0xC2 JUMP JUMPDEST DUP1 PUSH2 0x191 DUP2 PUSH2 0x161 JUMP JUMPDEST SUB SWAP1 RETURN JUMPDEST PUSH2 0xC8 JUMP JUMPDEST SWAP2 SWAP1 PUSH1 0x40 DUP4 DUP3 SUB SLT PUSH2 0x1C2 JUMPI DUP1 PUSH2 0x1B6 PUSH2 0x1BF SWAP3 PUSH0 DUP7 ADD PUSH2 0x125 JUMP JUMPDEST SWAP4 PUSH1 0x20 ADD PUSH2 0x125 JUMP JUMPDEST SWAP1 JUMP JUMPDEST PUSH2 0xCC JUMP JUMPDEST CALLVALUE PUSH2 0x1F6 JUMPI PUSH2 0x1E0 PUSH2 0x1DA CALLDATASIZE PUSH1 0x4 PUSH2 0x19A JUMP JUMPDEST SWAP1 PUSH2 0xB52 JUMP JUMPDEST PUSH2 0x1E8 PUSH2 0xC2 JUMP JUMPDEST DUP1 PUSH2 0x1F2 DUP2 PUSH2 0x161 JUMP JUMPDEST SUB SWAP1 RETURN JUMPDEST PUSH2 0xC8 JUMP JUMPDEST PUSH0 SWAP2 SUB SLT PUSH2 0x205 JUMPI JUMP JUMPDEST PUSH2 0xCC JUMP JUMPDEST PUSH32 0x0 SWAP1 JUMP JUMPDEST SWAP1 JUMP JUMPDEST PUSH2 0x245 PUSH2 0x240 PUSH2 0x24A SWAP3 PUSH2 0xD4 JUMP JUMPDEST PUSH2 0x22E JUMP JUMPDEST PUSH2 0xD4 JUMP JUMPDEST SWAP1 JUMP JUMPDEST PUSH2 0x256 SWAP1 PUSH2 0x231 JUMP JUMPDEST SWAP1 JUMP JUMPDEST PUSH2 0x262 SWAP1 PUSH2 0x24D JUMP JUMPDEST SWAP1 JUMP JUMPDEST PUSH2 0x26E SWAP1 PUSH2 0x259 JUMP JUMPDEST SWAP1 MSTORE JUMP JUMPDEST SWAP2 SWAP1 PUSH2 0x285 SWAP1 PUSH0 PUSH1 0x20 DUP6 ADD SWAP5 ADD SWAP1 PUSH2 0x265 JUMP JUMPDEST JUMP JUMPDEST CALLVALUE PUSH2 0x2B7 JUMPI PUSH2 0x297 CALLDATASIZE PUSH1 0x4 PUSH2 0x1FB JUMP JUMPDEST PUSH2 0x2B3 PUSH2 0x2A2 PUSH2 0x20A JUMP JUMPDEST PUSH2 0x2AA PUSH2 0xC2 JUMP JUMPDEST SWAP2 DUP3 SWAP2 DUP3 PUSH2 0x272 JUMP JUMPDEST SUB SWAP1 RETURN JUMPDEST PUSH2 0xC8 JUMP JUMPDEST CALLVALUE PUSH2 0x2EA JUMPI PUSH2 0x2CC CALLDATASIZE PUSH1 0x4 PUSH2 0x1FB JUMP JUMPDEST PUSH2 0x2D4 PUSH2 0xD46 JUMP JUMPDEST PUSH2 0x2DC PUSH2 0xC2 JUMP JUMPDEST DUP1 PUSH2 0x2E6 DUP2 PUSH2 0x161 JUMP JUMPDEST SUB SWAP1 RETURN JUMPDEST PUSH2 0xC8 JUMP JUMPDEST PUSH2 0x2F8 SWAP1 PUSH2 0xDF JUMP JUMPDEST SWAP1 MSTORE JUMP JUMPDEST SWAP2 SWAP1 PUSH2 0x30F SWAP1 PUSH0 PUSH1 0x20 DUP6 ADD SWAP5 ADD SWAP1 PUSH2 0x2EF JUMP JUMPDEST JUMP JUMPDEST CALLVALUE PUSH2 0x341 JUMPI PUSH2 0x321 CALLDATASIZE PUSH1 0x4 PUSH2 0x1FB JUMP JUMPDEST PUSH2 0x33D PUSH2 0x32C PUSH2 0xD80 JUMP JUMPDEST PUSH2 0x334 PUSH2 0xC2 JUMP JUMPDEST SWAP2 DUP3 SWAP2 DUP3 PUSH2 0x2FC JUMP JUMPDEST SUB SWAP1 RETURN JUMPDEST PUSH2 0xC8 JUMP JUMPDEST SWAP1 PUSH1 0x20 DUP3 DUP3 SUB SLT PUSH2 0x35F JUMPI PUSH2 0x35C SWAP2 PUSH0 ADD PUSH2 0xFF JUMP JUMPDEST SWAP1 JUMP JUMPDEST PUSH2 0xCC JUMP JUMPDEST PUSH2 0x36D SWAP1 PUSH2 0x24D JUMP JUMPDEST SWAP1 JUMP JUMPDEST SWAP1 PUSH2 0x37A SWAP1 PUSH2 0x364 JUMP JUMPDEST PUSH0 MSTORE PUSH1 0x20 MSTORE PUSH1 0x40 PUSH0 KECCAK256 SWAP1 JUMP JUMPDEST SHR SWAP1 JUMP JUMPDEST SWAP1 JUMP JUMPDEST PUSH2 0x39D SWAP1 PUSH1 0x8 PUSH2 0x3A2 SWAP4 MUL PUSH2 0x386 JUMP JUMPDEST PUSH2 0x38A JUMP JUMPDEST SWAP1 JUMP JUMPDEST SWAP1 PUSH2 0x3B0 SWAP2 SLOAD PUSH2 0x38D JUMP JUMPDEST SWAP1 JUMP JUMPDEST PUSH2 0x3C9 SWAP1 PUSH2 0x3C4 PUSH1 0x1 SWAP2 PUSH0 SWAP3 PUSH2 0x370 JUMP JUMPDEST PUSH2 0x3A5 JUMP JUMPDEST SWAP1 JUMP JUMPDEST PUSH2 0x3D5 SWAP1 PUSH2 0x10E JUMP JUMPDEST SWAP1 MSTORE JUMP JUMPDEST SWAP2 SWAP1 PUSH2 0x3EC SWAP1 PUSH0 PUSH1 0x20 DUP6 ADD SWAP5 ADD SWAP1 PUSH2 0x3CC JUMP JUMPDEST JUMP JUMPDEST CALLVALUE PUSH2 0x41E JUMPI PUSH2 0x41A PUSH2 0x409 PUSH2 0x404 CALLDATASIZE PUSH1 0x4 PUSH2 0x346 JUMP JUMPDEST PUSH2 0x3B3 JUMP JUMPDEST PUSH2 0x411 PUSH2 0xC2 JUMP JUMPDEST SWAP2 DUP3 SWAP2 DUP3 PUSH2 0x3D9 JUMP JUMPDEST SUB SWAP1 RETURN JUMPDEST PUSH2 0xC8 JUMP JUMPDEST CALLVALUE PUSH2 0x452 JUMPI PUSH2 0x43C PUSH2 0x436 CALLDATASIZE PUSH1 0x4 PUSH2 0x134 JUMP JUMPDEST SWAP1 PUSH2 0xE52 JUMP JUMPDEST PUSH2 0x444 PUSH2 0xC2 JUMP JUMPDEST DUP1 PUSH2 0x44E DUP2 PUSH2 0x161 JUMP JUMPDEST SUB SWAP1 RETURN JUMPDEST PUSH2 0xC8 JUMP JUMPDEST SWAP1 PUSH1 0x20 DUP3 DUP3 SUB SLT PUSH2 0x470 JUMPI PUSH2 0x46D SWAP2 PUSH0 ADD PUSH2 0x125 JUMP JUMPDEST SWAP1 JUMP JUMPDEST PUSH2 0xCC JUMP JUMPDEST PUSH2 0x489 PUSH2 0x484 PUSH2 0x48E SWAP3 PUSH2 0x10E JUMP JUMPDEST PUSH2 0x22E JUMP JUMPDEST PUSH2 0x10E JUMP JUMPDEST SWAP1 JUMP JUMPDEST SWAP1 PUSH2 0x49B SWAP1 PUSH2 0x475 JUMP JUMPDEST PUSH0 MSTORE PUSH1 0x20 MSTORE PUSH1 0x40 PUSH0 KECCAK256 SWAP1 JUMP JUMPDEST PUSH1 0xFF AND SWAP1 JUMP JUMPDEST PUSH2 0x4BD SWAP1 PUSH1 0x8 PUSH2 0x4C2 SWAP4 MUL PUSH2 0x386 JUMP JUMPDEST PUSH2 0x4A7 JUMP JUMPDEST SWAP1 JUMP JUMPDEST SWAP1 PUSH2 0x4D0 SWAP2 SLOAD PUSH2 0x4AD JUMP JUMPDEST SWAP1 JUMP JUMPDEST PUSH2 0x4E9 SWAP1 PUSH2 0x4E4 PUSH1 0x2 SWAP2 PUSH0 SWAP3 PUSH2 0x491 JUMP JUMPDEST PUSH2 0x4C5 JUMP JUMPDEST SWAP1 JUMP JUMPDEST PUSH1 0xFF AND SWAP1 JUMP JUMPDEST PUSH2 0x4FB SWAP1 PUSH2 0x4EC JUMP JUMPDEST SWAP1 MSTORE JUMP JUMPDEST SWAP2 SWAP1 PUSH2 0x512 SWAP1 PUSH0 PUSH1 0x20 DUP6 ADD SWAP5 ADD SWAP1 PUSH2 0x4F2 JUMP JUMPDEST JUMP JUMPDEST CALLVALUE PUSH2 0x544 JUMPI PUSH2 0x540 PUSH2 0x52F PUSH2 0x52A CALLDATASIZE PUSH1 0x4 PUSH2 0x457 JUMP JUMPDEST PUSH2 0x4D3 JUMP JUMPDEST PUSH2 0x537 PUSH2 0xC2 JUMP JUMPDEST SWAP2 DUP3 SWAP2 DUP3 PUSH2 0x4FF JUMP JUMPDEST SUB SWAP1 RETURN JUMPDEST PUSH2 0xC8 JUMP JUMPDEST CALLVALUE PUSH2 0x577 JUMPI PUSH2 0x561 PUSH2 0x55C CALLDATASIZE PUSH1 0x4 PUSH2 0x346 JUMP JUMPDEST PUSH2 0xF49 JUMP JUMPDEST PUSH2 0x569 PUSH2 0xC2 JUMP JUMPDEST DUP1 PUSH2 0x573 DUP2 PUSH2 0x161 JUMP JUMPDEST SUB SWAP1 RETURN JUMPDEST PUSH2 0xC8 JUMP JUMPDEST PUSH0 DUP1 REVERT JUMPDEST PUSH0 DUP1 REVERT JUMPDEST PUSH1 0x1F DUP1 NOT SWAP2 ADD AND SWAP1 JUMP JUMPDEST PUSH4 0x4E487B71 PUSH1 0xE0 SHL PUSH0 MSTORE PUSH1 0x41 PUSH1 0x4 MSTORE PUSH1 0x24 PUSH0 REVERT JUMPDEST SWAP1 PUSH2 0x5AC SWAP1 PUSH2 0x584 JUMP JUMPDEST DUP2 ADD SWAP1 DUP2 LT PUSH8 0xFFFFFFFFFFFFFFFF DUP3 GT OR PUSH2 0x5C6 JUMPI PUSH1 0x40 MSTORE JUMP JUMPDEST PUSH2 0x58E JUMP JUMPDEST SWAP1 PUSH2 0x5DE PUSH2 0x5D7 PUSH2 0xC2 JUMP JUMPDEST SWAP3 DUP4 PUSH2 0x5A2 JUMP JUMPDEST JUMP JUMPDEST PUSH8 0xFFFFFFFFFFFFFFFF DUP2 GT PUSH2 0x5FE JUMPI PUSH2 0x5FA PUSH1 0x20 SWAP2 PUSH2 0x584 JUMP JUMPDEST ADD SWAP1 JUMP JUMPDEST PUSH2 0x58E JUMP JUMPDEST SWAP1 DUP3 PUSH0 SWAP4 SWAP3 DUP3 CALLDATACOPY ADD MSTORE JUMP JUMPDEST SWAP1 SWAP3 SWAP2 SWAP3 PUSH2 0x623 PUSH2 0x61E DUP3 PUSH2 0x5E0 JUMP JUMPDEST PUSH2 0x5CB JUMP JUMPDEST SWAP4 DUP2 DUP6 MSTORE PUSH1 0x20 DUP6 ADD SWAP1 DUP3 DUP5 ADD GT PUSH2 0x63F JUMPI PUSH2 0x63D SWAP3 PUSH2 0x603 JUMP JUMPDEST JUMP JUMPDEST PUSH2 0x580 JUMP JUMPDEST SWAP1 DUP1 PUSH1 0x1F DUP4 ADD SLT ISZERO PUSH2 0x662 JUMPI DUP2 PUSH1 0x20 PUSH2 0x65F SWAP4 CALLDATALOAD SWAP2 ADD PUSH2 0x60E JUMP JUMPDEST SWAP1 JUMP JUMPDEST PUSH2 0x57C JUMP JUMPDEST SWAP1 SWAP2 PUSH1 0x60 DUP3 DUP5 SUB SLT PUSH2 0x6B5 JUMPI PUSH2 0x67F DUP4 PUSH0 DUP5 ADD PUSH2 0xFF JUMP JUMPDEST SWAP3 PUSH1 0x20 DUP4 ADD CALLDATALOAD SWAP1 PUSH8 0xFFFFFFFFFFFFFFFF DUP3 GT PUSH2 0x6B0 JUMPI PUSH2 0x6A4 DUP2 PUSH2 0x6AD SWAP4 DUP7 ADD PUSH2 0x644 JUMP JUMPDEST SWAP4 PUSH1 0x40 ADD PUSH2 0x125 JUMP JUMPDEST SWAP1 JUMP JUMPDEST PUSH2 0xD0 JUMP JUMPDEST PUSH2 0xCC JUMP JUMPDEST CALLVALUE PUSH2 0x6EB JUMPI PUSH2 0x6E7 PUSH2 0x6D6 PUSH2 0x6D0 CALLDATASIZE PUSH1 0x4 PUSH2 0x667 JUMP JUMPDEST SWAP2 PUSH2 0x1176 JUMP JUMPDEST PUSH2 0x6DE PUSH2 0xC2 JUMP JUMPDEST SWAP2 DUP3 SWAP2 DUP3 PUSH2 0x3D9 JUMP JUMPDEST SUB SWAP1 RETURN JUMPDEST PUSH2 0xC8 JUMP JUMPDEST PUSH0 DUP1 REVERT JUMPDEST SWAP1 PUSH2 0x706 SWAP2 PUSH2 0x701 PUSH2 0x120D JUMP JUMPDEST PUSH2 0x87E JUMP JUMPDEST JUMP JUMPDEST SWAP1 JUMP JUMPDEST PUSH2 0x71F PUSH2 0x71A PUSH2 0x724 SWAP3 PUSH2 0x708 JUMP JUMPDEST PUSH2 0x22E JUMP JUMPDEST PUSH2 0xD4 JUMP JUMPDEST SWAP1 JUMP JUMPDEST PUSH2 0x730 SWAP1 PUSH2 0x70B JUMP JUMPDEST SWAP1 JUMP JUMPDEST PUSH1 0x20 SWAP2 DUP2 MSTORE ADD SWAP1 JUMP JUMPDEST PUSH0 PUSH32 0x5A65726F20616464726573730000000000000000000000000000000000000000 SWAP2 ADD MSTORE JUMP JUMPDEST PUSH2 0x770 PUSH1 0xC PUSH1 0x20 SWAP3 PUSH2 0x733 JUMP JUMPDEST PUSH2 0x779 DUP2 PUSH2 0x73C JUMP JUMPDEST ADD SWAP1 JUMP JUMPDEST PUSH2 0x792 SWAP1 PUSH1 0x20 DUP2 ADD SWAP1 PUSH0 DUP2 DUP4 SUB SWAP2 ADD MSTORE PUSH2 0x763 JUMP JUMPDEST SWAP1 JUMP JUMPDEST ISZERO PUSH2 0x79C JUMPI JUMP JUMPDEST PUSH2 0x7A4 PUSH2 0xC2 JUMP JUMPDEST PUSH3 0x461BCD PUSH1 0xE5 SHL DUP2 MSTORE DUP1 PUSH2 0x7BA PUSH1 0x4 DUP3 ADD PUSH2 0x77D JUMP JUMPDEST SUB SWAP1 REVERT JUMPDEST PUSH0 SHR SWAP1 JUMP JUMPDEST PUSH2 0x7CF PUSH2 0x7D4 SWAP2 PUSH2 0x7BE JUMP JUMPDEST PUSH2 0x38A JUMP JUMPDEST SWAP1 JUMP JUMPDEST PUSH2 0x7E1 SWAP1 SLOAD PUSH2 0x7C3 JUMP JUMPDEST SWAP1 JUMP JUMPDEST PUSH4 0x4E487B71 PUSH1 0xE0 SHL PUSH0 MSTORE PUSH1 0x11 PUSH1 0x4 MSTORE PUSH1 0x24 PUSH0 REVERT JUMPDEST PUSH2 0x807 PUSH2 0x80D SWAP2 SWAP4 SWAP3 SWAP4 PUSH2 0x10E JUMP JUMPDEST SWAP3 PUSH2 0x10E JUMP JUMPDEST DUP3 ADD DUP1 SWAP3 GT PUSH2 0x818 JUMPI JUMP JUMPDEST PUSH2 0x7E4 JUMP JUMPDEST PUSH0 SHL SWAP1 JUMP JUMPDEST SWAP1 PUSH2 0x82E PUSH0 NOT SWAP2 PUSH2 0x81D JUMP JUMPDEST SWAP2 DUP2 NOT AND SWAP2 AND OR SWAP1 JUMP JUMPDEST SWAP1 JUMP JUMPDEST SWAP1 PUSH2 0x850 PUSH2 0x84B PUSH2 0x857 SWAP3 PUSH2 0x475 JUMP JUMPDEST PUSH2 0x838 JUMP JUMPDEST DUP3 SLOAD PUSH2 0x822 JUMP JUMPDEST SWAP1 SSTORE JUMP JUMPDEST SWAP2 PUSH1 0x20 PUSH2 0x87C SWAP3 SWAP5 SWAP4 PUSH2 0x875 PUSH1 0x40 DUP3 ADD SWAP7 PUSH0 DUP4 ADD SWAP1 PUSH2 0x3CC JUMP JUMPDEST ADD SWAP1 PUSH2 0x3CC JUMP JUMPDEST JUMP JUMPDEST SWAP1 PUSH2 0x8A4 DUP3 PUSH2 0x89D PUSH2 0x897 PUSH2 0x892 PUSH0 PUSH2 0x727 JUMP JUMPDEST PUSH2 0xDF JUMP JUMPDEST SWAP2 PUSH2 0xDF JUMP JUMPDEST EQ ISZERO PUSH2 0x795 JUMP JUMPDEST PUSH2 0x8CC DUP2 PUSH2 0x8C6 PUSH2 0x8B7 PUSH1 0x1 DUP7 SWAP1 PUSH2 0x370 JUMP JUMPDEST SWAP2 PUSH2 0x8C1 DUP4 PUSH2 0x7D7 JUMP JUMPDEST PUSH2 0x7F8 JUMP JUMPDEST SWAP1 PUSH2 0x83B JUMP JUMPDEST PUSH2 0x8E1 PUSH2 0x8DC DUP4 SWAP3 SWAP4 PUSH1 0x1 PUSH2 0x370 JUMP JUMPDEST PUSH2 0x7D7 JUMP JUMPDEST PUSH2 0x90B PUSH32 0x18FB4E3082B6AB8359296D38DBBABEA72E8C0F7B492F7D9A9CC0854B365EFF2 SWAP3 PUSH2 0x364 JUMP JUMPDEST SWAP3 PUSH2 0x920 PUSH2 0x917 PUSH2 0xC2 JUMP JUMPDEST SWAP3 DUP4 SWAP3 DUP4 PUSH2 0x85B JUMP JUMPDEST SUB SWAP1 LOG2 JUMP JUMPDEST SWAP1 PUSH2 0x92F SWAP2 PUSH2 0x6F4 JUMP JUMPDEST JUMP JUMPDEST PUSH1 0xE0 SHL SWAP1 JUMP JUMPDEST SWAP1 POP MLOAD SWAP1 PUSH2 0x944 DUP3 PUSH2 0xEB JUMP JUMPDEST JUMP JUMPDEST SWAP1 PUSH1 0x20 DUP3 DUP3 SUB SLT PUSH2 0x95F JUMPI PUSH2 0x95C SWAP2 PUSH0 ADD PUSH2 0x937 JUMP JUMPDEST SWAP1 JUMP JUMPDEST PUSH2 0xCC JUMP JUMPDEST PUSH2 0x96C PUSH2 0xC2 JUMP JUMPDEST RETURNDATASIZE PUSH0 DUP3 RETURNDATACOPY RETURNDATASIZE SWAP1 REVERT JUMPDEST PUSH0 PUSH32 0x4E6F74206974656D206F776E6572000000000000000000000000000000000000 SWAP2 ADD MSTORE JUMP JUMPDEST PUSH2 0x9A8 PUSH1 0xE PUSH1 0x20 SWAP3 PUSH2 0x733 JUMP JUMPDEST PUSH2 0x9B1 DUP2 PUSH2 0x974 JUMP JUMPDEST ADD SWAP1 JUMP JUMPDEST PUSH2 0x9CA SWAP1 PUSH1 0x20 DUP2 ADD SWAP1 PUSH0 DUP2 DUP4 SUB SWAP2 ADD MSTORE PUSH2 0x99B JUMP JUMPDEST SWAP1 JUMP JUMPDEST ISZERO PUSH2 0x9D4 JUMPI JUMP JUMPDEST PUSH2 0x9DC PUSH2 0xC2 JUMP JUMPDEST PUSH3 0x461BCD PUSH1 0xE5 SHL DUP2 MSTORE DUP1 PUSH2 0x9F2 PUSH1 0x4 DUP3 ADD PUSH2 0x9B5 JUMP JUMPDEST SUB SWAP1 REVERT JUMPDEST PUSH0 PUSH32 0x496E73756666696369656E742058500000000000000000000000000000000000 SWAP2 ADD MSTORE JUMP JUMPDEST PUSH2 0xA2A PUSH1 0xF PUSH1 0x20 SWAP3 PUSH2 0x733 JUMP JUMPDEST PUSH2 0xA33 DUP2 PUSH2 0x9F6 JUMP JUMPDEST ADD SWAP1 JUMP JUMPDEST PUSH2 0xA4C SWAP1 PUSH1 0x20 DUP2 ADD SWAP1 PUSH0 DUP2 DUP4 SUB SWAP2 ADD MSTORE PUSH2 0xA1D JUMP JUMPDEST SWAP1 JUMP JUMPDEST ISZERO PUSH2 0xA56 JUMPI JUMP JUMPDEST PUSH2 0xA5E PUSH2 0xC2 JUMP JUMPDEST PUSH3 0x461BCD PUSH1 0xE5 SHL DUP2 MSTORE DUP1 PUSH2 0xA74 PUSH1 0x4 DUP3 ADD PUSH2 0xA37 JUMP JUMPDEST SUB SWAP1 REVERT JUMPDEST PUSH2 0xA87 PUSH2 0xA8D SWAP2 SWAP4 SWAP3 SWAP4 PUSH2 0x10E JUMP JUMPDEST SWAP3 PUSH2 0x10E JUMP JUMPDEST DUP3 SUB SWAP2 DUP3 GT PUSH2 0xA98 JUMPI JUMP JUMPDEST PUSH2 0x7E4 JUMP JUMPDEST PUSH2 0xAA9 PUSH2 0xAAE SWAP2 PUSH2 0x7BE JUMP JUMPDEST PUSH2 0x4A7 JUMP JUMPDEST SWAP1 JUMP JUMPDEST PUSH2 0xABB SWAP1 SLOAD PUSH2 0xA9D JUMP JUMPDEST SWAP1 JUMP JUMPDEST PUSH2 0xAC7 SWAP1 PUSH2 0x4EC JUMP JUMPDEST PUSH1 0xFF DUP2 EQ PUSH2 0xAD5 JUMPI PUSH1 0x1 ADD SWAP1 JUMP JUMPDEST PUSH2 0x7E4 JUMP JUMPDEST SWAP1 PUSH2 0xAE6 PUSH1 0xFF SWAP2 PUSH2 0x81D JUMP JUMPDEST SWAP2 DUP2 NOT AND SWAP2 AND OR SWAP1 JUMP JUMPDEST PUSH2 0xB04 PUSH2 0xAFF PUSH2 0xB09 SWAP3 PUSH2 0x4EC JUMP JUMPDEST PUSH2 0x22E JUMP JUMPDEST PUSH2 0x4EC JUMP JUMPDEST SWAP1 JUMP JUMPDEST SWAP1 JUMP JUMPDEST SWAP1 PUSH2 0xB24 PUSH2 0xB1F PUSH2 0xB2B SWAP3 PUSH2 0xAF0 JUMP JUMPDEST PUSH2 0xB0C JUMP JUMPDEST DUP3 SLOAD PUSH2 0xADA JUMP JUMPDEST SWAP1 SSTORE JUMP JUMPDEST SWAP2 PUSH1 0x20 PUSH2 0xB50 SWAP3 SWAP5 SWAP4 PUSH2 0xB49 PUSH1 0x40 DUP3 ADD SWAP7 PUSH0 DUP4 ADD SWAP1 PUSH2 0x3CC JUMP JUMPDEST ADD SWAP1 PUSH2 0x4F2 JUMP JUMPDEST JUMP JUMPDEST SWAP1 PUSH2 0xBAB PUSH1 0x20 PUSH2 0xB81 PUSH32 0x0 PUSH2 0x259 JUMP JUMPDEST PUSH4 0x6352211E SWAP1 PUSH2 0xBA0 DUP7 SWAP3 PUSH2 0xB94 PUSH2 0xC2 JUMP JUMPDEST SWAP6 DUP7 SWAP5 DUP6 SWAP4 DUP5 SWAP4 PUSH2 0x931 JUMP JUMPDEST DUP4 MSTORE PUSH1 0x4 DUP4 ADD PUSH2 0x3D9 JUMP JUMPDEST SUB SWAP2 GAS STATICCALL DUP1 ISZERO PUSH2 0xD1C JUMPI PUSH2 0xBD9 SWAP2 PUSH0 SWAP2 PUSH2 0xCEE JUMPI JUMPDEST POP PUSH2 0xBD3 PUSH2 0xBCD CALLER PUSH2 0xDF JUMP JUMPDEST SWAP2 PUSH2 0xDF JUMP JUMPDEST EQ PUSH2 0x9CD JUMP JUMPDEST PUSH2 0xC28 PUSH2 0xC17 PUSH2 0xBF3 PUSH2 0xBEE PUSH1 0x1 CALLER SWAP1 PUSH2 0x370 JUMP JUMPDEST PUSH2 0x7D7 JUMP JUMPDEST PUSH2 0xC10 DUP2 PUSH2 0xC09 PUSH2 0xC03 DUP8 PUSH2 0x10E JUMP JUMPDEST SWAP2 PUSH2 0x10E JUMP JUMPDEST LT ISZERO PUSH2 0xA4F JUMP JUMPDEST DUP4 SWAP1 PUSH2 0xA78 JUMP JUMPDEST PUSH2 0xC23 PUSH1 0x1 CALLER SWAP1 PUSH2 0x370 JUMP JUMPDEST PUSH2 0x83B JUMP JUMPDEST CALLER PUSH2 0xC3D PUSH2 0xC38 PUSH1 0x1 CALLER SWAP1 PUSH2 0x370 JUMP JUMPDEST PUSH2 0x7D7 JUMP JUMPDEST PUSH2 0xC67 PUSH32 0x44B283A234156030ADFB0466F3245047A25246498F69B08F363513CDB6FED36C SWAP3 PUSH2 0x364 JUMP JUMPDEST SWAP3 PUSH2 0xC7C PUSH2 0xC73 PUSH2 0xC2 JUMP JUMPDEST SWAP3 DUP4 SWAP3 DUP4 PUSH2 0x85B JUMP JUMPDEST SUB SWAP1 LOG2 PUSH2 0xC8B PUSH1 0x2 DUP3 SWAP1 PUSH2 0x491 JUMP JUMPDEST PUSH2 0xCA6 PUSH2 0xC9F PUSH2 0xC9A DUP4 PUSH2 0xAB1 JUMP JUMPDEST PUSH2 0xABE JUMP JUMPDEST DUP1 SWAP3 PUSH2 0xB0F JUMP JUMPDEST SWAP1 CALLER SWAP1 SWAP2 PUSH2 0xCD4 PUSH32 0x9E16FE98DAF9FFC5A41B550582C3980004F6720B94040DD500FC93677571A1E2 SWAP3 PUSH2 0x364 JUMP JUMPDEST SWAP3 PUSH2 0xCE9 PUSH2 0xCE0 PUSH2 0xC2 JUMP JUMPDEST SWAP3 DUP4 SWAP3 DUP4 PUSH2 0xB2F JUMP JUMPDEST SUB SWAP1 LOG2 JUMP JUMPDEST PUSH2 0xD0F SWAP2 POP PUSH1 0x20 RETURNDATASIZE DUP2 GT PUSH2 0xD15 JUMPI JUMPDEST PUSH2 0xD07 DUP2 DUP4 PUSH2 0x5A2 JUMP JUMPDEST DUP2 ADD SWAP1 PUSH2 0x946 JUMP JUMPDEST PUSH0 PUSH2 0xBC0 JUMP JUMPDEST POP RETURNDATASIZE PUSH2 0xCFD JUMP JUMPDEST PUSH2 0x964 JUMP JUMPDEST PUSH2 0xD29 PUSH2 0x120D JUMP JUMPDEST PUSH2 0xD31 PUSH2 0xD33 JUMP JUMPDEST JUMP JUMPDEST PUSH2 0xD44 PUSH2 0xD3F PUSH0 PUSH2 0x727 JUMP JUMPDEST PUSH2 0x1277 JUMP JUMPDEST JUMP JUMPDEST PUSH2 0xD4E PUSH2 0xD21 JUMP JUMPDEST JUMP JUMPDEST PUSH0 SWAP1 JUMP JUMPDEST PUSH1 0x1 DUP1 PUSH1 0xA0 SHL SUB AND SWAP1 JUMP JUMPDEST PUSH2 0xD6B PUSH2 0xD70 SWAP2 PUSH2 0x7BE JUMP JUMPDEST PUSH2 0xD54 JUMP JUMPDEST SWAP1 JUMP JUMPDEST PUSH2 0xD7D SWAP1 SLOAD PUSH2 0xD5F JUMP JUMPDEST SWAP1 JUMP JUMPDEST PUSH2 0xD88 PUSH2 0xD50 JUMP JUMPDEST POP PUSH2 0xD92 PUSH0 PUSH2 0xD73 JUMP JUMPDEST SWAP1 JUMP JUMPDEST SWAP1 PUSH2 0xDA7 SWAP2 PUSH2 0xDA2 PUSH2 0x120D JUMP JUMPDEST PUSH2 0xDA9 JUMP JUMPDEST JUMP JUMPDEST SWAP1 PUSH2 0xDF9 PUSH2 0xDE8 PUSH2 0xDC4 PUSH2 0xDBF PUSH1 0x1 DUP7 SWAP1 PUSH2 0x370 JUMP JUMPDEST PUSH2 0x7D7 JUMP JUMPDEST PUSH2 0xDE1 DUP2 PUSH2 0xDDA PUSH2 0xDD4 DUP8 PUSH2 0x10E JUMP JUMPDEST SWAP2 PUSH2 0x10E JUMP JUMPDEST LT ISZERO PUSH2 0xA4F JUMP JUMPDEST DUP4 SWAP1 PUSH2 0xA78 JUMP JUMPDEST PUSH2 0xDF4 PUSH1 0x1 DUP6 SWAP1 PUSH2 0x370 JUMP JUMPDEST PUSH2 0x83B JUMP JUMPDEST PUSH2 0xE0E PUSH2 0xE09 DUP4 SWAP3 SWAP4 PUSH1 0x1 PUSH2 0x370 JUMP JUMPDEST PUSH2 0x7D7 JUMP JUMPDEST PUSH2 0xE38 PUSH32 0x44B283A234156030ADFB0466F3245047A25246498F69B08F363513CDB6FED36C SWAP3 PUSH2 0x364 JUMP JUMPDEST SWAP3 PUSH2 0xE4D PUSH2 0xE44 PUSH2 0xC2 JUMP JUMPDEST SWAP3 DUP4 SWAP3 DUP4 PUSH2 0x85B JUMP JUMPDEST SUB SWAP1 LOG2 JUMP JUMPDEST SWAP1 PUSH2 0xE5C SWAP2 PUSH2 0xD95 JUMP JUMPDEST JUMP JUMPDEST PUSH2 0xE6F SWAP1 PUSH2 0xE6A PUSH2 0x120D JUMP JUMPDEST PUSH2 0xF19 JUMP JUMPDEST JUMP JUMPDEST PUSH1 0x20 PUSH32 0x6464726573730000000000000000000000000000000000000000000000000000 SWAP2 PUSH32 0x4F776E61626C653A206E6577206F776E657220697320746865207A65726F2061 PUSH0 DUP3 ADD MSTORE ADD MSTORE JUMP JUMPDEST PUSH2 0xECB PUSH1 0x26 PUSH1 0x40 SWAP3 PUSH2 0x733 JUMP JUMPDEST PUSH2 0xED4 DUP2 PUSH2 0xE71 JUMP JUMPDEST ADD SWAP1 JUMP JUMPDEST PUSH2 0xEED SWAP1 PUSH1 0x20 DUP2 ADD SWAP1 PUSH0 DUP2 DUP4 SUB SWAP2 ADD MSTORE PUSH2 0xEBE JUMP JUMPDEST SWAP1 JUMP JUMPDEST ISZERO PUSH2 0xEF7 JUMPI JUMP JUMPDEST PUSH2 0xEFF PUSH2 0xC2 JUMP JUMPDEST PUSH3 0x461BCD PUSH1 0xE5 SHL DUP2 MSTORE DUP1 PUSH2 0xF15 PUSH1 0x4 DUP3 ADD PUSH2 0xED8 JUMP JUMPDEST SUB SWAP1 REVERT JUMPDEST PUSH2 0xF47 SWAP1 PUSH2 0xF42 DUP2 PUSH2 0xF3B PUSH2 0xF35 PUSH2 0xF30 PUSH0 PUSH2 0x727 JUMP JUMPDEST PUSH2 0xDF JUMP JUMPDEST SWAP2 PUSH2 0xDF JUMP JUMPDEST EQ ISZERO PUSH2 0xEF0 JUMP JUMPDEST PUSH2 0x1277 JUMP JUMPDEST JUMP JUMPDEST PUSH2 0xF52 SWAP1 PUSH2 0xE5E JUMP JUMPDEST JUMP JUMPDEST PUSH0 SWAP1 JUMP JUMPDEST SWAP1 PUSH2 0xF6C SWAP4 SWAP3 SWAP2 PUSH2 0xF67 PUSH2 0x120D JUMP JUMPDEST PUSH2 0x105C JUMP JUMPDEST SWAP1 JUMP JUMPDEST SWAP1 POP MLOAD SWAP1 PUSH2 0xF7C DUP3 PUSH2 0x111 JUMP JUMPDEST JUMP JUMPDEST SWAP1 PUSH1 0x20 DUP3 DUP3 SUB SLT PUSH2 0xF97 JUMPI PUSH2 0xF94 SWAP2 PUSH0 ADD PUSH2 0xF6F JUMP JUMPDEST SWAP1 JUMP JUMPDEST PUSH2 0xCC JUMP JUMPDEST MLOAD SWAP1 JUMP JUMPDEST PUSH0 JUMPDEST DUP4 DUP2 LT PUSH2 0xFB2 JUMPI POP POP SWAP1 PUSH0 SWAP2 ADD MSTORE JUMP JUMPDEST DUP1 PUSH1 0x20 SWAP2 DUP4 ADD MLOAD DUP2 DUP6 ADD MSTORE ADD PUSH2 0xFA2 JUMP JUMPDEST PUSH2 0xFE2 PUSH2 0xFEB PUSH1 0x20 SWAP4 PUSH2 0xFF0 SWAP4 PUSH2 0xFD9 DUP2 PUSH2 0xF9C JUMP JUMPDEST SWAP4 DUP5 DUP1 SWAP4 PUSH2 0x733 JUMP JUMPDEST SWAP6 DUP7 SWAP2 ADD PUSH2 0xFA0 JUMP JUMPDEST PUSH2 0x584 JUMP JUMPDEST ADD SWAP1 JUMP JUMPDEST SWAP2 PUSH2 0x1017 SWAP3 PUSH2 0x100A PUSH1 0x40 DUP3 ADD SWAP4 PUSH0 DUP4 ADD SWAP1 PUSH2 0x2EF JUMP JUMPDEST PUSH1 0x20 DUP2 DUP5 SUB SWAP2 ADD MSTORE PUSH2 0xFC3 JUMP JUMPDEST SWAP1 JUMP JUMPDEST SWAP2 PUSH2 0x103D SWAP3 PUSH2 0x1030 PUSH1 0x40 DUP3 ADD SWAP4 PUSH0 DUP4 ADD SWAP1 PUSH2 0x3CC JUMP JUMPDEST PUSH1 0x20 DUP2 DUP5 SUB SWAP2 ADD MSTORE PUSH2 0xFC3 JUMP JUMPDEST SWAP1 JUMP JUMPDEST PUSH2 0x1054 PUSH2 0x104F PUSH2 0x1059 SWAP3 PUSH2 0x708 JUMP JUMPDEST PUSH2 0x22E JUMP JUMPDEST PUSH2 0x10E JUMP JUMPDEST SWAP1 JUMP JUMPDEST SWAP4 SWAP3 SWAP1 SWAP2 SWAP4 POP PUSH2 0x108B PUSH32 0x0 PUSH2 0x259 JUMP JUMPDEST PUSH1 0x20 PUSH4 0xD0DEF521 SWAP2 DUP5 SWAP1 PUSH2 0x10B2 PUSH0 DUP10 SWAP6 PUSH2 0x10BD PUSH2 0x10A6 PUSH2 0xC2 JUMP JUMPDEST SWAP8 DUP9 SWAP7 DUP8 SWAP6 DUP7 SWAP5 PUSH2 0x931 JUMP JUMPDEST DUP5 MSTORE PUSH1 0x4 DUP5 ADD PUSH2 0xFF4 JUMP JUMPDEST SUB SWAP3 GAS CALL SWAP1 DUP2 ISZERO PUSH2 0x1171 JUMPI PUSH0 SWAP2 PUSH2 0x1143 JUMPI JUMPDEST POP SWAP4 DUP3 DUP6 SWAP2 PUSH2 0x10FE PUSH32 0x9AAD673C07866C8B5F7049A3B0A7E8091C80C3685B33244FAF2BB621F050FDD7 SWAP3 PUSH2 0x364 JUMP JUMPDEST SWAP3 PUSH2 0x1113 PUSH2 0x110A PUSH2 0xC2 JUMP JUMPDEST SWAP3 DUP4 SWAP3 DUP4 PUSH2 0x101A JUMP JUMPDEST SUB SWAP1 LOG2 DUP1 PUSH2 0x1129 PUSH2 0x1123 PUSH0 PUSH2 0x1040 JUMP JUMPDEST SWAP2 PUSH2 0x10E JUMP JUMPDEST GT PUSH2 0x1133 JUMPI JUMPDEST POP POP JUMP JUMPDEST PUSH2 0x113C SWAP2 PUSH2 0x925 JUMP JUMPDEST PUSH0 DUP1 PUSH2 0x112F JUMP JUMPDEST PUSH2 0x1164 SWAP2 POP PUSH1 0x20 RETURNDATASIZE DUP2 GT PUSH2 0x116A JUMPI JUMPDEST PUSH2 0x115C DUP2 DUP4 PUSH2 0x5A2 JUMP JUMPDEST DUP2 ADD SWAP1 PUSH2 0xF7E JUMP JUMPDEST PUSH0 PUSH2 0x10CF JUMP JUMPDEST POP RETURNDATASIZE PUSH2 0x1152 JUMP JUMPDEST PUSH2 0x964 JUMP JUMPDEST SWAP1 PUSH2 0x1189 SWAP3 SWAP2 PUSH2 0x1184 PUSH2 0xF54 JUMP JUMPDEST PUSH2 0xF58 JUMP JUMPDEST SWAP1 JUMP JUMPDEST PUSH0 PUSH32 0x4F776E61626C653A2063616C6C6572206973206E6F7420746865206F776E6572 SWAP2 ADD MSTORE JUMP JUMPDEST PUSH2 0x11BF PUSH1 0x20 DUP1 SWAP3 PUSH2 0x733 JUMP JUMPDEST PUSH2 0x11C8 DUP2 PUSH2 0x118C JUMP JUMPDEST ADD SWAP1 JUMP JUMPDEST PUSH2 0x11E1 SWAP1 PUSH1 0x20 DUP2 ADD SWAP1 PUSH0 DUP2 DUP4 SUB SWAP2 ADD MSTORE PUSH2 0x11B3 JUMP JUMPDEST SWAP1 JUMP JUMPDEST ISZERO PUSH2 0x11EB JUMPI JUMP JUMPDEST PUSH2 0x11F3 PUSH2 0xC2 JUMP JUMPDEST PUSH3 0x461BCD PUSH1 0xE5 SHL DUP2 MSTORE DUP1 PUSH2 0x1209 PUSH1 0x4 DUP3 ADD PUSH2 0x11CC JUMP JUMPDEST SUB SWAP1 REVERT JUMPDEST PUSH2 0x1237 PUSH2 0x1218 PUSH2 0xD80 JUMP JUMPDEST PUSH2 0x1231 PUSH2 0x122B PUSH2 0x1226 PUSH2 0x12D6 JUMP JUMPDEST PUSH2 0xDF JUMP JUMPDEST SWAP2 PUSH2 0xDF JUMP JUMPDEST EQ PUSH2 0x11E4 JUMP JUMPDEST JUMP JUMPDEST SWAP1 PUSH2 0x124A PUSH1 0x1 DUP1 PUSH1 0xA0 SHL SUB SWAP2 PUSH2 0x81D JUMP JUMPDEST SWAP2 DUP2 NOT AND SWAP2 AND OR SWAP1 JUMP JUMPDEST SWAP1 JUMP JUMPDEST SWAP1 PUSH2 0x126C PUSH2 0x1267 PUSH2 0x1273 SWAP3 PUSH2 0x364 JUMP JUMPDEST PUSH2 0x1254 JUMP JUMPDEST DUP3 SLOAD PUSH2 0x1239 JUMP JUMPDEST SWAP1 SSTORE JUMP JUMPDEST PUSH2 0x1280 PUSH0 PUSH2 0xD73 JUMP JUMPDEST PUSH2 0x128A DUP3 PUSH0 PUSH2 0x1257 JUMP JUMPDEST SWAP1 PUSH2 0x12BE PUSH2 0x12B8 PUSH32 0x8BE0079C531659141344CD1FD0A4F28419497F9722A3DAAFE3B4186F6B6457E0 SWAP4 PUSH2 0x364 JUMP JUMPDEST SWAP2 PUSH2 0x364 JUMP JUMPDEST SWAP2 PUSH2 0x12C7 PUSH2 0xC2 JUMP JUMPDEST DUP1 PUSH2 0x12D1 DUP2 PUSH2 0x161 JUMP JUMPDEST SUB SWAP1 LOG3 JUMP JUMPDEST PUSH2 0x12DE PUSH2 0xD50 JUMP JUMPDEST POP CALLER SWAP1 JUMP INVALID LOG2 PUSH5 0x6970667358 0x22 SLT KECCAK256 0xF PUSH23 0x223C56084674683E9D343151666C3A2FCF881B3609B06C DUP10 TIMESTAMP 0xD0 0xFC 0xF6 0xE5 MLOAD PUSH5 0x736F6C6343 STOP ADDMOD XOR STOP CALLER "},"methodIdentifiers":{"gameItem()":"5e8e9cd6","grantXP(address,uint256)":"0551e88d","itemLevel(uint256)":"cc6ace03","mintItem(address,string,uint256)":"fe0f7507","owner()":"8da5cb5b","renounceOwnership()":"715018a6","spendXP(address,uint256)":"c1442fff","transferOwnership(address)":"f2fde38b","upgradeItem(uint256,uint256)":"2500eacc","xpBalance(address)":"9b72f1c1"}}}}}