{"project/contracts/Governance.sol":{"Governance":{"abi":[{"inputs":[{"internalType":"address","name":"_eduToken","type":"address"},{"internalType":"uint256","name":"_votingPeriod","type":"uint256"},{"internalType":"uint256","name":"_quorumThreshold","type":"uint256"},{"internalType":"uint256","name":"_proposalThreshold","type":"uint256"}],"stateMutability":"nonpayable","type":"constructor"},{"anonymous":false,"inputs":[{"indexed":true,"internalType":"address","name":"previousOwner","type":"address"},{"indexed":true,"internalType":"address","name":"newOwner","type":"address"}],"name":"OwnershipTransferred","type":"event"},{"anonymous":false,"inputs":[{"indexed":true,"internalType":"uint256","name":"id","type":"uint256"}],"name":"ProposalCanceled","type":"event"},{"anonymous":false,"inputs":[{"indexed":true,"internalType":"uint256","name":"id","type":"uint256"},{"indexed":false,"internalType":"address","name":"proposer","type":"address"},{"indexed":false,"internalType":"string","name":"description","type":"string"},{"indexed":false,"internalType":"uint256","name":"startBlock","type":"uint256"},{"indexed":false,"internalType":"uint256","name":"endBlock","type":"uint256"}],"name":"ProposalCreated","type":"event"},{"anonymous":false,"inputs":[{"indexed":true,"internalType":"uint256","name":"id","type":"uint256"}],"name":"ProposalExecuted","type":"event"},{"anonymous":false,"inputs":[{"indexed":false,"internalType":"uint256","name":"newThreshold","type":"uint256"}],"name":"ProposalThresholdUpdated","type":"event"},{"anonymous":false,"inputs":[{"indexed":false,"internalType":"uint256","name":"newQuorum","type":"uint256"}],"name":"QuorumUpdated","type":"event"},{"anonymous":false,"inputs":[{"indexed":true,"internalType":"uint256","name":"id","type":"uint256"},{"indexed":true,"internalType":"address","name":"voter","type":"address"},{"indexed":false,"internalType":"bool","name":"support","type":"bool"},{"indexed":false,"internalType":"uint256","name":"weight","type":"uint256"}],"name":"Voted","type":"event"},{"anonymous":false,"inputs":[{"indexed":false,"internalType":"uint256","name":"newPeriod","type":"uint256"}],"name":"VotingPeriodUpdated","type":"event"},{"inputs":[{"internalType":"uint256","name":"proposalId","type":"uint256"}],"name":"cancelProposal","outputs":[],"stateMutability":"nonpayable","type":"function"},{"inputs":[{"internalType":"string","name":"description","type":"string"}],"name":"createProposal","outputs":[{"internalType":"uint256","name":"","type":"uint256"}],"stateMutability":"nonpayable","type":"function"},{"inputs":[],"name":"eduToken","outputs":[{"internalType":"contract IERC20","name":"","type":"address"}],"stateMutability":"view","type":"function"},{"inputs":[{"internalType":"uint256","name":"proposalId","type":"uint256"}],"name":"executeProposal","outputs":[],"stateMutability":"nonpayable","type":"function"},{"inputs":[{"internalType":"uint256","name":"proposalId","type":"uint256"}],"name":"getProposalState","outputs":[{"internalType":"string","name":"","type":"string"}],"stateMutability":"view","type":"function"},{"inputs":[{"internalType":"uint256","name":"","type":"uint256"},{"internalType":"address","name":"","type":"address"}],"name":"hasVoted","outputs":[{"internalType":"bool","name":"","type":"bool"}],"stateMutability":"view","type":"function"},{"inputs":[],"name":"owner","outputs":[{"internalType":"address","name":"","type":"address"}],"stateMutability":"view","type":"function"},{"inputs":[],"name":"proposalCount","outputs":[{"internalType":"uint256","name":"","type":"uint256"}],"stateMutability":"view","type":"function"},{"inputs":[],"name":"proposalThreshold","outputs":[{"internalType":"uint256","name":"","type":"uint256"}],"stateMutability":"view","type":"function"},{"inputs":[{"internalType":"uint256","name":"","type":"uint256"}],"name":"proposals","outputs":[{"internalType":"uint256","name":"id","type":"uint256"},{"internalType":"address","name":"proposer","type":"address"},{"internalType":"string","name":"description","type":"string"},{"internalType":"uint256","name":"forVotes","type":"uint256"},{"internalType":"uint256","name":"againstVotes","type":"uint256"},{"internalType":"uint256","name":"startBlock","type":"uint256"},{"internalType":"uint256","name":"endBlock","type":"uint256"},{"internalType":"bool","name":"executed","type":"bool"},{"internalType":"bool","name":"canceled","type":"bool"}],"stateMutability":"view","type":"function"},{"inputs":[],"name":"quorumThreshold","outputs":[{"internalType":"uint256","name":"","type":"uint256"}],"stateMutability":"view","type":"function"},{"inputs":[],"name":"renounceOwnership","outputs":[],"stateMutability":"nonpayable","type":"function"},{"inputs":[{"internalType":"uint256","name":"_threshold","type":"uint256"}],"name":"setProposalThreshold","outputs":[],"stateMutability":"nonpayable","type":"function"},{"inputs":[{"internalType":"uint256","name":"_quorum","type":"uint256"}],"name":"setQuorumThreshold","outputs":[],"stateMutability":"nonpayable","type":"function"},{"inputs":[{"internalType":"uint256","name":"_period","type":"uint256"}],"name":"setVotingPeriod","outputs":[],"stateMutability":"nonpayable","type":"function"},{"inputs":[{"internalType":"address","name":"newOwner","type":"address"}],"name":"transferOwnership","outputs":[],"stateMutability":"nonpayable","type":"function"},{"inputs":[{"internalType":"uint256","name":"proposalId","type":"uint256"},{"internalType":"bool","name":"support","type":"bool"}],"name":"vote","outputs":[],"stateMutability":"nonpayable","type":"function"},{"inputs":[{"internalType":"uint256","name":"","type":"uint256"},{"internalType":"address","name":"","type":"address"}],"name":"voteChoice","outputs":[{"internalType":"bool","name":"","type":"bool"}],"stateMutability":"view","type":"function"},{"inputs":[],"name":"votingPeriod","outputs":[{"internalType":"uint256","name":"","type":"uint256"}],"stateMutability":"view","type":"function"}],"evm":{"bytecode":{"linkReferences":{},"object":"60a0604052346200005257620000226200001862000184565b929190916200031f565b6200002c62000058565b612739620004c0823960805181818161092f015281816118060152612054015261273990f35b6200005e565b60405190565b5f80fd5b601f801991011690565b634e487b7160e01b5f52604160045260245ffd5b906200008c9062000062565b810190811060018060401b03821117620000a557604052565b6200006c565b90620000c2620000ba62000058565b928362000080565b565b5f80fd5b60018060a01b031690565b620000de90620000c8565b90565b620000ec81620000d3565b03620000f457565b5f80fd5b905051906200010782620000e1565b565b90565b620001178162000109565b036200011f57565b5f80fd5b9050519062000132826200010c565b565b6080818303126200017e576200014d825f8301620000f8565b926200017b62000161846020850162000123565b9362000171816040860162000123565b9360600162000123565b90565b620000c4565b620001a762002bf9803803806200019b81620000ab565b92833981019062000134565b90919293565b90565b90565b620001cc620001c6620001d292620001ad565b620001b0565b620000c8565b90565b620001e090620001b3565b90565b60209181520190565b5f7f546f6b656e2061646472657373207a65726f0000000000000000000000000000910152565b620002226012602092620001e3565b6200022d81620001ec565b0190565b620002489060208101905f81830391015262000213565b90565b156200025357565b6200025d62000058565b62461bcd60e51b815280620002756004820162000231565b0390fd5b620002926200028c6200029892620000c8565b620001b0565b620000c8565b90565b620002a69062000279565b90565b620002b4906200029b565b90565b5f1b90565b90620002ca5f1991620002b7565b9181191691161790565b620002ed620002e7620002f39262000109565b620001b0565b62000109565b90565b90565b90620003136200030d6200031b92620002d4565b620002f6565b8254620002bc565b9055565b916200037b6200038392620003706200038b96956200033d6200038d565b6200036a81620003626200035b620003555f620001d5565b620000d3565b91620000d3565b14156200024b565b620002a9565b6080526002620002f9565b6003620002f9565b6004620002f9565b565b620003a16200039b620003a7565b62000454565b565b5f90565b620003b1620003a3565b503390565b5f1c90565b60018060a01b031690565b620003d5620003db91620003b6565b620003bb565b90565b620003ea9054620003c6565b90565b906200040060018060a01b0391620002b7565b9181191691161790565b620004159062000279565b90565b62000423906200040a565b90565b90565b90620004436200043d6200044b9262000418565b62000426565b8254620003ed565b9055565b5f0190565b6200045f5f620003de565b6200046b825f62000429565b90620004a36200049c7f8be0079c531659141344cd1fd0a4f28419497f9722a3daafe3b4186f6b6457e09362000418565b9162000418565b91620004ae62000058565b80620004ba816200044f565b0390a356fe60806040526004361015610013575b610c98565b61001d5f3561014c565b8063013cf08b1461014757806302a251a3146101425780630d61b5191461013d57806343859632146101385780634524c7e11461013357806349c2a1a61461012e578063715018a6146101295780637b7a91dd146101245780638d8788891461011f5780638da5cb5b1461011a5780639080936f14610115578063b58131b014610110578063c9d27afe1461010b578063da35c66414610106578063e0a8f6f514610101578063ea0217cf146100fc578063ece40cc1146100f7578063f2fde38b146100f25763fb4688550361000e57610c62565b610c0e565b610bbd565b610b8a565b610b57565b610b22565b610adf565b610a5a565b610a16565b6109c9565b61097f565b6108f8565b6108b6565b610880565b6107cc565b610796565b610657565b61061d565b610581565b60e01c90565b60405190565b5f80fd5b5f80fd5b5f80fd5b90565b61017081610164565b0361017757565b5f80fd5b9050359061018882610167565b565b906020828203126101a3576101a0915f0161017b565b90565b61015c565b90565b6101bf6101ba6101c492610164565b6101a8565b610164565b90565b906101d1906101ab565b5f5260205260405f2090565b5f1c90565b90565b6101f16101f6916101dd565b6101e2565b90565b61020390546101e5565b90565b60018060a01b031690565b61021d610222916101dd565b610206565b90565b61022f9054610211565b90565b634e487b7160e01b5f52602260045260245ffd5b9060016002830492168015610266575b602083101461026157565b610232565b91607f1691610256565b60209181520190565b5f5260205f2090565b905f929180549061029c61029583610246565b8094610270565b916001811690815f146102f357506001146102b7575b505050565b6102c49192939450610279565b915f925b8184106102db57505001905f80806102b2565b600181602092959395548486015201910192906102c8565b92949550505060ff19168252151560200201905f80806102b2565b9061031891610282565b90565b601f801991011690565b634e487b7160e01b5f52604160045260245ffd5b906103439061031b565b810190811067ffffffffffffffff82111761035d57604052565b610325565b9061038261037b92610372610152565b9384809261030e565b0383610339565b565b60ff1690565b61039661039b916101dd565b610384565b90565b6103a8905461038a565b90565b60081c90565b6103bd6103c2916103ab565b610384565b90565b6103cf90546103b1565b90565b6103dd9060056101c7565b6103e85f82016101f9565b916103f560018301610225565b9161040260028201610362565b9161040f600383016101f9565b9161041c600482016101f9565b91610429600583016101f9565b91610436600682016101f9565b9161044e600761044781850161039e565b93016103c5565b90565b61045a90610164565b9052565b60018060a01b031690565b6104729061045e565b90565b61047e90610469565b9052565b5190565b60209181520190565b5f5b8381106104a1575050905f910152565b806020918301518185015201610491565b6104d16104da6020936104df936104c881610482565b93848093610486565b9586910161048f565b61031b565b0190565b151590565b6104f1906104e3565b9052565b946101009661055a61056492610550610545610578999f9e9c9661057f9e9961053761056e9a60208f6105306101208201965f830190610451565b0190610475565b8c60408184039101526104b2565b9e60608b0190610451565b6080890190610451565b60a0870190610451565b60c0850190610451565b60e08301906104e8565b01906104e8565b565b346105bb576105b761059c61059736600461018a565b6103d2565b956105ae999799959195949294610152565b998a998a6104f5565b0390f35b610158565b5f9103126105ca57565b61015c565b1c90565b6105e39060086105e893026105cf565b6101e2565b90565b906105f691546105d3565b90565b61060560025f906105eb565b90565b919061061b905f60208501940190610451565b565b3461064d5761062d3660046105c0565b6106496106386105f9565b610640610152565b91829182610608565b0390f35b610158565b5f0190565b346106855761066f61066a36600461018a565b6111c4565b610677610152565b8061068181610652565b0390f35b610158565b61069381610469565b0361069a57565b5f80fd5b905035906106ab8261068a565b565b91906040838203126106d557806106c96106d2925f860161017b565b9360200161069e565b90565b61015c565b906106e4906101ab565b5f5260205260405f2090565b6107046106ff6107099261045e565b6101a8565b61045e565b90565b610715906106f0565b90565b6107219061070c565b90565b9061072e90610718565b5f5260205260405f2090565b61074a90600861074f93026105cf565b610384565b90565b9061075d915461073a565b90565b61077961077e926107746006935f946106da565b610724565b610752565b90565b9190610794905f602085019401906104e8565b565b346107c7576107c36107b26107ac3660046106ad565b90610760565b6107ba610152565b91829182610781565b0390f35b610158565b346107fa576107e46107df36600461018a565b611261565b6107ec610152565b806107f681610652565b0390f35b610158565b5f80fd5b5f80fd5b5f80fd5b909182601f830112156108455781359167ffffffffffffffff831161084057602001926001830284011161083b57565b610807565b610803565b6107ff565b9060208282031261087b575f82013567ffffffffffffffff811161087657610872920161080b565b9091565b610160565b61015c565b346108b1576108ad61089c61089636600461084a565b906117f3565b6108a4610152565b91829182610608565b0390f35b610158565b346108e4576108c63660046105c0565b6108ce611a7d565b6108d6610152565b806108e081610652565b0390f35b610158565b6108f560035f906105eb565b90565b34610928576109083660046105c0565b6109246109136108e9565b61091b610152565b91829182610608565b0390f35b610158565b7f000000000000000000000000000000000000000000000000000000000000000090565b61095a9061070c565b90565b61096690610951565b9052565b919061097d905f6020850194019061095d565b565b346109af5761098f3660046105c0565b6109ab61099a61092d565b6109a2610152565b9182918261096a565b0390f35b610158565b91906109c7905f60208501940190610475565b565b346109f9576109d93660046105c0565b6109f56109e4611a8b565b6109ec610152565b918291826109b4565b0390f35b610158565b610a139160208201915f8184039101526104b2565b90565b34610a4657610a42610a31610a2c36600461018a565b611c7e565b610a39610152565b918291826109fe565b0390f35b610158565b610a5760045f906105eb565b90565b34610a8a57610a6a3660046105c0565b610a86610a75610a4b565b610a7d610152565b91829182610608565b0390f35b610158565b610a98816104e3565b03610a9f57565b5f80fd5b90503590610ab082610a8f565b565b9190604083820312610ada5780610ace610ad7925f860161017b565b93602001610aa3565b90565b61015c565b34610b0e57610af8610af2366004610ab2565b90611f92565b610b00610152565b80610b0a81610652565b0390f35b610158565b610b1f60015f906105eb565b90565b34610b5257610b323660046105c0565b610b4e610b3d610b13565b610b45610152565b91829182610608565b0390f35b610158565b34610b8557610b6f610b6a36600461018a565b612312565b610b77610152565b80610b8181610652565b0390f35b610158565b34610bb857610ba2610b9d36600461018a565b612485565b610baa610152565b80610bb481610652565b0390f35b610158565b34610beb57610bd5610bd036600461018a565b6124e9565b610bdd610152565b80610be781610652565b0390f35b610158565b90602082820312610c0957610c06915f0161069e565b90565b61015c565b34610c3c57610c26610c21366004610bf0565b6125df565b610c2e610152565b80610c3881610652565b0390f35b610158565b610c5a610c5f92610c556007935f946106da565b610724565b610752565b90565b34610c9357610c8f610c7e610c783660046106ad565b90610c41565b610c86610152565b91829182610781565b0390f35b610158565b5f80fd5b610cad90610ca861266b565b611060565b565b90565b90565b610cc9610cc4610cce92610cb2565b6101a8565b610164565b90565b5f7f50726f706f73616c206e6f7420666f756e640000000000000000000000000000910152565b610d056012602092610486565b610d0e81610cd1565b0190565b610d279060208101905f818303910152610cf8565b90565b15610d3157565b610d39610152565b62461bcd60e51b815280610d4f60048201610d12565b0390fd5b5f7f566f74696e67206e6f7420656e64656400000000000000000000000000000000910152565b610d876010602092610486565b610d9081610d53565b0190565b610da99060208101905f818303910152610d7a565b90565b15610db357565b610dbb610152565b62461bcd60e51b815280610dd160048201610d94565b0390fd5b5f7f416c726561647920657865637574656400000000000000000000000000000000910152565b610e096010602092610486565b610e1281610dd5565b0190565b610e2b9060208101905f818303910152610dfc565b90565b15610e3557565b610e3d610152565b62461bcd60e51b815280610e5360048201610e16565b0390fd5b5f7f50726f706f73616c2063616e63656c6564000000000000000000000000000000910152565b610e8b6011602092610486565b610e9481610e57565b0190565b610ead9060208101905f818303910152610e7e565b90565b15610eb757565b610ebf610152565b62461bcd60e51b815280610ed560048201610e98565b0390fd5b634e487b7160e01b5f52601160045260245ffd5b610efc610f0291939293610164565b92610164565b8201809211610f0d57565b610ed9565b5f7f51756f72756d206e6f7420726561636865640000000000000000000000000000910152565b610f466012602092610486565b610f4f81610f12565b0190565b610f689060208101905f818303910152610f39565b90565b15610f7257565b610f7a610152565b62461bcd60e51b815280610f9060048201610f53565b0390fd5b5f7f50726f706f73616c2072656a6563746564000000000000000000000000000000910152565b610fc86011602092610486565b610fd181610f94565b0190565b610fea9060208101905f818303910152610fbb565b90565b15610ff457565b610ffc610152565b62461bcd60e51b81528061101260048201610fd5565b0390fd5b5f1b90565b9061102760ff91611016565b9181191691161790565b61103a906104e3565b90565b90565b9061105561105061105c92611031565b61103d565b825461101b565b9055565b611182611077611072600584906101c7565b610caf565b61109e6110855f83016101f9565b6110976110915f610cb5565b91610164565b1415610d2a565b6110c5436110bf6110b96110b4600686016101f9565b610164565b91610164565b11610dac565b6110e26110dd6110d76007840161039e565b156104e3565b610e2e565b6110ff6110fa6110f4600784016103c5565b156104e3565b610eb0565b611145611123611111600384016101f9565b61111d600485016101f9565b90610eed565b61113e61113861113360036101f9565b610164565b91610164565b1015610f6b565b611177611154600383016101f9565b61117161116b611166600486016101f9565b610164565b91610164565b11610fed565b600760019101611040565b6111ac7f712ae1383f79ac853f8d882153778e0260ef8f03b504e2866e0593e04d2b291f916101ab565b906111b5610152565b806111bf81610652565b0390a2565b6111cd90610c9c565b565b6111e0906111db61266b565b61121b565b565b906111ee5f1991611016565b9181191691161790565b90565b9061121061120b611217926101ab565b6111f8565b82546111e2565b9055565b6112268160036111fb565b61125c7ff18f88786aae85a652aadb99a82462616489a33370c9bcc7b245906812ef7cd191611253610152565b91829182610608565b0390a1565b61126a906111cf565b565b5f90565b60e01b90565b9050519061128382610167565b565b9060208282031261129e5761129b915f01611276565b90565b61015c565b6112ab610152565b3d5f823e3d90fd5b5f7f42656c6f772070726f706f73616c207468726573686f6c640000000000000000910152565b6112e76018602092610486565b6112f0816112b3565b0190565b6113099060208101905f8183039101526112da565b90565b1561131357565b61131b610152565b62461bcd60e51b815280611331600482016112f4565b0390fd5b61133e90610164565b5f19811461134c5760010190565b610ed9565b9061136461135d610152565b9283610339565b565b611371610120611351565b90565b9061137e90610164565b9052565b9061138c90610469565b9052565b5f80fd5b67ffffffffffffffff81116113b2576113ae60209161031b565b0190565b610325565b90825f939282370152565b909291926113d76113d282611394565b611351565b938185526020850190828401116113f3576113f1926113b7565b565b611390565b6114039136916113c2565b90565b52565b90611413906104e3565b9052565b6114219051610164565b90565b61142e9051610469565b90565b9061144260018060a01b0391611016565b9181191691161790565b90565b9061146461145f61146b92610718565b61144c565b8254611431565b9055565b5190565b601f602091010490565b1b90565b9190600861149c9102916114965f198461147d565b9261147d565b9181191691161790565b91906114bc6114b76114c4936101ab565b6111f8565b908354611481565b9055565b6114da916114d461126c565b916114a6565b565b5b8181106114e8575050565b806114f55f6001936114c8565b016114dd565b9190601f811161150b575b505050565b61151761153c93610279565b90602061152384611473565b83019310611544575b61153590611473565b01906114dc565b5f8080611506565b91506115358192905061152c565b90611562905f19906008026105cf565b191690565b8161157191611552565b906002021790565b9061158381610482565b9067ffffffffffffffff8211611643576115a7826115a18554610246565b856114fb565b602090601f83116001146115db579180916115ca935f926115cf575b5050611567565b90555b565b90915001515f806115c3565b601f198316916115ea85610279565b925f5b81811061162b57509160029391856001969410611611575b505050020190556115cd565b611621910151601f841690611552565b90555f8080611605565b919360206001819287870151815501950192016115ed565b610325565b9061165291611579565b565b61165e90516104e3565b90565b60081b90565b9061167461ff0091611661565b9181191691161790565b9061169361168e61169a92611031565b61103d565b8254611667565b9055565b90611778610100600761177e946116c25f82016116bc5f8801611417565b906111fb565b6116db600182016116d560208801611424565b9061144f565b6116f4600282016116ee6040880161146f565b90611648565b61170d6003820161170760608801611417565b906111fb565b6117266004820161172060808801611417565b906111fb565b61173f6005820161173960a08801611417565b906111fb565b6117586006820161175260c08801611417565b906111fb565b61177082820161176a60e08801611654565b90611040565b019201611654565b9061167e565b565b9061178a9161169e565b565b91906117a68161179f816117ab95610486565b80956113b7565b61031b565b0190565b906117df6117ea916117f1969897956060956117d260808701935f880190610475565b858303602087015261178c565b966040830190610451565b0190610451565b565b6117fb61126c565b50611854602061182a7f0000000000000000000000000000000000000000000000000000000000000000610951565b6370a0823190611849339261183d610152565b95869485938493611270565b8352600483016109b4565b03915afa908115611a2b575f916119fd575b5061187160046101f9565b61187a90610164565b9061188490610164565b101561188f9061130c565b61189960016101f9565b6118a290611335565b6118ad9060016111fb565b43436118b960026101f9565b6118c291610eed565b926118cd60016101f9565b338483905f8087918a935f955f976118e3611366565b995f8b01906118f191611374565b60208a01906118ff91611382565b611908916113f8565b604088019061191691611406565b61191f90610cb5565b606087019061192d91611374565b61193690610cb5565b608086019061194491611374565b60a085019061195291611374565b60c084019061196091611374565b60e083019061196e91611409565b61010082019061197d91611409565b600561198960016101f9565b611992916101c7565b9061199c91611780565b6119a660016101f9565b9233909192947f6c98a8c940418b35614f0cd02412d5c9606faff474cbb6cdd6640ba5d1a9f06b946119d7906101ab565b956119e0610152565b9485946119ed94866117af565b0390a26119fa60016101f9565b90565b611a1e915060203d8111611a24575b611a168183610339565b810190611285565b5f611866565b503d611a0c565b6112a3565b611a3861266b565b611a40611a6a565b565b611a56611a51611a5b92610cb2565b6101a8565b61045e565b90565b611a6790611a42565b90565b611a7b611a765f611a5e565b612697565b565b611a85611a30565b565b5f90565b611a93611a87565b50611a9d5f610225565b90565b606090565b90611ab7611ab283611394565b611351565b918252565b5f7f43616e63656c6564000000000000000000000000000000000000000000000000910152565b611aed6008611aa5565b90611afa60208301611abc565b565b611b04611ae3565b90565b5f7f4578656375746564000000000000000000000000000000000000000000000000910152565b611b386008611aa5565b90611b4560208301611b07565b565b611b4f611b2e565b90565b5f7f50656e64696e6700000000000000000000000000000000000000000000000000910152565b611b836007611aa5565b90611b9060208301611b52565b565b611b9a611b79565b90565b5f7f4163746976650000000000000000000000000000000000000000000000000000910152565b611bce6006611aa5565b90611bdb60208301611b9d565b565b611be5611bc4565b90565b5f7f4465666561746564000000000000000000000000000000000000000000000000910152565b611c196008611aa5565b90611c2660208301611be8565b565b611c30611c0f565b90565b5f7f5375636365656465640000000000000000000000000000000000000000000000910152565b611c646009611aa5565b90611c7160208301611c33565b565b611c7b611c5a565b90565b611c95611c9a91611c8d611aa0565b5060056101c7565b610caf565b611cc1611ca85f83016101f9565b611cba611cb45f610cb5565b91610164565b1415610d2a565b611ccd600782016103c5565b611ddd57611cdd6007820161039e565b611dd15743611cff611cf9611cf4600585016101f9565b610164565b91610164565b10611dc55743611d22611d1c611d17600685016101f9565b610164565b91610164565b1115611db957611d49611d37600383016101f9565b611d43600484016101f9565b90610eed565b611d64611d5e611d5960036101f9565b610164565b91610164565b10611dad57611d92611d8c611d876004611d80600386016101f9565b94016101f9565b610164565b91610164565b11611da257611d9f611c28565b90565b611daa611c73565b90565b50611db6611c28565b90565b50611dc2611bdd565b90565b50611dce611b92565b90565b50611dda611b47565b90565b50611de6611afc565b90565b5f7f566f74696e6720636c6f73656400000000000000000000000000000000000000910152565b611e1d600d602092610486565b611e2681611de9565b0190565b611e3f9060208101905f818303910152611e10565b90565b15611e4957565b611e51610152565b62461bcd60e51b815280611e6760048201611e2a565b0390fd5b5f7f416c726561647920766f74656400000000000000000000000000000000000000910152565b611e9f600d602092610486565b611ea881611e6b565b0190565b611ec19060208101905f818303910152611e92565b90565b15611ecb57565b611ed3610152565b62461bcd60e51b815280611ee960048201611eac565b0390fd5b5f7f4e6f20766f74696e6720706f7765720000000000000000000000000000000000910152565b611f21600f602092610486565b611f2a81611eed565b0190565b611f439060208101905f818303910152611f14565b90565b15611f4d57565b611f55610152565b62461bcd60e51b815280611f6b60048201611f2e565b0390fd5b916020611f90929493611f8960408201965f8301906104e8565b0190610451565b565b90611fa7611fa2600584906101c7565b610caf565b91611fcf611fb65f85016101f9565b611fc8611fc25f610cb5565b91610164565b1415610d2a565b43611fed611fe7611fe2600587016101f9565b610164565b91610164565b1015806121e3575b611ffe90611e42565b61202d61202861202261201d612016600686906106da565b3390610724565b61039e565b156104e3565b611ec4565b61204a61204561203f600786016103c5565b156104e3565b610eb0565b6120a260206120787f0000000000000000000000000000000000000000000000000000000000000000610951565b6370a0823190612097339261208b610152565b95869485938493611270565b8352600483016109b4565b03915afa9081156121de575f916121b0575b50926120d2846120cc6120c65f610cb5565b91610164565b11611f46565b6120f260016120ed6120e6600686906106da565b3390610724565b611040565b6121118361210c612105600786906106da565b3390610724565b611040565b825f1461218a576121399061213360038692019161212e836101f9565b610eed565b906111fb565b5b33919261217061216a7f7c2de587c00d75474a0c6c6fa96fd3b45dc974cd4e8a75f712bb84c950dce1b5936101ab565b93610718565b9361218561217c610152565b92839283611f6f565b0390a3565b6121ab906121a56004869201916121a0836101f9565b610eed565b906111fb565b61213a565b6121d1915060203d81116121d7575b6121c98183610339565b810190611285565b5f6120b4565b503d6121bf565b6112a3565b50611ffe436122056121ff6121fa600688016101f9565b610164565b91610164565b11159050611ff5565b5f7f4e6f7420617574686f72697a6564000000000000000000000000000000000000910152565b612242600e602092610486565b61224b8161220e565b0190565b6122649060208101905f818303910152612235565b90565b1561226e57565b612276610152565b62461bcd60e51b81528061228c6004820161224f565b0390fd5b5f7f416c72656164792063616e63656c656400000000000000000000000000000000910152565b6122c46010602092610486565b6122cd81612290565b0190565b6122e69060208101905f8183039101526122b7565b90565b156122f057565b6122f8610152565b62461bcd60e51b81528061230e600482016122d1565b0390fd5b6123c4612329612324600584906101c7565b610caf565b6123506123375f83016101f9565b6123496123435f610cb5565b91610164565b1415610d2a565b3361236e61236861236360018501610225565b610469565b91610469565b148015612406575b61237f90612267565b61239c6123976123916007840161039e565b156104e3565b610e2e565b6123b96123b46123ae600784016103c5565b156104e3565b6122e9565b60076001910161167e565b6123ee7f789cf55be980739dad1d0699b93b58e806b51c9d96619bfa8fe0a28abaa7b30c916101ab565b906123f7610152565b8061240181610652565b0390a2565b5061237f3361242461241e612419611a8b565b610469565b91610469565b149050612376565b61243d9061243861266b565b61243f565b565b61244a8160026111fb565b6124807f651c77f42613a075437aa794c44471e3abc3a661956a67aaee165bb7396974aa91612477610152565b91829182610608565b0390a1565b61248e9061242c565b565b6124a19061249c61266b565b6124a3565b565b6124ae8160046111fb565b6124e47f75176781f69c55e26fee85d480452b0b9038b9428704bb7b232fc1c638bbf803916124db610152565b91829182610608565b0390a1565b6124f290612490565b565b6125059061250061266b565b6125af565b565b60207f6464726573730000000000000000000000000000000000000000000000000000917f4f776e61626c653a206e6577206f776e657220697320746865207a65726f20615f8201520152565b6125616026604092610486565b61256a81612507565b0190565b6125839060208101905f818303910152612554565b90565b1561258d57565b612595610152565b62461bcd60e51b8152806125ab6004820161256e565b0390fd5b6125dd906125d8816125d16125cb6125c65f611a5e565b610469565b91610469565b1415612586565b612697565b565b6125e8906124f4565b565b5f7f4f776e61626c653a2063616c6c6572206973206e6f7420746865206f776e6572910152565b61261d60208092610486565b612626816125ea565b0190565b61263f9060208101905f818303910152612611565b90565b1561264957565b612651610152565b62461bcd60e51b8152806126676004820161262a565b0390fd5b612695612676611a8b565b61268f6126896126846126f6565b610469565b91610469565b14612642565b565b6126a05f610225565b6126aa825f61144f565b906126de6126d87f8be0079c531659141344cd1fd0a4f28419497f9722a3daafe3b4186f6b6457e093610718565b91610718565b916126e7610152565b806126f181610652565b0390a3565b6126fe611a87565b50339056fea26469706673582212207414eed894f84291b7e56700de509277bb792df119f94b407f88f7e4a1a1d13764736f6c63430008180033","opcodes":"PUSH1 0xA0 PUSH1 0x40 MSTORE CALLVALUE PUSH3 0x52 JUMPI PUSH3 0x22 PUSH3 0x18 PUSH3 0x184 JUMP JUMPDEST SWAP3 SWAP2 SWAP1 SWAP2 PUSH3 0x31F JUMP JUMPDEST PUSH3 0x2C PUSH3 0x58 JUMP JUMPDEST PUSH2 0x2739 PUSH3 0x4C0 DUP3 CODECOPY PUSH1 0x80 MLOAD DUP2 DUP2 DUP2 PUSH2 0x92F ADD MSTORE DUP2 DUP2 PUSH2 0x1806 ADD MSTORE PUSH2 0x2054 ADD MSTORE PUSH2 0x2739 SWAP1 RETURN JUMPDEST PUSH3 0x5E JUMP JUMPDEST PUSH1 0x40 MLOAD SWAP1 JUMP JUMPDEST PUSH0 DUP1 REVERT JUMPDEST PUSH1 0x1F DUP1 NOT SWAP2 ADD AND SWAP1 JUMP JUMPDEST PUSH4 0x4E487B71 PUSH1 0xE0 SHL PUSH0 MSTORE PUSH1 0x41 PUSH1 0x4 MSTORE PUSH1 0x24 PUSH0 REVERT JUMPDEST SWAP1 PUSH3 0x8C SWAP1 PUSH3 0x62 JUMP JUMPDEST DUP2 ADD SWAP1 DUP2 LT PUSH1 0x1 DUP1 PUSH1 0x40 SHL SUB DUP3 GT OR PUSH3 0xA5 JUMPI PUSH1 0x40 MSTORE JUMP JUMPDEST PUSH3 0x6C JUMP JUMPDEST SWAP1 PUSH3 0xC2 PUSH3 0xBA PUSH3 0x58 JUMP JUMPDEST SWAP3 DUP4 PUSH3 0x80 JUMP JUMPDEST JUMP JUMPDEST PUSH0 DUP1 REVERT JUMPDEST PUSH1 0x1 DUP1 PUSH1 0xA0 SHL SUB AND SWAP1 JUMP JUMPDEST PUSH3 0xDE SWAP1 PUSH3 0xC8 JUMP JUMPDEST SWAP1 JUMP JUMPDEST PUSH3 0xEC DUP2 PUSH3 0xD3 JUMP JUMPDEST SUB PUSH3 0xF4 JUMPI JUMP JUMPDEST PUSH0 DUP1 REVERT JUMPDEST SWAP1 POP MLOAD SWAP1 PUSH3 0x107 DUP3 PUSH3 0xE1 JUMP JUMPDEST JUMP JUMPDEST SWAP1 JUMP JUMPDEST PUSH3 0x117 DUP2 PUSH3 0x109 JUMP JUMPDEST SUB PUSH3 0x11F JUMPI JUMP JUMPDEST PUSH0 DUP1 REVERT JUMPDEST SWAP1 POP MLOAD SWAP1 PUSH3 0x132 DUP3 PUSH3 0x10C JUMP JUMPDEST JUMP JUMPDEST PUSH1 0x80 DUP2 DUP4 SUB SLT PUSH3 0x17E JUMPI PUSH3 0x14D DUP3 PUSH0 DUP4 ADD PUSH3 0xF8 JUMP JUMPDEST SWAP3 PUSH3 0x17B PUSH3 0x161 DUP5 PUSH1 0x20 DUP6 ADD PUSH3 0x123 JUMP JUMPDEST SWAP4 PUSH3 0x171 DUP2 PUSH1 0x40 DUP7 ADD PUSH3 0x123 JUMP JUMPDEST SWAP4 PUSH1 0x60 ADD PUSH3 0x123 JUMP JUMPDEST SWAP1 JUMP JUMPDEST PUSH3 0xC4 JUMP JUMPDEST PUSH3 0x1A7 PUSH3 0x2BF9 DUP1 CODESIZE SUB DUP1 PUSH3 0x19B DUP2 PUSH3 0xAB JUMP JUMPDEST SWAP3 DUP4 CODECOPY DUP2 ADD SWAP1 PUSH3 0x134 JUMP JUMPDEST SWAP1 SWAP2 SWAP3 SWAP4 JUMP JUMPDEST SWAP1 JUMP JUMPDEST SWAP1 JUMP JUMPDEST PUSH3 0x1CC PUSH3 0x1C6 PUSH3 0x1D2 SWAP3 PUSH3 0x1AD JUMP JUMPDEST PUSH3 0x1B0 JUMP JUMPDEST PUSH3 0xC8 JUMP JUMPDEST SWAP1 JUMP JUMPDEST PUSH3 0x1E0 SWAP1 PUSH3 0x1B3 JUMP JUMPDEST SWAP1 JUMP JUMPDEST PUSH1 0x20 SWAP2 DUP2 MSTORE ADD SWAP1 JUMP JUMPDEST PUSH0 PUSH32 0x546F6B656E2061646472657373207A65726F0000000000000000000000000000 SWAP2 ADD MSTORE JUMP JUMPDEST PUSH3 0x222 PUSH1 0x12 PUSH1 0x20 SWAP3 PUSH3 0x1E3 JUMP JUMPDEST PUSH3 0x22D DUP2 PUSH3 0x1EC JUMP JUMPDEST ADD SWAP1 JUMP JUMPDEST PUSH3 0x248 SWAP1 PUSH1 0x20 DUP2 ADD SWAP1 PUSH0 DUP2 DUP4 SUB SWAP2 ADD MSTORE PUSH3 0x213 JUMP JUMPDEST SWAP1 JUMP JUMPDEST ISZERO PUSH3 0x253 JUMPI JUMP JUMPDEST PUSH3 0x25D PUSH3 0x58 JUMP JUMPDEST PUSH3 0x461BCD PUSH1 0xE5 SHL DUP2 MSTORE DUP1 PUSH3 0x275 PUSH1 0x4 DUP3 ADD PUSH3 0x231 JUMP JUMPDEST SUB SWAP1 REVERT JUMPDEST PUSH3 0x292 PUSH3 0x28C PUSH3 0x298 SWAP3 PUSH3 0xC8 JUMP JUMPDEST PUSH3 0x1B0 JUMP JUMPDEST PUSH3 0xC8 JUMP JUMPDEST SWAP1 JUMP JUMPDEST PUSH3 0x2A6 SWAP1 PUSH3 0x279 JUMP JUMPDEST SWAP1 JUMP JUMPDEST PUSH3 0x2B4 SWAP1 PUSH3 0x29B JUMP JUMPDEST SWAP1 JUMP JUMPDEST PUSH0 SHL SWAP1 JUMP JUMPDEST SWAP1 PUSH3 0x2CA PUSH0 NOT SWAP2 PUSH3 0x2B7 JUMP JUMPDEST SWAP2 DUP2 NOT AND SWAP2 AND OR SWAP1 JUMP JUMPDEST PUSH3 0x2ED PUSH3 0x2E7 PUSH3 0x2F3 SWAP3 PUSH3 0x109 JUMP JUMPDEST PUSH3 0x1B0 JUMP JUMPDEST PUSH3 0x109 JUMP JUMPDEST SWAP1 JUMP JUMPDEST SWAP1 JUMP JUMPDEST SWAP1 PUSH3 0x313 PUSH3 0x30D PUSH3 0x31B SWAP3 PUSH3 0x2D4 JUMP JUMPDEST PUSH3 0x2F6 JUMP JUMPDEST DUP3 SLOAD PUSH3 0x2BC JUMP JUMPDEST SWAP1 SSTORE JUMP JUMPDEST SWAP2 PUSH3 0x37B PUSH3 0x383 SWAP3 PUSH3 0x370 PUSH3 0x38B SWAP7 SWAP6 PUSH3 0x33D PUSH3 0x38D JUMP JUMPDEST PUSH3 0x36A DUP2 PUSH3 0x362 PUSH3 0x35B PUSH3 0x355 PUSH0 PUSH3 0x1D5 JUMP JUMPDEST PUSH3 0xD3 JUMP JUMPDEST SWAP2 PUSH3 0xD3 JUMP JUMPDEST EQ ISZERO PUSH3 0x24B JUMP JUMPDEST PUSH3 0x2A9 JUMP JUMPDEST PUSH1 0x80 MSTORE PUSH1 0x2 PUSH3 0x2F9 JUMP JUMPDEST PUSH1 0x3 PUSH3 0x2F9 JUMP JUMPDEST PUSH1 0x4 PUSH3 0x2F9 JUMP JUMPDEST JUMP JUMPDEST PUSH3 0x3A1 PUSH3 0x39B PUSH3 0x3A7 JUMP JUMPDEST PUSH3 0x454 JUMP JUMPDEST JUMP JUMPDEST PUSH0 SWAP1 JUMP JUMPDEST PUSH3 0x3B1 PUSH3 0x3A3 JUMP JUMPDEST POP CALLER SWAP1 JUMP JUMPDEST PUSH0 SHR SWAP1 JUMP JUMPDEST PUSH1 0x1 DUP1 PUSH1 0xA0 SHL SUB AND SWAP1 JUMP JUMPDEST PUSH3 0x3D5 PUSH3 0x3DB SWAP2 PUSH3 0x3B6 JUMP JUMPDEST PUSH3 0x3BB JUMP JUMPDEST SWAP1 JUMP JUMPDEST PUSH3 0x3EA SWAP1 SLOAD PUSH3 0x3C6 JUMP JUMPDEST SWAP1 JUMP JUMPDEST SWAP1 PUSH3 0x400 PUSH1 0x1 DUP1 PUSH1 0xA0 SHL SUB SWAP2 PUSH3 0x2B7 JUMP JUMPDEST SWAP2 DUP2 NOT AND SWAP2 AND OR SWAP1 JUMP JUMPDEST PUSH3 0x415 SWAP1 PUSH3 0x279 JUMP JUMPDEST SWAP1 JUMP JUMPDEST PUSH3 0x423 SWAP1 PUSH3 0x40A JUMP JUMPDEST SWAP1 JUMP JUMPDEST SWAP1 JUMP JUMPDEST SWAP1 PUSH3 0x443 PUSH3 0x43D PUSH3 0x44B SWAP3 PUSH3 0x418 JUMP JUMPDEST PUSH3 0x426 JUMP JUMPDEST DUP3 SLOAD PUSH3 0x3ED JUMP JUMPDEST SWAP1 SSTORE JUMP JUMPDEST PUSH0 ADD SWAP1 JUMP JUMPDEST PUSH3 0x45F PUSH0 PUSH3 0x3DE JUMP JUMPDEST PUSH3 0x46B DUP3 PUSH0 PUSH3 0x429 JUMP JUMPDEST SWAP1 PUSH3 0x4A3 PUSH3 0x49C PUSH32 0x8BE0079C531659141344CD1FD0A4F28419497F9722A3DAAFE3B4186F6B6457E0 SWAP4 PUSH3 0x418 JUMP JUMPDEST SWAP2 PUSH3 0x418 JUMP JUMPDEST SWAP2 PUSH3 0x4AE PUSH3 0x58 JUMP JUMPDEST DUP1 PUSH3 0x4BA DUP2 PUSH3 0x44F JUMP JUMPDEST SUB SWAP1 LOG3 JUMP INVALID PUSH1 0x80 PUSH1 0x40 MSTORE PUSH1 0x4 CALLDATASIZE LT ISZERO PUSH2 0x13 JUMPI JUMPDEST PUSH2 0xC98 JUMP JUMPDEST PUSH2 0x1D PUSH0 CALLDATALOAD PUSH2 0x14C JUMP JUMPDEST DUP1 PUSH4 0x13CF08B EQ PUSH2 0x147 JUMPI DUP1 PUSH4 0x2A251A3 EQ PUSH2 0x142 JUMPI DUP1 PUSH4 0xD61B519 EQ PUSH2 0x13D JUMPI DUP1 PUSH4 0x43859632 EQ PUSH2 0x138 JUMPI DUP1 PUSH4 0x4524C7E1 EQ PUSH2 0x133 JUMPI DUP1 PUSH4 0x49C2A1A6 EQ PUSH2 0x12E JUMPI DUP1 PUSH4 0x715018A6 EQ PUSH2 0x129 JUMPI DUP1 PUSH4 0x7B7A91DD EQ PUSH2 0x124 JUMPI DUP1 PUSH4 0x8D878889 EQ PUSH2 0x11F JUMPI DUP1 PUSH4 0x8DA5CB5B EQ PUSH2 0x11A JUMPI DUP1 PUSH4 0x9080936F EQ PUSH2 0x115 JUMPI DUP1 PUSH4 0xB58131B0 EQ PUSH2 0x110 JUMPI DUP1 PUSH4 0xC9D27AFE EQ PUSH2 0x10B JUMPI DUP1 PUSH4 0xDA35C664 EQ PUSH2 0x106 JUMPI DUP1 PUSH4 0xE0A8F6F5 EQ PUSH2 0x101 JUMPI DUP1 PUSH4 0xEA0217CF EQ PUSH2 0xFC JUMPI DUP1 PUSH4 0xECE40CC1 EQ PUSH2 0xF7 JUMPI DUP1 PUSH4 0xF2FDE38B EQ PUSH2 0xF2 JUMPI PUSH4 0xFB468855 SUB PUSH2 0xE JUMPI PUSH2 0xC62 JUMP JUMPDEST PUSH2 0xC0E JUMP JUMPDEST PUSH2 0xBBD JUMP JUMPDEST PUSH2 0xB8A JUMP JUMPDEST PUSH2 0xB57 JUMP JUMPDEST PUSH2 0xB22 JUMP JUMPDEST PUSH2 0xADF JUMP JUMPDEST PUSH2 0xA5A JUMP JUMPDEST PUSH2 0xA16 JUMP JUMPDEST PUSH2 0x9C9 JUMP JUMPDEST PUSH2 0x97F JUMP JUMPDEST PUSH2 0x8F8 JUMP JUMPDEST PUSH2 0x8B6 JUMP JUMPDEST PUSH2 0x880 JUMP JUMPDEST PUSH2 0x7CC JUMP JUMPDEST PUSH2 0x796 JUMP JUMPDEST PUSH2 0x657 JUMP JUMPDEST PUSH2 0x61D JUMP JUMPDEST PUSH2 0x581 JUMP JUMPDEST PUSH1 0xE0 SHR SWAP1 JUMP JUMPDEST PUSH1 0x40 MLOAD SWAP1 JUMP JUMPDEST PUSH0 DUP1 REVERT JUMPDEST PUSH0 DUP1 REVERT JUMPDEST PUSH0 DUP1 REVERT JUMPDEST SWAP1 JUMP JUMPDEST PUSH2 0x170 DUP2 PUSH2 0x164 JUMP JUMPDEST SUB PUSH2 0x177 JUMPI JUMP JUMPDEST PUSH0 DUP1 REVERT JUMPDEST SWAP1 POP CALLDATALOAD SWAP1 PUSH2 0x188 DUP3 PUSH2 0x167 JUMP JUMPDEST JUMP JUMPDEST SWAP1 PUSH1 0x20 DUP3 DUP3 SUB SLT PUSH2 0x1A3 JUMPI PUSH2 0x1A0 SWAP2 PUSH0 ADD PUSH2 0x17B JUMP JUMPDEST SWAP1 JUMP JUMPDEST PUSH2 0x15C JUMP JUMPDEST SWAP1 JUMP JUMPDEST PUSH2 0x1BF PUSH2 0x1BA PUSH2 0x1C4 SWAP3 PUSH2 0x164 JUMP JUMPDEST PUSH2 0x1A8 JUMP JUMPDEST PUSH2 0x164 JUMP JUMPDEST SWAP1 JUMP JUMPDEST SWAP1 PUSH2 0x1D1 SWAP1 PUSH2 0x1AB JUMP JUMPDEST PUSH0 MSTORE PUSH1 0x20 MSTORE PUSH1 0x40 PUSH0 KECCAK256 SWAP1 JUMP JUMPDEST PUSH0 SHR SWAP1 JUMP JUMPDEST SWAP1 JUMP JUMPDEST PUSH2 0x1F1 PUSH2 0x1F6 SWAP2 PUSH2 0x1DD JUMP JUMPDEST PUSH2 0x1E2 JUMP JUMPDEST SWAP1 JUMP JUMPDEST PUSH2 0x203 SWAP1 SLOAD PUSH2 0x1E5 JUMP JUMPDEST SWAP1 JUMP JUMPDEST PUSH1 0x1 DUP1 PUSH1 0xA0 SHL SUB AND SWAP1 JUMP JUMPDEST PUSH2 0x21D PUSH2 0x222 SWAP2 PUSH2 0x1DD JUMP JUMPDEST PUSH2 0x206 JUMP JUMPDEST SWAP1 JUMP JUMPDEST PUSH2 0x22F SWAP1 SLOAD PUSH2 0x211 JUMP JUMPDEST SWAP1 JUMP JUMPDEST PUSH4 0x4E487B71 PUSH1 0xE0 SHL PUSH0 MSTORE PUSH1 0x22 PUSH1 0x4 MSTORE PUSH1 0x24 PUSH0 REVERT JUMPDEST SWAP1 PUSH1 0x1 PUSH1 0x2 DUP4 DIV SWAP3 AND DUP1 ISZERO PUSH2 0x266 JUMPI JUMPDEST PUSH1 0x20 DUP4 LT EQ PUSH2 0x261 JUMPI JUMP JUMPDEST PUSH2 0x232 JUMP JUMPDEST SWAP2 PUSH1 0x7F AND SWAP2 PUSH2 0x256 JUMP JUMPDEST PUSH1 0x20 SWAP2 DUP2 MSTORE ADD SWAP1 JUMP JUMPDEST PUSH0 MSTORE PUSH1 0x20 PUSH0 KECCAK256 SWAP1 JUMP JUMPDEST SWAP1 PUSH0 SWAP3 SWAP2 DUP1 SLOAD SWAP1 PUSH2 0x29C PUSH2 0x295 DUP4 PUSH2 0x246 JUMP JUMPDEST DUP1 SWAP5 PUSH2 0x270 JUMP JUMPDEST SWAP2 PUSH1 0x1 DUP2 AND SWAP1 DUP2 PUSH0 EQ PUSH2 0x2F3 JUMPI POP PUSH1 0x1 EQ PUSH2 0x2B7 JUMPI JUMPDEST POP POP POP JUMP JUMPDEST PUSH2 0x2C4 SWAP2 SWAP3 SWAP4 SWAP5 POP PUSH2 0x279 JUMP JUMPDEST SWAP2 PUSH0 SWAP3 JUMPDEST DUP2 DUP5 LT PUSH2 0x2DB JUMPI POP POP ADD SWAP1 PUSH0 DUP1 DUP1 PUSH2 0x2B2 JUMP JUMPDEST PUSH1 0x1 DUP2 PUSH1 0x20 SWAP3 SWAP6 SWAP4 SWAP6 SLOAD DUP5 DUP7 ADD MSTORE ADD SWAP2 ADD SWAP3 SWAP1 PUSH2 0x2C8 JUMP JUMPDEST SWAP3 SWAP5 SWAP6 POP POP POP PUSH1 0xFF NOT AND DUP3 MSTORE ISZERO ISZERO PUSH1 0x20 MUL ADD SWAP1 PUSH0 DUP1 DUP1 PUSH2 0x2B2 JUMP JUMPDEST SWAP1 PUSH2 0x318 SWAP2 PUSH2 0x282 JUMP JUMPDEST SWAP1 JUMP JUMPDEST PUSH1 0x1F DUP1 NOT SWAP2 ADD AND SWAP1 JUMP JUMPDEST PUSH4 0x4E487B71 PUSH1 0xE0 SHL PUSH0 MSTORE PUSH1 0x41 PUSH1 0x4 MSTORE PUSH1 0x24 PUSH0 REVERT JUMPDEST SWAP1 PUSH2 0x343 SWAP1 PUSH2 0x31B JUMP JUMPDEST DUP2 ADD SWAP1 DUP2 LT PUSH8 0xFFFFFFFFFFFFFFFF DUP3 GT OR PUSH2 0x35D JUMPI PUSH1 0x40 MSTORE JUMP JUMPDEST PUSH2 0x325 JUMP JUMPDEST SWAP1 PUSH2 0x382 PUSH2 0x37B SWAP3 PUSH2 0x372 PUSH2 0x152 JUMP JUMPDEST SWAP4 DUP5 DUP1 SWAP3 PUSH2 0x30E JUMP JUMPDEST SUB DUP4 PUSH2 0x339 JUMP JUMPDEST JUMP JUMPDEST PUSH1 0xFF AND SWAP1 JUMP JUMPDEST PUSH2 0x396 PUSH2 0x39B SWAP2 PUSH2 0x1DD JUMP JUMPDEST PUSH2 0x384 JUMP JUMPDEST SWAP1 JUMP JUMPDEST PUSH2 0x3A8 SWAP1 SLOAD PUSH2 0x38A JUMP JUMPDEST SWAP1 JUMP JUMPDEST PUSH1 0x8 SHR SWAP1 JUMP JUMPDEST PUSH2 0x3BD PUSH2 0x3C2 SWAP2 PUSH2 0x3AB JUMP JUMPDEST PUSH2 0x384 JUMP JUMPDEST SWAP1 JUMP JUMPDEST PUSH2 0x3CF SWAP1 SLOAD PUSH2 0x3B1 JUMP JUMPDEST SWAP1 JUMP JUMPDEST PUSH2 0x3DD SWAP1 PUSH1 0x5 PUSH2 0x1C7 JUMP JUMPDEST PUSH2 0x3E8 PUSH0 DUP3 ADD PUSH2 0x1F9 JUMP JUMPDEST SWAP2 PUSH2 0x3F5 PUSH1 0x1 DUP4 ADD PUSH2 0x225 JUMP JUMPDEST SWAP2 PUSH2 0x402 PUSH1 0x2 DUP3 ADD PUSH2 0x362 JUMP JUMPDEST SWAP2 PUSH2 0x40F PUSH1 0x3 DUP4 ADD PUSH2 0x1F9 JUMP JUMPDEST SWAP2 PUSH2 0x41C PUSH1 0x4 DUP3 ADD PUSH2 0x1F9 JUMP JUMPDEST SWAP2 PUSH2 0x429 PUSH1 0x5 DUP4 ADD PUSH2 0x1F9 JUMP JUMPDEST SWAP2 PUSH2 0x436 PUSH1 0x6 DUP3 ADD PUSH2 0x1F9 JUMP JUMPDEST SWAP2 PUSH2 0x44E PUSH1 0x7 PUSH2 0x447 DUP2 DUP6 ADD PUSH2 0x39E JUMP JUMPDEST SWAP4 ADD PUSH2 0x3C5 JUMP JUMPDEST SWAP1 JUMP JUMPDEST PUSH2 0x45A SWAP1 PUSH2 0x164 JUMP JUMPDEST SWAP1 MSTORE JUMP JUMPDEST PUSH1 0x1 DUP1 PUSH1 0xA0 SHL SUB AND SWAP1 JUMP JUMPDEST PUSH2 0x472 SWAP1 PUSH2 0x45E JUMP JUMPDEST SWAP1 JUMP JUMPDEST PUSH2 0x47E SWAP1 PUSH2 0x469 JUMP JUMPDEST SWAP1 MSTORE JUMP JUMPDEST MLOAD SWAP1 JUMP JUMPDEST PUSH1 0x20 SWAP2 DUP2 MSTORE ADD SWAP1 JUMP JUMPDEST PUSH0 JUMPDEST DUP4 DUP2 LT PUSH2 0x4A1 JUMPI POP POP SWAP1 PUSH0 SWAP2 ADD MSTORE JUMP JUMPDEST DUP1 PUSH1 0x20 SWAP2 DUP4 ADD MLOAD DUP2 DUP6 ADD MSTORE ADD PUSH2 0x491 JUMP JUMPDEST PUSH2 0x4D1 PUSH2 0x4DA PUSH1 0x20 SWAP4 PUSH2 0x4DF SWAP4 PUSH2 0x4C8 DUP2 PUSH2 0x482 JUMP JUMPDEST SWAP4 DUP5 DUP1 SWAP4 PUSH2 0x486 JUMP JUMPDEST SWAP6 DUP7 SWAP2 ADD PUSH2 0x48F JUMP JUMPDEST PUSH2 0x31B JUMP JUMPDEST ADD SWAP1 JUMP JUMPDEST ISZERO ISZERO SWAP1 JUMP JUMPDEST PUSH2 0x4F1 SWAP1 PUSH2 0x4E3 JUMP JUMPDEST SWAP1 MSTORE JUMP JUMPDEST SWAP5 PUSH2 0x100 SWAP7 PUSH2 0x55A PUSH2 0x564 SWAP3 PUSH2 0x550 PUSH2 0x545 PUSH2 0x578 SWAP10 SWAP16 SWAP15 SWAP13 SWAP7 PUSH2 0x57F SWAP15 SWAP10 PUSH2 0x537 PUSH2 0x56E SWAP11 PUSH1 0x20 DUP16 PUSH2 0x530 PUSH2 0x120 DUP3 ADD SWAP7 PUSH0 DUP4 ADD SWAP1 PUSH2 0x451 JUMP JUMPDEST ADD SWAP1 PUSH2 0x475 JUMP JUMPDEST DUP13 PUSH1 0x40 DUP2 DUP5 SUB SWAP2 ADD MSTORE PUSH2 0x4B2 JUMP JUMPDEST SWAP15 PUSH1 0x60 DUP12 ADD SWAP1 PUSH2 0x451 JUMP JUMPDEST PUSH1 0x80 DUP10 ADD SWAP1 PUSH2 0x451 JUMP JUMPDEST PUSH1 0xA0 DUP8 ADD SWAP1 PUSH2 0x451 JUMP JUMPDEST PUSH1 0xC0 DUP6 ADD SWAP1 PUSH2 0x451 JUMP JUMPDEST PUSH1 0xE0 DUP4 ADD SWAP1 PUSH2 0x4E8 JUMP JUMPDEST ADD SWAP1 PUSH2 0x4E8 JUMP JUMPDEST JUMP JUMPDEST CALLVALUE PUSH2 0x5BB JUMPI PUSH2 0x5B7 PUSH2 0x59C PUSH2 0x597 CALLDATASIZE PUSH1 0x4 PUSH2 0x18A JUMP JUMPDEST PUSH2 0x3D2 JUMP JUMPDEST SWAP6 PUSH2 0x5AE SWAP10 SWAP8 SWAP10 SWAP6 SWAP2 SWAP6 SWAP5 SWAP3 SWAP5 PUSH2 0x152 JUMP JUMPDEST SWAP10 DUP11 SWAP10 DUP11 PUSH2 0x4F5 JUMP JUMPDEST SUB SWAP1 RETURN JUMPDEST PUSH2 0x158 JUMP JUMPDEST PUSH0 SWAP2 SUB SLT PUSH2 0x5CA JUMPI JUMP JUMPDEST PUSH2 0x15C JUMP JUMPDEST SHR SWAP1 JUMP JUMPDEST PUSH2 0x5E3 SWAP1 PUSH1 0x8 PUSH2 0x5E8 SWAP4 MUL PUSH2 0x5CF JUMP JUMPDEST PUSH2 0x1E2 JUMP JUMPDEST SWAP1 JUMP JUMPDEST SWAP1 PUSH2 0x5F6 SWAP2 SLOAD PUSH2 0x5D3 JUMP JUMPDEST SWAP1 JUMP JUMPDEST PUSH2 0x605 PUSH1 0x2 PUSH0 SWAP1 PUSH2 0x5EB JUMP JUMPDEST SWAP1 JUMP JUMPDEST SWAP2 SWAP1 PUSH2 0x61B SWAP1 PUSH0 PUSH1 0x20 DUP6 ADD SWAP5 ADD SWAP1 PUSH2 0x451 JUMP JUMPDEST JUMP JUMPDEST CALLVALUE PUSH2 0x64D JUMPI PUSH2 0x62D CALLDATASIZE PUSH1 0x4 PUSH2 0x5C0 JUMP JUMPDEST PUSH2 0x649 PUSH2 0x638 PUSH2 0x5F9 JUMP JUMPDEST PUSH2 0x640 PUSH2 0x152 JUMP JUMPDEST SWAP2 DUP3 SWAP2 DUP3 PUSH2 0x608 JUMP JUMPDEST SUB SWAP1 RETURN JUMPDEST PUSH2 0x158 JUMP JUMPDEST PUSH0 ADD SWAP1 JUMP JUMPDEST CALLVALUE PUSH2 0x685 JUMPI PUSH2 0x66F PUSH2 0x66A CALLDATASIZE PUSH1 0x4 PUSH2 0x18A JUMP JUMPDEST PUSH2 0x11C4 JUMP JUMPDEST PUSH2 0x677 PUSH2 0x152 JUMP JUMPDEST DUP1 PUSH2 0x681 DUP2 PUSH2 0x652 JUMP JUMPDEST SUB SWAP1 RETURN JUMPDEST PUSH2 0x158 JUMP JUMPDEST PUSH2 0x693 DUP2 PUSH2 0x469 JUMP JUMPDEST SUB PUSH2 0x69A JUMPI JUMP JUMPDEST PUSH0 DUP1 REVERT JUMPDEST SWAP1 POP CALLDATALOAD SWAP1 PUSH2 0x6AB DUP3 PUSH2 0x68A JUMP JUMPDEST JUMP JUMPDEST SWAP2 SWAP1 PUSH1 0x40 DUP4 DUP3 SUB SLT PUSH2 0x6D5 JUMPI DUP1 PUSH2 0x6C9 PUSH2 0x6D2 SWAP3 PUSH0 DUP7 ADD PUSH2 0x17B JUMP JUMPDEST SWAP4 PUSH1 0x20 ADD PUSH2 0x69E JUMP JUMPDEST SWAP1 JUMP JUMPDEST PUSH2 0x15C JUMP JUMPDEST SWAP1 PUSH2 0x6E4 SWAP1 PUSH2 0x1AB JUMP JUMPDEST PUSH0 MSTORE PUSH1 0x20 MSTORE PUSH1 0x40 PUSH0 KECCAK256 SWAP1 JUMP JUMPDEST PUSH2 0x704 PUSH2 0x6FF PUSH2 0x709 SWAP3 PUSH2 0x45E JUMP JUMPDEST PUSH2 0x1A8 JUMP JUMPDEST PUSH2 0x45E JUMP JUMPDEST SWAP1 JUMP JUMPDEST PUSH2 0x715 SWAP1 PUSH2 0x6F0 JUMP JUMPDEST SWAP1 JUMP JUMPDEST PUSH2 0x721 SWAP1 PUSH2 0x70C JUMP JUMPDEST SWAP1 JUMP JUMPDEST SWAP1 PUSH2 0x72E SWAP1 PUSH2 0x718 JUMP JUMPDEST PUSH0 MSTORE PUSH1 0x20 MSTORE PUSH1 0x40 PUSH0 KECCAK256 SWAP1 JUMP JUMPDEST PUSH2 0x74A SWAP1 PUSH1 0x8 PUSH2 0x74F SWAP4 MUL PUSH2 0x5CF JUMP JUMPDEST PUSH2 0x384 JUMP JUMPDEST SWAP1 JUMP JUMPDEST SWAP1 PUSH2 0x75D SWAP2 SLOAD PUSH2 0x73A JUMP JUMPDEST SWAP1 JUMP JUMPDEST PUSH2 0x779 PUSH2 0x77E SWAP3 PUSH2 0x774 PUSH1 0x6 SWAP4 PUSH0 SWAP5 PUSH2 0x6DA JUMP JUMPDEST PUSH2 0x724 JUMP JUMPDEST PUSH2 0x752 JUMP JUMPDEST SWAP1 JUMP JUMPDEST SWAP2 SWAP1 PUSH2 0x794 SWAP1 PUSH0 PUSH1 0x20 DUP6 ADD SWAP5 ADD SWAP1 PUSH2 0x4E8 JUMP JUMPDEST JUMP JUMPDEST CALLVALUE PUSH2 0x7C7 JUMPI PUSH2 0x7C3 PUSH2 0x7B2 PUSH2 0x7AC CALLDATASIZE PUSH1 0x4 PUSH2 0x6AD JUMP JUMPDEST SWAP1 PUSH2 0x760 JUMP JUMPDEST PUSH2 0x7BA PUSH2 0x152 JUMP JUMPDEST SWAP2 DUP3 SWAP2 DUP3 PUSH2 0x781 JUMP JUMPDEST SUB SWAP1 RETURN JUMPDEST PUSH2 0x158 JUMP JUMPDEST CALLVALUE PUSH2 0x7FA JUMPI PUSH2 0x7E4 PUSH2 0x7DF CALLDATASIZE PUSH1 0x4 PUSH2 0x18A JUMP JUMPDEST PUSH2 0x1261 JUMP JUMPDEST PUSH2 0x7EC PUSH2 0x152 JUMP JUMPDEST DUP1 PUSH2 0x7F6 DUP2 PUSH2 0x652 JUMP JUMPDEST SUB SWAP1 RETURN JUMPDEST PUSH2 0x158 JUMP JUMPDEST PUSH0 DUP1 REVERT JUMPDEST PUSH0 DUP1 REVERT JUMPDEST PUSH0 DUP1 REVERT JUMPDEST SWAP1 SWAP2 DUP3 PUSH1 0x1F DUP4 ADD SLT ISZERO PUSH2 0x845 JUMPI DUP2 CALLDATALOAD SWAP2 PUSH8 0xFFFFFFFFFFFFFFFF DUP4 GT PUSH2 0x840 JUMPI PUSH1 0x20 ADD SWAP3 PUSH1 0x1 DUP4 MUL DUP5 ADD GT PUSH2 0x83B JUMPI JUMP JUMPDEST PUSH2 0x807 JUMP JUMPDEST PUSH2 0x803 JUMP JUMPDEST PUSH2 0x7FF JUMP JUMPDEST SWAP1 PUSH1 0x20 DUP3 DUP3 SUB SLT PUSH2 0x87B JUMPI PUSH0 DUP3 ADD CALLDATALOAD PUSH8 0xFFFFFFFFFFFFFFFF DUP2 GT PUSH2 0x876 JUMPI PUSH2 0x872 SWAP3 ADD PUSH2 0x80B JUMP JUMPDEST SWAP1 SWAP2 JUMP JUMPDEST PUSH2 0x160 JUMP JUMPDEST PUSH2 0x15C JUMP JUMPDEST CALLVALUE PUSH2 0x8B1 JUMPI PUSH2 0x8AD PUSH2 0x89C PUSH2 0x896 CALLDATASIZE PUSH1 0x4 PUSH2 0x84A JUMP JUMPDEST SWAP1 PUSH2 0x17F3 JUMP JUMPDEST PUSH2 0x8A4 PUSH2 0x152 JUMP JUMPDEST SWAP2 DUP3 SWAP2 DUP3 PUSH2 0x608 JUMP JUMPDEST SUB SWAP1 RETURN JUMPDEST PUSH2 0x158 JUMP JUMPDEST CALLVALUE PUSH2 0x8E4 JUMPI PUSH2 0x8C6 CALLDATASIZE PUSH1 0x4 PUSH2 0x5C0 JUMP JUMPDEST PUSH2 0x8CE PUSH2 0x1A7D JUMP JUMPDEST PUSH2 0x8D6 PUSH2 0x152 JUMP JUMPDEST DUP1 PUSH2 0x8E0 DUP2 PUSH2 0x652 JUMP JUMPDEST SUB SWAP1 RETURN JUMPDEST PUSH2 0x158 JUMP JUMPDEST PUSH2 0x8F5 PUSH1 0x3 PUSH0 SWAP1 PUSH2 0x5EB JUMP JUMPDEST SWAP1 JUMP JUMPDEST CALLVALUE PUSH2 0x928 JUMPI PUSH2 0x908 CALLDATASIZE PUSH1 0x4 PUSH2 0x5C0 JUMP JUMPDEST PUSH2 0x924 PUSH2 0x913 PUSH2 0x8E9 JUMP JUMPDEST PUSH2 0x91B PUSH2 0x152 JUMP JUMPDEST SWAP2 DUP3 SWAP2 DUP3 PUSH2 0x608 JUMP JUMPDEST SUB SWAP1 RETURN JUMPDEST PUSH2 0x158 JUMP JUMPDEST PUSH32 0x0 SWAP1 JUMP JUMPDEST PUSH2 0x95A SWAP1 PUSH2 0x70C JUMP JUMPDEST SWAP1 JUMP JUMPDEST PUSH2 0x966 SWAP1 PUSH2 0x951 JUMP JUMPDEST SWAP1 MSTORE JUMP JUMPDEST SWAP2 SWAP1 PUSH2 0x97D SWAP1 PUSH0 PUSH1 0x20 DUP6 ADD SWAP5 ADD SWAP1 PUSH2 0x95D JUMP JUMPDEST JUMP JUMPDEST CALLVALUE PUSH2 0x9AF JUMPI PUSH2 0x98F CALLDATASIZE PUSH1 0x4 PUSH2 0x5C0 JUMP JUMPDEST PUSH2 0x9AB PUSH2 0x99A PUSH2 0x92D JUMP JUMPDEST PUSH2 0x9A2 PUSH2 0x152 JUMP JUMPDEST SWAP2 DUP3 SWAP2 DUP3 PUSH2 0x96A JUMP JUMPDEST SUB SWAP1 RETURN JUMPDEST PUSH2 0x158 JUMP JUMPDEST SWAP2 SWAP1 PUSH2 0x9C7 SWAP1 PUSH0 PUSH1 0x20 DUP6 ADD SWAP5 ADD SWAP1 PUSH2 0x475 JUMP JUMPDEST JUMP JUMPDEST CALLVALUE PUSH2 0x9F9 JUMPI PUSH2 0x9D9 CALLDATASIZE PUSH1 0x4 PUSH2 0x5C0 JUMP JUMPDEST PUSH2 0x9F5 PUSH2 0x9E4 PUSH2 0x1A8B JUMP JUMPDEST PUSH2 0x9EC PUSH2 0x152 JUMP JUMPDEST SWAP2 DUP3 SWAP2 DUP3 PUSH2 0x9B4 JUMP JUMPDEST SUB SWAP1 RETURN JUMPDEST PUSH2 0x158 JUMP JUMPDEST PUSH2 0xA13 SWAP2 PUSH1 0x20 DUP3 ADD SWAP2 PUSH0 DUP2 DUP5 SUB SWAP2 ADD MSTORE PUSH2 0x4B2 JUMP JUMPDEST SWAP1 JUMP JUMPDEST CALLVALUE PUSH2 0xA46 JUMPI PUSH2 0xA42 PUSH2 0xA31 PUSH2 0xA2C CALLDATASIZE PUSH1 0x4 PUSH2 0x18A JUMP JUMPDEST PUSH2 0x1C7E JUMP JUMPDEST PUSH2 0xA39 PUSH2 0x152 JUMP JUMPDEST SWAP2 DUP3 SWAP2 DUP3 PUSH2 0x9FE JUMP JUMPDEST SUB SWAP1 RETURN JUMPDEST PUSH2 0x158 JUMP JUMPDEST PUSH2 0xA57 PUSH1 0x4 PUSH0 SWAP1 PUSH2 0x5EB JUMP JUMPDEST SWAP1 JUMP JUMPDEST CALLVALUE PUSH2 0xA8A JUMPI PUSH2 0xA6A CALLDATASIZE PUSH1 0x4 PUSH2 0x5C0 JUMP JUMPDEST PUSH2 0xA86 PUSH2 0xA75 PUSH2 0xA4B JUMP JUMPDEST PUSH2 0xA7D PUSH2 0x152 JUMP JUMPDEST SWAP2 DUP3 SWAP2 DUP3 PUSH2 0x608 JUMP JUMPDEST SUB SWAP1 RETURN JUMPDEST PUSH2 0x158 JUMP JUMPDEST PUSH2 0xA98 DUP2 PUSH2 0x4E3 JUMP JUMPDEST SUB PUSH2 0xA9F JUMPI JUMP JUMPDEST PUSH0 DUP1 REVERT JUMPDEST SWAP1 POP CALLDATALOAD SWAP1 PUSH2 0xAB0 DUP3 PUSH2 0xA8F JUMP JUMPDEST JUMP JUMPDEST SWAP2 SWAP1 PUSH1 0x40 DUP4 DUP3 SUB SLT PUSH2 0xADA JUMPI DUP1 PUSH2 0xACE PUSH2 0xAD7 SWAP3 PUSH0 DUP7 ADD PUSH2 0x17B JUMP JUMPDEST SWAP4 PUSH1 0x20 ADD PUSH2 0xAA3 JUMP JUMPDEST SWAP1 JUMP JUMPDEST PUSH2 0x15C JUMP JUMPDEST CALLVALUE PUSH2 0xB0E JUMPI PUSH2 0xAF8 PUSH2 0xAF2 CALLDATASIZE PUSH1 0x4 PUSH2 0xAB2 JUMP JUMPDEST SWAP1 PUSH2 0x1F92 JUMP JUMPDEST PUSH2 0xB00 PUSH2 0x152 JUMP JUMPDEST DUP1 PUSH2 0xB0A DUP2 PUSH2 0x652 JUMP JUMPDEST SUB SWAP1 RETURN JUMPDEST PUSH2 0x158 JUMP JUMPDEST PUSH2 0xB1F PUSH1 0x1 PUSH0 SWAP1 PUSH2 0x5EB JUMP JUMPDEST SWAP1 JUMP JUMPDEST CALLVALUE PUSH2 0xB52 JUMPI PUSH2 0xB32 CALLDATASIZE PUSH1 0x4 PUSH2 0x5C0 JUMP JUMPDEST PUSH2 0xB4E PUSH2 0xB3D PUSH2 0xB13 JUMP JUMPDEST PUSH2 0xB45 PUSH2 0x152 JUMP JUMPDEST SWAP2 DUP3 SWAP2 DUP3 PUSH2 0x608 JUMP JUMPDEST SUB SWAP1 RETURN JUMPDEST PUSH2 0x158 JUMP JUMPDEST CALLVALUE PUSH2 0xB85 JUMPI PUSH2 0xB6F PUSH2 0xB6A CALLDATASIZE PUSH1 0x4 PUSH2 0x18A JUMP JUMPDEST PUSH2 0x2312 JUMP JUMPDEST PUSH2 0xB77 PUSH2 0x152 JUMP JUMPDEST DUP1 PUSH2 0xB81 DUP2 PUSH2 0x652 JUMP JUMPDEST SUB SWAP1 RETURN JUMPDEST PUSH2 0x158 JUMP JUMPDEST CALLVALUE PUSH2 0xBB8 JUMPI PUSH2 0xBA2 PUSH2 0xB9D CALLDATASIZE PUSH1 0x4 PUSH2 0x18A JUMP JUMPDEST PUSH2 0x2485 JUMP JUMPDEST PUSH2 0xBAA PUSH2 0x152 JUMP JUMPDEST DUP1 PUSH2 0xBB4 DUP2 PUSH2 0x652 JUMP JUMPDEST SUB SWAP1 RETURN JUMPDEST PUSH2 0x158 JUMP JUMPDEST CALLVALUE PUSH2 0xBEB JUMPI PUSH2 0xBD5 PUSH2 0xBD0 CALLDATASIZE PUSH1 0x4 PUSH2 0x18A JUMP JUMPDEST PUSH2 0x24E9 JUMP JUMPDEST PUSH2 0xBDD PUSH2 0x152 JUMP JUMPDEST DUP1 PUSH2 0xBE7 DUP2 PUSH2 0x652 JUMP JUMPDEST SUB SWAP1 RETURN JUMPDEST PUSH2 0x158 JUMP JUMPDEST SWAP1 PUSH1 0x20 DUP3 DUP3 SUB SLT PUSH2 0xC09 JUMPI PUSH2 0xC06 SWAP2 PUSH0 ADD PUSH2 0x69E JUMP JUMPDEST SWAP1 JUMP JUMPDEST PUSH2 0x15C JUMP JUMPDEST CALLVALUE PUSH2 0xC3C JUMPI PUSH2 0xC26 PUSH2 0xC21 CALLDATASIZE PUSH1 0x4 PUSH2 0xBF0 JUMP JUMPDEST PUSH2 0x25DF JUMP JUMPDEST PUSH2 0xC2E PUSH2 0x152 JUMP JUMPDEST DUP1 PUSH2 0xC38 DUP2 PUSH2 0x652 JUMP JUMPDEST SUB SWAP1 RETURN JUMPDEST PUSH2 0x158 JUMP JUMPDEST PUSH2 0xC5A PUSH2 0xC5F SWAP3 PUSH2 0xC55 PUSH1 0x7 SWAP4 PUSH0 SWAP5 PUSH2 0x6DA JUMP JUMPDEST PUSH2 0x724 JUMP JUMPDEST PUSH2 0x752 JUMP JUMPDEST SWAP1 JUMP JUMPDEST CALLVALUE PUSH2 0xC93 JUMPI PUSH2 0xC8F PUSH2 0xC7E PUSH2 0xC78 CALLDATASIZE PUSH1 0x4 PUSH2 0x6AD JUMP JUMPDEST SWAP1 PUSH2 0xC41 JUMP JUMPDEST PUSH2 0xC86 PUSH2 0x152 JUMP JUMPDEST SWAP2 DUP3 SWAP2 DUP3 PUSH2 0x781 JUMP JUMPDEST SUB SWAP1 RETURN JUMPDEST PUSH2 0x158 JUMP JUMPDEST PUSH0 DUP1 REVERT JUMPDEST PUSH2 0xCAD SWAP1 PUSH2 0xCA8 PUSH2 0x266B JUMP JUMPDEST PUSH2 0x1060 JUMP JUMPDEST JUMP JUMPDEST SWAP1 JUMP JUMPDEST SWAP1 JUMP JUMPDEST PUSH2 0xCC9 PUSH2 0xCC4 PUSH2 0xCCE SWAP3 PUSH2 0xCB2 JUMP JUMPDEST PUSH2 0x1A8 JUMP JUMPDEST PUSH2 0x164 JUMP JUMPDEST SWAP1 JUMP JUMPDEST PUSH0 PUSH32 0x50726F706F73616C206E6F7420666F756E640000000000000000000000000000 SWAP2 ADD MSTORE JUMP JUMPDEST PUSH2 0xD05 PUSH1 0x12 PUSH1 0x20 SWAP3 PUSH2 0x486 JUMP JUMPDEST PUSH2 0xD0E DUP2 PUSH2 0xCD1 JUMP JUMPDEST ADD SWAP1 JUMP JUMPDEST PUSH2 0xD27 SWAP1 PUSH1 0x20 DUP2 ADD SWAP1 PUSH0 DUP2 DUP4 SUB SWAP2 ADD MSTORE PUSH2 0xCF8 JUMP JUMPDEST SWAP1 JUMP JUMPDEST ISZERO PUSH2 0xD31 JUMPI JUMP JUMPDEST PUSH2 0xD39 PUSH2 0x152 JUMP JUMPDEST PUSH3 0x461BCD PUSH1 0xE5 SHL DUP2 MSTORE DUP1 PUSH2 0xD4F PUSH1 0x4 DUP3 ADD PUSH2 0xD12 JUMP JUMPDEST SUB SWAP1 REVERT JUMPDEST PUSH0 PUSH32 0x566F74696E67206E6F7420656E64656400000000000000000000000000000000 SWAP2 ADD MSTORE JUMP JUMPDEST PUSH2 0xD87 PUSH1 0x10 PUSH1 0x20 SWAP3 PUSH2 0x486 JUMP JUMPDEST PUSH2 0xD90 DUP2 PUSH2 0xD53 JUMP JUMPDEST ADD SWAP1 JUMP JUMPDEST PUSH2 0xDA9 SWAP1 PUSH1 0x20 DUP2 ADD SWAP1 PUSH0 DUP2 DUP4 SUB SWAP2 ADD MSTORE PUSH2 0xD7A JUMP JUMPDEST SWAP1 JUMP JUMPDEST ISZERO PUSH2 0xDB3 JUMPI JUMP JUMPDEST PUSH2 0xDBB PUSH2 0x152 JUMP JUMPDEST PUSH3 0x461BCD PUSH1 0xE5 SHL DUP2 MSTORE DUP1 PUSH2 0xDD1 PUSH1 0x4 DUP3 ADD PUSH2 0xD94 JUMP JUMPDEST SUB SWAP1 REVERT JUMPDEST PUSH0 PUSH32 0x416C726561647920657865637574656400000000000000000000000000000000 SWAP2 ADD MSTORE JUMP JUMPDEST PUSH2 0xE09 PUSH1 0x10 PUSH1 0x20 SWAP3 PUSH2 0x486 JUMP JUMPDEST PUSH2 0xE12 DUP2 PUSH2 0xDD5 JUMP JUMPDEST ADD SWAP1 JUMP JUMPDEST PUSH2 0xE2B SWAP1 PUSH1 0x20 DUP2 ADD SWAP1 PUSH0 DUP2 DUP4 SUB SWAP2 ADD MSTORE PUSH2 0xDFC JUMP JUMPDEST SWAP1 JUMP JUMPDEST ISZERO PUSH2 0xE35 JUMPI JUMP JUMPDEST PUSH2 0xE3D PUSH2 0x152 JUMP JUMPDEST PUSH3 0x461BCD PUSH1 0xE5 SHL DUP2 MSTORE DUP1 PUSH2 0xE53 PUSH1 0x4 DUP3 ADD PUSH2 0xE16 JUMP JUMPDEST SUB SWAP1 REVERT JUMPDEST PUSH0 PUSH32 0x50726F706F73616C2063616E63656C6564000000000000000000000000000000 SWAP2 ADD MSTORE JUMP JUMPDEST PUSH2 0xE8B PUSH1 0x11 PUSH1 0x20 SWAP3 PUSH2 0x486 JUMP JUMPDEST PUSH2 0xE94 DUP2 PUSH2 0xE57 JUMP JUMPDEST ADD SWAP1 JUMP JUMPDEST PUSH2 0xEAD SWAP1 PUSH1 0x20 DUP2 ADD SWAP1 PUSH0 DUP2 DUP4 SUB SWAP2 ADD MSTORE PUSH2 0xE7E JUMP JUMPDEST SWAP1 JUMP JUMPDEST ISZERO PUSH2 0xEB7 JUMPI JUMP JUMPDEST PUSH2 0xEBF PUSH2 0x152 JUMP JUMPDEST PUSH3 0x461BCD PUSH1 0xE5 SHL DUP2 MSTORE DUP1 PUSH2 0xED5 PUSH1 0x4 DUP3 ADD PUSH2 0xE98 JUMP JUMPDEST SUB SWAP1 REVERT JUMPDEST PUSH4 0x4E487B71 PUSH1 0xE0 SHL PUSH0 MSTORE PUSH1 0x11 PUSH1 0x4 MSTORE PUSH1 0x24 PUSH0 REVERT JUMPDEST PUSH2 0xEFC PUSH2 0xF02 SWAP2 SWAP4 SWAP3 SWAP4 PUSH2 0x164 JUMP JUMPDEST SWAP3 PUSH2 0x164 JUMP JUMPDEST DUP3 ADD DUP1 SWAP3 GT PUSH2 0xF0D JUMPI JUMP JUMPDEST PUSH2 0xED9 JUMP JUMPDEST PUSH0 PUSH32 0x51756F72756D206E6F7420726561636865640000000000000000000000000000 SWAP2 ADD MSTORE JUMP JUMPDEST PUSH2 0xF46 PUSH1 0x12 PUSH1 0x20 SWAP3 PUSH2 0x486 JUMP JUMPDEST PUSH2 0xF4F DUP2 PUSH2 0xF12 JUMP JUMPDEST ADD SWAP1 JUMP JUMPDEST PUSH2 0xF68 SWAP1 PUSH1 0x20 DUP2 ADD SWAP1 PUSH0 DUP2 DUP4 SUB SWAP2 ADD MSTORE PUSH2 0xF39 JUMP JUMPDEST SWAP1 JUMP JUMPDEST ISZERO PUSH2 0xF72 JUMPI JUMP JUMPDEST PUSH2 0xF7A PUSH2 0x152 JUMP JUMPDEST PUSH3 0x461BCD PUSH1 0xE5 SHL DUP2 MSTORE DUP1 PUSH2 0xF90 PUSH1 0x4 DUP3 ADD PUSH2 0xF53 JUMP JUMPDEST SUB SWAP1 REVERT JUMPDEST PUSH0 PUSH32 0x50726F706F73616C2072656A6563746564000000000000000000000000000000 SWAP2 ADD MSTORE JUMP JUMPDEST PUSH2 0xFC8 PUSH1 0x11 PUSH1 0x20 SWAP3 PUSH2 0x486 JUMP JUMPDEST PUSH2 0xFD1 DUP2 PUSH2 0xF94 JUMP JUMPDEST ADD SWAP1 JUMP JUMPDEST PUSH2 0xFEA SWAP1 PUSH1 0x20 DUP2 ADD SWAP1 PUSH0 DUP2 DUP4 SUB SWAP2 ADD MSTORE PUSH2 0xFBB JUMP JUMPDEST SWAP1 JUMP JUMPDEST ISZERO PUSH2 0xFF4 JUMPI JUMP JUMPDEST PUSH2 0xFFC PUSH2 0x152 JUMP JUMPDEST PUSH3 0x461BCD PUSH1 0xE5 SHL DUP2 MSTORE DUP1 PUSH2 0x1012 PUSH1 0x4 DUP3 ADD PUSH2 0xFD5 JUMP JUMPDEST SUB SWAP1 REVERT JUMPDEST PUSH0 SHL SWAP1 JUMP JUMPDEST SWAP1 PUSH2 0x1027 PUSH1 0xFF SWAP2 PUSH2 0x1016 JUMP JUMPDEST SWAP2 DUP2 NOT AND SWAP2 AND OR SWAP1 JUMP JUMPDEST PUSH2 0x103A SWAP1 PUSH2 0x4E3 JUMP JUMPDEST SWAP1 JUMP JUMPDEST SWAP1 JUMP JUMPDEST SWAP1 PUSH2 0x1055 PUSH2 0x1050 PUSH2 0x105C SWAP3 PUSH2 0x1031 JUMP JUMPDEST PUSH2 0x103D JUMP JUMPDEST DUP3 SLOAD PUSH2 0x101B JUMP JUMPDEST SWAP1 SSTORE JUMP JUMPDEST PUSH2 0x1182 PUSH2 0x1077 PUSH2 0x1072 PUSH1 0x5 DUP5 SWAP1 PUSH2 0x1C7 JUMP JUMPDEST PUSH2 0xCAF JUMP JUMPDEST PUSH2 0x109E PUSH2 0x1085 PUSH0 DUP4 ADD PUSH2 0x1F9 JUMP JUMPDEST PUSH2 0x1097 PUSH2 0x1091 PUSH0 PUSH2 0xCB5 JUMP JUMPDEST SWAP2 PUSH2 0x164 JUMP JUMPDEST EQ ISZERO PUSH2 0xD2A JUMP JUMPDEST PUSH2 0x10C5 NUMBER PUSH2 0x10BF PUSH2 0x10B9 PUSH2 0x10B4 PUSH1 0x6 DUP7 ADD PUSH2 0x1F9 JUMP JUMPDEST PUSH2 0x164 JUMP JUMPDEST SWAP2 PUSH2 0x164 JUMP JUMPDEST GT PUSH2 0xDAC JUMP JUMPDEST PUSH2 0x10E2 PUSH2 0x10DD PUSH2 0x10D7 PUSH1 0x7 DUP5 ADD PUSH2 0x39E JUMP JUMPDEST ISZERO PUSH2 0x4E3 JUMP JUMPDEST PUSH2 0xE2E JUMP JUMPDEST PUSH2 0x10FF PUSH2 0x10FA PUSH2 0x10F4 PUSH1 0x7 DUP5 ADD PUSH2 0x3C5 JUMP JUMPDEST ISZERO PUSH2 0x4E3 JUMP JUMPDEST PUSH2 0xEB0 JUMP JUMPDEST PUSH2 0x1145 PUSH2 0x1123 PUSH2 0x1111 PUSH1 0x3 DUP5 ADD PUSH2 0x1F9 JUMP JUMPDEST PUSH2 0x111D PUSH1 0x4 DUP6 ADD PUSH2 0x1F9 JUMP JUMPDEST SWAP1 PUSH2 0xEED JUMP JUMPDEST PUSH2 0x113E PUSH2 0x1138 PUSH2 0x1133 PUSH1 0x3 PUSH2 0x1F9 JUMP JUMPDEST PUSH2 0x164 JUMP JUMPDEST SWAP2 PUSH2 0x164 JUMP JUMPDEST LT ISZERO PUSH2 0xF6B JUMP JUMPDEST PUSH2 0x1177 PUSH2 0x1154 PUSH1 0x3 DUP4 ADD PUSH2 0x1F9 JUMP JUMPDEST PUSH2 0x1171 PUSH2 0x116B PUSH2 0x1166 PUSH1 0x4 DUP7 ADD PUSH2 0x1F9 JUMP JUMPDEST PUSH2 0x164 JUMP JUMPDEST SWAP2 PUSH2 0x164 JUMP JUMPDEST GT PUSH2 0xFED JUMP JUMPDEST PUSH1 0x7 PUSH1 0x1 SWAP2 ADD PUSH2 0x1040 JUMP JUMPDEST PUSH2 0x11AC PUSH32 0x712AE1383F79AC853F8D882153778E0260EF8F03B504E2866E0593E04D2B291F SWAP2 PUSH2 0x1AB JUMP JUMPDEST SWAP1 PUSH2 0x11B5 PUSH2 0x152 JUMP JUMPDEST DUP1 PUSH2 0x11BF DUP2 PUSH2 0x652 JUMP JUMPDEST SUB SWAP1 LOG2 JUMP JUMPDEST PUSH2 0x11CD SWAP1 PUSH2 0xC9C JUMP JUMPDEST JUMP JUMPDEST PUSH2 0x11E0 SWAP1 PUSH2 0x11DB PUSH2 0x266B JUMP JUMPDEST PUSH2 0x121B JUMP JUMPDEST JUMP JUMPDEST SWAP1 PUSH2 0x11EE PUSH0 NOT SWAP2 PUSH2 0x1016 JUMP JUMPDEST SWAP2 DUP2 NOT AND SWAP2 AND OR SWAP1 JUMP JUMPDEST SWAP1 JUMP JUMPDEST SWAP1 PUSH2 0x1210 PUSH2 0x120B PUSH2 0x1217 SWAP3 PUSH2 0x1AB JUMP JUMPDEST PUSH2 0x11F8 JUMP JUMPDEST DUP3 SLOAD PUSH2 0x11E2 JUMP JUMPDEST SWAP1 SSTORE JUMP JUMPDEST PUSH2 0x1226 DUP2 PUSH1 0x3 PUSH2 0x11FB JUMP JUMPDEST PUSH2 0x125C PUSH32 0xF18F88786AAE85A652AADB99A82462616489A33370C9BCC7B245906812EF7CD1 SWAP2 PUSH2 0x1253 PUSH2 0x152 JUMP JUMPDEST SWAP2 DUP3 SWAP2 DUP3 PUSH2 0x608 JUMP JUMPDEST SUB SWAP1 LOG1 JUMP JUMPDEST PUSH2 0x126A SWAP1 PUSH2 0x11CF JUMP JUMPDEST JUMP JUMPDEST PUSH0 SWAP1 JUMP JUMPDEST PUSH1 0xE0 SHL SWAP1 JUMP JUMPDEST SWAP1 POP MLOAD SWAP1 PUSH2 0x1283 DUP3 PUSH2 0x167 JUMP JUMPDEST JUMP JUMPDEST SWAP1 PUSH1 0x20 DUP3 DUP3 SUB SLT PUSH2 0x129E JUMPI PUSH2 0x129B SWAP2 PUSH0 ADD PUSH2 0x1276 JUMP JUMPDEST SWAP1 JUMP JUMPDEST PUSH2 0x15C JUMP JUMPDEST PUSH2 0x12AB PUSH2 0x152 JUMP JUMPDEST RETURNDATASIZE PUSH0 DUP3 RETURNDATACOPY RETURNDATASIZE SWAP1 REVERT JUMPDEST PUSH0 PUSH32 0x42656C6F772070726F706F73616C207468726573686F6C640000000000000000 SWAP2 ADD MSTORE JUMP JUMPDEST PUSH2 0x12E7 PUSH1 0x18 PUSH1 0x20 SWAP3 PUSH2 0x486 JUMP JUMPDEST PUSH2 0x12F0 DUP2 PUSH2 0x12B3 JUMP JUMPDEST ADD SWAP1 JUMP JUMPDEST PUSH2 0x1309 SWAP1 PUSH1 0x20 DUP2 ADD SWAP1 PUSH0 DUP2 DUP4 SUB SWAP2 ADD MSTORE PUSH2 0x12DA JUMP JUMPDEST SWAP1 JUMP JUMPDEST ISZERO PUSH2 0x1313 JUMPI JUMP JUMPDEST PUSH2 0x131B PUSH2 0x152 JUMP JUMPDEST PUSH3 0x461BCD PUSH1 0xE5 SHL DUP2 MSTORE DUP1 PUSH2 0x1331 PUSH1 0x4 DUP3 ADD PUSH2 0x12F4 JUMP JUMPDEST SUB SWAP1 REVERT JUMPDEST PUSH2 0x133E SWAP1 PUSH2 0x164 JUMP JUMPDEST PUSH0 NOT DUP2 EQ PUSH2 0x134C JUMPI PUSH1 0x1 ADD SWAP1 JUMP JUMPDEST PUSH2 0xED9 JUMP JUMPDEST SWAP1 PUSH2 0x1364 PUSH2 0x135D PUSH2 0x152 JUMP JUMPDEST SWAP3 DUP4 PUSH2 0x339 JUMP JUMPDEST JUMP JUMPDEST PUSH2 0x1371 PUSH2 0x120 PUSH2 0x1351 JUMP JUMPDEST SWAP1 JUMP JUMPDEST SWAP1 PUSH2 0x137E SWAP1 PUSH2 0x164 JUMP JUMPDEST SWAP1 MSTORE JUMP JUMPDEST SWAP1 PUSH2 0x138C SWAP1 PUSH2 0x469 JUMP JUMPDEST SWAP1 MSTORE JUMP JUMPDEST PUSH0 DUP1 REVERT JUMPDEST PUSH8 0xFFFFFFFFFFFFFFFF DUP2 GT PUSH2 0x13B2 JUMPI PUSH2 0x13AE PUSH1 0x20 SWAP2 PUSH2 0x31B JUMP JUMPDEST ADD SWAP1 JUMP JUMPDEST PUSH2 0x325 JUMP JUMPDEST SWAP1 DUP3 PUSH0 SWAP4 SWAP3 DUP3 CALLDATACOPY ADD MSTORE JUMP JUMPDEST SWAP1 SWAP3 SWAP2 SWAP3 PUSH2 0x13D7 PUSH2 0x13D2 DUP3 PUSH2 0x1394 JUMP JUMPDEST PUSH2 0x1351 JUMP JUMPDEST SWAP4 DUP2 DUP6 MSTORE PUSH1 0x20 DUP6 ADD SWAP1 DUP3 DUP5 ADD GT PUSH2 0x13F3 JUMPI PUSH2 0x13F1 SWAP3 PUSH2 0x13B7 JUMP JUMPDEST JUMP JUMPDEST PUSH2 0x1390 JUMP JUMPDEST PUSH2 0x1403 SWAP2 CALLDATASIZE SWAP2 PUSH2 0x13C2 JUMP JUMPDEST SWAP1 JUMP JUMPDEST MSTORE JUMP JUMPDEST SWAP1 PUSH2 0x1413 SWAP1 PUSH2 0x4E3 JUMP JUMPDEST SWAP1 MSTORE JUMP JUMPDEST PUSH2 0x1421 SWAP1 MLOAD PUSH2 0x164 JUMP JUMPDEST SWAP1 JUMP JUMPDEST PUSH2 0x142E SWAP1 MLOAD PUSH2 0x469 JUMP JUMPDEST SWAP1 JUMP JUMPDEST SWAP1 PUSH2 0x1442 PUSH1 0x1 DUP1 PUSH1 0xA0 SHL SUB SWAP2 PUSH2 0x1016 JUMP JUMPDEST SWAP2 DUP2 NOT AND SWAP2 AND OR SWAP1 JUMP JUMPDEST SWAP1 JUMP JUMPDEST SWAP1 PUSH2 0x1464 PUSH2 0x145F PUSH2 0x146B SWAP3 PUSH2 0x718 JUMP JUMPDEST PUSH2 0x144C JUMP JUMPDEST DUP3 SLOAD PUSH2 0x1431 JUMP JUMPDEST SWAP1 SSTORE JUMP JUMPDEST MLOAD SWAP1 JUMP JUMPDEST PUSH1 0x1F PUSH1 0x20 SWAP2 ADD DIV SWAP1 JUMP JUMPDEST SHL SWAP1 JUMP JUMPDEST SWAP2 SWAP1 PUSH1 0x8 PUSH2 0x149C SWAP2 MUL SWAP2 PUSH2 0x1496 PUSH0 NOT DUP5 PUSH2 0x147D JUMP JUMPDEST SWAP3 PUSH2 0x147D JUMP JUMPDEST SWAP2 DUP2 NOT AND SWAP2 AND OR SWAP1 JUMP JUMPDEST SWAP2 SWAP1 PUSH2 0x14BC PUSH2 0x14B7 PUSH2 0x14C4 SWAP4 PUSH2 0x1AB JUMP JUMPDEST PUSH2 0x11F8 JUMP JUMPDEST SWAP1 DUP4 SLOAD PUSH2 0x1481 JUMP JUMPDEST SWAP1 SSTORE JUMP JUMPDEST PUSH2 0x14DA SWAP2 PUSH2 0x14D4 PUSH2 0x126C JUMP JUMPDEST SWAP2 PUSH2 0x14A6 JUMP JUMPDEST JUMP JUMPDEST JUMPDEST DUP2 DUP2 LT PUSH2 0x14E8 JUMPI POP POP JUMP JUMPDEST DUP1 PUSH2 0x14F5 PUSH0 PUSH1 0x1 SWAP4 PUSH2 0x14C8 JUMP JUMPDEST ADD PUSH2 0x14DD JUMP JUMPDEST SWAP2 SWAP1 PUSH1 0x1F DUP2 GT PUSH2 0x150B JUMPI JUMPDEST POP POP POP JUMP JUMPDEST PUSH2 0x1517 PUSH2 0x153C SWAP4 PUSH2 0x279 JUMP JUMPDEST SWAP1 PUSH1 0x20 PUSH2 0x1523 DUP5 PUSH2 0x1473 JUMP JUMPDEST DUP4 ADD SWAP4 LT PUSH2 0x1544 JUMPI JUMPDEST PUSH2 0x1535 SWAP1 PUSH2 0x1473 JUMP JUMPDEST ADD SWAP1 PUSH2 0x14DC JUMP JUMPDEST PUSH0 DUP1 DUP1 PUSH2 0x1506 JUMP JUMPDEST SWAP2 POP PUSH2 0x1535 DUP2 SWAP3 SWAP1 POP PUSH2 0x152C JUMP JUMPDEST SWAP1 PUSH2 0x1562 SWAP1 PUSH0 NOT SWAP1 PUSH1 0x8 MUL PUSH2 0x5CF JUMP JUMPDEST NOT AND SWAP1 JUMP JUMPDEST DUP2 PUSH2 0x1571 SWAP2 PUSH2 0x1552 JUMP JUMPDEST SWAP1 PUSH1 0x2 MUL OR SWAP1 JUMP JUMPDEST SWAP1 PUSH2 0x1583 DUP2 PUSH2 0x482 JUMP JUMPDEST SWAP1 PUSH8 0xFFFFFFFFFFFFFFFF DUP3 GT PUSH2 0x1643 JUMPI PUSH2 0x15A7 DUP3 PUSH2 0x15A1 DUP6 SLOAD PUSH2 0x246 JUMP JUMPDEST DUP6 PUSH2 0x14FB JUMP JUMPDEST PUSH1 0x20 SWAP1 PUSH1 0x1F DUP4 GT PUSH1 0x1 EQ PUSH2 0x15DB JUMPI SWAP2 DUP1 SWAP2 PUSH2 0x15CA SWAP4 PUSH0 SWAP3 PUSH2 0x15CF JUMPI JUMPDEST POP POP PUSH2 0x1567 JUMP JUMPDEST SWAP1 SSTORE JUMPDEST JUMP JUMPDEST SWAP1 SWAP2 POP ADD MLOAD PUSH0 DUP1 PUSH2 0x15C3 JUMP JUMPDEST PUSH1 0x1F NOT DUP4 AND SWAP2 PUSH2 0x15EA DUP6 PUSH2 0x279 JUMP JUMPDEST SWAP3 PUSH0 JUMPDEST DUP2 DUP2 LT PUSH2 0x162B JUMPI POP SWAP2 PUSH1 0x2 SWAP4 SWAP2 DUP6 PUSH1 0x1 SWAP7 SWAP5 LT PUSH2 0x1611 JUMPI JUMPDEST POP POP POP MUL ADD SWAP1 SSTORE PUSH2 0x15CD JUMP JUMPDEST PUSH2 0x1621 SWAP2 ADD MLOAD PUSH1 0x1F DUP5 AND SWAP1 PUSH2 0x1552 JUMP JUMPDEST SWAP1 SSTORE PUSH0 DUP1 DUP1 PUSH2 0x1605 JUMP JUMPDEST SWAP2 SWAP4 PUSH1 0x20 PUSH1 0x1 DUP2 SWAP3 DUP8 DUP8 ADD MLOAD DUP2 SSTORE ADD SWAP6 ADD SWAP3 ADD PUSH2 0x15ED JUMP JUMPDEST PUSH2 0x325 JUMP JUMPDEST SWAP1 PUSH2 0x1652 SWAP2 PUSH2 0x1579 JUMP JUMPDEST JUMP JUMPDEST PUSH2 0x165E SWAP1 MLOAD PUSH2 0x4E3 JUMP JUMPDEST SWAP1 JUMP JUMPDEST PUSH1 0x8 SHL SWAP1 JUMP JUMPDEST SWAP1 PUSH2 0x1674 PUSH2 0xFF00 SWAP2 PUSH2 0x1661 JUMP JUMPDEST SWAP2 DUP2 NOT AND SWAP2 AND OR SWAP1 JUMP JUMPDEST SWAP1 PUSH2 0x1693 PUSH2 0x168E PUSH2 0x169A SWAP3 PUSH2 0x1031 JUMP JUMPDEST PUSH2 0x103D JUMP JUMPDEST DUP3 SLOAD PUSH2 0x1667 JUMP JUMPDEST SWAP1 SSTORE JUMP JUMPDEST SWAP1 PUSH2 0x1778 PUSH2 0x100 PUSH1 0x7 PUSH2 0x177E SWAP5 PUSH2 0x16C2 PUSH0 DUP3 ADD PUSH2 0x16BC PUSH0 DUP9 ADD PUSH2 0x1417 JUMP JUMPDEST SWAP1 PUSH2 0x11FB JUMP JUMPDEST PUSH2 0x16DB PUSH1 0x1 DUP3 ADD PUSH2 0x16D5 PUSH1 0x20 DUP9 ADD PUSH2 0x1424 JUMP JUMPDEST SWAP1 PUSH2 0x144F JUMP JUMPDEST PUSH2 0x16F4 PUSH1 0x2 DUP3 ADD PUSH2 0x16EE PUSH1 0x40 DUP9 ADD PUSH2 0x146F JUMP JUMPDEST SWAP1 PUSH2 0x1648 JUMP JUMPDEST PUSH2 0x170D PUSH1 0x3 DUP3 ADD PUSH2 0x1707 PUSH1 0x60 DUP9 ADD PUSH2 0x1417 JUMP JUMPDEST SWAP1 PUSH2 0x11FB JUMP JUMPDEST PUSH2 0x1726 PUSH1 0x4 DUP3 ADD PUSH2 0x1720 PUSH1 0x80 DUP9 ADD PUSH2 0x1417 JUMP JUMPDEST SWAP1 PUSH2 0x11FB JUMP JUMPDEST PUSH2 0x173F PUSH1 0x5 DUP3 ADD PUSH2 0x1739 PUSH1 0xA0 DUP9 ADD PUSH2 0x1417 JUMP JUMPDEST SWAP1 PUSH2 0x11FB JUMP JUMPDEST PUSH2 0x1758 PUSH1 0x6 DUP3 ADD PUSH2 0x1752 PUSH1 0xC0 DUP9 ADD PUSH2 0x1417 JUMP JUMPDEST SWAP1 PUSH2 0x11FB JUMP JUMPDEST PUSH2 0x1770 DUP3 DUP3 ADD PUSH2 0x176A PUSH1 0xE0 DUP9 ADD PUSH2 0x1654 JUMP JUMPDEST SWAP1 PUSH2 0x1040 JUMP JUMPDEST ADD SWAP3 ADD PUSH2 0x1654 JUMP JUMPDEST SWAP1 PUSH2 0x167E JUMP JUMPDEST JUMP JUMPDEST SWAP1 PUSH2 0x178A SWAP2 PUSH2 0x169E JUMP JUMPDEST JUMP JUMPDEST SWAP2 SWAP1 PUSH2 0x17A6 DUP2 PUSH2 0x179F DUP2 PUSH2 0x17AB SWAP6 PUSH2 0x486 JUMP JUMPDEST DUP1 SWAP6 PUSH2 0x13B7 JUMP JUMPDEST PUSH2 0x31B JUMP JUMPDEST ADD SWAP1 JUMP JUMPDEST SWAP1 PUSH2 0x17DF PUSH2 0x17EA SWAP2 PUSH2 0x17F1 SWAP7 SWAP9 SWAP8 SWAP6 PUSH1 0x60 SWAP6 PUSH2 0x17D2 PUSH1 0x80 DUP8 ADD SWAP4 PUSH0 DUP9 ADD SWAP1 PUSH2 0x475 JUMP JUMPDEST DUP6 DUP4 SUB PUSH1 0x20 DUP8 ADD MSTORE PUSH2 0x178C JUMP JUMPDEST SWAP7 PUSH1 0x40 DUP4 ADD SWAP1 PUSH2 0x451 JUMP JUMPDEST ADD SWAP1 PUSH2 0x451 JUMP JUMPDEST JUMP JUMPDEST PUSH2 0x17FB PUSH2 0x126C JUMP JUMPDEST POP PUSH2 0x1854 PUSH1 0x20 PUSH2 0x182A PUSH32 0x0 PUSH2 0x951 JUMP JUMPDEST PUSH4 0x70A08231 SWAP1 PUSH2 0x1849 CALLER SWAP3 PUSH2 0x183D PUSH2 0x152 JUMP JUMPDEST SWAP6 DUP7 SWAP5 DUP6 SWAP4 DUP5 SWAP4 PUSH2 0x1270 JUMP JUMPDEST DUP4 MSTORE PUSH1 0x4 DUP4 ADD PUSH2 0x9B4 JUMP JUMPDEST SUB SWAP2 GAS STATICCALL SWAP1 DUP2 ISZERO PUSH2 0x1A2B JUMPI PUSH0 SWAP2 PUSH2 0x19FD JUMPI JUMPDEST POP PUSH2 0x1871 PUSH1 0x4 PUSH2 0x1F9 JUMP JUMPDEST PUSH2 0x187A SWAP1 PUSH2 0x164 JUMP JUMPDEST SWAP1 PUSH2 0x1884 SWAP1 PUSH2 0x164 JUMP JUMPDEST LT ISZERO PUSH2 0x188F SWAP1 PUSH2 0x130C JUMP JUMPDEST PUSH2 0x1899 PUSH1 0x1 PUSH2 0x1F9 JUMP JUMPDEST PUSH2 0x18A2 SWAP1 PUSH2 0x1335 JUMP JUMPDEST PUSH2 0x18AD SWAP1 PUSH1 0x1 PUSH2 0x11FB JUMP JUMPDEST NUMBER NUMBER PUSH2 0x18B9 PUSH1 0x2 PUSH2 0x1F9 JUMP JUMPDEST PUSH2 0x18C2 SWAP2 PUSH2 0xEED JUMP JUMPDEST SWAP3 PUSH2 0x18CD PUSH1 0x1 PUSH2 0x1F9 JUMP JUMPDEST CALLER DUP5 DUP4 SWAP1 PUSH0 DUP1 DUP8 SWAP2 DUP11 SWAP4 PUSH0 SWAP6 PUSH0 SWAP8 PUSH2 0x18E3 PUSH2 0x1366 JUMP JUMPDEST SWAP10 PUSH0 DUP12 ADD SWAP1 PUSH2 0x18F1 SWAP2 PUSH2 0x1374 JUMP JUMPDEST PUSH1 0x20 DUP11 ADD SWAP1 PUSH2 0x18FF SWAP2 PUSH2 0x1382 JUMP JUMPDEST PUSH2 0x1908 SWAP2 PUSH2 0x13F8 JUMP JUMPDEST PUSH1 0x40 DUP9 ADD SWAP1 PUSH2 0x1916 SWAP2 PUSH2 0x1406 JUMP JUMPDEST PUSH2 0x191F SWAP1 PUSH2 0xCB5 JUMP JUMPDEST PUSH1 0x60 DUP8 ADD SWAP1 PUSH2 0x192D SWAP2 PUSH2 0x1374 JUMP JUMPDEST PUSH2 0x1936 SWAP1 PUSH2 0xCB5 JUMP JUMPDEST PUSH1 0x80 DUP7 ADD SWAP1 PUSH2 0x1944 SWAP2 PUSH2 0x1374 JUMP JUMPDEST PUSH1 0xA0 DUP6 ADD SWAP1 PUSH2 0x1952 SWAP2 PUSH2 0x1374 JUMP JUMPDEST PUSH1 0xC0 DUP5 ADD SWAP1 PUSH2 0x1960 SWAP2 PUSH2 0x1374 JUMP JUMPDEST PUSH1 0xE0 DUP4 ADD SWAP1 PUSH2 0x196E SWAP2 PUSH2 0x1409 JUMP JUMPDEST PUSH2 0x100 DUP3 ADD SWAP1 PUSH2 0x197D SWAP2 PUSH2 0x1409 JUMP JUMPDEST PUSH1 0x5 PUSH2 0x1989 PUSH1 0x1 PUSH2 0x1F9 JUMP JUMPDEST PUSH2 0x1992 SWAP2 PUSH2 0x1C7 JUMP JUMPDEST SWAP1 PUSH2 0x199C SWAP2 PUSH2 0x1780 JUMP JUMPDEST PUSH2 0x19A6 PUSH1 0x1 PUSH2 0x1F9 JUMP JUMPDEST SWAP3 CALLER SWAP1 SWAP2 SWAP3 SWAP5 PUSH32 0x6C98A8C940418B35614F0CD02412D5C9606FAFF474CBB6CDD6640BA5D1A9F06B SWAP5 PUSH2 0x19D7 SWAP1 PUSH2 0x1AB JUMP JUMPDEST SWAP6 PUSH2 0x19E0 PUSH2 0x152 JUMP JUMPDEST SWAP5 DUP6 SWAP5 PUSH2 0x19ED SWAP5 DUP7 PUSH2 0x17AF JUMP JUMPDEST SUB SWAP1 LOG2 PUSH2 0x19FA PUSH1 0x1 PUSH2 0x1F9 JUMP JUMPDEST SWAP1 JUMP JUMPDEST PUSH2 0x1A1E SWAP2 POP PUSH1 0x20 RETURNDATASIZE DUP2 GT PUSH2 0x1A24 JUMPI JUMPDEST PUSH2 0x1A16 DUP2 DUP4 PUSH2 0x339 JUMP JUMPDEST DUP2 ADD SWAP1 PUSH2 0x1285 JUMP JUMPDEST PUSH0 PUSH2 0x1866 JUMP JUMPDEST POP RETURNDATASIZE PUSH2 0x1A0C JUMP JUMPDEST PUSH2 0x12A3 JUMP JUMPDEST PUSH2 0x1A38 PUSH2 0x266B JUMP JUMPDEST PUSH2 0x1A40 PUSH2 0x1A6A JUMP JUMPDEST JUMP JUMPDEST PUSH2 0x1A56 PUSH2 0x1A51 PUSH2 0x1A5B SWAP3 PUSH2 0xCB2 JUMP JUMPDEST PUSH2 0x1A8 JUMP JUMPDEST PUSH2 0x45E JUMP JUMPDEST SWAP1 JUMP JUMPDEST PUSH2 0x1A67 SWAP1 PUSH2 0x1A42 JUMP JUMPDEST SWAP1 JUMP JUMPDEST PUSH2 0x1A7B PUSH2 0x1A76 PUSH0 PUSH2 0x1A5E JUMP JUMPDEST PUSH2 0x2697 JUMP JUMPDEST JUMP JUMPDEST PUSH2 0x1A85 PUSH2 0x1A30 JUMP JUMPDEST JUMP JUMPDEST PUSH0 SWAP1 JUMP JUMPDEST PUSH2 0x1A93 PUSH2 0x1A87 JUMP JUMPDEST POP PUSH2 0x1A9D PUSH0 PUSH2 0x225 JUMP JUMPDEST SWAP1 JUMP JUMPDEST PUSH1 0x60 SWAP1 JUMP JUMPDEST SWAP1 PUSH2 0x1AB7 PUSH2 0x1AB2 DUP4 PUSH2 0x1394 JUMP JUMPDEST PUSH2 0x1351 JUMP JUMPDEST SWAP2 DUP3 MSTORE JUMP JUMPDEST PUSH0 PUSH32 0x43616E63656C6564000000000000000000000000000000000000000000000000 SWAP2 ADD MSTORE JUMP JUMPDEST PUSH2 0x1AED PUSH1 0x8 PUSH2 0x1AA5 JUMP JUMPDEST SWAP1 PUSH2 0x1AFA PUSH1 0x20 DUP4 ADD PUSH2 0x1ABC JUMP JUMPDEST JUMP JUMPDEST PUSH2 0x1B04 PUSH2 0x1AE3 JUMP JUMPDEST SWAP1 JUMP JUMPDEST PUSH0 PUSH32 0x4578656375746564000000000000000000000000000000000000000000000000 SWAP2 ADD MSTORE JUMP JUMPDEST PUSH2 0x1B38 PUSH1 0x8 PUSH2 0x1AA5 JUMP JUMPDEST SWAP1 PUSH2 0x1B45 PUSH1 0x20 DUP4 ADD PUSH2 0x1B07 JUMP JUMPDEST JUMP JUMPDEST PUSH2 0x1B4F PUSH2 0x1B2E JUMP JUMPDEST SWAP1 JUMP JUMPDEST PUSH0 PUSH32 0x50656E64696E6700000000000000000000000000000000000000000000000000 SWAP2 ADD MSTORE JUMP JUMPDEST PUSH2 0x1B83 PUSH1 0x7 PUSH2 0x1AA5 JUMP JUMPDEST SWAP1 PUSH2 0x1B90 PUSH1 0x20 DUP4 ADD PUSH2 0x1B52 JUMP JUMPDEST JUMP JUMPDEST PUSH2 0x1B9A PUSH2 0x1B79 JUMP JUMPDEST SWAP1 JUMP JUMPDEST PUSH0 PUSH32 0x4163746976650000000000000000000000000000000000000000000000000000 SWAP2 ADD MSTORE JUMP JUMPDEST PUSH2 0x1BCE PUSH1 0x6 PUSH2 0x1AA5 JUMP JUMPDEST SWAP1 PUSH2 0x1BDB PUSH1 0x20 DUP4 ADD PUSH2 0x1B9D JUMP JUMPDEST JUMP JUMPDEST PUSH2 0x1BE5 PUSH2 0x1BC4 JUMP JUMPDEST SWAP1 JUMP JUMPDEST PUSH0 PUSH32 0x4465666561746564000000000000000000000000000000000000000000000000 SWAP2 ADD MSTORE JUMP JUMPDEST PUSH2 0x1C19 PUSH1 0x8 PUSH2 0x1AA5 JUMP JUMPDEST SWAP1 PUSH2 0x1C26 PUSH1 0x20 DUP4 ADD PUSH2 0x1BE8 JUMP JUMPDEST JUMP JUMPDEST PUSH2 0x1C30 PUSH2 0x1C0F JUMP JUMPDEST SWAP1 JUMP JUMPDEST PUSH0 PUSH32 0x5375636365656465640000000000000000000000000000000000000000000000 SWAP2 ADD MSTORE JUMP JUMPDEST PUSH2 0x1C64 PUSH1 0x9 PUSH2 0x1AA5 JUMP JUMPDEST SWAP1 PUSH2 0x1C71 PUSH1 0x20 DUP4 ADD PUSH2 0x1C33 JUMP JUMPDEST JUMP JUMPDEST PUSH2 0x1C7B PUSH2 0x1C5A JUMP JUMPDEST SWAP1 JUMP JUMPDEST PUSH2 0x1C95 PUSH2 0x1C9A SWAP2 PUSH2 0x1C8D PUSH2 0x1AA0 JUMP JUMPDEST POP PUSH1 0x5 PUSH2 0x1C7 JUMP JUMPDEST PUSH2 0xCAF JUMP JUMPDEST PUSH2 0x1CC1 PUSH2 0x1CA8 PUSH0 DUP4 ADD PUSH2 0x1F9 JUMP JUMPDEST PUSH2 0x1CBA PUSH2 0x1CB4 PUSH0 PUSH2 0xCB5 JUMP JUMPDEST SWAP2 PUSH2 0x164 JUMP JUMPDEST EQ ISZERO PUSH2 0xD2A JUMP JUMPDEST PUSH2 0x1CCD PUSH1 0x7 DUP3 ADD PUSH2 0x3C5 JUMP JUMPDEST PUSH2 0x1DDD JUMPI PUSH2 0x1CDD PUSH1 0x7 DUP3 ADD PUSH2 0x39E JUMP JUMPDEST PUSH2 0x1DD1 JUMPI NUMBER PUSH2 0x1CFF PUSH2 0x1CF9 PUSH2 0x1CF4 PUSH1 0x5 DUP6 ADD PUSH2 0x1F9 JUMP JUMPDEST PUSH2 0x164 JUMP JUMPDEST SWAP2 PUSH2 0x164 JUMP JUMPDEST LT PUSH2 0x1DC5 JUMPI NUMBER PUSH2 0x1D22 PUSH2 0x1D1C PUSH2 0x1D17 PUSH1 0x6 DUP6 ADD PUSH2 0x1F9 JUMP JUMPDEST PUSH2 0x164 JUMP JUMPDEST SWAP2 PUSH2 0x164 JUMP JUMPDEST GT ISZERO PUSH2 0x1DB9 JUMPI PUSH2 0x1D49 PUSH2 0x1D37 PUSH1 0x3 DUP4 ADD PUSH2 0x1F9 JUMP JUMPDEST PUSH2 0x1D43 PUSH1 0x4 DUP5 ADD PUSH2 0x1F9 JUMP JUMPDEST SWAP1 PUSH2 0xEED JUMP JUMPDEST PUSH2 0x1D64 PUSH2 0x1D5E PUSH2 0x1D59 PUSH1 0x3 PUSH2 0x1F9 JUMP JUMPDEST PUSH2 0x164 JUMP JUMPDEST SWAP2 PUSH2 0x164 JUMP JUMPDEST LT PUSH2 0x1DAD JUMPI PUSH2 0x1D92 PUSH2 0x1D8C PUSH2 0x1D87 PUSH1 0x4 PUSH2 0x1D80 PUSH1 0x3 DUP7 ADD PUSH2 0x1F9 JUMP JUMPDEST SWAP5 ADD PUSH2 0x1F9 JUMP JUMPDEST PUSH2 0x164 JUMP JUMPDEST SWAP2 PUSH2 0x164 JUMP JUMPDEST GT PUSH2 0x1DA2 JUMPI PUSH2 0x1D9F PUSH2 0x1C28 JUMP JUMPDEST SWAP1 JUMP JUMPDEST PUSH2 0x1DAA PUSH2 0x1C73 JUMP JUMPDEST SWAP1 JUMP JUMPDEST POP PUSH2 0x1DB6 PUSH2 0x1C28 JUMP JUMPDEST SWAP1 JUMP JUMPDEST POP PUSH2 0x1DC2 PUSH2 0x1BDD JUMP JUMPDEST SWAP1 JUMP JUMPDEST POP PUSH2 0x1DCE PUSH2 0x1B92 JUMP JUMPDEST SWAP1 JUMP JUMPDEST POP PUSH2 0x1DDA PUSH2 0x1B47 JUMP JUMPDEST SWAP1 JUMP JUMPDEST POP PUSH2 0x1DE6 PUSH2 0x1AFC JUMP JUMPDEST SWAP1 JUMP JUMPDEST PUSH0 PUSH32 0x566F74696E6720636C6F73656400000000000000000000000000000000000000 SWAP2 ADD MSTORE JUMP JUMPDEST PUSH2 0x1E1D PUSH1 0xD PUSH1 0x20 SWAP3 PUSH2 0x486 JUMP JUMPDEST PUSH2 0x1E26 DUP2 PUSH2 0x1DE9 JUMP JUMPDEST ADD SWAP1 JUMP JUMPDEST PUSH2 0x1E3F SWAP1 PUSH1 0x20 DUP2 ADD SWAP1 PUSH0 DUP2 DUP4 SUB SWAP2 ADD MSTORE PUSH2 0x1E10 JUMP JUMPDEST SWAP1 JUMP JUMPDEST ISZERO PUSH2 0x1E49 JUMPI JUMP JUMPDEST PUSH2 0x1E51 PUSH2 0x152 JUMP JUMPDEST PUSH3 0x461BCD PUSH1 0xE5 SHL DUP2 MSTORE DUP1 PUSH2 0x1E67 PUSH1 0x4 DUP3 ADD PUSH2 0x1E2A JUMP JUMPDEST SUB SWAP1 REVERT JUMPDEST PUSH0 PUSH32 0x416C726561647920766F74656400000000000000000000000000000000000000 SWAP2 ADD MSTORE JUMP JUMPDEST PUSH2 0x1E9F PUSH1 0xD PUSH1 0x20 SWAP3 PUSH2 0x486 JUMP JUMPDEST PUSH2 0x1EA8 DUP2 PUSH2 0x1E6B JUMP JUMPDEST ADD SWAP1 JUMP JUMPDEST PUSH2 0x1EC1 SWAP1 PUSH1 0x20 DUP2 ADD SWAP1 PUSH0 DUP2 DUP4 SUB SWAP2 ADD MSTORE PUSH2 0x1E92 JUMP JUMPDEST SWAP1 JUMP JUMPDEST ISZERO PUSH2 0x1ECB JUMPI JUMP JUMPDEST PUSH2 0x1ED3 PUSH2 0x152 JUMP JUMPDEST PUSH3 0x461BCD PUSH1 0xE5 SHL DUP2 MSTORE DUP1 PUSH2 0x1EE9 PUSH1 0x4 DUP3 ADD PUSH2 0x1EAC JUMP JUMPDEST SUB SWAP1 REVERT JUMPDEST PUSH0 PUSH32 0x4E6F20766F74696E6720706F7765720000000000000000000000000000000000 SWAP2 ADD MSTORE JUMP JUMPDEST PUSH2 0x1F21 PUSH1 0xF PUSH1 0x20 SWAP3 PUSH2 0x486 JUMP JUMPDEST PUSH2 0x1F2A DUP2 PUSH2 0x1EED JUMP JUMPDEST ADD SWAP1 JUMP JUMPDEST PUSH2 0x1F43 SWAP1 PUSH1 0x20 DUP2 ADD SWAP1 PUSH0 DUP2 DUP4 SUB SWAP2 ADD MSTORE PUSH2 0x1F14 JUMP JUMPDEST SWAP1 JUMP JUMPDEST ISZERO PUSH2 0x1F4D JUMPI JUMP JUMPDEST PUSH2 0x1F55 PUSH2 0x152 JUMP JUMPDEST PUSH3 0x461BCD PUSH1 0xE5 SHL DUP2 MSTORE DUP1 PUSH2 0x1F6B PUSH1 0x4 DUP3 ADD PUSH2 0x1F2E JUMP JUMPDEST SUB SWAP1 REVERT JUMPDEST SWAP2 PUSH1 0x20 PUSH2 0x1F90 SWAP3 SWAP5 SWAP4 PUSH2 0x1F89 PUSH1 0x40 DUP3 ADD SWAP7 PUSH0 DUP4 ADD SWAP1 PUSH2 0x4E8 JUMP JUMPDEST ADD SWAP1 PUSH2 0x451 JUMP JUMPDEST JUMP JUMPDEST SWAP1 PUSH2 0x1FA7 PUSH2 0x1FA2 PUSH1 0x5 DUP5 SWAP1 PUSH2 0x1C7 JUMP JUMPDEST PUSH2 0xCAF JUMP JUMPDEST SWAP2 PUSH2 0x1FCF PUSH2 0x1FB6 PUSH0 DUP6 ADD PUSH2 0x1F9 JUMP JUMPDEST PUSH2 0x1FC8 PUSH2 0x1FC2 PUSH0 PUSH2 0xCB5 JUMP JUMPDEST SWAP2 PUSH2 0x164 JUMP JUMPDEST EQ ISZERO PUSH2 0xD2A JUMP JUMPDEST NUMBER PUSH2 0x1FED PUSH2 0x1FE7 PUSH2 0x1FE2 PUSH1 0x5 DUP8 ADD PUSH2 0x1F9 JUMP JUMPDEST PUSH2 0x164 JUMP JUMPDEST SWAP2 PUSH2 0x164 JUMP JUMPDEST LT ISZERO DUP1 PUSH2 0x21E3 JUMPI JUMPDEST PUSH2 0x1FFE SWAP1 PUSH2 0x1E42 JUMP JUMPDEST PUSH2 0x202D PUSH2 0x2028 PUSH2 0x2022 PUSH2 0x201D PUSH2 0x2016 PUSH1 0x6 DUP7 SWAP1 PUSH2 0x6DA JUMP JUMPDEST CALLER SWAP1 PUSH2 0x724 JUMP JUMPDEST PUSH2 0x39E JUMP JUMPDEST ISZERO PUSH2 0x4E3 JUMP JUMPDEST PUSH2 0x1EC4 JUMP JUMPDEST PUSH2 0x204A PUSH2 0x2045 PUSH2 0x203F PUSH1 0x7 DUP7 ADD PUSH2 0x3C5 JUMP JUMPDEST ISZERO PUSH2 0x4E3 JUMP JUMPDEST PUSH2 0xEB0 JUMP JUMPDEST PUSH2 0x20A2 PUSH1 0x20 PUSH2 0x2078 PUSH32 0x0 PUSH2 0x951 JUMP JUMPDEST PUSH4 0x70A08231 SWAP1 PUSH2 0x2097 CALLER SWAP3 PUSH2 0x208B PUSH2 0x152 JUMP JUMPDEST SWAP6 DUP7 SWAP5 DUP6 SWAP4 DUP5 SWAP4 PUSH2 0x1270 JUMP JUMPDEST DUP4 MSTORE PUSH1 0x4 DUP4 ADD PUSH2 0x9B4 JUMP JUMPDEST SUB SWAP2 GAS STATICCALL SWAP1 DUP2 ISZERO PUSH2 0x21DE JUMPI PUSH0 SWAP2 PUSH2 0x21B0 JUMPI JUMPDEST POP SWAP3 PUSH2 0x20D2 DUP5 PUSH2 0x20CC PUSH2 0x20C6 PUSH0 PUSH2 0xCB5 JUMP JUMPDEST SWAP2 PUSH2 0x164 JUMP JUMPDEST GT PUSH2 0x1F46 JUMP JUMPDEST PUSH2 0x20F2 PUSH1 0x1 PUSH2 0x20ED PUSH2 0x20E6 PUSH1 0x6 DUP7 SWAP1 PUSH2 0x6DA JUMP JUMPDEST CALLER SWAP1 PUSH2 0x724 JUMP JUMPDEST PUSH2 0x1040 JUMP JUMPDEST PUSH2 0x2111 DUP4 PUSH2 0x210C PUSH2 0x2105 PUSH1 0x7 DUP7 SWAP1 PUSH2 0x6DA JUMP JUMPDEST CALLER SWAP1 PUSH2 0x724 JUMP JUMPDEST PUSH2 0x1040 JUMP JUMPDEST DUP3 PUSH0 EQ PUSH2 0x218A JUMPI PUSH2 0x2139 SWAP1 PUSH2 0x2133 PUSH1 0x3 DUP7 SWAP3 ADD SWAP2 PUSH2 0x212E DUP4 PUSH2 0x1F9 JUMP JUMPDEST PUSH2 0xEED JUMP JUMPDEST SWAP1 PUSH2 0x11FB JUMP JUMPDEST JUMPDEST CALLER SWAP2 SWAP3 PUSH2 0x2170 PUSH2 0x216A PUSH32 0x7C2DE587C00D75474A0C6C6FA96FD3B45DC974CD4E8A75F712BB84C950DCE1B5 SWAP4 PUSH2 0x1AB JUMP JUMPDEST SWAP4 PUSH2 0x718 JUMP JUMPDEST SWAP4 PUSH2 0x2185 PUSH2 0x217C PUSH2 0x152 JUMP JUMPDEST SWAP3 DUP4 SWAP3 DUP4 PUSH2 0x1F6F JUMP JUMPDEST SUB SWAP1 LOG3 JUMP JUMPDEST PUSH2 0x21AB SWAP1 PUSH2 0x21A5 PUSH1 0x4 DUP7 SWAP3 ADD SWAP2 PUSH2 0x21A0 DUP4 PUSH2 0x1F9 JUMP JUMPDEST PUSH2 0xEED JUMP JUMPDEST SWAP1 PUSH2 0x11FB JUMP JUMPDEST PUSH2 0x213A JUMP JUMPDEST PUSH2 0x21D1 SWAP2 POP PUSH1 0x20 RETURNDATASIZE DUP2 GT PUSH2 0x21D7 JUMPI JUMPDEST PUSH2 0x21C9 DUP2 DUP4 PUSH2 0x339 JUMP JUMPDEST DUP2 ADD SWAP1 PUSH2 0x1285 JUMP JUMPDEST PUSH0 PUSH2 0x20B4 JUMP JUMPDEST POP RETURNDATASIZE PUSH2 0x21BF JUMP JUMPDEST PUSH2 0x12A3 JUMP JUMPDEST POP PUSH2 0x1FFE NUMBER PUSH2 0x2205 PUSH2 0x21FF PUSH2 0x21FA PUSH1 0x6 DUP9 ADD PUSH2 0x1F9 JUMP JUMPDEST PUSH2 0x164 JUMP JUMPDEST SWAP2 PUSH2 0x164 JUMP JUMPDEST GT ISZERO SWAP1 POP PUSH2 0x1FF5 JUMP JUMPDEST PUSH0 PUSH32 0x4E6F7420617574686F72697A6564000000000000000000000000000000000000 SWAP2 ADD MSTORE JUMP JUMPDEST PUSH2 0x2242 PUSH1 0xE PUSH1 0x20 SWAP3 PUSH2 0x486 JUMP JUMPDEST PUSH2 0x224B DUP2 PUSH2 0x220E JUMP JUMPDEST ADD SWAP1 JUMP JUMPDEST PUSH2 0x2264 SWAP1 PUSH1 0x20 DUP2 ADD SWAP1 PUSH0 DUP2 DUP4 SUB SWAP2 ADD MSTORE PUSH2 0x2235 JUMP JUMPDEST SWAP1 JUMP JUMPDEST ISZERO PUSH2 0x226E JUMPI JUMP JUMPDEST PUSH2 0x2276 PUSH2 0x152 JUMP JUMPDEST PUSH3 0x461BCD PUSH1 0xE5 SHL DUP2 MSTORE DUP1 PUSH2 0x228C PUSH1 0x4 DUP3 ADD PUSH2 0x224F JUMP JUMPDEST SUB SWAP1 REVERT JUMPDEST PUSH0 PUSH32 0x416C72656164792063616E63656C656400000000000000000000000000000000 SWAP2 ADD MSTORE JUMP JUMPDEST PUSH2 0x22C4 PUSH1 0x10 PUSH1 0x20 SWAP3 PUSH2 0x486 JUMP JUMPDEST PUSH2 0x22CD DUP2 PUSH2 0x2290 JUMP JUMPDEST ADD SWAP1 JUMP JUMPDEST PUSH2 0x22E6 SWAP1 PUSH1 0x20 DUP2 ADD SWAP1 PUSH0 DUP2 DUP4 SUB SWAP2 ADD MSTORE PUSH2 0x22B7 JUMP JUMPDEST SWAP1 JUMP JUMPDEST ISZERO PUSH2 0x22F0 JUMPI JUMP JUMPDEST PUSH2 0x22F8 PUSH2 0x152 JUMP JUMPDEST PUSH3 0x461BCD PUSH1 0xE5 SHL DUP2 MSTORE DUP1 PUSH2 0x230E PUSH1 0x4 DUP3 ADD PUSH2 0x22D1 JUMP JUMPDEST SUB SWAP1 REVERT JUMPDEST PUSH2 0x23C4 PUSH2 0x2329 PUSH2 0x2324 PUSH1 0x5 DUP5 SWAP1 PUSH2 0x1C7 JUMP JUMPDEST PUSH2 0xCAF JUMP JUMPDEST PUSH2 0x2350 PUSH2 0x2337 PUSH0 DUP4 ADD PUSH2 0x1F9 JUMP JUMPDEST PUSH2 0x2349 PUSH2 0x2343 PUSH0 PUSH2 0xCB5 JUMP JUMPDEST SWAP2 PUSH2 0x164 JUMP JUMPDEST EQ ISZERO PUSH2 0xD2A JUMP JUMPDEST CALLER PUSH2 0x236E PUSH2 0x2368 PUSH2 0x2363 PUSH1 0x1 DUP6 ADD PUSH2 0x225 JUMP JUMPDEST PUSH2 0x469 JUMP JUMPDEST SWAP2 PUSH2 0x469 JUMP JUMPDEST EQ DUP1 ISZERO PUSH2 0x2406 JUMPI JUMPDEST PUSH2 0x237F SWAP1 PUSH2 0x2267 JUMP JUMPDEST PUSH2 0x239C PUSH2 0x2397 PUSH2 0x2391 PUSH1 0x7 DUP5 ADD PUSH2 0x39E JUMP JUMPDEST ISZERO PUSH2 0x4E3 JUMP JUMPDEST PUSH2 0xE2E JUMP JUMPDEST PUSH2 0x23B9 PUSH2 0x23B4 PUSH2 0x23AE PUSH1 0x7 DUP5 ADD PUSH2 0x3C5 JUMP JUMPDEST ISZERO PUSH2 0x4E3 JUMP JUMPDEST PUSH2 0x22E9 JUMP JUMPDEST PUSH1 0x7 PUSH1 0x1 SWAP2 ADD PUSH2 0x167E JUMP JUMPDEST PUSH2 0x23EE PUSH32 0x789CF55BE980739DAD1D0699B93B58E806B51C9D96619BFA8FE0A28ABAA7B30C SWAP2 PUSH2 0x1AB JUMP JUMPDEST SWAP1 PUSH2 0x23F7 PUSH2 0x152 JUMP JUMPDEST DUP1 PUSH2 0x2401 DUP2 PUSH2 0x652 JUMP JUMPDEST SUB SWAP1 LOG2 JUMP JUMPDEST POP PUSH2 0x237F CALLER PUSH2 0x2424 PUSH2 0x241E PUSH2 0x2419 PUSH2 0x1A8B JUMP JUMPDEST PUSH2 0x469 JUMP JUMPDEST SWAP2 PUSH2 0x469 JUMP JUMPDEST EQ SWAP1 POP PUSH2 0x2376 JUMP JUMPDEST PUSH2 0x243D SWAP1 PUSH2 0x2438 PUSH2 0x266B JUMP JUMPDEST PUSH2 0x243F JUMP JUMPDEST JUMP JUMPDEST PUSH2 0x244A DUP2 PUSH1 0x2 PUSH2 0x11FB JUMP JUMPDEST PUSH2 0x2480 PUSH32 0x651C77F42613A075437AA794C44471E3ABC3A661956A67AAEE165BB7396974AA SWAP2 PUSH2 0x2477 PUSH2 0x152 JUMP JUMPDEST SWAP2 DUP3 SWAP2 DUP3 PUSH2 0x608 JUMP JUMPDEST SUB SWAP1 LOG1 JUMP JUMPDEST PUSH2 0x248E SWAP1 PUSH2 0x242C JUMP JUMPDEST JUMP JUMPDEST PUSH2 0x24A1 SWAP1 PUSH2 0x249C PUSH2 0x266B JUMP JUMPDEST PUSH2 0x24A3 JUMP JUMPDEST JUMP JUMPDEST PUSH2 0x24AE DUP2 PUSH1 0x4 PUSH2 0x11FB JUMP JUMPDEST PUSH2 0x24E4 PUSH32 0x75176781F69C55E26FEE85D480452B0B9038B9428704BB7B232FC1C638BBF803 SWAP2 PUSH2 0x24DB PUSH2 0x152 JUMP JUMPDEST SWAP2 DUP3 SWAP2 DUP3 PUSH2 0x608 JUMP JUMPDEST SUB SWAP1 LOG1 JUMP JUMPDEST PUSH2 0x24F2 SWAP1 PUSH2 0x2490 JUMP JUMPDEST JUMP JUMPDEST PUSH2 0x2505 SWAP1 PUSH2 0x2500 PUSH2 0x266B JUMP JUMPDEST PUSH2 0x25AF JUMP JUMPDEST JUMP JUMPDEST PUSH1 0x20 PUSH32 0x6464726573730000000000000000000000000000000000000000000000000000 SWAP2 PUSH32 0x4F776E61626C653A206E6577206F776E657220697320746865207A65726F2061 PUSH0 DUP3 ADD MSTORE ADD MSTORE JUMP JUMPDEST PUSH2 0x2561 PUSH1 0x26 PUSH1 0x40 SWAP3 PUSH2 0x486 JUMP JUMPDEST PUSH2 0x256A DUP2 PUSH2 0x2507 JUMP JUMPDEST ADD SWAP1 JUMP JUMPDEST PUSH2 0x2583 SWAP1 PUSH1 0x20 DUP2 ADD SWAP1 PUSH0 DUP2 DUP4 SUB SWAP2 ADD MSTORE PUSH2 0x2554 JUMP JUMPDEST SWAP1 JUMP JUMPDEST ISZERO PUSH2 0x258D JUMPI JUMP JUMPDEST PUSH2 0x2595 PUSH2 0x152 JUMP JUMPDEST PUSH3 0x461BCD PUSH1 0xE5 SHL DUP2 MSTORE DUP1 PUSH2 0x25AB PUSH1 0x4 DUP3 ADD PUSH2 0x256E JUMP JUMPDEST SUB SWAP1 REVERT JUMPDEST PUSH2 0x25DD SWAP1 PUSH2 0x25D8 DUP2 PUSH2 0x25D1 PUSH2 0x25CB PUSH2 0x25C6 PUSH0 PUSH2 0x1A5E JUMP JUMPDEST PUSH2 0x469 JUMP JUMPDEST SWAP2 PUSH2 0x469 JUMP JUMPDEST EQ ISZERO PUSH2 0x2586 JUMP JUMPDEST PUSH2 0x2697 JUMP JUMPDEST JUMP JUMPDEST PUSH2 0x25E8 SWAP1 PUSH2 0x24F4 JUMP JUMPDEST JUMP JUMPDEST PUSH0 PUSH32 0x4F776E61626C653A2063616C6C6572206973206E6F7420746865206F776E6572 SWAP2 ADD MSTORE JUMP JUMPDEST PUSH2 0x261D PUSH1 0x20 DUP1 SWAP3 PUSH2 0x486 JUMP JUMPDEST PUSH2 0x2626 DUP2 PUSH2 0x25EA JUMP JUMPDEST ADD SWAP1 JUMP JUMPDEST PUSH2 0x263F SWAP1 PUSH1 0x20 DUP2 ADD SWAP1 PUSH0 DUP2 DUP4 SUB SWAP2 ADD MSTORE PUSH2 0x2611 JUMP JUMPDEST SWAP1 JUMP JUMPDEST ISZERO PUSH2 0x2649 JUMPI JUMP JUMPDEST PUSH2 0x2651 PUSH2 0x152 JUMP JUMPDEST PUSH3 0x461BCD PUSH1 0xE5 SHL DUP2 MSTORE DUP1 PUSH2 0x2667 PUSH1 0x4 DUP3 ADD PUSH2 0x262A JUMP JUMPDEST SUB SWAP1 REVERT JUMPDEST PUSH2 0x2695 PUSH2 0x2676 PUSH2 0x1A8B JUMP JUMPDEST PUSH2 0x268F PUSH2 0x2689 PUSH2 0x2684 PUSH2 0x26F6 JUMP JUMPDEST PUSH2 0x469 JUMP JUMPDEST SWAP2 PUSH2 0x469 JUMP JUMPDEST EQ PUSH2 0x2642 JUMP JUMPDEST JUMP JUMPDEST PUSH2 0x26A0 PUSH0 PUSH2 0x225 JUMP JUMPDEST PUSH2 0x26AA DUP3 PUSH0 PUSH2 0x144F JUMP JUMPDEST SWAP1 PUSH2 0x26DE PUSH2 0x26D8 PUSH32 0x8BE0079C531659141344CD1FD0A4F28419497F9722A3DAAFE3B4186F6B6457E0 SWAP4 PUSH2 0x718 JUMP JUMPDEST SWAP2 PUSH2 0x718 JUMP JUMPDEST SWAP2 PUSH2 0x26E7 PUSH2 0x152 JUMP JUMPDEST DUP1 PUSH2 0x26F1 DUP2 PUSH2 0x652 JUMP JUMPDEST SUB SWAP1 LOG3 JUMP JUMPDEST PUSH2 0x26FE PUSH2 0x1A87 JUMP JUMPDEST POP CALLER SWAP1 JUMP INVALID LOG2 PUSH5 0x6970667358 0x22 SLT KECCAK256 PUSH21 0x14EED894F84291B7E56700DE509277BB792DF119F9 0x4B BLOCKHASH PUSH32 0x88F7E4A1A1D13764736F6C634300081800330000000000000000000000000000 "},"methodIdentifiers":{"cancelProposal(uint256)":"e0a8f6f5","createProposal(string)":"49c2a1a6","eduToken()":"8d878889","executeProposal(uint256)":"0d61b519","getProposalState(uint256)":"9080936f","hasVoted(uint256,address)":"43859632","owner()":"8da5cb5b","proposalCount()":"da35c664","proposalThreshold()":"b58131b0","proposals(uint256)":"013cf08b","quorumThreshold()":"7b7a91dd","renounceOwnership()":"715018a6","setProposalThreshold(uint256)":"ece40cc1","setQuorumThreshold(uint256)":"4524c7e1","setVotingPeriod(uint256)":"ea0217cf","transferOwnership(address)":"f2fde38b","vote(uint256,bool)":"c9d27afe","voteChoice(uint256,address)":"fb468855","votingPeriod()":"02a251a3"}}}}}