{"project/contracts/EduPlatform.sol":{"EduPlatform":{"abi":[{"inputs":[{"internalType":"address","name":"_eduToken","type":"address"}],"stateMutability":"nonpayable","type":"constructor"},{"anonymous":false,"inputs":[{"indexed":true,"internalType":"address","name":"learner","type":"address"},{"indexed":true,"internalType":"uint256","name":"courseId","type":"uint256"}],"name":"CourseCompleted","type":"event"},{"anonymous":false,"inputs":[{"indexed":true,"internalType":"uint256","name":"id","type":"uint256"},{"indexed":false,"internalType":"uint256","name":"eduReward","type":"uint256"},{"indexed":false,"internalType":"string","name":"metadataUri","type":"string"}],"name":"CourseCreated","type":"event"},{"anonymous":false,"inputs":[{"indexed":true,"internalType":"uint256","name":"courseId","type":"uint256"}],"name":"CourseDeactivated","type":"event"},{"anonymous":false,"inputs":[{"indexed":true,"internalType":"address","name":"learner","type":"address"},{"indexed":true,"internalType":"uint256","name":"courseId","type":"uint256"},{"indexed":false,"internalType":"uint256","name":"tokenId","type":"uint256"}],"name":"CredentialMinted","type":"event"},{"anonymous":false,"inputs":[{"indexed":true,"internalType":"address","name":"learner","type":"address"},{"indexed":false,"internalType":"uint256","name":"tier","type":"uint256"}],"name":"KYCUpdated","type":"event"},{"anonymous":false,"inputs":[{"indexed":true,"internalType":"address","name":"previousOwner","type":"address"},{"indexed":true,"internalType":"address","name":"newOwner","type":"address"}],"name":"OwnershipTransferred","type":"event"},{"anonymous":false,"inputs":[{"indexed":true,"internalType":"address","name":"learner","type":"address"}],"name":"ProfileCreated","type":"event"},{"anonymous":false,"inputs":[{"indexed":true,"internalType":"address","name":"payer","type":"address"},{"indexed":false,"internalType":"uint256","name":"amount","type":"uint256"}],"name":"RevenueReceived","type":"event"},{"anonymous":false,"inputs":[{"indexed":false,"internalType":"uint256","name":"amount","type":"uint256"},{"indexed":false,"internalType":"uint256","name":"totalBurned","type":"uint256"}],"name":"TokensBurned","type":"event"},{"inputs":[],"name":"BPS_DENOMINATOR","outputs":[{"internalType":"uint256","name":"","type":"uint256"}],"stateMutability":"view","type":"function"},{"inputs":[],"name":"DAILY_REWARD_CAP","outputs":[{"internalType":"uint256","name":"","type":"uint256"}],"stateMutability":"view","type":"function"},{"inputs":[],"name":"KYC_MINIMUM","outputs":[{"internalType":"uint256","name":"","type":"uint256"}],"stateMutability":"view","type":"function"},{"inputs":[],"name":"REVENUE_BURN_BPS","outputs":[{"internalType":"uint256","name":"","type":"uint256"}],"stateMutability":"view","type":"function"},{"inputs":[{"internalType":"uint256","name":"courseId","type":"uint256"}],"name":"completeCourse","outputs":[],"stateMutability":"nonpayable","type":"function"},{"inputs":[{"internalType":"address","name":"","type":"address"},{"internalType":"uint256","name":"","type":"uint256"}],"name":"courseCompleted","outputs":[{"internalType":"bool","name":"","type":"bool"}],"stateMutability":"view","type":"function"},{"inputs":[],"name":"courseCount","outputs":[{"internalType":"uint256","name":"","type":"uint256"}],"stateMutability":"view","type":"function"},{"inputs":[{"internalType":"uint256","name":"","type":"uint256"}],"name":"courses","outputs":[{"internalType":"uint256","name":"id","type":"uint256"},{"internalType":"uint256","name":"eduReward","type":"uint256"},{"internalType":"uint256","name":"credentialPrice","type":"uint256"},{"internalType":"bool","name":"active","type":"bool"},{"internalType":"string","name":"metadataUri","type":"string"}],"stateMutability":"view","type":"function"},{"inputs":[{"internalType":"uint256","name":"id","type":"uint256"},{"internalType":"uint256","name":"eduReward","type":"uint256"},{"internalType":"uint256","name":"credentialPrice","type":"uint256"},{"internalType":"string","name":"metadataUri","type":"string"}],"name":"createCourse","outputs":[],"stateMutability":"nonpayable","type":"function"},{"inputs":[{"internalType":"address","name":"","type":"address"}],"name":"credentialTokenId","outputs":[{"internalType":"uint256","name":"","type":"uint256"}],"stateMutability":"view","type":"function"},{"inputs":[{"internalType":"uint256","name":"courseId","type":"uint256"}],"name":"deactivateCourse","outputs":[],"stateMutability":"nonpayable","type":"function"},{"inputs":[],"name":"eduToken","outputs":[{"internalType":"contract EduToken","name":"","type":"address"}],"stateMutability":"view","type":"function"},{"inputs":[{"internalType":"address","name":"learner","type":"address"}],"name":"getLearnerStats","outputs":[{"internalType":"uint256","name":"kycTier","type":"uint256"},{"internalType":"uint256","name":"totalXp","type":"uint256"},{"internalType":"uint256","name":"coursesCompleted","type":"uint256"},{"internalType":"uint256","name":"dailyRemaining","type":"uint256"}],"stateMutability":"view","type":"function"},{"inputs":[{"internalType":"uint256","name":"courseId","type":"uint256"}],"name":"mintCredential","outputs":[],"stateMutability":"nonpayable","type":"function"},{"inputs":[],"name":"owner","outputs":[{"internalType":"address","name":"","type":"address"}],"stateMutability":"view","type":"function"},{"inputs":[{"internalType":"address","name":"","type":"address"}],"name":"profiles","outputs":[{"internalType":"uint256","name":"kycTier","type":"uint256"},{"internalType":"uint256","name":"totalXp","type":"uint256"},{"internalType":"uint256","name":"coursesCompleted","type":"uint256"},{"internalType":"uint256","name":"dailyRewardsClaimed","type":"uint256"},{"internalType":"uint256","name":"lastRewardDay","type":"uint256"},{"internalType":"bool","name":"exists","type":"bool"}],"stateMutability":"view","type":"function"},{"inputs":[{"internalType":"uint256","name":"amount","type":"uint256"}],"name":"receivePayment","outputs":[],"stateMutability":"nonpayable","type":"function"},{"inputs":[],"name":"registerLearner","outputs":[],"stateMutability":"nonpayable","type":"function"},{"inputs":[],"name":"renounceOwnership","outputs":[],"stateMutability":"nonpayable","type":"function"},{"inputs":[{"internalType":"uint256","name":"","type":"uint256"}],"name":"rewardRecipients","outputs":[{"internalType":"address","name":"","type":"address"}],"stateMutability":"view","type":"function"},{"inputs":[{"internalType":"address","name":"learner","type":"address"},{"internalType":"uint256","name":"tier","type":"uint256"}],"name":"setKYCTier","outputs":[],"stateMutability":"nonpayable","type":"function"},{"inputs":[],"name":"totalBurned","outputs":[{"internalType":"uint256","name":"","type":"uint256"}],"stateMutability":"view","type":"function"},{"inputs":[{"internalType":"address","name":"newOwner","type":"address"}],"name":"transferOwnership","outputs":[],"stateMutability":"nonpayable","type":"function"},{"stateMutability":"payable","type":"receive"}],"evm":{"bytecode":{"linkReferences":{},"object":"60a06040523462000063576200001e620000186200013c565b6200026c565b6200002862000069565b612dc5620003eb82396080518181816107c7015281816116c801528181611b0501528181611c2f01528181612245015261233b0152612dc590f35b6200006f565b60405190565b5f80fd5b601f801991011690565b634e487b7160e01b5f52604160045260245ffd5b906200009d9062000073565b810190811060018060401b03821117620000b657604052565b6200007d565b90620000d3620000cb62000069565b928362000091565b565b5f80fd5b60018060a01b031690565b620000ef90620000d9565b90565b620000fd81620000e4565b036200010557565b5f80fd5b905051906200011882620000f2565b565b90602082820312620001365762000133915f0162000109565b90565b620000d5565b6200015f620031b0803803806200015381620000bc565b9283398101906200011a565b90565b90565b90565b620001816200017b620001879262000162565b62000165565b620000d9565b90565b620001959062000168565b90565b60209181520190565b5f7f546f6b656e2061646472657373207a65726f0000000000000000000000000000910152565b620001d7601260209262000198565b620001e281620001a1565b0190565b620001fd9060208101905f818303910152620001c8565b90565b156200020857565b6200021262000069565b62461bcd60e51b8152806200022a60048201620001e6565b0390fd5b62000247620002416200024d92620000d9565b62000165565b620000d9565b90565b6200025b906200022e565b90565b620002699062000250565b90565b620002ae906200027b620002b3565b620002a881620002a062000299620002935f6200018a565b620000e4565b91620000e4565b141562000200565b6200025e565b608052565b620002c7620002c1620002cd565b6200037f565b565b5f90565b620002d7620002c9565b503390565b5f1c90565b60018060a01b031690565b620002fb6200030191620002dc565b620002e1565b90565b620003109054620002ec565b90565b5f1b90565b906200032b60018060a01b039162000313565b9181191691161790565b62000340906200022e565b90565b6200034e9062000335565b90565b90565b906200036e62000368620003769262000343565b62000351565b825462000318565b9055565b5f0190565b6200038a5f62000304565b62000396825f62000354565b90620003ce620003c77f8be0079c531659141344cd1fd0a4f28419497f9722a3daafe3b4186f6b6457e09362000343565b9162000343565b91620003d962000069565b80620003e5816200037a565b0390a356fe60806040526004361015610015575b36610f3a57005b61001f5f3561018e565b80630ce12cf0146101895780630d3b4292146101845780632d9fac521461017f57806330838fbe1461017a5780633a9a4530146101755780633f7c7271146101705780635a764ffe1461016b57806362b18a9f14610166578063660551591461016157806368f0db051461015c578063715018a6146101575780638d878889146101525780638da5cb5b1461014d57806396f979d214610148578063ac85495d14610143578063bbe156271461013e578063c6f7d43f14610139578063d89135cd14610134578063e1a452181461012f578063e2eab4831461012a578063e38e8a1b14610125578063f2fde38b146101205763f67d377d0361000e57610f06565b610ed3565b610e9c565b610dbe565b610d89565b610d1c565b610cd8565b610c65565b610b67565b610b2e565b61084c565b610817565b610792565b61075c565b61063e565b6105fc565b6105c7565b610508565b6104d3565b61045e565b6103ca565b6102cb565b61024c565b60e01c90565b60405190565b5f80fd5b5f80fd5b5f80fd5b60018060a01b031690565b6101ba906101a6565b90565b6101c6816101b1565b036101cd57565b5f80fd5b905035906101de826101bd565b565b906020828203126101f9576101f6915f016101d1565b90565b61019e565b90565b61020a906101fe565b9052565b61024361024a9461023960609498979561022f608086019a5f870190610201565b6020850190610201565b6040830190610201565b0190610201565b565b346102805761027c6102676102623660046101e0565b610ff2565b90610273949294610194565b9485948561020e565b0390f35b61019a565b61028e816101fe565b0361029557565b5f80fd5b905035906102a682610285565b565b906020828203126102c1576102be915f01610299565b90565b61019e565b5f0190565b346102f9576102e36102de3660046102a8565b611459565b6102eb610194565b806102f5816102c6565b0390f35b61019a565b634e487b7160e01b5f52603260045260245ffd5b5490565b5f5260205f2090565b61032881610312565b8210156103425761033a600191610316565b910201905f90565b6102fe565b1c90565b60018060a01b031690565b61036690600861036b9302610347565b61034b565b90565b906103799154610356565b90565b600861038781610312565b8210156103a4576103a19161039b9161031f565b9061036e565b90565b5f80fd5b6103b1906101b1565b9052565b91906103c8905f602085019401906103a8565b565b346103fa576103f66103e56103e03660046102a8565b61037c565b6103ed610194565b918291826103b5565b0390f35b61019a565b5f91031261040957565b61019e565b90565b90565b61042861042361042d9261040e565b610411565b6101fe565b90565b61043b610bb8610414565b90565b610446610430565b90565b919061045c905f60208501940190610201565b565b3461048e5761046e3660046103ff565b61048a61047961043e565b610481610194565b91829182610449565b0390f35b61019a565b90565b6104aa6104a56104af92610493565b610411565b6101fe565b90565b6104c5690a968163f0a57b400000610496565b90565b6104d06104b2565b90565b34610503576104e33660046103ff565b6104ff6104ee6104c8565b6104f6610194565b91829182610449565b0390f35b61019a565b346105365761052061051b3660046102a8565b611a14565b610528610194565b80610532816102c6565b0390f35b61019a565b61054f61054a610554926101a6565b610411565b6101a6565b90565b6105609061053b565b90565b61056c90610557565b90565b9061057990610563565b5f5260205260405f2090565b90565b61059890600861059d9302610347565b610585565b90565b906105ab9154610588565b90565b6105c4906105bf6006915f9261056f565b6105a0565b90565b346105f7576105f36105e26105dd3660046101e0565b6105ae565b6105ea610194565b91829182610449565b0390f35b61019a565b3461062a5761060c3660046103ff565b610614611ee3565b61061c610194565b80610626816102c6565b0390f35b61019a565b61063b60015f906105a0565b90565b3461066e5761064e3660046103ff565b61066a61065961062f565b610661610194565b91829182610449565b0390f35b61019a565b919060408382031261069b578061068f610698925f86016101d1565b93602001610299565b90565b61019e565b906106aa90610563565b5f5260205260405f2090565b6106ca6106c56106cf926101fe565b610411565b6101fe565b90565b906106dc906106b6565b5f5260205260405f2090565b60ff1690565b6106fe9060086107039302610347565b6106e8565b90565b9061071191546106ee565b90565b61072d610732926107286005935f946106a0565b6106d2565b610706565b90565b151590565b61074390610735565b9052565b919061075a905f6020850194019061073a565b565b3461078d57610789610778610772366004610673565b90610714565b610780610194565b91829182610747565b0390f35b61019a565b346107c0576107a23660046103ff565b6107aa612047565b6107b2610194565b806107bc816102c6565b0390f35b61019a565b7f000000000000000000000000000000000000000000000000000000000000000090565b6107f290610557565b90565b6107fe906107e9565b9052565b9190610815905f602085019401906107f5565b565b34610847576108273660046103ff565b6108436108326107c5565b61083a610194565b91829182610802565b0390f35b61019a565b3461087c5761085c3660046103ff565b610878610867612076565b61086f610194565b918291826103b5565b0390f35b61019a565b9061088b906106b6565b5f5260205260405f2090565b5f1c90565b6108a86108ad91610897565b610585565b90565b6108ba905461089c565b90565b6108c96108ce91610897565b6106e8565b90565b6108db90546108bd565b90565b634e487b7160e01b5f52602260045260245ffd5b9060016002830492168015610912575b602083101461090d57565b6108de565b91607f1691610902565b60209181520190565b5f5260205f2090565b905f9291805490610948610941836108f2565b809461091c565b916001811690815f1461099f5750600114610963575b505050565b6109709192939450610925565b915f925b81841061098757505001905f808061095e565b60018160209295939554848601520191019290610974565b92949550505060ff19168252151560200201905f808061095e565b906109c49161092e565b90565b601f801991011690565b634e487b7160e01b5f52604160045260245ffd5b906109ef906109c7565b810190811067ffffffffffffffff821117610a0957604052565b6109d1565b90610a2e610a2792610a1e610194565b938480926109ba565b03836109e5565b565b610a3b906003610881565b610a465f82016108b0565b91610a53600183016108b0565b91610a60600282016108b0565b91610a796004610a72600385016108d1565b9301610a0e565b90565b5190565b60209181520190565b5f5b838110610a9b575050905f910152565b806020918301518185015201610a8b565b610acb610ad4602093610ad993610ac281610a7c565b93848093610a80565b95869101610a89565b6109c7565b0190565b9193610b14610b2b9694610b0a610b1e9497610b0060a08801995f890190610201565b6020870190610201565b6040850190610201565b606083019061073a565b6080818403910152610aac565b90565b34610b6257610b5e610b49610b443660046102a8565b610a30565b91610b55959395610194565b95869586610add565b0390f35b61019a565b34610b9557610b7f610b7a3660046102a8565b612197565b610b87610194565b80610b91816102c6565b0390f35b61019a565b90610ba490610563565b5f5260205260405f2090565b610bbb906004610b9a565b90610bc75f83016108b0565b91610bd4600182016108b0565b91610be1600283016108b0565b91610bee600382016108b0565b91610c076005610c00600485016108b0565b93016108d1565b90565b9194610c52610c5c92989795610c4860a096610c3e610c639a610c3460c08a019e5f8b0190610201565b6020890190610201565b6040870190610201565b6060850190610201565b6080830190610201565b019061073a565b565b34610c9c57610c98610c80610c7b3660046101e0565b610bb0565b92610c8f969496929192610194565b96879687610c0a565b0390f35b61019a565b90565b610cb8610cb3610cbd92610ca1565b610411565b6101fe565b90565b610cca6001610ca4565b90565b610cd5610cc0565b90565b34610d0857610ce83660046103ff565b610d04610cf3610ccd565b610cfb610194565b91829182610449565b0390f35b61019a565b610d1960025f906105a0565b90565b34610d4c57610d2c3660046103ff565b610d48610d37610d0d565b610d3f610194565b91829182610449565b0390f35b61019a565b90565b610d68610d63610d6d92610d51565b610411565b6101fe565b90565b610d7b612710610d54565b90565b610d86610d70565b90565b34610db957610d993660046103ff565b610db5610da4610d7e565b610dac610194565b91829182610449565b0390f35b61019a565b34610dec57610dd6610dd13660046102a8565b612224565b610dde610194565b80610de8816102c6565b0390f35b61019a565b5f80fd5b5f80fd5b5f80fd5b909182601f83011215610e375781359167ffffffffffffffff8311610e32576020019260018302840111610e2d57565b610df9565b610df5565b610df1565b90608082820312610e9757610e53815f8401610299565b92610e618260208501610299565b92610e6f8360408301610299565b92606082013567ffffffffffffffff8111610e9257610e8e9201610dfd565b9091565b6101a2565b61019e565b34610ece57610eb8610eaf366004610e3c565b93929092612a17565b610ec0610194565b80610eca816102c6565b0390f35b61019a565b34610f0157610eeb610ee63660046101e0565b612b11565b610ef3610194565b80610efd816102c6565b0390f35b61019a565b34610f3557610f1f610f19366004610673565b90612c2c565b610f27610194565b80610f31816102c6565b0390f35b61019a565b5f80fd5b5f90565b90565b90565b610f5c610f57610f6192610f45565b610411565b6101fe565b90565b634e487b7160e01b5f52601260045260245ffd5b634e487b7160e01b5f52601160045260245ffd5b610f98610f9e916101fe565b916101fe565b908115610fa9570490565b610f64565b90565b610fc5610fc0610fca92610fae565b610411565b6101fe565b90565b610fdc610fe2919392936101fe565b926101fe565b8203918211610fed57565b610f78565b61102461102991611001610f3e565b5061100a610f3e565b50611013610f3e565b5061101c610f3e565b506004610b9a565b610f42565b906110404261103a62015180610f48565b90610f8c565b61105d611057611052600486016108b0565b6101fe565b916101fe565b115f146110ab5761106d5f610fb1565b5b9061107a5f84016108b0565b906110a4611096600261108f600188016108b0565b96016108b0565b9361109f6104b2565b610fcd565b9193929190565b6110b7600383016108b0565b61106e565b90565b5f7f436f7572736520696e6163746976650000000000000000000000000000000000910152565b6110f3600f602092610a80565b6110fc816110bf565b0190565b6111159060208101905f8183039101526110e6565b90565b1561111f57565b611127610194565b62461bcd60e51b81528061113d60048201611100565b0390fd5b5f7f416c726561647920636f6d706c65746564000000000000000000000000000000910152565b6111756011602092610a80565b61117e81611141565b0190565b6111979060208101905f818303910152611168565b90565b156111a157565b6111a9610194565b62461bcd60e51b8152806111bf60048201611182565b0390fd5b5f7f4e6f742072656769737465726564000000000000000000000000000000000000910152565b6111f7600e602092610a80565b611200816111c3565b0190565b6112199060208101905f8183039101526111ea565b90565b1561122357565b61122b610194565b62461bcd60e51b81528061124160048201611204565b0390fd5b5f7f4b59432072657175697265640000000000000000000000000000000000000000910152565b611279600c602092610a80565b61128281611245565b0190565b61129b9060208101905f81830391015261126c565b90565b156112a557565b6112ad610194565b62461bcd60e51b8152806112c360048201611286565b0390fd5b5f1b90565b906112d85f19916112c7565b9181191691161790565b90565b906112fa6112f5611301926106b6565b6112e2565b82546112cc565b9055565b61131461131a919392936101fe565b926101fe565b820180921161132557565b610f78565b5f7f4461696c79207265776172642063617020726561636865640000000000000000910152565b61135e6018602092610a80565b6113678161132a565b0190565b6113809060208101905f818303910152611351565b90565b1561138a57565b611392610194565b62461bcd60e51b8152806113a86004820161136b565b0390fd5b906113b860ff916112c7565b9181191691161790565b6113cb90610735565b90565b90565b906113e66113e16113ed926113c2565b6113ce565b82546113ac565b9055565b6113fa906101fe565b5f1981146114085760010190565b610f78565b5f80fd5b60e01b90565b5f91031261142157565b61019e565b91602061144792949361144060408201965f8301906103a8565b0190610201565b565b611451610194565b3d5f823e3d90fd5b61146d61146860038390610881565b6110bc565b61148161147c600383016108d1565b611118565b6114b06114ab6114a56114a0611499600533906106a0565b86906106d2565b6108d1565b15610735565b61119a565b6114cf6114ca60056114c460043390610b9a565b016108d1565b61121c565b6115086114e85f6114e260043390610b9a565b016108b0565b6115016114fb6114f6610cc0565b6101fe565b916101fe565b101561129e565b61151e4261151862015180610f48565b90610f8c565b8061154661154061153b6004611535813390610b9a565b016108b0565b6101fe565b916101fe565b1161177a575b5061159c61157c61156a600361156460043390610b9a565b016108b0565b611576600185016108b0565b90611305565b61159561158f61158a6104b2565b6101fe565b916101fe565b1115611383565b6115bc60016115b76115b0600533906106a0565b85906106d2565b6113d1565b6115e560026115cd60043390610b9a565b016115df6115da826108b0565b6113f1565b906112e5565b61161b6115f4600183016108b0565b611615600361160560043390610b9a565b0191611610836108b0565b611305565b906112e5565b61165161162a600183016108b0565b61164b600161163b60043390610b9a565b0191611646836108b0565b611305565b906112e5565b61165d600182016108b0565b61166f6116695f610fb1565b916101fe565b116116c3575b5033906116ab6116a57f4b85f119a65c9ab344d9a4d007a895c9a738e08054fee095494567187c45ea8693610563565b916106b6565b916116b4610194565b806116be816102c6565b0390a3565b6116ec7f00000000000000000000000000000000000000000000000000000000000000006107e9565b906340c10f199061170060013392016108b0565b92803b15611775576117255f8094611730611719610194565b97889687958694611411565b845260048401611426565b03925af1801561177057611744575b611675565b611763905f3d8111611769575b61175b81836109e5565b810190611417565b5f61173f565b503d611751565b611449565b61140d565b6117b19061179e61178a5f610fb1565b600361179860043390610b9a565b016112e5565b60046117ab813390610b9a565b016112e5565b5f61154c565b5f7f436f75727365206e6f7420636f6d706c65746564000000000000000000000000910152565b6117eb6014602092610a80565b6117f4816117b7565b0190565b61180d9060208101905f8183039101526117de565b90565b1561181757565b61181f610194565b62461bcd60e51b815280611835600482016117f8565b0390fd5b5f7f416c72656164792063726564656e7469616c6564000000000000000000000000910152565b61186d6014602092610a80565b61187681611839565b0190565b61188f9060208101905f818303910152611860565b90565b1561189957565b6118a1610194565b62461bcd60e51b8152806118b76004820161187a565b0390fd5b5f7f4e6f207072696365207365740000000000000000000000000000000000000000910152565b6118ef600c602092610a80565b6118f8816118bb565b0190565b6119119060208101905f8183039101526118e2565b90565b1561191b57565b611923610194565b62461bcd60e51b815280611939600482016118fc565b0390fd5b61194c611952919392936101fe565b926101fe565b9161195e8382026101fe565b92818404149015171561196d57565b610f78565b61197b90610557565b90565b61198781610735565b0361198e57565b5f80fd5b9050519061199f8261197e565b565b906020828203126119ba576119b7915f01611992565b90565b61019e565b6040906119e86119ef94969593966119de60608401985f8501906103a8565b60208301906103a8565b0190610201565b565b916020611a12929493611a0b60408201965f830190610201565b0190610201565b565b611a28611a2360038390610881565b6110bc565b611a3c611a37600383016108d1565b611118565b611a62611a5d611a58611a51600533906106a0565b85906106d2565b6108d1565b611810565b611a91611a79611a746006339061056f565b6108b0565b611a8b611a855f610fb1565b916101fe565b14611892565b611ab8611aa0600283016108b0565b611ab2611aac5f610fb1565b916101fe565b11611914565b611ae6611ad8611aca600284016108b0565b611ad2610430565b9061193d565b611ae0610d70565b90610f8c565b90611afd611af6600283016108b0565b8390610fcd565b506020611b297f00000000000000000000000000000000000000000000000000000000000000006107e9565b6323b872dd90611b615f3393611b6c611b4d6002611b4630611972565b99016108b0565b611b55610194565b98899788968795611411565b8552600485016119bf565b03925af18015611d6157611d35575b5080611b8f611b895f610fb1565b916101fe565b11611c2a575b50611bb2611bab611ba660076108b0565b6113f1565b60076112e5565b611bd0611bbf60076108b0565b611bcb6006339061056f565b6112e5565b3390611bdc60076108b0565b91611c25611c13611c0d7f1902211de8f8348e4af0561b10e8e72dd71e80a34675440a511724250d2a17da93610563565b936106b6565b93611c1c610194565b91829182610449565b0390a3565b611c537f00000000000000000000000000000000000000000000000000000000000000006107e9565b6342966c6882823b15611d3057611c8992611c7e5f8094611c72610194565b96879586948593611411565b835260048301610449565b03925af18015611d2b57611cff575b50611cb6611caf82611caa60026108b0565b611305565b60026112e5565b611cc060026108b0565b7f8bc81353cf6671d259d22783e39ed930583c86f3f4cf7e981298e6a872dfb15d91611cf6611ced610194565b928392836119f1565b0390a15f611b95565b611d1e905f3d8111611d24575b611d1681836109e5565b810190611417565b5f611c98565b503d611d0c565b611449565b61140d565b611d559060203d8111611d5a575b611d4d81836109e5565b8101906119a1565b611b7b565b503d611d43565b611449565b5f7f416c726561647920726567697374657265640000000000000000000000000000910152565b611d9a6012602092610a80565b611da381611d66565b0190565b611dbc9060208101905f818303910152611d8d565b90565b15611dc657565b611dce610194565b62461bcd60e51b815280611de460048201611da7565b0390fd5b90611dfb611df4610194565b92836109e5565b565b611e0760c0611de8565b90565b90611e14906101fe565b9052565b90611e2290610735565b9052565b611e3090516101fe565b90565b611e3d9051610735565b90565b90611ecf60a06005611ed594611e635f8201611e5d5f8801611e26565b906112e5565b611e7c60018201611e7660208801611e26565b906112e5565b611e9560028201611e8f60408801611e26565b906112e5565b611eae60038201611ea860608801611e26565b906112e5565b611ec760048201611ec160808801611e26565b906112e5565b019201611e33565b906113d1565b565b90611ee191611e40565b565b600433611eef91610b9a565b600501611efb906108d1565b15611f0590610735565b611f0e90611dbf565b5f805f805f91600193611f1f611dfd565b95611f2990610fb1565b5f870190611f3691611e0a565b611f3f90610fb1565b6020860190611f4d91611e0a565b611f5690610fb1565b6040850190611f6491611e0a565b611f6d90610fb1565b6060840190611f7b91611e0a565b611f8490610fb1565b6080830190611f9291611e0a565b60a0820190611fa091611e18565b600433611fac91610b9a565b90611fb691611ed7565b337ff10ec97e920cde75887622583772c637595a40b1f7777c18e51ea36cd127475c90611fe290610563565b90611feb610194565b80611ff5816102c6565b0390a2565b612002612cb9565b61200a612034565b565b61202061201b61202592610fae565b610411565b6101a6565b90565b6120319061200c565b90565b6120456120405f612028565b612d23565b565b61204f611ffa565b565b5f90565b61206161206691610897565b61034b565b90565b6120739054612055565b90565b61207e612051565b506120885f612069565b90565b61209c90612097612cb9565b612120565b565b5f7f416c726561647920696e61637469766500000000000000000000000000000000910152565b6120d26010602092610a80565b6120db8161209e565b0190565b6120f49060208101905f8183039101526120c5565b90565b156120fe57565b612106610194565b62461bcd60e51b81528061211c600482016120df565b0390fd5b61213e6121396003612133818590610881565b016108d1565b6120f7565b6121555f600361214f818590610881565b016113d1565b61217f7f85a406c134e004f27c0b2cd0d0d951d7235374623df2bc40752d06597463a83f916106b6565b90612188610194565b80612192816102c6565b0390a2565b6121a09061208b565b565b5f7f416d6f756e74207a65726f000000000000000000000000000000000000000000910152565b6121d6600b602092610a80565b6121df816121a2565b0190565b6121f89060208101905f8183039101526121c9565b90565b1561220257565b61220a610194565b62461bcd60e51b815280612220600482016121e3565b0390fd5b6122408161223a6122345f610fb1565b916101fe565b116121fb565b6122697f00000000000000000000000000000000000000000000000000000000000000006107e9565b60206323b872dd9133906122995f61228030611972565b956122a48861228d610194565b98899788968795611411565b8552600485016119bf565b03925af1801561246d57612441575b506122d76122c9826122c3610430565b9061193d565b6122d1610d70565b90610f8c565b806122ea6122e45f610fb1565b916101fe565b11612336575b503361233161231f7f10221063d064b7f08df50a7b688426682343e6067582ebc0802467b91b9ac74192610563565b92612328610194565b91829182610449565b0390a2565b61235f7f00000000000000000000000000000000000000000000000000000000000000006107e9565b6342966c6882823b1561243c576123959261238a5f809461237e610194565b96879586948593611411565b835260048301610449565b03925af180156124375761240b575b506123c26123bb826123b660026108b0565b611305565b60026112e5565b6123cc60026108b0565b7f8bc81353cf6671d259d22783e39ed930583c86f3f4cf7e981298e6a872dfb15d916124026123f9610194565b928392836119f1565b0390a15f6122f0565b61242a905f3d8111612430575b61242281836109e5565b810190611417565b5f6123a4565b503d612418565b611449565b61140d565b6124619060203d8111612466575b61245981836109e5565b8101906119a1565b6122b3565b503d61244f565b611449565b9061248794939291612482612cb9565b6128ec565b565b5f7f436f757273652065786973747300000000000000000000000000000000000000910152565b6124bd600d602092610a80565b6124c681612489565b0190565b6124df9060208101905f8183039101526124b0565b90565b156124e957565b6124f1610194565b62461bcd60e51b815280612507600482016124ca565b0390fd5b90565b61252261251d6125279261250b565b610411565b6101fe565b90565b5f7f52657761726420746f6f20686967680000000000000000000000000000000000910152565b61255e600f602092610a80565b6125678161252a565b0190565b6125809060208101905f818303910152612551565b90565b1561258a57565b612592610194565b62461bcd60e51b8152806125a86004820161256b565b0390fd5b6125b660a0611de8565b90565b5f80fd5b67ffffffffffffffff81116125db576125d76020916109c7565b0190565b6109d1565b90825f939282370152565b909291926126006125fb826125bd565b611de8565b9381855260208501908284011161261c5761261a926125e0565b565b6125b9565b61262c9136916125eb565b90565b52565b5190565b601f602091010490565b1b90565b9190600861265f9102916126595f1984612640565b92612640565b9181191691161790565b919061267f61267a612687936106b6565b6112e2565b908354612644565b9055565b61269d91612697610f3e565b91612669565b565b5b8181106126ab575050565b806126b85f60019361268b565b016126a0565b9190601f81116126ce575b505050565b6126da6126ff93610925565b9060206126e684612636565b83019310612707575b6126f890612636565b019061269f565b5f80806126c9565b91506126f8819290506126ef565b90612725905f1990600802610347565b191690565b8161273491612715565b906002021790565b9061274681610a7c565b9067ffffffffffffffff82116128065761276a8261276485546108f2565b856126be565b602090601f831160011461279e5791809161278d935f92612792575b505061272a565b90555b565b90915001515f80612786565b601f198316916127ad85610925565b925f5b8181106127ee575091600293918560019694106127d4575b50505002019055612790565b6127e4910151601f841690612715565b90555f80806127c8565b919360206001819287870151815501950192016127b0565b6109d1565b906128159161273c565b565b9061288d608060046128939461283a5f82016128345f8801611e26565b906112e5565b6128536001820161284d60208801611e26565b906112e5565b61286c6002820161286660408801611e26565b906112e5565b6128856003820161287f60608801611e33565b906113d1565b019201612632565b9061280b565b565b9061289f91612817565b565b91906128bb816128b4816128c095610a80565b80956125e0565b6109c7565b0190565b916128e99391926128dc60408201945f830190610201565b60208185039101526128a1565b90565b909293916129b39061292561290d5f61290760038790610881565b016108b0565b61291f6129195f610fb1565b916101fe565b146124e2565b61294c8561294561293f69021e19e0c9bab240000061250e565b916101fe565b1115612583565b6129a261299984928790612994600161298b8c936129828c966129796129706125ac565b9b5f8d01611e0a565b60208b01611e0a565b60408901611e0a565b60608701611e18565b612621565b6080830161262f565b6129ae60038490610881565b612895565b6129cf6129c86129c360016108b0565b6113f1565b60016112e5565b91929092612a12612a007f05ee05dc0b49cd428cc85a05162161e8de9ece24e8775c852c4e3d116d36cd8e946106b6565b94612a09610194565b938493846128c4565b0390a2565b90612a2494939291612472565b565b612a3790612a32612cb9565b612ae1565b565b60207f6464726573730000000000000000000000000000000000000000000000000000917f4f776e61626c653a206e6577206f776e657220697320746865207a65726f20615f8201520152565b612a936026604092610a80565b612a9c81612a39565b0190565b612ab59060208101905f818303910152612a86565b90565b15612abf57565b612ac7610194565b62461bcd60e51b815280612add60048201612aa0565b0390fd5b612b0f90612b0a81612b03612afd612af85f612028565b6101b1565b916101b1565b1415612ab8565b612d23565b565b612b1a90612a26565b565b90612b2e91612b29612cb9565b612bb2565b565b5f7f4c6561726e6572206e6f74207265676973746572656400000000000000000000910152565b612b646016602092610a80565b612b6d81612b30565b0190565b612b869060208101905f818303910152612b57565b90565b15612b9057565b612b98610194565b62461bcd60e51b815280612bae60048201612b71565b0390fd5b612bd1612bcc6005612bc660048590610b9a565b016108d1565b612b89565b612be8825f612be260048590610b9a565b016112e5565b612c27612c157f08365a96b40b6cbebec894a18a30c982467e3672b492c273cbaf1c3cd82903c092610563565b92612c1e610194565b91829182610449565b0390a2565b90612c3691612b1c565b565b5f7f4f776e61626c653a2063616c6c6572206973206e6f7420746865206f776e6572910152565b612c6b60208092610a80565b612c7481612c38565b0190565b612c8d9060208101905f818303910152612c5f565b90565b15612c9757565b612c9f610194565b62461bcd60e51b815280612cb560048201612c78565b0390fd5b612ce3612cc4612076565b612cdd612cd7612cd2612d82565b6101b1565b916101b1565b14612c90565b565b90612cf660018060a01b03916112c7565b9181191691161790565b90565b90612d18612d13612d1f92610563565b612d00565b8254612ce5565b9055565b612d2c5f612069565b612d36825f612d03565b90612d6a612d647f8be0079c531659141344cd1fd0a4f28419497f9722a3daafe3b4186f6b6457e093610563565b91610563565b91612d73610194565b80612d7d816102c6565b0390a3565b612d8a612051565b50339056fea264697066735822122045a63051ffa69b7b9ec847c19ac6932b2b5602c14d308cbe6b6e50db7a03f53f64736f6c63430008180033","opcodes":"PUSH1 0xA0 PUSH1 0x40 MSTORE CALLVALUE PUSH3 0x63 JUMPI PUSH3 0x1E PUSH3 0x18 PUSH3 0x13C JUMP JUMPDEST PUSH3 0x26C JUMP JUMPDEST PUSH3 0x28 PUSH3 0x69 JUMP JUMPDEST PUSH2 0x2DC5 PUSH3 0x3EB DUP3 CODECOPY PUSH1 0x80 MLOAD DUP2 DUP2 DUP2 PUSH2 0x7C7 ADD MSTORE DUP2 DUP2 PUSH2 0x16C8 ADD MSTORE DUP2 DUP2 PUSH2 0x1B05 ADD MSTORE DUP2 DUP2 PUSH2 0x1C2F ADD MSTORE DUP2 DUP2 PUSH2 0x2245 ADD MSTORE PUSH2 0x233B ADD MSTORE PUSH2 0x2DC5 SWAP1 RETURN JUMPDEST PUSH3 0x6F JUMP JUMPDEST PUSH1 0x40 MLOAD SWAP1 JUMP JUMPDEST PUSH0 DUP1 REVERT JUMPDEST PUSH1 0x1F DUP1 NOT SWAP2 ADD AND SWAP1 JUMP JUMPDEST PUSH4 0x4E487B71 PUSH1 0xE0 SHL PUSH0 MSTORE PUSH1 0x41 PUSH1 0x4 MSTORE PUSH1 0x24 PUSH0 REVERT JUMPDEST SWAP1 PUSH3 0x9D SWAP1 PUSH3 0x73 JUMP JUMPDEST DUP2 ADD SWAP1 DUP2 LT PUSH1 0x1 DUP1 PUSH1 0x40 SHL SUB DUP3 GT OR PUSH3 0xB6 JUMPI PUSH1 0x40 MSTORE JUMP JUMPDEST PUSH3 0x7D JUMP JUMPDEST SWAP1 PUSH3 0xD3 PUSH3 0xCB PUSH3 0x69 JUMP JUMPDEST SWAP3 DUP4 PUSH3 0x91 JUMP JUMPDEST JUMP JUMPDEST PUSH0 DUP1 REVERT JUMPDEST PUSH1 0x1 DUP1 PUSH1 0xA0 SHL SUB AND SWAP1 JUMP JUMPDEST PUSH3 0xEF SWAP1 PUSH3 0xD9 JUMP JUMPDEST SWAP1 JUMP JUMPDEST PUSH3 0xFD DUP2 PUSH3 0xE4 JUMP JUMPDEST SUB PUSH3 0x105 JUMPI JUMP JUMPDEST PUSH0 DUP1 REVERT JUMPDEST SWAP1 POP MLOAD SWAP1 PUSH3 0x118 DUP3 PUSH3 0xF2 JUMP JUMPDEST JUMP JUMPDEST SWAP1 PUSH1 0x20 DUP3 DUP3 SUB SLT PUSH3 0x136 JUMPI PUSH3 0x133 SWAP2 PUSH0 ADD PUSH3 0x109 JUMP JUMPDEST SWAP1 JUMP JUMPDEST PUSH3 0xD5 JUMP JUMPDEST PUSH3 0x15F PUSH3 0x31B0 DUP1 CODESIZE SUB DUP1 PUSH3 0x153 DUP2 PUSH3 0xBC JUMP JUMPDEST SWAP3 DUP4 CODECOPY DUP2 ADD SWAP1 PUSH3 0x11A JUMP JUMPDEST SWAP1 JUMP JUMPDEST SWAP1 JUMP JUMPDEST SWAP1 JUMP JUMPDEST PUSH3 0x181 PUSH3 0x17B PUSH3 0x187 SWAP3 PUSH3 0x162 JUMP JUMPDEST PUSH3 0x165 JUMP JUMPDEST PUSH3 0xD9 JUMP JUMPDEST SWAP1 JUMP JUMPDEST PUSH3 0x195 SWAP1 PUSH3 0x168 JUMP JUMPDEST SWAP1 JUMP JUMPDEST PUSH1 0x20 SWAP2 DUP2 MSTORE ADD SWAP1 JUMP JUMPDEST PUSH0 PUSH32 0x546F6B656E2061646472657373207A65726F0000000000000000000000000000 SWAP2 ADD MSTORE JUMP JUMPDEST PUSH3 0x1D7 PUSH1 0x12 PUSH1 0x20 SWAP3 PUSH3 0x198 JUMP JUMPDEST PUSH3 0x1E2 DUP2 PUSH3 0x1A1 JUMP JUMPDEST ADD SWAP1 JUMP JUMPDEST PUSH3 0x1FD SWAP1 PUSH1 0x20 DUP2 ADD SWAP1 PUSH0 DUP2 DUP4 SUB SWAP2 ADD MSTORE PUSH3 0x1C8 JUMP JUMPDEST SWAP1 JUMP JUMPDEST ISZERO PUSH3 0x208 JUMPI JUMP JUMPDEST PUSH3 0x212 PUSH3 0x69 JUMP JUMPDEST PUSH3 0x461BCD PUSH1 0xE5 SHL DUP2 MSTORE DUP1 PUSH3 0x22A PUSH1 0x4 DUP3 ADD PUSH3 0x1E6 JUMP JUMPDEST SUB SWAP1 REVERT JUMPDEST PUSH3 0x247 PUSH3 0x241 PUSH3 0x24D SWAP3 PUSH3 0xD9 JUMP JUMPDEST PUSH3 0x165 JUMP JUMPDEST PUSH3 0xD9 JUMP JUMPDEST SWAP1 JUMP JUMPDEST PUSH3 0x25B SWAP1 PUSH3 0x22E JUMP JUMPDEST SWAP1 JUMP JUMPDEST PUSH3 0x269 SWAP1 PUSH3 0x250 JUMP JUMPDEST SWAP1 JUMP JUMPDEST PUSH3 0x2AE SWAP1 PUSH3 0x27B PUSH3 0x2B3 JUMP JUMPDEST PUSH3 0x2A8 DUP2 PUSH3 0x2A0 PUSH3 0x299 PUSH3 0x293 PUSH0 PUSH3 0x18A JUMP JUMPDEST PUSH3 0xE4 JUMP JUMPDEST SWAP2 PUSH3 0xE4 JUMP JUMPDEST EQ ISZERO PUSH3 0x200 JUMP JUMPDEST PUSH3 0x25E JUMP JUMPDEST PUSH1 0x80 MSTORE JUMP JUMPDEST PUSH3 0x2C7 PUSH3 0x2C1 PUSH3 0x2CD JUMP JUMPDEST PUSH3 0x37F JUMP JUMPDEST JUMP JUMPDEST PUSH0 SWAP1 JUMP JUMPDEST PUSH3 0x2D7 PUSH3 0x2C9 JUMP JUMPDEST POP CALLER SWAP1 JUMP JUMPDEST PUSH0 SHR SWAP1 JUMP JUMPDEST PUSH1 0x1 DUP1 PUSH1 0xA0 SHL SUB AND SWAP1 JUMP JUMPDEST PUSH3 0x2FB PUSH3 0x301 SWAP2 PUSH3 0x2DC JUMP JUMPDEST PUSH3 0x2E1 JUMP JUMPDEST SWAP1 JUMP JUMPDEST PUSH3 0x310 SWAP1 SLOAD PUSH3 0x2EC JUMP JUMPDEST SWAP1 JUMP JUMPDEST PUSH0 SHL SWAP1 JUMP JUMPDEST SWAP1 PUSH3 0x32B PUSH1 0x1 DUP1 PUSH1 0xA0 SHL SUB SWAP2 PUSH3 0x313 JUMP JUMPDEST SWAP2 DUP2 NOT AND SWAP2 AND OR SWAP1 JUMP JUMPDEST PUSH3 0x340 SWAP1 PUSH3 0x22E JUMP JUMPDEST SWAP1 JUMP JUMPDEST PUSH3 0x34E SWAP1 PUSH3 0x335 JUMP JUMPDEST SWAP1 JUMP JUMPDEST SWAP1 JUMP JUMPDEST SWAP1 PUSH3 0x36E PUSH3 0x368 PUSH3 0x376 SWAP3 PUSH3 0x343 JUMP JUMPDEST PUSH3 0x351 JUMP JUMPDEST DUP3 SLOAD PUSH3 0x318 JUMP JUMPDEST SWAP1 SSTORE JUMP JUMPDEST PUSH0 ADD SWAP1 JUMP JUMPDEST PUSH3 0x38A PUSH0 PUSH3 0x304 JUMP JUMPDEST PUSH3 0x396 DUP3 PUSH0 PUSH3 0x354 JUMP JUMPDEST SWAP1 PUSH3 0x3CE PUSH3 0x3C7 PUSH32 0x8BE0079C531659141344CD1FD0A4F28419497F9722A3DAAFE3B4186F6B6457E0 SWAP4 PUSH3 0x343 JUMP JUMPDEST SWAP2 PUSH3 0x343 JUMP JUMPDEST SWAP2 PUSH3 0x3D9 PUSH3 0x69 JUMP JUMPDEST DUP1 PUSH3 0x3E5 DUP2 PUSH3 0x37A JUMP JUMPDEST SUB SWAP1 LOG3 JUMP INVALID PUSH1 0x80 PUSH1 0x40 MSTORE PUSH1 0x4 CALLDATASIZE LT ISZERO PUSH2 0x15 JUMPI JUMPDEST CALLDATASIZE PUSH2 0xF3A JUMPI STOP JUMPDEST PUSH2 0x1F PUSH0 CALLDATALOAD PUSH2 0x18E JUMP JUMPDEST DUP1 PUSH4 0xCE12CF0 EQ PUSH2 0x189 JUMPI DUP1 PUSH4 0xD3B4292 EQ PUSH2 0x184 JUMPI DUP1 PUSH4 0x2D9FAC52 EQ PUSH2 0x17F JUMPI DUP1 PUSH4 0x30838FBE EQ PUSH2 0x17A JUMPI DUP1 PUSH4 0x3A9A4530 EQ PUSH2 0x175 JUMPI DUP1 PUSH4 0x3F7C7271 EQ PUSH2 0x170 JUMPI DUP1 PUSH4 0x5A764FFE EQ PUSH2 0x16B JUMPI DUP1 PUSH4 0x62B18A9F EQ PUSH2 0x166 JUMPI DUP1 PUSH4 0x66055159 EQ PUSH2 0x161 JUMPI DUP1 PUSH4 0x68F0DB05 EQ PUSH2 0x15C JUMPI DUP1 PUSH4 0x715018A6 EQ PUSH2 0x157 JUMPI DUP1 PUSH4 0x8D878889 EQ PUSH2 0x152 JUMPI DUP1 PUSH4 0x8DA5CB5B EQ PUSH2 0x14D JUMPI DUP1 PUSH4 0x96F979D2 EQ PUSH2 0x148 JUMPI DUP1 PUSH4 0xAC85495D EQ PUSH2 0x143 JUMPI DUP1 PUSH4 0xBBE15627 EQ PUSH2 0x13E JUMPI DUP1 PUSH4 0xC6F7D43F EQ PUSH2 0x139 JUMPI DUP1 PUSH4 0xD89135CD EQ PUSH2 0x134 JUMPI DUP1 PUSH4 0xE1A45218 EQ PUSH2 0x12F JUMPI DUP1 PUSH4 0xE2EAB483 EQ PUSH2 0x12A JUMPI DUP1 PUSH4 0xE38E8A1B EQ PUSH2 0x125 JUMPI DUP1 PUSH4 0xF2FDE38B EQ PUSH2 0x120 JUMPI PUSH4 0xF67D377D SUB PUSH2 0xE JUMPI PUSH2 0xF06 JUMP JUMPDEST PUSH2 0xED3 JUMP JUMPDEST PUSH2 0xE9C JUMP JUMPDEST PUSH2 0xDBE JUMP JUMPDEST PUSH2 0xD89 JUMP JUMPDEST PUSH2 0xD1C JUMP JUMPDEST PUSH2 0xCD8 JUMP JUMPDEST PUSH2 0xC65 JUMP JUMPDEST PUSH2 0xB67 JUMP JUMPDEST PUSH2 0xB2E JUMP JUMPDEST PUSH2 0x84C JUMP JUMPDEST PUSH2 0x817 JUMP JUMPDEST PUSH2 0x792 JUMP JUMPDEST PUSH2 0x75C JUMP JUMPDEST PUSH2 0x63E JUMP JUMPDEST PUSH2 0x5FC JUMP JUMPDEST PUSH2 0x5C7 JUMP JUMPDEST PUSH2 0x508 JUMP JUMPDEST PUSH2 0x4D3 JUMP JUMPDEST PUSH2 0x45E JUMP JUMPDEST PUSH2 0x3CA JUMP JUMPDEST PUSH2 0x2CB JUMP JUMPDEST PUSH2 0x24C JUMP JUMPDEST PUSH1 0xE0 SHR SWAP1 JUMP JUMPDEST PUSH1 0x40 MLOAD SWAP1 JUMP JUMPDEST PUSH0 DUP1 REVERT JUMPDEST PUSH0 DUP1 REVERT JUMPDEST PUSH0 DUP1 REVERT JUMPDEST PUSH1 0x1 DUP1 PUSH1 0xA0 SHL SUB AND SWAP1 JUMP JUMPDEST PUSH2 0x1BA SWAP1 PUSH2 0x1A6 JUMP JUMPDEST SWAP1 JUMP JUMPDEST PUSH2 0x1C6 DUP2 PUSH2 0x1B1 JUMP JUMPDEST SUB PUSH2 0x1CD JUMPI JUMP JUMPDEST PUSH0 DUP1 REVERT JUMPDEST SWAP1 POP CALLDATALOAD SWAP1 PUSH2 0x1DE DUP3 PUSH2 0x1BD JUMP JUMPDEST JUMP JUMPDEST SWAP1 PUSH1 0x20 DUP3 DUP3 SUB SLT PUSH2 0x1F9 JUMPI PUSH2 0x1F6 SWAP2 PUSH0 ADD PUSH2 0x1D1 JUMP JUMPDEST SWAP1 JUMP JUMPDEST PUSH2 0x19E JUMP JUMPDEST SWAP1 JUMP JUMPDEST PUSH2 0x20A SWAP1 PUSH2 0x1FE JUMP JUMPDEST SWAP1 MSTORE JUMP JUMPDEST PUSH2 0x243 PUSH2 0x24A SWAP5 PUSH2 0x239 PUSH1 0x60 SWAP5 SWAP9 SWAP8 SWAP6 PUSH2 0x22F PUSH1 0x80 DUP7 ADD SWAP11 PUSH0 DUP8 ADD SWAP1 PUSH2 0x201 JUMP JUMPDEST PUSH1 0x20 DUP6 ADD SWAP1 PUSH2 0x201 JUMP JUMPDEST PUSH1 0x40 DUP4 ADD SWAP1 PUSH2 0x201 JUMP JUMPDEST ADD SWAP1 PUSH2 0x201 JUMP JUMPDEST JUMP JUMPDEST CALLVALUE PUSH2 0x280 JUMPI PUSH2 0x27C PUSH2 0x267 PUSH2 0x262 CALLDATASIZE PUSH1 0x4 PUSH2 0x1E0 JUMP JUMPDEST PUSH2 0xFF2 JUMP JUMPDEST SWAP1 PUSH2 0x273 SWAP5 SWAP3 SWAP5 PUSH2 0x194 JUMP JUMPDEST SWAP5 DUP6 SWAP5 DUP6 PUSH2 0x20E JUMP JUMPDEST SUB SWAP1 RETURN JUMPDEST PUSH2 0x19A JUMP JUMPDEST PUSH2 0x28E DUP2 PUSH2 0x1FE JUMP JUMPDEST SUB PUSH2 0x295 JUMPI JUMP JUMPDEST PUSH0 DUP1 REVERT JUMPDEST SWAP1 POP CALLDATALOAD SWAP1 PUSH2 0x2A6 DUP3 PUSH2 0x285 JUMP JUMPDEST JUMP JUMPDEST SWAP1 PUSH1 0x20 DUP3 DUP3 SUB SLT PUSH2 0x2C1 JUMPI PUSH2 0x2BE SWAP2 PUSH0 ADD PUSH2 0x299 JUMP JUMPDEST SWAP1 JUMP JUMPDEST PUSH2 0x19E JUMP JUMPDEST PUSH0 ADD SWAP1 JUMP JUMPDEST CALLVALUE PUSH2 0x2F9 JUMPI PUSH2 0x2E3 PUSH2 0x2DE CALLDATASIZE PUSH1 0x4 PUSH2 0x2A8 JUMP JUMPDEST PUSH2 0x1459 JUMP JUMPDEST PUSH2 0x2EB PUSH2 0x194 JUMP JUMPDEST DUP1 PUSH2 0x2F5 DUP2 PUSH2 0x2C6 JUMP JUMPDEST SUB SWAP1 RETURN JUMPDEST PUSH2 0x19A JUMP JUMPDEST PUSH4 0x4E487B71 PUSH1 0xE0 SHL PUSH0 MSTORE PUSH1 0x32 PUSH1 0x4 MSTORE PUSH1 0x24 PUSH0 REVERT JUMPDEST SLOAD SWAP1 JUMP JUMPDEST PUSH0 MSTORE PUSH1 0x20 PUSH0 KECCAK256 SWAP1 JUMP JUMPDEST PUSH2 0x328 DUP2 PUSH2 0x312 JUMP JUMPDEST DUP3 LT ISZERO PUSH2 0x342 JUMPI PUSH2 0x33A PUSH1 0x1 SWAP2 PUSH2 0x316 JUMP JUMPDEST SWAP2 MUL ADD SWAP1 PUSH0 SWAP1 JUMP JUMPDEST PUSH2 0x2FE JUMP JUMPDEST SHR SWAP1 JUMP JUMPDEST PUSH1 0x1 DUP1 PUSH1 0xA0 SHL SUB AND SWAP1 JUMP JUMPDEST PUSH2 0x366 SWAP1 PUSH1 0x8 PUSH2 0x36B SWAP4 MUL PUSH2 0x347 JUMP JUMPDEST PUSH2 0x34B JUMP JUMPDEST SWAP1 JUMP JUMPDEST SWAP1 PUSH2 0x379 SWAP2 SLOAD PUSH2 0x356 JUMP JUMPDEST SWAP1 JUMP JUMPDEST PUSH1 0x8 PUSH2 0x387 DUP2 PUSH2 0x312 JUMP JUMPDEST DUP3 LT ISZERO PUSH2 0x3A4 JUMPI PUSH2 0x3A1 SWAP2 PUSH2 0x39B SWAP2 PUSH2 0x31F JUMP JUMPDEST SWAP1 PUSH2 0x36E JUMP JUMPDEST SWAP1 JUMP JUMPDEST PUSH0 DUP1 REVERT JUMPDEST PUSH2 0x3B1 SWAP1 PUSH2 0x1B1 JUMP JUMPDEST SWAP1 MSTORE JUMP JUMPDEST SWAP2 SWAP1 PUSH2 0x3C8 SWAP1 PUSH0 PUSH1 0x20 DUP6 ADD SWAP5 ADD SWAP1 PUSH2 0x3A8 JUMP JUMPDEST JUMP JUMPDEST CALLVALUE PUSH2 0x3FA JUMPI PUSH2 0x3F6 PUSH2 0x3E5 PUSH2 0x3E0 CALLDATASIZE PUSH1 0x4 PUSH2 0x2A8 JUMP JUMPDEST PUSH2 0x37C JUMP JUMPDEST PUSH2 0x3ED PUSH2 0x194 JUMP JUMPDEST SWAP2 DUP3 SWAP2 DUP3 PUSH2 0x3B5 JUMP JUMPDEST SUB SWAP1 RETURN JUMPDEST PUSH2 0x19A JUMP JUMPDEST PUSH0 SWAP2 SUB SLT PUSH2 0x409 JUMPI JUMP JUMPDEST PUSH2 0x19E JUMP JUMPDEST SWAP1 JUMP JUMPDEST SWAP1 JUMP JUMPDEST PUSH2 0x428 PUSH2 0x423 PUSH2 0x42D SWAP3 PUSH2 0x40E JUMP JUMPDEST PUSH2 0x411 JUMP JUMPDEST PUSH2 0x1FE JUMP JUMPDEST SWAP1 JUMP JUMPDEST PUSH2 0x43B PUSH2 0xBB8 PUSH2 0x414 JUMP JUMPDEST SWAP1 JUMP JUMPDEST PUSH2 0x446 PUSH2 0x430 JUMP JUMPDEST SWAP1 JUMP JUMPDEST SWAP2 SWAP1 PUSH2 0x45C SWAP1 PUSH0 PUSH1 0x20 DUP6 ADD SWAP5 ADD SWAP1 PUSH2 0x201 JUMP JUMPDEST JUMP JUMPDEST CALLVALUE PUSH2 0x48E JUMPI PUSH2 0x46E CALLDATASIZE PUSH1 0x4 PUSH2 0x3FF JUMP JUMPDEST PUSH2 0x48A PUSH2 0x479 PUSH2 0x43E JUMP JUMPDEST PUSH2 0x481 PUSH2 0x194 JUMP JUMPDEST SWAP2 DUP3 SWAP2 DUP3 PUSH2 0x449 JUMP JUMPDEST SUB SWAP1 RETURN JUMPDEST PUSH2 0x19A JUMP JUMPDEST SWAP1 JUMP JUMPDEST PUSH2 0x4AA PUSH2 0x4A5 PUSH2 0x4AF SWAP3 PUSH2 0x493 JUMP JUMPDEST PUSH2 0x411 JUMP JUMPDEST PUSH2 0x1FE JUMP JUMPDEST SWAP1 JUMP JUMPDEST PUSH2 0x4C5 PUSH10 0xA968163F0A57B400000 PUSH2 0x496 JUMP JUMPDEST SWAP1 JUMP JUMPDEST PUSH2 0x4D0 PUSH2 0x4B2 JUMP JUMPDEST SWAP1 JUMP JUMPDEST CALLVALUE PUSH2 0x503 JUMPI PUSH2 0x4E3 CALLDATASIZE PUSH1 0x4 PUSH2 0x3FF JUMP JUMPDEST PUSH2 0x4FF PUSH2 0x4EE PUSH2 0x4C8 JUMP JUMPDEST PUSH2 0x4F6 PUSH2 0x194 JUMP JUMPDEST SWAP2 DUP3 SWAP2 DUP3 PUSH2 0x449 JUMP JUMPDEST SUB SWAP1 RETURN JUMPDEST PUSH2 0x19A JUMP JUMPDEST CALLVALUE PUSH2 0x536 JUMPI PUSH2 0x520 PUSH2 0x51B CALLDATASIZE PUSH1 0x4 PUSH2 0x2A8 JUMP JUMPDEST PUSH2 0x1A14 JUMP JUMPDEST PUSH2 0x528 PUSH2 0x194 JUMP JUMPDEST DUP1 PUSH2 0x532 DUP2 PUSH2 0x2C6 JUMP JUMPDEST SUB SWAP1 RETURN JUMPDEST PUSH2 0x19A JUMP JUMPDEST PUSH2 0x54F PUSH2 0x54A PUSH2 0x554 SWAP3 PUSH2 0x1A6 JUMP JUMPDEST PUSH2 0x411 JUMP JUMPDEST PUSH2 0x1A6 JUMP JUMPDEST SWAP1 JUMP JUMPDEST PUSH2 0x560 SWAP1 PUSH2 0x53B JUMP JUMPDEST SWAP1 JUMP JUMPDEST PUSH2 0x56C SWAP1 PUSH2 0x557 JUMP JUMPDEST SWAP1 JUMP JUMPDEST SWAP1 PUSH2 0x579 SWAP1 PUSH2 0x563 JUMP JUMPDEST PUSH0 MSTORE PUSH1 0x20 MSTORE PUSH1 0x40 PUSH0 KECCAK256 SWAP1 JUMP JUMPDEST SWAP1 JUMP JUMPDEST PUSH2 0x598 SWAP1 PUSH1 0x8 PUSH2 0x59D SWAP4 MUL PUSH2 0x347 JUMP JUMPDEST PUSH2 0x585 JUMP JUMPDEST SWAP1 JUMP JUMPDEST SWAP1 PUSH2 0x5AB SWAP2 SLOAD PUSH2 0x588 JUMP JUMPDEST SWAP1 JUMP JUMPDEST PUSH2 0x5C4 SWAP1 PUSH2 0x5BF PUSH1 0x6 SWAP2 PUSH0 SWAP3 PUSH2 0x56F JUMP JUMPDEST PUSH2 0x5A0 JUMP JUMPDEST SWAP1 JUMP JUMPDEST CALLVALUE PUSH2 0x5F7 JUMPI PUSH2 0x5F3 PUSH2 0x5E2 PUSH2 0x5DD CALLDATASIZE PUSH1 0x4 PUSH2 0x1E0 JUMP JUMPDEST PUSH2 0x5AE JUMP JUMPDEST PUSH2 0x5EA PUSH2 0x194 JUMP JUMPDEST SWAP2 DUP3 SWAP2 DUP3 PUSH2 0x449 JUMP JUMPDEST SUB SWAP1 RETURN JUMPDEST PUSH2 0x19A JUMP JUMPDEST CALLVALUE PUSH2 0x62A JUMPI PUSH2 0x60C CALLDATASIZE PUSH1 0x4 PUSH2 0x3FF JUMP JUMPDEST PUSH2 0x614 PUSH2 0x1EE3 JUMP JUMPDEST PUSH2 0x61C PUSH2 0x194 JUMP JUMPDEST DUP1 PUSH2 0x626 DUP2 PUSH2 0x2C6 JUMP JUMPDEST SUB SWAP1 RETURN JUMPDEST PUSH2 0x19A JUMP JUMPDEST PUSH2 0x63B PUSH1 0x1 PUSH0 SWAP1 PUSH2 0x5A0 JUMP JUMPDEST SWAP1 JUMP JUMPDEST CALLVALUE PUSH2 0x66E JUMPI PUSH2 0x64E CALLDATASIZE PUSH1 0x4 PUSH2 0x3FF JUMP JUMPDEST PUSH2 0x66A PUSH2 0x659 PUSH2 0x62F JUMP JUMPDEST PUSH2 0x661 PUSH2 0x194 JUMP JUMPDEST SWAP2 DUP3 SWAP2 DUP3 PUSH2 0x449 JUMP JUMPDEST SUB SWAP1 RETURN JUMPDEST PUSH2 0x19A JUMP JUMPDEST SWAP2 SWAP1 PUSH1 0x40 DUP4 DUP3 SUB SLT PUSH2 0x69B JUMPI DUP1 PUSH2 0x68F PUSH2 0x698 SWAP3 PUSH0 DUP7 ADD PUSH2 0x1D1 JUMP JUMPDEST SWAP4 PUSH1 0x20 ADD PUSH2 0x299 JUMP JUMPDEST SWAP1 JUMP JUMPDEST PUSH2 0x19E JUMP JUMPDEST SWAP1 PUSH2 0x6AA SWAP1 PUSH2 0x563 JUMP JUMPDEST PUSH0 MSTORE PUSH1 0x20 MSTORE PUSH1 0x40 PUSH0 KECCAK256 SWAP1 JUMP JUMPDEST PUSH2 0x6CA PUSH2 0x6C5 PUSH2 0x6CF SWAP3 PUSH2 0x1FE JUMP JUMPDEST PUSH2 0x411 JUMP JUMPDEST PUSH2 0x1FE JUMP JUMPDEST SWAP1 JUMP JUMPDEST SWAP1 PUSH2 0x6DC SWAP1 PUSH2 0x6B6 JUMP JUMPDEST PUSH0 MSTORE PUSH1 0x20 MSTORE PUSH1 0x40 PUSH0 KECCAK256 SWAP1 JUMP JUMPDEST PUSH1 0xFF AND SWAP1 JUMP JUMPDEST PUSH2 0x6FE SWAP1 PUSH1 0x8 PUSH2 0x703 SWAP4 MUL PUSH2 0x347 JUMP JUMPDEST PUSH2 0x6E8 JUMP JUMPDEST SWAP1 JUMP JUMPDEST SWAP1 PUSH2 0x711 SWAP2 SLOAD PUSH2 0x6EE JUMP JUMPDEST SWAP1 JUMP JUMPDEST PUSH2 0x72D PUSH2 0x732 SWAP3 PUSH2 0x728 PUSH1 0x5 SWAP4 PUSH0 SWAP5 PUSH2 0x6A0 JUMP JUMPDEST PUSH2 0x6D2 JUMP JUMPDEST PUSH2 0x706 JUMP JUMPDEST SWAP1 JUMP JUMPDEST ISZERO ISZERO SWAP1 JUMP JUMPDEST PUSH2 0x743 SWAP1 PUSH2 0x735 JUMP JUMPDEST SWAP1 MSTORE JUMP JUMPDEST SWAP2 SWAP1 PUSH2 0x75A SWAP1 PUSH0 PUSH1 0x20 DUP6 ADD SWAP5 ADD SWAP1 PUSH2 0x73A JUMP JUMPDEST JUMP JUMPDEST CALLVALUE PUSH2 0x78D JUMPI PUSH2 0x789 PUSH2 0x778 PUSH2 0x772 CALLDATASIZE PUSH1 0x4 PUSH2 0x673 JUMP JUMPDEST SWAP1 PUSH2 0x714 JUMP JUMPDEST PUSH2 0x780 PUSH2 0x194 JUMP JUMPDEST SWAP2 DUP3 SWAP2 DUP3 PUSH2 0x747 JUMP JUMPDEST SUB SWAP1 RETURN JUMPDEST PUSH2 0x19A JUMP JUMPDEST CALLVALUE PUSH2 0x7C0 JUMPI PUSH2 0x7A2 CALLDATASIZE PUSH1 0x4 PUSH2 0x3FF JUMP JUMPDEST PUSH2 0x7AA PUSH2 0x2047 JUMP JUMPDEST PUSH2 0x7B2 PUSH2 0x194 JUMP JUMPDEST DUP1 PUSH2 0x7BC DUP2 PUSH2 0x2C6 JUMP JUMPDEST SUB SWAP1 RETURN JUMPDEST PUSH2 0x19A JUMP JUMPDEST PUSH32 0x0 SWAP1 JUMP JUMPDEST PUSH2 0x7F2 SWAP1 PUSH2 0x557 JUMP JUMPDEST SWAP1 JUMP JUMPDEST PUSH2 0x7FE SWAP1 PUSH2 0x7E9 JUMP JUMPDEST SWAP1 MSTORE JUMP JUMPDEST SWAP2 SWAP1 PUSH2 0x815 SWAP1 PUSH0 PUSH1 0x20 DUP6 ADD SWAP5 ADD SWAP1 PUSH2 0x7F5 JUMP JUMPDEST JUMP JUMPDEST CALLVALUE PUSH2 0x847 JUMPI PUSH2 0x827 CALLDATASIZE PUSH1 0x4 PUSH2 0x3FF JUMP JUMPDEST PUSH2 0x843 PUSH2 0x832 PUSH2 0x7C5 JUMP JUMPDEST PUSH2 0x83A PUSH2 0x194 JUMP JUMPDEST SWAP2 DUP3 SWAP2 DUP3 PUSH2 0x802 JUMP JUMPDEST SUB SWAP1 RETURN JUMPDEST PUSH2 0x19A JUMP JUMPDEST CALLVALUE PUSH2 0x87C JUMPI PUSH2 0x85C CALLDATASIZE PUSH1 0x4 PUSH2 0x3FF JUMP JUMPDEST PUSH2 0x878 PUSH2 0x867 PUSH2 0x2076 JUMP JUMPDEST PUSH2 0x86F PUSH2 0x194 JUMP JUMPDEST SWAP2 DUP3 SWAP2 DUP3 PUSH2 0x3B5 JUMP JUMPDEST SUB SWAP1 RETURN JUMPDEST PUSH2 0x19A JUMP JUMPDEST SWAP1 PUSH2 0x88B SWAP1 PUSH2 0x6B6 JUMP JUMPDEST PUSH0 MSTORE PUSH1 0x20 MSTORE PUSH1 0x40 PUSH0 KECCAK256 SWAP1 JUMP JUMPDEST PUSH0 SHR SWAP1 JUMP JUMPDEST PUSH2 0x8A8 PUSH2 0x8AD SWAP2 PUSH2 0x897 JUMP JUMPDEST PUSH2 0x585 JUMP JUMPDEST SWAP1 JUMP JUMPDEST PUSH2 0x8BA SWAP1 SLOAD PUSH2 0x89C JUMP JUMPDEST SWAP1 JUMP JUMPDEST PUSH2 0x8C9 PUSH2 0x8CE SWAP2 PUSH2 0x897 JUMP JUMPDEST PUSH2 0x6E8 JUMP JUMPDEST SWAP1 JUMP JUMPDEST PUSH2 0x8DB SWAP1 SLOAD PUSH2 0x8BD JUMP JUMPDEST SWAP1 JUMP JUMPDEST PUSH4 0x4E487B71 PUSH1 0xE0 SHL PUSH0 MSTORE PUSH1 0x22 PUSH1 0x4 MSTORE PUSH1 0x24 PUSH0 REVERT JUMPDEST SWAP1 PUSH1 0x1 PUSH1 0x2 DUP4 DIV SWAP3 AND DUP1 ISZERO PUSH2 0x912 JUMPI JUMPDEST PUSH1 0x20 DUP4 LT EQ PUSH2 0x90D JUMPI JUMP JUMPDEST PUSH2 0x8DE JUMP JUMPDEST SWAP2 PUSH1 0x7F AND SWAP2 PUSH2 0x902 JUMP JUMPDEST PUSH1 0x20 SWAP2 DUP2 MSTORE ADD SWAP1 JUMP JUMPDEST PUSH0 MSTORE PUSH1 0x20 PUSH0 KECCAK256 SWAP1 JUMP JUMPDEST SWAP1 PUSH0 SWAP3 SWAP2 DUP1 SLOAD SWAP1 PUSH2 0x948 PUSH2 0x941 DUP4 PUSH2 0x8F2 JUMP JUMPDEST DUP1 SWAP5 PUSH2 0x91C JUMP JUMPDEST SWAP2 PUSH1 0x1 DUP2 AND SWAP1 DUP2 PUSH0 EQ PUSH2 0x99F JUMPI POP PUSH1 0x1 EQ PUSH2 0x963 JUMPI JUMPDEST POP POP POP JUMP JUMPDEST PUSH2 0x970 SWAP2 SWAP3 SWAP4 SWAP5 POP PUSH2 0x925 JUMP JUMPDEST SWAP2 PUSH0 SWAP3 JUMPDEST DUP2 DUP5 LT PUSH2 0x987 JUMPI POP POP ADD SWAP1 PUSH0 DUP1 DUP1 PUSH2 0x95E JUMP JUMPDEST PUSH1 0x1 DUP2 PUSH1 0x20 SWAP3 SWAP6 SWAP4 SWAP6 SLOAD DUP5 DUP7 ADD MSTORE ADD SWAP2 ADD SWAP3 SWAP1 PUSH2 0x974 JUMP JUMPDEST SWAP3 SWAP5 SWAP6 POP POP POP PUSH1 0xFF NOT AND DUP3 MSTORE ISZERO ISZERO PUSH1 0x20 MUL ADD SWAP1 PUSH0 DUP1 DUP1 PUSH2 0x95E JUMP JUMPDEST SWAP1 PUSH2 0x9C4 SWAP2 PUSH2 0x92E JUMP JUMPDEST SWAP1 JUMP JUMPDEST PUSH1 0x1F DUP1 NOT SWAP2 ADD AND SWAP1 JUMP JUMPDEST PUSH4 0x4E487B71 PUSH1 0xE0 SHL PUSH0 MSTORE PUSH1 0x41 PUSH1 0x4 MSTORE PUSH1 0x24 PUSH0 REVERT JUMPDEST SWAP1 PUSH2 0x9EF SWAP1 PUSH2 0x9C7 JUMP JUMPDEST DUP2 ADD SWAP1 DUP2 LT PUSH8 0xFFFFFFFFFFFFFFFF DUP3 GT OR PUSH2 0xA09 JUMPI PUSH1 0x40 MSTORE JUMP JUMPDEST PUSH2 0x9D1 JUMP JUMPDEST SWAP1 PUSH2 0xA2E PUSH2 0xA27 SWAP3 PUSH2 0xA1E PUSH2 0x194 JUMP JUMPDEST SWAP4 DUP5 DUP1 SWAP3 PUSH2 0x9BA JUMP JUMPDEST SUB DUP4 PUSH2 0x9E5 JUMP JUMPDEST JUMP JUMPDEST PUSH2 0xA3B SWAP1 PUSH1 0x3 PUSH2 0x881 JUMP JUMPDEST PUSH2 0xA46 PUSH0 DUP3 ADD PUSH2 0x8B0 JUMP JUMPDEST SWAP2 PUSH2 0xA53 PUSH1 0x1 DUP4 ADD PUSH2 0x8B0 JUMP JUMPDEST SWAP2 PUSH2 0xA60 PUSH1 0x2 DUP3 ADD PUSH2 0x8B0 JUMP JUMPDEST SWAP2 PUSH2 0xA79 PUSH1 0x4 PUSH2 0xA72 PUSH1 0x3 DUP6 ADD PUSH2 0x8D1 JUMP JUMPDEST SWAP4 ADD PUSH2 0xA0E JUMP JUMPDEST SWAP1 JUMP JUMPDEST MLOAD SWAP1 JUMP JUMPDEST PUSH1 0x20 SWAP2 DUP2 MSTORE ADD SWAP1 JUMP JUMPDEST PUSH0 JUMPDEST DUP4 DUP2 LT PUSH2 0xA9B JUMPI POP POP SWAP1 PUSH0 SWAP2 ADD MSTORE JUMP JUMPDEST DUP1 PUSH1 0x20 SWAP2 DUP4 ADD MLOAD DUP2 DUP6 ADD MSTORE ADD PUSH2 0xA8B JUMP JUMPDEST PUSH2 0xACB PUSH2 0xAD4 PUSH1 0x20 SWAP4 PUSH2 0xAD9 SWAP4 PUSH2 0xAC2 DUP2 PUSH2 0xA7C JUMP JUMPDEST SWAP4 DUP5 DUP1 SWAP4 PUSH2 0xA80 JUMP JUMPDEST SWAP6 DUP7 SWAP2 ADD PUSH2 0xA89 JUMP JUMPDEST PUSH2 0x9C7 JUMP JUMPDEST ADD SWAP1 JUMP JUMPDEST SWAP2 SWAP4 PUSH2 0xB14 PUSH2 0xB2B SWAP7 SWAP5 PUSH2 0xB0A PUSH2 0xB1E SWAP5 SWAP8 PUSH2 0xB00 PUSH1 0xA0 DUP9 ADD SWAP10 PUSH0 DUP10 ADD SWAP1 PUSH2 0x201 JUMP JUMPDEST PUSH1 0x20 DUP8 ADD SWAP1 PUSH2 0x201 JUMP JUMPDEST PUSH1 0x40 DUP6 ADD SWAP1 PUSH2 0x201 JUMP JUMPDEST PUSH1 0x60 DUP4 ADD SWAP1 PUSH2 0x73A JUMP JUMPDEST PUSH1 0x80 DUP2 DUP5 SUB SWAP2 ADD MSTORE PUSH2 0xAAC JUMP JUMPDEST SWAP1 JUMP JUMPDEST CALLVALUE PUSH2 0xB62 JUMPI PUSH2 0xB5E PUSH2 0xB49 PUSH2 0xB44 CALLDATASIZE PUSH1 0x4 PUSH2 0x2A8 JUMP JUMPDEST PUSH2 0xA30 JUMP JUMPDEST SWAP2 PUSH2 0xB55 SWAP6 SWAP4 SWAP6 PUSH2 0x194 JUMP JUMPDEST SWAP6 DUP7 SWAP6 DUP7 PUSH2 0xADD JUMP JUMPDEST SUB SWAP1 RETURN JUMPDEST PUSH2 0x19A JUMP JUMPDEST CALLVALUE PUSH2 0xB95 JUMPI PUSH2 0xB7F PUSH2 0xB7A CALLDATASIZE PUSH1 0x4 PUSH2 0x2A8 JUMP JUMPDEST PUSH2 0x2197 JUMP JUMPDEST PUSH2 0xB87 PUSH2 0x194 JUMP JUMPDEST DUP1 PUSH2 0xB91 DUP2 PUSH2 0x2C6 JUMP JUMPDEST SUB SWAP1 RETURN JUMPDEST PUSH2 0x19A JUMP JUMPDEST SWAP1 PUSH2 0xBA4 SWAP1 PUSH2 0x563 JUMP JUMPDEST PUSH0 MSTORE PUSH1 0x20 MSTORE PUSH1 0x40 PUSH0 KECCAK256 SWAP1 JUMP JUMPDEST PUSH2 0xBBB SWAP1 PUSH1 0x4 PUSH2 0xB9A JUMP JUMPDEST SWAP1 PUSH2 0xBC7 PUSH0 DUP4 ADD PUSH2 0x8B0 JUMP JUMPDEST SWAP2 PUSH2 0xBD4 PUSH1 0x1 DUP3 ADD PUSH2 0x8B0 JUMP JUMPDEST SWAP2 PUSH2 0xBE1 PUSH1 0x2 DUP4 ADD PUSH2 0x8B0 JUMP JUMPDEST SWAP2 PUSH2 0xBEE PUSH1 0x3 DUP3 ADD PUSH2 0x8B0 JUMP JUMPDEST SWAP2 PUSH2 0xC07 PUSH1 0x5 PUSH2 0xC00 PUSH1 0x4 DUP6 ADD PUSH2 0x8B0 JUMP JUMPDEST SWAP4 ADD PUSH2 0x8D1 JUMP JUMPDEST SWAP1 JUMP JUMPDEST SWAP2 SWAP5 PUSH2 0xC52 PUSH2 0xC5C SWAP3 SWAP9 SWAP8 SWAP6 PUSH2 0xC48 PUSH1 0xA0 SWAP7 PUSH2 0xC3E PUSH2 0xC63 SWAP11 PUSH2 0xC34 PUSH1 0xC0 DUP11 ADD SWAP15 PUSH0 DUP12 ADD SWAP1 PUSH2 0x201 JUMP JUMPDEST PUSH1 0x20 DUP10 ADD SWAP1 PUSH2 0x201 JUMP JUMPDEST PUSH1 0x40 DUP8 ADD SWAP1 PUSH2 0x201 JUMP JUMPDEST PUSH1 0x60 DUP6 ADD SWAP1 PUSH2 0x201 JUMP JUMPDEST PUSH1 0x80 DUP4 ADD SWAP1 PUSH2 0x201 JUMP JUMPDEST ADD SWAP1 PUSH2 0x73A JUMP JUMPDEST JUMP JUMPDEST CALLVALUE PUSH2 0xC9C JUMPI PUSH2 0xC98 PUSH2 0xC80 PUSH2 0xC7B CALLDATASIZE PUSH1 0x4 PUSH2 0x1E0 JUMP JUMPDEST PUSH2 0xBB0 JUMP JUMPDEST SWAP3 PUSH2 0xC8F SWAP7 SWAP5 SWAP7 SWAP3 SWAP2 SWAP3 PUSH2 0x194 JUMP JUMPDEST SWAP7 DUP8 SWAP7 DUP8 PUSH2 0xC0A JUMP JUMPDEST SUB SWAP1 RETURN JUMPDEST PUSH2 0x19A JUMP JUMPDEST SWAP1 JUMP JUMPDEST PUSH2 0xCB8 PUSH2 0xCB3 PUSH2 0xCBD SWAP3 PUSH2 0xCA1 JUMP JUMPDEST PUSH2 0x411 JUMP JUMPDEST PUSH2 0x1FE JUMP JUMPDEST SWAP1 JUMP JUMPDEST PUSH2 0xCCA PUSH1 0x1 PUSH2 0xCA4 JUMP JUMPDEST SWAP1 JUMP JUMPDEST PUSH2 0xCD5 PUSH2 0xCC0 JUMP JUMPDEST SWAP1 JUMP JUMPDEST CALLVALUE PUSH2 0xD08 JUMPI PUSH2 0xCE8 CALLDATASIZE PUSH1 0x4 PUSH2 0x3FF JUMP JUMPDEST PUSH2 0xD04 PUSH2 0xCF3 PUSH2 0xCCD JUMP JUMPDEST PUSH2 0xCFB PUSH2 0x194 JUMP JUMPDEST SWAP2 DUP3 SWAP2 DUP3 PUSH2 0x449 JUMP JUMPDEST SUB SWAP1 RETURN JUMPDEST PUSH2 0x19A JUMP JUMPDEST PUSH2 0xD19 PUSH1 0x2 PUSH0 SWAP1 PUSH2 0x5A0 JUMP JUMPDEST SWAP1 JUMP JUMPDEST CALLVALUE PUSH2 0xD4C JUMPI PUSH2 0xD2C CALLDATASIZE PUSH1 0x4 PUSH2 0x3FF JUMP JUMPDEST PUSH2 0xD48 PUSH2 0xD37 PUSH2 0xD0D JUMP JUMPDEST PUSH2 0xD3F PUSH2 0x194 JUMP JUMPDEST SWAP2 DUP3 SWAP2 DUP3 PUSH2 0x449 JUMP JUMPDEST SUB SWAP1 RETURN JUMPDEST PUSH2 0x19A JUMP JUMPDEST SWAP1 JUMP JUMPDEST PUSH2 0xD68 PUSH2 0xD63 PUSH2 0xD6D SWAP3 PUSH2 0xD51 JUMP JUMPDEST PUSH2 0x411 JUMP JUMPDEST PUSH2 0x1FE JUMP JUMPDEST SWAP1 JUMP JUMPDEST PUSH2 0xD7B PUSH2 0x2710 PUSH2 0xD54 JUMP JUMPDEST SWAP1 JUMP JUMPDEST PUSH2 0xD86 PUSH2 0xD70 JUMP JUMPDEST SWAP1 JUMP JUMPDEST CALLVALUE PUSH2 0xDB9 JUMPI PUSH2 0xD99 CALLDATASIZE PUSH1 0x4 PUSH2 0x3FF JUMP JUMPDEST PUSH2 0xDB5 PUSH2 0xDA4 PUSH2 0xD7E JUMP JUMPDEST PUSH2 0xDAC PUSH2 0x194 JUMP JUMPDEST SWAP2 DUP3 SWAP2 DUP3 PUSH2 0x449 JUMP JUMPDEST SUB SWAP1 RETURN JUMPDEST PUSH2 0x19A JUMP JUMPDEST CALLVALUE PUSH2 0xDEC JUMPI PUSH2 0xDD6 PUSH2 0xDD1 CALLDATASIZE PUSH1 0x4 PUSH2 0x2A8 JUMP JUMPDEST PUSH2 0x2224 JUMP JUMPDEST PUSH2 0xDDE PUSH2 0x194 JUMP JUMPDEST DUP1 PUSH2 0xDE8 DUP2 PUSH2 0x2C6 JUMP JUMPDEST SUB SWAP1 RETURN JUMPDEST PUSH2 0x19A JUMP JUMPDEST PUSH0 DUP1 REVERT JUMPDEST PUSH0 DUP1 REVERT JUMPDEST PUSH0 DUP1 REVERT JUMPDEST SWAP1 SWAP2 DUP3 PUSH1 0x1F DUP4 ADD SLT ISZERO PUSH2 0xE37 JUMPI DUP2 CALLDATALOAD SWAP2 PUSH8 0xFFFFFFFFFFFFFFFF DUP4 GT PUSH2 0xE32 JUMPI PUSH1 0x20 ADD SWAP3 PUSH1 0x1 DUP4 MUL DUP5 ADD GT PUSH2 0xE2D JUMPI JUMP JUMPDEST PUSH2 0xDF9 JUMP JUMPDEST PUSH2 0xDF5 JUMP JUMPDEST PUSH2 0xDF1 JUMP JUMPDEST SWAP1 PUSH1 0x80 DUP3 DUP3 SUB SLT PUSH2 0xE97 JUMPI PUSH2 0xE53 DUP2 PUSH0 DUP5 ADD PUSH2 0x299 JUMP JUMPDEST SWAP3 PUSH2 0xE61 DUP3 PUSH1 0x20 DUP6 ADD PUSH2 0x299 JUMP JUMPDEST SWAP3 PUSH2 0xE6F DUP4 PUSH1 0x40 DUP4 ADD PUSH2 0x299 JUMP JUMPDEST SWAP3 PUSH1 0x60 DUP3 ADD CALLDATALOAD PUSH8 0xFFFFFFFFFFFFFFFF DUP2 GT PUSH2 0xE92 JUMPI PUSH2 0xE8E SWAP3 ADD PUSH2 0xDFD JUMP JUMPDEST SWAP1 SWAP2 JUMP JUMPDEST PUSH2 0x1A2 JUMP JUMPDEST PUSH2 0x19E JUMP JUMPDEST CALLVALUE PUSH2 0xECE JUMPI PUSH2 0xEB8 PUSH2 0xEAF CALLDATASIZE PUSH1 0x4 PUSH2 0xE3C JUMP JUMPDEST SWAP4 SWAP3 SWAP1 SWAP3 PUSH2 0x2A17 JUMP JUMPDEST PUSH2 0xEC0 PUSH2 0x194 JUMP JUMPDEST DUP1 PUSH2 0xECA DUP2 PUSH2 0x2C6 JUMP JUMPDEST SUB SWAP1 RETURN JUMPDEST PUSH2 0x19A JUMP JUMPDEST CALLVALUE PUSH2 0xF01 JUMPI PUSH2 0xEEB PUSH2 0xEE6 CALLDATASIZE PUSH1 0x4 PUSH2 0x1E0 JUMP JUMPDEST PUSH2 0x2B11 JUMP JUMPDEST PUSH2 0xEF3 PUSH2 0x194 JUMP JUMPDEST DUP1 PUSH2 0xEFD DUP2 PUSH2 0x2C6 JUMP JUMPDEST SUB SWAP1 RETURN JUMPDEST PUSH2 0x19A JUMP JUMPDEST CALLVALUE PUSH2 0xF35 JUMPI PUSH2 0xF1F PUSH2 0xF19 CALLDATASIZE PUSH1 0x4 PUSH2 0x673 JUMP JUMPDEST SWAP1 PUSH2 0x2C2C JUMP JUMPDEST PUSH2 0xF27 PUSH2 0x194 JUMP JUMPDEST DUP1 PUSH2 0xF31 DUP2 PUSH2 0x2C6 JUMP JUMPDEST SUB SWAP1 RETURN JUMPDEST PUSH2 0x19A JUMP JUMPDEST PUSH0 DUP1 REVERT JUMPDEST PUSH0 SWAP1 JUMP JUMPDEST SWAP1 JUMP JUMPDEST SWAP1 JUMP JUMPDEST PUSH2 0xF5C PUSH2 0xF57 PUSH2 0xF61 SWAP3 PUSH2 0xF45 JUMP JUMPDEST PUSH2 0x411 JUMP JUMPDEST PUSH2 0x1FE JUMP JUMPDEST SWAP1 JUMP JUMPDEST PUSH4 0x4E487B71 PUSH1 0xE0 SHL PUSH0 MSTORE PUSH1 0x12 PUSH1 0x4 MSTORE PUSH1 0x24 PUSH0 REVERT JUMPDEST PUSH4 0x4E487B71 PUSH1 0xE0 SHL PUSH0 MSTORE PUSH1 0x11 PUSH1 0x4 MSTORE PUSH1 0x24 PUSH0 REVERT JUMPDEST PUSH2 0xF98 PUSH2 0xF9E SWAP2 PUSH2 0x1FE JUMP JUMPDEST SWAP2 PUSH2 0x1FE JUMP JUMPDEST SWAP1 DUP2 ISZERO PUSH2 0xFA9 JUMPI DIV SWAP1 JUMP JUMPDEST PUSH2 0xF64 JUMP JUMPDEST SWAP1 JUMP JUMPDEST PUSH2 0xFC5 PUSH2 0xFC0 PUSH2 0xFCA SWAP3 PUSH2 0xFAE JUMP JUMPDEST PUSH2 0x411 JUMP JUMPDEST PUSH2 0x1FE JUMP JUMPDEST SWAP1 JUMP JUMPDEST PUSH2 0xFDC PUSH2 0xFE2 SWAP2 SWAP4 SWAP3 SWAP4 PUSH2 0x1FE JUMP JUMPDEST SWAP3 PUSH2 0x1FE JUMP JUMPDEST DUP3 SUB SWAP2 DUP3 GT PUSH2 0xFED JUMPI JUMP JUMPDEST PUSH2 0xF78 JUMP JUMPDEST PUSH2 0x1024 PUSH2 0x1029 SWAP2 PUSH2 0x1001 PUSH2 0xF3E JUMP JUMPDEST POP PUSH2 0x100A PUSH2 0xF3E JUMP JUMPDEST POP PUSH2 0x1013 PUSH2 0xF3E JUMP JUMPDEST POP PUSH2 0x101C PUSH2 0xF3E JUMP JUMPDEST POP PUSH1 0x4 PUSH2 0xB9A JUMP JUMPDEST PUSH2 0xF42 JUMP JUMPDEST SWAP1 PUSH2 0x1040 TIMESTAMP PUSH2 0x103A PUSH3 0x15180 PUSH2 0xF48 JUMP JUMPDEST SWAP1 PUSH2 0xF8C JUMP JUMPDEST PUSH2 0x105D PUSH2 0x1057 PUSH2 0x1052 PUSH1 0x4 DUP7 ADD PUSH2 0x8B0 JUMP JUMPDEST PUSH2 0x1FE JUMP JUMPDEST SWAP2 PUSH2 0x1FE JUMP JUMPDEST GT PUSH0 EQ PUSH2 0x10AB JUMPI PUSH2 0x106D PUSH0 PUSH2 0xFB1 JUMP JUMPDEST JUMPDEST SWAP1 PUSH2 0x107A PUSH0 DUP5 ADD PUSH2 0x8B0 JUMP JUMPDEST SWAP1 PUSH2 0x10A4 PUSH2 0x1096 PUSH1 0x2 PUSH2 0x108F PUSH1 0x1 DUP9 ADD PUSH2 0x8B0 JUMP JUMPDEST SWAP7 ADD PUSH2 0x8B0 JUMP JUMPDEST SWAP4 PUSH2 0x109F PUSH2 0x4B2 JUMP JUMPDEST PUSH2 0xFCD JUMP JUMPDEST SWAP2 SWAP4 SWAP3 SWAP2 SWAP1 JUMP JUMPDEST PUSH2 0x10B7 PUSH1 0x3 DUP4 ADD PUSH2 0x8B0 JUMP JUMPDEST PUSH2 0x106E JUMP JUMPDEST SWAP1 JUMP JUMPDEST PUSH0 PUSH32 0x436F7572736520696E6163746976650000000000000000000000000000000000 SWAP2 ADD MSTORE JUMP JUMPDEST PUSH2 0x10F3 PUSH1 0xF PUSH1 0x20 SWAP3 PUSH2 0xA80 JUMP JUMPDEST PUSH2 0x10FC DUP2 PUSH2 0x10BF JUMP JUMPDEST ADD SWAP1 JUMP JUMPDEST PUSH2 0x1115 SWAP1 PUSH1 0x20 DUP2 ADD SWAP1 PUSH0 DUP2 DUP4 SUB SWAP2 ADD MSTORE PUSH2 0x10E6 JUMP JUMPDEST SWAP1 JUMP JUMPDEST ISZERO PUSH2 0x111F JUMPI JUMP JUMPDEST PUSH2 0x1127 PUSH2 0x194 JUMP JUMPDEST PUSH3 0x461BCD PUSH1 0xE5 SHL DUP2 MSTORE DUP1 PUSH2 0x113D PUSH1 0x4 DUP3 ADD PUSH2 0x1100 JUMP JUMPDEST SUB SWAP1 REVERT JUMPDEST PUSH0 PUSH32 0x416C726561647920636F6D706C65746564000000000000000000000000000000 SWAP2 ADD MSTORE JUMP JUMPDEST PUSH2 0x1175 PUSH1 0x11 PUSH1 0x20 SWAP3 PUSH2 0xA80 JUMP JUMPDEST PUSH2 0x117E DUP2 PUSH2 0x1141 JUMP JUMPDEST ADD SWAP1 JUMP JUMPDEST PUSH2 0x1197 SWAP1 PUSH1 0x20 DUP2 ADD SWAP1 PUSH0 DUP2 DUP4 SUB SWAP2 ADD MSTORE PUSH2 0x1168 JUMP JUMPDEST SWAP1 JUMP JUMPDEST ISZERO PUSH2 0x11A1 JUMPI JUMP JUMPDEST PUSH2 0x11A9 PUSH2 0x194 JUMP JUMPDEST PUSH3 0x461BCD PUSH1 0xE5 SHL DUP2 MSTORE DUP1 PUSH2 0x11BF PUSH1 0x4 DUP3 ADD PUSH2 0x1182 JUMP JUMPDEST SUB SWAP1 REVERT JUMPDEST PUSH0 PUSH32 0x4E6F742072656769737465726564000000000000000000000000000000000000 SWAP2 ADD MSTORE JUMP JUMPDEST PUSH2 0x11F7 PUSH1 0xE PUSH1 0x20 SWAP3 PUSH2 0xA80 JUMP JUMPDEST PUSH2 0x1200 DUP2 PUSH2 0x11C3 JUMP JUMPDEST ADD SWAP1 JUMP JUMPDEST PUSH2 0x1219 SWAP1 PUSH1 0x20 DUP2 ADD SWAP1 PUSH0 DUP2 DUP4 SUB SWAP2 ADD MSTORE PUSH2 0x11EA JUMP JUMPDEST SWAP1 JUMP JUMPDEST ISZERO PUSH2 0x1223 JUMPI JUMP JUMPDEST PUSH2 0x122B PUSH2 0x194 JUMP JUMPDEST PUSH3 0x461BCD PUSH1 0xE5 SHL DUP2 MSTORE DUP1 PUSH2 0x1241 PUSH1 0x4 DUP3 ADD PUSH2 0x1204 JUMP JUMPDEST SUB SWAP1 REVERT JUMPDEST PUSH0 PUSH32 0x4B59432072657175697265640000000000000000000000000000000000000000 SWAP2 ADD MSTORE JUMP JUMPDEST PUSH2 0x1279 PUSH1 0xC PUSH1 0x20 SWAP3 PUSH2 0xA80 JUMP JUMPDEST PUSH2 0x1282 DUP2 PUSH2 0x1245 JUMP JUMPDEST ADD SWAP1 JUMP JUMPDEST PUSH2 0x129B SWAP1 PUSH1 0x20 DUP2 ADD SWAP1 PUSH0 DUP2 DUP4 SUB SWAP2 ADD MSTORE PUSH2 0x126C JUMP JUMPDEST SWAP1 JUMP JUMPDEST ISZERO PUSH2 0x12A5 JUMPI JUMP JUMPDEST PUSH2 0x12AD PUSH2 0x194 JUMP JUMPDEST PUSH3 0x461BCD PUSH1 0xE5 SHL DUP2 MSTORE DUP1 PUSH2 0x12C3 PUSH1 0x4 DUP3 ADD PUSH2 0x1286 JUMP JUMPDEST SUB SWAP1 REVERT JUMPDEST PUSH0 SHL SWAP1 JUMP JUMPDEST SWAP1 PUSH2 0x12D8 PUSH0 NOT SWAP2 PUSH2 0x12C7 JUMP JUMPDEST SWAP2 DUP2 NOT AND SWAP2 AND OR SWAP1 JUMP JUMPDEST SWAP1 JUMP JUMPDEST SWAP1 PUSH2 0x12FA PUSH2 0x12F5 PUSH2 0x1301 SWAP3 PUSH2 0x6B6 JUMP JUMPDEST PUSH2 0x12E2 JUMP JUMPDEST DUP3 SLOAD PUSH2 0x12CC JUMP JUMPDEST SWAP1 SSTORE JUMP JUMPDEST PUSH2 0x1314 PUSH2 0x131A SWAP2 SWAP4 SWAP3 SWAP4 PUSH2 0x1FE JUMP JUMPDEST SWAP3 PUSH2 0x1FE JUMP JUMPDEST DUP3 ADD DUP1 SWAP3 GT PUSH2 0x1325 JUMPI JUMP JUMPDEST PUSH2 0xF78 JUMP JUMPDEST PUSH0 PUSH32 0x4461696C79207265776172642063617020726561636865640000000000000000 SWAP2 ADD MSTORE JUMP JUMPDEST PUSH2 0x135E PUSH1 0x18 PUSH1 0x20 SWAP3 PUSH2 0xA80 JUMP JUMPDEST PUSH2 0x1367 DUP2 PUSH2 0x132A JUMP JUMPDEST ADD SWAP1 JUMP JUMPDEST PUSH2 0x1380 SWAP1 PUSH1 0x20 DUP2 ADD SWAP1 PUSH0 DUP2 DUP4 SUB SWAP2 ADD MSTORE PUSH2 0x1351 JUMP JUMPDEST SWAP1 JUMP JUMPDEST ISZERO PUSH2 0x138A JUMPI JUMP JUMPDEST PUSH2 0x1392 PUSH2 0x194 JUMP JUMPDEST PUSH3 0x461BCD PUSH1 0xE5 SHL DUP2 MSTORE DUP1 PUSH2 0x13A8 PUSH1 0x4 DUP3 ADD PUSH2 0x136B JUMP JUMPDEST SUB SWAP1 REVERT JUMPDEST SWAP1 PUSH2 0x13B8 PUSH1 0xFF SWAP2 PUSH2 0x12C7 JUMP JUMPDEST SWAP2 DUP2 NOT AND SWAP2 AND OR SWAP1 JUMP JUMPDEST PUSH2 0x13CB SWAP1 PUSH2 0x735 JUMP JUMPDEST SWAP1 JUMP JUMPDEST SWAP1 JUMP JUMPDEST SWAP1 PUSH2 0x13E6 PUSH2 0x13E1 PUSH2 0x13ED SWAP3 PUSH2 0x13C2 JUMP JUMPDEST PUSH2 0x13CE JUMP JUMPDEST DUP3 SLOAD PUSH2 0x13AC JUMP JUMPDEST SWAP1 SSTORE JUMP JUMPDEST PUSH2 0x13FA SWAP1 PUSH2 0x1FE JUMP JUMPDEST PUSH0 NOT DUP2 EQ PUSH2 0x1408 JUMPI PUSH1 0x1 ADD SWAP1 JUMP JUMPDEST PUSH2 0xF78 JUMP JUMPDEST PUSH0 DUP1 REVERT JUMPDEST PUSH1 0xE0 SHL SWAP1 JUMP JUMPDEST PUSH0 SWAP2 SUB SLT PUSH2 0x1421 JUMPI JUMP JUMPDEST PUSH2 0x19E JUMP JUMPDEST SWAP2 PUSH1 0x20 PUSH2 0x1447 SWAP3 SWAP5 SWAP4 PUSH2 0x1440 PUSH1 0x40 DUP3 ADD SWAP7 PUSH0 DUP4 ADD SWAP1 PUSH2 0x3A8 JUMP JUMPDEST ADD SWAP1 PUSH2 0x201 JUMP JUMPDEST JUMP JUMPDEST PUSH2 0x1451 PUSH2 0x194 JUMP JUMPDEST RETURNDATASIZE PUSH0 DUP3 RETURNDATACOPY RETURNDATASIZE SWAP1 REVERT JUMPDEST PUSH2 0x146D PUSH2 0x1468 PUSH1 0x3 DUP4 SWAP1 PUSH2 0x881 JUMP JUMPDEST PUSH2 0x10BC JUMP JUMPDEST PUSH2 0x1481 PUSH2 0x147C PUSH1 0x3 DUP4 ADD PUSH2 0x8D1 JUMP JUMPDEST PUSH2 0x1118 JUMP JUMPDEST PUSH2 0x14B0 PUSH2 0x14AB PUSH2 0x14A5 PUSH2 0x14A0 PUSH2 0x1499 PUSH1 0x5 CALLER SWAP1 PUSH2 0x6A0 JUMP JUMPDEST DUP7 SWAP1 PUSH2 0x6D2 JUMP JUMPDEST PUSH2 0x8D1 JUMP JUMPDEST ISZERO PUSH2 0x735 JUMP JUMPDEST PUSH2 0x119A JUMP JUMPDEST PUSH2 0x14CF PUSH2 0x14CA PUSH1 0x5 PUSH2 0x14C4 PUSH1 0x4 CALLER SWAP1 PUSH2 0xB9A JUMP JUMPDEST ADD PUSH2 0x8D1 JUMP JUMPDEST PUSH2 0x121C JUMP JUMPDEST PUSH2 0x1508 PUSH2 0x14E8 PUSH0 PUSH2 0x14E2 PUSH1 0x4 CALLER SWAP1 PUSH2 0xB9A JUMP JUMPDEST ADD PUSH2 0x8B0 JUMP JUMPDEST PUSH2 0x1501 PUSH2 0x14FB PUSH2 0x14F6 PUSH2 0xCC0 JUMP JUMPDEST PUSH2 0x1FE JUMP JUMPDEST SWAP2 PUSH2 0x1FE JUMP JUMPDEST LT ISZERO PUSH2 0x129E JUMP JUMPDEST PUSH2 0x151E TIMESTAMP PUSH2 0x1518 PUSH3 0x15180 PUSH2 0xF48 JUMP JUMPDEST SWAP1 PUSH2 0xF8C JUMP JUMPDEST DUP1 PUSH2 0x1546 PUSH2 0x1540 PUSH2 0x153B PUSH1 0x4 PUSH2 0x1535 DUP2 CALLER SWAP1 PUSH2 0xB9A JUMP JUMPDEST ADD PUSH2 0x8B0 JUMP JUMPDEST PUSH2 0x1FE JUMP JUMPDEST SWAP2 PUSH2 0x1FE JUMP JUMPDEST GT PUSH2 0x177A JUMPI JUMPDEST POP PUSH2 0x159C PUSH2 0x157C PUSH2 0x156A PUSH1 0x3 PUSH2 0x1564 PUSH1 0x4 CALLER SWAP1 PUSH2 0xB9A JUMP JUMPDEST ADD PUSH2 0x8B0 JUMP JUMPDEST PUSH2 0x1576 PUSH1 0x1 DUP6 ADD PUSH2 0x8B0 JUMP JUMPDEST SWAP1 PUSH2 0x1305 JUMP JUMPDEST PUSH2 0x1595 PUSH2 0x158F PUSH2 0x158A PUSH2 0x4B2 JUMP JUMPDEST PUSH2 0x1FE JUMP JUMPDEST SWAP2 PUSH2 0x1FE JUMP JUMPDEST GT ISZERO PUSH2 0x1383 JUMP JUMPDEST PUSH2 0x15BC PUSH1 0x1 PUSH2 0x15B7 PUSH2 0x15B0 PUSH1 0x5 CALLER SWAP1 PUSH2 0x6A0 JUMP JUMPDEST DUP6 SWAP1 PUSH2 0x6D2 JUMP JUMPDEST PUSH2 0x13D1 JUMP JUMPDEST PUSH2 0x15E5 PUSH1 0x2 PUSH2 0x15CD PUSH1 0x4 CALLER SWAP1 PUSH2 0xB9A JUMP JUMPDEST ADD PUSH2 0x15DF PUSH2 0x15DA DUP3 PUSH2 0x8B0 JUMP JUMPDEST PUSH2 0x13F1 JUMP JUMPDEST SWAP1 PUSH2 0x12E5 JUMP JUMPDEST PUSH2 0x161B PUSH2 0x15F4 PUSH1 0x1 DUP4 ADD PUSH2 0x8B0 JUMP JUMPDEST PUSH2 0x1615 PUSH1 0x3 PUSH2 0x1605 PUSH1 0x4 CALLER SWAP1 PUSH2 0xB9A JUMP JUMPDEST ADD SWAP2 PUSH2 0x1610 DUP4 PUSH2 0x8B0 JUMP JUMPDEST PUSH2 0x1305 JUMP JUMPDEST SWAP1 PUSH2 0x12E5 JUMP JUMPDEST PUSH2 0x1651 PUSH2 0x162A PUSH1 0x1 DUP4 ADD PUSH2 0x8B0 JUMP JUMPDEST PUSH2 0x164B PUSH1 0x1 PUSH2 0x163B PUSH1 0x4 CALLER SWAP1 PUSH2 0xB9A JUMP JUMPDEST ADD SWAP2 PUSH2 0x1646 DUP4 PUSH2 0x8B0 JUMP JUMPDEST PUSH2 0x1305 JUMP JUMPDEST SWAP1 PUSH2 0x12E5 JUMP JUMPDEST PUSH2 0x165D PUSH1 0x1 DUP3 ADD PUSH2 0x8B0 JUMP JUMPDEST PUSH2 0x166F PUSH2 0x1669 PUSH0 PUSH2 0xFB1 JUMP JUMPDEST SWAP2 PUSH2 0x1FE JUMP JUMPDEST GT PUSH2 0x16C3 JUMPI JUMPDEST POP CALLER SWAP1 PUSH2 0x16AB PUSH2 0x16A5 PUSH32 0x4B85F119A65C9AB344D9A4D007A895C9A738E08054FEE095494567187C45EA86 SWAP4 PUSH2 0x563 JUMP JUMPDEST SWAP2 PUSH2 0x6B6 JUMP JUMPDEST SWAP2 PUSH2 0x16B4 PUSH2 0x194 JUMP JUMPDEST DUP1 PUSH2 0x16BE DUP2 PUSH2 0x2C6 JUMP JUMPDEST SUB SWAP1 LOG3 JUMP JUMPDEST PUSH2 0x16EC PUSH32 0x0 PUSH2 0x7E9 JUMP JUMPDEST SWAP1 PUSH4 0x40C10F19 SWAP1 PUSH2 0x1700 PUSH1 0x1 CALLER SWAP3 ADD PUSH2 0x8B0 JUMP JUMPDEST SWAP3 DUP1 EXTCODESIZE ISZERO PUSH2 0x1775 JUMPI PUSH2 0x1725 PUSH0 DUP1 SWAP5 PUSH2 0x1730 PUSH2 0x1719 PUSH2 0x194 JUMP JUMPDEST SWAP8 DUP9 SWAP7 DUP8 SWAP6 DUP7 SWAP5 PUSH2 0x1411 JUMP JUMPDEST DUP5 MSTORE PUSH1 0x4 DUP5 ADD PUSH2 0x1426 JUMP JUMPDEST SUB SWAP3 GAS CALL DUP1 ISZERO PUSH2 0x1770 JUMPI PUSH2 0x1744 JUMPI JUMPDEST PUSH2 0x1675 JUMP JUMPDEST PUSH2 0x1763 SWAP1 PUSH0 RETURNDATASIZE DUP2 GT PUSH2 0x1769 JUMPI JUMPDEST PUSH2 0x175B DUP2 DUP4 PUSH2 0x9E5 JUMP JUMPDEST DUP2 ADD SWAP1 PUSH2 0x1417 JUMP JUMPDEST PUSH0 PUSH2 0x173F JUMP JUMPDEST POP RETURNDATASIZE PUSH2 0x1751 JUMP JUMPDEST PUSH2 0x1449 JUMP JUMPDEST PUSH2 0x140D JUMP JUMPDEST PUSH2 0x17B1 SWAP1 PUSH2 0x179E PUSH2 0x178A PUSH0 PUSH2 0xFB1 JUMP JUMPDEST PUSH1 0x3 PUSH2 0x1798 PUSH1 0x4 CALLER SWAP1 PUSH2 0xB9A JUMP JUMPDEST ADD PUSH2 0x12E5 JUMP JUMPDEST PUSH1 0x4 PUSH2 0x17AB DUP2 CALLER SWAP1 PUSH2 0xB9A JUMP JUMPDEST ADD PUSH2 0x12E5 JUMP JUMPDEST PUSH0 PUSH2 0x154C JUMP JUMPDEST PUSH0 PUSH32 0x436F75727365206E6F7420636F6D706C65746564000000000000000000000000 SWAP2 ADD MSTORE JUMP JUMPDEST PUSH2 0x17EB PUSH1 0x14 PUSH1 0x20 SWAP3 PUSH2 0xA80 JUMP JUMPDEST PUSH2 0x17F4 DUP2 PUSH2 0x17B7 JUMP JUMPDEST ADD SWAP1 JUMP JUMPDEST PUSH2 0x180D SWAP1 PUSH1 0x20 DUP2 ADD SWAP1 PUSH0 DUP2 DUP4 SUB SWAP2 ADD MSTORE PUSH2 0x17DE JUMP JUMPDEST SWAP1 JUMP JUMPDEST ISZERO PUSH2 0x1817 JUMPI JUMP JUMPDEST PUSH2 0x181F PUSH2 0x194 JUMP JUMPDEST PUSH3 0x461BCD PUSH1 0xE5 SHL DUP2 MSTORE DUP1 PUSH2 0x1835 PUSH1 0x4 DUP3 ADD PUSH2 0x17F8 JUMP JUMPDEST SUB SWAP1 REVERT JUMPDEST PUSH0 PUSH32 0x416C72656164792063726564656E7469616C6564000000000000000000000000 SWAP2 ADD MSTORE JUMP JUMPDEST PUSH2 0x186D PUSH1 0x14 PUSH1 0x20 SWAP3 PUSH2 0xA80 JUMP JUMPDEST PUSH2 0x1876 DUP2 PUSH2 0x1839 JUMP JUMPDEST ADD SWAP1 JUMP JUMPDEST PUSH2 0x188F SWAP1 PUSH1 0x20 DUP2 ADD SWAP1 PUSH0 DUP2 DUP4 SUB SWAP2 ADD MSTORE PUSH2 0x1860 JUMP JUMPDEST SWAP1 JUMP JUMPDEST ISZERO PUSH2 0x1899 JUMPI JUMP JUMPDEST PUSH2 0x18A1 PUSH2 0x194 JUMP JUMPDEST PUSH3 0x461BCD PUSH1 0xE5 SHL DUP2 MSTORE DUP1 PUSH2 0x18B7 PUSH1 0x4 DUP3 ADD PUSH2 0x187A JUMP JUMPDEST SUB SWAP1 REVERT JUMPDEST PUSH0 PUSH32 0x4E6F207072696365207365740000000000000000000000000000000000000000 SWAP2 ADD MSTORE JUMP JUMPDEST PUSH2 0x18EF PUSH1 0xC PUSH1 0x20 SWAP3 PUSH2 0xA80 JUMP JUMPDEST PUSH2 0x18F8 DUP2 PUSH2 0x18BB JUMP JUMPDEST ADD SWAP1 JUMP JUMPDEST PUSH2 0x1911 SWAP1 PUSH1 0x20 DUP2 ADD SWAP1 PUSH0 DUP2 DUP4 SUB SWAP2 ADD MSTORE PUSH2 0x18E2 JUMP JUMPDEST SWAP1 JUMP JUMPDEST ISZERO PUSH2 0x191B JUMPI JUMP JUMPDEST PUSH2 0x1923 PUSH2 0x194 JUMP JUMPDEST PUSH3 0x461BCD PUSH1 0xE5 SHL DUP2 MSTORE DUP1 PUSH2 0x1939 PUSH1 0x4 DUP3 ADD PUSH2 0x18FC JUMP JUMPDEST SUB SWAP1 REVERT JUMPDEST PUSH2 0x194C PUSH2 0x1952 SWAP2 SWAP4 SWAP3 SWAP4 PUSH2 0x1FE JUMP JUMPDEST SWAP3 PUSH2 0x1FE JUMP JUMPDEST SWAP2 PUSH2 0x195E DUP4 DUP3 MUL PUSH2 0x1FE JUMP JUMPDEST SWAP3 DUP2 DUP5 DIV EQ SWAP1 ISZERO OR ISZERO PUSH2 0x196D JUMPI JUMP JUMPDEST PUSH2 0xF78 JUMP JUMPDEST PUSH2 0x197B SWAP1 PUSH2 0x557 JUMP JUMPDEST SWAP1 JUMP JUMPDEST PUSH2 0x1987 DUP2 PUSH2 0x735 JUMP JUMPDEST SUB PUSH2 0x198E JUMPI JUMP JUMPDEST PUSH0 DUP1 REVERT JUMPDEST SWAP1 POP MLOAD SWAP1 PUSH2 0x199F DUP3 PUSH2 0x197E JUMP JUMPDEST JUMP JUMPDEST SWAP1 PUSH1 0x20 DUP3 DUP3 SUB SLT PUSH2 0x19BA JUMPI PUSH2 0x19B7 SWAP2 PUSH0 ADD PUSH2 0x1992 JUMP JUMPDEST SWAP1 JUMP JUMPDEST PUSH2 0x19E JUMP JUMPDEST PUSH1 0x40 SWAP1 PUSH2 0x19E8 PUSH2 0x19EF SWAP5 SWAP7 SWAP6 SWAP4 SWAP7 PUSH2 0x19DE PUSH1 0x60 DUP5 ADD SWAP9 PUSH0 DUP6 ADD SWAP1 PUSH2 0x3A8 JUMP JUMPDEST PUSH1 0x20 DUP4 ADD SWAP1 PUSH2 0x3A8 JUMP JUMPDEST ADD SWAP1 PUSH2 0x201 JUMP JUMPDEST JUMP JUMPDEST SWAP2 PUSH1 0x20 PUSH2 0x1A12 SWAP3 SWAP5 SWAP4 PUSH2 0x1A0B PUSH1 0x40 DUP3 ADD SWAP7 PUSH0 DUP4 ADD SWAP1 PUSH2 0x201 JUMP JUMPDEST ADD SWAP1 PUSH2 0x201 JUMP JUMPDEST JUMP JUMPDEST PUSH2 0x1A28 PUSH2 0x1A23 PUSH1 0x3 DUP4 SWAP1 PUSH2 0x881 JUMP JUMPDEST PUSH2 0x10BC JUMP JUMPDEST PUSH2 0x1A3C PUSH2 0x1A37 PUSH1 0x3 DUP4 ADD PUSH2 0x8D1 JUMP JUMPDEST PUSH2 0x1118 JUMP JUMPDEST PUSH2 0x1A62 PUSH2 0x1A5D PUSH2 0x1A58 PUSH2 0x1A51 PUSH1 0x5 CALLER SWAP1 PUSH2 0x6A0 JUMP JUMPDEST DUP6 SWAP1 PUSH2 0x6D2 JUMP JUMPDEST PUSH2 0x8D1 JUMP JUMPDEST PUSH2 0x1810 JUMP JUMPDEST PUSH2 0x1A91 PUSH2 0x1A79 PUSH2 0x1A74 PUSH1 0x6 CALLER SWAP1 PUSH2 0x56F JUMP JUMPDEST PUSH2 0x8B0 JUMP JUMPDEST PUSH2 0x1A8B PUSH2 0x1A85 PUSH0 PUSH2 0xFB1 JUMP JUMPDEST SWAP2 PUSH2 0x1FE JUMP JUMPDEST EQ PUSH2 0x1892 JUMP JUMPDEST PUSH2 0x1AB8 PUSH2 0x1AA0 PUSH1 0x2 DUP4 ADD PUSH2 0x8B0 JUMP JUMPDEST PUSH2 0x1AB2 PUSH2 0x1AAC PUSH0 PUSH2 0xFB1 JUMP JUMPDEST SWAP2 PUSH2 0x1FE JUMP JUMPDEST GT PUSH2 0x1914 JUMP JUMPDEST PUSH2 0x1AE6 PUSH2 0x1AD8 PUSH2 0x1ACA PUSH1 0x2 DUP5 ADD PUSH2 0x8B0 JUMP JUMPDEST PUSH2 0x1AD2 PUSH2 0x430 JUMP JUMPDEST SWAP1 PUSH2 0x193D JUMP JUMPDEST PUSH2 0x1AE0 PUSH2 0xD70 JUMP JUMPDEST SWAP1 PUSH2 0xF8C JUMP JUMPDEST SWAP1 PUSH2 0x1AFD PUSH2 0x1AF6 PUSH1 0x2 DUP4 ADD PUSH2 0x8B0 JUMP JUMPDEST DUP4 SWAP1 PUSH2 0xFCD JUMP JUMPDEST POP PUSH1 0x20 PUSH2 0x1B29 PUSH32 0x0 PUSH2 0x7E9 JUMP JUMPDEST PUSH4 0x23B872DD SWAP1 PUSH2 0x1B61 PUSH0 CALLER SWAP4 PUSH2 0x1B6C PUSH2 0x1B4D PUSH1 0x2 PUSH2 0x1B46 ADDRESS PUSH2 0x1972 JUMP JUMPDEST SWAP10 ADD PUSH2 0x8B0 JUMP JUMPDEST PUSH2 0x1B55 PUSH2 0x194 JUMP JUMPDEST SWAP9 DUP10 SWAP8 DUP9 SWAP7 DUP8 SWAP6 PUSH2 0x1411 JUMP JUMPDEST DUP6 MSTORE PUSH1 0x4 DUP6 ADD PUSH2 0x19BF JUMP JUMPDEST SUB SWAP3 GAS CALL DUP1 ISZERO PUSH2 0x1D61 JUMPI PUSH2 0x1D35 JUMPI JUMPDEST POP DUP1 PUSH2 0x1B8F PUSH2 0x1B89 PUSH0 PUSH2 0xFB1 JUMP JUMPDEST SWAP2 PUSH2 0x1FE JUMP JUMPDEST GT PUSH2 0x1C2A JUMPI JUMPDEST POP PUSH2 0x1BB2 PUSH2 0x1BAB PUSH2 0x1BA6 PUSH1 0x7 PUSH2 0x8B0 JUMP JUMPDEST PUSH2 0x13F1 JUMP JUMPDEST PUSH1 0x7 PUSH2 0x12E5 JUMP JUMPDEST PUSH2 0x1BD0 PUSH2 0x1BBF PUSH1 0x7 PUSH2 0x8B0 JUMP JUMPDEST PUSH2 0x1BCB PUSH1 0x6 CALLER SWAP1 PUSH2 0x56F JUMP JUMPDEST PUSH2 0x12E5 JUMP JUMPDEST CALLER SWAP1 PUSH2 0x1BDC PUSH1 0x7 PUSH2 0x8B0 JUMP JUMPDEST SWAP2 PUSH2 0x1C25 PUSH2 0x1C13 PUSH2 0x1C0D PUSH32 0x1902211DE8F8348E4AF0561B10E8E72DD71E80A34675440A511724250D2A17DA SWAP4 PUSH2 0x563 JUMP JUMPDEST SWAP4 PUSH2 0x6B6 JUMP JUMPDEST SWAP4 PUSH2 0x1C1C PUSH2 0x194 JUMP JUMPDEST SWAP2 DUP3 SWAP2 DUP3 PUSH2 0x449 JUMP JUMPDEST SUB SWAP1 LOG3 JUMP JUMPDEST PUSH2 0x1C53 PUSH32 0x0 PUSH2 0x7E9 JUMP JUMPDEST PUSH4 0x42966C68 DUP3 DUP3 EXTCODESIZE ISZERO PUSH2 0x1D30 JUMPI PUSH2 0x1C89 SWAP3 PUSH2 0x1C7E PUSH0 DUP1 SWAP5 PUSH2 0x1C72 PUSH2 0x194 JUMP JUMPDEST SWAP7 DUP8 SWAP6 DUP7 SWAP5 DUP6 SWAP4 PUSH2 0x1411 JUMP JUMPDEST DUP4 MSTORE PUSH1 0x4 DUP4 ADD PUSH2 0x449 JUMP JUMPDEST SUB SWAP3 GAS CALL DUP1 ISZERO PUSH2 0x1D2B JUMPI PUSH2 0x1CFF JUMPI JUMPDEST POP PUSH2 0x1CB6 PUSH2 0x1CAF DUP3 PUSH2 0x1CAA PUSH1 0x2 PUSH2 0x8B0 JUMP JUMPDEST PUSH2 0x1305 JUMP JUMPDEST PUSH1 0x2 PUSH2 0x12E5 JUMP JUMPDEST PUSH2 0x1CC0 PUSH1 0x2 PUSH2 0x8B0 JUMP JUMPDEST PUSH32 0x8BC81353CF6671D259D22783E39ED930583C86F3F4CF7E981298E6A872DFB15D SWAP2 PUSH2 0x1CF6 PUSH2 0x1CED PUSH2 0x194 JUMP JUMPDEST SWAP3 DUP4 SWAP3 DUP4 PUSH2 0x19F1 JUMP JUMPDEST SUB SWAP1 LOG1 PUSH0 PUSH2 0x1B95 JUMP JUMPDEST PUSH2 0x1D1E SWAP1 PUSH0 RETURNDATASIZE DUP2 GT PUSH2 0x1D24 JUMPI JUMPDEST PUSH2 0x1D16 DUP2 DUP4 PUSH2 0x9E5 JUMP JUMPDEST DUP2 ADD SWAP1 PUSH2 0x1417 JUMP JUMPDEST PUSH0 PUSH2 0x1C98 JUMP JUMPDEST POP RETURNDATASIZE PUSH2 0x1D0C JUMP JUMPDEST PUSH2 0x1449 JUMP JUMPDEST PUSH2 0x140D JUMP JUMPDEST PUSH2 0x1D55 SWAP1 PUSH1 0x20 RETURNDATASIZE DUP2 GT PUSH2 0x1D5A JUMPI JUMPDEST PUSH2 0x1D4D DUP2 DUP4 PUSH2 0x9E5 JUMP JUMPDEST DUP2 ADD SWAP1 PUSH2 0x19A1 JUMP JUMPDEST PUSH2 0x1B7B JUMP JUMPDEST POP RETURNDATASIZE PUSH2 0x1D43 JUMP JUMPDEST PUSH2 0x1449 JUMP JUMPDEST PUSH0 PUSH32 0x416C726561647920726567697374657265640000000000000000000000000000 SWAP2 ADD MSTORE JUMP JUMPDEST PUSH2 0x1D9A PUSH1 0x12 PUSH1 0x20 SWAP3 PUSH2 0xA80 JUMP JUMPDEST PUSH2 0x1DA3 DUP2 PUSH2 0x1D66 JUMP JUMPDEST ADD SWAP1 JUMP JUMPDEST PUSH2 0x1DBC SWAP1 PUSH1 0x20 DUP2 ADD SWAP1 PUSH0 DUP2 DUP4 SUB SWAP2 ADD MSTORE PUSH2 0x1D8D JUMP JUMPDEST SWAP1 JUMP JUMPDEST ISZERO PUSH2 0x1DC6 JUMPI JUMP JUMPDEST PUSH2 0x1DCE PUSH2 0x194 JUMP JUMPDEST PUSH3 0x461BCD PUSH1 0xE5 SHL DUP2 MSTORE DUP1 PUSH2 0x1DE4 PUSH1 0x4 DUP3 ADD PUSH2 0x1DA7 JUMP JUMPDEST SUB SWAP1 REVERT JUMPDEST SWAP1 PUSH2 0x1DFB PUSH2 0x1DF4 PUSH2 0x194 JUMP JUMPDEST SWAP3 DUP4 PUSH2 0x9E5 JUMP JUMPDEST JUMP JUMPDEST PUSH2 0x1E07 PUSH1 0xC0 PUSH2 0x1DE8 JUMP JUMPDEST SWAP1 JUMP JUMPDEST SWAP1 PUSH2 0x1E14 SWAP1 PUSH2 0x1FE JUMP JUMPDEST SWAP1 MSTORE JUMP JUMPDEST SWAP1 PUSH2 0x1E22 SWAP1 PUSH2 0x735 JUMP JUMPDEST SWAP1 MSTORE JUMP JUMPDEST PUSH2 0x1E30 SWAP1 MLOAD PUSH2 0x1FE JUMP JUMPDEST SWAP1 JUMP JUMPDEST PUSH2 0x1E3D SWAP1 MLOAD PUSH2 0x735 JUMP JUMPDEST SWAP1 JUMP JUMPDEST SWAP1 PUSH2 0x1ECF PUSH1 0xA0 PUSH1 0x5 PUSH2 0x1ED5 SWAP5 PUSH2 0x1E63 PUSH0 DUP3 ADD PUSH2 0x1E5D PUSH0 DUP9 ADD PUSH2 0x1E26 JUMP JUMPDEST SWAP1 PUSH2 0x12E5 JUMP JUMPDEST PUSH2 0x1E7C PUSH1 0x1 DUP3 ADD PUSH2 0x1E76 PUSH1 0x20 DUP9 ADD PUSH2 0x1E26 JUMP JUMPDEST SWAP1 PUSH2 0x12E5 JUMP JUMPDEST PUSH2 0x1E95 PUSH1 0x2 DUP3 ADD PUSH2 0x1E8F PUSH1 0x40 DUP9 ADD PUSH2 0x1E26 JUMP JUMPDEST SWAP1 PUSH2 0x12E5 JUMP JUMPDEST PUSH2 0x1EAE PUSH1 0x3 DUP3 ADD PUSH2 0x1EA8 PUSH1 0x60 DUP9 ADD PUSH2 0x1E26 JUMP JUMPDEST SWAP1 PUSH2 0x12E5 JUMP JUMPDEST PUSH2 0x1EC7 PUSH1 0x4 DUP3 ADD PUSH2 0x1EC1 PUSH1 0x80 DUP9 ADD PUSH2 0x1E26 JUMP JUMPDEST SWAP1 PUSH2 0x12E5 JUMP JUMPDEST ADD SWAP3 ADD PUSH2 0x1E33 JUMP JUMPDEST SWAP1 PUSH2 0x13D1 JUMP JUMPDEST JUMP JUMPDEST SWAP1 PUSH2 0x1EE1 SWAP2 PUSH2 0x1E40 JUMP JUMPDEST JUMP JUMPDEST PUSH1 0x4 CALLER PUSH2 0x1EEF SWAP2 PUSH2 0xB9A JUMP JUMPDEST PUSH1 0x5 ADD PUSH2 0x1EFB SWAP1 PUSH2 0x8D1 JUMP JUMPDEST ISZERO PUSH2 0x1F05 SWAP1 PUSH2 0x735 JUMP JUMPDEST PUSH2 0x1F0E SWAP1 PUSH2 0x1DBF JUMP JUMPDEST PUSH0 DUP1 PUSH0 DUP1 PUSH0 SWAP2 PUSH1 0x1 SWAP4 PUSH2 0x1F1F PUSH2 0x1DFD JUMP JUMPDEST SWAP6 PUSH2 0x1F29 SWAP1 PUSH2 0xFB1 JUMP JUMPDEST PUSH0 DUP8 ADD SWAP1 PUSH2 0x1F36 SWAP2 PUSH2 0x1E0A JUMP JUMPDEST PUSH2 0x1F3F SWAP1 PUSH2 0xFB1 JUMP JUMPDEST PUSH1 0x20 DUP7 ADD SWAP1 PUSH2 0x1F4D SWAP2 PUSH2 0x1E0A JUMP JUMPDEST PUSH2 0x1F56 SWAP1 PUSH2 0xFB1 JUMP JUMPDEST PUSH1 0x40 DUP6 ADD SWAP1 PUSH2 0x1F64 SWAP2 PUSH2 0x1E0A JUMP JUMPDEST PUSH2 0x1F6D SWAP1 PUSH2 0xFB1 JUMP JUMPDEST PUSH1 0x60 DUP5 ADD SWAP1 PUSH2 0x1F7B SWAP2 PUSH2 0x1E0A JUMP JUMPDEST PUSH2 0x1F84 SWAP1 PUSH2 0xFB1 JUMP JUMPDEST PUSH1 0x80 DUP4 ADD SWAP1 PUSH2 0x1F92 SWAP2 PUSH2 0x1E0A JUMP JUMPDEST PUSH1 0xA0 DUP3 ADD SWAP1 PUSH2 0x1FA0 SWAP2 PUSH2 0x1E18 JUMP JUMPDEST PUSH1 0x4 CALLER PUSH2 0x1FAC SWAP2 PUSH2 0xB9A JUMP JUMPDEST SWAP1 PUSH2 0x1FB6 SWAP2 PUSH2 0x1ED7 JUMP JUMPDEST CALLER PUSH32 0xF10EC97E920CDE75887622583772C637595A40B1F7777C18E51EA36CD127475C SWAP1 PUSH2 0x1FE2 SWAP1 PUSH2 0x563 JUMP JUMPDEST SWAP1 PUSH2 0x1FEB PUSH2 0x194 JUMP JUMPDEST DUP1 PUSH2 0x1FF5 DUP2 PUSH2 0x2C6 JUMP JUMPDEST SUB SWAP1 LOG2 JUMP JUMPDEST PUSH2 0x2002 PUSH2 0x2CB9 JUMP JUMPDEST PUSH2 0x200A PUSH2 0x2034 JUMP JUMPDEST JUMP JUMPDEST PUSH2 0x2020 PUSH2 0x201B PUSH2 0x2025 SWAP3 PUSH2 0xFAE JUMP JUMPDEST PUSH2 0x411 JUMP JUMPDEST PUSH2 0x1A6 JUMP JUMPDEST SWAP1 JUMP JUMPDEST PUSH2 0x2031 SWAP1 PUSH2 0x200C JUMP JUMPDEST SWAP1 JUMP JUMPDEST PUSH2 0x2045 PUSH2 0x2040 PUSH0 PUSH2 0x2028 JUMP JUMPDEST PUSH2 0x2D23 JUMP JUMPDEST JUMP JUMPDEST PUSH2 0x204F PUSH2 0x1FFA JUMP JUMPDEST JUMP JUMPDEST PUSH0 SWAP1 JUMP JUMPDEST PUSH2 0x2061 PUSH2 0x2066 SWAP2 PUSH2 0x897 JUMP JUMPDEST PUSH2 0x34B JUMP JUMPDEST SWAP1 JUMP JUMPDEST PUSH2 0x2073 SWAP1 SLOAD PUSH2 0x2055 JUMP JUMPDEST SWAP1 JUMP JUMPDEST PUSH2 0x207E PUSH2 0x2051 JUMP JUMPDEST POP PUSH2 0x2088 PUSH0 PUSH2 0x2069 JUMP JUMPDEST SWAP1 JUMP JUMPDEST PUSH2 0x209C SWAP1 PUSH2 0x2097 PUSH2 0x2CB9 JUMP JUMPDEST PUSH2 0x2120 JUMP JUMPDEST JUMP JUMPDEST PUSH0 PUSH32 0x416C726561647920696E61637469766500000000000000000000000000000000 SWAP2 ADD MSTORE JUMP JUMPDEST PUSH2 0x20D2 PUSH1 0x10 PUSH1 0x20 SWAP3 PUSH2 0xA80 JUMP JUMPDEST PUSH2 0x20DB DUP2 PUSH2 0x209E JUMP JUMPDEST ADD SWAP1 JUMP JUMPDEST PUSH2 0x20F4 SWAP1 PUSH1 0x20 DUP2 ADD SWAP1 PUSH0 DUP2 DUP4 SUB SWAP2 ADD MSTORE PUSH2 0x20C5 JUMP JUMPDEST SWAP1 JUMP JUMPDEST ISZERO PUSH2 0x20FE JUMPI JUMP JUMPDEST PUSH2 0x2106 PUSH2 0x194 JUMP JUMPDEST PUSH3 0x461BCD PUSH1 0xE5 SHL DUP2 MSTORE DUP1 PUSH2 0x211C PUSH1 0x4 DUP3 ADD PUSH2 0x20DF JUMP JUMPDEST SUB SWAP1 REVERT JUMPDEST PUSH2 0x213E PUSH2 0x2139 PUSH1 0x3 PUSH2 0x2133 DUP2 DUP6 SWAP1 PUSH2 0x881 JUMP JUMPDEST ADD PUSH2 0x8D1 JUMP JUMPDEST PUSH2 0x20F7 JUMP JUMPDEST PUSH2 0x2155 PUSH0 PUSH1 0x3 PUSH2 0x214F DUP2 DUP6 SWAP1 PUSH2 0x881 JUMP JUMPDEST ADD PUSH2 0x13D1 JUMP JUMPDEST PUSH2 0x217F PUSH32 0x85A406C134E004F27C0B2CD0D0D951D7235374623DF2BC40752D06597463A83F SWAP2 PUSH2 0x6B6 JUMP JUMPDEST SWAP1 PUSH2 0x2188 PUSH2 0x194 JUMP JUMPDEST DUP1 PUSH2 0x2192 DUP2 PUSH2 0x2C6 JUMP JUMPDEST SUB SWAP1 LOG2 JUMP JUMPDEST PUSH2 0x21A0 SWAP1 PUSH2 0x208B JUMP JUMPDEST JUMP JUMPDEST PUSH0 PUSH32 0x416D6F756E74207A65726F000000000000000000000000000000000000000000 SWAP2 ADD MSTORE JUMP JUMPDEST PUSH2 0x21D6 PUSH1 0xB PUSH1 0x20 SWAP3 PUSH2 0xA80 JUMP JUMPDEST PUSH2 0x21DF DUP2 PUSH2 0x21A2 JUMP JUMPDEST ADD SWAP1 JUMP JUMPDEST PUSH2 0x21F8 SWAP1 PUSH1 0x20 DUP2 ADD SWAP1 PUSH0 DUP2 DUP4 SUB SWAP2 ADD MSTORE PUSH2 0x21C9 JUMP JUMPDEST SWAP1 JUMP JUMPDEST ISZERO PUSH2 0x2202 JUMPI JUMP JUMPDEST PUSH2 0x220A PUSH2 0x194 JUMP JUMPDEST PUSH3 0x461BCD PUSH1 0xE5 SHL DUP2 MSTORE DUP1 PUSH2 0x2220 PUSH1 0x4 DUP3 ADD PUSH2 0x21E3 JUMP JUMPDEST SUB SWAP1 REVERT JUMPDEST PUSH2 0x2240 DUP2 PUSH2 0x223A PUSH2 0x2234 PUSH0 PUSH2 0xFB1 JUMP JUMPDEST SWAP2 PUSH2 0x1FE JUMP JUMPDEST GT PUSH2 0x21FB JUMP JUMPDEST PUSH2 0x2269 PUSH32 0x0 PUSH2 0x7E9 JUMP JUMPDEST PUSH1 0x20 PUSH4 0x23B872DD SWAP2 CALLER SWAP1 PUSH2 0x2299 PUSH0 PUSH2 0x2280 ADDRESS PUSH2 0x1972 JUMP JUMPDEST SWAP6 PUSH2 0x22A4 DUP9 PUSH2 0x228D PUSH2 0x194 JUMP JUMPDEST SWAP9 DUP10 SWAP8 DUP9 SWAP7 DUP8 SWAP6 PUSH2 0x1411 JUMP JUMPDEST DUP6 MSTORE PUSH1 0x4 DUP6 ADD PUSH2 0x19BF JUMP JUMPDEST SUB SWAP3 GAS CALL DUP1 ISZERO PUSH2 0x246D JUMPI PUSH2 0x2441 JUMPI JUMPDEST POP PUSH2 0x22D7 PUSH2 0x22C9 DUP3 PUSH2 0x22C3 PUSH2 0x430 JUMP JUMPDEST SWAP1 PUSH2 0x193D JUMP JUMPDEST PUSH2 0x22D1 PUSH2 0xD70 JUMP JUMPDEST SWAP1 PUSH2 0xF8C JUMP JUMPDEST DUP1 PUSH2 0x22EA PUSH2 0x22E4 PUSH0 PUSH2 0xFB1 JUMP JUMPDEST SWAP2 PUSH2 0x1FE JUMP JUMPDEST GT PUSH2 0x2336 JUMPI JUMPDEST POP CALLER PUSH2 0x2331 PUSH2 0x231F PUSH32 0x10221063D064B7F08DF50A7B688426682343E6067582EBC0802467B91B9AC741 SWAP3 PUSH2 0x563 JUMP JUMPDEST SWAP3 PUSH2 0x2328 PUSH2 0x194 JUMP JUMPDEST SWAP2 DUP3 SWAP2 DUP3 PUSH2 0x449 JUMP JUMPDEST SUB SWAP1 LOG2 JUMP JUMPDEST PUSH2 0x235F PUSH32 0x0 PUSH2 0x7E9 JUMP JUMPDEST PUSH4 0x42966C68 DUP3 DUP3 EXTCODESIZE ISZERO PUSH2 0x243C JUMPI PUSH2 0x2395 SWAP3 PUSH2 0x238A PUSH0 DUP1 SWAP5 PUSH2 0x237E PUSH2 0x194 JUMP JUMPDEST SWAP7 DUP8 SWAP6 DUP7 SWAP5 DUP6 SWAP4 PUSH2 0x1411 JUMP JUMPDEST DUP4 MSTORE PUSH1 0x4 DUP4 ADD PUSH2 0x449 JUMP JUMPDEST SUB SWAP3 GAS CALL DUP1 ISZERO PUSH2 0x2437 JUMPI PUSH2 0x240B JUMPI JUMPDEST POP PUSH2 0x23C2 PUSH2 0x23BB DUP3 PUSH2 0x23B6 PUSH1 0x2 PUSH2 0x8B0 JUMP JUMPDEST PUSH2 0x1305 JUMP JUMPDEST PUSH1 0x2 PUSH2 0x12E5 JUMP JUMPDEST PUSH2 0x23CC PUSH1 0x2 PUSH2 0x8B0 JUMP JUMPDEST PUSH32 0x8BC81353CF6671D259D22783E39ED930583C86F3F4CF7E981298E6A872DFB15D SWAP2 PUSH2 0x2402 PUSH2 0x23F9 PUSH2 0x194 JUMP JUMPDEST SWAP3 DUP4 SWAP3 DUP4 PUSH2 0x19F1 JUMP JUMPDEST SUB SWAP1 LOG1 PUSH0 PUSH2 0x22F0 JUMP JUMPDEST PUSH2 0x242A SWAP1 PUSH0 RETURNDATASIZE DUP2 GT PUSH2 0x2430 JUMPI JUMPDEST PUSH2 0x2422 DUP2 DUP4 PUSH2 0x9E5 JUMP JUMPDEST DUP2 ADD SWAP1 PUSH2 0x1417 JUMP JUMPDEST PUSH0 PUSH2 0x23A4 JUMP JUMPDEST POP RETURNDATASIZE PUSH2 0x2418 JUMP JUMPDEST PUSH2 0x1449 JUMP JUMPDEST PUSH2 0x140D JUMP JUMPDEST PUSH2 0x2461 SWAP1 PUSH1 0x20 RETURNDATASIZE DUP2 GT PUSH2 0x2466 JUMPI JUMPDEST PUSH2 0x2459 DUP2 DUP4 PUSH2 0x9E5 JUMP JUMPDEST DUP2 ADD SWAP1 PUSH2 0x19A1 JUMP JUMPDEST PUSH2 0x22B3 JUMP JUMPDEST POP RETURNDATASIZE PUSH2 0x244F JUMP JUMPDEST PUSH2 0x1449 JUMP JUMPDEST SWAP1 PUSH2 0x2487 SWAP5 SWAP4 SWAP3 SWAP2 PUSH2 0x2482 PUSH2 0x2CB9 JUMP JUMPDEST PUSH2 0x28EC JUMP JUMPDEST JUMP JUMPDEST PUSH0 PUSH32 0x436F757273652065786973747300000000000000000000000000000000000000 SWAP2 ADD MSTORE JUMP JUMPDEST PUSH2 0x24BD PUSH1 0xD PUSH1 0x20 SWAP3 PUSH2 0xA80 JUMP JUMPDEST PUSH2 0x24C6 DUP2 PUSH2 0x2489 JUMP JUMPDEST ADD SWAP1 JUMP JUMPDEST PUSH2 0x24DF SWAP1 PUSH1 0x20 DUP2 ADD SWAP1 PUSH0 DUP2 DUP4 SUB SWAP2 ADD MSTORE PUSH2 0x24B0 JUMP JUMPDEST SWAP1 JUMP JUMPDEST ISZERO PUSH2 0x24E9 JUMPI JUMP JUMPDEST PUSH2 0x24F1 PUSH2 0x194 JUMP JUMPDEST PUSH3 0x461BCD PUSH1 0xE5 SHL DUP2 MSTORE DUP1 PUSH2 0x2507 PUSH1 0x4 DUP3 ADD PUSH2 0x24CA JUMP JUMPDEST SUB SWAP1 REVERT JUMPDEST SWAP1 JUMP JUMPDEST PUSH2 0x2522 PUSH2 0x251D PUSH2 0x2527 SWAP3 PUSH2 0x250B JUMP JUMPDEST PUSH2 0x411 JUMP JUMPDEST PUSH2 0x1FE JUMP JUMPDEST SWAP1 JUMP JUMPDEST PUSH0 PUSH32 0x52657761726420746F6F20686967680000000000000000000000000000000000 SWAP2 ADD MSTORE JUMP JUMPDEST PUSH2 0x255E PUSH1 0xF PUSH1 0x20 SWAP3 PUSH2 0xA80 JUMP JUMPDEST PUSH2 0x2567 DUP2 PUSH2 0x252A JUMP JUMPDEST ADD SWAP1 JUMP JUMPDEST PUSH2 0x2580 SWAP1 PUSH1 0x20 DUP2 ADD SWAP1 PUSH0 DUP2 DUP4 SUB SWAP2 ADD MSTORE PUSH2 0x2551 JUMP JUMPDEST SWAP1 JUMP JUMPDEST ISZERO PUSH2 0x258A JUMPI JUMP JUMPDEST PUSH2 0x2592 PUSH2 0x194 JUMP JUMPDEST PUSH3 0x461BCD PUSH1 0xE5 SHL DUP2 MSTORE DUP1 PUSH2 0x25A8 PUSH1 0x4 DUP3 ADD PUSH2 0x256B JUMP JUMPDEST SUB SWAP1 REVERT JUMPDEST PUSH2 0x25B6 PUSH1 0xA0 PUSH2 0x1DE8 JUMP JUMPDEST SWAP1 JUMP JUMPDEST PUSH0 DUP1 REVERT JUMPDEST PUSH8 0xFFFFFFFFFFFFFFFF DUP2 GT PUSH2 0x25DB JUMPI PUSH2 0x25D7 PUSH1 0x20 SWAP2 PUSH2 0x9C7 JUMP JUMPDEST ADD SWAP1 JUMP JUMPDEST PUSH2 0x9D1 JUMP JUMPDEST SWAP1 DUP3 PUSH0 SWAP4 SWAP3 DUP3 CALLDATACOPY ADD MSTORE JUMP JUMPDEST SWAP1 SWAP3 SWAP2 SWAP3 PUSH2 0x2600 PUSH2 0x25FB DUP3 PUSH2 0x25BD JUMP JUMPDEST PUSH2 0x1DE8 JUMP JUMPDEST SWAP4 DUP2 DUP6 MSTORE PUSH1 0x20 DUP6 ADD SWAP1 DUP3 DUP5 ADD GT PUSH2 0x261C JUMPI PUSH2 0x261A SWAP3 PUSH2 0x25E0 JUMP JUMPDEST JUMP JUMPDEST PUSH2 0x25B9 JUMP JUMPDEST PUSH2 0x262C SWAP2 CALLDATASIZE SWAP2 PUSH2 0x25EB JUMP JUMPDEST SWAP1 JUMP JUMPDEST MSTORE JUMP JUMPDEST MLOAD SWAP1 JUMP JUMPDEST PUSH1 0x1F PUSH1 0x20 SWAP2 ADD DIV SWAP1 JUMP JUMPDEST SHL SWAP1 JUMP JUMPDEST SWAP2 SWAP1 PUSH1 0x8 PUSH2 0x265F SWAP2 MUL SWAP2 PUSH2 0x2659 PUSH0 NOT DUP5 PUSH2 0x2640 JUMP JUMPDEST SWAP3 PUSH2 0x2640 JUMP JUMPDEST SWAP2 DUP2 NOT AND SWAP2 AND OR SWAP1 JUMP JUMPDEST SWAP2 SWAP1 PUSH2 0x267F PUSH2 0x267A PUSH2 0x2687 SWAP4 PUSH2 0x6B6 JUMP JUMPDEST PUSH2 0x12E2 JUMP JUMPDEST SWAP1 DUP4 SLOAD PUSH2 0x2644 JUMP JUMPDEST SWAP1 SSTORE JUMP JUMPDEST PUSH2 0x269D SWAP2 PUSH2 0x2697 PUSH2 0xF3E JUMP JUMPDEST SWAP2 PUSH2 0x2669 JUMP JUMPDEST JUMP JUMPDEST JUMPDEST DUP2 DUP2 LT PUSH2 0x26AB JUMPI POP POP JUMP JUMPDEST DUP1 PUSH2 0x26B8 PUSH0 PUSH1 0x1 SWAP4 PUSH2 0x268B JUMP JUMPDEST ADD PUSH2 0x26A0 JUMP JUMPDEST SWAP2 SWAP1 PUSH1 0x1F DUP2 GT PUSH2 0x26CE JUMPI JUMPDEST POP POP POP JUMP JUMPDEST PUSH2 0x26DA PUSH2 0x26FF SWAP4 PUSH2 0x925 JUMP JUMPDEST SWAP1 PUSH1 0x20 PUSH2 0x26E6 DUP5 PUSH2 0x2636 JUMP JUMPDEST DUP4 ADD SWAP4 LT PUSH2 0x2707 JUMPI JUMPDEST PUSH2 0x26F8 SWAP1 PUSH2 0x2636 JUMP JUMPDEST ADD SWAP1 PUSH2 0x269F JUMP JUMPDEST PUSH0 DUP1 DUP1 PUSH2 0x26C9 JUMP JUMPDEST SWAP2 POP PUSH2 0x26F8 DUP2 SWAP3 SWAP1 POP PUSH2 0x26EF JUMP JUMPDEST SWAP1 PUSH2 0x2725 SWAP1 PUSH0 NOT SWAP1 PUSH1 0x8 MUL PUSH2 0x347 JUMP JUMPDEST NOT AND SWAP1 JUMP JUMPDEST DUP2 PUSH2 0x2734 SWAP2 PUSH2 0x2715 JUMP JUMPDEST SWAP1 PUSH1 0x2 MUL OR SWAP1 JUMP JUMPDEST SWAP1 PUSH2 0x2746 DUP2 PUSH2 0xA7C JUMP JUMPDEST SWAP1 PUSH8 0xFFFFFFFFFFFFFFFF DUP3 GT PUSH2 0x2806 JUMPI PUSH2 0x276A DUP3 PUSH2 0x2764 DUP6 SLOAD PUSH2 0x8F2 JUMP JUMPDEST DUP6 PUSH2 0x26BE JUMP JUMPDEST PUSH1 0x20 SWAP1 PUSH1 0x1F DUP4 GT PUSH1 0x1 EQ PUSH2 0x279E JUMPI SWAP2 DUP1 SWAP2 PUSH2 0x278D SWAP4 PUSH0 SWAP3 PUSH2 0x2792 JUMPI JUMPDEST POP POP PUSH2 0x272A JUMP JUMPDEST SWAP1 SSTORE JUMPDEST JUMP JUMPDEST SWAP1 SWAP2 POP ADD MLOAD PUSH0 DUP1 PUSH2 0x2786 JUMP JUMPDEST PUSH1 0x1F NOT DUP4 AND SWAP2 PUSH2 0x27AD DUP6 PUSH2 0x925 JUMP JUMPDEST SWAP3 PUSH0 JUMPDEST DUP2 DUP2 LT PUSH2 0x27EE JUMPI POP SWAP2 PUSH1 0x2 SWAP4 SWAP2 DUP6 PUSH1 0x1 SWAP7 SWAP5 LT PUSH2 0x27D4 JUMPI JUMPDEST POP POP POP MUL ADD SWAP1 SSTORE PUSH2 0x2790 JUMP JUMPDEST PUSH2 0x27E4 SWAP2 ADD MLOAD PUSH1 0x1F DUP5 AND SWAP1 PUSH2 0x2715 JUMP JUMPDEST SWAP1 SSTORE PUSH0 DUP1 DUP1 PUSH2 0x27C8 JUMP JUMPDEST SWAP2 SWAP4 PUSH1 0x20 PUSH1 0x1 DUP2 SWAP3 DUP8 DUP8 ADD MLOAD DUP2 SSTORE ADD SWAP6 ADD SWAP3 ADD PUSH2 0x27B0 JUMP JUMPDEST PUSH2 0x9D1 JUMP JUMPDEST SWAP1 PUSH2 0x2815 SWAP2 PUSH2 0x273C JUMP JUMPDEST JUMP JUMPDEST SWAP1 PUSH2 0x288D PUSH1 0x80 PUSH1 0x4 PUSH2 0x2893 SWAP5 PUSH2 0x283A PUSH0 DUP3 ADD PUSH2 0x2834 PUSH0 DUP9 ADD PUSH2 0x1E26 JUMP JUMPDEST SWAP1 PUSH2 0x12E5 JUMP JUMPDEST PUSH2 0x2853 PUSH1 0x1 DUP3 ADD PUSH2 0x284D PUSH1 0x20 DUP9 ADD PUSH2 0x1E26 JUMP JUMPDEST SWAP1 PUSH2 0x12E5 JUMP JUMPDEST PUSH2 0x286C PUSH1 0x2 DUP3 ADD PUSH2 0x2866 PUSH1 0x40 DUP9 ADD PUSH2 0x1E26 JUMP JUMPDEST SWAP1 PUSH2 0x12E5 JUMP JUMPDEST PUSH2 0x2885 PUSH1 0x3 DUP3 ADD PUSH2 0x287F PUSH1 0x60 DUP9 ADD PUSH2 0x1E33 JUMP JUMPDEST SWAP1 PUSH2 0x13D1 JUMP JUMPDEST ADD SWAP3 ADD PUSH2 0x2632 JUMP JUMPDEST SWAP1 PUSH2 0x280B JUMP JUMPDEST JUMP JUMPDEST SWAP1 PUSH2 0x289F SWAP2 PUSH2 0x2817 JUMP JUMPDEST JUMP JUMPDEST SWAP2 SWAP1 PUSH2 0x28BB DUP2 PUSH2 0x28B4 DUP2 PUSH2 0x28C0 SWAP6 PUSH2 0xA80 JUMP JUMPDEST DUP1 SWAP6 PUSH2 0x25E0 JUMP JUMPDEST PUSH2 0x9C7 JUMP JUMPDEST ADD SWAP1 JUMP JUMPDEST SWAP2 PUSH2 0x28E9 SWAP4 SWAP2 SWAP3 PUSH2 0x28DC PUSH1 0x40 DUP3 ADD SWAP5 PUSH0 DUP4 ADD SWAP1 PUSH2 0x201 JUMP JUMPDEST PUSH1 0x20 DUP2 DUP6 SUB SWAP2 ADD MSTORE PUSH2 0x28A1 JUMP JUMPDEST SWAP1 JUMP JUMPDEST SWAP1 SWAP3 SWAP4 SWAP2 PUSH2 0x29B3 SWAP1 PUSH2 0x2925 PUSH2 0x290D PUSH0 PUSH2 0x2907 PUSH1 0x3 DUP8 SWAP1 PUSH2 0x881 JUMP JUMPDEST ADD PUSH2 0x8B0 JUMP JUMPDEST PUSH2 0x291F PUSH2 0x2919 PUSH0 PUSH2 0xFB1 JUMP JUMPDEST SWAP2 PUSH2 0x1FE JUMP JUMPDEST EQ PUSH2 0x24E2 JUMP JUMPDEST PUSH2 0x294C DUP6 PUSH2 0x2945 PUSH2 0x293F PUSH10 0x21E19E0C9BAB2400000 PUSH2 0x250E JUMP JUMPDEST SWAP2 PUSH2 0x1FE JUMP JUMPDEST GT ISZERO PUSH2 0x2583 JUMP JUMPDEST PUSH2 0x29A2 PUSH2 0x2999 DUP5 SWAP3 DUP8 SWAP1 PUSH2 0x2994 PUSH1 0x1 PUSH2 0x298B DUP13 SWAP4 PUSH2 0x2982 DUP13 SWAP7 PUSH2 0x2979 PUSH2 0x2970 PUSH2 0x25AC JUMP JUMPDEST SWAP12 PUSH0 DUP14 ADD PUSH2 0x1E0A JUMP JUMPDEST PUSH1 0x20 DUP12 ADD PUSH2 0x1E0A JUMP JUMPDEST PUSH1 0x40 DUP10 ADD PUSH2 0x1E0A JUMP JUMPDEST PUSH1 0x60 DUP8 ADD PUSH2 0x1E18 JUMP JUMPDEST PUSH2 0x2621 JUMP JUMPDEST PUSH1 0x80 DUP4 ADD PUSH2 0x262F JUMP JUMPDEST PUSH2 0x29AE PUSH1 0x3 DUP5 SWAP1 PUSH2 0x881 JUMP JUMPDEST PUSH2 0x2895 JUMP JUMPDEST PUSH2 0x29CF PUSH2 0x29C8 PUSH2 0x29C3 PUSH1 0x1 PUSH2 0x8B0 JUMP JUMPDEST PUSH2 0x13F1 JUMP JUMPDEST PUSH1 0x1 PUSH2 0x12E5 JUMP JUMPDEST SWAP2 SWAP3 SWAP1 SWAP3 PUSH2 0x2A12 PUSH2 0x2A00 PUSH32 0x5EE05DC0B49CD428CC85A05162161E8DE9ECE24E8775C852C4E3D116D36CD8E SWAP5 PUSH2 0x6B6 JUMP JUMPDEST SWAP5 PUSH2 0x2A09 PUSH2 0x194 JUMP JUMPDEST SWAP4 DUP5 SWAP4 DUP5 PUSH2 0x28C4 JUMP JUMPDEST SUB SWAP1 LOG2 JUMP JUMPDEST SWAP1 PUSH2 0x2A24 SWAP5 SWAP4 SWAP3 SWAP2 PUSH2 0x2472 JUMP JUMPDEST JUMP JUMPDEST PUSH2 0x2A37 SWAP1 PUSH2 0x2A32 PUSH2 0x2CB9 JUMP JUMPDEST PUSH2 0x2AE1 JUMP JUMPDEST JUMP JUMPDEST PUSH1 0x20 PUSH32 0x6464726573730000000000000000000000000000000000000000000000000000 SWAP2 PUSH32 0x4F776E61626C653A206E6577206F776E657220697320746865207A65726F2061 PUSH0 DUP3 ADD MSTORE ADD MSTORE JUMP JUMPDEST PUSH2 0x2A93 PUSH1 0x26 PUSH1 0x40 SWAP3 PUSH2 0xA80 JUMP JUMPDEST PUSH2 0x2A9C DUP2 PUSH2 0x2A39 JUMP JUMPDEST ADD SWAP1 JUMP JUMPDEST PUSH2 0x2AB5 SWAP1 PUSH1 0x20 DUP2 ADD SWAP1 PUSH0 DUP2 DUP4 SUB SWAP2 ADD MSTORE PUSH2 0x2A86 JUMP JUMPDEST SWAP1 JUMP JUMPDEST ISZERO PUSH2 0x2ABF JUMPI JUMP JUMPDEST PUSH2 0x2AC7 PUSH2 0x194 JUMP JUMPDEST PUSH3 0x461BCD PUSH1 0xE5 SHL DUP2 MSTORE DUP1 PUSH2 0x2ADD PUSH1 0x4 DUP3 ADD PUSH2 0x2AA0 JUMP JUMPDEST SUB SWAP1 REVERT JUMPDEST PUSH2 0x2B0F SWAP1 PUSH2 0x2B0A DUP2 PUSH2 0x2B03 PUSH2 0x2AFD PUSH2 0x2AF8 PUSH0 PUSH2 0x2028 JUMP JUMPDEST PUSH2 0x1B1 JUMP JUMPDEST SWAP2 PUSH2 0x1B1 JUMP JUMPDEST EQ ISZERO PUSH2 0x2AB8 JUMP JUMPDEST PUSH2 0x2D23 JUMP JUMPDEST JUMP JUMPDEST PUSH2 0x2B1A SWAP1 PUSH2 0x2A26 JUMP JUMPDEST JUMP JUMPDEST SWAP1 PUSH2 0x2B2E SWAP2 PUSH2 0x2B29 PUSH2 0x2CB9 JUMP JUMPDEST PUSH2 0x2BB2 JUMP JUMPDEST JUMP JUMPDEST PUSH0 PUSH32 0x4C6561726E6572206E6F74207265676973746572656400000000000000000000 SWAP2 ADD MSTORE JUMP JUMPDEST PUSH2 0x2B64 PUSH1 0x16 PUSH1 0x20 SWAP3 PUSH2 0xA80 JUMP JUMPDEST PUSH2 0x2B6D DUP2 PUSH2 0x2B30 JUMP JUMPDEST ADD SWAP1 JUMP JUMPDEST PUSH2 0x2B86 SWAP1 PUSH1 0x20 DUP2 ADD SWAP1 PUSH0 DUP2 DUP4 SUB SWAP2 ADD MSTORE PUSH2 0x2B57 JUMP JUMPDEST SWAP1 JUMP JUMPDEST ISZERO PUSH2 0x2B90 JUMPI JUMP JUMPDEST PUSH2 0x2B98 PUSH2 0x194 JUMP JUMPDEST PUSH3 0x461BCD PUSH1 0xE5 SHL DUP2 MSTORE DUP1 PUSH2 0x2BAE PUSH1 0x4 DUP3 ADD PUSH2 0x2B71 JUMP JUMPDEST SUB SWAP1 REVERT JUMPDEST PUSH2 0x2BD1 PUSH2 0x2BCC PUSH1 0x5 PUSH2 0x2BC6 PUSH1 0x4 DUP6 SWAP1 PUSH2 0xB9A JUMP JUMPDEST ADD PUSH2 0x8D1 JUMP JUMPDEST PUSH2 0x2B89 JUMP JUMPDEST PUSH2 0x2BE8 DUP3 PUSH0 PUSH2 0x2BE2 PUSH1 0x4 DUP6 SWAP1 PUSH2 0xB9A JUMP JUMPDEST ADD PUSH2 0x12E5 JUMP JUMPDEST PUSH2 0x2C27 PUSH2 0x2C15 PUSH32 0x8365A96B40B6CBEBEC894A18A30C982467E3672B492C273CBAF1C3CD82903C0 SWAP3 PUSH2 0x563 JUMP JUMPDEST SWAP3 PUSH2 0x2C1E PUSH2 0x194 JUMP JUMPDEST SWAP2 DUP3 SWAP2 DUP3 PUSH2 0x449 JUMP JUMPDEST SUB SWAP1 LOG2 JUMP JUMPDEST SWAP1 PUSH2 0x2C36 SWAP2 PUSH2 0x2B1C JUMP JUMPDEST JUMP JUMPDEST PUSH0 PUSH32 0x4F776E61626C653A2063616C6C6572206973206E6F7420746865206F776E6572 SWAP2 ADD MSTORE JUMP JUMPDEST PUSH2 0x2C6B PUSH1 0x20 DUP1 SWAP3 PUSH2 0xA80 JUMP JUMPDEST PUSH2 0x2C74 DUP2 PUSH2 0x2C38 JUMP JUMPDEST ADD SWAP1 JUMP JUMPDEST PUSH2 0x2C8D SWAP1 PUSH1 0x20 DUP2 ADD SWAP1 PUSH0 DUP2 DUP4 SUB SWAP2 ADD MSTORE PUSH2 0x2C5F JUMP JUMPDEST SWAP1 JUMP JUMPDEST ISZERO PUSH2 0x2C97 JUMPI JUMP JUMPDEST PUSH2 0x2C9F PUSH2 0x194 JUMP JUMPDEST PUSH3 0x461BCD PUSH1 0xE5 SHL DUP2 MSTORE DUP1 PUSH2 0x2CB5 PUSH1 0x4 DUP3 ADD PUSH2 0x2C78 JUMP JUMPDEST SUB SWAP1 REVERT JUMPDEST PUSH2 0x2CE3 PUSH2 0x2CC4 PUSH2 0x2076 JUMP JUMPDEST PUSH2 0x2CDD PUSH2 0x2CD7 PUSH2 0x2CD2 PUSH2 0x2D82 JUMP JUMPDEST PUSH2 0x1B1 JUMP JUMPDEST SWAP2 PUSH2 0x1B1 JUMP JUMPDEST EQ PUSH2 0x2C90 JUMP JUMPDEST JUMP JUMPDEST SWAP1 PUSH2 0x2CF6 PUSH1 0x1 DUP1 PUSH1 0xA0 SHL SUB SWAP2 PUSH2 0x12C7 JUMP JUMPDEST SWAP2 DUP2 NOT AND SWAP2 AND OR SWAP1 JUMP JUMPDEST SWAP1 JUMP JUMPDEST SWAP1 PUSH2 0x2D18 PUSH2 0x2D13 PUSH2 0x2D1F SWAP3 PUSH2 0x563 JUMP JUMPDEST PUSH2 0x2D00 JUMP JUMPDEST DUP3 SLOAD PUSH2 0x2CE5 JUMP JUMPDEST SWAP1 SSTORE JUMP JUMPDEST PUSH2 0x2D2C PUSH0 PUSH2 0x2069 JUMP JUMPDEST PUSH2 0x2D36 DUP3 PUSH0 PUSH2 0x2D03 JUMP JUMPDEST SWAP1 PUSH2 0x2D6A PUSH2 0x2D64 PUSH32 0x8BE0079C531659141344CD1FD0A4F28419497F9722A3DAAFE3B4186F6B6457E0 SWAP4 PUSH2 0x563 JUMP JUMPDEST SWAP2 PUSH2 0x563 JUMP JUMPDEST SWAP2 PUSH2 0x2D73 PUSH2 0x194 JUMP JUMPDEST DUP1 PUSH2 0x2D7D DUP2 PUSH2 0x2C6 JUMP JUMPDEST SUB SWAP1 LOG3 JUMP JUMPDEST PUSH2 0x2D8A PUSH2 0x2051 JUMP JUMPDEST POP CALLER SWAP1 JUMP INVALID LOG2 PUSH5 0x6970667358 0x22 SLT KECCAK256 GASLIMIT 0xA6 ADDRESS MLOAD SELFDESTRUCT 0xA6 SWAP12 PUSH28 0x9EC847C19AC6932B2B5602C14D308CBE6B6E50DB7A03F53F64736F6C PUSH4 0x43000818 STOP CALLER "},"methodIdentifiers":{"BPS_DENOMINATOR()":"e1a45218","DAILY_REWARD_CAP()":"3a9a4530","KYC_MINIMUM()":"c6f7d43f","REVENUE_BURN_BPS()":"30838fbe","completeCourse(uint256)":"0d3b4292","courseCompleted(address,uint256)":"68f0db05","courseCount()":"66055159","courses(uint256)":"96f979d2","createCourse(uint256,uint256,uint256,string)":"e38e8a1b","credentialTokenId(address)":"5a764ffe","deactivateCourse(uint256)":"ac85495d","eduToken()":"8d878889","getLearnerStats(address)":"0ce12cf0","mintCredential(uint256)":"3f7c7271","owner()":"8da5cb5b","profiles(address)":"bbe15627","receivePayment(uint256)":"e2eab483","registerLearner()":"62b18a9f","renounceOwnership()":"715018a6","rewardRecipients(uint256)":"2d9fac52","setKYCTier(address,uint256)":"f67d377d","totalBurned()":"d89135cd","transferOwnership(address)":"f2fde38b"}}}}}