{"project/contracts/QuestManager.sol":{"QuestManager":{"abi":[{"inputs":[{"internalType":"address","name":"_questVerifier","type":"address"},{"internalType":"address","name":"_gameLogic","type":"address"},{"internalType":"address","name":"_gameItem","type":"address"}],"stateMutability":"nonpayable","type":"constructor"},{"anonymous":false,"inputs":[{"indexed":true,"internalType":"address","name":"previousOwner","type":"address"},{"indexed":true,"internalType":"address","name":"newOwner","type":"address"}],"name":"OwnershipTransferred","type":"event"},{"anonymous":false,"inputs":[{"indexed":true,"internalType":"uint256","name":"id","type":"uint256"},{"indexed":false,"internalType":"uint256","name":"xpReward","type":"uint256"},{"indexed":false,"internalType":"string","name":"nftUri","type":"string"}],"name":"QuestAdded","type":"event"},{"anonymous":false,"inputs":[{"indexed":true,"internalType":"address","name":"player","type":"address"},{"indexed":true,"internalType":"uint256","name":"questId","type":"uint256"},{"indexed":false,"internalType":"uint256","name":"xp","type":"uint256"}],"name":"QuestCompleted","type":"event"},{"inputs":[{"internalType":"uint256","name":"id","type":"uint256"},{"internalType":"uint256","name":"xpReward","type":"uint256"},{"internalType":"string","name":"nftUri","type":"string"}],"name":"addQuest","outputs":[],"stateMutability":"nonpayable","type":"function"},{"inputs":[{"internalType":"uint256","name":"questId","type":"uint256"},{"internalType":"bytes","name":"signature","type":"bytes"},{"internalType":"address","name":"player","type":"address"},{"internalType":"uint256","name":"deadline","type":"uint256"}],"name":"completeQuest","outputs":[],"stateMutability":"nonpayable","type":"function"},{"inputs":[{"internalType":"address","name":"","type":"address"},{"internalType":"uint256","name":"","type":"uint256"}],"name":"completed","outputs":[{"internalType":"bool","name":"","type":"bool"}],"stateMutability":"view","type":"function"},{"inputs":[],"name":"gameItem","outputs":[{"internalType":"address","name":"","type":"address"}],"stateMutability":"view","type":"function"},{"inputs":[],"name":"gameLogic","outputs":[{"internalType":"address","name":"","type":"address"}],"stateMutability":"view","type":"function"},{"inputs":[{"internalType":"uint256","name":"id","type":"uint256"}],"name":"getQuest","outputs":[{"internalType":"uint256","name":"xpReward","type":"uint256"},{"internalType":"string","name":"nftUri","type":"string"},{"internalType":"bool","name":"exists","type":"bool"}],"stateMutability":"view","type":"function"},{"inputs":[],"name":"owner","outputs":[{"internalType":"address","name":"","type":"address"}],"stateMutability":"view","type":"function"},{"inputs":[{"internalType":"address","name":"player","type":"address"},{"internalType":"uint256[]","name":"questIds","type":"uint256[]"}],"name":"purgeCompleted","outputs":[],"stateMutability":"nonpayable","type":"function"},{"inputs":[],"name":"questVerifier","outputs":[{"internalType":"address","name":"","type":"address"}],"stateMutability":"view","type":"function"},{"inputs":[{"internalType":"uint256","name":"","type":"uint256"}],"name":"quests","outputs":[{"internalType":"uint256","name":"xpReward","type":"uint256"},{"internalType":"string","name":"nftUri","type":"string"},{"internalType":"bool","name":"exists","type":"bool"}],"stateMutability":"view","type":"function"},{"inputs":[],"name":"renounceOwnership","outputs":[],"stateMutability":"nonpayable","type":"function"},{"inputs":[{"internalType":"address","name":"_verifier","type":"address"}],"name":"setQuestVerifier","outputs":[],"stateMutability":"nonpayable","type":"function"},{"inputs":[{"internalType":"address","name":"newOwner","type":"address"}],"name":"transferOwnership","outputs":[],"stateMutability":"nonpayable","type":"function"},{"inputs":[{"internalType":"bytes32","name":"digest","type":"bytes32"},{"internalType":"bytes","name":"signature","type":"bytes"}],"name":"tryRecoverSignature","outputs":[{"internalType":"bool","name":"","type":"bool"},{"internalType":"address","name":"","type":"address"}],"stateMutability":"view","type":"function"}],"evm":{"bytecode":{"linkReferences":{},"object":"60c06040523462000058576200001f6200001862000151565b9162000205565b620000296200005e565b611f5e620002f5823960805181818161012101526118a4015260a05181818161065e01526119cb0152611f5e90f35b62000064565b60405190565b5f80fd5b601f801991011690565b634e487b7160e01b5f52604160045260245ffd5b90620000929062000068565b810190811060018060401b03821117620000ab57604052565b62000072565b90620000c8620000c06200005e565b928362000086565b565b5f80fd5b60018060a01b031690565b620000e490620000ce565b90565b620000f281620000d9565b03620000fa57565b5f80fd5b905051906200010d82620000e7565b565b90916060828403126200014b57620001486200012e845f8501620000fe565b936200013e8160208601620000fe565b93604001620000fe565b90565b620000ca565b6200017462002253803803806200016881620000b1565b9283398101906200010f565b909192565b5f1b90565b906200019160018060a01b039162000179565b9181191691161790565b90565b620001b7620001b1620001bd92620000ce565b6200019b565b620000ce565b90565b620001cb906200019e565b90565b620001d990620001c0565b90565b90565b90620001f9620001f36200020192620001ce565b620001dc565b82546200017e565b9055565b6200021c906200021462000224565b6003620001df565b60805260a052565b62000238620002326200023e565b62000289565b565b5f90565b620002486200023a565b503390565b5f1c90565b60018060a01b031690565b6200026c62000272916200024d565b62000252565b90565b6200028190546200025d565b90565b5f0190565b620002945f62000275565b620002a0825f620001df565b90620002d8620002d17f8be0079c531659141344cd1fd0a4f28419497f9722a3daafe3b4186f6b6457e093620001ce565b91620001ce565b91620002e36200005e565b80620002ef8162000284565b0390a356fe60806040526004361015610013575b610c3f565b61001d5f356100fc565b8063134087a2146100f75780631ec47565146100f257806323030e8d146100ed5780632518346a146100e857806349f86f34146100e35780635650c21a146100de5780635e8e9cd6146100d9578063715018a6146100d45780638da5cb5b146100cf5780639ded9497146100ca578063a14318b4146100c5578063aa995c2c146100c0578063e085f980146100bb5763f2fde38b0361000e57610c0c565b610bd4565b610a01565b6108bc565b6107f7565b6106e8565b6106b5565b610680565b610629565b6105d3565b6104cc565b6103bc565b6101f5565b61017c565b60e01c90565b60405190565b5f80fd5b5f80fd5b5f91031261011a57565b61010c565b7f000000000000000000000000000000000000000000000000000000000000000090565b60018060a01b031690565b61015790610143565b90565b6101639061014e565b9052565b919061017a905f6020850194019061015a565b565b346101ac5761018c366004610110565b6101a861019761011f565b61019f610102565b91829182610167565b0390f35b610108565b1c90565b60018060a01b031690565b6101d09060086101d593026101b1565b6101b5565b90565b906101e391546101c0565b90565b6101f260035f906101d8565b90565b3461022557610205366004610110565b6102216102106101e6565b610218610102565b91829182610167565b0390f35b610108565b5f80fd5b6102378161014e565b0361023e57565b5f80fd5b9050359061024f8261022e565b565b5f80fd5b601f801991011690565b634e487b7160e01b5f52604160045260245ffd5b9061027d90610255565b810190811067ffffffffffffffff82111761029757604052565b61025f565b906102af6102a8610102565b9283610273565b565b67ffffffffffffffff81116102c95760208091020190565b61025f565b5f80fd5b90565b6102de816102d2565b036102e557565b5f80fd5b905035906102f6826102d5565b565b9092919261030d610308826102b1565b61029c565b938185526020808601920283019281841161034a57915b8383106103315750505050565b6020809161033f84866102e9565b815201920191610324565b6102ce565b9080601f8301121561036d5781602061036a933591016102f8565b90565b610251565b9190916040818403126103b25761038b835f8301610242565b92602082013567ffffffffffffffff81116103ad576103aa920161034f565b90565b61022a565b61010c565b5f0190565b346103eb576103d56103cf366004610372565b90610d86565b6103dd610102565b806103e7816103b7565b0390f35b610108565b5f80fd5b67ffffffffffffffff81116104125761040e602091610255565b0190565b61025f565b90825f939282370152565b90929192610437610432826103f4565b61029c565b938185526020850190828401116104535761045192610417565b565b6103f0565b9080601f830112156104765781602061047393359101610422565b90565b610251565b916060838303126104c757610492825f85016102e9565b926104a083602083016102e9565b92604082013567ffffffffffffffff81116104c2576104bf9201610458565b90565b61022a565b61010c565b346104fb576104e56104df36600461047b565b9161110b565b6104ed610102565b806104f7816103b7565b0390f35b610108565b9060208282031261051957610516915f016102e9565b90565b61010c565b610527906102d2565b9052565b5190565b60209181520190565b5f5b83811061054a575050905f910152565b80602091830151818501520161053a565b61057a610583602093610588936105718161052b565b9384809361052f565b95869101610538565b610255565b0190565b151590565b61059a9061058c565b9052565b9392906105c96040916105d1946105bc60608901925f8a019061051e565b878203602089015261055b565b940190610591565b565b34610606576106026105ee6105e9366004610500565b611130565b6105f9939193610102565b9384938461059e565b0390f35b610108565b9060208282031261062457610621915f01610242565b90565b61010c565b346106575761064161063c36600461060b565b6111e7565b610649610102565b80610653816103b7565b0390f35b610108565b7f000000000000000000000000000000000000000000000000000000000000000090565b346106b057610690366004610110565b6106ac61069b61065c565b6106a3610102565b91829182610167565b0390f35b610108565b346106e3576106c5366004610110565b6106cd61123f565b6106d5610102565b806106df816103b7565b0390f35b610108565b34610718576106f8366004610110565b61071461070361126e565b61070b610102565b91829182610167565b0390f35b610108565b67ffffffffffffffff811161073b57610737602091610255565b0190565b61025f565b909291926107556107508261071d565b61029c565b938185526020850190828401116107715761076f92610417565b565b6103f0565b9080601f830112156107945781602061079193359101610740565b90565b610251565b6080818303126107f2576107af825f83016102e9565b92602082013567ffffffffffffffff81116107ed576107d3846107ea928501610776565b936107e18160408601610242565b936060016102e9565b90565b61022a565b61010c565b346108295761081361080a366004610799565b9291909161177c565b61081b610102565b80610825816103b7565b0390f35b610108565b90565b61083a8161082e565b0361084157565b5f80fd5b9050359061085282610831565b565b9190916040818403126108945761086d835f8301610845565b92602082013567ffffffffffffffff811161088f5761088c9201610776565b90565b61022a565b61010c565b9160206108ba9294936108b360408201965f830190610591565b019061015a565b565b346108ee576108d56108cf366004610854565b90611bce565b906108ea6108e1610102565b92839283610899565b0390f35b610108565b919060408382031261091b578061090f610918925f8601610242565b936020016102e9565b90565b61010c565b90565b61093761093261093c92610143565b610920565b610143565b90565b61094890610923565b90565b6109549061093f565b90565b906109619061094b565b5f5260205260405f2090565b61098161097c610986926102d2565b610920565b6102d2565b90565b906109939061096d565b5f5260205260405f2090565b60ff1690565b6109b59060086109ba93026101b1565b61099f565b90565b906109c891546109a5565b90565b6109e46109e9926109df6002935f94610957565b610989565b6109bd565b90565b91906109ff905f60208501940190610591565b565b34610a3257610a2e610a1d610a173660046108f3565b906109cb565b610a25610102565b918291826109ec565b0390f35b610108565b90610a419061096d565b5f5260205260405f2090565b5f1c90565b90565b610a61610a6691610a4d565b610a52565b90565b610a739054610a55565b90565b634e487b7160e01b5f52602260045260245ffd5b9060016002830492168015610aaa575b6020831014610aa557565b610a76565b91607f1691610a9a565b60209181520190565b5f5260205f2090565b905f9291805490610ae0610ad983610a8a565b8094610ab4565b916001811690815f14610b375750600114610afb575b505050565b610b089192939450610abd565b915f925b818410610b1f57505001905f8080610af6565b60018160209295939554848601520191019290610b0c565b92949550505060ff19168252151560200201905f8080610af6565b90610b5c91610ac6565b90565b90610b7f610b7892610b6f610102565b93848092610b52565b0383610273565b565b610b8d610b9291610a4d565b61099f565b90565b610b9f9054610b81565b90565b610bad906001610a37565b610bb85f8201610a69565b91610bd16002610bca60018501610b5f565b9301610b95565b90565b34610c0757610c03610bef610bea366004610500565b610ba2565b610bfa939193610102565b9384938461059e565b0390f35b610108565b34610c3a57610c24610c1f36600461060b565b611e04565b610c2c610102565b80610c36816103b7565b0390f35b610108565b5f80fd5b90610c5591610c50611e90565b610d14565b565b90565b610c6e610c69610c7392610c57565b610920565b6102d2565b90565b6001610c8291016102d2565b90565b5190565b634e487b7160e01b5f52603260045260245ffd5b90610ca782610c85565b811015610cb8576020809102010190565b610c89565b610cc790516102d2565b90565b5f1b90565b90610cdb60ff91610cca565b9181191691161790565b610cee9061058c565b90565b90565b90610d09610d04610d1092610ce5565b610cf1565b8254610ccf565b9055565b9190610d1f5f610c5a565b5b80610d3b610d35610d3085610c85565b6102d2565b916102d2565b1015610d8057610d7b90610d765f610d71610d5860028990610957565b610d6b610d66888790610c9d565b610cbd565b90610989565b610cf4565b610c76565b610d20565b50509050565b90610d9091610c43565b565b90610da59291610da0611e90565b611080565b565b610db1606061029c565b90565b90610dbe906102d2565b9052565b52565b90610dcf9061058c565b9052565b90610ddf5f1991610cca565b9181191691161790565b90565b90610e01610dfc610e089261096d565b610de9565b8254610dd3565b9055565b5190565b601f602091010490565b1b90565b91906008610e39910291610e335f1984610e1a565b92610e1a565b9181191691161790565b9190610e59610e54610e619361096d565b610de9565b908354610e1e565b9055565b5f90565b610e7b91610e75610e65565b91610e43565b565b5b818110610e89575050565b80610e965f600193610e69565b01610e7e565b9190601f8111610eac575b505050565b610eb8610edd93610abd565b906020610ec484610e10565b83019310610ee5575b610ed690610e10565b0190610e7d565b5f8080610ea7565b9150610ed681929050610ecd565b90610f03905f19906008026101b1565b191690565b81610f1291610ef3565b906002021790565b90610f248161052b565b9067ffffffffffffffff8211610fe457610f4882610f428554610a8a565b85610e9c565b602090601f8311600114610f7c57918091610f6b935f92610f70575b5050610f08565b90555b565b90915001515f80610f64565b601f19831691610f8b85610abd565b925f5b818110610fcc57509160029391856001969410610fb2575b50505002019055610f6e565b610fc2910151601f841690610ef3565b90555f8080610fa6565b91936020600181928787015181550195019201610f8e565b61025f565b90610ff391610f1a565b565b610fff905161058c565b90565b906110466040600261104c946110255f820161101f5f8801610cbd565b90610dec565b61103e6001820161103860208801610e0c565b90610fe9565b019201610ff5565b90610cf4565b565b9061105891611002565b565b9161107d9261107060408201935f83019061051e565b602081840391015261055b565b90565b6110c5826110b4856110ab6001916110a2611099610da7565b955f8701610db4565b60208501610dc2565b60408301610dc5565b6110c060018490610a37565b61104e565b90916110f17f3f3b043ccf981924460cd915d86f95544a797e1717c30a919b7e3bc0b212a3669261096d565b926111066110fd610102565b9283928361105a565b0390a2565b906111169291610d92565b565b606090565b5f90565b90565b61112d90610b5f565b90565b61115961115e9161113f610e65565b50611148611118565b5061115161111d565b506001610a37565b611121565b9061116a5f8301610a69565b9061118561117e6002600186019501610b95565b9293611124565b9190565b61119a90611195611e90565b6111da565b565b906111ad60018060a01b0391610cca565b9181191691161790565b90565b906111cf6111ca6111d69261094b565b6111b7565b825461119c565b9055565b6111e59060036111ba565b565b6111f090611189565b565b6111fa611e90565b61120261122c565b565b61121861121361121d92610c57565b610920565b610143565b90565b61122990611204565b90565b61123d6112385f611220565b611ebc565b565b6112476111f2565b565b5f90565b61125961125e91610a4d565b6101b5565b90565b61126b905461124d565b90565b611276611249565b506112805f611261565b90565b5f7f5175657374206e6f7420666f756e640000000000000000000000000000000000910152565b6112b7600f60209261052f565b6112c081611283565b0190565b6112d99060208101905f8183039101526112aa565b90565b156112e357565b6112eb610102565b62461bcd60e51b815280611301600482016112c4565b0390fd5b5f7f4578706972656400000000000000000000000000000000000000000000000000910152565b611339600760209261052f565b61134281611305565b0190565b61135b9060208101905f81830391015261132c565b90565b1561136557565b61136d610102565b62461bcd60e51b81528061138360048201611346565b0390fd5b5f7f416c726561647920636f6d706c65746564000000000000000000000000000000910152565b6113bb601160209261052f565b6113c481611387565b0190565b6113dd9060208101905f8183039101526113ae565b90565b156113e757565b6113ef610102565b62461bcd60e51b815280611405600482016113c8565b0390fd5b60601b90565b61141890611409565b90565b6114249061140f565b90565b6114336114389161014e565b61141b565b9052565b90565b61144b611450916102d2565b61143c565b9052565b6020939261147460148361146c889561147c97611427565b01809261143f565b01809261143f565b0190565b60200190565b5190565b6114939061093f565b90565b5f80fd5b60e01b90565b6114a98161058c565b036114b057565b5f80fd5b905051906114c1826114a0565b565b905051906114d08261022e565b565b91906040838203126114fa57806114ee6114f7925f86016114b4565b936020016114c3565b90565b61010c565b6115089061082e565b9052565b60209181520190565b61153461153d6020936115429361152b81611486565b9384809361150c565b95869101610538565b610255565b0190565b916115699261155c60408201935f8301906114ff565b6020818403910152611515565b90565b611574610102565b3d5f823e3d90fd5b5f7f496e76616c6964207369676e6174757265000000000000000000000000000000910152565b6115b0601160209261052f565b6115b98161157c565b0190565b6115d29060208101905f8183039101526115a3565b90565b156115dc57565b6115e4610102565b62461bcd60e51b8152806115fa600482016115bd565b0390fd5b61160790610923565b90565b611613906115fe565b90565b61161f9061093f565b90565b5f91031261162c57565b61010c565b91602061165292949361164b60408201965f83019061015a565b019061051e565b565b90565b6116619054610a8a565b90565b61166d90610923565b90565b61167990611664565b90565b6116859061093f565b90565b90505190611695826102d5565b565b906020828203126116b0576116ad915f01611688565b90565b61010c565b905f92918054906116cf6116c883610a8a565b809461052f565b916001811690815f1461172657506001146116ea575b505050565b6116f79192939450610abd565b915f925b81841061170e57505001905f80806116e5565b600181602092959395548486015201910192906116fb565b92949550505060ff19168252151560200201905f80806116e5565b916117649261175760408201935f83019061015a565b60208184039101526116b5565b90565b919061177a905f6020850194019061051e565b565b9260409061179f61179a600261179460018990610a37565b01610b95565b6112dc565b6117bc426117b56117af846102d2565b916102d2565b111561135e565b6117eb6117e66117e06117db6117d460028990610957565b8990610989565b610b95565b1561058c565b6113e0565b6118178461180887936117fc610102565b94859360208501611454565b60208201810382520382610273565b61182961182382611486565b91611480565b20916118343061148a565b61185663a14318b494929461186161184a610102565b9687958694859461149a565b845260048401611546565b03915afa8015611adc5761187c915f91611aaf575b506115d5565b61189c600161189761189060028590610957565b8590610989565b610cf4565b6118cd6118c87f000000000000000000000000000000000000000000000000000000000000000061160a565b611616565b630551e88d826118e95f6118e360018890610a37565b01610a69565b92803b15611aaa5761190e5f8094611919611902610102565b9788968795869461149a565b845260048401611631565b03925af18015611aa557611a79575b50611947611942600161193c818690610a37565b01611654565b611657565b6119596119535f610c5a565b916102d2565b116119c3575b906119755f61196f836001610a37565b01610a69565b916119be6119ac6119a67fe0b5124b12e878158288d1002ed1fb960faff0ec1c7b3168f86d9d1afd1b0d8b9361094b565b9361096d565b936119b5610102565b91829182611767565b0390a3565b6119f46119ef7f0000000000000000000000000000000000000000000000000000000000000000611670565b61167c565b602063d0def521918390611a285f6001611a0f818a90610a37565b0195611a33611a1c610102565b9788968795869461149a565b845260048401611741565b03925af18015611a7457611a48575b5061195f565b611a689060203d8111611a6d575b611a608183610273565b810190611697565b611a42565b503d611a56565b61156c565b611a98905f3d8111611a9e575b611a908183610273565b810190611622565b5f611928565b503d611a86565b61156c565b611496565b611ad0915060403d8111611ad5575b611ac88183610273565b8101906114d2565b611876565b503d611abe565b61156c565b90565b611af8611af3611afd92611ae1565b610920565b6102d2565b90565b5f90565b5f90565b60ff1690565b90565b611b25611b20611b2a92611b0e565b610920565b611b08565b90565b634e487b7160e01b5f52601160045260245ffd5b611b4d611b5391611b08565b91611b08565b019060ff8211611b5f57565b611b2d565b90565b611b7b611b76611b8092611b64565b610920565b611b08565b90565b611b8c90611b08565b9052565b611bc5611bcc94611bbb606094989795611bb1608086019a5f8701906114ff565b6020850190611b83565b60408301906114ff565b01906114ff565b565b90611bd761111d565b50611be0611249565b50611bea81611486565b611bfd611bf76041611ae4565b916102d2565b03611d0957611c0a611b00565b50611c13611b00565b50611c1c611b04565b506020810151606060408301519201515f1a80611c42611c3c601b611b11565b91611b08565b10611cf0575b80611c5c611c56601b611b11565b91611b08565b141580611cd4575b611cc257611c835f936020959293611c7a610102565b94859485611b90565b838052039060015afa15611cbd57611c9b5f51610cca565b9081611cb8611cb2611cad6003611261565b61014e565b9161014e565b149190565b61156c565b505050505f90611cd15f611220565b90565b5080611ce9611ce3601c611b67565b91611b08565b1415611c64565b611d0490611cfe601b611b11565b90611b41565b611c48565b50505f90611d165f611220565b90565b611d2a90611d25611e90565b611dd4565b565b60207f6464726573730000000000000000000000000000000000000000000000000000917f4f776e61626c653a206e6577206f776e657220697320746865207a65726f20615f8201520152565b611d86602660409261052f565b611d8f81611d2c565b0190565b611da89060208101905f818303910152611d79565b90565b15611db257565b611dba610102565b62461bcd60e51b815280611dd060048201611d93565b0390fd5b611e0290611dfd81611df6611df0611deb5f611220565b61014e565b9161014e565b1415611dab565b611ebc565b565b611e0d90611d19565b565b5f7f4f776e61626c653a2063616c6c6572206973206e6f7420746865206f776e6572910152565b611e426020809261052f565b611e4b81611e0f565b0190565b611e649060208101905f818303910152611e36565b90565b15611e6e57565b611e76610102565b62461bcd60e51b815280611e8c60048201611e4f565b0390fd5b611eba611e9b61126e565b611eb4611eae611ea9611f1b565b61014e565b9161014e565b14611e67565b565b611ec55f611261565b611ecf825f6111ba565b90611f03611efd7f8be0079c531659141344cd1fd0a4f28419497f9722a3daafe3b4186f6b6457e09361094b565b9161094b565b91611f0c610102565b80611f16816103b7565b0390a3565b611f23611249565b50339056fea26469706673582212201c080f1ce59b00dfe277a40a2bbb994718573083cec1c2fc36e70c291a2f41b364736f6c63430008180033","opcodes":"PUSH1 0xC0 PUSH1 0x40 MSTORE CALLVALUE PUSH3 0x58 JUMPI PUSH3 0x1F PUSH3 0x18 PUSH3 0x151 JUMP JUMPDEST SWAP2 PUSH3 0x205 JUMP JUMPDEST PUSH3 0x29 PUSH3 0x5E JUMP JUMPDEST PUSH2 0x1F5E PUSH3 0x2F5 DUP3 CODECOPY PUSH1 0x80 MLOAD DUP2 DUP2 DUP2 PUSH2 0x121 ADD MSTORE PUSH2 0x18A4 ADD MSTORE PUSH1 0xA0 MLOAD DUP2 DUP2 DUP2 PUSH2 0x65E ADD MSTORE PUSH2 0x19CB ADD MSTORE PUSH2 0x1F5E SWAP1 RETURN JUMPDEST PUSH3 0x64 JUMP JUMPDEST PUSH1 0x40 MLOAD SWAP1 JUMP JUMPDEST PUSH0 DUP1 REVERT JUMPDEST PUSH1 0x1F DUP1 NOT SWAP2 ADD AND SWAP1 JUMP JUMPDEST PUSH4 0x4E487B71 PUSH1 0xE0 SHL PUSH0 MSTORE PUSH1 0x41 PUSH1 0x4 MSTORE PUSH1 0x24 PUSH0 REVERT JUMPDEST SWAP1 PUSH3 0x92 SWAP1 PUSH3 0x68 JUMP JUMPDEST DUP2 ADD SWAP1 DUP2 LT PUSH1 0x1 DUP1 PUSH1 0x40 SHL SUB DUP3 GT OR PUSH3 0xAB JUMPI PUSH1 0x40 MSTORE JUMP JUMPDEST PUSH3 0x72 JUMP JUMPDEST SWAP1 PUSH3 0xC8 PUSH3 0xC0 PUSH3 0x5E JUMP JUMPDEST SWAP3 DUP4 PUSH3 0x86 JUMP JUMPDEST JUMP JUMPDEST PUSH0 DUP1 REVERT JUMPDEST PUSH1 0x1 DUP1 PUSH1 0xA0 SHL SUB AND SWAP1 JUMP JUMPDEST PUSH3 0xE4 SWAP1 PUSH3 0xCE JUMP JUMPDEST SWAP1 JUMP JUMPDEST PUSH3 0xF2 DUP2 PUSH3 0xD9 JUMP JUMPDEST SUB PUSH3 0xFA JUMPI JUMP JUMPDEST PUSH0 DUP1 REVERT JUMPDEST SWAP1 POP MLOAD SWAP1 PUSH3 0x10D DUP3 PUSH3 0xE7 JUMP JUMPDEST JUMP JUMPDEST SWAP1 SWAP2 PUSH1 0x60 DUP3 DUP5 SUB SLT PUSH3 0x14B JUMPI PUSH3 0x148 PUSH3 0x12E DUP5 PUSH0 DUP6 ADD PUSH3 0xFE JUMP JUMPDEST SWAP4 PUSH3 0x13E DUP2 PUSH1 0x20 DUP7 ADD PUSH3 0xFE JUMP JUMPDEST SWAP4 PUSH1 0x40 ADD PUSH3 0xFE JUMP JUMPDEST SWAP1 JUMP JUMPDEST PUSH3 0xCA JUMP JUMPDEST PUSH3 0x174 PUSH3 0x2253 DUP1 CODESIZE SUB DUP1 PUSH3 0x168 DUP2 PUSH3 0xB1 JUMP JUMPDEST SWAP3 DUP4 CODECOPY DUP2 ADD SWAP1 PUSH3 0x10F JUMP JUMPDEST SWAP1 SWAP2 SWAP3 JUMP JUMPDEST PUSH0 SHL SWAP1 JUMP JUMPDEST SWAP1 PUSH3 0x191 PUSH1 0x1 DUP1 PUSH1 0xA0 SHL SUB SWAP2 PUSH3 0x179 JUMP JUMPDEST SWAP2 DUP2 NOT AND SWAP2 AND OR SWAP1 JUMP JUMPDEST SWAP1 JUMP JUMPDEST PUSH3 0x1B7 PUSH3 0x1B1 PUSH3 0x1BD SWAP3 PUSH3 0xCE JUMP JUMPDEST PUSH3 0x19B JUMP JUMPDEST PUSH3 0xCE JUMP JUMPDEST SWAP1 JUMP JUMPDEST PUSH3 0x1CB SWAP1 PUSH3 0x19E JUMP JUMPDEST SWAP1 JUMP JUMPDEST PUSH3 0x1D9 SWAP1 PUSH3 0x1C0 JUMP JUMPDEST SWAP1 JUMP JUMPDEST SWAP1 JUMP JUMPDEST SWAP1 PUSH3 0x1F9 PUSH3 0x1F3 PUSH3 0x201 SWAP3 PUSH3 0x1CE JUMP JUMPDEST PUSH3 0x1DC JUMP JUMPDEST DUP3 SLOAD PUSH3 0x17E JUMP JUMPDEST SWAP1 SSTORE JUMP JUMPDEST PUSH3 0x21C SWAP1 PUSH3 0x214 PUSH3 0x224 JUMP JUMPDEST PUSH1 0x3 PUSH3 0x1DF JUMP JUMPDEST PUSH1 0x80 MSTORE PUSH1 0xA0 MSTORE JUMP JUMPDEST PUSH3 0x238 PUSH3 0x232 PUSH3 0x23E JUMP JUMPDEST PUSH3 0x289 JUMP JUMPDEST JUMP JUMPDEST PUSH0 SWAP1 JUMP JUMPDEST PUSH3 0x248 PUSH3 0x23A JUMP JUMPDEST POP CALLER SWAP1 JUMP JUMPDEST PUSH0 SHR SWAP1 JUMP JUMPDEST PUSH1 0x1 DUP1 PUSH1 0xA0 SHL SUB AND SWAP1 JUMP JUMPDEST PUSH3 0x26C PUSH3 0x272 SWAP2 PUSH3 0x24D JUMP JUMPDEST PUSH3 0x252 JUMP JUMPDEST SWAP1 JUMP JUMPDEST PUSH3 0x281 SWAP1 SLOAD PUSH3 0x25D JUMP JUMPDEST SWAP1 JUMP JUMPDEST PUSH0 ADD SWAP1 JUMP JUMPDEST PUSH3 0x294 PUSH0 PUSH3 0x275 JUMP JUMPDEST PUSH3 0x2A0 DUP3 PUSH0 PUSH3 0x1DF JUMP JUMPDEST SWAP1 PUSH3 0x2D8 PUSH3 0x2D1 PUSH32 0x8BE0079C531659141344CD1FD0A4F28419497F9722A3DAAFE3B4186F6B6457E0 SWAP4 PUSH3 0x1CE JUMP JUMPDEST SWAP2 PUSH3 0x1CE JUMP JUMPDEST SWAP2 PUSH3 0x2E3 PUSH3 0x5E JUMP JUMPDEST DUP1 PUSH3 0x2EF DUP2 PUSH3 0x284 JUMP JUMPDEST SUB SWAP1 LOG3 JUMP INVALID PUSH1 0x80 PUSH1 0x40 MSTORE PUSH1 0x4 CALLDATASIZE LT ISZERO PUSH2 0x13 JUMPI JUMPDEST PUSH2 0xC3F JUMP JUMPDEST PUSH2 0x1D PUSH0 CALLDATALOAD PUSH2 0xFC JUMP JUMPDEST DUP1 PUSH4 0x134087A2 EQ PUSH2 0xF7 JUMPI DUP1 PUSH4 0x1EC47565 EQ PUSH2 0xF2 JUMPI DUP1 PUSH4 0x23030E8D EQ PUSH2 0xED JUMPI DUP1 PUSH4 0x2518346A EQ PUSH2 0xE8 JUMPI DUP1 PUSH4 0x49F86F34 EQ PUSH2 0xE3 JUMPI DUP1 PUSH4 0x5650C21A EQ PUSH2 0xDE JUMPI DUP1 PUSH4 0x5E8E9CD6 EQ PUSH2 0xD9 JUMPI DUP1 PUSH4 0x715018A6 EQ PUSH2 0xD4 JUMPI DUP1 PUSH4 0x8DA5CB5B EQ PUSH2 0xCF JUMPI DUP1 PUSH4 0x9DED9497 EQ PUSH2 0xCA JUMPI DUP1 PUSH4 0xA14318B4 EQ PUSH2 0xC5 JUMPI DUP1 PUSH4 0xAA995C2C EQ PUSH2 0xC0 JUMPI DUP1 PUSH4 0xE085F980 EQ PUSH2 0xBB JUMPI PUSH4 0xF2FDE38B SUB PUSH2 0xE JUMPI PUSH2 0xC0C JUMP JUMPDEST PUSH2 0xBD4 JUMP JUMPDEST PUSH2 0xA01 JUMP JUMPDEST PUSH2 0x8BC JUMP JUMPDEST PUSH2 0x7F7 JUMP JUMPDEST PUSH2 0x6E8 JUMP JUMPDEST PUSH2 0x6B5 JUMP JUMPDEST PUSH2 0x680 JUMP JUMPDEST PUSH2 0x629 JUMP JUMPDEST PUSH2 0x5D3 JUMP JUMPDEST PUSH2 0x4CC JUMP JUMPDEST PUSH2 0x3BC JUMP JUMPDEST PUSH2 0x1F5 JUMP JUMPDEST PUSH2 0x17C JUMP JUMPDEST PUSH1 0xE0 SHR SWAP1 JUMP JUMPDEST PUSH1 0x40 MLOAD SWAP1 JUMP JUMPDEST PUSH0 DUP1 REVERT JUMPDEST PUSH0 DUP1 REVERT JUMPDEST PUSH0 SWAP2 SUB SLT PUSH2 0x11A JUMPI JUMP JUMPDEST PUSH2 0x10C JUMP JUMPDEST PUSH32 0x0 SWAP1 JUMP JUMPDEST PUSH1 0x1 DUP1 PUSH1 0xA0 SHL SUB AND SWAP1 JUMP JUMPDEST PUSH2 0x157 SWAP1 PUSH2 0x143 JUMP JUMPDEST SWAP1 JUMP JUMPDEST PUSH2 0x163 SWAP1 PUSH2 0x14E JUMP JUMPDEST SWAP1 MSTORE JUMP JUMPDEST SWAP2 SWAP1 PUSH2 0x17A SWAP1 PUSH0 PUSH1 0x20 DUP6 ADD SWAP5 ADD SWAP1 PUSH2 0x15A JUMP JUMPDEST JUMP JUMPDEST CALLVALUE PUSH2 0x1AC JUMPI PUSH2 0x18C CALLDATASIZE PUSH1 0x4 PUSH2 0x110 JUMP JUMPDEST PUSH2 0x1A8 PUSH2 0x197 PUSH2 0x11F JUMP JUMPDEST PUSH2 0x19F PUSH2 0x102 JUMP JUMPDEST SWAP2 DUP3 SWAP2 DUP3 PUSH2 0x167 JUMP JUMPDEST SUB SWAP1 RETURN JUMPDEST PUSH2 0x108 JUMP JUMPDEST SHR SWAP1 JUMP JUMPDEST PUSH1 0x1 DUP1 PUSH1 0xA0 SHL SUB AND SWAP1 JUMP JUMPDEST PUSH2 0x1D0 SWAP1 PUSH1 0x8 PUSH2 0x1D5 SWAP4 MUL PUSH2 0x1B1 JUMP JUMPDEST PUSH2 0x1B5 JUMP JUMPDEST SWAP1 JUMP JUMPDEST SWAP1 PUSH2 0x1E3 SWAP2 SLOAD PUSH2 0x1C0 JUMP JUMPDEST SWAP1 JUMP JUMPDEST PUSH2 0x1F2 PUSH1 0x3 PUSH0 SWAP1 PUSH2 0x1D8 JUMP JUMPDEST SWAP1 JUMP JUMPDEST CALLVALUE PUSH2 0x225 JUMPI PUSH2 0x205 CALLDATASIZE PUSH1 0x4 PUSH2 0x110 JUMP JUMPDEST PUSH2 0x221 PUSH2 0x210 PUSH2 0x1E6 JUMP JUMPDEST PUSH2 0x218 PUSH2 0x102 JUMP JUMPDEST SWAP2 DUP3 SWAP2 DUP3 PUSH2 0x167 JUMP JUMPDEST SUB SWAP1 RETURN JUMPDEST PUSH2 0x108 JUMP JUMPDEST PUSH0 DUP1 REVERT JUMPDEST PUSH2 0x237 DUP2 PUSH2 0x14E JUMP JUMPDEST SUB PUSH2 0x23E JUMPI JUMP JUMPDEST PUSH0 DUP1 REVERT JUMPDEST SWAP1 POP CALLDATALOAD SWAP1 PUSH2 0x24F DUP3 PUSH2 0x22E JUMP JUMPDEST JUMP JUMPDEST PUSH0 DUP1 REVERT JUMPDEST PUSH1 0x1F DUP1 NOT SWAP2 ADD AND SWAP1 JUMP JUMPDEST PUSH4 0x4E487B71 PUSH1 0xE0 SHL PUSH0 MSTORE PUSH1 0x41 PUSH1 0x4 MSTORE PUSH1 0x24 PUSH0 REVERT JUMPDEST SWAP1 PUSH2 0x27D SWAP1 PUSH2 0x255 JUMP JUMPDEST DUP2 ADD SWAP1 DUP2 LT PUSH8 0xFFFFFFFFFFFFFFFF DUP3 GT OR PUSH2 0x297 JUMPI PUSH1 0x40 MSTORE JUMP JUMPDEST PUSH2 0x25F JUMP JUMPDEST SWAP1 PUSH2 0x2AF PUSH2 0x2A8 PUSH2 0x102 JUMP JUMPDEST SWAP3 DUP4 PUSH2 0x273 JUMP JUMPDEST JUMP JUMPDEST PUSH8 0xFFFFFFFFFFFFFFFF DUP2 GT PUSH2 0x2C9 JUMPI PUSH1 0x20 DUP1 SWAP2 MUL ADD SWAP1 JUMP JUMPDEST PUSH2 0x25F JUMP JUMPDEST PUSH0 DUP1 REVERT JUMPDEST SWAP1 JUMP JUMPDEST PUSH2 0x2DE DUP2 PUSH2 0x2D2 JUMP JUMPDEST SUB PUSH2 0x2E5 JUMPI JUMP JUMPDEST PUSH0 DUP1 REVERT JUMPDEST SWAP1 POP CALLDATALOAD SWAP1 PUSH2 0x2F6 DUP3 PUSH2 0x2D5 JUMP JUMPDEST JUMP JUMPDEST SWAP1 SWAP3 SWAP2 SWAP3 PUSH2 0x30D PUSH2 0x308 DUP3 PUSH2 0x2B1 JUMP JUMPDEST PUSH2 0x29C JUMP JUMPDEST SWAP4 DUP2 DUP6 MSTORE PUSH1 0x20 DUP1 DUP7 ADD SWAP3 MUL DUP4 ADD SWAP3 DUP2 DUP5 GT PUSH2 0x34A JUMPI SWAP2 JUMPDEST DUP4 DUP4 LT PUSH2 0x331 JUMPI POP POP POP POP JUMP JUMPDEST PUSH1 0x20 DUP1 SWAP2 PUSH2 0x33F DUP5 DUP7 PUSH2 0x2E9 JUMP JUMPDEST DUP2 MSTORE ADD SWAP3 ADD SWAP2 PUSH2 0x324 JUMP JUMPDEST PUSH2 0x2CE JUMP JUMPDEST SWAP1 DUP1 PUSH1 0x1F DUP4 ADD SLT ISZERO PUSH2 0x36D JUMPI DUP2 PUSH1 0x20 PUSH2 0x36A SWAP4 CALLDATALOAD SWAP2 ADD PUSH2 0x2F8 JUMP JUMPDEST SWAP1 JUMP JUMPDEST PUSH2 0x251 JUMP JUMPDEST SWAP2 SWAP1 SWAP2 PUSH1 0x40 DUP2 DUP5 SUB SLT PUSH2 0x3B2 JUMPI PUSH2 0x38B DUP4 PUSH0 DUP4 ADD PUSH2 0x242 JUMP JUMPDEST SWAP3 PUSH1 0x20 DUP3 ADD CALLDATALOAD PUSH8 0xFFFFFFFFFFFFFFFF DUP2 GT PUSH2 0x3AD JUMPI PUSH2 0x3AA SWAP3 ADD PUSH2 0x34F JUMP JUMPDEST SWAP1 JUMP JUMPDEST PUSH2 0x22A JUMP JUMPDEST PUSH2 0x10C JUMP JUMPDEST PUSH0 ADD SWAP1 JUMP JUMPDEST CALLVALUE PUSH2 0x3EB JUMPI PUSH2 0x3D5 PUSH2 0x3CF CALLDATASIZE PUSH1 0x4 PUSH2 0x372 JUMP JUMPDEST SWAP1 PUSH2 0xD86 JUMP JUMPDEST PUSH2 0x3DD PUSH2 0x102 JUMP JUMPDEST DUP1 PUSH2 0x3E7 DUP2 PUSH2 0x3B7 JUMP JUMPDEST SUB SWAP1 RETURN JUMPDEST PUSH2 0x108 JUMP JUMPDEST PUSH0 DUP1 REVERT JUMPDEST PUSH8 0xFFFFFFFFFFFFFFFF DUP2 GT PUSH2 0x412 JUMPI PUSH2 0x40E PUSH1 0x20 SWAP2 PUSH2 0x255 JUMP JUMPDEST ADD SWAP1 JUMP JUMPDEST PUSH2 0x25F JUMP JUMPDEST SWAP1 DUP3 PUSH0 SWAP4 SWAP3 DUP3 CALLDATACOPY ADD MSTORE JUMP JUMPDEST SWAP1 SWAP3 SWAP2 SWAP3 PUSH2 0x437 PUSH2 0x432 DUP3 PUSH2 0x3F4 JUMP JUMPDEST PUSH2 0x29C JUMP JUMPDEST SWAP4 DUP2 DUP6 MSTORE PUSH1 0x20 DUP6 ADD SWAP1 DUP3 DUP5 ADD GT PUSH2 0x453 JUMPI PUSH2 0x451 SWAP3 PUSH2 0x417 JUMP JUMPDEST JUMP JUMPDEST PUSH2 0x3F0 JUMP JUMPDEST SWAP1 DUP1 PUSH1 0x1F DUP4 ADD SLT ISZERO PUSH2 0x476 JUMPI DUP2 PUSH1 0x20 PUSH2 0x473 SWAP4 CALLDATALOAD SWAP2 ADD PUSH2 0x422 JUMP JUMPDEST SWAP1 JUMP JUMPDEST PUSH2 0x251 JUMP JUMPDEST SWAP2 PUSH1 0x60 DUP4 DUP4 SUB SLT PUSH2 0x4C7 JUMPI PUSH2 0x492 DUP3 PUSH0 DUP6 ADD PUSH2 0x2E9 JUMP JUMPDEST SWAP3 PUSH2 0x4A0 DUP4 PUSH1 0x20 DUP4 ADD PUSH2 0x2E9 JUMP JUMPDEST SWAP3 PUSH1 0x40 DUP3 ADD CALLDATALOAD PUSH8 0xFFFFFFFFFFFFFFFF DUP2 GT PUSH2 0x4C2 JUMPI PUSH2 0x4BF SWAP3 ADD PUSH2 0x458 JUMP JUMPDEST SWAP1 JUMP JUMPDEST PUSH2 0x22A JUMP JUMPDEST PUSH2 0x10C JUMP JUMPDEST CALLVALUE PUSH2 0x4FB JUMPI PUSH2 0x4E5 PUSH2 0x4DF CALLDATASIZE PUSH1 0x4 PUSH2 0x47B JUMP JUMPDEST SWAP2 PUSH2 0x110B JUMP JUMPDEST PUSH2 0x4ED PUSH2 0x102 JUMP JUMPDEST DUP1 PUSH2 0x4F7 DUP2 PUSH2 0x3B7 JUMP JUMPDEST SUB SWAP1 RETURN JUMPDEST PUSH2 0x108 JUMP JUMPDEST SWAP1 PUSH1 0x20 DUP3 DUP3 SUB SLT PUSH2 0x519 JUMPI PUSH2 0x516 SWAP2 PUSH0 ADD PUSH2 0x2E9 JUMP JUMPDEST SWAP1 JUMP JUMPDEST PUSH2 0x10C JUMP JUMPDEST PUSH2 0x527 SWAP1 PUSH2 0x2D2 JUMP JUMPDEST SWAP1 MSTORE JUMP JUMPDEST MLOAD SWAP1 JUMP JUMPDEST PUSH1 0x20 SWAP2 DUP2 MSTORE ADD SWAP1 JUMP JUMPDEST PUSH0 JUMPDEST DUP4 DUP2 LT PUSH2 0x54A JUMPI POP POP SWAP1 PUSH0 SWAP2 ADD MSTORE JUMP JUMPDEST DUP1 PUSH1 0x20 SWAP2 DUP4 ADD MLOAD DUP2 DUP6 ADD MSTORE ADD PUSH2 0x53A JUMP JUMPDEST PUSH2 0x57A PUSH2 0x583 PUSH1 0x20 SWAP4 PUSH2 0x588 SWAP4 PUSH2 0x571 DUP2 PUSH2 0x52B JUMP JUMPDEST SWAP4 DUP5 DUP1 SWAP4 PUSH2 0x52F JUMP JUMPDEST SWAP6 DUP7 SWAP2 ADD PUSH2 0x538 JUMP JUMPDEST PUSH2 0x255 JUMP JUMPDEST ADD SWAP1 JUMP JUMPDEST ISZERO ISZERO SWAP1 JUMP JUMPDEST PUSH2 0x59A SWAP1 PUSH2 0x58C JUMP JUMPDEST SWAP1 MSTORE JUMP JUMPDEST SWAP4 SWAP3 SWAP1 PUSH2 0x5C9 PUSH1 0x40 SWAP2 PUSH2 0x5D1 SWAP5 PUSH2 0x5BC PUSH1 0x60 DUP10 ADD SWAP3 PUSH0 DUP11 ADD SWAP1 PUSH2 0x51E JUMP JUMPDEST DUP8 DUP3 SUB PUSH1 0x20 DUP10 ADD MSTORE PUSH2 0x55B JUMP JUMPDEST SWAP5 ADD SWAP1 PUSH2 0x591 JUMP JUMPDEST JUMP JUMPDEST CALLVALUE PUSH2 0x606 JUMPI PUSH2 0x602 PUSH2 0x5EE PUSH2 0x5E9 CALLDATASIZE PUSH1 0x4 PUSH2 0x500 JUMP JUMPDEST PUSH2 0x1130 JUMP JUMPDEST PUSH2 0x5F9 SWAP4 SWAP2 SWAP4 PUSH2 0x102 JUMP JUMPDEST SWAP4 DUP5 SWAP4 DUP5 PUSH2 0x59E JUMP JUMPDEST SUB SWAP1 RETURN JUMPDEST PUSH2 0x108 JUMP JUMPDEST SWAP1 PUSH1 0x20 DUP3 DUP3 SUB SLT PUSH2 0x624 JUMPI PUSH2 0x621 SWAP2 PUSH0 ADD PUSH2 0x242 JUMP JUMPDEST SWAP1 JUMP JUMPDEST PUSH2 0x10C JUMP JUMPDEST CALLVALUE PUSH2 0x657 JUMPI PUSH2 0x641 PUSH2 0x63C CALLDATASIZE PUSH1 0x4 PUSH2 0x60B JUMP JUMPDEST PUSH2 0x11E7 JUMP JUMPDEST PUSH2 0x649 PUSH2 0x102 JUMP JUMPDEST DUP1 PUSH2 0x653 DUP2 PUSH2 0x3B7 JUMP JUMPDEST SUB SWAP1 RETURN JUMPDEST PUSH2 0x108 JUMP JUMPDEST PUSH32 0x0 SWAP1 JUMP JUMPDEST CALLVALUE PUSH2 0x6B0 JUMPI PUSH2 0x690 CALLDATASIZE PUSH1 0x4 PUSH2 0x110 JUMP JUMPDEST PUSH2 0x6AC PUSH2 0x69B PUSH2 0x65C JUMP JUMPDEST PUSH2 0x6A3 PUSH2 0x102 JUMP JUMPDEST SWAP2 DUP3 SWAP2 DUP3 PUSH2 0x167 JUMP JUMPDEST SUB SWAP1 RETURN JUMPDEST PUSH2 0x108 JUMP JUMPDEST CALLVALUE PUSH2 0x6E3 JUMPI PUSH2 0x6C5 CALLDATASIZE PUSH1 0x4 PUSH2 0x110 JUMP JUMPDEST PUSH2 0x6CD PUSH2 0x123F JUMP JUMPDEST PUSH2 0x6D5 PUSH2 0x102 JUMP JUMPDEST DUP1 PUSH2 0x6DF DUP2 PUSH2 0x3B7 JUMP JUMPDEST SUB SWAP1 RETURN JUMPDEST PUSH2 0x108 JUMP JUMPDEST CALLVALUE PUSH2 0x718 JUMPI PUSH2 0x6F8 CALLDATASIZE PUSH1 0x4 PUSH2 0x110 JUMP JUMPDEST PUSH2 0x714 PUSH2 0x703 PUSH2 0x126E JUMP JUMPDEST PUSH2 0x70B PUSH2 0x102 JUMP JUMPDEST SWAP2 DUP3 SWAP2 DUP3 PUSH2 0x167 JUMP JUMPDEST SUB SWAP1 RETURN JUMPDEST PUSH2 0x108 JUMP JUMPDEST PUSH8 0xFFFFFFFFFFFFFFFF DUP2 GT PUSH2 0x73B JUMPI PUSH2 0x737 PUSH1 0x20 SWAP2 PUSH2 0x255 JUMP JUMPDEST ADD SWAP1 JUMP JUMPDEST PUSH2 0x25F JUMP JUMPDEST SWAP1 SWAP3 SWAP2 SWAP3 PUSH2 0x755 PUSH2 0x750 DUP3 PUSH2 0x71D JUMP JUMPDEST PUSH2 0x29C JUMP JUMPDEST SWAP4 DUP2 DUP6 MSTORE PUSH1 0x20 DUP6 ADD SWAP1 DUP3 DUP5 ADD GT PUSH2 0x771 JUMPI PUSH2 0x76F SWAP3 PUSH2 0x417 JUMP JUMPDEST JUMP JUMPDEST PUSH2 0x3F0 JUMP JUMPDEST SWAP1 DUP1 PUSH1 0x1F DUP4 ADD SLT ISZERO PUSH2 0x794 JUMPI DUP2 PUSH1 0x20 PUSH2 0x791 SWAP4 CALLDATALOAD SWAP2 ADD PUSH2 0x740 JUMP JUMPDEST SWAP1 JUMP JUMPDEST PUSH2 0x251 JUMP JUMPDEST PUSH1 0x80 DUP2 DUP4 SUB SLT PUSH2 0x7F2 JUMPI PUSH2 0x7AF DUP3 PUSH0 DUP4 ADD PUSH2 0x2E9 JUMP JUMPDEST SWAP3 PUSH1 0x20 DUP3 ADD CALLDATALOAD PUSH8 0xFFFFFFFFFFFFFFFF DUP2 GT PUSH2 0x7ED JUMPI PUSH2 0x7D3 DUP5 PUSH2 0x7EA SWAP3 DUP6 ADD PUSH2 0x776 JUMP JUMPDEST SWAP4 PUSH2 0x7E1 DUP2 PUSH1 0x40 DUP7 ADD PUSH2 0x242 JUMP JUMPDEST SWAP4 PUSH1 0x60 ADD PUSH2 0x2E9 JUMP JUMPDEST SWAP1 JUMP JUMPDEST PUSH2 0x22A JUMP JUMPDEST PUSH2 0x10C JUMP JUMPDEST CALLVALUE PUSH2 0x829 JUMPI PUSH2 0x813 PUSH2 0x80A CALLDATASIZE PUSH1 0x4 PUSH2 0x799 JUMP JUMPDEST SWAP3 SWAP2 SWAP1 SWAP2 PUSH2 0x177C JUMP JUMPDEST PUSH2 0x81B PUSH2 0x102 JUMP JUMPDEST DUP1 PUSH2 0x825 DUP2 PUSH2 0x3B7 JUMP JUMPDEST SUB SWAP1 RETURN JUMPDEST PUSH2 0x108 JUMP JUMPDEST SWAP1 JUMP JUMPDEST PUSH2 0x83A DUP2 PUSH2 0x82E JUMP JUMPDEST SUB PUSH2 0x841 JUMPI JUMP JUMPDEST PUSH0 DUP1 REVERT JUMPDEST SWAP1 POP CALLDATALOAD SWAP1 PUSH2 0x852 DUP3 PUSH2 0x831 JUMP JUMPDEST JUMP JUMPDEST SWAP2 SWAP1 SWAP2 PUSH1 0x40 DUP2 DUP5 SUB SLT PUSH2 0x894 JUMPI PUSH2 0x86D DUP4 PUSH0 DUP4 ADD PUSH2 0x845 JUMP JUMPDEST SWAP3 PUSH1 0x20 DUP3 ADD CALLDATALOAD PUSH8 0xFFFFFFFFFFFFFFFF DUP2 GT PUSH2 0x88F JUMPI PUSH2 0x88C SWAP3 ADD PUSH2 0x776 JUMP JUMPDEST SWAP1 JUMP JUMPDEST PUSH2 0x22A JUMP JUMPDEST PUSH2 0x10C JUMP JUMPDEST SWAP2 PUSH1 0x20 PUSH2 0x8BA SWAP3 SWAP5 SWAP4 PUSH2 0x8B3 PUSH1 0x40 DUP3 ADD SWAP7 PUSH0 DUP4 ADD SWAP1 PUSH2 0x591 JUMP JUMPDEST ADD SWAP1 PUSH2 0x15A JUMP JUMPDEST JUMP JUMPDEST CALLVALUE PUSH2 0x8EE JUMPI PUSH2 0x8D5 PUSH2 0x8CF CALLDATASIZE PUSH1 0x4 PUSH2 0x854 JUMP JUMPDEST SWAP1 PUSH2 0x1BCE JUMP JUMPDEST SWAP1 PUSH2 0x8EA PUSH2 0x8E1 PUSH2 0x102 JUMP JUMPDEST SWAP3 DUP4 SWAP3 DUP4 PUSH2 0x899 JUMP JUMPDEST SUB SWAP1 RETURN JUMPDEST PUSH2 0x108 JUMP JUMPDEST SWAP2 SWAP1 PUSH1 0x40 DUP4 DUP3 SUB SLT PUSH2 0x91B JUMPI DUP1 PUSH2 0x90F PUSH2 0x918 SWAP3 PUSH0 DUP7 ADD PUSH2 0x242 JUMP JUMPDEST SWAP4 PUSH1 0x20 ADD PUSH2 0x2E9 JUMP JUMPDEST SWAP1 JUMP JUMPDEST PUSH2 0x10C JUMP JUMPDEST SWAP1 JUMP JUMPDEST PUSH2 0x937 PUSH2 0x932 PUSH2 0x93C SWAP3 PUSH2 0x143 JUMP JUMPDEST PUSH2 0x920 JUMP JUMPDEST PUSH2 0x143 JUMP JUMPDEST SWAP1 JUMP JUMPDEST PUSH2 0x948 SWAP1 PUSH2 0x923 JUMP JUMPDEST SWAP1 JUMP JUMPDEST PUSH2 0x954 SWAP1 PUSH2 0x93F JUMP JUMPDEST SWAP1 JUMP JUMPDEST SWAP1 PUSH2 0x961 SWAP1 PUSH2 0x94B JUMP JUMPDEST PUSH0 MSTORE PUSH1 0x20 MSTORE PUSH1 0x40 PUSH0 KECCAK256 SWAP1 JUMP JUMPDEST PUSH2 0x981 PUSH2 0x97C PUSH2 0x986 SWAP3 PUSH2 0x2D2 JUMP JUMPDEST PUSH2 0x920 JUMP JUMPDEST PUSH2 0x2D2 JUMP JUMPDEST SWAP1 JUMP JUMPDEST SWAP1 PUSH2 0x993 SWAP1 PUSH2 0x96D JUMP JUMPDEST PUSH0 MSTORE PUSH1 0x20 MSTORE PUSH1 0x40 PUSH0 KECCAK256 SWAP1 JUMP JUMPDEST PUSH1 0xFF AND SWAP1 JUMP JUMPDEST PUSH2 0x9B5 SWAP1 PUSH1 0x8 PUSH2 0x9BA SWAP4 MUL PUSH2 0x1B1 JUMP JUMPDEST PUSH2 0x99F JUMP JUMPDEST SWAP1 JUMP JUMPDEST SWAP1 PUSH2 0x9C8 SWAP2 SLOAD PUSH2 0x9A5 JUMP JUMPDEST SWAP1 JUMP JUMPDEST PUSH2 0x9E4 PUSH2 0x9E9 SWAP3 PUSH2 0x9DF PUSH1 0x2 SWAP4 PUSH0 SWAP5 PUSH2 0x957 JUMP JUMPDEST PUSH2 0x989 JUMP JUMPDEST PUSH2 0x9BD JUMP JUMPDEST SWAP1 JUMP JUMPDEST SWAP2 SWAP1 PUSH2 0x9FF SWAP1 PUSH0 PUSH1 0x20 DUP6 ADD SWAP5 ADD SWAP1 PUSH2 0x591 JUMP JUMPDEST JUMP JUMPDEST CALLVALUE PUSH2 0xA32 JUMPI PUSH2 0xA2E PUSH2 0xA1D PUSH2 0xA17 CALLDATASIZE PUSH1 0x4 PUSH2 0x8F3 JUMP JUMPDEST SWAP1 PUSH2 0x9CB JUMP JUMPDEST PUSH2 0xA25 PUSH2 0x102 JUMP JUMPDEST SWAP2 DUP3 SWAP2 DUP3 PUSH2 0x9EC JUMP JUMPDEST SUB SWAP1 RETURN JUMPDEST PUSH2 0x108 JUMP JUMPDEST SWAP1 PUSH2 0xA41 SWAP1 PUSH2 0x96D JUMP JUMPDEST PUSH0 MSTORE PUSH1 0x20 MSTORE PUSH1 0x40 PUSH0 KECCAK256 SWAP1 JUMP JUMPDEST PUSH0 SHR SWAP1 JUMP JUMPDEST SWAP1 JUMP JUMPDEST PUSH2 0xA61 PUSH2 0xA66 SWAP2 PUSH2 0xA4D JUMP JUMPDEST PUSH2 0xA52 JUMP JUMPDEST SWAP1 JUMP JUMPDEST PUSH2 0xA73 SWAP1 SLOAD PUSH2 0xA55 JUMP JUMPDEST SWAP1 JUMP JUMPDEST PUSH4 0x4E487B71 PUSH1 0xE0 SHL PUSH0 MSTORE PUSH1 0x22 PUSH1 0x4 MSTORE PUSH1 0x24 PUSH0 REVERT JUMPDEST SWAP1 PUSH1 0x1 PUSH1 0x2 DUP4 DIV SWAP3 AND DUP1 ISZERO PUSH2 0xAAA JUMPI JUMPDEST PUSH1 0x20 DUP4 LT EQ PUSH2 0xAA5 JUMPI JUMP JUMPDEST PUSH2 0xA76 JUMP JUMPDEST SWAP2 PUSH1 0x7F AND SWAP2 PUSH2 0xA9A JUMP JUMPDEST PUSH1 0x20 SWAP2 DUP2 MSTORE ADD SWAP1 JUMP JUMPDEST PUSH0 MSTORE PUSH1 0x20 PUSH0 KECCAK256 SWAP1 JUMP JUMPDEST SWAP1 PUSH0 SWAP3 SWAP2 DUP1 SLOAD SWAP1 PUSH2 0xAE0 PUSH2 0xAD9 DUP4 PUSH2 0xA8A JUMP JUMPDEST DUP1 SWAP5 PUSH2 0xAB4 JUMP JUMPDEST SWAP2 PUSH1 0x1 DUP2 AND SWAP1 DUP2 PUSH0 EQ PUSH2 0xB37 JUMPI POP PUSH1 0x1 EQ PUSH2 0xAFB JUMPI JUMPDEST POP POP POP JUMP JUMPDEST PUSH2 0xB08 SWAP2 SWAP3 SWAP4 SWAP5 POP PUSH2 0xABD JUMP JUMPDEST SWAP2 PUSH0 SWAP3 JUMPDEST DUP2 DUP5 LT PUSH2 0xB1F JUMPI POP POP ADD SWAP1 PUSH0 DUP1 DUP1 PUSH2 0xAF6 JUMP JUMPDEST PUSH1 0x1 DUP2 PUSH1 0x20 SWAP3 SWAP6 SWAP4 SWAP6 SLOAD DUP5 DUP7 ADD MSTORE ADD SWAP2 ADD SWAP3 SWAP1 PUSH2 0xB0C JUMP JUMPDEST SWAP3 SWAP5 SWAP6 POP POP POP PUSH1 0xFF NOT AND DUP3 MSTORE ISZERO ISZERO PUSH1 0x20 MUL ADD SWAP1 PUSH0 DUP1 DUP1 PUSH2 0xAF6 JUMP JUMPDEST SWAP1 PUSH2 0xB5C SWAP2 PUSH2 0xAC6 JUMP JUMPDEST SWAP1 JUMP JUMPDEST SWAP1 PUSH2 0xB7F PUSH2 0xB78 SWAP3 PUSH2 0xB6F PUSH2 0x102 JUMP JUMPDEST SWAP4 DUP5 DUP1 SWAP3 PUSH2 0xB52 JUMP JUMPDEST SUB DUP4 PUSH2 0x273 JUMP JUMPDEST JUMP JUMPDEST PUSH2 0xB8D PUSH2 0xB92 SWAP2 PUSH2 0xA4D JUMP JUMPDEST PUSH2 0x99F JUMP JUMPDEST SWAP1 JUMP JUMPDEST PUSH2 0xB9F SWAP1 SLOAD PUSH2 0xB81 JUMP JUMPDEST SWAP1 JUMP JUMPDEST PUSH2 0xBAD SWAP1 PUSH1 0x1 PUSH2 0xA37 JUMP JUMPDEST PUSH2 0xBB8 PUSH0 DUP3 ADD PUSH2 0xA69 JUMP JUMPDEST SWAP2 PUSH2 0xBD1 PUSH1 0x2 PUSH2 0xBCA PUSH1 0x1 DUP6 ADD PUSH2 0xB5F JUMP JUMPDEST SWAP4 ADD PUSH2 0xB95 JUMP JUMPDEST SWAP1 JUMP JUMPDEST CALLVALUE PUSH2 0xC07 JUMPI PUSH2 0xC03 PUSH2 0xBEF PUSH2 0xBEA CALLDATASIZE PUSH1 0x4 PUSH2 0x500 JUMP JUMPDEST PUSH2 0xBA2 JUMP JUMPDEST PUSH2 0xBFA SWAP4 SWAP2 SWAP4 PUSH2 0x102 JUMP JUMPDEST SWAP4 DUP5 SWAP4 DUP5 PUSH2 0x59E JUMP JUMPDEST SUB SWAP1 RETURN JUMPDEST PUSH2 0x108 JUMP JUMPDEST CALLVALUE PUSH2 0xC3A JUMPI PUSH2 0xC24 PUSH2 0xC1F CALLDATASIZE PUSH1 0x4 PUSH2 0x60B JUMP JUMPDEST PUSH2 0x1E04 JUMP JUMPDEST PUSH2 0xC2C PUSH2 0x102 JUMP JUMPDEST DUP1 PUSH2 0xC36 DUP2 PUSH2 0x3B7 JUMP JUMPDEST SUB SWAP1 RETURN JUMPDEST PUSH2 0x108 JUMP JUMPDEST PUSH0 DUP1 REVERT JUMPDEST SWAP1 PUSH2 0xC55 SWAP2 PUSH2 0xC50 PUSH2 0x1E90 JUMP JUMPDEST PUSH2 0xD14 JUMP JUMPDEST JUMP JUMPDEST SWAP1 JUMP JUMPDEST PUSH2 0xC6E PUSH2 0xC69 PUSH2 0xC73 SWAP3 PUSH2 0xC57 JUMP JUMPDEST PUSH2 0x920 JUMP JUMPDEST PUSH2 0x2D2 JUMP JUMPDEST SWAP1 JUMP JUMPDEST PUSH1 0x1 PUSH2 0xC82 SWAP2 ADD PUSH2 0x2D2 JUMP JUMPDEST SWAP1 JUMP JUMPDEST MLOAD SWAP1 JUMP JUMPDEST PUSH4 0x4E487B71 PUSH1 0xE0 SHL PUSH0 MSTORE PUSH1 0x32 PUSH1 0x4 MSTORE PUSH1 0x24 PUSH0 REVERT JUMPDEST SWAP1 PUSH2 0xCA7 DUP3 PUSH2 0xC85 JUMP JUMPDEST DUP2 LT ISZERO PUSH2 0xCB8 JUMPI PUSH1 0x20 DUP1 SWAP2 MUL ADD ADD SWAP1 JUMP JUMPDEST PUSH2 0xC89 JUMP JUMPDEST PUSH2 0xCC7 SWAP1 MLOAD PUSH2 0x2D2 JUMP JUMPDEST SWAP1 JUMP JUMPDEST PUSH0 SHL SWAP1 JUMP JUMPDEST SWAP1 PUSH2 0xCDB PUSH1 0xFF SWAP2 PUSH2 0xCCA JUMP JUMPDEST SWAP2 DUP2 NOT AND SWAP2 AND OR SWAP1 JUMP JUMPDEST PUSH2 0xCEE SWAP1 PUSH2 0x58C JUMP JUMPDEST SWAP1 JUMP JUMPDEST SWAP1 JUMP JUMPDEST SWAP1 PUSH2 0xD09 PUSH2 0xD04 PUSH2 0xD10 SWAP3 PUSH2 0xCE5 JUMP JUMPDEST PUSH2 0xCF1 JUMP JUMPDEST DUP3 SLOAD PUSH2 0xCCF JUMP JUMPDEST SWAP1 SSTORE JUMP JUMPDEST SWAP2 SWAP1 PUSH2 0xD1F PUSH0 PUSH2 0xC5A JUMP JUMPDEST JUMPDEST DUP1 PUSH2 0xD3B PUSH2 0xD35 PUSH2 0xD30 DUP6 PUSH2 0xC85 JUMP JUMPDEST PUSH2 0x2D2 JUMP JUMPDEST SWAP2 PUSH2 0x2D2 JUMP JUMPDEST LT ISZERO PUSH2 0xD80 JUMPI PUSH2 0xD7B SWAP1 PUSH2 0xD76 PUSH0 PUSH2 0xD71 PUSH2 0xD58 PUSH1 0x2 DUP10 SWAP1 PUSH2 0x957 JUMP JUMPDEST PUSH2 0xD6B PUSH2 0xD66 DUP9 DUP8 SWAP1 PUSH2 0xC9D JUMP JUMPDEST PUSH2 0xCBD JUMP JUMPDEST SWAP1 PUSH2 0x989 JUMP JUMPDEST PUSH2 0xCF4 JUMP JUMPDEST PUSH2 0xC76 JUMP JUMPDEST PUSH2 0xD20 JUMP JUMPDEST POP POP SWAP1 POP JUMP JUMPDEST SWAP1 PUSH2 0xD90 SWAP2 PUSH2 0xC43 JUMP JUMPDEST JUMP JUMPDEST SWAP1 PUSH2 0xDA5 SWAP3 SWAP2 PUSH2 0xDA0 PUSH2 0x1E90 JUMP JUMPDEST PUSH2 0x1080 JUMP JUMPDEST JUMP JUMPDEST PUSH2 0xDB1 PUSH1 0x60 PUSH2 0x29C JUMP JUMPDEST SWAP1 JUMP JUMPDEST SWAP1 PUSH2 0xDBE SWAP1 PUSH2 0x2D2 JUMP JUMPDEST SWAP1 MSTORE JUMP JUMPDEST MSTORE JUMP JUMPDEST SWAP1 PUSH2 0xDCF SWAP1 PUSH2 0x58C JUMP JUMPDEST SWAP1 MSTORE JUMP JUMPDEST SWAP1 PUSH2 0xDDF PUSH0 NOT SWAP2 PUSH2 0xCCA JUMP JUMPDEST SWAP2 DUP2 NOT AND SWAP2 AND OR SWAP1 JUMP JUMPDEST SWAP1 JUMP JUMPDEST SWAP1 PUSH2 0xE01 PUSH2 0xDFC PUSH2 0xE08 SWAP3 PUSH2 0x96D JUMP JUMPDEST PUSH2 0xDE9 JUMP JUMPDEST DUP3 SLOAD PUSH2 0xDD3 JUMP JUMPDEST SWAP1 SSTORE JUMP JUMPDEST MLOAD SWAP1 JUMP JUMPDEST PUSH1 0x1F PUSH1 0x20 SWAP2 ADD DIV SWAP1 JUMP JUMPDEST SHL SWAP1 JUMP JUMPDEST SWAP2 SWAP1 PUSH1 0x8 PUSH2 0xE39 SWAP2 MUL SWAP2 PUSH2 0xE33 PUSH0 NOT DUP5 PUSH2 0xE1A JUMP JUMPDEST SWAP3 PUSH2 0xE1A JUMP JUMPDEST SWAP2 DUP2 NOT AND SWAP2 AND OR SWAP1 JUMP JUMPDEST SWAP2 SWAP1 PUSH2 0xE59 PUSH2 0xE54 PUSH2 0xE61 SWAP4 PUSH2 0x96D JUMP JUMPDEST PUSH2 0xDE9 JUMP JUMPDEST SWAP1 DUP4 SLOAD PUSH2 0xE1E JUMP JUMPDEST SWAP1 SSTORE JUMP JUMPDEST PUSH0 SWAP1 JUMP JUMPDEST PUSH2 0xE7B SWAP2 PUSH2 0xE75 PUSH2 0xE65 JUMP JUMPDEST SWAP2 PUSH2 0xE43 JUMP JUMPDEST JUMP JUMPDEST JUMPDEST DUP2 DUP2 LT PUSH2 0xE89 JUMPI POP POP JUMP JUMPDEST DUP1 PUSH2 0xE96 PUSH0 PUSH1 0x1 SWAP4 PUSH2 0xE69 JUMP JUMPDEST ADD PUSH2 0xE7E JUMP JUMPDEST SWAP2 SWAP1 PUSH1 0x1F DUP2 GT PUSH2 0xEAC JUMPI JUMPDEST POP POP POP JUMP JUMPDEST PUSH2 0xEB8 PUSH2 0xEDD SWAP4 PUSH2 0xABD JUMP JUMPDEST SWAP1 PUSH1 0x20 PUSH2 0xEC4 DUP5 PUSH2 0xE10 JUMP JUMPDEST DUP4 ADD SWAP4 LT PUSH2 0xEE5 JUMPI JUMPDEST PUSH2 0xED6 SWAP1 PUSH2 0xE10 JUMP JUMPDEST ADD SWAP1 PUSH2 0xE7D JUMP JUMPDEST PUSH0 DUP1 DUP1 PUSH2 0xEA7 JUMP JUMPDEST SWAP2 POP PUSH2 0xED6 DUP2 SWAP3 SWAP1 POP PUSH2 0xECD JUMP JUMPDEST SWAP1 PUSH2 0xF03 SWAP1 PUSH0 NOT SWAP1 PUSH1 0x8 MUL PUSH2 0x1B1 JUMP JUMPDEST NOT AND SWAP1 JUMP JUMPDEST DUP2 PUSH2 0xF12 SWAP2 PUSH2 0xEF3 JUMP JUMPDEST SWAP1 PUSH1 0x2 MUL OR SWAP1 JUMP JUMPDEST SWAP1 PUSH2 0xF24 DUP2 PUSH2 0x52B JUMP JUMPDEST SWAP1 PUSH8 0xFFFFFFFFFFFFFFFF DUP3 GT PUSH2 0xFE4 JUMPI PUSH2 0xF48 DUP3 PUSH2 0xF42 DUP6 SLOAD PUSH2 0xA8A JUMP JUMPDEST DUP6 PUSH2 0xE9C JUMP JUMPDEST PUSH1 0x20 SWAP1 PUSH1 0x1F DUP4 GT PUSH1 0x1 EQ PUSH2 0xF7C JUMPI SWAP2 DUP1 SWAP2 PUSH2 0xF6B SWAP4 PUSH0 SWAP3 PUSH2 0xF70 JUMPI JUMPDEST POP POP PUSH2 0xF08 JUMP JUMPDEST SWAP1 SSTORE JUMPDEST JUMP JUMPDEST SWAP1 SWAP2 POP ADD MLOAD PUSH0 DUP1 PUSH2 0xF64 JUMP JUMPDEST PUSH1 0x1F NOT DUP4 AND SWAP2 PUSH2 0xF8B DUP6 PUSH2 0xABD JUMP JUMPDEST SWAP3 PUSH0 JUMPDEST DUP2 DUP2 LT PUSH2 0xFCC JUMPI POP SWAP2 PUSH1 0x2 SWAP4 SWAP2 DUP6 PUSH1 0x1 SWAP7 SWAP5 LT PUSH2 0xFB2 JUMPI JUMPDEST POP POP POP MUL ADD SWAP1 SSTORE PUSH2 0xF6E JUMP JUMPDEST PUSH2 0xFC2 SWAP2 ADD MLOAD PUSH1 0x1F DUP5 AND SWAP1 PUSH2 0xEF3 JUMP JUMPDEST SWAP1 SSTORE PUSH0 DUP1 DUP1 PUSH2 0xFA6 JUMP JUMPDEST SWAP2 SWAP4 PUSH1 0x20 PUSH1 0x1 DUP2 SWAP3 DUP8 DUP8 ADD MLOAD DUP2 SSTORE ADD SWAP6 ADD SWAP3 ADD PUSH2 0xF8E JUMP JUMPDEST PUSH2 0x25F JUMP JUMPDEST SWAP1 PUSH2 0xFF3 SWAP2 PUSH2 0xF1A JUMP JUMPDEST JUMP JUMPDEST PUSH2 0xFFF SWAP1 MLOAD PUSH2 0x58C JUMP JUMPDEST SWAP1 JUMP JUMPDEST SWAP1 PUSH2 0x1046 PUSH1 0x40 PUSH1 0x2 PUSH2 0x104C SWAP5 PUSH2 0x1025 PUSH0 DUP3 ADD PUSH2 0x101F PUSH0 DUP9 ADD PUSH2 0xCBD JUMP JUMPDEST SWAP1 PUSH2 0xDEC JUMP JUMPDEST PUSH2 0x103E PUSH1 0x1 DUP3 ADD PUSH2 0x1038 PUSH1 0x20 DUP9 ADD PUSH2 0xE0C JUMP JUMPDEST SWAP1 PUSH2 0xFE9 JUMP JUMPDEST ADD SWAP3 ADD PUSH2 0xFF5 JUMP JUMPDEST SWAP1 PUSH2 0xCF4 JUMP JUMPDEST JUMP JUMPDEST SWAP1 PUSH2 0x1058 SWAP2 PUSH2 0x1002 JUMP JUMPDEST JUMP JUMPDEST SWAP2 PUSH2 0x107D SWAP3 PUSH2 0x1070 PUSH1 0x40 DUP3 ADD SWAP4 PUSH0 DUP4 ADD SWAP1 PUSH2 0x51E JUMP JUMPDEST PUSH1 0x20 DUP2 DUP5 SUB SWAP2 ADD MSTORE PUSH2 0x55B JUMP JUMPDEST SWAP1 JUMP JUMPDEST PUSH2 0x10C5 DUP3 PUSH2 0x10B4 DUP6 PUSH2 0x10AB PUSH1 0x1 SWAP2 PUSH2 0x10A2 PUSH2 0x1099 PUSH2 0xDA7 JUMP JUMPDEST SWAP6 PUSH0 DUP8 ADD PUSH2 0xDB4 JUMP JUMPDEST PUSH1 0x20 DUP6 ADD PUSH2 0xDC2 JUMP JUMPDEST PUSH1 0x40 DUP4 ADD PUSH2 0xDC5 JUMP JUMPDEST PUSH2 0x10C0 PUSH1 0x1 DUP5 SWAP1 PUSH2 0xA37 JUMP JUMPDEST PUSH2 0x104E JUMP JUMPDEST SWAP1 SWAP2 PUSH2 0x10F1 PUSH32 0x3F3B043CCF981924460CD915D86F95544A797E1717C30A919B7E3BC0B212A366 SWAP3 PUSH2 0x96D JUMP JUMPDEST SWAP3 PUSH2 0x1106 PUSH2 0x10FD PUSH2 0x102 JUMP JUMPDEST SWAP3 DUP4 SWAP3 DUP4 PUSH2 0x105A JUMP JUMPDEST SUB SWAP1 LOG2 JUMP JUMPDEST SWAP1 PUSH2 0x1116 SWAP3 SWAP2 PUSH2 0xD92 JUMP JUMPDEST JUMP JUMPDEST PUSH1 0x60 SWAP1 JUMP JUMPDEST PUSH0 SWAP1 JUMP JUMPDEST SWAP1 JUMP JUMPDEST PUSH2 0x112D SWAP1 PUSH2 0xB5F JUMP JUMPDEST SWAP1 JUMP JUMPDEST PUSH2 0x1159 PUSH2 0x115E SWAP2 PUSH2 0x113F PUSH2 0xE65 JUMP JUMPDEST POP PUSH2 0x1148 PUSH2 0x1118 JUMP JUMPDEST POP PUSH2 0x1151 PUSH2 0x111D JUMP JUMPDEST POP PUSH1 0x1 PUSH2 0xA37 JUMP JUMPDEST PUSH2 0x1121 JUMP JUMPDEST SWAP1 PUSH2 0x116A PUSH0 DUP4 ADD PUSH2 0xA69 JUMP JUMPDEST SWAP1 PUSH2 0x1185 PUSH2 0x117E PUSH1 0x2 PUSH1 0x1 DUP7 ADD SWAP6 ADD PUSH2 0xB95 JUMP JUMPDEST SWAP3 SWAP4 PUSH2 0x1124 JUMP JUMPDEST SWAP2 SWAP1 JUMP JUMPDEST PUSH2 0x119A SWAP1 PUSH2 0x1195 PUSH2 0x1E90 JUMP JUMPDEST PUSH2 0x11DA JUMP JUMPDEST JUMP JUMPDEST SWAP1 PUSH2 0x11AD PUSH1 0x1 DUP1 PUSH1 0xA0 SHL SUB SWAP2 PUSH2 0xCCA JUMP JUMPDEST SWAP2 DUP2 NOT AND SWAP2 AND OR SWAP1 JUMP JUMPDEST SWAP1 JUMP JUMPDEST SWAP1 PUSH2 0x11CF PUSH2 0x11CA PUSH2 0x11D6 SWAP3 PUSH2 0x94B JUMP JUMPDEST PUSH2 0x11B7 JUMP JUMPDEST DUP3 SLOAD PUSH2 0x119C JUMP JUMPDEST SWAP1 SSTORE JUMP JUMPDEST PUSH2 0x11E5 SWAP1 PUSH1 0x3 PUSH2 0x11BA JUMP JUMPDEST JUMP JUMPDEST PUSH2 0x11F0 SWAP1 PUSH2 0x1189 JUMP JUMPDEST JUMP JUMPDEST PUSH2 0x11FA PUSH2 0x1E90 JUMP JUMPDEST PUSH2 0x1202 PUSH2 0x122C JUMP JUMPDEST JUMP JUMPDEST PUSH2 0x1218 PUSH2 0x1213 PUSH2 0x121D SWAP3 PUSH2 0xC57 JUMP JUMPDEST PUSH2 0x920 JUMP JUMPDEST PUSH2 0x143 JUMP JUMPDEST SWAP1 JUMP JUMPDEST PUSH2 0x1229 SWAP1 PUSH2 0x1204 JUMP JUMPDEST SWAP1 JUMP JUMPDEST PUSH2 0x123D PUSH2 0x1238 PUSH0 PUSH2 0x1220 JUMP JUMPDEST PUSH2 0x1EBC JUMP JUMPDEST JUMP JUMPDEST PUSH2 0x1247 PUSH2 0x11F2 JUMP JUMPDEST JUMP JUMPDEST PUSH0 SWAP1 JUMP JUMPDEST PUSH2 0x1259 PUSH2 0x125E SWAP2 PUSH2 0xA4D JUMP JUMPDEST PUSH2 0x1B5 JUMP JUMPDEST SWAP1 JUMP JUMPDEST PUSH2 0x126B SWAP1 SLOAD PUSH2 0x124D JUMP JUMPDEST SWAP1 JUMP JUMPDEST PUSH2 0x1276 PUSH2 0x1249 JUMP JUMPDEST POP PUSH2 0x1280 PUSH0 PUSH2 0x1261 JUMP JUMPDEST SWAP1 JUMP JUMPDEST PUSH0 PUSH32 0x5175657374206E6F7420666F756E640000000000000000000000000000000000 SWAP2 ADD MSTORE JUMP JUMPDEST PUSH2 0x12B7 PUSH1 0xF PUSH1 0x20 SWAP3 PUSH2 0x52F JUMP JUMPDEST PUSH2 0x12C0 DUP2 PUSH2 0x1283 JUMP JUMPDEST ADD SWAP1 JUMP JUMPDEST PUSH2 0x12D9 SWAP1 PUSH1 0x20 DUP2 ADD SWAP1 PUSH0 DUP2 DUP4 SUB SWAP2 ADD MSTORE PUSH2 0x12AA JUMP JUMPDEST SWAP1 JUMP JUMPDEST ISZERO PUSH2 0x12E3 JUMPI JUMP JUMPDEST PUSH2 0x12EB PUSH2 0x102 JUMP JUMPDEST PUSH3 0x461BCD PUSH1 0xE5 SHL DUP2 MSTORE DUP1 PUSH2 0x1301 PUSH1 0x4 DUP3 ADD PUSH2 0x12C4 JUMP JUMPDEST SUB SWAP1 REVERT JUMPDEST PUSH0 PUSH32 0x4578706972656400000000000000000000000000000000000000000000000000 SWAP2 ADD MSTORE JUMP JUMPDEST PUSH2 0x1339 PUSH1 0x7 PUSH1 0x20 SWAP3 PUSH2 0x52F JUMP JUMPDEST PUSH2 0x1342 DUP2 PUSH2 0x1305 JUMP JUMPDEST ADD SWAP1 JUMP JUMPDEST PUSH2 0x135B SWAP1 PUSH1 0x20 DUP2 ADD SWAP1 PUSH0 DUP2 DUP4 SUB SWAP2 ADD MSTORE PUSH2 0x132C JUMP JUMPDEST SWAP1 JUMP JUMPDEST ISZERO PUSH2 0x1365 JUMPI JUMP JUMPDEST PUSH2 0x136D PUSH2 0x102 JUMP JUMPDEST PUSH3 0x461BCD PUSH1 0xE5 SHL DUP2 MSTORE DUP1 PUSH2 0x1383 PUSH1 0x4 DUP3 ADD PUSH2 0x1346 JUMP JUMPDEST SUB SWAP1 REVERT JUMPDEST PUSH0 PUSH32 0x416C726561647920636F6D706C65746564000000000000000000000000000000 SWAP2 ADD MSTORE JUMP JUMPDEST PUSH2 0x13BB PUSH1 0x11 PUSH1 0x20 SWAP3 PUSH2 0x52F JUMP JUMPDEST PUSH2 0x13C4 DUP2 PUSH2 0x1387 JUMP JUMPDEST ADD SWAP1 JUMP JUMPDEST PUSH2 0x13DD SWAP1 PUSH1 0x20 DUP2 ADD SWAP1 PUSH0 DUP2 DUP4 SUB SWAP2 ADD MSTORE PUSH2 0x13AE JUMP JUMPDEST SWAP1 JUMP JUMPDEST ISZERO PUSH2 0x13E7 JUMPI JUMP JUMPDEST PUSH2 0x13EF PUSH2 0x102 JUMP JUMPDEST PUSH3 0x461BCD PUSH1 0xE5 SHL DUP2 MSTORE DUP1 PUSH2 0x1405 PUSH1 0x4 DUP3 ADD PUSH2 0x13C8 JUMP JUMPDEST SUB SWAP1 REVERT JUMPDEST PUSH1 0x60 SHL SWAP1 JUMP JUMPDEST PUSH2 0x1418 SWAP1 PUSH2 0x1409 JUMP JUMPDEST SWAP1 JUMP JUMPDEST PUSH2 0x1424 SWAP1 PUSH2 0x140F JUMP JUMPDEST SWAP1 JUMP JUMPDEST PUSH2 0x1433 PUSH2 0x1438 SWAP2 PUSH2 0x14E JUMP JUMPDEST PUSH2 0x141B JUMP JUMPDEST SWAP1 MSTORE JUMP JUMPDEST SWAP1 JUMP JUMPDEST PUSH2 0x144B PUSH2 0x1450 SWAP2 PUSH2 0x2D2 JUMP JUMPDEST PUSH2 0x143C JUMP JUMPDEST SWAP1 MSTORE JUMP JUMPDEST PUSH1 0x20 SWAP4 SWAP3 PUSH2 0x1474 PUSH1 0x14 DUP4 PUSH2 0x146C DUP9 SWAP6 PUSH2 0x147C SWAP8 PUSH2 0x1427 JUMP JUMPDEST ADD DUP1 SWAP3 PUSH2 0x143F JUMP JUMPDEST ADD DUP1 SWAP3 PUSH2 0x143F JUMP JUMPDEST ADD SWAP1 JUMP JUMPDEST PUSH1 0x20 ADD SWAP1 JUMP JUMPDEST MLOAD SWAP1 JUMP JUMPDEST PUSH2 0x1493 SWAP1 PUSH2 0x93F JUMP JUMPDEST SWAP1 JUMP JUMPDEST PUSH0 DUP1 REVERT JUMPDEST PUSH1 0xE0 SHL SWAP1 JUMP JUMPDEST PUSH2 0x14A9 DUP2 PUSH2 0x58C JUMP JUMPDEST SUB PUSH2 0x14B0 JUMPI JUMP JUMPDEST PUSH0 DUP1 REVERT JUMPDEST SWAP1 POP MLOAD SWAP1 PUSH2 0x14C1 DUP3 PUSH2 0x14A0 JUMP JUMPDEST JUMP JUMPDEST SWAP1 POP MLOAD SWAP1 PUSH2 0x14D0 DUP3 PUSH2 0x22E JUMP JUMPDEST JUMP JUMPDEST SWAP2 SWAP1 PUSH1 0x40 DUP4 DUP3 SUB SLT PUSH2 0x14FA JUMPI DUP1 PUSH2 0x14EE PUSH2 0x14F7 SWAP3 PUSH0 DUP7 ADD PUSH2 0x14B4 JUMP JUMPDEST SWAP4 PUSH1 0x20 ADD PUSH2 0x14C3 JUMP JUMPDEST SWAP1 JUMP JUMPDEST PUSH2 0x10C JUMP JUMPDEST PUSH2 0x1508 SWAP1 PUSH2 0x82E JUMP JUMPDEST SWAP1 MSTORE JUMP JUMPDEST PUSH1 0x20 SWAP2 DUP2 MSTORE ADD SWAP1 JUMP JUMPDEST PUSH2 0x1534 PUSH2 0x153D PUSH1 0x20 SWAP4 PUSH2 0x1542 SWAP4 PUSH2 0x152B DUP2 PUSH2 0x1486 JUMP JUMPDEST SWAP4 DUP5 DUP1 SWAP4 PUSH2 0x150C JUMP JUMPDEST SWAP6 DUP7 SWAP2 ADD PUSH2 0x538 JUMP JUMPDEST PUSH2 0x255 JUMP JUMPDEST ADD SWAP1 JUMP JUMPDEST SWAP2 PUSH2 0x1569 SWAP3 PUSH2 0x155C PUSH1 0x40 DUP3 ADD SWAP4 PUSH0 DUP4 ADD SWAP1 PUSH2 0x14FF JUMP JUMPDEST PUSH1 0x20 DUP2 DUP5 SUB SWAP2 ADD MSTORE PUSH2 0x1515 JUMP JUMPDEST SWAP1 JUMP JUMPDEST PUSH2 0x1574 PUSH2 0x102 JUMP JUMPDEST RETURNDATASIZE PUSH0 DUP3 RETURNDATACOPY RETURNDATASIZE SWAP1 REVERT JUMPDEST PUSH0 PUSH32 0x496E76616C6964207369676E6174757265000000000000000000000000000000 SWAP2 ADD MSTORE JUMP JUMPDEST PUSH2 0x15B0 PUSH1 0x11 PUSH1 0x20 SWAP3 PUSH2 0x52F JUMP JUMPDEST PUSH2 0x15B9 DUP2 PUSH2 0x157C JUMP JUMPDEST ADD SWAP1 JUMP JUMPDEST PUSH2 0x15D2 SWAP1 PUSH1 0x20 DUP2 ADD SWAP1 PUSH0 DUP2 DUP4 SUB SWAP2 ADD MSTORE PUSH2 0x15A3 JUMP JUMPDEST SWAP1 JUMP JUMPDEST ISZERO PUSH2 0x15DC JUMPI JUMP JUMPDEST PUSH2 0x15E4 PUSH2 0x102 JUMP JUMPDEST PUSH3 0x461BCD PUSH1 0xE5 SHL DUP2 MSTORE DUP1 PUSH2 0x15FA PUSH1 0x4 DUP3 ADD PUSH2 0x15BD JUMP JUMPDEST SUB SWAP1 REVERT JUMPDEST PUSH2 0x1607 SWAP1 PUSH2 0x923 JUMP JUMPDEST SWAP1 JUMP JUMPDEST PUSH2 0x1613 SWAP1 PUSH2 0x15FE JUMP JUMPDEST SWAP1 JUMP JUMPDEST PUSH2 0x161F SWAP1 PUSH2 0x93F JUMP JUMPDEST SWAP1 JUMP JUMPDEST PUSH0 SWAP2 SUB SLT PUSH2 0x162C JUMPI JUMP JUMPDEST PUSH2 0x10C JUMP JUMPDEST SWAP2 PUSH1 0x20 PUSH2 0x1652 SWAP3 SWAP5 SWAP4 PUSH2 0x164B PUSH1 0x40 DUP3 ADD SWAP7 PUSH0 DUP4 ADD SWAP1 PUSH2 0x15A JUMP JUMPDEST ADD SWAP1 PUSH2 0x51E JUMP JUMPDEST JUMP JUMPDEST SWAP1 JUMP JUMPDEST PUSH2 0x1661 SWAP1 SLOAD PUSH2 0xA8A JUMP JUMPDEST SWAP1 JUMP JUMPDEST PUSH2 0x166D SWAP1 PUSH2 0x923 JUMP JUMPDEST SWAP1 JUMP JUMPDEST PUSH2 0x1679 SWAP1 PUSH2 0x1664 JUMP JUMPDEST SWAP1 JUMP JUMPDEST PUSH2 0x1685 SWAP1 PUSH2 0x93F JUMP JUMPDEST SWAP1 JUMP JUMPDEST SWAP1 POP MLOAD SWAP1 PUSH2 0x1695 DUP3 PUSH2 0x2D5 JUMP JUMPDEST JUMP JUMPDEST SWAP1 PUSH1 0x20 DUP3 DUP3 SUB SLT PUSH2 0x16B0 JUMPI PUSH2 0x16AD SWAP2 PUSH0 ADD PUSH2 0x1688 JUMP JUMPDEST SWAP1 JUMP JUMPDEST PUSH2 0x10C JUMP JUMPDEST SWAP1 PUSH0 SWAP3 SWAP2 DUP1 SLOAD SWAP1 PUSH2 0x16CF PUSH2 0x16C8 DUP4 PUSH2 0xA8A JUMP JUMPDEST DUP1 SWAP5 PUSH2 0x52F JUMP JUMPDEST SWAP2 PUSH1 0x1 DUP2 AND SWAP1 DUP2 PUSH0 EQ PUSH2 0x1726 JUMPI POP PUSH1 0x1 EQ PUSH2 0x16EA JUMPI JUMPDEST POP POP POP JUMP JUMPDEST PUSH2 0x16F7 SWAP2 SWAP3 SWAP4 SWAP5 POP PUSH2 0xABD JUMP JUMPDEST SWAP2 PUSH0 SWAP3 JUMPDEST DUP2 DUP5 LT PUSH2 0x170E JUMPI POP POP ADD SWAP1 PUSH0 DUP1 DUP1 PUSH2 0x16E5 JUMP JUMPDEST PUSH1 0x1 DUP2 PUSH1 0x20 SWAP3 SWAP6 SWAP4 SWAP6 SLOAD DUP5 DUP7 ADD MSTORE ADD SWAP2 ADD SWAP3 SWAP1 PUSH2 0x16FB JUMP JUMPDEST SWAP3 SWAP5 SWAP6 POP POP POP PUSH1 0xFF NOT AND DUP3 MSTORE ISZERO ISZERO PUSH1 0x20 MUL ADD SWAP1 PUSH0 DUP1 DUP1 PUSH2 0x16E5 JUMP JUMPDEST SWAP2 PUSH2 0x1764 SWAP3 PUSH2 0x1757 PUSH1 0x40 DUP3 ADD SWAP4 PUSH0 DUP4 ADD SWAP1 PUSH2 0x15A JUMP JUMPDEST PUSH1 0x20 DUP2 DUP5 SUB SWAP2 ADD MSTORE PUSH2 0x16B5 JUMP JUMPDEST SWAP1 JUMP JUMPDEST SWAP2 SWAP1 PUSH2 0x177A SWAP1 PUSH0 PUSH1 0x20 DUP6 ADD SWAP5 ADD SWAP1 PUSH2 0x51E JUMP JUMPDEST JUMP JUMPDEST SWAP3 PUSH1 0x40 SWAP1 PUSH2 0x179F PUSH2 0x179A PUSH1 0x2 PUSH2 0x1794 PUSH1 0x1 DUP10 SWAP1 PUSH2 0xA37 JUMP JUMPDEST ADD PUSH2 0xB95 JUMP JUMPDEST PUSH2 0x12DC JUMP JUMPDEST PUSH2 0x17BC TIMESTAMP PUSH2 0x17B5 PUSH2 0x17AF DUP5 PUSH2 0x2D2 JUMP JUMPDEST SWAP2 PUSH2 0x2D2 JUMP JUMPDEST GT ISZERO PUSH2 0x135E JUMP JUMPDEST PUSH2 0x17EB PUSH2 0x17E6 PUSH2 0x17E0 PUSH2 0x17DB PUSH2 0x17D4 PUSH1 0x2 DUP10 SWAP1 PUSH2 0x957 JUMP JUMPDEST DUP10 SWAP1 PUSH2 0x989 JUMP JUMPDEST PUSH2 0xB95 JUMP JUMPDEST ISZERO PUSH2 0x58C JUMP JUMPDEST PUSH2 0x13E0 JUMP JUMPDEST PUSH2 0x1817 DUP5 PUSH2 0x1808 DUP8 SWAP4 PUSH2 0x17FC PUSH2 0x102 JUMP JUMPDEST SWAP5 DUP6 SWAP4 PUSH1 0x20 DUP6 ADD PUSH2 0x1454 JUMP JUMPDEST PUSH1 0x20 DUP3 ADD DUP2 SUB DUP3 MSTORE SUB DUP3 PUSH2 0x273 JUMP JUMPDEST PUSH2 0x1829 PUSH2 0x1823 DUP3 PUSH2 0x1486 JUMP JUMPDEST SWAP2 PUSH2 0x1480 JUMP JUMPDEST KECCAK256 SWAP2 PUSH2 0x1834 ADDRESS PUSH2 0x148A JUMP JUMPDEST PUSH2 0x1856 PUSH4 0xA14318B4 SWAP5 SWAP3 SWAP5 PUSH2 0x1861 PUSH2 0x184A PUSH2 0x102 JUMP JUMPDEST SWAP7 DUP8 SWAP6 DUP7 SWAP5 DUP6 SWAP5 PUSH2 0x149A JUMP JUMPDEST DUP5 MSTORE PUSH1 0x4 DUP5 ADD PUSH2 0x1546 JUMP JUMPDEST SUB SWAP2 GAS STATICCALL DUP1 ISZERO PUSH2 0x1ADC JUMPI PUSH2 0x187C SWAP2 PUSH0 SWAP2 PUSH2 0x1AAF JUMPI JUMPDEST POP PUSH2 0x15D5 JUMP JUMPDEST PUSH2 0x189C PUSH1 0x1 PUSH2 0x1897 PUSH2 0x1890 PUSH1 0x2 DUP6 SWAP1 PUSH2 0x957 JUMP JUMPDEST DUP6 SWAP1 PUSH2 0x989 JUMP JUMPDEST PUSH2 0xCF4 JUMP JUMPDEST PUSH2 0x18CD PUSH2 0x18C8 PUSH32 0x0 PUSH2 0x160A JUMP JUMPDEST PUSH2 0x1616 JUMP JUMPDEST PUSH4 0x551E88D DUP3 PUSH2 0x18E9 PUSH0 PUSH2 0x18E3 PUSH1 0x1 DUP9 SWAP1 PUSH2 0xA37 JUMP JUMPDEST ADD PUSH2 0xA69 JUMP JUMPDEST SWAP3 DUP1 EXTCODESIZE ISZERO PUSH2 0x1AAA JUMPI PUSH2 0x190E PUSH0 DUP1 SWAP5 PUSH2 0x1919 PUSH2 0x1902 PUSH2 0x102 JUMP JUMPDEST SWAP8 DUP9 SWAP7 DUP8 SWAP6 DUP7 SWAP5 PUSH2 0x149A JUMP JUMPDEST DUP5 MSTORE PUSH1 0x4 DUP5 ADD PUSH2 0x1631 JUMP JUMPDEST SUB SWAP3 GAS CALL DUP1 ISZERO PUSH2 0x1AA5 JUMPI PUSH2 0x1A79 JUMPI JUMPDEST POP PUSH2 0x1947 PUSH2 0x1942 PUSH1 0x1 PUSH2 0x193C DUP2 DUP7 SWAP1 PUSH2 0xA37 JUMP JUMPDEST ADD PUSH2 0x1654 JUMP JUMPDEST PUSH2 0x1657 JUMP JUMPDEST PUSH2 0x1959 PUSH2 0x1953 PUSH0 PUSH2 0xC5A JUMP JUMPDEST SWAP2 PUSH2 0x2D2 JUMP JUMPDEST GT PUSH2 0x19C3 JUMPI JUMPDEST SWAP1 PUSH2 0x1975 PUSH0 PUSH2 0x196F DUP4 PUSH1 0x1 PUSH2 0xA37 JUMP JUMPDEST ADD PUSH2 0xA69 JUMP JUMPDEST SWAP2 PUSH2 0x19BE PUSH2 0x19AC PUSH2 0x19A6 PUSH32 0xE0B5124B12E878158288D1002ED1FB960FAFF0EC1C7B3168F86D9D1AFD1B0D8B SWAP4 PUSH2 0x94B JUMP JUMPDEST SWAP4 PUSH2 0x96D JUMP JUMPDEST SWAP4 PUSH2 0x19B5 PUSH2 0x102 JUMP JUMPDEST SWAP2 DUP3 SWAP2 DUP3 PUSH2 0x1767 JUMP JUMPDEST SUB SWAP1 LOG3 JUMP JUMPDEST PUSH2 0x19F4 PUSH2 0x19EF PUSH32 0x0 PUSH2 0x1670 JUMP JUMPDEST PUSH2 0x167C JUMP JUMPDEST PUSH1 0x20 PUSH4 0xD0DEF521 SWAP2 DUP4 SWAP1 PUSH2 0x1A28 PUSH0 PUSH1 0x1 PUSH2 0x1A0F DUP2 DUP11 SWAP1 PUSH2 0xA37 JUMP JUMPDEST ADD SWAP6 PUSH2 0x1A33 PUSH2 0x1A1C PUSH2 0x102 JUMP JUMPDEST SWAP8 DUP9 SWAP7 DUP8 SWAP6 DUP7 SWAP5 PUSH2 0x149A JUMP JUMPDEST DUP5 MSTORE PUSH1 0x4 DUP5 ADD PUSH2 0x1741 JUMP JUMPDEST SUB SWAP3 GAS CALL DUP1 ISZERO PUSH2 0x1A74 JUMPI PUSH2 0x1A48 JUMPI JUMPDEST POP PUSH2 0x195F JUMP JUMPDEST PUSH2 0x1A68 SWAP1 PUSH1 0x20 RETURNDATASIZE DUP2 GT PUSH2 0x1A6D JUMPI JUMPDEST PUSH2 0x1A60 DUP2 DUP4 PUSH2 0x273 JUMP JUMPDEST DUP2 ADD SWAP1 PUSH2 0x1697 JUMP JUMPDEST PUSH2 0x1A42 JUMP JUMPDEST POP RETURNDATASIZE PUSH2 0x1A56 JUMP JUMPDEST PUSH2 0x156C JUMP JUMPDEST PUSH2 0x1A98 SWAP1 PUSH0 RETURNDATASIZE DUP2 GT PUSH2 0x1A9E JUMPI JUMPDEST PUSH2 0x1A90 DUP2 DUP4 PUSH2 0x273 JUMP JUMPDEST DUP2 ADD SWAP1 PUSH2 0x1622 JUMP JUMPDEST PUSH0 PUSH2 0x1928 JUMP JUMPDEST POP RETURNDATASIZE PUSH2 0x1A86 JUMP JUMPDEST PUSH2 0x156C JUMP JUMPDEST PUSH2 0x1496 JUMP JUMPDEST PUSH2 0x1AD0 SWAP2 POP PUSH1 0x40 RETURNDATASIZE DUP2 GT PUSH2 0x1AD5 JUMPI JUMPDEST PUSH2 0x1AC8 DUP2 DUP4 PUSH2 0x273 JUMP JUMPDEST DUP2 ADD SWAP1 PUSH2 0x14D2 JUMP JUMPDEST PUSH2 0x1876 JUMP JUMPDEST POP RETURNDATASIZE PUSH2 0x1ABE JUMP JUMPDEST PUSH2 0x156C JUMP JUMPDEST SWAP1 JUMP JUMPDEST PUSH2 0x1AF8 PUSH2 0x1AF3 PUSH2 0x1AFD SWAP3 PUSH2 0x1AE1 JUMP JUMPDEST PUSH2 0x920 JUMP JUMPDEST PUSH2 0x2D2 JUMP JUMPDEST SWAP1 JUMP JUMPDEST PUSH0 SWAP1 JUMP JUMPDEST PUSH0 SWAP1 JUMP JUMPDEST PUSH1 0xFF AND SWAP1 JUMP JUMPDEST SWAP1 JUMP JUMPDEST PUSH2 0x1B25 PUSH2 0x1B20 PUSH2 0x1B2A SWAP3 PUSH2 0x1B0E JUMP JUMPDEST PUSH2 0x920 JUMP JUMPDEST PUSH2 0x1B08 JUMP JUMPDEST SWAP1 JUMP JUMPDEST PUSH4 0x4E487B71 PUSH1 0xE0 SHL PUSH0 MSTORE PUSH1 0x11 PUSH1 0x4 MSTORE PUSH1 0x24 PUSH0 REVERT JUMPDEST PUSH2 0x1B4D PUSH2 0x1B53 SWAP2 PUSH2 0x1B08 JUMP JUMPDEST SWAP2 PUSH2 0x1B08 JUMP JUMPDEST ADD SWAP1 PUSH1 0xFF DUP3 GT PUSH2 0x1B5F JUMPI JUMP JUMPDEST PUSH2 0x1B2D JUMP JUMPDEST SWAP1 JUMP JUMPDEST PUSH2 0x1B7B PUSH2 0x1B76 PUSH2 0x1B80 SWAP3 PUSH2 0x1B64 JUMP JUMPDEST PUSH2 0x920 JUMP JUMPDEST PUSH2 0x1B08 JUMP JUMPDEST SWAP1 JUMP JUMPDEST PUSH2 0x1B8C SWAP1 PUSH2 0x1B08 JUMP JUMPDEST SWAP1 MSTORE JUMP JUMPDEST PUSH2 0x1BC5 PUSH2 0x1BCC SWAP5 PUSH2 0x1BBB PUSH1 0x60 SWAP5 SWAP9 SWAP8 SWAP6 PUSH2 0x1BB1 PUSH1 0x80 DUP7 ADD SWAP11 PUSH0 DUP8 ADD SWAP1 PUSH2 0x14FF JUMP JUMPDEST PUSH1 0x20 DUP6 ADD SWAP1 PUSH2 0x1B83 JUMP JUMPDEST PUSH1 0x40 DUP4 ADD SWAP1 PUSH2 0x14FF JUMP JUMPDEST ADD SWAP1 PUSH2 0x14FF JUMP JUMPDEST JUMP JUMPDEST SWAP1 PUSH2 0x1BD7 PUSH2 0x111D JUMP JUMPDEST POP PUSH2 0x1BE0 PUSH2 0x1249 JUMP JUMPDEST POP PUSH2 0x1BEA DUP2 PUSH2 0x1486 JUMP JUMPDEST PUSH2 0x1BFD PUSH2 0x1BF7 PUSH1 0x41 PUSH2 0x1AE4 JUMP JUMPDEST SWAP2 PUSH2 0x2D2 JUMP JUMPDEST SUB PUSH2 0x1D09 JUMPI PUSH2 0x1C0A PUSH2 0x1B00 JUMP JUMPDEST POP PUSH2 0x1C13 PUSH2 0x1B00 JUMP JUMPDEST POP PUSH2 0x1C1C PUSH2 0x1B04 JUMP JUMPDEST POP PUSH1 0x20 DUP2 ADD MLOAD PUSH1 0x60 PUSH1 0x40 DUP4 ADD MLOAD SWAP3 ADD MLOAD PUSH0 BYTE DUP1 PUSH2 0x1C42 PUSH2 0x1C3C PUSH1 0x1B PUSH2 0x1B11 JUMP JUMPDEST SWAP2 PUSH2 0x1B08 JUMP JUMPDEST LT PUSH2 0x1CF0 JUMPI JUMPDEST DUP1 PUSH2 0x1C5C PUSH2 0x1C56 PUSH1 0x1B PUSH2 0x1B11 JUMP JUMPDEST SWAP2 PUSH2 0x1B08 JUMP JUMPDEST EQ ISZERO DUP1 PUSH2 0x1CD4 JUMPI JUMPDEST PUSH2 0x1CC2 JUMPI PUSH2 0x1C83 PUSH0 SWAP4 PUSH1 0x20 SWAP6 SWAP3 SWAP4 PUSH2 0x1C7A PUSH2 0x102 JUMP JUMPDEST SWAP5 DUP6 SWAP5 DUP6 PUSH2 0x1B90 JUMP JUMPDEST DUP4 DUP1 MSTORE SUB SWAP1 PUSH1 0x1 GAS STATICCALL ISZERO PUSH2 0x1CBD JUMPI PUSH2 0x1C9B PUSH0 MLOAD PUSH2 0xCCA JUMP JUMPDEST SWAP1 DUP2 PUSH2 0x1CB8 PUSH2 0x1CB2 PUSH2 0x1CAD PUSH1 0x3 PUSH2 0x1261 JUMP JUMPDEST PUSH2 0x14E JUMP JUMPDEST SWAP2 PUSH2 0x14E JUMP JUMPDEST EQ SWAP2 SWAP1 JUMP JUMPDEST PUSH2 0x156C JUMP JUMPDEST POP POP POP POP PUSH0 SWAP1 PUSH2 0x1CD1 PUSH0 PUSH2 0x1220 JUMP JUMPDEST SWAP1 JUMP JUMPDEST POP DUP1 PUSH2 0x1CE9 PUSH2 0x1CE3 PUSH1 0x1C PUSH2 0x1B67 JUMP JUMPDEST SWAP2 PUSH2 0x1B08 JUMP JUMPDEST EQ ISZERO PUSH2 0x1C64 JUMP JUMPDEST PUSH2 0x1D04 SWAP1 PUSH2 0x1CFE PUSH1 0x1B PUSH2 0x1B11 JUMP JUMPDEST SWAP1 PUSH2 0x1B41 JUMP JUMPDEST PUSH2 0x1C48 JUMP JUMPDEST POP POP PUSH0 SWAP1 PUSH2 0x1D16 PUSH0 PUSH2 0x1220 JUMP JUMPDEST SWAP1 JUMP JUMPDEST PUSH2 0x1D2A SWAP1 PUSH2 0x1D25 PUSH2 0x1E90 JUMP JUMPDEST PUSH2 0x1DD4 JUMP JUMPDEST JUMP JUMPDEST PUSH1 0x20 PUSH32 0x6464726573730000000000000000000000000000000000000000000000000000 SWAP2 PUSH32 0x4F776E61626C653A206E6577206F776E657220697320746865207A65726F2061 PUSH0 DUP3 ADD MSTORE ADD MSTORE JUMP JUMPDEST PUSH2 0x1D86 PUSH1 0x26 PUSH1 0x40 SWAP3 PUSH2 0x52F JUMP JUMPDEST PUSH2 0x1D8F DUP2 PUSH2 0x1D2C JUMP JUMPDEST ADD SWAP1 JUMP JUMPDEST PUSH2 0x1DA8 SWAP1 PUSH1 0x20 DUP2 ADD SWAP1 PUSH0 DUP2 DUP4 SUB SWAP2 ADD MSTORE PUSH2 0x1D79 JUMP JUMPDEST SWAP1 JUMP JUMPDEST ISZERO PUSH2 0x1DB2 JUMPI JUMP JUMPDEST PUSH2 0x1DBA PUSH2 0x102 JUMP JUMPDEST PUSH3 0x461BCD PUSH1 0xE5 SHL DUP2 MSTORE DUP1 PUSH2 0x1DD0 PUSH1 0x4 DUP3 ADD PUSH2 0x1D93 JUMP JUMPDEST SUB SWAP1 REVERT JUMPDEST PUSH2 0x1E02 SWAP1 PUSH2 0x1DFD DUP2 PUSH2 0x1DF6 PUSH2 0x1DF0 PUSH2 0x1DEB PUSH0 PUSH2 0x1220 JUMP JUMPDEST PUSH2 0x14E JUMP JUMPDEST SWAP2 PUSH2 0x14E JUMP JUMPDEST EQ ISZERO PUSH2 0x1DAB JUMP JUMPDEST PUSH2 0x1EBC JUMP JUMPDEST JUMP JUMPDEST PUSH2 0x1E0D SWAP1 PUSH2 0x1D19 JUMP JUMPDEST JUMP JUMPDEST PUSH0 PUSH32 0x4F776E61626C653A2063616C6C6572206973206E6F7420746865206F776E6572 SWAP2 ADD MSTORE JUMP JUMPDEST PUSH2 0x1E42 PUSH1 0x20 DUP1 SWAP3 PUSH2 0x52F JUMP JUMPDEST PUSH2 0x1E4B DUP2 PUSH2 0x1E0F JUMP JUMPDEST ADD SWAP1 JUMP JUMPDEST PUSH2 0x1E64 SWAP1 PUSH1 0x20 DUP2 ADD SWAP1 PUSH0 DUP2 DUP4 SUB SWAP2 ADD MSTORE PUSH2 0x1E36 JUMP JUMPDEST SWAP1 JUMP JUMPDEST ISZERO PUSH2 0x1E6E JUMPI JUMP JUMPDEST PUSH2 0x1E76 PUSH2 0x102 JUMP JUMPDEST PUSH3 0x461BCD PUSH1 0xE5 SHL DUP2 MSTORE DUP1 PUSH2 0x1E8C PUSH1 0x4 DUP3 ADD PUSH2 0x1E4F JUMP JUMPDEST SUB SWAP1 REVERT JUMPDEST PUSH2 0x1EBA PUSH2 0x1E9B PUSH2 0x126E JUMP JUMPDEST PUSH2 0x1EB4 PUSH2 0x1EAE PUSH2 0x1EA9 PUSH2 0x1F1B JUMP JUMPDEST PUSH2 0x14E JUMP JUMPDEST SWAP2 PUSH2 0x14E JUMP JUMPDEST EQ PUSH2 0x1E67 JUMP JUMPDEST JUMP JUMPDEST PUSH2 0x1EC5 PUSH0 PUSH2 0x1261 JUMP JUMPDEST PUSH2 0x1ECF DUP3 PUSH0 PUSH2 0x11BA JUMP JUMPDEST SWAP1 PUSH2 0x1F03 PUSH2 0x1EFD PUSH32 0x8BE0079C531659141344CD1FD0A4F28419497F9722A3DAAFE3B4186F6B6457E0 SWAP4 PUSH2 0x94B JUMP JUMPDEST SWAP2 PUSH2 0x94B JUMP JUMPDEST SWAP2 PUSH2 0x1F0C PUSH2 0x102 JUMP JUMPDEST DUP1 PUSH2 0x1F16 DUP2 PUSH2 0x3B7 JUMP JUMPDEST SUB SWAP1 LOG3 JUMP JUMPDEST PUSH2 0x1F23 PUSH2 0x1249 JUMP JUMPDEST POP CALLER SWAP1 JUMP INVALID LOG2 PUSH5 0x6970667358 0x22 SLT KECCAK256 SHR ADDMOD 0xF SHR 0xE5 SWAP12 STOP 0xDF 0xE2 PUSH24 0xA40A2BBB994718573083CEC1C2FC36E70C291A2F41B36473 PUSH16 0x6C634300081800330000000000000000 "},"methodIdentifiers":{"addQuest(uint256,uint256,string)":"2518346a","completeQuest(uint256,bytes,address,uint256)":"9ded9497","completed(address,uint256)":"aa995c2c","gameItem()":"5e8e9cd6","gameLogic()":"134087a2","getQuest(uint256)":"49f86f34","owner()":"8da5cb5b","purgeCompleted(address,uint256[])":"23030e8d","questVerifier()":"1ec47565","quests(uint256)":"e085f980","renounceOwnership()":"715018a6","setQuestVerifier(address)":"5650c21a","transferOwnership(address)":"f2fde38b","tryRecoverSignature(bytes32,bytes)":"a14318b4"}}}}}