{"project/contracts/EduToken.sol":{"EduToken":{"abi":[{"inputs":[],"stateMutability":"nonpayable","type":"constructor"},{"inputs":[],"name":"InvalidShortString","type":"error"},{"inputs":[{"internalType":"string","name":"str","type":"string"}],"name":"StringTooLong","type":"error"},{"anonymous":false,"inputs":[{"indexed":true,"internalType":"address","name":"account","type":"address"}],"name":"AddressBlocked","type":"event"},{"anonymous":false,"inputs":[{"indexed":true,"internalType":"address","name":"account","type":"address"}],"name":"AddressUnblocked","type":"event"},{"anonymous":false,"inputs":[{"indexed":true,"internalType":"address","name":"owner","type":"address"},{"indexed":true,"internalType":"address","name":"spender","type":"address"},{"indexed":false,"internalType":"uint256","name":"value","type":"uint256"}],"name":"Approval","type":"event"},{"anonymous":false,"inputs":[{"indexed":false,"internalType":"uint256","name":"day","type":"uint256"}],"name":"DailyMintCapReset","type":"event"},{"anonymous":false,"inputs":[],"name":"EIP712DomainChanged","type":"event"},{"anonymous":false,"inputs":[{"indexed":false,"internalType":"address","name":"account","type":"address"}],"name":"Paused","type":"event"},{"anonymous":false,"inputs":[{"indexed":true,"internalType":"bytes32","name":"role","type":"bytes32"},{"indexed":true,"internalType":"bytes32","name":"previousAdminRole","type":"bytes32"},{"indexed":true,"internalType":"bytes32","name":"newAdminRole","type":"bytes32"}],"name":"RoleAdminChanged","type":"event"},{"anonymous":false,"inputs":[{"indexed":true,"internalType":"bytes32","name":"role","type":"bytes32"},{"indexed":true,"internalType":"address","name":"account","type":"address"},{"indexed":true,"internalType":"address","name":"sender","type":"address"}],"name":"RoleGranted","type":"event"},{"anonymous":false,"inputs":[{"indexed":true,"internalType":"bytes32","name":"role","type":"bytes32"},{"indexed":true,"internalType":"address","name":"account","type":"address"},{"indexed":true,"internalType":"address","name":"sender","type":"address"}],"name":"RoleRevoked","type":"event"},{"anonymous":false,"inputs":[{"indexed":true,"internalType":"address","name":"from","type":"address"},{"indexed":true,"internalType":"address","name":"to","type":"address"},{"indexed":false,"internalType":"uint256","name":"value","type":"uint256"}],"name":"Transfer","type":"event"},{"anonymous":false,"inputs":[{"indexed":false,"internalType":"address","name":"account","type":"address"}],"name":"Unpaused","type":"event"},{"inputs":[],"name":"DAILY_MINT_CAP","outputs":[{"internalType":"uint256","name":"","type":"uint256"}],"stateMutability":"view","type":"function"},{"inputs":[],"name":"DEFAULT_ADMIN_ROLE","outputs":[{"internalType":"bytes32","name":"","type":"bytes32"}],"stateMutability":"view","type":"function"},{"inputs":[],"name":"DOMAIN_SEPARATOR","outputs":[{"internalType":"bytes32","name":"","type":"bytes32"}],"stateMutability":"view","type":"function"},{"inputs":[],"name":"MAX_SUPPLY","outputs":[{"internalType":"uint256","name":"","type":"uint256"}],"stateMutability":"view","type":"function"},{"inputs":[],"name":"MINTER_ROLE","outputs":[{"internalType":"bytes32","name":"","type":"bytes32"}],"stateMutability":"view","type":"function"},{"inputs":[],"name":"PAUSER_ROLE","outputs":[{"internalType":"bytes32","name":"","type":"bytes32"}],"stateMutability":"view","type":"function"},{"inputs":[{"internalType":"address","name":"owner","type":"address"},{"internalType":"address","name":"spender","type":"address"}],"name":"allowance","outputs":[{"internalType":"uint256","name":"","type":"uint256"}],"stateMutability":"view","type":"function"},{"inputs":[{"internalType":"address","name":"spender","type":"address"},{"internalType":"uint256","name":"amount","type":"uint256"}],"name":"approve","outputs":[{"internalType":"bool","name":"","type":"bool"}],"stateMutability":"nonpayable","type":"function"},{"inputs":[{"internalType":"address","name":"account","type":"address"}],"name":"balanceOf","outputs":[{"internalType":"uint256","name":"","type":"uint256"}],"stateMutability":"view","type":"function"},{"inputs":[{"internalType":"address[]","name":"recipients","type":"address[]"},{"internalType":"uint256[]","name":"amounts","type":"uint256[]"}],"name":"batchMint","outputs":[],"stateMutability":"nonpayable","type":"function"},{"inputs":[{"internalType":"address","name":"account","type":"address"}],"name":"blockAddress","outputs":[],"stateMutability":"nonpayable","type":"function"},{"inputs":[{"internalType":"address","name":"","type":"address"}],"name":"blocked","outputs":[{"internalType":"bool","name":"","type":"bool"}],"stateMutability":"view","type":"function"},{"inputs":[{"internalType":"uint256","name":"amount","type":"uint256"}],"name":"burn","outputs":[],"stateMutability":"nonpayable","type":"function"},{"inputs":[{"internalType":"address","name":"account","type":"address"},{"internalType":"uint256","name":"amount","type":"uint256"}],"name":"burnFrom","outputs":[],"stateMutability":"nonpayable","type":"function"},{"inputs":[],"name":"dailyMinted","outputs":[{"internalType":"uint256","name":"","type":"uint256"}],"stateMutability":"view","type":"function"},{"inputs":[],"name":"decimals","outputs":[{"internalType":"uint8","name":"","type":"uint8"}],"stateMutability":"view","type":"function"},{"inputs":[{"internalType":"address","name":"spender","type":"address"},{"internalType":"uint256","name":"subtractedValue","type":"uint256"}],"name":"decreaseAllowance","outputs":[{"internalType":"bool","name":"","type":"bool"}],"stateMutability":"nonpayable","type":"function"},{"inputs":[],"name":"eip712Domain","outputs":[{"internalType":"bytes1","name":"fields","type":"bytes1"},{"internalType":"string","name":"name","type":"string"},{"internalType":"string","name":"version","type":"string"},{"internalType":"uint256","name":"chainId","type":"uint256"},{"internalType":"address","name":"verifyingContract","type":"address"},{"internalType":"bytes32","name":"salt","type":"bytes32"},{"internalType":"uint256[]","name":"extensions","type":"uint256[]"}],"stateMutability":"view","type":"function"},{"inputs":[{"internalType":"bytes32","name":"role","type":"bytes32"}],"name":"getRoleAdmin","outputs":[{"internalType":"bytes32","name":"","type":"bytes32"}],"stateMutability":"view","type":"function"},{"inputs":[{"internalType":"bytes32","name":"role","type":"bytes32"},{"internalType":"address","name":"account","type":"address"}],"name":"grantRole","outputs":[],"stateMutability":"nonpayable","type":"function"},{"inputs":[{"internalType":"bytes32","name":"role","type":"bytes32"},{"internalType":"address","name":"account","type":"address"}],"name":"hasRole","outputs":[{"internalType":"bool","name":"","type":"bool"}],"stateMutability":"view","type":"function"},{"inputs":[{"internalType":"address","name":"spender","type":"address"},{"internalType":"uint256","name":"addedValue","type":"uint256"}],"name":"increaseAllowance","outputs":[{"internalType":"bool","name":"","type":"bool"}],"stateMutability":"nonpayable","type":"function"},{"inputs":[],"name":"lastMintDay","outputs":[{"internalType":"uint256","name":"","type":"uint256"}],"stateMutability":"view","type":"function"},{"inputs":[{"internalType":"address","name":"to","type":"address"},{"internalType":"uint256","name":"amount","type":"uint256"}],"name":"mint","outputs":[],"stateMutability":"nonpayable","type":"function"},{"inputs":[],"name":"name","outputs":[{"internalType":"string","name":"","type":"string"}],"stateMutability":"view","type":"function"},{"inputs":[{"internalType":"address","name":"owner","type":"address"}],"name":"nonces","outputs":[{"internalType":"uint256","name":"","type":"uint256"}],"stateMutability":"view","type":"function"},{"inputs":[],"name":"pause","outputs":[],"stateMutability":"nonpayable","type":"function"},{"inputs":[],"name":"paused","outputs":[{"internalType":"bool","name":"","type":"bool"}],"stateMutability":"view","type":"function"},{"inputs":[{"internalType":"address","name":"owner","type":"address"},{"internalType":"address","name":"spender","type":"address"},{"internalType":"uint256","name":"value","type":"uint256"},{"internalType":"uint256","name":"deadline","type":"uint256"},{"internalType":"uint8","name":"v","type":"uint8"},{"internalType":"bytes32","name":"r","type":"bytes32"},{"internalType":"bytes32","name":"s","type":"bytes32"}],"name":"permit","outputs":[],"stateMutability":"nonpayable","type":"function"},{"inputs":[],"name":"remainingDailyMintCapacity","outputs":[{"internalType":"uint256","name":"","type":"uint256"}],"stateMutability":"view","type":"function"},{"inputs":[],"name":"remainingSupplyCapacity","outputs":[{"internalType":"uint256","name":"","type":"uint256"}],"stateMutability":"view","type":"function"},{"inputs":[{"internalType":"bytes32","name":"role","type":"bytes32"},{"internalType":"address","name":"account","type":"address"}],"name":"renounceRole","outputs":[],"stateMutability":"nonpayable","type":"function"},{"inputs":[{"internalType":"bytes32","name":"role","type":"bytes32"},{"internalType":"address","name":"account","type":"address"}],"name":"revokeRole","outputs":[],"stateMutability":"nonpayable","type":"function"},{"inputs":[{"internalType":"bytes4","name":"interfaceId","type":"bytes4"}],"name":"supportsInterface","outputs":[{"internalType":"bool","name":"","type":"bool"}],"stateMutability":"view","type":"function"},{"inputs":[],"name":"symbol","outputs":[{"internalType":"string","name":"","type":"string"}],"stateMutability":"view","type":"function"},{"inputs":[],"name":"totalSupply","outputs":[{"internalType":"uint256","name":"","type":"uint256"}],"stateMutability":"view","type":"function"},{"inputs":[{"internalType":"address","name":"to","type":"address"},{"internalType":"uint256","name":"amount","type":"uint256"}],"name":"transfer","outputs":[{"internalType":"bool","name":"","type":"bool"}],"stateMutability":"nonpayable","type":"function"},{"inputs":[{"internalType":"address","name":"from","type":"address"},{"internalType":"address","name":"to","type":"address"},{"internalType":"uint256","name":"amount","type":"uint256"}],"name":"transferFrom","outputs":[{"internalType":"bool","name":"","type":"bool"}],"stateMutability":"nonpayable","type":"function"},{"inputs":[{"internalType":"address","name":"account","type":"address"}],"name":"unblockAddress","outputs":[],"stateMutability":"nonpayable","type":"function"},{"inputs":[],"name":"unpause","outputs":[],"stateMutability":"nonpayable","type":"function"}],"evm":{"bytecode":{"linkReferences":{},"object":"6101606040523462000070576200001562000247565b6200001f62000076565b61440162000d36823960805181612a5e015260a05181612a95015260c05181612a25015260e051816138200152610100518161384501526101205181611c4001526101405181611c75015261440190f35b6200007c565b60405190565b5f80fd5b601f801991011690565b634e487b7160e01b5f52604160045260245ffd5b90620000aa9062000080565b810190811060018060401b03821117620000c357604052565b6200008a565b90620000e0620000d862000076565b92836200009e565b565b60018060401b0381116200010157620000fd60209162000080565b0190565b6200008a565b906200011d6200011783620000e2565b620000c9565b918252565b5f7f456475436861696e2041636164656d7900000000000000000000000000000000910152565b62000155601062000107565b90620001646020830162000122565b565b6200017062000149565b90565b5f7f4544550000000000000000000000000000000000000000000000000000000000910152565b620001a6600362000107565b90620001b56020830162000173565b565b620001c16200019a565b90565b90565b90565b5f1b90565b620001e8620001e2620001ee92620001c4565b620001ca565b620001c7565b90565b620001fc5f620001cf565b90565b7f9f2df0fed2c77648de5860a4cc508cd0818c85b8b8a1ab4ceeef8d981c8956a690565b7f65d7a28e3265b37a6474929f336521b332c1681b933f6cb9f3376673440d862a90565b620002706200025562000166565b6200025f62000166565b62000269620001b7565b9162000308565b620002866200027e620001f1565b339062000806565b6200029c62000294620001ff565b339062000806565b620002b2620002aa62000223565b339062000806565b565b90620002c260ff91620001ca565b9181191691161790565b151590565b620002dc90620002cc565b90565b90565b90620002fc620002f66200030492620002d1565b620002df565b8254620002b4565b9055565b9062000315929162000324565b620003225f600a620002e2565b565b9062000331929162000333565b565b9062000340929162000342565b565b906200034f929162000351565b565b906200035e9291620003b1565b565b5f7f3100000000000000000000000000000000000000000000000000000000000000910152565b62000393600162000107565b90620003a26020830162000360565b565b620003ae62000387565b90565b90620003c99291620003c2620003a4565b9062000427565b565b90565b90565b60200190565b5190565b60018060a01b031690565b90565b62000402620003fc6200040892620003db565b620003e6565b620003db565b90565b6200041690620003e9565b90565b62000424906200040b565b90565b6200043c6200049a946200047a9394620004d6565b62000454816200044d6005620003cb565b906200091d565b610120526200047083620004696006620003cb565b906200091d565b61014052620003ce565b620004906200048982620003d7565b91620003d1565b2060e052620003ce565b620004b0620004a982620003d7565b91620003d1565b20610100524660a052620004c362000a64565b608052620004d13062000419565b60c052565b90620004e291620004e4565b565b90620004f091620004f2565b565b90620004fe9162000799565b565b5190565b634e487b7160e01b5f52602260045260245ffd5b90600160028304921680156200053b575b60208310146200053557565b62000504565b91607f169162000529565b5f5260205f2090565b601f602091010490565b1b90565b919060086200057c910291620005755f198462000559565b9262000559565b9181191691161790565b90565b620005a26200059c620005a89262000586565b620003e6565b62000586565b90565b90565b9190620005c9620005c3620005d29362000589565b620005ab565b9083546200055d565b9055565b5f90565b620005f091620005e9620005d6565b91620005ae565b565b5b818110620005ff575050565b806200060e5f600193620005da565b01620005f3565b9190601f811162000626575b505050565b62000635620006609362000546565b90602062000643846200054f565b8301931062000669575b62000658906200054f565b0190620005f2565b5f808062000621565b915062000658819290506200064d565b1c90565b906200068f905f199060080262000679565b191690565b81620006a0916200067d565b906002021790565b90620006b48162000500565b9060018060401b0382116200078557620006db82620006d4855462000518565b8562000615565b602090601f8311600114620007145791809162000702935f9262000707575b505062000694565b90555b565b90915001515f80620006fa565b601f19831691620007258562000546565b925f5b8181106200076c575091600293918560019694106200074f575b5050500201905562000705565b62000761910151601f8416906200067d565b90555f808062000742565b9193602060018192878701518155019501920162000728565b6200008a565b906200079791620006a8565b565b90620007ab620007b39260036200078b565b60046200078b565b565b620007c090620001c7565b90565b90620007cf90620007b5565b5f5260205260405f2090565b620007e6906200040b565b90565b90620007f590620007db565b5f5260205260405f2090565b5f0190565b6200081e6200081782849062000b1f565b15620002cc565b62000828575b5050565b6200085060016200084a5f6200084160098690620007c3565b018590620007e9565b620002e2565b906200085b62000b55565b906200089e62000897620008907f2f8788117e7eff1d82e926ec794901d17c78024a50270940304540a733656f0d95620007b5565b92620007db565b92620007db565b92620008a962000076565b80620008b58162000801565b0390a45f8062000824565b5f90565b90565b620008e0620008da620008e692620008c4565b620003e6565b62000586565b90565b90565b62000905620008ff6200090b92620008e9565b620001ca565b620001c7565b90565b6200091a60ff620008ec565b90565b9062000928620008c0565b506200093e6200093883620003ce565b620003d7565b620009556200094e6020620008c7565b9162000586565b105f146200096c5750620009699062000c92565b90565b5f6200097d62000984939262000b64565b016200078b565b62000998620009926200090e565b620007b5565b90565b5f90565b7f8b73c3c69bb8fe3d512ecc4cf759cc79239f7b179b0ffacaa9a75d522b39400f90565b620009cf9051620001c7565b90565b620009dd90620001c7565b9052565b620009ec9062000586565b9052565b620009fb90620003db565b90565b62000a0990620009f0565b9052565b9095949262000a629462000a4f62000a5a9262000a4460809662000a3960a088019c5f890190620009d2565b6020870190620009d2565b6040850190620009d2565b6060830190620009e1565b0190620009fe565b565b62000a6e6200099b565b5062000a796200099f565b62000acf62000a8960e0620009c3565b9162000abf62000a9b610100620009c3565b4662000aa73062000419565b9162000ab262000076565b9687956020870162000a0d565b602082018103825203826200009e565b62000ae562000ade82620003d7565b91620003d1565b2090565b5f90565b5f1c90565b60ff1690565b62000b0762000b0d9162000aed565b62000af2565b90565b62000b1c905462000af8565b90565b62000b4e915f62000b4162000b489362000b3862000ae9565b506009620007c3565b01620007e9565b62000b10565b90565b5f90565b62000b5f62000b51565b503390565b90565b90565b62000b8362000b7d62000b899262000b67565b620003e6565b62000586565b90565b60209181520190565b5f5b83811062000ba8575050905f910152565b80602091830151818501520162000b97565b62000bdf62000be960209362000bef9362000bd58162000500565b9384809362000b8c565b9586910162000b95565b62000080565b0190565b62000c0a9160208201915f81840391015262000bba565b90565b62000c2d62000c2762000c2083620003d7565b92620003d1565b620009c3565b906020811062000c3c575b5090565b62000c50905f199060200360080262000559565b165f62000c38565b62000c6762000c6d9162000aed565b62000589565b90565b62000c8962000c8362000c8f9262000586565b620001ca565b620001c7565b90565b62000c9c620008c0565b5062000ca881620003ce565b9062000cb482620003d7565b62000ccb62000cc4601f62000b6a565b9162000586565b1162000d0b575062000d028162000cfb62000cf462000cee62000d089562000c0d565b62000c58565b91620003d7565b1762000c70565b620007b5565b90565b62000d319062000d1a62000076565b91829163305a27a960e01b83526004830162000bf3565b0390fdfe60806040526004361015610013575b6112ae565b61001d5f3561029c565b806301ffc9a71461029757806306fdde0314610292578063095ea7b31461028d5780630d5c44301461028857806318160ddd14610283578063186d9d881461027e57806323b872dd14610279578063248a9ca3146102745780632f2ff15d1461026f578063313ce5671461026a57806332cb6b0c146102655780633644e5151461026057806336568abe1461025b57806339509351146102565780633f4ba83a1461025157806340c10f191461024c57806342966c68146102475780635c975abb14610242578063685731071461023d57806370a082311461023857806379cc6790146102335780637ecebe001461022e5780638456cb5914610229578063848465e31461022457806384b0196e1461021f57806391d148541461021a57806395d89b4114610215578063a217fddf14610210578063a457c2d71461020b578063a9059cbb14610206578063ad2bb1b314610201578063b222b59d146101fc578063d505accf146101f7578063d5391393146101f2578063d547741f146101ed578063dd62ed3e146101e8578063e27cafb9146101e3578063e5962195146101de578063e63ab1e9146101d95763f3dc38380361000e57611279565b611244565b6111e0565b61111c565b6110d7565b611076565b611041565b610fd8565b610f10565b610edd565b610ea7565b610e71565b610e3c565b610dcc565b610d96565b610d5a565b610c06565b610b92565b610b5d565b610b29565b610af4565b610abd565b61099f565b61096c565b61091a565b6108e7565b6108b1565b61087d565b610848565b610813565b610799565b61073d565b6106db565b61063f565b6105d2565b61057a565b610545565b6104b1565b6103ef565b610328565b60e01c90565b60405190565b5f80fd5b5f80fd5b5f80fd5b63ffffffff60e01b1690565b6102c9816102b4565b036102d057565b5f80fd5b905035906102e1826102c0565b565b906020828203126102fc576102f9915f016102d4565b90565b6102ac565b151590565b61030f90610301565b9052565b9190610326905f60208501940190610306565b565b346103585761035461034361033e3660046102e3565b6112b6565b61034b6102a2565b91829182610313565b0390f35b6102a8565b5f91031261036757565b6102ac565b5190565b60209181520190565b5f5b83811061038b575050905f910152565b80602091830151818501520161037b565b601f801991011690565b6103c56103ce6020936103d3936103bc8161036c565b93848093610370565b95869101610379565b61039c565b0190565b6103ec9160208201915f8184039101526103a6565b90565b3461041f576103ff36600461035d565b61041b61040a61144f565b6104126102a2565b918291826103d7565b0390f35b6102a8565b60018060a01b031690565b61043890610424565b90565b6104448161042f565b0361044b57565b5f80fd5b9050359061045c8261043b565b565b90565b61046a8161045e565b0361047157565b5f80fd5b9050359061048282610461565b565b91906040838203126104ac57806104a06104a9925f860161044f565b93602001610475565b90565b6102ac565b346104e2576104de6104cd6104c7366004610484565b90611465565b6104d56102a2565b91829182610313565b0390f35b6102a8565b1c90565b90565b6104fe90600861050393026104e7565b6104eb565b90565b9061051191546104ee565b90565b610520600b5f90610506565b90565b61052c9061045e565b9052565b9190610543905f60208501940190610523565b565b346105755761055536600461035d565b610571610560610514565b6105686102a2565b91829182610530565b0390f35b6102a8565b346105aa5761058a36600461035d565b6105a66105956114b1565b61059d6102a2565b91829182610530565b0390f35b6102a8565b906020828203126105c8576105c5915f0161044f565b90565b6102ac565b5f0190565b34610600576105ea6105e53660046105af565b61157e565b6105f26102a2565b806105fc816105cd565b0390f35b6102a8565b909160608284031261063a57610637610620845f850161044f565b9361062e816020860161044f565b93604001610475565b90565b6102ac565b346106705761066c61065b610655366004610605565b91611589565b6106636102a2565b91829182610313565b0390f35b6102a8565b90565b61068181610675565b0361068857565b5f80fd5b9050359061069982610678565b565b906020828203126106b4576106b1915f0161068c565b90565b6102ac565b6106c290610675565b9052565b91906106d9905f602085019401906106b9565b565b3461070b576107076106f66106f136600461069b565b611602565b6106fe6102a2565b918291826106c6565b0390f35b6102a8565b9190604083820312610738578061072c610735925f860161068c565b9360200161044f565b90565b6102ac565b3461076c57610756610750366004610710565b9061164d565b61075e6102a2565b80610768816105cd565b0390f35b6102a8565b60ff1690565b61078090610771565b9052565b9190610797905f60208501940190610777565b565b346107c9576107a936600461035d565b6107c56107b461167c565b6107bc6102a2565b91829182610784565b0390f35b6102a8565b90565b90565b6107e86107e36107ed926107ce565b6107d1565b61045e565b90565b6108056b033b2e3c9fd0803ce80000006107d4565b90565b6108106107f0565b90565b346108435761082336600461035d565b61083f61082e610808565b6108366102a2565b91829182610530565b0390f35b6102a8565b346108785761085836600461035d565b610874610863611692565b61086b6102a2565b918291826106c6565b0390f35b6102a8565b346108ac57610896610890366004610710565b9061174e565b61089e6102a2565b806108a8816105cd565b0390f35b6102a8565b346108e2576108de6108cd6108c7366004610484565b906117b6565b6108d56102a2565b91829182610313565b0390f35b6102a8565b34610915576108f736600461035d565b6108ff61180f565b6109076102a2565b80610911816105cd565b0390f35b6102a8565b346109495761093361092d366004610484565b90611855565b61093b6102a2565b80610945816105cd565b0390f35b6102a8565b9060208282031261096757610964915f01610475565b90565b6102ac565b3461099a5761098461097f36600461094e565b611861565b61098c6102a2565b80610996816105cd565b0390f35b6102a8565b346109cf576109af36600461035d565b6109cb6109ba611895565b6109c26102a2565b91829182610313565b0390f35b6102a8565b5f80fd5b5f80fd5b5f80fd5b909182601f83011215610a1a5781359167ffffffffffffffff8311610a15576020019260208302840111610a1057565b6109dc565b6109d8565b6109d4565b909182601f83011215610a595781359167ffffffffffffffff8311610a54576020019260208302840111610a4f57565b6109dc565b6109d8565b6109d4565b9091604082840312610ab8575f82013567ffffffffffffffff8111610ab35783610a899184016109e0565b929093602082013567ffffffffffffffff8111610aae57610aaa9201610a1f565b9091565b6102b0565b6102b0565b6102ac565b34610aef57610ad9610ad0366004610a5e565b92919091611a94565b610ae16102a2565b80610aeb816105cd565b0390f35b6102a8565b34610b2457610b20610b0f610b0a3660046105af565b611ab8565b610b176102a2565b91829182610530565b0390f35b6102a8565b34610b5857610b42610b3c366004610484565b90611ad6565b610b4a6102a2565b80610b54816105cd565b0390f35b6102a8565b34610b8d57610b89610b78610b733660046105af565b611b0e565b610b806102a2565b91829182610530565b0390f35b6102a8565b34610bc057610ba236600461035d565b610baa611b59565b610bb26102a2565b80610bbc816105cd565b0390f35b6102a8565b90565b610bdc610bd7610be192610bc5565b6107d1565b61045e565b90565b610bf86a0422ca8b0a00a425000000610bc8565b90565b610c03610be4565b90565b34610c3657610c1636600461035d565b610c32610c21610bfb565b610c296102a2565b91829182610530565b0390f35b6102a8565b60ff60f81b1690565b610c4d90610c3b565b9052565b610c5a9061042f565b9052565b5190565b60209181520190565b60200190565b610c7a9061045e565b9052565b90610c8b81602093610c71565b0190565b60200190565b90610cb2610cac610ca584610c5e565b8093610c62565b92610c6b565b905f5b818110610cc25750505090565b909192610cdb610cd56001928651610c7e565b94610c8f565b9101919091610cb5565b93959194610d36610d2b610d4a95610d1d610d4095610d579c9a610d1060e08c01925f8d0190610c44565b8a820360208c01526103a6565b9088820360408a01526103a6565b976060870190610523565b6080850190610c51565b60a08301906106b9565b60c0818403910152610c95565b90565b34610d9157610d6a36600461035d565b610d8d610d75611bfc565b93610d849795979391936102a2565b97889788610ce5565b0390f35b6102a8565b34610dc757610dc3610db2610dac366004610710565b90611cde565b610dba6102a2565b91829182610313565b0390f35b6102a8565b34610dfc57610ddc36600461035d565b610df8610de7611d08565b610def6102a2565b918291826103d7565b0390f35b6102a8565b90565b5f1b90565b610e1d610e18610e2292610e01565b610e04565b610675565b90565b610e2e5f610e09565b90565b610e39610e25565b90565b34610e6c57610e4c36600461035d565b610e68610e57610e31565b610e5f6102a2565b918291826106c6565b0390f35b6102a8565b34610ea257610e9e610e8d610e87366004610484565b90611dd4565b610e956102a2565b91829182610313565b0390f35b6102a8565b34610ed857610ed4610ec3610ebd366004610484565b90611e28565b610ecb6102a2565b91829182610313565b0390f35b6102a8565b34610f0b57610ef5610ef03660046105af565b611ebd565b610efd6102a2565b80610f07816105cd565b0390f35b6102a8565b34610f4057610f2036600461035d565b610f3c610f2b611f42565b610f336102a2565b91829182610530565b0390f35b6102a8565b610f4e81610771565b03610f5557565b5f80fd5b90503590610f6682610f45565b565b60e081830312610fd357610f7e825f830161044f565b92610f8c836020840161044f565b92610f9a8160408501610475565b92610fa88260608301610475565b92610fd0610fb98460808501610f59565b93610fc78160a0860161068c565b9360c00161068c565b90565b6102ac565b3461100d57610ff7610feb366004610f68565b9594909493919361213f565b610fff6102a2565b80611009816105cd565b0390f35b6102a8565b7f9f2df0fed2c77648de5860a4cc508cd0818c85b8b8a1ab4ceeef8d981c8956a690565b61103e611012565b90565b346110715761105136600461035d565b61106d61105c611036565b6110646102a2565b918291826106c6565b0390f35b6102a8565b346110a55761108f611089366004610710565b9061221e565b6110976102a2565b806110a1816105cd565b0390f35b6102a8565b91906040838203126110d257806110c66110cf925f860161044f565b9360200161044f565b90565b6102ac565b34611108576111046110f36110ed3660046110aa565b90612240565b6110fb6102a2565b91829182610530565b0390f35b6102a8565b611119600c5f90610506565b90565b3461114c5761112c36600461035d565b61114861113761110d565b61113f6102a2565b91829182610530565b0390f35b6102a8565b61116561116061116a92610424565b6107d1565b610424565b90565b61117690611151565b90565b6111829061116d565b90565b9061118f90611179565b5f5260205260405f2090565b60ff1690565b6111b19060086111b693026104e7565b61119b565b90565b906111c491546111a1565b90565b6111dd906111d8600d915f92611185565b6111b9565b90565b346112105761120c6111fb6111f63660046105af565b6111c7565b6112036102a2565b91829182610313565b0390f35b6102a8565b7f65d7a28e3265b37a6474929f336521b332c1681b933f6cb9f3376673440d862a90565b611241611215565b90565b346112745761125436600461035d565b61127061125f611239565b6112676102a2565b918291826106c6565b0390f35b6102a8565b346112a95761128936600461035d565b6112a5611294612268565b61129c6102a2565b91829182610530565b0390f35b6102a8565b5f80fd5b5f90565b6112be6112b2565b50806112d96112d3637965db0b60e01b6102b4565b916102b4565b149081156112e6575b5090565b6112f0915061228d565b5f6112e2565b606090565b634e487b7160e01b5f52602260045260245ffd5b906001600283049216801561132f575b602083101461132a57565b6112fb565b91607f169161131f565b60209181520190565b5f5260205f2090565b905f929180549061136561135e8361130f565b8094611339565b916001811690815f146113bc5750600114611380575b505050565b61138d9192939450611342565b915f925b8184106113a457505001905f808061137b565b60018160209295939554848601520191019290611391565b92949550505060ff19168252151560200201905f808061137b565b906113e19161134b565b90565b634e487b7160e01b5f52604160045260245ffd5b906114029061039c565b810190811067ffffffffffffffff82111761141c57604052565b6113e4565b9061144161143a926114316102a2565b938480926113d7565b03836113f8565b565b61144c90611421565b90565b6114576112f6565b506114626003611443565b90565b611482916114716112b2565b5061147a6122b3565b91909161248d565b600190565b5f90565b5f1c90565b61149c6114a19161148b565b6104eb565b90565b6114ae9054611490565b90565b6114b9611487565b506114c460026114a4565b90565b6114e0906114db6114d6610e25565b612549565b611527565b565b906114ee60ff91610e04565b9181191691161790565b61150190610301565b90565b90565b9061151c611517611523926114f8565b611504565b82546114e2565b9055565b61153c5f611537600d8490611185565b611507565b6115667f385b21b54e2348e690dec29e9741026142b02eaabfcc2fcb676cebcb7cd1653491611179565b9061156f6102a2565b80611579816105cd565b0390a2565b611587906114c7565b565b916115b3926115966112b2565b506115ab6115a26122b3565b829084916125df565b91909161284c565b600190565b5f90565b6115c590610675565b90565b906115d2906115bc565b5f5260205260405f2090565b90565b6115ed6115f29161148b565b6115de565b90565b6115ff90546115e1565b90565b600161161b611621926116136115b8565b5060096115c8565b016115f5565b90565b9061163f9161163a61163582611602565b612549565b611641565b565b9061164b91612969565b565b9061165791611624565b565b5f90565b90565b61167461166f6116799261165d565b6107d1565b610771565b90565b611684611659565b5061168f6012611660565b90565b61169a6115b8565b506116a3612a0b565b90565b60207f20726f6c657320666f722073656c660000000000000000000000000000000000917f416363657373436f6e74726f6c3a2063616e206f6e6c792072656e6f756e63655f8201520152565b611700602f604092610370565b611709816116a6565b0190565b6117229060208101905f8183039101526116f3565b90565b1561172c57565b6117346102a2565b62461bcd60e51b81528061174a6004820161170d565b0390fd5b9061177b916117768261177061176a6117656122b3565b61042f565b9161042f565b14611725565b612ac5565b565b634e487b7160e01b5f52601160045260245ffd5b6117a06117a69193929361045e565b9261045e565b82018092116117b157565b61177d565b6117e6916117c26112b2565b506117e06117ce6122b3565b916117db83948094612240565b611791565b9161248d565b600190565b6117fb6117f6611215565b612549565b611803611805565b565b61180d612bd2565b565b6118176117eb565b565b906118339161182e611829611012565b612549565b611835565b565b9061184791611842612c5e565b611849565b565b9061185391612e81565b565b9061185f91611819565b565b6118729061186d6122b3565b613146565b565b6118806118859161148b565b61119b565b90565b6118929054611874565b90565b61189d6112b2565b506118a8600a611888565b90565b906118c79392916118c26118bd611012565b612549565b6118c9565b565b906118dd9392916118d8612c5e565b6119ec565b565b5090565b5090565b5f7f4c656e677468206d69736d617463680000000000000000000000000000000000910152565b61191b600f602092610370565b611924816118e7565b0190565b61193d9060208101905f81830391015261190e565b90565b1561194757565b61194f6102a2565b62461bcd60e51b81528061196560048201611928565b0390fd5b61197d61197861198292610e01565b6107d1565b61045e565b90565b6001611991910161045e565b90565b634e487b7160e01b5f52603260045260245ffd5b91908110156119b8576020020190565b611994565b356119c78161043b565b90565b91908110156119da576020020190565b611994565b356119e981610461565b90565b93929193611a206119fe8284906118df565b611a1a611a14611a0f8988906118e3565b61045e565b9161045e565b14611940565b611a295f611969565b5b80611a47611a41611a3c8587906118df565b61045e565b9161045e565b1015611a8c57611a8790611a82611a68611a63858785916119a8565b6119bd565b611a7c611a778a8986916119ca565b6119df565b90612e81565b611985565b611a2a565b505050509050565b90611aa09392916118ab565b565b90611aac90611179565b5f5260205260405f2090565b611ace611ad391611ac7611487565b505f611aa2565b6114a4565b90565b90611af391611aee81611ae76122b3565b84916125df565b613146565b565b90611aff90611179565b5f5260205260405f2090565b90565b611b2d611b28611b3292611b20611487565b506007611af5565b611b0b565b613242565b90565b611b45611b40611215565b612549565b611b4d611b4f565b565b611b576132ba565b565b611b61611b35565b565b5f90565b5f90565b606090565b90565b611b7c9061116d565b90565b90611b92611b8b6102a2565b92836113f8565b565b67ffffffffffffffff8111611bac5760208091020190565b6113e4565b90611bc3611bbe83611b94565b611b7f565b918252565b369037565b90611bf2611bda83611bb1565b92602080611be88693611b94565b9201910390611bc8565b565b600f60f81b90565b611c04611b63565b50611c0d6112f6565b50611c166112f6565b50611c1f611487565b50611c28611b67565b50611c316115b8565b50611c3a611b6b565b50611c6f7f0000000000000000000000000000000000000000000000000000000000000000611c696005611b70565b906133c0565b90611ca47f0000000000000000000000000000000000000000000000000000000000000000611c9e6006611b70565b906133c0565b904690611cb030611b73565b90611cba5f610e09565b90611ccc611cc75f611969565b611bcd565b90611cd5611bf4565b96959493929190565b611d05915f611cfa611d0093611cf26112b2565b5060096115c8565b01611185565b611888565b90565b611d106112f6565b50611d1b6004611443565b90565b60207f207a65726f000000000000000000000000000000000000000000000000000000917f45524332303a2064656372656173656420616c6c6f77616e63652062656c6f775f8201520152565b611d786025604092610370565b611d8181611d1e565b0190565b611d9a9060208101905f818303910152611d6b565b90565b15611da457565b611dac6102a2565b62461bcd60e51b815280611dc260048201611d85565b0390fd5b90611dd1910361045e565b90565b611e2391611de06112b2565b50611e1d611dec6122b3565b91611df8838590612240565b92611e1684611e0f611e098561045e565b9161045e565b1015611d9d565b9392611dc6565b9161248d565b600190565b611e4591611e346112b2565b50611e3d6122b3565b91909161284c565b600190565b611e6390611e5e611e59610e25565b612549565b611e65565b565b611e7b6001611e76600d8490611185565b611507565b611ea57f71fa9c99da9552de60a9ccf693f5a91456cbb8c205c8e532b1f55339903543cf91611179565b90611eae6102a2565b80611eb8816105cd565b0390a2565b611ec690611e4a565b565b90565b611edf611eda611ee492611ec8565b6107d1565b61045e565b90565b634e487b7160e01b5f52601260045260245ffd5b611f07611f0d9161045e565b9161045e565b908115611f18570490565b611ee7565b611f2c611f329193929361045e565b9261045e565b8203918211611f3d57565b61177d565b611f4a611487565b50611f6142611f5b62015180611ecb565b90611efb565b611f7c611f76611f71600c6114a4565b61045e565b9161045e565b115f14611fa057611f9d611f8f5f611969565b5b611f98610be4565b611f1d565b90565b611f9d611fad600b6114a4565b611f90565b5f7f45524332305065726d69743a206578706972656420646561646c696e65000000910152565b611fe6601d602092610370565b611fef81611fb2565b0190565b6120089060208101905f818303910152611fd9565b90565b1561201257565b61201a6102a2565b62461bcd60e51b81528061203060048201611ff3565b0390fd5b7f6e71edae12b1b97f4d1f60370fef10105fa2faae0126114a169c64845d6126c990565b91946120a06120aa9298979561209660a09661208c6120b19a61208260c08a019e5f8b01906106b9565b6020890190610c51565b6040870190610c51565b6060850190610523565b6080830190610523565b0190610523565b565b60200190565b5190565b5f7f45524332305065726d69743a20696e76616c6964207369676e61747572650000910152565b6120f1601e602092610370565b6120fa816120bd565b0190565b6121139060208101905f8183039101526120e4565b90565b1561211d57565b6121256102a2565b62461bcd60e51b81528061213b600482016120fe565b0390fd5b92936121f39682966121ca6121d3946121b26121eb97996121734261216c6121668461045e565b9161045e565b111561200b565b6121a38b61217f612034565b928c61218d8197939161340e565b91926121976102a2565b97889660208801612058565b602082018103825203826113f8565b6121c46121be826120b9565b916120b3565b2061343f565b9290919261345c565b6121e56121df8461042f565b9161042f565b14612116565b91909161248d565b565b906122109161220b61220682611602565b612549565b612212565b565b9061221c91612ac5565b565b90612228916121f5565b565b9061223490611179565b5f5260205260405f2090565b6122659161225b61226092612253611487565b50600161222a565b611aa2565b6114a4565b90565b612270611487565b5061228a61227c6107f0565b6122846114b1565b90611f1d565b90565b6122956112b2565b506122af6122a96301ffc9a760e01b6102b4565b916102b4565b1490565b6122bb611b67565b503390565b6122d46122cf6122d992610e01565b6107d1565b610424565b90565b6122e5906122c0565b90565b60207f7265737300000000000000000000000000000000000000000000000000000000917f45524332303a20617070726f76652066726f6d20746865207a65726f206164645f8201520152565b6123426024604092610370565b61234b816122e8565b0190565b6123649060208101905f818303910152612335565b90565b1561236e57565b6123766102a2565b62461bcd60e51b81528061238c6004820161234f565b0390fd5b60207f7373000000000000000000000000000000000000000000000000000000000000917f45524332303a20617070726f766520746f20746865207a65726f2061646472655f8201520152565b6123ea6022604092610370565b6123f381612390565b0190565b61240c9060208101905f8183039101526123dd565b90565b1561241657565b61241e6102a2565b62461bcd60e51b815280612434600482016123f7565b0390fd5b906124445f1991610e04565b9181191691161790565b61246261245d6124679261045e565b6107d1565b61045e565b90565b90565b9061248261247d6124899261244e565b61246a565b8254612438565b9055565b9190916124b5816124ae6124a86124a35f6122dc565b61042f565b9161042f565b1415612367565b6124da836124d36124cd6124c85f6122dc565b61042f565b9161042f565b141561240f565b6124f9826124f46124ed6001859061222a565b8690611aa2565b61246d565b91909161254461253261252c7f8c5be1e5ebec7d5bd14f71427d1e84f3dd0314c0f7b2291e5b200ac8c7c3b92593611179565b93611179565b9361253b6102a2565b91829182610530565b0390a3565b61255b906125556122b3565b9061358e565b565b5f7f45524332303a20696e73756666696369656e7420616c6c6f77616e6365000000910152565b612591601d602092610370565b61259a8161255d565b0190565b6125b39060208101905f818303910152612584565b90565b156125bd57565b6125c56102a2565b62461bcd60e51b8152806125db6004820161259e565b0390fd5b6125ea818390612240565b90816125ff6125f95f1961045e565b9161045e565b0361260b575b50505050565b61263d9361263791612630846126296126238561045e565b9161045e565b10156125b6565b9392611dc6565b9161248d565b5f808080612605565b60207f6472657373000000000000000000000000000000000000000000000000000000917f45524332303a207472616e736665722066726f6d20746865207a65726f2061645f8201520152565b6126a06025604092610370565b6126a981612646565b0190565b6126c29060208101905f818303910152612693565b90565b156126cc57565b6126d46102a2565b62461bcd60e51b8152806126ea600482016126ad565b0390fd5b60207f6573730000000000000000000000000000000000000000000000000000000000917f45524332303a207472616e7366657220746f20746865207a65726f20616464725f8201520152565b6127486023604092610370565b612751816126ee565b0190565b61276a9060208101905f81830391015261273b565b90565b1561277457565b61277c6102a2565b62461bcd60e51b81528061279260048201612755565b0390fd5b60207f616c616e63650000000000000000000000000000000000000000000000000000917f45524332303a207472616e7366657220616d6f756e74206578636565647320625f8201520152565b6127f06026604092610370565b6127f981612796565b0190565b6128129060208101905f8183039101526127e3565b90565b1561281c57565b6128246102a2565b62461bcd60e51b81528061283a600482016127fd565b0390fd5b90612849910161045e565b90565b9190916128748161286d6128676128625f6122dc565b61042f565b9161042f565b14156126c5565b6128998361289261288c6128875f6122dc565b61042f565b9161042f565b141561276d565b6128a58184849161378c565b6128f26128e26128be6128b95f8590611aa2565b6114a4565b6128db816128d46128ce8861045e565b9161045e565b1015612815565b8490611dc6565b6128ed5f8490611aa2565b61246d565b612919826129136129045f8790611aa2565b9161290e836114a4565b61283e565b9061246d565b91909161296461295261294c7fddf252ad1be2c89b69c2b068fc378daa952ba7f163c4a11628f55a4df523b3ef93611179565b93611179565b9361295b6102a2565b91829182610530565b0390a3565b61297d612977828490611cde565b15610301565b612986575b5050565b6129a860016129a35f61299b600986906115c8565b018590611185565b611507565b906129b16122b3565b906129ee6129e86129e27f2f8788117e7eff1d82e926ec794901d17c78024a50270940304540a733656f0d956115bc565b92611179565b92611179565b926129f76102a2565b80612a01816105cd565b0390a45f80612982565b612a136115b8565b50612a1d30611b73565b612a4f612a497f000000000000000000000000000000000000000000000000000000000000000061042f565b9161042f565b1480612a8b575b5f14612a80577f000000000000000000000000000000000000000000000000000000000000000090565b612a8861380a565b90565b5046612abf612ab97f000000000000000000000000000000000000000000000000000000000000000061045e565b9161045e565b14612a56565b612ad0818390611cde565b612ad9575b5050565b612afa5f612af55f612aed600986906115c8565b018590611185565b611507565b90612b036122b3565b90612b40612b3a612b347ff6391f5c32d9c69d2a47ea670b442974b53935d1edc7fd64eb21e047a839171b956115bc565b92611179565b92611179565b92612b496102a2565b80612b53816105cd565b0390a45f80612ad5565b612b6561392a565b612b6d612b84565b565b9190612b82905f60208501940190610c51565b565b612b8f5f600a611507565b612b976122b3565b612bcd7f5db9ee0a495bf2e6ff9c91a7834c1ba4fdd244a5e8aa4e537bd38aeae4b073aa91612bc46102a2565b91829182612b6f565b0390a1565b612bda612b5d565b565b5f7f5061757361626c653a2070617573656400000000000000000000000000000000910152565b612c106010602092610370565b612c1981612bdc565b0190565b612c329060208101905f818303910152612c03565b90565b15612c3c57565b612c446102a2565b62461bcd60e51b815280612c5a60048201612c1d565b0390fd5b612c77612c72612c6c611895565b15610301565b612c35565b565b5f7f4d696e7420746f207a65726f2061646472657373000000000000000000000000910152565b612cad6014602092610370565b612cb681612c79565b0190565b612ccf9060208101905f818303910152612ca0565b90565b15612cd957565b612ce16102a2565b62461bcd60e51b815280612cf760048201612cba565b0390fd5b5f7f4164647265737320626c6f636b65640000000000000000000000000000000000910152565b612d2f600f602092610370565b612d3881612cfb565b0190565b612d519060208101905f818303910152612d22565b90565b15612d5b57565b612d636102a2565b62461bcd60e51b815280612d7960048201612d3c565b0390fd5b5f7f4461696c79206d696e7420636170206578636565646564000000000000000000910152565b612db16017602092610370565b612dba81612d7d565b0190565b612dd39060208101905f818303910152612da4565b90565b15612ddd57565b612de56102a2565b62461bcd60e51b815280612dfb60048201612dbe565b0390fd5b5f7f4d617820737570706c7920657863656564656400000000000000000000000000910152565b612e336013602092610370565b612e3c81612dff565b0190565b612e559060208101905f818303910152612e26565b90565b15612e5f57565b612e676102a2565b62461bcd60e51b815280612e7d60048201612e40565b0390fd5b90612f9791612eab81612ea4612e9e612e995f6122dc565b61042f565b9161042f565b1415612cd2565b612ed0612ecb612ec5612ec0600d8590611185565b611888565b15610301565b612d54565b612ee642612ee062015180611ecb565b90611efb565b80612f02612efc612ef7600c6114a4565b61045e565b9161045e565b11612f99575b50612f40612f20612f19600b6114a4565b8490611791565b612f39612f33612f2e610be4565b61045e565b9161045e565b1115612dd6565b612f75612f55612f4e6114b1565b8490611791565b612f6e612f68612f636107f0565b61045e565b9161045e565b1115612e58565b612f92612f8b83612f86600b6114a4565b611791565b600b61246d565b6139be565b565b612fac612fa55f611969565b600b61246d565b612fb781600c61246d565b612fed7f38f3386dd2b5e327a5321b0a1f2b40d770ab237891f947173f27ed36abefd13591612fe46102a2565b91829182610530565b0390a15f612f08565b60207f7300000000000000000000000000000000000000000000000000000000000000917f45524332303a206275726e2066726f6d20746865207a65726f206164647265735f8201520152565b6130506021604092610370565b61305981612ff6565b0190565b6130729060208101905f818303910152613043565b90565b1561307c57565b6130846102a2565b62461bcd60e51b81528061309a6004820161305d565b0390fd5b60207f6365000000000000000000000000000000000000000000000000000000000000917f45524332303a206275726e20616d6f756e7420657863656564732062616c616e5f8201520152565b6130f86022604092610370565b6131018161309e565b0190565b61311a9060208101905f8183039101526130eb565b90565b1561312457565b61312c6102a2565b62461bcd60e51b81528061314260048201613105565b0390fd5b61316b8161316461315e6131595f6122dc565b61042f565b9161042f565b1415613075565b61317f816131785f6122dc565b849161378c565b6131cc6131bc6131986131935f8590611aa2565b6114a4565b6131b5816131ae6131a88861045e565b9161045e565b101561311d565b8490611dc6565b6131c75f8490611aa2565b61246d565b6131e96131e2836131dd60026114a4565b611dc6565b600261246d565b906131f35f6122dc565b909161323d61322b6132257fddf252ad1be2c89b69c2b068fc378daa952ba7f163c4a11628f55a4df523b3ef93611179565b93611179565b936132346102a2565b91829182610530565b0390a3565b5f6132569161324f611487565b50016114a4565b90565b613261612c5e565b61326961326b565b565b6132776001600a611507565b61327f6122b3565b6132b57f62e78cea01bee320cd4e420270b5ea74000d11b0c9f74754ebdbfc544b05a258916132ac6102a2565b91829182612b6f565b0390a1565b6132c2613259565b565b90565b6132db6132d66132e0926132c4565b610e04565b610675565b90565b6132ed60ff6132c7565b90565b5f5260205f2090565b905f929180549061331361330c8361130f565b8094611339565b916001811690815f1461336a575060011461332e575b505050565b61333b91929394506132f0565b915f925b81841061335257505001905f8080613329565b6001816020929593955484860152019101929061333f565b92949550505060ff19168252151560200201905f8080613329565b9061338f916132f9565b90565b906133b26133ab926133a26102a2565b93848092613385565b03836113f8565b565b6133bd90613392565b90565b906133c96112f6565b506133d3826115bc565b6133ec6133e66133e16132e3565b610675565b91610675565b14155f1461340157506133fe90613afb565b90565b61340b91506133b4565b90565b61342561342a9161341d611487565b506007611af5565b611b0b565b9061343d61343783613242565b92613b4a565b565b6134599061344b6115b8565b50613454612a0b565b613b75565b90565b926134779261347f9461346d611b67565b5092909192613c27565b919091613e5c565b90565b61348e6134939161148b565b61244e565b90565b90565b6134ad6134a86134b292613496565b6107d1565b61045e565b90565b905090565b5f7f416363657373436f6e74726f6c3a206163636f756e7420000000000000000000910152565b6134ed601780926134b5565b6134f6816134ba565b0190565b61351f6135169260209261350d8161036c565b948580936134b5565b93849101610379565b0190565b5f7f206973206d697373696e6720726f6c6520000000000000000000000000000000910152565b613556601180926134b5565b61355f81613523565b0190565b61357d6135889392613577613582936134e1565b906134fa565b61354a565b906134fa565b90565b90565b906135a361359d838390611cde565b15610301565b6135ab575050565b613623916136016135da6135ca6135c461360695613f9f565b93613482565b6135d46020613499565b906141e5565b916135f26135e66102a2565b93849260208401613563565b602082018103825203826113f8565b61358b565b61360e6102a2565b91829162461bcd60e51b8352600483016103d7565b0390fd5b9061363a9291613635612c5e565b613740565b565b5f7f53656e64657220626c6f636b6564000000000000000000000000000000000000910152565b613670600e602092610370565b6136798161363c565b0190565b6136929060208101905f818303910152613663565b90565b1561369c57565b6136a46102a2565b62461bcd60e51b8152806136ba6004820161367d565b0390fd5b5f7f526563697069656e7420626c6f636b6564000000000000000000000000000000910152565b6136f26011602092610370565b6136fb816136be565b0190565b6137149060208101905f8183039101526136e5565b90565b1561371e57565b6137266102a2565b62461bcd60e51b81528061373c600482016136ff565b0390fd5b61378a925061377a6137859261377361376e61376861376361377f96600d611185565b611888565b15610301565b613695565b600d611185565b611888565b15610301565b613717565b565b906137979291613627565b565b7f8b73c3c69bb8fe3d512ecc4cf759cc79239f7b179b0ffacaa9a75d522b39400f90565b90959492613808946137f7613801926137ed6080966137e360a088019c5f8901906106b9565b60208701906106b9565b60408501906106b9565b6060830190610523565b0190610c51565b565b6138126115b8565b5061381b613799565b6138927f0000000000000000000000000000000000000000000000000000000000000000916138837f00000000000000000000000000000000000000000000000000000000000000004661386e30611b73565b916138776102a2565b968795602087016137bd565b602082018103825203826113f8565b6138a461389e826120b9565b916120b3565b2090565b5f7f5061757361626c653a206e6f7420706175736564000000000000000000000000910152565b6138dc6014602092610370565b6138e5816138a8565b0190565b6138fe9060208101905f8183039101526138cf565b90565b1561390857565b6139106102a2565b62461bcd60e51b815280613926600482016138e9565b0390fd5b61393a613935611895565b613901565b565b5f7f45524332303a206d696e7420746f20746865207a65726f206164647265737300910152565b613970601f602092610370565b6139798161393c565b0190565b6139929060208101905f818303910152613963565b90565b1561399c57565b6139a46102a2565b62461bcd60e51b8152806139ba6004820161397d565b0390fd5b906139e4826139dd6139d76139d25f6122dc565b61042f565b9161042f565b1415613995565b6139f86139f05f6122dc565b83839161378c565b613a15613a0e82613a0960026114a4565b611791565b600261246d565b613a3c81613a36613a275f8690611aa2565b91613a31836114a4565b61283e565b9061246d565b613a455f6122dc565b919091613a90613a7e613a787fddf252ad1be2c89b69c2b068fc378daa952ba7f163c4a11628f55a4df523b3ef93611179565b93611179565b93613a876102a2565b91829182610530565b0390a3565b67ffffffffffffffff8111613ab357613aaf60209161039c565b0190565b6113e4565b90613aca613ac583613a95565b611b7f565b918252565b369037565b90613af9613ae183613ab8565b92602080613aef8693613a95565b9201910390613acf565b565b613b036112f6565b50613b0d81614367565b90613b20613b1b6020613499565b613ad4565b918252602082015290565b90565b613b42613b3d613b4792613b2b565b6107d1565b61045e565b90565b613b7390613b6d5f613b5c6001613b2e565b920191613b68836114a4565b61283e565b9061246d565b565b604291613b806115b8565b50604051917f19010000000000000000000000000000000000000000000000000000000000008352600283015260228201522090565b5f90565b90565b613bd1613bcc613bd692613bba565b6107d1565b61045e565b90565b613c0e613c1594613c04606094989795613bfa608086019a5f8701906106b9565b6020850190610777565b60408301906106b9565b01906106b9565b565b613c1f6102a2565b3d5f823e3d90fd5b929190613c32611b67565b50613c3b613bb6565b50613c4583613482565b613c77613c717f7fffffffffffffffffffffffffffffff5d576e7357a4501ddfe92f46681b20a0613bbd565b9161045e565b11613ce957613c975f936020959293613c8e6102a2565b94859485613bd9565b838052039060015afa15613ce457613caf5f51610e04565b80613cca613cc4613cbf5f6122dc565b61042f565b9161042f565b14613cd457905f90565b50613cde5f6122dc565b90600190565b613c17565b50505050613cf65f6122dc565b90600390565b634e487b7160e01b5f52602160045260245ffd5b60051115613d1a57565b613cfc565b90613d2982613d10565b565b60207f7565000000000000000000000000000000000000000000000000000000000000917f45434453413a20696e76616c6964207369676e6174757265202773272076616c5f8201520152565b613d856022604092610370565b613d8e81613d2b565b0190565b613da79060208101905f818303910152613d78565b90565b5f7f45434453413a20696e76616c6964207369676e6174757265206c656e67746800910152565b613dde601f602092610370565b613de781613daa565b0190565b613e009060208101905f818303910152613dd1565b90565b5f7f45434453413a20696e76616c6964207369676e61747572650000000000000000910152565b613e376018602092610370565b613e4081613e03565b0190565b613e599060208101905f818303910152613e2a565b90565b80613e6f613e695f613d1f565b91613d1f565b145f14613e795750565b80613e8d613e876001613d1f565b91613d1f565b145f14613eb657613e9c6102a2565b62461bcd60e51b815280613eb260048201613e44565b0390fd5b80613eca613ec46002613d1f565b91613d1f565b145f14613ef357613ed96102a2565b62461bcd60e51b815280613eef60048201613deb565b0390fd5b613f06613f006003613d1f565b91613d1f565b14613f0d57565b613f156102a2565b62461bcd60e51b815280613f2b60048201613d92565b0390fd5b613f3890611151565b90565b613f4f613f4a613f5492610424565b6107d1565b61045e565b90565b90565b613f6e613f69613f7392613f57565b6107d1565b610771565b90565b613f806014613f5a565b90565b613f97613f92613f9c92610771565b6107d1565b61045e565b90565b613fbc613fb7613fd292613fb16112f6565b50613f2f565b613f3b565b613fcc613fc7613f76565b613f83565b906141e5565b90565b90565b613fec613fe7613ff192613fd5565b6107d1565b61045e565b90565b6140036140099193929361045e565b9261045e565b9161401583820261045e565b92818404149015171561402457565b61177d565b67ffffffffffffffff81116140475761404360209161039c565b0190565b6113e4565b9061405e61405983614029565b611b7f565b918252565b906140886140708361404c565b9260208061407e8693614029565b9201910390613acf565b565b600360fc1b90565b9061409c826120b9565b8110156140ae57600160209102010190565b611994565b600f60fb1b90565b6140c49061045e565b5f81146140d2576001900390565b61177d565b6f181899199a1a9b1b9c1cb0b131b232b360811b90565b6140f66140d7565b90565b90565b61411061410b614115926140f9565b6107d1565b61045e565b90565b60f81b90565b90565b61413561413061413a9261411e565b6107d1565b610771565b90565b61415c9061415661415061416194610771565b9161045e565b906104e7565b61045e565b90565b5f7f537472696e67733a20686578206c656e67746820696e73756666696369656e74910152565b61419760208092610370565b6141a081614164565b0190565b6141b99060208101905f81830391015261418b565b90565b156141c357565b6141cb6102a2565b62461bcd60e51b8152806141e1600482016141a4565b0390fd5b91906141ef6112f6565b50614286614276614225614220614210600261420b8791613fd8565b613ff4565b61421a6002613fd8565b90611791565b614063565b9261422e61408a565b6142458561423f5f935f1a93611969565b90614092565b5361424e6140b3565b614266856142606001935f1a93613b2e565b90614092565b536142716002613fd8565b613ff4565b6142806001613b2e565b90611791565b925b8361429c6142966001613b2e565b9161045e565b1115614302576142aa6140ee565b816142b5600f6140fc565b169160108310156142fd576142d16142f1926142f7941a614118565b6142e0859188905f1a92614092565b536142eb6004614121565b9061413d565b936140bb565b92614288565b611994565b6143299293506143249061431e6143185f611969565b9161045e565b146141bc565b61358b565b90565b61434061433b614345926132c4565b6107d1565b61045e565b90565b90565b61435f61435a61436492614348565b6107d1565b61045e565b90565b61437c61438191614376611487565b506115bc565b613482565b61438b60ff61432c565b16806143a061439a601f61434b565b9161045e565b116143a85790565b6143b06102a2565b632cd44ac360e21b8152806143c7600482016105cd565b0390fdfea26469706673582212206b0cfe651773fa9ec120679506e7686b8f0f3689fd788c5a3b58bb536902355364736f6c63430008180033","opcodes":"PUSH2 0x160 PUSH1 0x40 MSTORE CALLVALUE PUSH3 0x70 JUMPI PUSH3 0x15 PUSH3 0x247 JUMP JUMPDEST PUSH3 0x1F PUSH3 0x76 JUMP JUMPDEST PUSH2 0x4401 PUSH3 0xD36 DUP3 CODECOPY PUSH1 0x80 MLOAD DUP2 PUSH2 0x2A5E ADD MSTORE PUSH1 0xA0 MLOAD DUP2 PUSH2 0x2A95 ADD MSTORE PUSH1 0xC0 MLOAD DUP2 PUSH2 0x2A25 ADD MSTORE PUSH1 0xE0 MLOAD DUP2 PUSH2 0x3820 ADD MSTORE PUSH2 0x100 MLOAD DUP2 PUSH2 0x3845 ADD MSTORE PUSH2 0x120 MLOAD DUP2 PUSH2 0x1C40 ADD MSTORE PUSH2 0x140 MLOAD DUP2 PUSH2 0x1C75 ADD MSTORE PUSH2 0x4401 SWAP1 RETURN JUMPDEST PUSH3 0x7C JUMP JUMPDEST PUSH1 0x40 MLOAD SWAP1 JUMP JUMPDEST PUSH0 DUP1 REVERT JUMPDEST PUSH1 0x1F DUP1 NOT SWAP2 ADD AND SWAP1 JUMP JUMPDEST PUSH4 0x4E487B71 PUSH1 0xE0 SHL PUSH0 MSTORE PUSH1 0x41 PUSH1 0x4 MSTORE PUSH1 0x24 PUSH0 REVERT JUMPDEST SWAP1 PUSH3 0xAA SWAP1 PUSH3 0x80 JUMP JUMPDEST DUP2 ADD SWAP1 DUP2 LT PUSH1 0x1 DUP1 PUSH1 0x40 SHL SUB DUP3 GT OR PUSH3 0xC3 JUMPI PUSH1 0x40 MSTORE JUMP JUMPDEST PUSH3 0x8A JUMP JUMPDEST SWAP1 PUSH3 0xE0 PUSH3 0xD8 PUSH3 0x76 JUMP JUMPDEST SWAP3 DUP4 PUSH3 0x9E JUMP JUMPDEST JUMP JUMPDEST PUSH1 0x1 DUP1 PUSH1 0x40 SHL SUB DUP2 GT PUSH3 0x101 JUMPI PUSH3 0xFD PUSH1 0x20 SWAP2 PUSH3 0x80 JUMP JUMPDEST ADD SWAP1 JUMP JUMPDEST PUSH3 0x8A JUMP JUMPDEST SWAP1 PUSH3 0x11D PUSH3 0x117 DUP4 PUSH3 0xE2 JUMP JUMPDEST PUSH3 0xC9 JUMP JUMPDEST SWAP2 DUP3 MSTORE JUMP JUMPDEST PUSH0 PUSH32 0x456475436861696E2041636164656D7900000000000000000000000000000000 SWAP2 ADD MSTORE JUMP JUMPDEST PUSH3 0x155 PUSH1 0x10 PUSH3 0x107 JUMP JUMPDEST SWAP1 PUSH3 0x164 PUSH1 0x20 DUP4 ADD PUSH3 0x122 JUMP JUMPDEST JUMP JUMPDEST PUSH3 0x170 PUSH3 0x149 JUMP JUMPDEST SWAP1 JUMP JUMPDEST PUSH0 PUSH32 0x4544550000000000000000000000000000000000000000000000000000000000 SWAP2 ADD MSTORE JUMP JUMPDEST PUSH3 0x1A6 PUSH1 0x3 PUSH3 0x107 JUMP JUMPDEST SWAP1 PUSH3 0x1B5 PUSH1 0x20 DUP4 ADD PUSH3 0x173 JUMP JUMPDEST JUMP JUMPDEST PUSH3 0x1C1 PUSH3 0x19A JUMP JUMPDEST SWAP1 JUMP JUMPDEST SWAP1 JUMP JUMPDEST SWAP1 JUMP JUMPDEST PUSH0 SHL SWAP1 JUMP JUMPDEST PUSH3 0x1E8 PUSH3 0x1E2 PUSH3 0x1EE SWAP3 PUSH3 0x1C4 JUMP JUMPDEST PUSH3 0x1CA JUMP JUMPDEST PUSH3 0x1C7 JUMP JUMPDEST SWAP1 JUMP JUMPDEST PUSH3 0x1FC PUSH0 PUSH3 0x1CF JUMP JUMPDEST SWAP1 JUMP JUMPDEST PUSH32 0x9F2DF0FED2C77648DE5860A4CC508CD0818C85B8B8A1AB4CEEEF8D981C8956A6 SWAP1 JUMP JUMPDEST PUSH32 0x65D7A28E3265B37A6474929F336521B332C1681B933F6CB9F3376673440D862A SWAP1 JUMP JUMPDEST PUSH3 0x270 PUSH3 0x255 PUSH3 0x166 JUMP JUMPDEST PUSH3 0x25F PUSH3 0x166 JUMP JUMPDEST PUSH3 0x269 PUSH3 0x1B7 JUMP JUMPDEST SWAP2 PUSH3 0x308 JUMP JUMPDEST PUSH3 0x286 PUSH3 0x27E PUSH3 0x1F1 JUMP JUMPDEST CALLER SWAP1 PUSH3 0x806 JUMP JUMPDEST PUSH3 0x29C PUSH3 0x294 PUSH3 0x1FF JUMP JUMPDEST CALLER SWAP1 PUSH3 0x806 JUMP JUMPDEST PUSH3 0x2B2 PUSH3 0x2AA PUSH3 0x223 JUMP JUMPDEST CALLER SWAP1 PUSH3 0x806 JUMP JUMPDEST JUMP JUMPDEST SWAP1 PUSH3 0x2C2 PUSH1 0xFF SWAP2 PUSH3 0x1CA JUMP JUMPDEST SWAP2 DUP2 NOT AND SWAP2 AND OR SWAP1 JUMP JUMPDEST ISZERO ISZERO SWAP1 JUMP JUMPDEST PUSH3 0x2DC SWAP1 PUSH3 0x2CC JUMP JUMPDEST SWAP1 JUMP JUMPDEST SWAP1 JUMP JUMPDEST SWAP1 PUSH3 0x2FC PUSH3 0x2F6 PUSH3 0x304 SWAP3 PUSH3 0x2D1 JUMP JUMPDEST PUSH3 0x2DF JUMP JUMPDEST DUP3 SLOAD PUSH3 0x2B4 JUMP JUMPDEST SWAP1 SSTORE JUMP JUMPDEST SWAP1 PUSH3 0x315 SWAP3 SWAP2 PUSH3 0x324 JUMP JUMPDEST PUSH3 0x322 PUSH0 PUSH1 0xA PUSH3 0x2E2 JUMP JUMPDEST JUMP JUMPDEST SWAP1 PUSH3 0x331 SWAP3 SWAP2 PUSH3 0x333 JUMP JUMPDEST JUMP JUMPDEST SWAP1 PUSH3 0x340 SWAP3 SWAP2 PUSH3 0x342 JUMP JUMPDEST JUMP JUMPDEST SWAP1 PUSH3 0x34F SWAP3 SWAP2 PUSH3 0x351 JUMP JUMPDEST JUMP JUMPDEST SWAP1 PUSH3 0x35E SWAP3 SWAP2 PUSH3 0x3B1 JUMP JUMPDEST JUMP JUMPDEST PUSH0 PUSH32 0x3100000000000000000000000000000000000000000000000000000000000000 SWAP2 ADD MSTORE JUMP JUMPDEST PUSH3 0x393 PUSH1 0x1 PUSH3 0x107 JUMP JUMPDEST SWAP1 PUSH3 0x3A2 PUSH1 0x20 DUP4 ADD PUSH3 0x360 JUMP JUMPDEST JUMP JUMPDEST PUSH3 0x3AE PUSH3 0x387 JUMP JUMPDEST SWAP1 JUMP JUMPDEST SWAP1 PUSH3 0x3C9 SWAP3 SWAP2 PUSH3 0x3C2 PUSH3 0x3A4 JUMP JUMPDEST SWAP1 PUSH3 0x427 JUMP JUMPDEST JUMP JUMPDEST SWAP1 JUMP JUMPDEST SWAP1 JUMP JUMPDEST PUSH1 0x20 ADD SWAP1 JUMP JUMPDEST MLOAD SWAP1 JUMP JUMPDEST PUSH1 0x1 DUP1 PUSH1 0xA0 SHL SUB AND SWAP1 JUMP JUMPDEST SWAP1 JUMP JUMPDEST PUSH3 0x402 PUSH3 0x3FC PUSH3 0x408 SWAP3 PUSH3 0x3DB JUMP JUMPDEST PUSH3 0x3E6 JUMP JUMPDEST PUSH3 0x3DB JUMP JUMPDEST SWAP1 JUMP JUMPDEST PUSH3 0x416 SWAP1 PUSH3 0x3E9 JUMP JUMPDEST SWAP1 JUMP JUMPDEST PUSH3 0x424 SWAP1 PUSH3 0x40B JUMP JUMPDEST SWAP1 JUMP JUMPDEST PUSH3 0x43C PUSH3 0x49A SWAP5 PUSH3 0x47A SWAP4 SWAP5 PUSH3 0x4D6 JUMP JUMPDEST PUSH3 0x454 DUP2 PUSH3 0x44D PUSH1 0x5 PUSH3 0x3CB JUMP JUMPDEST SWAP1 PUSH3 0x91D JUMP JUMPDEST PUSH2 0x120 MSTORE PUSH3 0x470 DUP4 PUSH3 0x469 PUSH1 0x6 PUSH3 0x3CB JUMP JUMPDEST SWAP1 PUSH3 0x91D JUMP JUMPDEST PUSH2 0x140 MSTORE PUSH3 0x3CE JUMP JUMPDEST PUSH3 0x490 PUSH3 0x489 DUP3 PUSH3 0x3D7 JUMP JUMPDEST SWAP2 PUSH3 0x3D1 JUMP JUMPDEST KECCAK256 PUSH1 0xE0 MSTORE PUSH3 0x3CE JUMP JUMPDEST PUSH3 0x4B0 PUSH3 0x4A9 DUP3 PUSH3 0x3D7 JUMP JUMPDEST SWAP2 PUSH3 0x3D1 JUMP JUMPDEST KECCAK256 PUSH2 0x100 MSTORE CHAINID PUSH1 0xA0 MSTORE PUSH3 0x4C3 PUSH3 0xA64 JUMP JUMPDEST PUSH1 0x80 MSTORE PUSH3 0x4D1 ADDRESS PUSH3 0x419 JUMP JUMPDEST PUSH1 0xC0 MSTORE JUMP JUMPDEST SWAP1 PUSH3 0x4E2 SWAP2 PUSH3 0x4E4 JUMP JUMPDEST JUMP JUMPDEST SWAP1 PUSH3 0x4F0 SWAP2 PUSH3 0x4F2 JUMP JUMPDEST JUMP JUMPDEST SWAP1 PUSH3 0x4FE SWAP2 PUSH3 0x799 JUMP JUMPDEST JUMP JUMPDEST MLOAD SWAP1 JUMP JUMPDEST PUSH4 0x4E487B71 PUSH1 0xE0 SHL PUSH0 MSTORE PUSH1 0x22 PUSH1 0x4 MSTORE PUSH1 0x24 PUSH0 REVERT JUMPDEST SWAP1 PUSH1 0x1 PUSH1 0x2 DUP4 DIV SWAP3 AND DUP1 ISZERO PUSH3 0x53B JUMPI JUMPDEST PUSH1 0x20 DUP4 LT EQ PUSH3 0x535 JUMPI JUMP JUMPDEST PUSH3 0x504 JUMP JUMPDEST SWAP2 PUSH1 0x7F AND SWAP2 PUSH3 0x529 JUMP JUMPDEST PUSH0 MSTORE PUSH1 0x20 PUSH0 KECCAK256 SWAP1 JUMP JUMPDEST PUSH1 0x1F PUSH1 0x20 SWAP2 ADD DIV SWAP1 JUMP JUMPDEST SHL SWAP1 JUMP JUMPDEST SWAP2 SWAP1 PUSH1 0x8 PUSH3 0x57C SWAP2 MUL SWAP2 PUSH3 0x575 PUSH0 NOT DUP5 PUSH3 0x559 JUMP JUMPDEST SWAP3 PUSH3 0x559 JUMP JUMPDEST SWAP2 DUP2 NOT AND SWAP2 AND OR SWAP1 JUMP JUMPDEST SWAP1 JUMP JUMPDEST PUSH3 0x5A2 PUSH3 0x59C PUSH3 0x5A8 SWAP3 PUSH3 0x586 JUMP JUMPDEST PUSH3 0x3E6 JUMP JUMPDEST PUSH3 0x586 JUMP JUMPDEST SWAP1 JUMP JUMPDEST SWAP1 JUMP JUMPDEST SWAP2 SWAP1 PUSH3 0x5C9 PUSH3 0x5C3 PUSH3 0x5D2 SWAP4 PUSH3 0x589 JUMP JUMPDEST PUSH3 0x5AB JUMP JUMPDEST SWAP1 DUP4 SLOAD PUSH3 0x55D JUMP JUMPDEST SWAP1 SSTORE JUMP JUMPDEST PUSH0 SWAP1 JUMP JUMPDEST PUSH3 0x5F0 SWAP2 PUSH3 0x5E9 PUSH3 0x5D6 JUMP JUMPDEST SWAP2 PUSH3 0x5AE JUMP JUMPDEST JUMP JUMPDEST JUMPDEST DUP2 DUP2 LT PUSH3 0x5FF JUMPI POP POP JUMP JUMPDEST DUP1 PUSH3 0x60E PUSH0 PUSH1 0x1 SWAP4 PUSH3 0x5DA JUMP JUMPDEST ADD PUSH3 0x5F3 JUMP JUMPDEST SWAP2 SWAP1 PUSH1 0x1F DUP2 GT PUSH3 0x626 JUMPI JUMPDEST POP POP POP JUMP JUMPDEST PUSH3 0x635 PUSH3 0x660 SWAP4 PUSH3 0x546 JUMP JUMPDEST SWAP1 PUSH1 0x20 PUSH3 0x643 DUP5 PUSH3 0x54F JUMP JUMPDEST DUP4 ADD SWAP4 LT PUSH3 0x669 JUMPI JUMPDEST PUSH3 0x658 SWAP1 PUSH3 0x54F JUMP JUMPDEST ADD SWAP1 PUSH3 0x5F2 JUMP JUMPDEST PUSH0 DUP1 DUP1 PUSH3 0x621 JUMP JUMPDEST SWAP2 POP PUSH3 0x658 DUP2 SWAP3 SWAP1 POP PUSH3 0x64D JUMP JUMPDEST SHR SWAP1 JUMP JUMPDEST SWAP1 PUSH3 0x68F SWAP1 PUSH0 NOT SWAP1 PUSH1 0x8 MUL PUSH3 0x679 JUMP JUMPDEST NOT AND SWAP1 JUMP JUMPDEST DUP2 PUSH3 0x6A0 SWAP2 PUSH3 0x67D JUMP JUMPDEST SWAP1 PUSH1 0x2 MUL OR SWAP1 JUMP JUMPDEST SWAP1 PUSH3 0x6B4 DUP2 PUSH3 0x500 JUMP JUMPDEST SWAP1 PUSH1 0x1 DUP1 PUSH1 0x40 SHL SUB DUP3 GT PUSH3 0x785 JUMPI PUSH3 0x6DB DUP3 PUSH3 0x6D4 DUP6 SLOAD PUSH3 0x518 JUMP JUMPDEST DUP6 PUSH3 0x615 JUMP JUMPDEST PUSH1 0x20 SWAP1 PUSH1 0x1F DUP4 GT PUSH1 0x1 EQ PUSH3 0x714 JUMPI SWAP2 DUP1 SWAP2 PUSH3 0x702 SWAP4 PUSH0 SWAP3 PUSH3 0x707 JUMPI JUMPDEST POP POP PUSH3 0x694 JUMP JUMPDEST SWAP1 SSTORE JUMPDEST JUMP JUMPDEST SWAP1 SWAP2 POP ADD MLOAD PUSH0 DUP1 PUSH3 0x6FA JUMP JUMPDEST PUSH1 0x1F NOT DUP4 AND SWAP2 PUSH3 0x725 DUP6 PUSH3 0x546 JUMP JUMPDEST SWAP3 PUSH0 JUMPDEST DUP2 DUP2 LT PUSH3 0x76C JUMPI POP SWAP2 PUSH1 0x2 SWAP4 SWAP2 DUP6 PUSH1 0x1 SWAP7 SWAP5 LT PUSH3 0x74F JUMPI JUMPDEST POP POP POP MUL ADD SWAP1 SSTORE PUSH3 0x705 JUMP JUMPDEST PUSH3 0x761 SWAP2 ADD MLOAD PUSH1 0x1F DUP5 AND SWAP1 PUSH3 0x67D JUMP JUMPDEST SWAP1 SSTORE PUSH0 DUP1 DUP1 PUSH3 0x742 JUMP JUMPDEST SWAP2 SWAP4 PUSH1 0x20 PUSH1 0x1 DUP2 SWAP3 DUP8 DUP8 ADD MLOAD DUP2 SSTORE ADD SWAP6 ADD SWAP3 ADD PUSH3 0x728 JUMP JUMPDEST PUSH3 0x8A JUMP JUMPDEST SWAP1 PUSH3 0x797 SWAP2 PUSH3 0x6A8 JUMP JUMPDEST JUMP JUMPDEST SWAP1 PUSH3 0x7AB PUSH3 0x7B3 SWAP3 PUSH1 0x3 PUSH3 0x78B JUMP JUMPDEST PUSH1 0x4 PUSH3 0x78B JUMP JUMPDEST JUMP JUMPDEST PUSH3 0x7C0 SWAP1 PUSH3 0x1C7 JUMP JUMPDEST SWAP1 JUMP JUMPDEST SWAP1 PUSH3 0x7CF SWAP1 PUSH3 0x7B5 JUMP JUMPDEST PUSH0 MSTORE PUSH1 0x20 MSTORE PUSH1 0x40 PUSH0 KECCAK256 SWAP1 JUMP JUMPDEST PUSH3 0x7E6 SWAP1 PUSH3 0x40B JUMP JUMPDEST SWAP1 JUMP JUMPDEST SWAP1 PUSH3 0x7F5 SWAP1 PUSH3 0x7DB JUMP JUMPDEST PUSH0 MSTORE PUSH1 0x20 MSTORE PUSH1 0x40 PUSH0 KECCAK256 SWAP1 JUMP JUMPDEST PUSH0 ADD SWAP1 JUMP JUMPDEST PUSH3 0x81E PUSH3 0x817 DUP3 DUP5 SWAP1 PUSH3 0xB1F JUMP JUMPDEST ISZERO PUSH3 0x2CC JUMP JUMPDEST PUSH3 0x828 JUMPI JUMPDEST POP POP JUMP JUMPDEST PUSH3 0x850 PUSH1 0x1 PUSH3 0x84A PUSH0 PUSH3 0x841 PUSH1 0x9 DUP7 SWAP1 PUSH3 0x7C3 JUMP JUMPDEST ADD DUP6 SWAP1 PUSH3 0x7E9 JUMP JUMPDEST PUSH3 0x2E2 JUMP JUMPDEST SWAP1 PUSH3 0x85B PUSH3 0xB55 JUMP JUMPDEST SWAP1 PUSH3 0x89E PUSH3 0x897 PUSH3 0x890 PUSH32 0x2F8788117E7EFF1D82E926EC794901D17C78024A50270940304540A733656F0D SWAP6 PUSH3 0x7B5 JUMP JUMPDEST SWAP3 PUSH3 0x7DB JUMP JUMPDEST SWAP3 PUSH3 0x7DB JUMP JUMPDEST SWAP3 PUSH3 0x8A9 PUSH3 0x76 JUMP JUMPDEST DUP1 PUSH3 0x8B5 DUP2 PUSH3 0x801 JUMP JUMPDEST SUB SWAP1 LOG4 PUSH0 DUP1 PUSH3 0x824 JUMP JUMPDEST PUSH0 SWAP1 JUMP JUMPDEST SWAP1 JUMP JUMPDEST PUSH3 0x8E0 PUSH3 0x8DA PUSH3 0x8E6 SWAP3 PUSH3 0x8C4 JUMP JUMPDEST PUSH3 0x3E6 JUMP JUMPDEST PUSH3 0x586 JUMP JUMPDEST SWAP1 JUMP JUMPDEST SWAP1 JUMP JUMPDEST PUSH3 0x905 PUSH3 0x8FF PUSH3 0x90B SWAP3 PUSH3 0x8E9 JUMP JUMPDEST PUSH3 0x1CA JUMP JUMPDEST PUSH3 0x1C7 JUMP JUMPDEST SWAP1 JUMP JUMPDEST PUSH3 0x91A PUSH1 0xFF PUSH3 0x8EC JUMP JUMPDEST SWAP1 JUMP JUMPDEST SWAP1 PUSH3 0x928 PUSH3 0x8C0 JUMP JUMPDEST POP PUSH3 0x93E PUSH3 0x938 DUP4 PUSH3 0x3CE JUMP JUMPDEST PUSH3 0x3D7 JUMP JUMPDEST PUSH3 0x955 PUSH3 0x94E PUSH1 0x20 PUSH3 0x8C7 JUMP JUMPDEST SWAP2 PUSH3 0x586 JUMP JUMPDEST LT PUSH0 EQ PUSH3 0x96C JUMPI POP PUSH3 0x969 SWAP1 PUSH3 0xC92 JUMP JUMPDEST SWAP1 JUMP JUMPDEST PUSH0 PUSH3 0x97D PUSH3 0x984 SWAP4 SWAP3 PUSH3 0xB64 JUMP JUMPDEST ADD PUSH3 0x78B JUMP JUMPDEST PUSH3 0x998 PUSH3 0x992 PUSH3 0x90E JUMP JUMPDEST PUSH3 0x7B5 JUMP JUMPDEST SWAP1 JUMP JUMPDEST PUSH0 SWAP1 JUMP JUMPDEST PUSH32 0x8B73C3C69BB8FE3D512ECC4CF759CC79239F7B179B0FFACAA9A75D522B39400F SWAP1 JUMP JUMPDEST PUSH3 0x9CF SWAP1 MLOAD PUSH3 0x1C7 JUMP JUMPDEST SWAP1 JUMP JUMPDEST PUSH3 0x9DD SWAP1 PUSH3 0x1C7 JUMP JUMPDEST SWAP1 MSTORE JUMP JUMPDEST PUSH3 0x9EC SWAP1 PUSH3 0x586 JUMP JUMPDEST SWAP1 MSTORE JUMP JUMPDEST PUSH3 0x9FB SWAP1 PUSH3 0x3DB JUMP JUMPDEST SWAP1 JUMP JUMPDEST PUSH3 0xA09 SWAP1 PUSH3 0x9F0 JUMP JUMPDEST SWAP1 MSTORE JUMP JUMPDEST SWAP1 SWAP6 SWAP5 SWAP3 PUSH3 0xA62 SWAP5 PUSH3 0xA4F PUSH3 0xA5A SWAP3 PUSH3 0xA44 PUSH1 0x80 SWAP7 PUSH3 0xA39 PUSH1 0xA0 DUP9 ADD SWAP13 PUSH0 DUP10 ADD SWAP1 PUSH3 0x9D2 JUMP JUMPDEST PUSH1 0x20 DUP8 ADD SWAP1 PUSH3 0x9D2 JUMP JUMPDEST PUSH1 0x40 DUP6 ADD SWAP1 PUSH3 0x9D2 JUMP JUMPDEST PUSH1 0x60 DUP4 ADD SWAP1 PUSH3 0x9E1 JUMP JUMPDEST ADD SWAP1 PUSH3 0x9FE JUMP JUMPDEST JUMP JUMPDEST PUSH3 0xA6E PUSH3 0x99B JUMP JUMPDEST POP PUSH3 0xA79 PUSH3 0x99F JUMP JUMPDEST PUSH3 0xACF PUSH3 0xA89 PUSH1 0xE0 PUSH3 0x9C3 JUMP JUMPDEST SWAP2 PUSH3 0xABF PUSH3 0xA9B PUSH2 0x100 PUSH3 0x9C3 JUMP JUMPDEST CHAINID PUSH3 0xAA7 ADDRESS PUSH3 0x419 JUMP JUMPDEST SWAP2 PUSH3 0xAB2 PUSH3 0x76 JUMP JUMPDEST SWAP7 DUP8 SWAP6 PUSH1 0x20 DUP8 ADD PUSH3 0xA0D JUMP JUMPDEST PUSH1 0x20 DUP3 ADD DUP2 SUB DUP3 MSTORE SUB DUP3 PUSH3 0x9E JUMP JUMPDEST PUSH3 0xAE5 PUSH3 0xADE DUP3 PUSH3 0x3D7 JUMP JUMPDEST SWAP2 PUSH3 0x3D1 JUMP JUMPDEST KECCAK256 SWAP1 JUMP JUMPDEST PUSH0 SWAP1 JUMP JUMPDEST PUSH0 SHR SWAP1 JUMP JUMPDEST PUSH1 0xFF AND SWAP1 JUMP JUMPDEST PUSH3 0xB07 PUSH3 0xB0D SWAP2 PUSH3 0xAED JUMP JUMPDEST PUSH3 0xAF2 JUMP JUMPDEST SWAP1 JUMP JUMPDEST PUSH3 0xB1C SWAP1 SLOAD PUSH3 0xAF8 JUMP JUMPDEST SWAP1 JUMP JUMPDEST PUSH3 0xB4E SWAP2 PUSH0 PUSH3 0xB41 PUSH3 0xB48 SWAP4 PUSH3 0xB38 PUSH3 0xAE9 JUMP JUMPDEST POP PUSH1 0x9 PUSH3 0x7C3 JUMP JUMPDEST ADD PUSH3 0x7E9 JUMP JUMPDEST PUSH3 0xB10 JUMP JUMPDEST SWAP1 JUMP JUMPDEST PUSH0 SWAP1 JUMP JUMPDEST PUSH3 0xB5F PUSH3 0xB51 JUMP JUMPDEST POP CALLER SWAP1 JUMP JUMPDEST SWAP1 JUMP JUMPDEST SWAP1 JUMP JUMPDEST PUSH3 0xB83 PUSH3 0xB7D PUSH3 0xB89 SWAP3 PUSH3 0xB67 JUMP JUMPDEST PUSH3 0x3E6 JUMP JUMPDEST PUSH3 0x586 JUMP JUMPDEST SWAP1 JUMP JUMPDEST PUSH1 0x20 SWAP2 DUP2 MSTORE ADD SWAP1 JUMP JUMPDEST PUSH0 JUMPDEST DUP4 DUP2 LT PUSH3 0xBA8 JUMPI POP POP SWAP1 PUSH0 SWAP2 ADD MSTORE JUMP JUMPDEST DUP1 PUSH1 0x20 SWAP2 DUP4 ADD MLOAD DUP2 DUP6 ADD MSTORE ADD PUSH3 0xB97 JUMP JUMPDEST PUSH3 0xBDF PUSH3 0xBE9 PUSH1 0x20 SWAP4 PUSH3 0xBEF SWAP4 PUSH3 0xBD5 DUP2 PUSH3 0x500 JUMP JUMPDEST SWAP4 DUP5 DUP1 SWAP4 PUSH3 0xB8C JUMP JUMPDEST SWAP6 DUP7 SWAP2 ADD PUSH3 0xB95 JUMP JUMPDEST PUSH3 0x80 JUMP JUMPDEST ADD SWAP1 JUMP JUMPDEST PUSH3 0xC0A SWAP2 PUSH1 0x20 DUP3 ADD SWAP2 PUSH0 DUP2 DUP5 SUB SWAP2 ADD MSTORE PUSH3 0xBBA JUMP JUMPDEST SWAP1 JUMP JUMPDEST PUSH3 0xC2D PUSH3 0xC27 PUSH3 0xC20 DUP4 PUSH3 0x3D7 JUMP JUMPDEST SWAP3 PUSH3 0x3D1 JUMP JUMPDEST PUSH3 0x9C3 JUMP JUMPDEST SWAP1 PUSH1 0x20 DUP2 LT PUSH3 0xC3C JUMPI JUMPDEST POP SWAP1 JUMP JUMPDEST PUSH3 0xC50 SWAP1 PUSH0 NOT SWAP1 PUSH1 0x20 SUB PUSH1 0x8 MUL PUSH3 0x559 JUMP JUMPDEST AND PUSH0 PUSH3 0xC38 JUMP JUMPDEST PUSH3 0xC67 PUSH3 0xC6D SWAP2 PUSH3 0xAED JUMP JUMPDEST PUSH3 0x589 JUMP JUMPDEST SWAP1 JUMP JUMPDEST PUSH3 0xC89 PUSH3 0xC83 PUSH3 0xC8F SWAP3 PUSH3 0x586 JUMP JUMPDEST PUSH3 0x1CA JUMP JUMPDEST PUSH3 0x1C7 JUMP JUMPDEST SWAP1 JUMP JUMPDEST PUSH3 0xC9C PUSH3 0x8C0 JUMP JUMPDEST POP PUSH3 0xCA8 DUP2 PUSH3 0x3CE JUMP JUMPDEST SWAP1 PUSH3 0xCB4 DUP3 PUSH3 0x3D7 JUMP JUMPDEST PUSH3 0xCCB PUSH3 0xCC4 PUSH1 0x1F PUSH3 0xB6A JUMP JUMPDEST SWAP2 PUSH3 0x586 JUMP JUMPDEST GT PUSH3 0xD0B JUMPI POP PUSH3 0xD02 DUP2 PUSH3 0xCFB PUSH3 0xCF4 PUSH3 0xCEE PUSH3 0xD08 SWAP6 PUSH3 0xC0D JUMP JUMPDEST PUSH3 0xC58 JUMP JUMPDEST SWAP2 PUSH3 0x3D7 JUMP JUMPDEST OR PUSH3 0xC70 JUMP JUMPDEST PUSH3 0x7B5 JUMP JUMPDEST SWAP1 JUMP JUMPDEST PUSH3 0xD31 SWAP1 PUSH3 0xD1A PUSH3 0x76 JUMP JUMPDEST SWAP2 DUP3 SWAP2 PUSH4 0x305A27A9 PUSH1 0xE0 SHL DUP4 MSTORE PUSH1 0x4 DUP4 ADD PUSH3 0xBF3 JUMP JUMPDEST SUB SWAP1 REVERT INVALID PUSH1 0x80 PUSH1 0x40 MSTORE PUSH1 0x4 CALLDATASIZE LT ISZERO PUSH2 0x13 JUMPI JUMPDEST PUSH2 0x12AE JUMP JUMPDEST PUSH2 0x1D PUSH0 CALLDATALOAD PUSH2 0x29C JUMP JUMPDEST DUP1 PUSH4 0x1FFC9A7 EQ PUSH2 0x297 JUMPI DUP1 PUSH4 0x6FDDE03 EQ PUSH2 0x292 JUMPI DUP1 PUSH4 0x95EA7B3 EQ PUSH2 0x28D JUMPI DUP1 PUSH4 0xD5C4430 EQ PUSH2 0x288 JUMPI DUP1 PUSH4 0x18160DDD EQ PUSH2 0x283 JUMPI DUP1 PUSH4 0x186D9D88 EQ PUSH2 0x27E JUMPI DUP1 PUSH4 0x23B872DD EQ PUSH2 0x279 JUMPI DUP1 PUSH4 0x248A9CA3 EQ PUSH2 0x274 JUMPI DUP1 PUSH4 0x2F2FF15D EQ PUSH2 0x26F JUMPI DUP1 PUSH4 0x313CE567 EQ PUSH2 0x26A JUMPI DUP1 PUSH4 0x32CB6B0C EQ PUSH2 0x265 JUMPI DUP1 PUSH4 0x3644E515 EQ PUSH2 0x260 JUMPI DUP1 PUSH4 0x36568ABE EQ PUSH2 0x25B JUMPI DUP1 PUSH4 0x39509351 EQ PUSH2 0x256 JUMPI DUP1 PUSH4 0x3F4BA83A EQ PUSH2 0x251 JUMPI DUP1 PUSH4 0x40C10F19 EQ PUSH2 0x24C JUMPI DUP1 PUSH4 0x42966C68 EQ PUSH2 0x247 JUMPI DUP1 PUSH4 0x5C975ABB EQ PUSH2 0x242 JUMPI DUP1 PUSH4 0x68573107 EQ PUSH2 0x23D JUMPI DUP1 PUSH4 0x70A08231 EQ PUSH2 0x238 JUMPI DUP1 PUSH4 0x79CC6790 EQ PUSH2 0x233 JUMPI DUP1 PUSH4 0x7ECEBE00 EQ PUSH2 0x22E JUMPI DUP1 PUSH4 0x8456CB59 EQ PUSH2 0x229 JUMPI DUP1 PUSH4 0x848465E3 EQ PUSH2 0x224 JUMPI DUP1 PUSH4 0x84B0196E EQ PUSH2 0x21F JUMPI DUP1 PUSH4 0x91D14854 EQ PUSH2 0x21A JUMPI DUP1 PUSH4 0x95D89B41 EQ PUSH2 0x215 JUMPI DUP1 PUSH4 0xA217FDDF EQ PUSH2 0x210 JUMPI DUP1 PUSH4 0xA457C2D7 EQ PUSH2 0x20B JUMPI DUP1 PUSH4 0xA9059CBB EQ PUSH2 0x206 JUMPI DUP1 PUSH4 0xAD2BB1B3 EQ PUSH2 0x201 JUMPI DUP1 PUSH4 0xB222B59D EQ PUSH2 0x1FC JUMPI DUP1 PUSH4 0xD505ACCF EQ PUSH2 0x1F7 JUMPI DUP1 PUSH4 0xD5391393 EQ PUSH2 0x1F2 JUMPI DUP1 PUSH4 0xD547741F EQ PUSH2 0x1ED JUMPI DUP1 PUSH4 0xDD62ED3E EQ PUSH2 0x1E8 JUMPI DUP1 PUSH4 0xE27CAFB9 EQ PUSH2 0x1E3 JUMPI DUP1 PUSH4 0xE5962195 EQ PUSH2 0x1DE JUMPI DUP1 PUSH4 0xE63AB1E9 EQ PUSH2 0x1D9 JUMPI PUSH4 0xF3DC3838 SUB PUSH2 0xE JUMPI PUSH2 0x1279 JUMP JUMPDEST PUSH2 0x1244 JUMP JUMPDEST PUSH2 0x11E0 JUMP JUMPDEST PUSH2 0x111C JUMP JUMPDEST PUSH2 0x10D7 JUMP JUMPDEST PUSH2 0x1076 JUMP JUMPDEST PUSH2 0x1041 JUMP JUMPDEST PUSH2 0xFD8 JUMP JUMPDEST PUSH2 0xF10 JUMP JUMPDEST PUSH2 0xEDD JUMP JUMPDEST PUSH2 0xEA7 JUMP JUMPDEST PUSH2 0xE71 JUMP JUMPDEST PUSH2 0xE3C JUMP JUMPDEST PUSH2 0xDCC JUMP JUMPDEST PUSH2 0xD96 JUMP JUMPDEST PUSH2 0xD5A JUMP JUMPDEST PUSH2 0xC06 JUMP JUMPDEST PUSH2 0xB92 JUMP JUMPDEST PUSH2 0xB5D JUMP JUMPDEST PUSH2 0xB29 JUMP JUMPDEST PUSH2 0xAF4 JUMP JUMPDEST PUSH2 0xABD JUMP JUMPDEST PUSH2 0x99F JUMP JUMPDEST PUSH2 0x96C JUMP JUMPDEST PUSH2 0x91A JUMP JUMPDEST PUSH2 0x8E7 JUMP JUMPDEST PUSH2 0x8B1 JUMP JUMPDEST PUSH2 0x87D JUMP JUMPDEST PUSH2 0x848 JUMP JUMPDEST PUSH2 0x813 JUMP JUMPDEST PUSH2 0x799 JUMP JUMPDEST PUSH2 0x73D JUMP JUMPDEST PUSH2 0x6DB JUMP JUMPDEST PUSH2 0x63F JUMP JUMPDEST PUSH2 0x5D2 JUMP JUMPDEST PUSH2 0x57A JUMP JUMPDEST PUSH2 0x545 JUMP JUMPDEST PUSH2 0x4B1 JUMP JUMPDEST PUSH2 0x3EF JUMP JUMPDEST PUSH2 0x328 JUMP JUMPDEST PUSH1 0xE0 SHR SWAP1 JUMP JUMPDEST PUSH1 0x40 MLOAD SWAP1 JUMP JUMPDEST PUSH0 DUP1 REVERT JUMPDEST PUSH0 DUP1 REVERT JUMPDEST PUSH0 DUP1 REVERT JUMPDEST PUSH4 0xFFFFFFFF PUSH1 0xE0 SHL AND SWAP1 JUMP JUMPDEST PUSH2 0x2C9 DUP2 PUSH2 0x2B4 JUMP JUMPDEST SUB PUSH2 0x2D0 JUMPI JUMP JUMPDEST PUSH0 DUP1 REVERT JUMPDEST SWAP1 POP CALLDATALOAD SWAP1 PUSH2 0x2E1 DUP3 PUSH2 0x2C0 JUMP JUMPDEST JUMP JUMPDEST SWAP1 PUSH1 0x20 DUP3 DUP3 SUB SLT PUSH2 0x2FC JUMPI PUSH2 0x2F9 SWAP2 PUSH0 ADD PUSH2 0x2D4 JUMP JUMPDEST SWAP1 JUMP JUMPDEST PUSH2 0x2AC JUMP JUMPDEST ISZERO ISZERO SWAP1 JUMP JUMPDEST PUSH2 0x30F SWAP1 PUSH2 0x301 JUMP JUMPDEST SWAP1 MSTORE JUMP JUMPDEST SWAP2 SWAP1 PUSH2 0x326 SWAP1 PUSH0 PUSH1 0x20 DUP6 ADD SWAP5 ADD SWAP1 PUSH2 0x306 JUMP JUMPDEST JUMP JUMPDEST CALLVALUE PUSH2 0x358 JUMPI PUSH2 0x354 PUSH2 0x343 PUSH2 0x33E CALLDATASIZE PUSH1 0x4 PUSH2 0x2E3 JUMP JUMPDEST PUSH2 0x12B6 JUMP JUMPDEST PUSH2 0x34B PUSH2 0x2A2 JUMP JUMPDEST SWAP2 DUP3 SWAP2 DUP3 PUSH2 0x313 JUMP JUMPDEST SUB SWAP1 RETURN JUMPDEST PUSH2 0x2A8 JUMP JUMPDEST PUSH0 SWAP2 SUB SLT PUSH2 0x367 JUMPI JUMP JUMPDEST PUSH2 0x2AC JUMP JUMPDEST MLOAD SWAP1 JUMP JUMPDEST PUSH1 0x20 SWAP2 DUP2 MSTORE ADD SWAP1 JUMP JUMPDEST PUSH0 JUMPDEST DUP4 DUP2 LT PUSH2 0x38B JUMPI POP POP SWAP1 PUSH0 SWAP2 ADD MSTORE JUMP JUMPDEST DUP1 PUSH1 0x20 SWAP2 DUP4 ADD MLOAD DUP2 DUP6 ADD MSTORE ADD PUSH2 0x37B JUMP JUMPDEST PUSH1 0x1F DUP1 NOT SWAP2 ADD AND SWAP1 JUMP JUMPDEST PUSH2 0x3C5 PUSH2 0x3CE PUSH1 0x20 SWAP4 PUSH2 0x3D3 SWAP4 PUSH2 0x3BC DUP2 PUSH2 0x36C JUMP JUMPDEST SWAP4 DUP5 DUP1 SWAP4 PUSH2 0x370 JUMP JUMPDEST SWAP6 DUP7 SWAP2 ADD PUSH2 0x379 JUMP JUMPDEST PUSH2 0x39C JUMP JUMPDEST ADD SWAP1 JUMP JUMPDEST PUSH2 0x3EC SWAP2 PUSH1 0x20 DUP3 ADD SWAP2 PUSH0 DUP2 DUP5 SUB SWAP2 ADD MSTORE PUSH2 0x3A6 JUMP JUMPDEST SWAP1 JUMP JUMPDEST CALLVALUE PUSH2 0x41F JUMPI PUSH2 0x3FF CALLDATASIZE PUSH1 0x4 PUSH2 0x35D JUMP JUMPDEST PUSH2 0x41B PUSH2 0x40A PUSH2 0x144F JUMP JUMPDEST PUSH2 0x412 PUSH2 0x2A2 JUMP JUMPDEST SWAP2 DUP3 SWAP2 DUP3 PUSH2 0x3D7 JUMP JUMPDEST SUB SWAP1 RETURN JUMPDEST PUSH2 0x2A8 JUMP JUMPDEST PUSH1 0x1 DUP1 PUSH1 0xA0 SHL SUB AND SWAP1 JUMP JUMPDEST PUSH2 0x438 SWAP1 PUSH2 0x424 JUMP JUMPDEST SWAP1 JUMP JUMPDEST PUSH2 0x444 DUP2 PUSH2 0x42F JUMP JUMPDEST SUB PUSH2 0x44B JUMPI JUMP JUMPDEST PUSH0 DUP1 REVERT JUMPDEST SWAP1 POP CALLDATALOAD SWAP1 PUSH2 0x45C DUP3 PUSH2 0x43B JUMP JUMPDEST JUMP JUMPDEST SWAP1 JUMP JUMPDEST PUSH2 0x46A DUP2 PUSH2 0x45E JUMP JUMPDEST SUB PUSH2 0x471 JUMPI JUMP JUMPDEST PUSH0 DUP1 REVERT JUMPDEST SWAP1 POP CALLDATALOAD SWAP1 PUSH2 0x482 DUP3 PUSH2 0x461 JUMP JUMPDEST JUMP JUMPDEST SWAP2 SWAP1 PUSH1 0x40 DUP4 DUP3 SUB SLT PUSH2 0x4AC JUMPI DUP1 PUSH2 0x4A0 PUSH2 0x4A9 SWAP3 PUSH0 DUP7 ADD PUSH2 0x44F JUMP JUMPDEST SWAP4 PUSH1 0x20 ADD PUSH2 0x475 JUMP JUMPDEST SWAP1 JUMP JUMPDEST PUSH2 0x2AC JUMP JUMPDEST CALLVALUE PUSH2 0x4E2 JUMPI PUSH2 0x4DE PUSH2 0x4CD PUSH2 0x4C7 CALLDATASIZE PUSH1 0x4 PUSH2 0x484 JUMP JUMPDEST SWAP1 PUSH2 0x1465 JUMP JUMPDEST PUSH2 0x4D5 PUSH2 0x2A2 JUMP JUMPDEST SWAP2 DUP3 SWAP2 DUP3 PUSH2 0x313 JUMP JUMPDEST SUB SWAP1 RETURN JUMPDEST PUSH2 0x2A8 JUMP JUMPDEST SHR SWAP1 JUMP JUMPDEST SWAP1 JUMP JUMPDEST PUSH2 0x4FE SWAP1 PUSH1 0x8 PUSH2 0x503 SWAP4 MUL PUSH2 0x4E7 JUMP JUMPDEST PUSH2 0x4EB JUMP JUMPDEST SWAP1 JUMP JUMPDEST SWAP1 PUSH2 0x511 SWAP2 SLOAD PUSH2 0x4EE JUMP JUMPDEST SWAP1 JUMP JUMPDEST PUSH2 0x520 PUSH1 0xB PUSH0 SWAP1 PUSH2 0x506 JUMP JUMPDEST SWAP1 JUMP JUMPDEST PUSH2 0x52C SWAP1 PUSH2 0x45E JUMP JUMPDEST SWAP1 MSTORE JUMP JUMPDEST SWAP2 SWAP1 PUSH2 0x543 SWAP1 PUSH0 PUSH1 0x20 DUP6 ADD SWAP5 ADD SWAP1 PUSH2 0x523 JUMP JUMPDEST JUMP JUMPDEST CALLVALUE PUSH2 0x575 JUMPI PUSH2 0x555 CALLDATASIZE PUSH1 0x4 PUSH2 0x35D JUMP JUMPDEST PUSH2 0x571 PUSH2 0x560 PUSH2 0x514 JUMP JUMPDEST PUSH2 0x568 PUSH2 0x2A2 JUMP JUMPDEST SWAP2 DUP3 SWAP2 DUP3 PUSH2 0x530 JUMP JUMPDEST SUB SWAP1 RETURN JUMPDEST PUSH2 0x2A8 JUMP JUMPDEST CALLVALUE PUSH2 0x5AA JUMPI PUSH2 0x58A CALLDATASIZE PUSH1 0x4 PUSH2 0x35D JUMP JUMPDEST PUSH2 0x5A6 PUSH2 0x595 PUSH2 0x14B1 JUMP JUMPDEST PUSH2 0x59D PUSH2 0x2A2 JUMP JUMPDEST SWAP2 DUP3 SWAP2 DUP3 PUSH2 0x530 JUMP JUMPDEST SUB SWAP1 RETURN JUMPDEST PUSH2 0x2A8 JUMP JUMPDEST SWAP1 PUSH1 0x20 DUP3 DUP3 SUB SLT PUSH2 0x5C8 JUMPI PUSH2 0x5C5 SWAP2 PUSH0 ADD PUSH2 0x44F JUMP JUMPDEST SWAP1 JUMP JUMPDEST PUSH2 0x2AC JUMP JUMPDEST PUSH0 ADD SWAP1 JUMP JUMPDEST CALLVALUE PUSH2 0x600 JUMPI PUSH2 0x5EA PUSH2 0x5E5 CALLDATASIZE PUSH1 0x4 PUSH2 0x5AF JUMP JUMPDEST PUSH2 0x157E JUMP JUMPDEST PUSH2 0x5F2 PUSH2 0x2A2 JUMP JUMPDEST DUP1 PUSH2 0x5FC DUP2 PUSH2 0x5CD JUMP JUMPDEST SUB SWAP1 RETURN JUMPDEST PUSH2 0x2A8 JUMP JUMPDEST SWAP1 SWAP2 PUSH1 0x60 DUP3 DUP5 SUB SLT PUSH2 0x63A JUMPI PUSH2 0x637 PUSH2 0x620 DUP5 PUSH0 DUP6 ADD PUSH2 0x44F JUMP JUMPDEST SWAP4 PUSH2 0x62E DUP2 PUSH1 0x20 DUP7 ADD PUSH2 0x44F JUMP JUMPDEST SWAP4 PUSH1 0x40 ADD PUSH2 0x475 JUMP JUMPDEST SWAP1 JUMP JUMPDEST PUSH2 0x2AC JUMP JUMPDEST CALLVALUE PUSH2 0x670 JUMPI PUSH2 0x66C PUSH2 0x65B PUSH2 0x655 CALLDATASIZE PUSH1 0x4 PUSH2 0x605 JUMP JUMPDEST SWAP2 PUSH2 0x1589 JUMP JUMPDEST PUSH2 0x663 PUSH2 0x2A2 JUMP JUMPDEST SWAP2 DUP3 SWAP2 DUP3 PUSH2 0x313 JUMP JUMPDEST SUB SWAP1 RETURN JUMPDEST PUSH2 0x2A8 JUMP JUMPDEST SWAP1 JUMP JUMPDEST PUSH2 0x681 DUP2 PUSH2 0x675 JUMP JUMPDEST SUB PUSH2 0x688 JUMPI JUMP JUMPDEST PUSH0 DUP1 REVERT JUMPDEST SWAP1 POP CALLDATALOAD SWAP1 PUSH2 0x699 DUP3 PUSH2 0x678 JUMP JUMPDEST JUMP JUMPDEST SWAP1 PUSH1 0x20 DUP3 DUP3 SUB SLT PUSH2 0x6B4 JUMPI PUSH2 0x6B1 SWAP2 PUSH0 ADD PUSH2 0x68C JUMP JUMPDEST SWAP1 JUMP JUMPDEST PUSH2 0x2AC JUMP JUMPDEST PUSH2 0x6C2 SWAP1 PUSH2 0x675 JUMP JUMPDEST SWAP1 MSTORE JUMP JUMPDEST SWAP2 SWAP1 PUSH2 0x6D9 SWAP1 PUSH0 PUSH1 0x20 DUP6 ADD SWAP5 ADD SWAP1 PUSH2 0x6B9 JUMP JUMPDEST JUMP JUMPDEST CALLVALUE PUSH2 0x70B JUMPI PUSH2 0x707 PUSH2 0x6F6 PUSH2 0x6F1 CALLDATASIZE PUSH1 0x4 PUSH2 0x69B JUMP JUMPDEST PUSH2 0x1602 JUMP JUMPDEST PUSH2 0x6FE PUSH2 0x2A2 JUMP JUMPDEST SWAP2 DUP3 SWAP2 DUP3 PUSH2 0x6C6 JUMP JUMPDEST SUB SWAP1 RETURN JUMPDEST PUSH2 0x2A8 JUMP JUMPDEST SWAP2 SWAP1 PUSH1 0x40 DUP4 DUP3 SUB SLT PUSH2 0x738 JUMPI DUP1 PUSH2 0x72C PUSH2 0x735 SWAP3 PUSH0 DUP7 ADD PUSH2 0x68C JUMP JUMPDEST SWAP4 PUSH1 0x20 ADD PUSH2 0x44F JUMP JUMPDEST SWAP1 JUMP JUMPDEST PUSH2 0x2AC JUMP JUMPDEST CALLVALUE PUSH2 0x76C JUMPI PUSH2 0x756 PUSH2 0x750 CALLDATASIZE PUSH1 0x4 PUSH2 0x710 JUMP JUMPDEST SWAP1 PUSH2 0x164D JUMP JUMPDEST PUSH2 0x75E PUSH2 0x2A2 JUMP JUMPDEST DUP1 PUSH2 0x768 DUP2 PUSH2 0x5CD JUMP JUMPDEST SUB SWAP1 RETURN JUMPDEST PUSH2 0x2A8 JUMP JUMPDEST PUSH1 0xFF AND SWAP1 JUMP JUMPDEST PUSH2 0x780 SWAP1 PUSH2 0x771 JUMP JUMPDEST SWAP1 MSTORE JUMP JUMPDEST SWAP2 SWAP1 PUSH2 0x797 SWAP1 PUSH0 PUSH1 0x20 DUP6 ADD SWAP5 ADD SWAP1 PUSH2 0x777 JUMP JUMPDEST JUMP JUMPDEST CALLVALUE PUSH2 0x7C9 JUMPI PUSH2 0x7A9 CALLDATASIZE PUSH1 0x4 PUSH2 0x35D JUMP JUMPDEST PUSH2 0x7C5 PUSH2 0x7B4 PUSH2 0x167C JUMP JUMPDEST PUSH2 0x7BC PUSH2 0x2A2 JUMP JUMPDEST SWAP2 DUP3 SWAP2 DUP3 PUSH2 0x784 JUMP JUMPDEST SUB SWAP1 RETURN JUMPDEST PUSH2 0x2A8 JUMP JUMPDEST SWAP1 JUMP JUMPDEST SWAP1 JUMP JUMPDEST PUSH2 0x7E8 PUSH2 0x7E3 PUSH2 0x7ED SWAP3 PUSH2 0x7CE JUMP JUMPDEST PUSH2 0x7D1 JUMP JUMPDEST PUSH2 0x45E JUMP JUMPDEST SWAP1 JUMP JUMPDEST PUSH2 0x805 PUSH12 0x33B2E3C9FD0803CE8000000 PUSH2 0x7D4 JUMP JUMPDEST SWAP1 JUMP JUMPDEST PUSH2 0x810 PUSH2 0x7F0 JUMP JUMPDEST SWAP1 JUMP JUMPDEST CALLVALUE PUSH2 0x843 JUMPI PUSH2 0x823 CALLDATASIZE PUSH1 0x4 PUSH2 0x35D JUMP JUMPDEST PUSH2 0x83F PUSH2 0x82E PUSH2 0x808 JUMP JUMPDEST PUSH2 0x836 PUSH2 0x2A2 JUMP JUMPDEST SWAP2 DUP3 SWAP2 DUP3 PUSH2 0x530 JUMP JUMPDEST SUB SWAP1 RETURN JUMPDEST PUSH2 0x2A8 JUMP JUMPDEST CALLVALUE PUSH2 0x878 JUMPI PUSH2 0x858 CALLDATASIZE PUSH1 0x4 PUSH2 0x35D JUMP JUMPDEST PUSH2 0x874 PUSH2 0x863 PUSH2 0x1692 JUMP JUMPDEST PUSH2 0x86B PUSH2 0x2A2 JUMP JUMPDEST SWAP2 DUP3 SWAP2 DUP3 PUSH2 0x6C6 JUMP JUMPDEST SUB SWAP1 RETURN JUMPDEST PUSH2 0x2A8 JUMP JUMPDEST CALLVALUE PUSH2 0x8AC JUMPI PUSH2 0x896 PUSH2 0x890 CALLDATASIZE PUSH1 0x4 PUSH2 0x710 JUMP JUMPDEST SWAP1 PUSH2 0x174E JUMP JUMPDEST PUSH2 0x89E PUSH2 0x2A2 JUMP JUMPDEST DUP1 PUSH2 0x8A8 DUP2 PUSH2 0x5CD JUMP JUMPDEST SUB SWAP1 RETURN JUMPDEST PUSH2 0x2A8 JUMP JUMPDEST CALLVALUE PUSH2 0x8E2 JUMPI PUSH2 0x8DE PUSH2 0x8CD PUSH2 0x8C7 CALLDATASIZE PUSH1 0x4 PUSH2 0x484 JUMP JUMPDEST SWAP1 PUSH2 0x17B6 JUMP JUMPDEST PUSH2 0x8D5 PUSH2 0x2A2 JUMP JUMPDEST SWAP2 DUP3 SWAP2 DUP3 PUSH2 0x313 JUMP JUMPDEST SUB SWAP1 RETURN JUMPDEST PUSH2 0x2A8 JUMP JUMPDEST CALLVALUE PUSH2 0x915 JUMPI PUSH2 0x8F7 CALLDATASIZE PUSH1 0x4 PUSH2 0x35D JUMP JUMPDEST PUSH2 0x8FF PUSH2 0x180F JUMP JUMPDEST PUSH2 0x907 PUSH2 0x2A2 JUMP JUMPDEST DUP1 PUSH2 0x911 DUP2 PUSH2 0x5CD JUMP JUMPDEST SUB SWAP1 RETURN JUMPDEST PUSH2 0x2A8 JUMP JUMPDEST CALLVALUE PUSH2 0x949 JUMPI PUSH2 0x933 PUSH2 0x92D CALLDATASIZE PUSH1 0x4 PUSH2 0x484 JUMP JUMPDEST SWAP1 PUSH2 0x1855 JUMP JUMPDEST PUSH2 0x93B PUSH2 0x2A2 JUMP JUMPDEST DUP1 PUSH2 0x945 DUP2 PUSH2 0x5CD JUMP JUMPDEST SUB SWAP1 RETURN JUMPDEST PUSH2 0x2A8 JUMP JUMPDEST SWAP1 PUSH1 0x20 DUP3 DUP3 SUB SLT PUSH2 0x967 JUMPI PUSH2 0x964 SWAP2 PUSH0 ADD PUSH2 0x475 JUMP JUMPDEST SWAP1 JUMP JUMPDEST PUSH2 0x2AC JUMP JUMPDEST CALLVALUE PUSH2 0x99A JUMPI PUSH2 0x984 PUSH2 0x97F CALLDATASIZE PUSH1 0x4 PUSH2 0x94E JUMP JUMPDEST PUSH2 0x1861 JUMP JUMPDEST PUSH2 0x98C PUSH2 0x2A2 JUMP JUMPDEST DUP1 PUSH2 0x996 DUP2 PUSH2 0x5CD JUMP JUMPDEST SUB SWAP1 RETURN JUMPDEST PUSH2 0x2A8 JUMP JUMPDEST CALLVALUE PUSH2 0x9CF JUMPI PUSH2 0x9AF CALLDATASIZE PUSH1 0x4 PUSH2 0x35D JUMP JUMPDEST PUSH2 0x9CB PUSH2 0x9BA PUSH2 0x1895 JUMP JUMPDEST PUSH2 0x9C2 PUSH2 0x2A2 JUMP JUMPDEST SWAP2 DUP3 SWAP2 DUP3 PUSH2 0x313 JUMP JUMPDEST SUB SWAP1 RETURN JUMPDEST PUSH2 0x2A8 JUMP JUMPDEST PUSH0 DUP1 REVERT JUMPDEST PUSH0 DUP1 REVERT JUMPDEST PUSH0 DUP1 REVERT JUMPDEST SWAP1 SWAP2 DUP3 PUSH1 0x1F DUP4 ADD SLT ISZERO PUSH2 0xA1A JUMPI DUP2 CALLDATALOAD SWAP2 PUSH8 0xFFFFFFFFFFFFFFFF DUP4 GT PUSH2 0xA15 JUMPI PUSH1 0x20 ADD SWAP3 PUSH1 0x20 DUP4 MUL DUP5 ADD GT PUSH2 0xA10 JUMPI JUMP JUMPDEST PUSH2 0x9DC JUMP JUMPDEST PUSH2 0x9D8 JUMP JUMPDEST PUSH2 0x9D4 JUMP JUMPDEST SWAP1 SWAP2 DUP3 PUSH1 0x1F DUP4 ADD SLT ISZERO PUSH2 0xA59 JUMPI DUP2 CALLDATALOAD SWAP2 PUSH8 0xFFFFFFFFFFFFFFFF DUP4 GT PUSH2 0xA54 JUMPI PUSH1 0x20 ADD SWAP3 PUSH1 0x20 DUP4 MUL DUP5 ADD GT PUSH2 0xA4F JUMPI JUMP JUMPDEST PUSH2 0x9DC JUMP JUMPDEST PUSH2 0x9D8 JUMP JUMPDEST PUSH2 0x9D4 JUMP JUMPDEST SWAP1 SWAP2 PUSH1 0x40 DUP3 DUP5 SUB SLT PUSH2 0xAB8 JUMPI PUSH0 DUP3 ADD CALLDATALOAD PUSH8 0xFFFFFFFFFFFFFFFF DUP2 GT PUSH2 0xAB3 JUMPI DUP4 PUSH2 0xA89 SWAP2 DUP5 ADD PUSH2 0x9E0 JUMP JUMPDEST SWAP3 SWAP1 SWAP4 PUSH1 0x20 DUP3 ADD CALLDATALOAD PUSH8 0xFFFFFFFFFFFFFFFF DUP2 GT PUSH2 0xAAE JUMPI PUSH2 0xAAA SWAP3 ADD PUSH2 0xA1F JUMP JUMPDEST SWAP1 SWAP2 JUMP JUMPDEST PUSH2 0x2B0 JUMP JUMPDEST PUSH2 0x2B0 JUMP JUMPDEST PUSH2 0x2AC JUMP JUMPDEST CALLVALUE PUSH2 0xAEF JUMPI PUSH2 0xAD9 PUSH2 0xAD0 CALLDATASIZE PUSH1 0x4 PUSH2 0xA5E JUMP JUMPDEST SWAP3 SWAP2 SWAP1 SWAP2 PUSH2 0x1A94 JUMP JUMPDEST PUSH2 0xAE1 PUSH2 0x2A2 JUMP JUMPDEST DUP1 PUSH2 0xAEB DUP2 PUSH2 0x5CD JUMP JUMPDEST SUB SWAP1 RETURN JUMPDEST PUSH2 0x2A8 JUMP JUMPDEST CALLVALUE PUSH2 0xB24 JUMPI PUSH2 0xB20 PUSH2 0xB0F PUSH2 0xB0A CALLDATASIZE PUSH1 0x4 PUSH2 0x5AF JUMP JUMPDEST PUSH2 0x1AB8 JUMP JUMPDEST PUSH2 0xB17 PUSH2 0x2A2 JUMP JUMPDEST SWAP2 DUP3 SWAP2 DUP3 PUSH2 0x530 JUMP JUMPDEST SUB SWAP1 RETURN JUMPDEST PUSH2 0x2A8 JUMP JUMPDEST CALLVALUE PUSH2 0xB58 JUMPI PUSH2 0xB42 PUSH2 0xB3C CALLDATASIZE PUSH1 0x4 PUSH2 0x484 JUMP JUMPDEST SWAP1 PUSH2 0x1AD6 JUMP JUMPDEST PUSH2 0xB4A PUSH2 0x2A2 JUMP JUMPDEST DUP1 PUSH2 0xB54 DUP2 PUSH2 0x5CD JUMP JUMPDEST SUB SWAP1 RETURN JUMPDEST PUSH2 0x2A8 JUMP JUMPDEST CALLVALUE PUSH2 0xB8D JUMPI PUSH2 0xB89 PUSH2 0xB78 PUSH2 0xB73 CALLDATASIZE PUSH1 0x4 PUSH2 0x5AF JUMP JUMPDEST PUSH2 0x1B0E JUMP JUMPDEST PUSH2 0xB80 PUSH2 0x2A2 JUMP JUMPDEST SWAP2 DUP3 SWAP2 DUP3 PUSH2 0x530 JUMP JUMPDEST SUB SWAP1 RETURN JUMPDEST PUSH2 0x2A8 JUMP JUMPDEST CALLVALUE PUSH2 0xBC0 JUMPI PUSH2 0xBA2 CALLDATASIZE PUSH1 0x4 PUSH2 0x35D JUMP JUMPDEST PUSH2 0xBAA PUSH2 0x1B59 JUMP JUMPDEST PUSH2 0xBB2 PUSH2 0x2A2 JUMP JUMPDEST DUP1 PUSH2 0xBBC DUP2 PUSH2 0x5CD JUMP JUMPDEST SUB SWAP1 RETURN JUMPDEST PUSH2 0x2A8 JUMP JUMPDEST SWAP1 JUMP JUMPDEST PUSH2 0xBDC PUSH2 0xBD7 PUSH2 0xBE1 SWAP3 PUSH2 0xBC5 JUMP JUMPDEST PUSH2 0x7D1 JUMP JUMPDEST PUSH2 0x45E JUMP JUMPDEST SWAP1 JUMP JUMPDEST PUSH2 0xBF8 PUSH11 0x422CA8B0A00A425000000 PUSH2 0xBC8 JUMP JUMPDEST SWAP1 JUMP JUMPDEST PUSH2 0xC03 PUSH2 0xBE4 JUMP JUMPDEST SWAP1 JUMP JUMPDEST CALLVALUE PUSH2 0xC36 JUMPI PUSH2 0xC16 CALLDATASIZE PUSH1 0x4 PUSH2 0x35D JUMP JUMPDEST PUSH2 0xC32 PUSH2 0xC21 PUSH2 0xBFB JUMP JUMPDEST PUSH2 0xC29 PUSH2 0x2A2 JUMP JUMPDEST SWAP2 DUP3 SWAP2 DUP3 PUSH2 0x530 JUMP JUMPDEST SUB SWAP1 RETURN JUMPDEST PUSH2 0x2A8 JUMP JUMPDEST PUSH1 0xFF PUSH1 0xF8 SHL AND SWAP1 JUMP JUMPDEST PUSH2 0xC4D SWAP1 PUSH2 0xC3B JUMP JUMPDEST SWAP1 MSTORE JUMP JUMPDEST PUSH2 0xC5A SWAP1 PUSH2 0x42F JUMP JUMPDEST SWAP1 MSTORE JUMP JUMPDEST MLOAD SWAP1 JUMP JUMPDEST PUSH1 0x20 SWAP2 DUP2 MSTORE ADD SWAP1 JUMP JUMPDEST PUSH1 0x20 ADD SWAP1 JUMP JUMPDEST PUSH2 0xC7A SWAP1 PUSH2 0x45E JUMP JUMPDEST SWAP1 MSTORE JUMP JUMPDEST SWAP1 PUSH2 0xC8B DUP2 PUSH1 0x20 SWAP4 PUSH2 0xC71 JUMP JUMPDEST ADD SWAP1 JUMP JUMPDEST PUSH1 0x20 ADD SWAP1 JUMP JUMPDEST SWAP1 PUSH2 0xCB2 PUSH2 0xCAC PUSH2 0xCA5 DUP5 PUSH2 0xC5E JUMP JUMPDEST DUP1 SWAP4 PUSH2 0xC62 JUMP JUMPDEST SWAP3 PUSH2 0xC6B JUMP JUMPDEST SWAP1 PUSH0 JUMPDEST DUP2 DUP2 LT PUSH2 0xCC2 JUMPI POP POP POP SWAP1 JUMP JUMPDEST SWAP1 SWAP2 SWAP3 PUSH2 0xCDB PUSH2 0xCD5 PUSH1 0x1 SWAP3 DUP7 MLOAD PUSH2 0xC7E JUMP JUMPDEST SWAP5 PUSH2 0xC8F JUMP JUMPDEST SWAP2 ADD SWAP2 SWAP1 SWAP2 PUSH2 0xCB5 JUMP JUMPDEST SWAP4 SWAP6 SWAP2 SWAP5 PUSH2 0xD36 PUSH2 0xD2B PUSH2 0xD4A SWAP6 PUSH2 0xD1D PUSH2 0xD40 SWAP6 PUSH2 0xD57 SWAP13 SWAP11 PUSH2 0xD10 PUSH1 0xE0 DUP13 ADD SWAP3 PUSH0 DUP14 ADD SWAP1 PUSH2 0xC44 JUMP JUMPDEST DUP11 DUP3 SUB PUSH1 0x20 DUP13 ADD MSTORE PUSH2 0x3A6 JUMP JUMPDEST SWAP1 DUP9 DUP3 SUB PUSH1 0x40 DUP11 ADD MSTORE PUSH2 0x3A6 JUMP JUMPDEST SWAP8 PUSH1 0x60 DUP8 ADD SWAP1 PUSH2 0x523 JUMP JUMPDEST PUSH1 0x80 DUP6 ADD SWAP1 PUSH2 0xC51 JUMP JUMPDEST PUSH1 0xA0 DUP4 ADD SWAP1 PUSH2 0x6B9 JUMP JUMPDEST PUSH1 0xC0 DUP2 DUP5 SUB SWAP2 ADD MSTORE PUSH2 0xC95 JUMP JUMPDEST SWAP1 JUMP JUMPDEST CALLVALUE PUSH2 0xD91 JUMPI PUSH2 0xD6A CALLDATASIZE PUSH1 0x4 PUSH2 0x35D JUMP JUMPDEST PUSH2 0xD8D PUSH2 0xD75 PUSH2 0x1BFC JUMP JUMPDEST SWAP4 PUSH2 0xD84 SWAP8 SWAP6 SWAP8 SWAP4 SWAP2 SWAP4 PUSH2 0x2A2 JUMP JUMPDEST SWAP8 DUP9 SWAP8 DUP9 PUSH2 0xCE5 JUMP JUMPDEST SUB SWAP1 RETURN JUMPDEST PUSH2 0x2A8 JUMP JUMPDEST CALLVALUE PUSH2 0xDC7 JUMPI PUSH2 0xDC3 PUSH2 0xDB2 PUSH2 0xDAC CALLDATASIZE PUSH1 0x4 PUSH2 0x710 JUMP JUMPDEST SWAP1 PUSH2 0x1CDE JUMP JUMPDEST PUSH2 0xDBA PUSH2 0x2A2 JUMP JUMPDEST SWAP2 DUP3 SWAP2 DUP3 PUSH2 0x313 JUMP JUMPDEST SUB SWAP1 RETURN JUMPDEST PUSH2 0x2A8 JUMP JUMPDEST CALLVALUE PUSH2 0xDFC JUMPI PUSH2 0xDDC CALLDATASIZE PUSH1 0x4 PUSH2 0x35D JUMP JUMPDEST PUSH2 0xDF8 PUSH2 0xDE7 PUSH2 0x1D08 JUMP JUMPDEST PUSH2 0xDEF PUSH2 0x2A2 JUMP JUMPDEST SWAP2 DUP3 SWAP2 DUP3 PUSH2 0x3D7 JUMP JUMPDEST SUB SWAP1 RETURN JUMPDEST PUSH2 0x2A8 JUMP JUMPDEST SWAP1 JUMP JUMPDEST PUSH0 SHL SWAP1 JUMP JUMPDEST PUSH2 0xE1D PUSH2 0xE18 PUSH2 0xE22 SWAP3 PUSH2 0xE01 JUMP JUMPDEST PUSH2 0xE04 JUMP JUMPDEST PUSH2 0x675 JUMP JUMPDEST SWAP1 JUMP JUMPDEST PUSH2 0xE2E PUSH0 PUSH2 0xE09 JUMP JUMPDEST SWAP1 JUMP JUMPDEST PUSH2 0xE39 PUSH2 0xE25 JUMP JUMPDEST SWAP1 JUMP JUMPDEST CALLVALUE PUSH2 0xE6C JUMPI PUSH2 0xE4C CALLDATASIZE PUSH1 0x4 PUSH2 0x35D JUMP JUMPDEST PUSH2 0xE68 PUSH2 0xE57 PUSH2 0xE31 JUMP JUMPDEST PUSH2 0xE5F PUSH2 0x2A2 JUMP JUMPDEST SWAP2 DUP3 SWAP2 DUP3 PUSH2 0x6C6 JUMP JUMPDEST SUB SWAP1 RETURN JUMPDEST PUSH2 0x2A8 JUMP JUMPDEST CALLVALUE PUSH2 0xEA2 JUMPI PUSH2 0xE9E PUSH2 0xE8D PUSH2 0xE87 CALLDATASIZE PUSH1 0x4 PUSH2 0x484 JUMP JUMPDEST SWAP1 PUSH2 0x1DD4 JUMP JUMPDEST PUSH2 0xE95 PUSH2 0x2A2 JUMP JUMPDEST SWAP2 DUP3 SWAP2 DUP3 PUSH2 0x313 JUMP JUMPDEST SUB SWAP1 RETURN JUMPDEST PUSH2 0x2A8 JUMP JUMPDEST CALLVALUE PUSH2 0xED8 JUMPI PUSH2 0xED4 PUSH2 0xEC3 PUSH2 0xEBD CALLDATASIZE PUSH1 0x4 PUSH2 0x484 JUMP JUMPDEST SWAP1 PUSH2 0x1E28 JUMP JUMPDEST PUSH2 0xECB PUSH2 0x2A2 JUMP JUMPDEST SWAP2 DUP3 SWAP2 DUP3 PUSH2 0x313 JUMP JUMPDEST SUB SWAP1 RETURN JUMPDEST PUSH2 0x2A8 JUMP JUMPDEST CALLVALUE PUSH2 0xF0B JUMPI PUSH2 0xEF5 PUSH2 0xEF0 CALLDATASIZE PUSH1 0x4 PUSH2 0x5AF JUMP JUMPDEST PUSH2 0x1EBD JUMP JUMPDEST PUSH2 0xEFD PUSH2 0x2A2 JUMP JUMPDEST DUP1 PUSH2 0xF07 DUP2 PUSH2 0x5CD JUMP JUMPDEST SUB SWAP1 RETURN JUMPDEST PUSH2 0x2A8 JUMP JUMPDEST CALLVALUE PUSH2 0xF40 JUMPI PUSH2 0xF20 CALLDATASIZE PUSH1 0x4 PUSH2 0x35D JUMP JUMPDEST PUSH2 0xF3C PUSH2 0xF2B PUSH2 0x1F42 JUMP JUMPDEST PUSH2 0xF33 PUSH2 0x2A2 JUMP JUMPDEST SWAP2 DUP3 SWAP2 DUP3 PUSH2 0x530 JUMP JUMPDEST SUB SWAP1 RETURN JUMPDEST PUSH2 0x2A8 JUMP JUMPDEST PUSH2 0xF4E DUP2 PUSH2 0x771 JUMP JUMPDEST SUB PUSH2 0xF55 JUMPI JUMP JUMPDEST PUSH0 DUP1 REVERT JUMPDEST SWAP1 POP CALLDATALOAD SWAP1 PUSH2 0xF66 DUP3 PUSH2 0xF45 JUMP JUMPDEST JUMP JUMPDEST PUSH1 0xE0 DUP2 DUP4 SUB SLT PUSH2 0xFD3 JUMPI PUSH2 0xF7E DUP3 PUSH0 DUP4 ADD PUSH2 0x44F JUMP JUMPDEST SWAP3 PUSH2 0xF8C DUP4 PUSH1 0x20 DUP5 ADD PUSH2 0x44F JUMP JUMPDEST SWAP3 PUSH2 0xF9A DUP2 PUSH1 0x40 DUP6 ADD PUSH2 0x475 JUMP JUMPDEST SWAP3 PUSH2 0xFA8 DUP3 PUSH1 0x60 DUP4 ADD PUSH2 0x475 JUMP JUMPDEST SWAP3 PUSH2 0xFD0 PUSH2 0xFB9 DUP5 PUSH1 0x80 DUP6 ADD PUSH2 0xF59 JUMP JUMPDEST SWAP4 PUSH2 0xFC7 DUP2 PUSH1 0xA0 DUP7 ADD PUSH2 0x68C JUMP JUMPDEST SWAP4 PUSH1 0xC0 ADD PUSH2 0x68C JUMP JUMPDEST SWAP1 JUMP JUMPDEST PUSH2 0x2AC JUMP JUMPDEST CALLVALUE PUSH2 0x100D JUMPI PUSH2 0xFF7 PUSH2 0xFEB CALLDATASIZE PUSH1 0x4 PUSH2 0xF68 JUMP JUMPDEST SWAP6 SWAP5 SWAP1 SWAP5 SWAP4 SWAP2 SWAP4 PUSH2 0x213F JUMP JUMPDEST PUSH2 0xFFF PUSH2 0x2A2 JUMP JUMPDEST DUP1 PUSH2 0x1009 DUP2 PUSH2 0x5CD JUMP JUMPDEST SUB SWAP1 RETURN JUMPDEST PUSH2 0x2A8 JUMP JUMPDEST PUSH32 0x9F2DF0FED2C77648DE5860A4CC508CD0818C85B8B8A1AB4CEEEF8D981C8956A6 SWAP1 JUMP JUMPDEST PUSH2 0x103E PUSH2 0x1012 JUMP JUMPDEST SWAP1 JUMP JUMPDEST CALLVALUE PUSH2 0x1071 JUMPI PUSH2 0x1051 CALLDATASIZE PUSH1 0x4 PUSH2 0x35D JUMP JUMPDEST PUSH2 0x106D PUSH2 0x105C PUSH2 0x1036 JUMP JUMPDEST PUSH2 0x1064 PUSH2 0x2A2 JUMP JUMPDEST SWAP2 DUP3 SWAP2 DUP3 PUSH2 0x6C6 JUMP JUMPDEST SUB SWAP1 RETURN JUMPDEST PUSH2 0x2A8 JUMP JUMPDEST CALLVALUE PUSH2 0x10A5 JUMPI PUSH2 0x108F PUSH2 0x1089 CALLDATASIZE PUSH1 0x4 PUSH2 0x710 JUMP JUMPDEST SWAP1 PUSH2 0x221E JUMP JUMPDEST PUSH2 0x1097 PUSH2 0x2A2 JUMP JUMPDEST DUP1 PUSH2 0x10A1 DUP2 PUSH2 0x5CD JUMP JUMPDEST SUB SWAP1 RETURN JUMPDEST PUSH2 0x2A8 JUMP JUMPDEST SWAP2 SWAP1 PUSH1 0x40 DUP4 DUP3 SUB SLT PUSH2 0x10D2 JUMPI DUP1 PUSH2 0x10C6 PUSH2 0x10CF SWAP3 PUSH0 DUP7 ADD PUSH2 0x44F JUMP JUMPDEST SWAP4 PUSH1 0x20 ADD PUSH2 0x44F JUMP JUMPDEST SWAP1 JUMP JUMPDEST PUSH2 0x2AC JUMP JUMPDEST CALLVALUE PUSH2 0x1108 JUMPI PUSH2 0x1104 PUSH2 0x10F3 PUSH2 0x10ED CALLDATASIZE PUSH1 0x4 PUSH2 0x10AA JUMP JUMPDEST SWAP1 PUSH2 0x2240 JUMP JUMPDEST PUSH2 0x10FB PUSH2 0x2A2 JUMP JUMPDEST SWAP2 DUP3 SWAP2 DUP3 PUSH2 0x530 JUMP JUMPDEST SUB SWAP1 RETURN JUMPDEST PUSH2 0x2A8 JUMP JUMPDEST PUSH2 0x1119 PUSH1 0xC PUSH0 SWAP1 PUSH2 0x506 JUMP JUMPDEST SWAP1 JUMP JUMPDEST CALLVALUE PUSH2 0x114C JUMPI PUSH2 0x112C CALLDATASIZE PUSH1 0x4 PUSH2 0x35D JUMP JUMPDEST PUSH2 0x1148 PUSH2 0x1137 PUSH2 0x110D JUMP JUMPDEST PUSH2 0x113F PUSH2 0x2A2 JUMP JUMPDEST SWAP2 DUP3 SWAP2 DUP3 PUSH2 0x530 JUMP JUMPDEST SUB SWAP1 RETURN JUMPDEST PUSH2 0x2A8 JUMP JUMPDEST PUSH2 0x1165 PUSH2 0x1160 PUSH2 0x116A SWAP3 PUSH2 0x424 JUMP JUMPDEST PUSH2 0x7D1 JUMP JUMPDEST PUSH2 0x424 JUMP JUMPDEST SWAP1 JUMP JUMPDEST PUSH2 0x1176 SWAP1 PUSH2 0x1151 JUMP JUMPDEST SWAP1 JUMP JUMPDEST PUSH2 0x1182 SWAP1 PUSH2 0x116D JUMP JUMPDEST SWAP1 JUMP JUMPDEST SWAP1 PUSH2 0x118F SWAP1 PUSH2 0x1179 JUMP JUMPDEST PUSH0 MSTORE PUSH1 0x20 MSTORE PUSH1 0x40 PUSH0 KECCAK256 SWAP1 JUMP JUMPDEST PUSH1 0xFF AND SWAP1 JUMP JUMPDEST PUSH2 0x11B1 SWAP1 PUSH1 0x8 PUSH2 0x11B6 SWAP4 MUL PUSH2 0x4E7 JUMP JUMPDEST PUSH2 0x119B JUMP JUMPDEST SWAP1 JUMP JUMPDEST SWAP1 PUSH2 0x11C4 SWAP2 SLOAD PUSH2 0x11A1 JUMP JUMPDEST SWAP1 JUMP JUMPDEST PUSH2 0x11DD SWAP1 PUSH2 0x11D8 PUSH1 0xD SWAP2 PUSH0 SWAP3 PUSH2 0x1185 JUMP JUMPDEST PUSH2 0x11B9 JUMP JUMPDEST SWAP1 JUMP JUMPDEST CALLVALUE PUSH2 0x1210 JUMPI PUSH2 0x120C PUSH2 0x11FB PUSH2 0x11F6 CALLDATASIZE PUSH1 0x4 PUSH2 0x5AF JUMP JUMPDEST PUSH2 0x11C7 JUMP JUMPDEST PUSH2 0x1203 PUSH2 0x2A2 JUMP JUMPDEST SWAP2 DUP3 SWAP2 DUP3 PUSH2 0x313 JUMP JUMPDEST SUB SWAP1 RETURN JUMPDEST PUSH2 0x2A8 JUMP JUMPDEST PUSH32 0x65D7A28E3265B37A6474929F336521B332C1681B933F6CB9F3376673440D862A SWAP1 JUMP JUMPDEST PUSH2 0x1241 PUSH2 0x1215 JUMP JUMPDEST SWAP1 JUMP JUMPDEST CALLVALUE PUSH2 0x1274 JUMPI PUSH2 0x1254 CALLDATASIZE PUSH1 0x4 PUSH2 0x35D JUMP JUMPDEST PUSH2 0x1270 PUSH2 0x125F PUSH2 0x1239 JUMP JUMPDEST PUSH2 0x1267 PUSH2 0x2A2 JUMP JUMPDEST SWAP2 DUP3 SWAP2 DUP3 PUSH2 0x6C6 JUMP JUMPDEST SUB SWAP1 RETURN JUMPDEST PUSH2 0x2A8 JUMP JUMPDEST CALLVALUE PUSH2 0x12A9 JUMPI PUSH2 0x1289 CALLDATASIZE PUSH1 0x4 PUSH2 0x35D JUMP JUMPDEST PUSH2 0x12A5 PUSH2 0x1294 PUSH2 0x2268 JUMP JUMPDEST PUSH2 0x129C PUSH2 0x2A2 JUMP JUMPDEST SWAP2 DUP3 SWAP2 DUP3 PUSH2 0x530 JUMP JUMPDEST SUB SWAP1 RETURN JUMPDEST PUSH2 0x2A8 JUMP JUMPDEST PUSH0 DUP1 REVERT JUMPDEST PUSH0 SWAP1 JUMP JUMPDEST PUSH2 0x12BE PUSH2 0x12B2 JUMP JUMPDEST POP DUP1 PUSH2 0x12D9 PUSH2 0x12D3 PUSH4 0x7965DB0B PUSH1 0xE0 SHL PUSH2 0x2B4 JUMP JUMPDEST SWAP2 PUSH2 0x2B4 JUMP JUMPDEST EQ SWAP1 DUP2 ISZERO PUSH2 0x12E6 JUMPI JUMPDEST POP SWAP1 JUMP JUMPDEST PUSH2 0x12F0 SWAP2 POP PUSH2 0x228D JUMP JUMPDEST PUSH0 PUSH2 0x12E2 JUMP JUMPDEST PUSH1 0x60 SWAP1 JUMP JUMPDEST PUSH4 0x4E487B71 PUSH1 0xE0 SHL PUSH0 MSTORE PUSH1 0x22 PUSH1 0x4 MSTORE PUSH1 0x24 PUSH0 REVERT JUMPDEST SWAP1 PUSH1 0x1 PUSH1 0x2 DUP4 DIV SWAP3 AND DUP1 ISZERO PUSH2 0x132F JUMPI JUMPDEST PUSH1 0x20 DUP4 LT EQ PUSH2 0x132A JUMPI JUMP JUMPDEST PUSH2 0x12FB JUMP JUMPDEST SWAP2 PUSH1 0x7F AND SWAP2 PUSH2 0x131F JUMP JUMPDEST PUSH1 0x20 SWAP2 DUP2 MSTORE ADD SWAP1 JUMP JUMPDEST PUSH0 MSTORE PUSH1 0x20 PUSH0 KECCAK256 SWAP1 JUMP JUMPDEST SWAP1 PUSH0 SWAP3 SWAP2 DUP1 SLOAD SWAP1 PUSH2 0x1365 PUSH2 0x135E DUP4 PUSH2 0x130F JUMP JUMPDEST DUP1 SWAP5 PUSH2 0x1339 JUMP JUMPDEST SWAP2 PUSH1 0x1 DUP2 AND SWAP1 DUP2 PUSH0 EQ PUSH2 0x13BC JUMPI POP PUSH1 0x1 EQ PUSH2 0x1380 JUMPI JUMPDEST POP POP POP JUMP JUMPDEST PUSH2 0x138D SWAP2 SWAP3 SWAP4 SWAP5 POP PUSH2 0x1342 JUMP JUMPDEST SWAP2 PUSH0 SWAP3 JUMPDEST DUP2 DUP5 LT PUSH2 0x13A4 JUMPI POP POP ADD SWAP1 PUSH0 DUP1 DUP1 PUSH2 0x137B JUMP JUMPDEST PUSH1 0x1 DUP2 PUSH1 0x20 SWAP3 SWAP6 SWAP4 SWAP6 SLOAD DUP5 DUP7 ADD MSTORE ADD SWAP2 ADD SWAP3 SWAP1 PUSH2 0x1391 JUMP JUMPDEST SWAP3 SWAP5 SWAP6 POP POP POP PUSH1 0xFF NOT AND DUP3 MSTORE ISZERO ISZERO PUSH1 0x20 MUL ADD SWAP1 PUSH0 DUP1 DUP1 PUSH2 0x137B JUMP JUMPDEST SWAP1 PUSH2 0x13E1 SWAP2 PUSH2 0x134B JUMP JUMPDEST SWAP1 JUMP JUMPDEST PUSH4 0x4E487B71 PUSH1 0xE0 SHL PUSH0 MSTORE PUSH1 0x41 PUSH1 0x4 MSTORE PUSH1 0x24 PUSH0 REVERT JUMPDEST SWAP1 PUSH2 0x1402 SWAP1 PUSH2 0x39C JUMP JUMPDEST DUP2 ADD SWAP1 DUP2 LT PUSH8 0xFFFFFFFFFFFFFFFF DUP3 GT OR PUSH2 0x141C JUMPI PUSH1 0x40 MSTORE JUMP JUMPDEST PUSH2 0x13E4 JUMP JUMPDEST SWAP1 PUSH2 0x1441 PUSH2 0x143A SWAP3 PUSH2 0x1431 PUSH2 0x2A2 JUMP JUMPDEST SWAP4 DUP5 DUP1 SWAP3 PUSH2 0x13D7 JUMP JUMPDEST SUB DUP4 PUSH2 0x13F8 JUMP JUMPDEST JUMP JUMPDEST PUSH2 0x144C SWAP1 PUSH2 0x1421 JUMP JUMPDEST SWAP1 JUMP JUMPDEST PUSH2 0x1457 PUSH2 0x12F6 JUMP JUMPDEST POP PUSH2 0x1462 PUSH1 0x3 PUSH2 0x1443 JUMP JUMPDEST SWAP1 JUMP JUMPDEST PUSH2 0x1482 SWAP2 PUSH2 0x1471 PUSH2 0x12B2 JUMP JUMPDEST POP PUSH2 0x147A PUSH2 0x22B3 JUMP JUMPDEST SWAP2 SWAP1 SWAP2 PUSH2 0x248D JUMP JUMPDEST PUSH1 0x1 SWAP1 JUMP JUMPDEST PUSH0 SWAP1 JUMP JUMPDEST PUSH0 SHR SWAP1 JUMP JUMPDEST PUSH2 0x149C PUSH2 0x14A1 SWAP2 PUSH2 0x148B JUMP JUMPDEST PUSH2 0x4EB JUMP JUMPDEST SWAP1 JUMP JUMPDEST PUSH2 0x14AE SWAP1 SLOAD PUSH2 0x1490 JUMP JUMPDEST SWAP1 JUMP JUMPDEST PUSH2 0x14B9 PUSH2 0x1487 JUMP JUMPDEST POP PUSH2 0x14C4 PUSH1 0x2 PUSH2 0x14A4 JUMP JUMPDEST SWAP1 JUMP JUMPDEST PUSH2 0x14E0 SWAP1 PUSH2 0x14DB PUSH2 0x14D6 PUSH2 0xE25 JUMP JUMPDEST PUSH2 0x2549 JUMP JUMPDEST PUSH2 0x1527 JUMP JUMPDEST JUMP JUMPDEST SWAP1 PUSH2 0x14EE PUSH1 0xFF SWAP2 PUSH2 0xE04 JUMP JUMPDEST SWAP2 DUP2 NOT AND SWAP2 AND OR SWAP1 JUMP JUMPDEST PUSH2 0x1501 SWAP1 PUSH2 0x301 JUMP JUMPDEST SWAP1 JUMP JUMPDEST SWAP1 JUMP JUMPDEST SWAP1 PUSH2 0x151C PUSH2 0x1517 PUSH2 0x1523 SWAP3 PUSH2 0x14F8 JUMP JUMPDEST PUSH2 0x1504 JUMP JUMPDEST DUP3 SLOAD PUSH2 0x14E2 JUMP JUMPDEST SWAP1 SSTORE JUMP JUMPDEST PUSH2 0x153C PUSH0 PUSH2 0x1537 PUSH1 0xD DUP5 SWAP1 PUSH2 0x1185 JUMP JUMPDEST PUSH2 0x1507 JUMP JUMPDEST PUSH2 0x1566 PUSH32 0x385B21B54E2348E690DEC29E9741026142B02EAABFCC2FCB676CEBCB7CD16534 SWAP2 PUSH2 0x1179 JUMP JUMPDEST SWAP1 PUSH2 0x156F PUSH2 0x2A2 JUMP JUMPDEST DUP1 PUSH2 0x1579 DUP2 PUSH2 0x5CD JUMP JUMPDEST SUB SWAP1 LOG2 JUMP JUMPDEST PUSH2 0x1587 SWAP1 PUSH2 0x14C7 JUMP JUMPDEST JUMP JUMPDEST SWAP2 PUSH2 0x15B3 SWAP3 PUSH2 0x1596 PUSH2 0x12B2 JUMP JUMPDEST POP PUSH2 0x15AB PUSH2 0x15A2 PUSH2 0x22B3 JUMP JUMPDEST DUP3 SWAP1 DUP5 SWAP2 PUSH2 0x25DF JUMP JUMPDEST SWAP2 SWAP1 SWAP2 PUSH2 0x284C JUMP JUMPDEST PUSH1 0x1 SWAP1 JUMP JUMPDEST PUSH0 SWAP1 JUMP JUMPDEST PUSH2 0x15C5 SWAP1 PUSH2 0x675 JUMP JUMPDEST SWAP1 JUMP JUMPDEST SWAP1 PUSH2 0x15D2 SWAP1 PUSH2 0x15BC JUMP JUMPDEST PUSH0 MSTORE PUSH1 0x20 MSTORE PUSH1 0x40 PUSH0 KECCAK256 SWAP1 JUMP JUMPDEST SWAP1 JUMP JUMPDEST PUSH2 0x15ED PUSH2 0x15F2 SWAP2 PUSH2 0x148B JUMP JUMPDEST PUSH2 0x15DE JUMP JUMPDEST SWAP1 JUMP JUMPDEST PUSH2 0x15FF SWAP1 SLOAD PUSH2 0x15E1 JUMP JUMPDEST SWAP1 JUMP JUMPDEST PUSH1 0x1 PUSH2 0x161B PUSH2 0x1621 SWAP3 PUSH2 0x1613 PUSH2 0x15B8 JUMP JUMPDEST POP PUSH1 0x9 PUSH2 0x15C8 JUMP JUMPDEST ADD PUSH2 0x15F5 JUMP JUMPDEST SWAP1 JUMP JUMPDEST SWAP1 PUSH2 0x163F SWAP2 PUSH2 0x163A PUSH2 0x1635 DUP3 PUSH2 0x1602 JUMP JUMPDEST PUSH2 0x2549 JUMP JUMPDEST PUSH2 0x1641 JUMP JUMPDEST JUMP JUMPDEST SWAP1 PUSH2 0x164B SWAP2 PUSH2 0x2969 JUMP JUMPDEST JUMP JUMPDEST SWAP1 PUSH2 0x1657 SWAP2 PUSH2 0x1624 JUMP JUMPDEST JUMP JUMPDEST PUSH0 SWAP1 JUMP JUMPDEST SWAP1 JUMP JUMPDEST PUSH2 0x1674 PUSH2 0x166F PUSH2 0x1679 SWAP3 PUSH2 0x165D JUMP JUMPDEST PUSH2 0x7D1 JUMP JUMPDEST PUSH2 0x771 JUMP JUMPDEST SWAP1 JUMP JUMPDEST PUSH2 0x1684 PUSH2 0x1659 JUMP JUMPDEST POP PUSH2 0x168F PUSH1 0x12 PUSH2 0x1660 JUMP JUMPDEST SWAP1 JUMP JUMPDEST PUSH2 0x169A PUSH2 0x15B8 JUMP JUMPDEST POP PUSH2 0x16A3 PUSH2 0x2A0B JUMP JUMPDEST SWAP1 JUMP JUMPDEST PUSH1 0x20 PUSH32 0x20726F6C657320666F722073656C660000000000000000000000000000000000 SWAP2 PUSH32 0x416363657373436F6E74726F6C3A2063616E206F6E6C792072656E6F756E6365 PUSH0 DUP3 ADD MSTORE ADD MSTORE JUMP JUMPDEST PUSH2 0x1700 PUSH1 0x2F PUSH1 0x40 SWAP3 PUSH2 0x370 JUMP JUMPDEST PUSH2 0x1709 DUP2 PUSH2 0x16A6 JUMP JUMPDEST ADD SWAP1 JUMP JUMPDEST PUSH2 0x1722 SWAP1 PUSH1 0x20 DUP2 ADD SWAP1 PUSH0 DUP2 DUP4 SUB SWAP2 ADD MSTORE PUSH2 0x16F3 JUMP JUMPDEST SWAP1 JUMP JUMPDEST ISZERO PUSH2 0x172C JUMPI JUMP JUMPDEST PUSH2 0x1734 PUSH2 0x2A2 JUMP JUMPDEST PUSH3 0x461BCD PUSH1 0xE5 SHL DUP2 MSTORE DUP1 PUSH2 0x174A PUSH1 0x4 DUP3 ADD PUSH2 0x170D JUMP JUMPDEST SUB SWAP1 REVERT JUMPDEST SWAP1 PUSH2 0x177B SWAP2 PUSH2 0x1776 DUP3 PUSH2 0x1770 PUSH2 0x176A PUSH2 0x1765 PUSH2 0x22B3 JUMP JUMPDEST PUSH2 0x42F JUMP JUMPDEST SWAP2 PUSH2 0x42F JUMP JUMPDEST EQ PUSH2 0x1725 JUMP JUMPDEST PUSH2 0x2AC5 JUMP JUMPDEST JUMP JUMPDEST PUSH4 0x4E487B71 PUSH1 0xE0 SHL PUSH0 MSTORE PUSH1 0x11 PUSH1 0x4 MSTORE PUSH1 0x24 PUSH0 REVERT JUMPDEST PUSH2 0x17A0 PUSH2 0x17A6 SWAP2 SWAP4 SWAP3 SWAP4 PUSH2 0x45E JUMP JUMPDEST SWAP3 PUSH2 0x45E JUMP JUMPDEST DUP3 ADD DUP1 SWAP3 GT PUSH2 0x17B1 JUMPI JUMP JUMPDEST PUSH2 0x177D JUMP JUMPDEST PUSH2 0x17E6 SWAP2 PUSH2 0x17C2 PUSH2 0x12B2 JUMP JUMPDEST POP PUSH2 0x17E0 PUSH2 0x17CE PUSH2 0x22B3 JUMP JUMPDEST SWAP2 PUSH2 0x17DB DUP4 SWAP5 DUP1 SWAP5 PUSH2 0x2240 JUMP JUMPDEST PUSH2 0x1791 JUMP JUMPDEST SWAP2 PUSH2 0x248D JUMP JUMPDEST PUSH1 0x1 SWAP1 JUMP JUMPDEST PUSH2 0x17FB PUSH2 0x17F6 PUSH2 0x1215 JUMP JUMPDEST PUSH2 0x2549 JUMP JUMPDEST PUSH2 0x1803 PUSH2 0x1805 JUMP JUMPDEST JUMP JUMPDEST PUSH2 0x180D PUSH2 0x2BD2 JUMP JUMPDEST JUMP JUMPDEST PUSH2 0x1817 PUSH2 0x17EB JUMP JUMPDEST JUMP JUMPDEST SWAP1 PUSH2 0x1833 SWAP2 PUSH2 0x182E PUSH2 0x1829 PUSH2 0x1012 JUMP JUMPDEST PUSH2 0x2549 JUMP JUMPDEST PUSH2 0x1835 JUMP JUMPDEST JUMP JUMPDEST SWAP1 PUSH2 0x1847 SWAP2 PUSH2 0x1842 PUSH2 0x2C5E JUMP JUMPDEST PUSH2 0x1849 JUMP JUMPDEST JUMP JUMPDEST SWAP1 PUSH2 0x1853 SWAP2 PUSH2 0x2E81 JUMP JUMPDEST JUMP JUMPDEST SWAP1 PUSH2 0x185F SWAP2 PUSH2 0x1819 JUMP JUMPDEST JUMP JUMPDEST PUSH2 0x1872 SWAP1 PUSH2 0x186D PUSH2 0x22B3 JUMP JUMPDEST PUSH2 0x3146 JUMP JUMPDEST JUMP JUMPDEST PUSH2 0x1880 PUSH2 0x1885 SWAP2 PUSH2 0x148B JUMP JUMPDEST PUSH2 0x119B JUMP JUMPDEST SWAP1 JUMP JUMPDEST PUSH2 0x1892 SWAP1 SLOAD PUSH2 0x1874 JUMP JUMPDEST SWAP1 JUMP JUMPDEST PUSH2 0x189D PUSH2 0x12B2 JUMP JUMPDEST POP PUSH2 0x18A8 PUSH1 0xA PUSH2 0x1888 JUMP JUMPDEST SWAP1 JUMP JUMPDEST SWAP1 PUSH2 0x18C7 SWAP4 SWAP3 SWAP2 PUSH2 0x18C2 PUSH2 0x18BD PUSH2 0x1012 JUMP JUMPDEST PUSH2 0x2549 JUMP JUMPDEST PUSH2 0x18C9 JUMP JUMPDEST JUMP JUMPDEST SWAP1 PUSH2 0x18DD SWAP4 SWAP3 SWAP2 PUSH2 0x18D8 PUSH2 0x2C5E JUMP JUMPDEST PUSH2 0x19EC JUMP JUMPDEST JUMP JUMPDEST POP SWAP1 JUMP JUMPDEST POP SWAP1 JUMP JUMPDEST PUSH0 PUSH32 0x4C656E677468206D69736D617463680000000000000000000000000000000000 SWAP2 ADD MSTORE JUMP JUMPDEST PUSH2 0x191B PUSH1 0xF PUSH1 0x20 SWAP3 PUSH2 0x370 JUMP JUMPDEST PUSH2 0x1924 DUP2 PUSH2 0x18E7 JUMP JUMPDEST ADD SWAP1 JUMP JUMPDEST PUSH2 0x193D SWAP1 PUSH1 0x20 DUP2 ADD SWAP1 PUSH0 DUP2 DUP4 SUB SWAP2 ADD MSTORE PUSH2 0x190E JUMP JUMPDEST SWAP1 JUMP JUMPDEST ISZERO PUSH2 0x1947 JUMPI JUMP JUMPDEST PUSH2 0x194F PUSH2 0x2A2 JUMP JUMPDEST PUSH3 0x461BCD PUSH1 0xE5 SHL DUP2 MSTORE DUP1 PUSH2 0x1965 PUSH1 0x4 DUP3 ADD PUSH2 0x1928 JUMP JUMPDEST SUB SWAP1 REVERT JUMPDEST PUSH2 0x197D PUSH2 0x1978 PUSH2 0x1982 SWAP3 PUSH2 0xE01 JUMP JUMPDEST PUSH2 0x7D1 JUMP JUMPDEST PUSH2 0x45E JUMP JUMPDEST SWAP1 JUMP JUMPDEST PUSH1 0x1 PUSH2 0x1991 SWAP2 ADD PUSH2 0x45E JUMP JUMPDEST SWAP1 JUMP JUMPDEST PUSH4 0x4E487B71 PUSH1 0xE0 SHL PUSH0 MSTORE PUSH1 0x32 PUSH1 0x4 MSTORE PUSH1 0x24 PUSH0 REVERT JUMPDEST SWAP2 SWAP1 DUP2 LT ISZERO PUSH2 0x19B8 JUMPI PUSH1 0x20 MUL ADD SWAP1 JUMP JUMPDEST PUSH2 0x1994 JUMP JUMPDEST CALLDATALOAD PUSH2 0x19C7 DUP2 PUSH2 0x43B JUMP JUMPDEST SWAP1 JUMP JUMPDEST SWAP2 SWAP1 DUP2 LT ISZERO PUSH2 0x19DA JUMPI PUSH1 0x20 MUL ADD SWAP1 JUMP JUMPDEST PUSH2 0x1994 JUMP JUMPDEST CALLDATALOAD PUSH2 0x19E9 DUP2 PUSH2 0x461 JUMP JUMPDEST SWAP1 JUMP JUMPDEST SWAP4 SWAP3 SWAP2 SWAP4 PUSH2 0x1A20 PUSH2 0x19FE DUP3 DUP5 SWAP1 PUSH2 0x18DF JUMP JUMPDEST PUSH2 0x1A1A PUSH2 0x1A14 PUSH2 0x1A0F DUP10 DUP9 SWAP1 PUSH2 0x18E3 JUMP JUMPDEST PUSH2 0x45E JUMP JUMPDEST SWAP2 PUSH2 0x45E JUMP JUMPDEST EQ PUSH2 0x1940 JUMP JUMPDEST PUSH2 0x1A29 PUSH0 PUSH2 0x1969 JUMP JUMPDEST JUMPDEST DUP1 PUSH2 0x1A47 PUSH2 0x1A41 PUSH2 0x1A3C DUP6 DUP8 SWAP1 PUSH2 0x18DF JUMP JUMPDEST PUSH2 0x45E JUMP JUMPDEST SWAP2 PUSH2 0x45E JUMP JUMPDEST LT ISZERO PUSH2 0x1A8C JUMPI PUSH2 0x1A87 SWAP1 PUSH2 0x1A82 PUSH2 0x1A68 PUSH2 0x1A63 DUP6 DUP8 DUP6 SWAP2 PUSH2 0x19A8 JUMP JUMPDEST PUSH2 0x19BD JUMP JUMPDEST PUSH2 0x1A7C PUSH2 0x1A77 DUP11 DUP10 DUP7 SWAP2 PUSH2 0x19CA JUMP JUMPDEST PUSH2 0x19DF JUMP JUMPDEST SWAP1 PUSH2 0x2E81 JUMP JUMPDEST PUSH2 0x1985 JUMP JUMPDEST PUSH2 0x1A2A JUMP JUMPDEST POP POP POP POP SWAP1 POP JUMP JUMPDEST SWAP1 PUSH2 0x1AA0 SWAP4 SWAP3 SWAP2 PUSH2 0x18AB JUMP JUMPDEST JUMP JUMPDEST SWAP1 PUSH2 0x1AAC SWAP1 PUSH2 0x1179 JUMP JUMPDEST PUSH0 MSTORE PUSH1 0x20 MSTORE PUSH1 0x40 PUSH0 KECCAK256 SWAP1 JUMP JUMPDEST PUSH2 0x1ACE PUSH2 0x1AD3 SWAP2 PUSH2 0x1AC7 PUSH2 0x1487 JUMP JUMPDEST POP PUSH0 PUSH2 0x1AA2 JUMP JUMPDEST PUSH2 0x14A4 JUMP JUMPDEST SWAP1 JUMP JUMPDEST SWAP1 PUSH2 0x1AF3 SWAP2 PUSH2 0x1AEE DUP2 PUSH2 0x1AE7 PUSH2 0x22B3 JUMP JUMPDEST DUP5 SWAP2 PUSH2 0x25DF JUMP JUMPDEST PUSH2 0x3146 JUMP JUMPDEST JUMP JUMPDEST SWAP1 PUSH2 0x1AFF SWAP1 PUSH2 0x1179 JUMP JUMPDEST PUSH0 MSTORE PUSH1 0x20 MSTORE PUSH1 0x40 PUSH0 KECCAK256 SWAP1 JUMP JUMPDEST SWAP1 JUMP JUMPDEST PUSH2 0x1B2D PUSH2 0x1B28 PUSH2 0x1B32 SWAP3 PUSH2 0x1B20 PUSH2 0x1487 JUMP JUMPDEST POP PUSH1 0x7 PUSH2 0x1AF5 JUMP JUMPDEST PUSH2 0x1B0B JUMP JUMPDEST PUSH2 0x3242 JUMP JUMPDEST SWAP1 JUMP JUMPDEST PUSH2 0x1B45 PUSH2 0x1B40 PUSH2 0x1215 JUMP JUMPDEST PUSH2 0x2549 JUMP JUMPDEST PUSH2 0x1B4D PUSH2 0x1B4F JUMP JUMPDEST JUMP JUMPDEST PUSH2 0x1B57 PUSH2 0x32BA JUMP JUMPDEST JUMP JUMPDEST PUSH2 0x1B61 PUSH2 0x1B35 JUMP JUMPDEST JUMP JUMPDEST PUSH0 SWAP1 JUMP JUMPDEST PUSH0 SWAP1 JUMP JUMPDEST PUSH1 0x60 SWAP1 JUMP JUMPDEST SWAP1 JUMP JUMPDEST PUSH2 0x1B7C SWAP1 PUSH2 0x116D JUMP JUMPDEST SWAP1 JUMP JUMPDEST SWAP1 PUSH2 0x1B92 PUSH2 0x1B8B PUSH2 0x2A2 JUMP JUMPDEST SWAP3 DUP4 PUSH2 0x13F8 JUMP JUMPDEST JUMP JUMPDEST PUSH8 0xFFFFFFFFFFFFFFFF DUP2 GT PUSH2 0x1BAC JUMPI PUSH1 0x20 DUP1 SWAP2 MUL ADD SWAP1 JUMP JUMPDEST PUSH2 0x13E4 JUMP JUMPDEST SWAP1 PUSH2 0x1BC3 PUSH2 0x1BBE DUP4 PUSH2 0x1B94 JUMP JUMPDEST PUSH2 0x1B7F JUMP JUMPDEST SWAP2 DUP3 MSTORE JUMP JUMPDEST CALLDATASIZE SWAP1 CALLDATACOPY JUMP JUMPDEST SWAP1 PUSH2 0x1BF2 PUSH2 0x1BDA DUP4 PUSH2 0x1BB1 JUMP JUMPDEST SWAP3 PUSH1 0x20 DUP1 PUSH2 0x1BE8 DUP7 SWAP4 PUSH2 0x1B94 JUMP JUMPDEST SWAP3 ADD SWAP2 SUB SWAP1 PUSH2 0x1BC8 JUMP JUMPDEST JUMP JUMPDEST PUSH1 0xF PUSH1 0xF8 SHL SWAP1 JUMP JUMPDEST PUSH2 0x1C04 PUSH2 0x1B63 JUMP JUMPDEST POP PUSH2 0x1C0D PUSH2 0x12F6 JUMP JUMPDEST POP PUSH2 0x1C16 PUSH2 0x12F6 JUMP JUMPDEST POP PUSH2 0x1C1F PUSH2 0x1487 JUMP JUMPDEST POP PUSH2 0x1C28 PUSH2 0x1B67 JUMP JUMPDEST POP PUSH2 0x1C31 PUSH2 0x15B8 JUMP JUMPDEST POP PUSH2 0x1C3A PUSH2 0x1B6B JUMP JUMPDEST POP PUSH2 0x1C6F PUSH32 0x0 PUSH2 0x1C69 PUSH1 0x5 PUSH2 0x1B70 JUMP JUMPDEST SWAP1 PUSH2 0x33C0 JUMP JUMPDEST SWAP1 PUSH2 0x1CA4 PUSH32 0x0 PUSH2 0x1C9E PUSH1 0x6 PUSH2 0x1B70 JUMP JUMPDEST SWAP1 PUSH2 0x33C0 JUMP JUMPDEST SWAP1 CHAINID SWAP1 PUSH2 0x1CB0 ADDRESS PUSH2 0x1B73 JUMP JUMPDEST SWAP1 PUSH2 0x1CBA PUSH0 PUSH2 0xE09 JUMP JUMPDEST SWAP1 PUSH2 0x1CCC PUSH2 0x1CC7 PUSH0 PUSH2 0x1969 JUMP JUMPDEST PUSH2 0x1BCD JUMP JUMPDEST SWAP1 PUSH2 0x1CD5 PUSH2 0x1BF4 JUMP JUMPDEST SWAP7 SWAP6 SWAP5 SWAP4 SWAP3 SWAP2 SWAP1 JUMP JUMPDEST PUSH2 0x1D05 SWAP2 PUSH0 PUSH2 0x1CFA PUSH2 0x1D00 SWAP4 PUSH2 0x1CF2 PUSH2 0x12B2 JUMP JUMPDEST POP PUSH1 0x9 PUSH2 0x15C8 JUMP JUMPDEST ADD PUSH2 0x1185 JUMP JUMPDEST PUSH2 0x1888 JUMP JUMPDEST SWAP1 JUMP JUMPDEST PUSH2 0x1D10 PUSH2 0x12F6 JUMP JUMPDEST POP PUSH2 0x1D1B PUSH1 0x4 PUSH2 0x1443 JUMP JUMPDEST SWAP1 JUMP JUMPDEST PUSH1 0x20 PUSH32 0x207A65726F000000000000000000000000000000000000000000000000000000 SWAP2 PUSH32 0x45524332303A2064656372656173656420616C6C6F77616E63652062656C6F77 PUSH0 DUP3 ADD MSTORE ADD MSTORE JUMP JUMPDEST PUSH2 0x1D78 PUSH1 0x25 PUSH1 0x40 SWAP3 PUSH2 0x370 JUMP JUMPDEST PUSH2 0x1D81 DUP2 PUSH2 0x1D1E JUMP JUMPDEST ADD SWAP1 JUMP JUMPDEST PUSH2 0x1D9A SWAP1 PUSH1 0x20 DUP2 ADD SWAP1 PUSH0 DUP2 DUP4 SUB SWAP2 ADD MSTORE PUSH2 0x1D6B JUMP JUMPDEST SWAP1 JUMP JUMPDEST ISZERO PUSH2 0x1DA4 JUMPI JUMP JUMPDEST PUSH2 0x1DAC PUSH2 0x2A2 JUMP JUMPDEST PUSH3 0x461BCD PUSH1 0xE5 SHL DUP2 MSTORE DUP1 PUSH2 0x1DC2 PUSH1 0x4 DUP3 ADD PUSH2 0x1D85 JUMP JUMPDEST SUB SWAP1 REVERT JUMPDEST SWAP1 PUSH2 0x1DD1 SWAP2 SUB PUSH2 0x45E JUMP JUMPDEST SWAP1 JUMP JUMPDEST PUSH2 0x1E23 SWAP2 PUSH2 0x1DE0 PUSH2 0x12B2 JUMP JUMPDEST POP PUSH2 0x1E1D PUSH2 0x1DEC PUSH2 0x22B3 JUMP JUMPDEST SWAP2 PUSH2 0x1DF8 DUP4 DUP6 SWAP1 PUSH2 0x2240 JUMP JUMPDEST SWAP3 PUSH2 0x1E16 DUP5 PUSH2 0x1E0F PUSH2 0x1E09 DUP6 PUSH2 0x45E JUMP JUMPDEST SWAP2 PUSH2 0x45E JUMP JUMPDEST LT ISZERO PUSH2 0x1D9D JUMP JUMPDEST SWAP4 SWAP3 PUSH2 0x1DC6 JUMP JUMPDEST SWAP2 PUSH2 0x248D JUMP JUMPDEST PUSH1 0x1 SWAP1 JUMP JUMPDEST PUSH2 0x1E45 SWAP2 PUSH2 0x1E34 PUSH2 0x12B2 JUMP JUMPDEST POP PUSH2 0x1E3D PUSH2 0x22B3 JUMP JUMPDEST SWAP2 SWAP1 SWAP2 PUSH2 0x284C JUMP JUMPDEST PUSH1 0x1 SWAP1 JUMP JUMPDEST PUSH2 0x1E63 SWAP1 PUSH2 0x1E5E PUSH2 0x1E59 PUSH2 0xE25 JUMP JUMPDEST PUSH2 0x2549 JUMP JUMPDEST PUSH2 0x1E65 JUMP JUMPDEST JUMP JUMPDEST PUSH2 0x1E7B PUSH1 0x1 PUSH2 0x1E76 PUSH1 0xD DUP5 SWAP1 PUSH2 0x1185 JUMP JUMPDEST PUSH2 0x1507 JUMP JUMPDEST PUSH2 0x1EA5 PUSH32 0x71FA9C99DA9552DE60A9CCF693F5A91456CBB8C205C8E532B1F55339903543CF SWAP2 PUSH2 0x1179 JUMP JUMPDEST SWAP1 PUSH2 0x1EAE PUSH2 0x2A2 JUMP JUMPDEST DUP1 PUSH2 0x1EB8 DUP2 PUSH2 0x5CD JUMP JUMPDEST SUB SWAP1 LOG2 JUMP JUMPDEST PUSH2 0x1EC6 SWAP1 PUSH2 0x1E4A JUMP JUMPDEST JUMP JUMPDEST SWAP1 JUMP JUMPDEST PUSH2 0x1EDF PUSH2 0x1EDA PUSH2 0x1EE4 SWAP3 PUSH2 0x1EC8 JUMP JUMPDEST PUSH2 0x7D1 JUMP JUMPDEST PUSH2 0x45E JUMP JUMPDEST SWAP1 JUMP JUMPDEST PUSH4 0x4E487B71 PUSH1 0xE0 SHL PUSH0 MSTORE PUSH1 0x12 PUSH1 0x4 MSTORE PUSH1 0x24 PUSH0 REVERT JUMPDEST PUSH2 0x1F07 PUSH2 0x1F0D SWAP2 PUSH2 0x45E JUMP JUMPDEST SWAP2 PUSH2 0x45E JUMP JUMPDEST SWAP1 DUP2 ISZERO PUSH2 0x1F18 JUMPI DIV SWAP1 JUMP JUMPDEST PUSH2 0x1EE7 JUMP JUMPDEST PUSH2 0x1F2C PUSH2 0x1F32 SWAP2 SWAP4 SWAP3 SWAP4 PUSH2 0x45E JUMP JUMPDEST SWAP3 PUSH2 0x45E JUMP JUMPDEST DUP3 SUB SWAP2 DUP3 GT PUSH2 0x1F3D JUMPI JUMP JUMPDEST PUSH2 0x177D JUMP JUMPDEST PUSH2 0x1F4A PUSH2 0x1487 JUMP JUMPDEST POP PUSH2 0x1F61 TIMESTAMP PUSH2 0x1F5B PUSH3 0x15180 PUSH2 0x1ECB JUMP JUMPDEST SWAP1 PUSH2 0x1EFB JUMP JUMPDEST PUSH2 0x1F7C PUSH2 0x1F76 PUSH2 0x1F71 PUSH1 0xC PUSH2 0x14A4 JUMP JUMPDEST PUSH2 0x45E JUMP JUMPDEST SWAP2 PUSH2 0x45E JUMP JUMPDEST GT PUSH0 EQ PUSH2 0x1FA0 JUMPI PUSH2 0x1F9D PUSH2 0x1F8F PUSH0 PUSH2 0x1969 JUMP JUMPDEST JUMPDEST PUSH2 0x1F98 PUSH2 0xBE4 JUMP JUMPDEST PUSH2 0x1F1D JUMP JUMPDEST SWAP1 JUMP JUMPDEST PUSH2 0x1F9D PUSH2 0x1FAD PUSH1 0xB PUSH2 0x14A4 JUMP JUMPDEST PUSH2 0x1F90 JUMP JUMPDEST PUSH0 PUSH32 0x45524332305065726D69743A206578706972656420646561646C696E65000000 SWAP2 ADD MSTORE JUMP JUMPDEST PUSH2 0x1FE6 PUSH1 0x1D PUSH1 0x20 SWAP3 PUSH2 0x370 JUMP JUMPDEST PUSH2 0x1FEF DUP2 PUSH2 0x1FB2 JUMP JUMPDEST ADD SWAP1 JUMP JUMPDEST PUSH2 0x2008 SWAP1 PUSH1 0x20 DUP2 ADD SWAP1 PUSH0 DUP2 DUP4 SUB SWAP2 ADD MSTORE PUSH2 0x1FD9 JUMP JUMPDEST SWAP1 JUMP JUMPDEST ISZERO PUSH2 0x2012 JUMPI JUMP JUMPDEST PUSH2 0x201A PUSH2 0x2A2 JUMP JUMPDEST PUSH3 0x461BCD PUSH1 0xE5 SHL DUP2 MSTORE DUP1 PUSH2 0x2030 PUSH1 0x4 DUP3 ADD PUSH2 0x1FF3 JUMP JUMPDEST SUB SWAP1 REVERT JUMPDEST PUSH32 0x6E71EDAE12B1B97F4D1F60370FEF10105FA2FAAE0126114A169C64845D6126C9 SWAP1 JUMP JUMPDEST SWAP2 SWAP5 PUSH2 0x20A0 PUSH2 0x20AA SWAP3 SWAP9 SWAP8 SWAP6 PUSH2 0x2096 PUSH1 0xA0 SWAP7 PUSH2 0x208C PUSH2 0x20B1 SWAP11 PUSH2 0x2082 PUSH1 0xC0 DUP11 ADD SWAP15 PUSH0 DUP12 ADD SWAP1 PUSH2 0x6B9 JUMP JUMPDEST PUSH1 0x20 DUP10 ADD SWAP1 PUSH2 0xC51 JUMP JUMPDEST PUSH1 0x40 DUP8 ADD SWAP1 PUSH2 0xC51 JUMP JUMPDEST PUSH1 0x60 DUP6 ADD SWAP1 PUSH2 0x523 JUMP JUMPDEST PUSH1 0x80 DUP4 ADD SWAP1 PUSH2 0x523 JUMP JUMPDEST ADD SWAP1 PUSH2 0x523 JUMP JUMPDEST JUMP JUMPDEST PUSH1 0x20 ADD SWAP1 JUMP JUMPDEST MLOAD SWAP1 JUMP JUMPDEST PUSH0 PUSH32 0x45524332305065726D69743A20696E76616C6964207369676E61747572650000 SWAP2 ADD MSTORE JUMP JUMPDEST PUSH2 0x20F1 PUSH1 0x1E PUSH1 0x20 SWAP3 PUSH2 0x370 JUMP JUMPDEST PUSH2 0x20FA DUP2 PUSH2 0x20BD JUMP JUMPDEST ADD SWAP1 JUMP JUMPDEST PUSH2 0x2113 SWAP1 PUSH1 0x20 DUP2 ADD SWAP1 PUSH0 DUP2 DUP4 SUB SWAP2 ADD MSTORE PUSH2 0x20E4 JUMP JUMPDEST SWAP1 JUMP JUMPDEST ISZERO PUSH2 0x211D JUMPI JUMP JUMPDEST PUSH2 0x2125 PUSH2 0x2A2 JUMP JUMPDEST PUSH3 0x461BCD PUSH1 0xE5 SHL DUP2 MSTORE DUP1 PUSH2 0x213B PUSH1 0x4 DUP3 ADD PUSH2 0x20FE JUMP JUMPDEST SUB SWAP1 REVERT JUMPDEST SWAP3 SWAP4 PUSH2 0x21F3 SWAP7 DUP3 SWAP7 PUSH2 0x21CA PUSH2 0x21D3 SWAP5 PUSH2 0x21B2 PUSH2 0x21EB SWAP8 SWAP10 PUSH2 0x2173 TIMESTAMP PUSH2 0x216C PUSH2 0x2166 DUP5 PUSH2 0x45E JUMP JUMPDEST SWAP2 PUSH2 0x45E JUMP JUMPDEST GT ISZERO PUSH2 0x200B JUMP JUMPDEST PUSH2 0x21A3 DUP12 PUSH2 0x217F PUSH2 0x2034 JUMP JUMPDEST SWAP3 DUP13 PUSH2 0x218D DUP2 SWAP8 SWAP4 SWAP2 PUSH2 0x340E JUMP JUMPDEST SWAP2 SWAP3 PUSH2 0x2197 PUSH2 0x2A2 JUMP JUMPDEST SWAP8 DUP9 SWAP7 PUSH1 0x20 DUP9 ADD PUSH2 0x2058 JUMP JUMPDEST PUSH1 0x20 DUP3 ADD DUP2 SUB DUP3 MSTORE SUB DUP3 PUSH2 0x13F8 JUMP JUMPDEST PUSH2 0x21C4 PUSH2 0x21BE DUP3 PUSH2 0x20B9 JUMP JUMPDEST SWAP2 PUSH2 0x20B3 JUMP JUMPDEST KECCAK256 PUSH2 0x343F JUMP JUMPDEST SWAP3 SWAP1 SWAP2 SWAP3 PUSH2 0x345C JUMP JUMPDEST PUSH2 0x21E5 PUSH2 0x21DF DUP5 PUSH2 0x42F JUMP JUMPDEST SWAP2 PUSH2 0x42F JUMP JUMPDEST EQ PUSH2 0x2116 JUMP JUMPDEST SWAP2 SWAP1 SWAP2 PUSH2 0x248D JUMP JUMPDEST JUMP JUMPDEST SWAP1 PUSH2 0x2210 SWAP2 PUSH2 0x220B PUSH2 0x2206 DUP3 PUSH2 0x1602 JUMP JUMPDEST PUSH2 0x2549 JUMP JUMPDEST PUSH2 0x2212 JUMP JUMPDEST JUMP JUMPDEST SWAP1 PUSH2 0x221C SWAP2 PUSH2 0x2AC5 JUMP JUMPDEST JUMP JUMPDEST SWAP1 PUSH2 0x2228 SWAP2 PUSH2 0x21F5 JUMP JUMPDEST JUMP JUMPDEST SWAP1 PUSH2 0x2234 SWAP1 PUSH2 0x1179 JUMP JUMPDEST PUSH0 MSTORE PUSH1 0x20 MSTORE PUSH1 0x40 PUSH0 KECCAK256 SWAP1 JUMP JUMPDEST PUSH2 0x2265 SWAP2 PUSH2 0x225B PUSH2 0x2260 SWAP3 PUSH2 0x2253 PUSH2 0x1487 JUMP JUMPDEST POP PUSH1 0x1 PUSH2 0x222A JUMP JUMPDEST PUSH2 0x1AA2 JUMP JUMPDEST PUSH2 0x14A4 JUMP JUMPDEST SWAP1 JUMP JUMPDEST PUSH2 0x2270 PUSH2 0x1487 JUMP JUMPDEST POP PUSH2 0x228A PUSH2 0x227C PUSH2 0x7F0 JUMP JUMPDEST PUSH2 0x2284 PUSH2 0x14B1 JUMP JUMPDEST SWAP1 PUSH2 0x1F1D JUMP JUMPDEST SWAP1 JUMP JUMPDEST PUSH2 0x2295 PUSH2 0x12B2 JUMP JUMPDEST POP PUSH2 0x22AF PUSH2 0x22A9 PUSH4 0x1FFC9A7 PUSH1 0xE0 SHL PUSH2 0x2B4 JUMP JUMPDEST SWAP2 PUSH2 0x2B4 JUMP JUMPDEST EQ SWAP1 JUMP JUMPDEST PUSH2 0x22BB PUSH2 0x1B67 JUMP JUMPDEST POP CALLER SWAP1 JUMP JUMPDEST PUSH2 0x22D4 PUSH2 0x22CF PUSH2 0x22D9 SWAP3 PUSH2 0xE01 JUMP JUMPDEST PUSH2 0x7D1 JUMP JUMPDEST PUSH2 0x424 JUMP JUMPDEST SWAP1 JUMP JUMPDEST PUSH2 0x22E5 SWAP1 PUSH2 0x22C0 JUMP JUMPDEST SWAP1 JUMP JUMPDEST PUSH1 0x20 PUSH32 0x7265737300000000000000000000000000000000000000000000000000000000 SWAP2 PUSH32 0x45524332303A20617070726F76652066726F6D20746865207A65726F20616464 PUSH0 DUP3 ADD MSTORE ADD MSTORE JUMP JUMPDEST PUSH2 0x2342 PUSH1 0x24 PUSH1 0x40 SWAP3 PUSH2 0x370 JUMP JUMPDEST PUSH2 0x234B DUP2 PUSH2 0x22E8 JUMP JUMPDEST ADD SWAP1 JUMP JUMPDEST PUSH2 0x2364 SWAP1 PUSH1 0x20 DUP2 ADD SWAP1 PUSH0 DUP2 DUP4 SUB SWAP2 ADD MSTORE PUSH2 0x2335 JUMP JUMPDEST SWAP1 JUMP JUMPDEST ISZERO PUSH2 0x236E JUMPI JUMP JUMPDEST PUSH2 0x2376 PUSH2 0x2A2 JUMP JUMPDEST PUSH3 0x461BCD PUSH1 0xE5 SHL DUP2 MSTORE DUP1 PUSH2 0x238C PUSH1 0x4 DUP3 ADD PUSH2 0x234F JUMP JUMPDEST SUB SWAP1 REVERT JUMPDEST PUSH1 0x20 PUSH32 0x7373000000000000000000000000000000000000000000000000000000000000 SWAP2 PUSH32 0x45524332303A20617070726F766520746F20746865207A65726F206164647265 PUSH0 DUP3 ADD MSTORE ADD MSTORE JUMP JUMPDEST PUSH2 0x23EA PUSH1 0x22 PUSH1 0x40 SWAP3 PUSH2 0x370 JUMP JUMPDEST PUSH2 0x23F3 DUP2 PUSH2 0x2390 JUMP JUMPDEST ADD SWAP1 JUMP JUMPDEST PUSH2 0x240C SWAP1 PUSH1 0x20 DUP2 ADD SWAP1 PUSH0 DUP2 DUP4 SUB SWAP2 ADD MSTORE PUSH2 0x23DD JUMP JUMPDEST SWAP1 JUMP JUMPDEST ISZERO PUSH2 0x2416 JUMPI JUMP JUMPDEST PUSH2 0x241E PUSH2 0x2A2 JUMP JUMPDEST PUSH3 0x461BCD PUSH1 0xE5 SHL DUP2 MSTORE DUP1 PUSH2 0x2434 PUSH1 0x4 DUP3 ADD PUSH2 0x23F7 JUMP JUMPDEST SUB SWAP1 REVERT JUMPDEST SWAP1 PUSH2 0x2444 PUSH0 NOT SWAP2 PUSH2 0xE04 JUMP JUMPDEST SWAP2 DUP2 NOT AND SWAP2 AND OR SWAP1 JUMP JUMPDEST PUSH2 0x2462 PUSH2 0x245D PUSH2 0x2467 SWAP3 PUSH2 0x45E JUMP JUMPDEST PUSH2 0x7D1 JUMP JUMPDEST PUSH2 0x45E JUMP JUMPDEST SWAP1 JUMP JUMPDEST SWAP1 JUMP JUMPDEST SWAP1 PUSH2 0x2482 PUSH2 0x247D PUSH2 0x2489 SWAP3 PUSH2 0x244E JUMP JUMPDEST PUSH2 0x246A JUMP JUMPDEST DUP3 SLOAD PUSH2 0x2438 JUMP JUMPDEST SWAP1 SSTORE JUMP JUMPDEST SWAP2 SWAP1 SWAP2 PUSH2 0x24B5 DUP2 PUSH2 0x24AE PUSH2 0x24A8 PUSH2 0x24A3 PUSH0 PUSH2 0x22DC JUMP JUMPDEST PUSH2 0x42F JUMP JUMPDEST SWAP2 PUSH2 0x42F JUMP JUMPDEST EQ ISZERO PUSH2 0x2367 JUMP JUMPDEST PUSH2 0x24DA DUP4 PUSH2 0x24D3 PUSH2 0x24CD PUSH2 0x24C8 PUSH0 PUSH2 0x22DC JUMP JUMPDEST PUSH2 0x42F JUMP JUMPDEST SWAP2 PUSH2 0x42F JUMP JUMPDEST EQ ISZERO PUSH2 0x240F JUMP JUMPDEST PUSH2 0x24F9 DUP3 PUSH2 0x24F4 PUSH2 0x24ED PUSH1 0x1 DUP6 SWAP1 PUSH2 0x222A JUMP JUMPDEST DUP7 SWAP1 PUSH2 0x1AA2 JUMP JUMPDEST PUSH2 0x246D JUMP JUMPDEST SWAP2 SWAP1 SWAP2 PUSH2 0x2544 PUSH2 0x2532 PUSH2 0x252C PUSH32 0x8C5BE1E5EBEC7D5BD14F71427D1E84F3DD0314C0F7B2291E5B200AC8C7C3B925 SWAP4 PUSH2 0x1179 JUMP JUMPDEST SWAP4 PUSH2 0x1179 JUMP JUMPDEST SWAP4 PUSH2 0x253B PUSH2 0x2A2 JUMP JUMPDEST SWAP2 DUP3 SWAP2 DUP3 PUSH2 0x530 JUMP JUMPDEST SUB SWAP1 LOG3 JUMP JUMPDEST PUSH2 0x255B SWAP1 PUSH2 0x2555 PUSH2 0x22B3 JUMP JUMPDEST SWAP1 PUSH2 0x358E JUMP JUMPDEST JUMP JUMPDEST PUSH0 PUSH32 0x45524332303A20696E73756666696369656E7420616C6C6F77616E6365000000 SWAP2 ADD MSTORE JUMP JUMPDEST PUSH2 0x2591 PUSH1 0x1D PUSH1 0x20 SWAP3 PUSH2 0x370 JUMP JUMPDEST PUSH2 0x259A DUP2 PUSH2 0x255D JUMP JUMPDEST ADD SWAP1 JUMP JUMPDEST PUSH2 0x25B3 SWAP1 PUSH1 0x20 DUP2 ADD SWAP1 PUSH0 DUP2 DUP4 SUB SWAP2 ADD MSTORE PUSH2 0x2584 JUMP JUMPDEST SWAP1 JUMP JUMPDEST ISZERO PUSH2 0x25BD JUMPI JUMP JUMPDEST PUSH2 0x25C5 PUSH2 0x2A2 JUMP JUMPDEST PUSH3 0x461BCD PUSH1 0xE5 SHL DUP2 MSTORE DUP1 PUSH2 0x25DB PUSH1 0x4 DUP3 ADD PUSH2 0x259E JUMP JUMPDEST SUB SWAP1 REVERT JUMPDEST PUSH2 0x25EA DUP2 DUP4 SWAP1 PUSH2 0x2240 JUMP JUMPDEST SWAP1 DUP2 PUSH2 0x25FF PUSH2 0x25F9 PUSH0 NOT PUSH2 0x45E JUMP JUMPDEST SWAP2 PUSH2 0x45E JUMP JUMPDEST SUB PUSH2 0x260B JUMPI JUMPDEST POP POP POP POP JUMP JUMPDEST PUSH2 0x263D SWAP4 PUSH2 0x2637 SWAP2 PUSH2 0x2630 DUP5 PUSH2 0x2629 PUSH2 0x2623 DUP6 PUSH2 0x45E JUMP JUMPDEST SWAP2 PUSH2 0x45E JUMP JUMPDEST LT ISZERO PUSH2 0x25B6 JUMP JUMPDEST SWAP4 SWAP3 PUSH2 0x1DC6 JUMP JUMPDEST SWAP2 PUSH2 0x248D JUMP JUMPDEST PUSH0 DUP1 DUP1 DUP1 PUSH2 0x2605 JUMP JUMPDEST PUSH1 0x20 PUSH32 0x6472657373000000000000000000000000000000000000000000000000000000 SWAP2 PUSH32 0x45524332303A207472616E736665722066726F6D20746865207A65726F206164 PUSH0 DUP3 ADD MSTORE ADD MSTORE JUMP JUMPDEST PUSH2 0x26A0 PUSH1 0x25 PUSH1 0x40 SWAP3 PUSH2 0x370 JUMP JUMPDEST PUSH2 0x26A9 DUP2 PUSH2 0x2646 JUMP JUMPDEST ADD SWAP1 JUMP JUMPDEST PUSH2 0x26C2 SWAP1 PUSH1 0x20 DUP2 ADD SWAP1 PUSH0 DUP2 DUP4 SUB SWAP2 ADD MSTORE PUSH2 0x2693 JUMP JUMPDEST SWAP1 JUMP JUMPDEST ISZERO PUSH2 0x26CC JUMPI JUMP JUMPDEST PUSH2 0x26D4 PUSH2 0x2A2 JUMP JUMPDEST PUSH3 0x461BCD PUSH1 0xE5 SHL DUP2 MSTORE DUP1 PUSH2 0x26EA PUSH1 0x4 DUP3 ADD PUSH2 0x26AD JUMP JUMPDEST SUB SWAP1 REVERT JUMPDEST PUSH1 0x20 PUSH32 0x6573730000000000000000000000000000000000000000000000000000000000 SWAP2 PUSH32 0x45524332303A207472616E7366657220746F20746865207A65726F2061646472 PUSH0 DUP3 ADD MSTORE ADD MSTORE JUMP JUMPDEST PUSH2 0x2748 PUSH1 0x23 PUSH1 0x40 SWAP3 PUSH2 0x370 JUMP JUMPDEST PUSH2 0x2751 DUP2 PUSH2 0x26EE JUMP JUMPDEST ADD SWAP1 JUMP JUMPDEST PUSH2 0x276A SWAP1 PUSH1 0x20 DUP2 ADD SWAP1 PUSH0 DUP2 DUP4 SUB SWAP2 ADD MSTORE PUSH2 0x273B JUMP JUMPDEST SWAP1 JUMP JUMPDEST ISZERO PUSH2 0x2774 JUMPI JUMP JUMPDEST PUSH2 0x277C PUSH2 0x2A2 JUMP JUMPDEST PUSH3 0x461BCD PUSH1 0xE5 SHL DUP2 MSTORE DUP1 PUSH2 0x2792 PUSH1 0x4 DUP3 ADD PUSH2 0x2755 JUMP JUMPDEST SUB SWAP1 REVERT JUMPDEST PUSH1 0x20 PUSH32 0x616C616E63650000000000000000000000000000000000000000000000000000 SWAP2 PUSH32 0x45524332303A207472616E7366657220616D6F756E7420657863656564732062 PUSH0 DUP3 ADD MSTORE ADD MSTORE JUMP JUMPDEST PUSH2 0x27F0 PUSH1 0x26 PUSH1 0x40 SWAP3 PUSH2 0x370 JUMP JUMPDEST PUSH2 0x27F9 DUP2 PUSH2 0x2796 JUMP JUMPDEST ADD SWAP1 JUMP JUMPDEST PUSH2 0x2812 SWAP1 PUSH1 0x20 DUP2 ADD SWAP1 PUSH0 DUP2 DUP4 SUB SWAP2 ADD MSTORE PUSH2 0x27E3 JUMP JUMPDEST SWAP1 JUMP JUMPDEST ISZERO PUSH2 0x281C JUMPI JUMP JUMPDEST PUSH2 0x2824 PUSH2 0x2A2 JUMP JUMPDEST PUSH3 0x461BCD PUSH1 0xE5 SHL DUP2 MSTORE DUP1 PUSH2 0x283A PUSH1 0x4 DUP3 ADD PUSH2 0x27FD JUMP JUMPDEST SUB SWAP1 REVERT JUMPDEST SWAP1 PUSH2 0x2849 SWAP2 ADD PUSH2 0x45E JUMP JUMPDEST SWAP1 JUMP JUMPDEST SWAP2 SWAP1 SWAP2 PUSH2 0x2874 DUP2 PUSH2 0x286D PUSH2 0x2867 PUSH2 0x2862 PUSH0 PUSH2 0x22DC JUMP JUMPDEST PUSH2 0x42F JUMP JUMPDEST SWAP2 PUSH2 0x42F JUMP JUMPDEST EQ ISZERO PUSH2 0x26C5 JUMP JUMPDEST PUSH2 0x2899 DUP4 PUSH2 0x2892 PUSH2 0x288C PUSH2 0x2887 PUSH0 PUSH2 0x22DC JUMP JUMPDEST PUSH2 0x42F JUMP JUMPDEST SWAP2 PUSH2 0x42F JUMP JUMPDEST EQ ISZERO PUSH2 0x276D JUMP JUMPDEST PUSH2 0x28A5 DUP2 DUP5 DUP5 SWAP2 PUSH2 0x378C JUMP JUMPDEST PUSH2 0x28F2 PUSH2 0x28E2 PUSH2 0x28BE PUSH2 0x28B9 PUSH0 DUP6 SWAP1 PUSH2 0x1AA2 JUMP JUMPDEST PUSH2 0x14A4 JUMP JUMPDEST PUSH2 0x28DB DUP2 PUSH2 0x28D4 PUSH2 0x28CE DUP9 PUSH2 0x45E JUMP JUMPDEST SWAP2 PUSH2 0x45E JUMP JUMPDEST LT ISZERO PUSH2 0x2815 JUMP JUMPDEST DUP5 SWAP1 PUSH2 0x1DC6 JUMP JUMPDEST PUSH2 0x28ED PUSH0 DUP5 SWAP1 PUSH2 0x1AA2 JUMP JUMPDEST PUSH2 0x246D JUMP JUMPDEST PUSH2 0x2919 DUP3 PUSH2 0x2913 PUSH2 0x2904 PUSH0 DUP8 SWAP1 PUSH2 0x1AA2 JUMP JUMPDEST SWAP2 PUSH2 0x290E DUP4 PUSH2 0x14A4 JUMP JUMPDEST PUSH2 0x283E JUMP JUMPDEST SWAP1 PUSH2 0x246D JUMP JUMPDEST SWAP2 SWAP1 SWAP2 PUSH2 0x2964 PUSH2 0x2952 PUSH2 0x294C PUSH32 0xDDF252AD1BE2C89B69C2B068FC378DAA952BA7F163C4A11628F55A4DF523B3EF SWAP4 PUSH2 0x1179 JUMP JUMPDEST SWAP4 PUSH2 0x1179 JUMP JUMPDEST SWAP4 PUSH2 0x295B PUSH2 0x2A2 JUMP JUMPDEST SWAP2 DUP3 SWAP2 DUP3 PUSH2 0x530 JUMP JUMPDEST SUB SWAP1 LOG3 JUMP JUMPDEST PUSH2 0x297D PUSH2 0x2977 DUP3 DUP5 SWAP1 PUSH2 0x1CDE JUMP JUMPDEST ISZERO PUSH2 0x301 JUMP JUMPDEST PUSH2 0x2986 JUMPI JUMPDEST POP POP JUMP JUMPDEST PUSH2 0x29A8 PUSH1 0x1 PUSH2 0x29A3 PUSH0 PUSH2 0x299B PUSH1 0x9 DUP7 SWAP1 PUSH2 0x15C8 JUMP JUMPDEST ADD DUP6 SWAP1 PUSH2 0x1185 JUMP JUMPDEST PUSH2 0x1507 JUMP JUMPDEST SWAP1 PUSH2 0x29B1 PUSH2 0x22B3 JUMP JUMPDEST SWAP1 PUSH2 0x29EE PUSH2 0x29E8 PUSH2 0x29E2 PUSH32 0x2F8788117E7EFF1D82E926EC794901D17C78024A50270940304540A733656F0D SWAP6 PUSH2 0x15BC JUMP JUMPDEST SWAP3 PUSH2 0x1179 JUMP JUMPDEST SWAP3 PUSH2 0x1179 JUMP JUMPDEST SWAP3 PUSH2 0x29F7 PUSH2 0x2A2 JUMP JUMPDEST DUP1 PUSH2 0x2A01 DUP2 PUSH2 0x5CD JUMP JUMPDEST SUB SWAP1 LOG4 PUSH0 DUP1 PUSH2 0x2982 JUMP JUMPDEST PUSH2 0x2A13 PUSH2 0x15B8 JUMP JUMPDEST POP PUSH2 0x2A1D ADDRESS PUSH2 0x1B73 JUMP JUMPDEST PUSH2 0x2A4F PUSH2 0x2A49 PUSH32 0x0 PUSH2 0x42F JUMP JUMPDEST SWAP2 PUSH2 0x42F JUMP JUMPDEST EQ DUP1 PUSH2 0x2A8B JUMPI JUMPDEST PUSH0 EQ PUSH2 0x2A80 JUMPI PUSH32 0x0 SWAP1 JUMP JUMPDEST PUSH2 0x2A88 PUSH2 0x380A JUMP JUMPDEST SWAP1 JUMP JUMPDEST POP CHAINID PUSH2 0x2ABF PUSH2 0x2AB9 PUSH32 0x0 PUSH2 0x45E JUMP JUMPDEST SWAP2 PUSH2 0x45E JUMP JUMPDEST EQ PUSH2 0x2A56 JUMP JUMPDEST PUSH2 0x2AD0 DUP2 DUP4 SWAP1 PUSH2 0x1CDE JUMP JUMPDEST PUSH2 0x2AD9 JUMPI JUMPDEST POP POP JUMP JUMPDEST PUSH2 0x2AFA PUSH0 PUSH2 0x2AF5 PUSH0 PUSH2 0x2AED PUSH1 0x9 DUP7 SWAP1 PUSH2 0x15C8 JUMP JUMPDEST ADD DUP6 SWAP1 PUSH2 0x1185 JUMP JUMPDEST PUSH2 0x1507 JUMP JUMPDEST SWAP1 PUSH2 0x2B03 PUSH2 0x22B3 JUMP JUMPDEST SWAP1 PUSH2 0x2B40 PUSH2 0x2B3A PUSH2 0x2B34 PUSH32 0xF6391F5C32D9C69D2A47EA670B442974B53935D1EDC7FD64EB21E047A839171B SWAP6 PUSH2 0x15BC JUMP JUMPDEST SWAP3 PUSH2 0x1179 JUMP JUMPDEST SWAP3 PUSH2 0x1179 JUMP JUMPDEST SWAP3 PUSH2 0x2B49 PUSH2 0x2A2 JUMP JUMPDEST DUP1 PUSH2 0x2B53 DUP2 PUSH2 0x5CD JUMP JUMPDEST SUB SWAP1 LOG4 PUSH0 DUP1 PUSH2 0x2AD5 JUMP JUMPDEST PUSH2 0x2B65 PUSH2 0x392A JUMP JUMPDEST PUSH2 0x2B6D PUSH2 0x2B84 JUMP JUMPDEST JUMP JUMPDEST SWAP2 SWAP1 PUSH2 0x2B82 SWAP1 PUSH0 PUSH1 0x20 DUP6 ADD SWAP5 ADD SWAP1 PUSH2 0xC51 JUMP JUMPDEST JUMP JUMPDEST PUSH2 0x2B8F PUSH0 PUSH1 0xA PUSH2 0x1507 JUMP JUMPDEST PUSH2 0x2B97 PUSH2 0x22B3 JUMP JUMPDEST PUSH2 0x2BCD PUSH32 0x5DB9EE0A495BF2E6FF9C91A7834C1BA4FDD244A5E8AA4E537BD38AEAE4B073AA SWAP2 PUSH2 0x2BC4 PUSH2 0x2A2 JUMP JUMPDEST SWAP2 DUP3 SWAP2 DUP3 PUSH2 0x2B6F JUMP JUMPDEST SUB SWAP1 LOG1 JUMP JUMPDEST PUSH2 0x2BDA PUSH2 0x2B5D JUMP JUMPDEST JUMP JUMPDEST PUSH0 PUSH32 0x5061757361626C653A2070617573656400000000000000000000000000000000 SWAP2 ADD MSTORE JUMP JUMPDEST PUSH2 0x2C10 PUSH1 0x10 PUSH1 0x20 SWAP3 PUSH2 0x370 JUMP JUMPDEST PUSH2 0x2C19 DUP2 PUSH2 0x2BDC JUMP JUMPDEST ADD SWAP1 JUMP JUMPDEST PUSH2 0x2C32 SWAP1 PUSH1 0x20 DUP2 ADD SWAP1 PUSH0 DUP2 DUP4 SUB SWAP2 ADD MSTORE PUSH2 0x2C03 JUMP JUMPDEST SWAP1 JUMP JUMPDEST ISZERO PUSH2 0x2C3C JUMPI JUMP JUMPDEST PUSH2 0x2C44 PUSH2 0x2A2 JUMP JUMPDEST PUSH3 0x461BCD PUSH1 0xE5 SHL DUP2 MSTORE DUP1 PUSH2 0x2C5A PUSH1 0x4 DUP3 ADD PUSH2 0x2C1D JUMP JUMPDEST SUB SWAP1 REVERT JUMPDEST PUSH2 0x2C77 PUSH2 0x2C72 PUSH2 0x2C6C PUSH2 0x1895 JUMP JUMPDEST ISZERO PUSH2 0x301 JUMP JUMPDEST PUSH2 0x2C35 JUMP JUMPDEST JUMP JUMPDEST PUSH0 PUSH32 0x4D696E7420746F207A65726F2061646472657373000000000000000000000000 SWAP2 ADD MSTORE JUMP JUMPDEST PUSH2 0x2CAD PUSH1 0x14 PUSH1 0x20 SWAP3 PUSH2 0x370 JUMP JUMPDEST PUSH2 0x2CB6 DUP2 PUSH2 0x2C79 JUMP JUMPDEST ADD SWAP1 JUMP JUMPDEST PUSH2 0x2CCF SWAP1 PUSH1 0x20 DUP2 ADD SWAP1 PUSH0 DUP2 DUP4 SUB SWAP2 ADD MSTORE PUSH2 0x2CA0 JUMP JUMPDEST SWAP1 JUMP JUMPDEST ISZERO PUSH2 0x2CD9 JUMPI JUMP JUMPDEST PUSH2 0x2CE1 PUSH2 0x2A2 JUMP JUMPDEST PUSH3 0x461BCD PUSH1 0xE5 SHL DUP2 MSTORE DUP1 PUSH2 0x2CF7 PUSH1 0x4 DUP3 ADD PUSH2 0x2CBA JUMP JUMPDEST SUB SWAP1 REVERT JUMPDEST PUSH0 PUSH32 0x4164647265737320626C6F636B65640000000000000000000000000000000000 SWAP2 ADD MSTORE JUMP JUMPDEST PUSH2 0x2D2F PUSH1 0xF PUSH1 0x20 SWAP3 PUSH2 0x370 JUMP JUMPDEST PUSH2 0x2D38 DUP2 PUSH2 0x2CFB JUMP JUMPDEST ADD SWAP1 JUMP JUMPDEST PUSH2 0x2D51 SWAP1 PUSH1 0x20 DUP2 ADD SWAP1 PUSH0 DUP2 DUP4 SUB SWAP2 ADD MSTORE PUSH2 0x2D22 JUMP JUMPDEST SWAP1 JUMP JUMPDEST ISZERO PUSH2 0x2D5B JUMPI JUMP JUMPDEST PUSH2 0x2D63 PUSH2 0x2A2 JUMP JUMPDEST PUSH3 0x461BCD PUSH1 0xE5 SHL DUP2 MSTORE DUP1 PUSH2 0x2D79 PUSH1 0x4 DUP3 ADD PUSH2 0x2D3C JUMP JUMPDEST SUB SWAP1 REVERT JUMPDEST PUSH0 PUSH32 0x4461696C79206D696E7420636170206578636565646564000000000000000000 SWAP2 ADD MSTORE JUMP JUMPDEST PUSH2 0x2DB1 PUSH1 0x17 PUSH1 0x20 SWAP3 PUSH2 0x370 JUMP JUMPDEST PUSH2 0x2DBA DUP2 PUSH2 0x2D7D JUMP JUMPDEST ADD SWAP1 JUMP JUMPDEST PUSH2 0x2DD3 SWAP1 PUSH1 0x20 DUP2 ADD SWAP1 PUSH0 DUP2 DUP4 SUB SWAP2 ADD MSTORE PUSH2 0x2DA4 JUMP JUMPDEST SWAP1 JUMP JUMPDEST ISZERO PUSH2 0x2DDD JUMPI JUMP JUMPDEST PUSH2 0x2DE5 PUSH2 0x2A2 JUMP JUMPDEST PUSH3 0x461BCD PUSH1 0xE5 SHL DUP2 MSTORE DUP1 PUSH2 0x2DFB PUSH1 0x4 DUP3 ADD PUSH2 0x2DBE JUMP JUMPDEST SUB SWAP1 REVERT JUMPDEST PUSH0 PUSH32 0x4D617820737570706C7920657863656564656400000000000000000000000000 SWAP2 ADD MSTORE JUMP JUMPDEST PUSH2 0x2E33 PUSH1 0x13 PUSH1 0x20 SWAP3 PUSH2 0x370 JUMP JUMPDEST PUSH2 0x2E3C DUP2 PUSH2 0x2DFF JUMP JUMPDEST ADD SWAP1 JUMP JUMPDEST PUSH2 0x2E55 SWAP1 PUSH1 0x20 DUP2 ADD SWAP1 PUSH0 DUP2 DUP4 SUB SWAP2 ADD MSTORE PUSH2 0x2E26 JUMP JUMPDEST SWAP1 JUMP JUMPDEST ISZERO PUSH2 0x2E5F JUMPI JUMP JUMPDEST PUSH2 0x2E67 PUSH2 0x2A2 JUMP JUMPDEST PUSH3 0x461BCD PUSH1 0xE5 SHL DUP2 MSTORE DUP1 PUSH2 0x2E7D PUSH1 0x4 DUP3 ADD PUSH2 0x2E40 JUMP JUMPDEST SUB SWAP1 REVERT JUMPDEST SWAP1 PUSH2 0x2F97 SWAP2 PUSH2 0x2EAB DUP2 PUSH2 0x2EA4 PUSH2 0x2E9E PUSH2 0x2E99 PUSH0 PUSH2 0x22DC JUMP JUMPDEST PUSH2 0x42F JUMP JUMPDEST SWAP2 PUSH2 0x42F JUMP JUMPDEST EQ ISZERO PUSH2 0x2CD2 JUMP JUMPDEST PUSH2 0x2ED0 PUSH2 0x2ECB PUSH2 0x2EC5 PUSH2 0x2EC0 PUSH1 0xD DUP6 SWAP1 PUSH2 0x1185 JUMP JUMPDEST PUSH2 0x1888 JUMP JUMPDEST ISZERO PUSH2 0x301 JUMP JUMPDEST PUSH2 0x2D54 JUMP JUMPDEST PUSH2 0x2EE6 TIMESTAMP PUSH2 0x2EE0 PUSH3 0x15180 PUSH2 0x1ECB JUMP JUMPDEST SWAP1 PUSH2 0x1EFB JUMP JUMPDEST DUP1 PUSH2 0x2F02 PUSH2 0x2EFC PUSH2 0x2EF7 PUSH1 0xC PUSH2 0x14A4 JUMP JUMPDEST PUSH2 0x45E JUMP JUMPDEST SWAP2 PUSH2 0x45E JUMP JUMPDEST GT PUSH2 0x2F99 JUMPI JUMPDEST POP PUSH2 0x2F40 PUSH2 0x2F20 PUSH2 0x2F19 PUSH1 0xB PUSH2 0x14A4 JUMP JUMPDEST DUP5 SWAP1 PUSH2 0x1791 JUMP JUMPDEST PUSH2 0x2F39 PUSH2 0x2F33 PUSH2 0x2F2E PUSH2 0xBE4 JUMP JUMPDEST PUSH2 0x45E JUMP JUMPDEST SWAP2 PUSH2 0x45E JUMP JUMPDEST GT ISZERO PUSH2 0x2DD6 JUMP JUMPDEST PUSH2 0x2F75 PUSH2 0x2F55 PUSH2 0x2F4E PUSH2 0x14B1 JUMP JUMPDEST DUP5 SWAP1 PUSH2 0x1791 JUMP JUMPDEST PUSH2 0x2F6E PUSH2 0x2F68 PUSH2 0x2F63 PUSH2 0x7F0 JUMP JUMPDEST PUSH2 0x45E JUMP JUMPDEST SWAP2 PUSH2 0x45E JUMP JUMPDEST GT ISZERO PUSH2 0x2E58 JUMP JUMPDEST PUSH2 0x2F92 PUSH2 0x2F8B DUP4 PUSH2 0x2F86 PUSH1 0xB PUSH2 0x14A4 JUMP JUMPDEST PUSH2 0x1791 JUMP JUMPDEST PUSH1 0xB PUSH2 0x246D JUMP JUMPDEST PUSH2 0x39BE JUMP JUMPDEST JUMP JUMPDEST PUSH2 0x2FAC PUSH2 0x2FA5 PUSH0 PUSH2 0x1969 JUMP JUMPDEST PUSH1 0xB PUSH2 0x246D JUMP JUMPDEST PUSH2 0x2FB7 DUP2 PUSH1 0xC PUSH2 0x246D JUMP JUMPDEST PUSH2 0x2FED PUSH32 0x38F3386DD2B5E327A5321B0A1F2B40D770AB237891F947173F27ED36ABEFD135 SWAP2 PUSH2 0x2FE4 PUSH2 0x2A2 JUMP JUMPDEST SWAP2 DUP3 SWAP2 DUP3 PUSH2 0x530 JUMP JUMPDEST SUB SWAP1 LOG1 PUSH0 PUSH2 0x2F08 JUMP JUMPDEST PUSH1 0x20 PUSH32 0x7300000000000000000000000000000000000000000000000000000000000000 SWAP2 PUSH32 0x45524332303A206275726E2066726F6D20746865207A65726F20616464726573 PUSH0 DUP3 ADD MSTORE ADD MSTORE JUMP JUMPDEST PUSH2 0x3050 PUSH1 0x21 PUSH1 0x40 SWAP3 PUSH2 0x370 JUMP JUMPDEST PUSH2 0x3059 DUP2 PUSH2 0x2FF6 JUMP JUMPDEST ADD SWAP1 JUMP JUMPDEST PUSH2 0x3072 SWAP1 PUSH1 0x20 DUP2 ADD SWAP1 PUSH0 DUP2 DUP4 SUB SWAP2 ADD MSTORE PUSH2 0x3043 JUMP JUMPDEST SWAP1 JUMP JUMPDEST ISZERO PUSH2 0x307C JUMPI JUMP JUMPDEST PUSH2 0x3084 PUSH2 0x2A2 JUMP JUMPDEST PUSH3 0x461BCD PUSH1 0xE5 SHL DUP2 MSTORE DUP1 PUSH2 0x309A PUSH1 0x4 DUP3 ADD PUSH2 0x305D JUMP JUMPDEST SUB SWAP1 REVERT JUMPDEST PUSH1 0x20 PUSH32 0x6365000000000000000000000000000000000000000000000000000000000000 SWAP2 PUSH32 0x45524332303A206275726E20616D6F756E7420657863656564732062616C616E PUSH0 DUP3 ADD MSTORE ADD MSTORE JUMP JUMPDEST PUSH2 0x30F8 PUSH1 0x22 PUSH1 0x40 SWAP3 PUSH2 0x370 JUMP JUMPDEST PUSH2 0x3101 DUP2 PUSH2 0x309E JUMP JUMPDEST ADD SWAP1 JUMP JUMPDEST PUSH2 0x311A SWAP1 PUSH1 0x20 DUP2 ADD SWAP1 PUSH0 DUP2 DUP4 SUB SWAP2 ADD MSTORE PUSH2 0x30EB JUMP JUMPDEST SWAP1 JUMP JUMPDEST ISZERO PUSH2 0x3124 JUMPI JUMP JUMPDEST PUSH2 0x312C PUSH2 0x2A2 JUMP JUMPDEST PUSH3 0x461BCD PUSH1 0xE5 SHL DUP2 MSTORE DUP1 PUSH2 0x3142 PUSH1 0x4 DUP3 ADD PUSH2 0x3105 JUMP JUMPDEST SUB SWAP1 REVERT JUMPDEST PUSH2 0x316B DUP2 PUSH2 0x3164 PUSH2 0x315E PUSH2 0x3159 PUSH0 PUSH2 0x22DC JUMP JUMPDEST PUSH2 0x42F JUMP JUMPDEST SWAP2 PUSH2 0x42F JUMP JUMPDEST EQ ISZERO PUSH2 0x3075 JUMP JUMPDEST PUSH2 0x317F DUP2 PUSH2 0x3178 PUSH0 PUSH2 0x22DC JUMP JUMPDEST DUP5 SWAP2 PUSH2 0x378C JUMP JUMPDEST PUSH2 0x31CC PUSH2 0x31BC PUSH2 0x3198 PUSH2 0x3193 PUSH0 DUP6 SWAP1 PUSH2 0x1AA2 JUMP JUMPDEST PUSH2 0x14A4 JUMP JUMPDEST PUSH2 0x31B5 DUP2 PUSH2 0x31AE PUSH2 0x31A8 DUP9 PUSH2 0x45E JUMP JUMPDEST SWAP2 PUSH2 0x45E JUMP JUMPDEST LT ISZERO PUSH2 0x311D JUMP JUMPDEST DUP5 SWAP1 PUSH2 0x1DC6 JUMP JUMPDEST PUSH2 0x31C7 PUSH0 DUP5 SWAP1 PUSH2 0x1AA2 JUMP JUMPDEST PUSH2 0x246D JUMP JUMPDEST PUSH2 0x31E9 PUSH2 0x31E2 DUP4 PUSH2 0x31DD PUSH1 0x2 PUSH2 0x14A4 JUMP JUMPDEST PUSH2 0x1DC6 JUMP JUMPDEST PUSH1 0x2 PUSH2 0x246D JUMP JUMPDEST SWAP1 PUSH2 0x31F3 PUSH0 PUSH2 0x22DC JUMP JUMPDEST SWAP1 SWAP2 PUSH2 0x323D PUSH2 0x322B PUSH2 0x3225 PUSH32 0xDDF252AD1BE2C89B69C2B068FC378DAA952BA7F163C4A11628F55A4DF523B3EF SWAP4 PUSH2 0x1179 JUMP JUMPDEST SWAP4 PUSH2 0x1179 JUMP JUMPDEST SWAP4 PUSH2 0x3234 PUSH2 0x2A2 JUMP JUMPDEST SWAP2 DUP3 SWAP2 DUP3 PUSH2 0x530 JUMP JUMPDEST SUB SWAP1 LOG3 JUMP JUMPDEST PUSH0 PUSH2 0x3256 SWAP2 PUSH2 0x324F PUSH2 0x1487 JUMP JUMPDEST POP ADD PUSH2 0x14A4 JUMP JUMPDEST SWAP1 JUMP JUMPDEST PUSH2 0x3261 PUSH2 0x2C5E JUMP JUMPDEST PUSH2 0x3269 PUSH2 0x326B JUMP JUMPDEST JUMP JUMPDEST PUSH2 0x3277 PUSH1 0x1 PUSH1 0xA PUSH2 0x1507 JUMP JUMPDEST PUSH2 0x327F PUSH2 0x22B3 JUMP JUMPDEST PUSH2 0x32B5 PUSH32 0x62E78CEA01BEE320CD4E420270B5EA74000D11B0C9F74754EBDBFC544B05A258 SWAP2 PUSH2 0x32AC PUSH2 0x2A2 JUMP JUMPDEST SWAP2 DUP3 SWAP2 DUP3 PUSH2 0x2B6F JUMP JUMPDEST SUB SWAP1 LOG1 JUMP JUMPDEST PUSH2 0x32C2 PUSH2 0x3259 JUMP JUMPDEST JUMP JUMPDEST SWAP1 JUMP JUMPDEST PUSH2 0x32DB PUSH2 0x32D6 PUSH2 0x32E0 SWAP3 PUSH2 0x32C4 JUMP JUMPDEST PUSH2 0xE04 JUMP JUMPDEST PUSH2 0x675 JUMP JUMPDEST SWAP1 JUMP JUMPDEST PUSH2 0x32ED PUSH1 0xFF PUSH2 0x32C7 JUMP JUMPDEST SWAP1 JUMP JUMPDEST PUSH0 MSTORE PUSH1 0x20 PUSH0 KECCAK256 SWAP1 JUMP JUMPDEST SWAP1 PUSH0 SWAP3 SWAP2 DUP1 SLOAD SWAP1 PUSH2 0x3313 PUSH2 0x330C DUP4 PUSH2 0x130F JUMP JUMPDEST DUP1 SWAP5 PUSH2 0x1339 JUMP JUMPDEST SWAP2 PUSH1 0x1 DUP2 AND SWAP1 DUP2 PUSH0 EQ PUSH2 0x336A JUMPI POP PUSH1 0x1 EQ PUSH2 0x332E JUMPI JUMPDEST POP POP POP JUMP JUMPDEST PUSH2 0x333B SWAP2 SWAP3 SWAP4 SWAP5 POP PUSH2 0x32F0 JUMP JUMPDEST SWAP2 PUSH0 SWAP3 JUMPDEST DUP2 DUP5 LT PUSH2 0x3352 JUMPI POP POP ADD SWAP1 PUSH0 DUP1 DUP1 PUSH2 0x3329 JUMP JUMPDEST PUSH1 0x1 DUP2 PUSH1 0x20 SWAP3 SWAP6 SWAP4 SWAP6 SLOAD DUP5 DUP7 ADD MSTORE ADD SWAP2 ADD SWAP3 SWAP1 PUSH2 0x333F JUMP JUMPDEST SWAP3 SWAP5 SWAP6 POP POP POP PUSH1 0xFF NOT AND DUP3 MSTORE ISZERO ISZERO PUSH1 0x20 MUL ADD SWAP1 PUSH0 DUP1 DUP1 PUSH2 0x3329 JUMP JUMPDEST SWAP1 PUSH2 0x338F SWAP2 PUSH2 0x32F9 JUMP JUMPDEST SWAP1 JUMP JUMPDEST SWAP1 PUSH2 0x33B2 PUSH2 0x33AB SWAP3 PUSH2 0x33A2 PUSH2 0x2A2 JUMP JUMPDEST SWAP4 DUP5 DUP1 SWAP3 PUSH2 0x3385 JUMP JUMPDEST SUB DUP4 PUSH2 0x13F8 JUMP JUMPDEST JUMP JUMPDEST PUSH2 0x33BD SWAP1 PUSH2 0x3392 JUMP JUMPDEST SWAP1 JUMP JUMPDEST SWAP1 PUSH2 0x33C9 PUSH2 0x12F6 JUMP JUMPDEST POP PUSH2 0x33D3 DUP3 PUSH2 0x15BC JUMP JUMPDEST PUSH2 0x33EC PUSH2 0x33E6 PUSH2 0x33E1 PUSH2 0x32E3 JUMP JUMPDEST PUSH2 0x675 JUMP JUMPDEST SWAP2 PUSH2 0x675 JUMP JUMPDEST EQ ISZERO PUSH0 EQ PUSH2 0x3401 JUMPI POP PUSH2 0x33FE SWAP1 PUSH2 0x3AFB JUMP JUMPDEST SWAP1 JUMP JUMPDEST PUSH2 0x340B SWAP2 POP PUSH2 0x33B4 JUMP JUMPDEST SWAP1 JUMP JUMPDEST PUSH2 0x3425 PUSH2 0x342A SWAP2 PUSH2 0x341D PUSH2 0x1487 JUMP JUMPDEST POP PUSH1 0x7 PUSH2 0x1AF5 JUMP JUMPDEST PUSH2 0x1B0B JUMP JUMPDEST SWAP1 PUSH2 0x343D PUSH2 0x3437 DUP4 PUSH2 0x3242 JUMP JUMPDEST SWAP3 PUSH2 0x3B4A JUMP JUMPDEST JUMP JUMPDEST PUSH2 0x3459 SWAP1 PUSH2 0x344B PUSH2 0x15B8 JUMP JUMPDEST POP PUSH2 0x3454 PUSH2 0x2A0B JUMP JUMPDEST PUSH2 0x3B75 JUMP JUMPDEST SWAP1 JUMP JUMPDEST SWAP3 PUSH2 0x3477 SWAP3 PUSH2 0x347F SWAP5 PUSH2 0x346D PUSH2 0x1B67 JUMP JUMPDEST POP SWAP3 SWAP1 SWAP2 SWAP3 PUSH2 0x3C27 JUMP JUMPDEST SWAP2 SWAP1 SWAP2 PUSH2 0x3E5C JUMP JUMPDEST SWAP1 JUMP JUMPDEST PUSH2 0x348E PUSH2 0x3493 SWAP2 PUSH2 0x148B JUMP JUMPDEST PUSH2 0x244E JUMP JUMPDEST SWAP1 JUMP JUMPDEST SWAP1 JUMP JUMPDEST PUSH2 0x34AD PUSH2 0x34A8 PUSH2 0x34B2 SWAP3 PUSH2 0x3496 JUMP JUMPDEST PUSH2 0x7D1 JUMP JUMPDEST PUSH2 0x45E JUMP JUMPDEST SWAP1 JUMP JUMPDEST SWAP1 POP SWAP1 JUMP JUMPDEST PUSH0 PUSH32 0x416363657373436F6E74726F6C3A206163636F756E7420000000000000000000 SWAP2 ADD MSTORE JUMP JUMPDEST PUSH2 0x34ED PUSH1 0x17 DUP1 SWAP3 PUSH2 0x34B5 JUMP JUMPDEST PUSH2 0x34F6 DUP2 PUSH2 0x34BA JUMP JUMPDEST ADD SWAP1 JUMP JUMPDEST PUSH2 0x351F PUSH2 0x3516 SWAP3 PUSH1 0x20 SWAP3 PUSH2 0x350D DUP2 PUSH2 0x36C JUMP JUMPDEST SWAP5 DUP6 DUP1 SWAP4 PUSH2 0x34B5 JUMP JUMPDEST SWAP4 DUP5 SWAP2 ADD PUSH2 0x379 JUMP JUMPDEST ADD SWAP1 JUMP JUMPDEST PUSH0 PUSH32 0x206973206D697373696E6720726F6C6520000000000000000000000000000000 SWAP2 ADD MSTORE JUMP JUMPDEST PUSH2 0x3556 PUSH1 0x11 DUP1 SWAP3 PUSH2 0x34B5 JUMP JUMPDEST PUSH2 0x355F DUP2 PUSH2 0x3523 JUMP JUMPDEST ADD SWAP1 JUMP JUMPDEST PUSH2 0x357D PUSH2 0x3588 SWAP4 SWAP3 PUSH2 0x3577 PUSH2 0x3582 SWAP4 PUSH2 0x34E1 JUMP JUMPDEST SWAP1 PUSH2 0x34FA JUMP JUMPDEST PUSH2 0x354A JUMP JUMPDEST SWAP1 PUSH2 0x34FA JUMP JUMPDEST SWAP1 JUMP JUMPDEST SWAP1 JUMP JUMPDEST SWAP1 PUSH2 0x35A3 PUSH2 0x359D DUP4 DUP4 SWAP1 PUSH2 0x1CDE JUMP JUMPDEST ISZERO PUSH2 0x301 JUMP JUMPDEST PUSH2 0x35AB JUMPI POP POP JUMP JUMPDEST PUSH2 0x3623 SWAP2 PUSH2 0x3601 PUSH2 0x35DA PUSH2 0x35CA PUSH2 0x35C4 PUSH2 0x3606 SWAP6 PUSH2 0x3F9F JUMP JUMPDEST SWAP4 PUSH2 0x3482 JUMP JUMPDEST PUSH2 0x35D4 PUSH1 0x20 PUSH2 0x3499 JUMP JUMPDEST SWAP1 PUSH2 0x41E5 JUMP JUMPDEST SWAP2 PUSH2 0x35F2 PUSH2 0x35E6 PUSH2 0x2A2 JUMP JUMPDEST SWAP4 DUP5 SWAP3 PUSH1 0x20 DUP5 ADD PUSH2 0x3563 JUMP JUMPDEST PUSH1 0x20 DUP3 ADD DUP2 SUB DUP3 MSTORE SUB DUP3 PUSH2 0x13F8 JUMP JUMPDEST PUSH2 0x358B JUMP JUMPDEST PUSH2 0x360E PUSH2 0x2A2 JUMP JUMPDEST SWAP2 DUP3 SWAP2 PUSH3 0x461BCD PUSH1 0xE5 SHL DUP4 MSTORE PUSH1 0x4 DUP4 ADD PUSH2 0x3D7 JUMP JUMPDEST SUB SWAP1 REVERT JUMPDEST SWAP1 PUSH2 0x363A SWAP3 SWAP2 PUSH2 0x3635 PUSH2 0x2C5E JUMP JUMPDEST PUSH2 0x3740 JUMP JUMPDEST JUMP JUMPDEST PUSH0 PUSH32 0x53656E64657220626C6F636B6564000000000000000000000000000000000000 SWAP2 ADD MSTORE JUMP JUMPDEST PUSH2 0x3670 PUSH1 0xE PUSH1 0x20 SWAP3 PUSH2 0x370 JUMP JUMPDEST PUSH2 0x3679 DUP2 PUSH2 0x363C JUMP JUMPDEST ADD SWAP1 JUMP JUMPDEST PUSH2 0x3692 SWAP1 PUSH1 0x20 DUP2 ADD SWAP1 PUSH0 DUP2 DUP4 SUB SWAP2 ADD MSTORE PUSH2 0x3663 JUMP JUMPDEST SWAP1 JUMP JUMPDEST ISZERO PUSH2 0x369C JUMPI JUMP JUMPDEST PUSH2 0x36A4 PUSH2 0x2A2 JUMP JUMPDEST PUSH3 0x461BCD PUSH1 0xE5 SHL DUP2 MSTORE DUP1 PUSH2 0x36BA PUSH1 0x4 DUP3 ADD PUSH2 0x367D JUMP JUMPDEST SUB SWAP1 REVERT JUMPDEST PUSH0 PUSH32 0x526563697069656E7420626C6F636B6564000000000000000000000000000000 SWAP2 ADD MSTORE JUMP JUMPDEST PUSH2 0x36F2 PUSH1 0x11 PUSH1 0x20 SWAP3 PUSH2 0x370 JUMP JUMPDEST PUSH2 0x36FB DUP2 PUSH2 0x36BE JUMP JUMPDEST ADD SWAP1 JUMP JUMPDEST PUSH2 0x3714 SWAP1 PUSH1 0x20 DUP2 ADD SWAP1 PUSH0 DUP2 DUP4 SUB SWAP2 ADD MSTORE PUSH2 0x36E5 JUMP JUMPDEST SWAP1 JUMP JUMPDEST ISZERO PUSH2 0x371E JUMPI JUMP JUMPDEST PUSH2 0x3726 PUSH2 0x2A2 JUMP JUMPDEST PUSH3 0x461BCD PUSH1 0xE5 SHL DUP2 MSTORE DUP1 PUSH2 0x373C PUSH1 0x4 DUP3 ADD PUSH2 0x36FF JUMP JUMPDEST SUB SWAP1 REVERT JUMPDEST PUSH2 0x378A SWAP3 POP PUSH2 0x377A PUSH2 0x3785 SWAP3 PUSH2 0x3773 PUSH2 0x376E PUSH2 0x3768 PUSH2 0x3763 PUSH2 0x377F SWAP7 PUSH1 0xD PUSH2 0x1185 JUMP JUMPDEST PUSH2 0x1888 JUMP JUMPDEST ISZERO PUSH2 0x301 JUMP JUMPDEST PUSH2 0x3695 JUMP JUMPDEST PUSH1 0xD PUSH2 0x1185 JUMP JUMPDEST PUSH2 0x1888 JUMP JUMPDEST ISZERO PUSH2 0x301 JUMP JUMPDEST PUSH2 0x3717 JUMP JUMPDEST JUMP JUMPDEST SWAP1 PUSH2 0x3797 SWAP3 SWAP2 PUSH2 0x3627 JUMP JUMPDEST JUMP JUMPDEST PUSH32 0x8B73C3C69BB8FE3D512ECC4CF759CC79239F7B179B0FFACAA9A75D522B39400F SWAP1 JUMP JUMPDEST SWAP1 SWAP6 SWAP5 SWAP3 PUSH2 0x3808 SWAP5 PUSH2 0x37F7 PUSH2 0x3801 SWAP3 PUSH2 0x37ED PUSH1 0x80 SWAP7 PUSH2 0x37E3 PUSH1 0xA0 DUP9 ADD SWAP13 PUSH0 DUP10 ADD SWAP1 PUSH2 0x6B9 JUMP JUMPDEST PUSH1 0x20 DUP8 ADD SWAP1 PUSH2 0x6B9 JUMP JUMPDEST PUSH1 0x40 DUP6 ADD SWAP1 PUSH2 0x6B9 JUMP JUMPDEST PUSH1 0x60 DUP4 ADD SWAP1 PUSH2 0x523 JUMP JUMPDEST ADD SWAP1 PUSH2 0xC51 JUMP JUMPDEST JUMP JUMPDEST PUSH2 0x3812 PUSH2 0x15B8 JUMP JUMPDEST POP PUSH2 0x381B PUSH2 0x3799 JUMP JUMPDEST PUSH2 0x3892 PUSH32 0x0 SWAP2 PUSH2 0x3883 PUSH32 0x0 CHAINID PUSH2 0x386E ADDRESS PUSH2 0x1B73 JUMP JUMPDEST SWAP2 PUSH2 0x3877 PUSH2 0x2A2 JUMP JUMPDEST SWAP7 DUP8 SWAP6 PUSH1 0x20 DUP8 ADD PUSH2 0x37BD JUMP JUMPDEST PUSH1 0x20 DUP3 ADD DUP2 SUB DUP3 MSTORE SUB DUP3 PUSH2 0x13F8 JUMP JUMPDEST PUSH2 0x38A4 PUSH2 0x389E DUP3 PUSH2 0x20B9 JUMP JUMPDEST SWAP2 PUSH2 0x20B3 JUMP JUMPDEST KECCAK256 SWAP1 JUMP JUMPDEST PUSH0 PUSH32 0x5061757361626C653A206E6F7420706175736564000000000000000000000000 SWAP2 ADD MSTORE JUMP JUMPDEST PUSH2 0x38DC PUSH1 0x14 PUSH1 0x20 SWAP3 PUSH2 0x370 JUMP JUMPDEST PUSH2 0x38E5 DUP2 PUSH2 0x38A8 JUMP JUMPDEST ADD SWAP1 JUMP JUMPDEST PUSH2 0x38FE SWAP1 PUSH1 0x20 DUP2 ADD SWAP1 PUSH0 DUP2 DUP4 SUB SWAP2 ADD MSTORE PUSH2 0x38CF JUMP JUMPDEST SWAP1 JUMP JUMPDEST ISZERO PUSH2 0x3908 JUMPI JUMP JUMPDEST PUSH2 0x3910 PUSH2 0x2A2 JUMP JUMPDEST PUSH3 0x461BCD PUSH1 0xE5 SHL DUP2 MSTORE DUP1 PUSH2 0x3926 PUSH1 0x4 DUP3 ADD PUSH2 0x38E9 JUMP JUMPDEST SUB SWAP1 REVERT JUMPDEST PUSH2 0x393A PUSH2 0x3935 PUSH2 0x1895 JUMP JUMPDEST PUSH2 0x3901 JUMP JUMPDEST JUMP JUMPDEST PUSH0 PUSH32 0x45524332303A206D696E7420746F20746865207A65726F206164647265737300 SWAP2 ADD MSTORE JUMP JUMPDEST PUSH2 0x3970 PUSH1 0x1F PUSH1 0x20 SWAP3 PUSH2 0x370 JUMP JUMPDEST PUSH2 0x3979 DUP2 PUSH2 0x393C JUMP JUMPDEST ADD SWAP1 JUMP JUMPDEST PUSH2 0x3992 SWAP1 PUSH1 0x20 DUP2 ADD SWAP1 PUSH0 DUP2 DUP4 SUB SWAP2 ADD MSTORE PUSH2 0x3963 JUMP JUMPDEST SWAP1 JUMP JUMPDEST ISZERO PUSH2 0x399C JUMPI JUMP JUMPDEST PUSH2 0x39A4 PUSH2 0x2A2 JUMP JUMPDEST PUSH3 0x461BCD PUSH1 0xE5 SHL DUP2 MSTORE DUP1 PUSH2 0x39BA PUSH1 0x4 DUP3 ADD PUSH2 0x397D JUMP JUMPDEST SUB SWAP1 REVERT JUMPDEST SWAP1 PUSH2 0x39E4 DUP3 PUSH2 0x39DD PUSH2 0x39D7 PUSH2 0x39D2 PUSH0 PUSH2 0x22DC JUMP JUMPDEST PUSH2 0x42F JUMP JUMPDEST SWAP2 PUSH2 0x42F JUMP JUMPDEST EQ ISZERO PUSH2 0x3995 JUMP JUMPDEST PUSH2 0x39F8 PUSH2 0x39F0 PUSH0 PUSH2 0x22DC JUMP JUMPDEST DUP4 DUP4 SWAP2 PUSH2 0x378C JUMP JUMPDEST PUSH2 0x3A15 PUSH2 0x3A0E DUP3 PUSH2 0x3A09 PUSH1 0x2 PUSH2 0x14A4 JUMP JUMPDEST PUSH2 0x1791 JUMP JUMPDEST PUSH1 0x2 PUSH2 0x246D JUMP JUMPDEST PUSH2 0x3A3C DUP2 PUSH2 0x3A36 PUSH2 0x3A27 PUSH0 DUP7 SWAP1 PUSH2 0x1AA2 JUMP JUMPDEST SWAP2 PUSH2 0x3A31 DUP4 PUSH2 0x14A4 JUMP JUMPDEST PUSH2 0x283E JUMP JUMPDEST SWAP1 PUSH2 0x246D JUMP JUMPDEST PUSH2 0x3A45 PUSH0 PUSH2 0x22DC JUMP JUMPDEST SWAP2 SWAP1 SWAP2 PUSH2 0x3A90 PUSH2 0x3A7E PUSH2 0x3A78 PUSH32 0xDDF252AD1BE2C89B69C2B068FC378DAA952BA7F163C4A11628F55A4DF523B3EF SWAP4 PUSH2 0x1179 JUMP JUMPDEST SWAP4 PUSH2 0x1179 JUMP JUMPDEST SWAP4 PUSH2 0x3A87 PUSH2 0x2A2 JUMP JUMPDEST SWAP2 DUP3 SWAP2 DUP3 PUSH2 0x530 JUMP JUMPDEST SUB SWAP1 LOG3 JUMP JUMPDEST PUSH8 0xFFFFFFFFFFFFFFFF DUP2 GT PUSH2 0x3AB3 JUMPI PUSH2 0x3AAF PUSH1 0x20 SWAP2 PUSH2 0x39C JUMP JUMPDEST ADD SWAP1 JUMP JUMPDEST PUSH2 0x13E4 JUMP JUMPDEST SWAP1 PUSH2 0x3ACA PUSH2 0x3AC5 DUP4 PUSH2 0x3A95 JUMP JUMPDEST PUSH2 0x1B7F JUMP JUMPDEST SWAP2 DUP3 MSTORE JUMP JUMPDEST CALLDATASIZE SWAP1 CALLDATACOPY JUMP JUMPDEST SWAP1 PUSH2 0x3AF9 PUSH2 0x3AE1 DUP4 PUSH2 0x3AB8 JUMP JUMPDEST SWAP3 PUSH1 0x20 DUP1 PUSH2 0x3AEF DUP7 SWAP4 PUSH2 0x3A95 JUMP JUMPDEST SWAP3 ADD SWAP2 SUB SWAP1 PUSH2 0x3ACF JUMP JUMPDEST JUMP JUMPDEST PUSH2 0x3B03 PUSH2 0x12F6 JUMP JUMPDEST POP PUSH2 0x3B0D DUP2 PUSH2 0x4367 JUMP JUMPDEST SWAP1 PUSH2 0x3B20 PUSH2 0x3B1B PUSH1 0x20 PUSH2 0x3499 JUMP JUMPDEST PUSH2 0x3AD4 JUMP JUMPDEST SWAP2 DUP3 MSTORE PUSH1 0x20 DUP3 ADD MSTORE SWAP1 JUMP JUMPDEST SWAP1 JUMP JUMPDEST PUSH2 0x3B42 PUSH2 0x3B3D PUSH2 0x3B47 SWAP3 PUSH2 0x3B2B JUMP JUMPDEST PUSH2 0x7D1 JUMP JUMPDEST PUSH2 0x45E JUMP JUMPDEST SWAP1 JUMP JUMPDEST PUSH2 0x3B73 SWAP1 PUSH2 0x3B6D PUSH0 PUSH2 0x3B5C PUSH1 0x1 PUSH2 0x3B2E JUMP JUMPDEST SWAP3 ADD SWAP2 PUSH2 0x3B68 DUP4 PUSH2 0x14A4 JUMP JUMPDEST PUSH2 0x283E JUMP JUMPDEST SWAP1 PUSH2 0x246D JUMP JUMPDEST JUMP JUMPDEST PUSH1 0x42 SWAP2 PUSH2 0x3B80 PUSH2 0x15B8 JUMP JUMPDEST POP PUSH1 0x40 MLOAD SWAP2 PUSH32 0x1901000000000000000000000000000000000000000000000000000000000000 DUP4 MSTORE PUSH1 0x2 DUP4 ADD MSTORE PUSH1 0x22 DUP3 ADD MSTORE KECCAK256 SWAP1 JUMP JUMPDEST PUSH0 SWAP1 JUMP JUMPDEST SWAP1 JUMP JUMPDEST PUSH2 0x3BD1 PUSH2 0x3BCC PUSH2 0x3BD6 SWAP3 PUSH2 0x3BBA JUMP JUMPDEST PUSH2 0x7D1 JUMP JUMPDEST PUSH2 0x45E JUMP JUMPDEST SWAP1 JUMP JUMPDEST PUSH2 0x3C0E PUSH2 0x3C15 SWAP5 PUSH2 0x3C04 PUSH1 0x60 SWAP5 SWAP9 SWAP8 SWAP6 PUSH2 0x3BFA PUSH1 0x80 DUP7 ADD SWAP11 PUSH0 DUP8 ADD SWAP1 PUSH2 0x6B9 JUMP JUMPDEST PUSH1 0x20 DUP6 ADD SWAP1 PUSH2 0x777 JUMP JUMPDEST PUSH1 0x40 DUP4 ADD SWAP1 PUSH2 0x6B9 JUMP JUMPDEST ADD SWAP1 PUSH2 0x6B9 JUMP JUMPDEST JUMP JUMPDEST PUSH2 0x3C1F PUSH2 0x2A2 JUMP JUMPDEST RETURNDATASIZE PUSH0 DUP3 RETURNDATACOPY RETURNDATASIZE SWAP1 REVERT JUMPDEST SWAP3 SWAP2 SWAP1 PUSH2 0x3C32 PUSH2 0x1B67 JUMP JUMPDEST POP PUSH2 0x3C3B PUSH2 0x3BB6 JUMP JUMPDEST POP PUSH2 0x3C45 DUP4 PUSH2 0x3482 JUMP JUMPDEST PUSH2 0x3C77 PUSH2 0x3C71 PUSH32 0x7FFFFFFFFFFFFFFFFFFFFFFFFFFFFFFF5D576E7357A4501DDFE92F46681B20A0 PUSH2 0x3BBD JUMP JUMPDEST SWAP2 PUSH2 0x45E JUMP JUMPDEST GT PUSH2 0x3CE9 JUMPI PUSH2 0x3C97 PUSH0 SWAP4 PUSH1 0x20 SWAP6 SWAP3 SWAP4 PUSH2 0x3C8E PUSH2 0x2A2 JUMP JUMPDEST SWAP5 DUP6 SWAP5 DUP6 PUSH2 0x3BD9 JUMP JUMPDEST DUP4 DUP1 MSTORE SUB SWAP1 PUSH1 0x1 GAS STATICCALL ISZERO PUSH2 0x3CE4 JUMPI PUSH2 0x3CAF PUSH0 MLOAD PUSH2 0xE04 JUMP JUMPDEST DUP1 PUSH2 0x3CCA PUSH2 0x3CC4 PUSH2 0x3CBF PUSH0 PUSH2 0x22DC JUMP JUMPDEST PUSH2 0x42F JUMP JUMPDEST SWAP2 PUSH2 0x42F JUMP JUMPDEST EQ PUSH2 0x3CD4 JUMPI SWAP1 PUSH0 SWAP1 JUMP JUMPDEST POP PUSH2 0x3CDE PUSH0 PUSH2 0x22DC JUMP JUMPDEST SWAP1 PUSH1 0x1 SWAP1 JUMP JUMPDEST PUSH2 0x3C17 JUMP JUMPDEST POP POP POP POP PUSH2 0x3CF6 PUSH0 PUSH2 0x22DC JUMP JUMPDEST SWAP1 PUSH1 0x3 SWAP1 JUMP JUMPDEST PUSH4 0x4E487B71 PUSH1 0xE0 SHL PUSH0 MSTORE PUSH1 0x21 PUSH1 0x4 MSTORE PUSH1 0x24 PUSH0 REVERT JUMPDEST PUSH1 0x5 GT ISZERO PUSH2 0x3D1A JUMPI JUMP JUMPDEST PUSH2 0x3CFC JUMP JUMPDEST SWAP1 PUSH2 0x3D29 DUP3 PUSH2 0x3D10 JUMP JUMPDEST JUMP JUMPDEST PUSH1 0x20 PUSH32 0x7565000000000000000000000000000000000000000000000000000000000000 SWAP2 PUSH32 0x45434453413A20696E76616C6964207369676E6174757265202773272076616C PUSH0 DUP3 ADD MSTORE ADD MSTORE JUMP JUMPDEST PUSH2 0x3D85 PUSH1 0x22 PUSH1 0x40 SWAP3 PUSH2 0x370 JUMP JUMPDEST PUSH2 0x3D8E DUP2 PUSH2 0x3D2B JUMP JUMPDEST ADD SWAP1 JUMP JUMPDEST PUSH2 0x3DA7 SWAP1 PUSH1 0x20 DUP2 ADD SWAP1 PUSH0 DUP2 DUP4 SUB SWAP2 ADD MSTORE PUSH2 0x3D78 JUMP JUMPDEST SWAP1 JUMP JUMPDEST PUSH0 PUSH32 0x45434453413A20696E76616C6964207369676E6174757265206C656E67746800 SWAP2 ADD MSTORE JUMP JUMPDEST PUSH2 0x3DDE PUSH1 0x1F PUSH1 0x20 SWAP3 PUSH2 0x370 JUMP JUMPDEST PUSH2 0x3DE7 DUP2 PUSH2 0x3DAA JUMP JUMPDEST ADD SWAP1 JUMP JUMPDEST PUSH2 0x3E00 SWAP1 PUSH1 0x20 DUP2 ADD SWAP1 PUSH0 DUP2 DUP4 SUB SWAP2 ADD MSTORE PUSH2 0x3DD1 JUMP JUMPDEST SWAP1 JUMP JUMPDEST PUSH0 PUSH32 0x45434453413A20696E76616C6964207369676E61747572650000000000000000 SWAP2 ADD MSTORE JUMP JUMPDEST PUSH2 0x3E37 PUSH1 0x18 PUSH1 0x20 SWAP3 PUSH2 0x370 JUMP JUMPDEST PUSH2 0x3E40 DUP2 PUSH2 0x3E03 JUMP JUMPDEST ADD SWAP1 JUMP JUMPDEST PUSH2 0x3E59 SWAP1 PUSH1 0x20 DUP2 ADD SWAP1 PUSH0 DUP2 DUP4 SUB SWAP2 ADD MSTORE PUSH2 0x3E2A JUMP JUMPDEST SWAP1 JUMP JUMPDEST DUP1 PUSH2 0x3E6F PUSH2 0x3E69 PUSH0 PUSH2 0x3D1F JUMP JUMPDEST SWAP2 PUSH2 0x3D1F JUMP JUMPDEST EQ PUSH0 EQ PUSH2 0x3E79 JUMPI POP JUMP JUMPDEST DUP1 PUSH2 0x3E8D PUSH2 0x3E87 PUSH1 0x1 PUSH2 0x3D1F JUMP JUMPDEST SWAP2 PUSH2 0x3D1F JUMP JUMPDEST EQ PUSH0 EQ PUSH2 0x3EB6 JUMPI PUSH2 0x3E9C PUSH2 0x2A2 JUMP JUMPDEST PUSH3 0x461BCD PUSH1 0xE5 SHL DUP2 MSTORE DUP1 PUSH2 0x3EB2 PUSH1 0x4 DUP3 ADD PUSH2 0x3E44 JUMP JUMPDEST SUB SWAP1 REVERT JUMPDEST DUP1 PUSH2 0x3ECA PUSH2 0x3EC4 PUSH1 0x2 PUSH2 0x3D1F JUMP JUMPDEST SWAP2 PUSH2 0x3D1F JUMP JUMPDEST EQ PUSH0 EQ PUSH2 0x3EF3 JUMPI PUSH2 0x3ED9 PUSH2 0x2A2 JUMP JUMPDEST PUSH3 0x461BCD PUSH1 0xE5 SHL DUP2 MSTORE DUP1 PUSH2 0x3EEF PUSH1 0x4 DUP3 ADD PUSH2 0x3DEB JUMP JUMPDEST SUB SWAP1 REVERT JUMPDEST PUSH2 0x3F06 PUSH2 0x3F00 PUSH1 0x3 PUSH2 0x3D1F JUMP JUMPDEST SWAP2 PUSH2 0x3D1F JUMP JUMPDEST EQ PUSH2 0x3F0D JUMPI JUMP JUMPDEST PUSH2 0x3F15 PUSH2 0x2A2 JUMP JUMPDEST PUSH3 0x461BCD PUSH1 0xE5 SHL DUP2 MSTORE DUP1 PUSH2 0x3F2B PUSH1 0x4 DUP3 ADD PUSH2 0x3D92 JUMP JUMPDEST SUB SWAP1 REVERT JUMPDEST PUSH2 0x3F38 SWAP1 PUSH2 0x1151 JUMP JUMPDEST SWAP1 JUMP JUMPDEST PUSH2 0x3F4F PUSH2 0x3F4A PUSH2 0x3F54 SWAP3 PUSH2 0x424 JUMP JUMPDEST PUSH2 0x7D1 JUMP JUMPDEST PUSH2 0x45E JUMP JUMPDEST SWAP1 JUMP JUMPDEST SWAP1 JUMP JUMPDEST PUSH2 0x3F6E PUSH2 0x3F69 PUSH2 0x3F73 SWAP3 PUSH2 0x3F57 JUMP JUMPDEST PUSH2 0x7D1 JUMP JUMPDEST PUSH2 0x771 JUMP JUMPDEST SWAP1 JUMP JUMPDEST PUSH2 0x3F80 PUSH1 0x14 PUSH2 0x3F5A JUMP JUMPDEST SWAP1 JUMP JUMPDEST PUSH2 0x3F97 PUSH2 0x3F92 PUSH2 0x3F9C SWAP3 PUSH2 0x771 JUMP JUMPDEST PUSH2 0x7D1 JUMP JUMPDEST PUSH2 0x45E JUMP JUMPDEST SWAP1 JUMP JUMPDEST PUSH2 0x3FBC PUSH2 0x3FB7 PUSH2 0x3FD2 SWAP3 PUSH2 0x3FB1 PUSH2 0x12F6 JUMP JUMPDEST POP PUSH2 0x3F2F JUMP JUMPDEST PUSH2 0x3F3B JUMP JUMPDEST PUSH2 0x3FCC PUSH2 0x3FC7 PUSH2 0x3F76 JUMP JUMPDEST PUSH2 0x3F83 JUMP JUMPDEST SWAP1 PUSH2 0x41E5 JUMP JUMPDEST SWAP1 JUMP JUMPDEST SWAP1 JUMP JUMPDEST PUSH2 0x3FEC PUSH2 0x3FE7 PUSH2 0x3FF1 SWAP3 PUSH2 0x3FD5 JUMP JUMPDEST PUSH2 0x7D1 JUMP JUMPDEST PUSH2 0x45E JUMP JUMPDEST SWAP1 JUMP JUMPDEST PUSH2 0x4003 PUSH2 0x4009 SWAP2 SWAP4 SWAP3 SWAP4 PUSH2 0x45E JUMP JUMPDEST SWAP3 PUSH2 0x45E JUMP JUMPDEST SWAP2 PUSH2 0x4015 DUP4 DUP3 MUL PUSH2 0x45E JUMP JUMPDEST SWAP3 DUP2 DUP5 DIV EQ SWAP1 ISZERO OR ISZERO PUSH2 0x4024 JUMPI JUMP JUMPDEST PUSH2 0x177D JUMP JUMPDEST PUSH8 0xFFFFFFFFFFFFFFFF DUP2 GT PUSH2 0x4047 JUMPI PUSH2 0x4043 PUSH1 0x20 SWAP2 PUSH2 0x39C JUMP JUMPDEST ADD SWAP1 JUMP JUMPDEST PUSH2 0x13E4 JUMP JUMPDEST SWAP1 PUSH2 0x405E PUSH2 0x4059 DUP4 PUSH2 0x4029 JUMP JUMPDEST PUSH2 0x1B7F JUMP JUMPDEST SWAP2 DUP3 MSTORE JUMP JUMPDEST SWAP1 PUSH2 0x4088 PUSH2 0x4070 DUP4 PUSH2 0x404C JUMP JUMPDEST SWAP3 PUSH1 0x20 DUP1 PUSH2 0x407E DUP7 SWAP4 PUSH2 0x4029 JUMP JUMPDEST SWAP3 ADD SWAP2 SUB SWAP1 PUSH2 0x3ACF JUMP JUMPDEST JUMP JUMPDEST PUSH1 0x3 PUSH1 0xFC SHL SWAP1 JUMP JUMPDEST SWAP1 PUSH2 0x409C DUP3 PUSH2 0x20B9 JUMP JUMPDEST DUP2 LT ISZERO PUSH2 0x40AE JUMPI PUSH1 0x1 PUSH1 0x20 SWAP2 MUL ADD ADD SWAP1 JUMP JUMPDEST PUSH2 0x1994 JUMP JUMPDEST PUSH1 0xF PUSH1 0xFB SHL SWAP1 JUMP JUMPDEST PUSH2 0x40C4 SWAP1 PUSH2 0x45E JUMP JUMPDEST PUSH0 DUP2 EQ PUSH2 0x40D2 JUMPI PUSH1 0x1 SWAP1 SUB SWAP1 JUMP JUMPDEST PUSH2 0x177D JUMP JUMPDEST PUSH16 0x181899199A1A9B1B9C1CB0B131B232B3 PUSH1 0x81 SHL SWAP1 JUMP JUMPDEST PUSH2 0x40F6 PUSH2 0x40D7 JUMP JUMPDEST SWAP1 JUMP JUMPDEST SWAP1 JUMP JUMPDEST PUSH2 0x4110 PUSH2 0x410B PUSH2 0x4115 SWAP3 PUSH2 0x40F9 JUMP JUMPDEST PUSH2 0x7D1 JUMP JUMPDEST PUSH2 0x45E JUMP JUMPDEST SWAP1 JUMP JUMPDEST PUSH1 0xF8 SHL SWAP1 JUMP JUMPDEST SWAP1 JUMP JUMPDEST PUSH2 0x4135 PUSH2 0x4130 PUSH2 0x413A SWAP3 PUSH2 0x411E JUMP JUMPDEST PUSH2 0x7D1 JUMP JUMPDEST PUSH2 0x771 JUMP JUMPDEST SWAP1 JUMP JUMPDEST PUSH2 0x415C SWAP1 PUSH2 0x4156 PUSH2 0x4150 PUSH2 0x4161 SWAP5 PUSH2 0x771 JUMP JUMPDEST SWAP2 PUSH2 0x45E JUMP JUMPDEST SWAP1 PUSH2 0x4E7 JUMP JUMPDEST PUSH2 0x45E JUMP JUMPDEST SWAP1 JUMP JUMPDEST PUSH0 PUSH32 0x537472696E67733A20686578206C656E67746820696E73756666696369656E74 SWAP2 ADD MSTORE JUMP JUMPDEST PUSH2 0x4197 PUSH1 0x20 DUP1 SWAP3 PUSH2 0x370 JUMP JUMPDEST PUSH2 0x41A0 DUP2 PUSH2 0x4164 JUMP JUMPDEST ADD SWAP1 JUMP JUMPDEST PUSH2 0x41B9 SWAP1 PUSH1 0x20 DUP2 ADD SWAP1 PUSH0 DUP2 DUP4 SUB SWAP2 ADD MSTORE PUSH2 0x418B JUMP JUMPDEST SWAP1 JUMP JUMPDEST ISZERO PUSH2 0x41C3 JUMPI JUMP JUMPDEST PUSH2 0x41CB PUSH2 0x2A2 JUMP JUMPDEST PUSH3 0x461BCD PUSH1 0xE5 SHL DUP2 MSTORE DUP1 PUSH2 0x41E1 PUSH1 0x4 DUP3 ADD PUSH2 0x41A4 JUMP JUMPDEST SUB SWAP1 REVERT JUMPDEST SWAP2 SWAP1 PUSH2 0x41EF PUSH2 0x12F6 JUMP JUMPDEST POP PUSH2 0x4286 PUSH2 0x4276 PUSH2 0x4225 PUSH2 0x4220 PUSH2 0x4210 PUSH1 0x2 PUSH2 0x420B DUP8 SWAP2 PUSH2 0x3FD8 JUMP JUMPDEST PUSH2 0x3FF4 JUMP JUMPDEST PUSH2 0x421A PUSH1 0x2 PUSH2 0x3FD8 JUMP JUMPDEST SWAP1 PUSH2 0x1791 JUMP JUMPDEST PUSH2 0x4063 JUMP JUMPDEST SWAP3 PUSH2 0x422E PUSH2 0x408A JUMP JUMPDEST PUSH2 0x4245 DUP6 PUSH2 0x423F PUSH0 SWAP4 PUSH0 BYTE SWAP4 PUSH2 0x1969 JUMP JUMPDEST SWAP1 PUSH2 0x4092 JUMP JUMPDEST MSTORE8 PUSH2 0x424E PUSH2 0x40B3 JUMP JUMPDEST PUSH2 0x4266 DUP6 PUSH2 0x4260 PUSH1 0x1 SWAP4 PUSH0 BYTE SWAP4 PUSH2 0x3B2E JUMP JUMPDEST SWAP1 PUSH2 0x4092 JUMP JUMPDEST MSTORE8 PUSH2 0x4271 PUSH1 0x2 PUSH2 0x3FD8 JUMP JUMPDEST PUSH2 0x3FF4 JUMP JUMPDEST PUSH2 0x4280 PUSH1 0x1 PUSH2 0x3B2E JUMP JUMPDEST SWAP1 PUSH2 0x1791 JUMP JUMPDEST SWAP3 JUMPDEST DUP4 PUSH2 0x429C PUSH2 0x4296 PUSH1 0x1 PUSH2 0x3B2E JUMP JUMPDEST SWAP2 PUSH2 0x45E JUMP JUMPDEST GT ISZERO PUSH2 0x4302 JUMPI PUSH2 0x42AA PUSH2 0x40EE JUMP JUMPDEST DUP2 PUSH2 0x42B5 PUSH1 0xF PUSH2 0x40FC JUMP JUMPDEST AND SWAP2 PUSH1 0x10 DUP4 LT ISZERO PUSH2 0x42FD JUMPI PUSH2 0x42D1 PUSH2 0x42F1 SWAP3 PUSH2 0x42F7 SWAP5 BYTE PUSH2 0x4118 JUMP JUMPDEST PUSH2 0x42E0 DUP6 SWAP2 DUP9 SWAP1 PUSH0 BYTE SWAP3 PUSH2 0x4092 JUMP JUMPDEST MSTORE8 PUSH2 0x42EB PUSH1 0x4 PUSH2 0x4121 JUMP JUMPDEST SWAP1 PUSH2 0x413D JUMP JUMPDEST SWAP4 PUSH2 0x40BB JUMP JUMPDEST SWAP3 PUSH2 0x4288 JUMP JUMPDEST PUSH2 0x1994 JUMP JUMPDEST PUSH2 0x4329 SWAP3 SWAP4 POP PUSH2 0x4324 SWAP1 PUSH2 0x431E PUSH2 0x4318 PUSH0 PUSH2 0x1969 JUMP JUMPDEST SWAP2 PUSH2 0x45E JUMP JUMPDEST EQ PUSH2 0x41BC JUMP JUMPDEST PUSH2 0x358B JUMP JUMPDEST SWAP1 JUMP JUMPDEST PUSH2 0x4340 PUSH2 0x433B PUSH2 0x4345 SWAP3 PUSH2 0x32C4 JUMP JUMPDEST PUSH2 0x7D1 JUMP JUMPDEST PUSH2 0x45E JUMP JUMPDEST SWAP1 JUMP JUMPDEST SWAP1 JUMP JUMPDEST PUSH2 0x435F PUSH2 0x435A PUSH2 0x4364 SWAP3 PUSH2 0x4348 JUMP JUMPDEST PUSH2 0x7D1 JUMP JUMPDEST PUSH2 0x45E JUMP JUMPDEST SWAP1 JUMP JUMPDEST PUSH2 0x437C PUSH2 0x4381 SWAP2 PUSH2 0x4376 PUSH2 0x1487 JUMP JUMPDEST POP PUSH2 0x15BC JUMP JUMPDEST PUSH2 0x3482 JUMP JUMPDEST PUSH2 0x438B PUSH1 0xFF PUSH2 0x432C JUMP JUMPDEST AND DUP1 PUSH2 0x43A0 PUSH2 0x439A PUSH1 0x1F PUSH2 0x434B JUMP JUMPDEST SWAP2 PUSH2 0x45E JUMP JUMPDEST GT PUSH2 0x43A8 JUMPI SWAP1 JUMP JUMPDEST PUSH2 0x43B0 PUSH2 0x2A2 JUMP JUMPDEST PUSH4 0x2CD44AC3 PUSH1 0xE2 SHL DUP2 MSTORE DUP1 PUSH2 0x43C7 PUSH1 0x4 DUP3 ADD PUSH2 0x5CD JUMP JUMPDEST SUB SWAP1 REVERT INVALID LOG2 PUSH5 0x6970667358 0x22 SLT KECCAK256 PUSH12 0xCFE651773FA9EC120679506 0xE7 PUSH9 0x6B8F0F3689FD788C5A EXTCODESIZE PC 0xBB MSTORE8 PUSH10 0x2355364736F6C634300 ADDMOD XOR STOP CALLER "},"methodIdentifiers":{"DAILY_MINT_CAP()":"848465e3","DEFAULT_ADMIN_ROLE()":"a217fddf","DOMAIN_SEPARATOR()":"3644e515","MAX_SUPPLY()":"32cb6b0c","MINTER_ROLE()":"d5391393","PAUSER_ROLE()":"e63ab1e9","allowance(address,address)":"dd62ed3e","approve(address,uint256)":"095ea7b3","balanceOf(address)":"70a08231","batchMint(address[],uint256[])":"68573107","blockAddress(address)":"ad2bb1b3","blocked(address)":"e5962195","burn(uint256)":"42966c68","burnFrom(address,uint256)":"79cc6790","dailyMinted()":"0d5c4430","decimals()":"313ce567","decreaseAllowance(address,uint256)":"a457c2d7","eip712Domain()":"84b0196e","getRoleAdmin(bytes32)":"248a9ca3","grantRole(bytes32,address)":"2f2ff15d","hasRole(bytes32,address)":"91d14854","increaseAllowance(address,uint256)":"39509351","lastMintDay()":"e27cafb9","mint(address,uint256)":"40c10f19","name()":"06fdde03","nonces(address)":"7ecebe00","pause()":"8456cb59","paused()":"5c975abb","permit(address,address,uint256,uint256,uint8,bytes32,bytes32)":"d505accf","remainingDailyMintCapacity()":"b222b59d","remainingSupplyCapacity()":"f3dc3838","renounceRole(bytes32,address)":"36568abe","revokeRole(bytes32,address)":"d547741f","supportsInterface(bytes4)":"01ffc9a7","symbol()":"95d89b41","totalSupply()":"18160ddd","transfer(address,uint256)":"a9059cbb","transferFrom(address,address,uint256)":"23b872dd","unblockAddress(address)":"186d9d88","unpause()":"3f4ba83a"}}}}}