{"project/contracts/Staking.sol":{"Staking":{"abi":[{"inputs":[{"internalType":"address","name":"_stakingToken","type":"address"},{"internalType":"address","name":"_gameLogic","type":"address"}],"stateMutability":"nonpayable","type":"constructor"},{"anonymous":false,"inputs":[{"indexed":true,"internalType":"address","name":"previousOwner","type":"address"},{"indexed":true,"internalType":"address","name":"newOwner","type":"address"}],"name":"OwnershipTransferred","type":"event"},{"anonymous":false,"inputs":[{"indexed":false,"internalType":"uint256","name":"newRate","type":"uint256"}],"name":"RewardRateUpdated","type":"event"},{"anonymous":false,"inputs":[{"indexed":true,"internalType":"address","name":"user","type":"address"},{"indexed":false,"internalType":"uint256","name":"xp","type":"uint256"}],"name":"RewardsClaimed","type":"event"},{"anonymous":false,"inputs":[{"indexed":true,"internalType":"address","name":"user","type":"address"},{"indexed":false,"internalType":"uint256","name":"amount","type":"uint256"}],"name":"Staked","type":"event"},{"anonymous":false,"inputs":[{"indexed":true,"internalType":"address","name":"user","type":"address"},{"indexed":false,"internalType":"uint256","name":"amount","type":"uint256"}],"name":"Withdrawn","type":"event"},{"inputs":[],"name":"claimRewards","outputs":[],"stateMutability":"nonpayable","type":"function"},{"inputs":[{"internalType":"address","name":"user","type":"address"}],"name":"earned","outputs":[{"internalType":"uint256","name":"","type":"uint256"}],"stateMutability":"view","type":"function"},{"inputs":[],"name":"gameLogic","outputs":[{"internalType":"address","name":"","type":"address"}],"stateMutability":"view","type":"function"},{"inputs":[],"name":"owner","outputs":[{"internalType":"address","name":"","type":"address"}],"stateMutability":"view","type":"function"},{"inputs":[],"name":"renounceOwnership","outputs":[],"stateMutability":"nonpayable","type":"function"},{"inputs":[],"name":"rewardRate","outputs":[{"internalType":"uint256","name":"","type":"uint256"}],"stateMutability":"view","type":"function"},{"inputs":[{"internalType":"uint256","name":"_rate","type":"uint256"}],"name":"setRewardRate","outputs":[],"stateMutability":"nonpayable","type":"function"},{"inputs":[{"internalType":"uint256","name":"amount","type":"uint256"}],"name":"stake","outputs":[],"stateMutability":"nonpayable","type":"function"},{"inputs":[{"internalType":"address","name":"","type":"address"}],"name":"stakes","outputs":[{"internalType":"uint256","name":"amount","type":"uint256"},{"internalType":"uint256","name":"rewardDebt","type":"uint256"},{"internalType":"uint256","name":"lastUpdate","type":"uint256"}],"stateMutability":"view","type":"function"},{"inputs":[],"name":"stakingToken","outputs":[{"internalType":"contract IERC20","name":"","type":"address"}],"stateMutability":"view","type":"function"},{"inputs":[{"internalType":"address","name":"newOwner","type":"address"}],"name":"transferOwnership","outputs":[],"stateMutability":"nonpayable","type":"function"},{"inputs":[{"internalType":"uint256","name":"amount","type":"uint256"}],"name":"withdraw","outputs":[],"stateMutability":"nonpayable","type":"function"}],"evm":{"bytecode":{"linkReferences":{},"object":"60c0604052346200005f576200001f6200001862000149565b9062000307565b6200002962000065565b6112cb620004b6823960805181818161041e01528181610ae30152610f22015260a0518181816101b20152610cd801526112cb90f35b6200006b565b60405190565b5f80fd5b601f801991011690565b634e487b7160e01b5f52604160045260245ffd5b9062000099906200006f565b810190811060018060401b03821117620000b257604052565b62000079565b90620000cf620000c762000065565b92836200008d565b565b5f80fd5b60018060a01b031690565b620000eb90620000d5565b90565b620000f981620000e0565b036200010157565b5f80fd5b905051906200011482620000ee565b565b91906040838203126200014357806200013662000140925f860162000105565b9360200162000105565b90565b620000d1565b6200016c62001781803803806200016081620000b8565b92833981019062000116565b9091565b90565b90565b6200018f62000189620001959262000170565b62000173565b620000d5565b90565b620001a39062000176565b90565b60209181520190565b5f7f5374616b696e6720746f6b656e207a65726f0000000000000000000000000000910152565b620001e56012602092620001a6565b620001f081620001af565b0190565b6200020b9060208101905f818303910152620001d6565b90565b156200021657565b6200022062000065565b62461bcd60e51b8152806200023860048201620001f4565b0390fd5b5f7f47616d654c6f676963207a65726f000000000000000000000000000000000000910152565b62000272600e602092620001a6565b6200027d816200023c565b0190565b620002989060208101905f81830391015262000263565b90565b15620002a357565b620002ad62000065565b62461bcd60e51b815280620002c56004820162000281565b0390fd5b620002e2620002dc620002e892620000d5565b62000173565b620000d5565b90565b620002f690620002c9565b90565b6200030490620002eb565b90565b6200037690620003166200037e565b62000343816200033b620003346200032e5f62000198565b620000e0565b91620000e0565b14156200020e565b620003708362000368620003616200035b5f62000198565b620000e0565b91620000e0565b14156200029b565b620002f9565b60805260a052565b620003926200038c62000398565b6200044a565b565b5f90565b620003a262000394565b503390565b5f1c90565b60018060a01b031690565b620003c6620003cc91620003a7565b620003ac565b90565b620003db9054620003b7565b90565b5f1b90565b90620003f660018060a01b0391620003de565b9181191691161790565b6200040b90620002c9565b90565b620004199062000400565b90565b90565b90620004396200043362000441926200040e565b6200041c565b8254620003e3565b9055565b5f0190565b620004555f620003cf565b62000461825f6200041f565b9062000499620004927f8be0079c531659141344cd1fd0a4f28419497f9722a3daafe3b4186f6b6457e0936200040e565b916200040e565b91620004a462000065565b80620004b08162000445565b0390a356fe60806040526004361015610013575b6105df565b61001d5f356100db565b80628cc262146100d6578063134087a2146100d157806316934fc4146100cc5780632e1a7d4d146100c7578063372500ab146100c2578063715018a6146100bd57806372f702f3146100b85780637b0a47ee146100b35780638da5cb5b146100ae5780639e447fc6146100a9578063a694fc3a146100a45763f2fde38b0361000e576105ac565b610579565b610546565b610511565b6104dc565b61046e565b6103e9565b6103b6565b610383565b610305565b6101f6565b61016c565b60e01c90565b60405190565b5f80fd5b5f80fd5b60018060a01b031690565b610103906100ef565b90565b61010f816100fa565b0361011657565b5f80fd5b9050359061012782610106565b565b906020828203126101425761013f915f0161011a565b90565b6100eb565b90565b61015390610147565b9052565b919061016a905f6020850194019061014a565b565b3461019c57610198610187610182366004610129565b6107b0565b61018f6100e1565b91829182610157565b0390f35b6100e7565b5f9103126101ab57565b6100eb565b7f000000000000000000000000000000000000000000000000000000000000000090565b6101dd906100fa565b9052565b91906101f4905f602085019401906101d4565b565b34610226576102063660046101a1565b6102226102116101b0565b6102196100e1565b918291826101e1565b0390f35b6100e7565b90565b61024261023d610247926100ef565b61022b565b6100ef565b90565b6102539061022e565b90565b61025f9061024a565b90565b9061026c90610256565b5f5260205260405f2090565b5f1c90565b90565b61028c61029191610278565b61027d565b90565b61029e9054610280565b90565b6102ac906002610262565b6102b75f8201610294565b916102d060026102c960018501610294565b9301610294565b90565b6040906102fc61030394969593966102f260608401985f85019061014a565b602083019061014a565b019061014a565b565b346103385761033461032061031b366004610129565b6102a1565b61032b9391936100e1565b938493846102d3565b0390f35b6100e7565b61034681610147565b0361034d57565b5f80fd5b9050359061035e8261033d565b565b9060208282031261037957610376915f01610351565b90565b6100eb565b5f0190565b346103b15761039b610396366004610360565b610a46565b6103a36100e1565b806103ad8161037e565b0390f35b6100e7565b346103e4576103c63660046101a1565b6103ce610c74565b6103d66100e1565b806103e08161037e565b0390f35b6100e7565b34610417576103f93660046101a1565b610401610e10565b6104096100e1565b806104138161037e565b0390f35b6100e7565b7f000000000000000000000000000000000000000000000000000000000000000090565b6104499061024a565b90565b61045590610440565b9052565b919061046c905f6020850194019061044c565b565b3461049e5761047e3660046101a1565b61049a61048961041c565b6104916100e1565b91829182610459565b0390f35b6100e7565b1c90565b6104b79060086104bc93026104a3565b61027d565b90565b906104ca91546104a7565b90565b6104d960015f906104bf565b90565b3461050c576104ec3660046101a1565b6105086104f76104cd565b6104ff6100e1565b91829182610157565b0390f35b6100e7565b34610541576105213660046101a1565b61053d61052c610e4a565b6105346100e1565b918291826101e1565b0390f35b6100e7565b346105745761055e610559366004610360565b610eb8565b6105666100e1565b806105708161037e565b0390f35b6100e7565b346105a75761059161058c366004610360565b610f01565b6105996100e1565b806105a38161037e565b0390f35b6100e7565b346105da576105c46105bf366004610129565b611133565b6105cc6100e1565b806105d68161037e565b0390f35b6100e7565b5f80fd5b5f90565b906105f190610147565b9052565b601f801991011690565b634e487b7160e01b5f52604160045260245ffd5b9061061d906105f5565b810190811067ffffffffffffffff82111761063757604052565b6105ff565b9061064f6106486100e1565b9283610613565b565b61065b606061063c565b90565b906106ad6106a4600261066f610651565b9461068661067e5f8301610294565b5f88016105e7565b61069e61069560018301610294565b602088016105e7565b01610294565b604084016105e7565b565b6106b89061065e565b90565b6106c59051610147565b90565b634e487b7160e01b5f52601160045260245ffd5b6106eb6106f191939293610147565b92610147565b916106fd838202610147565b92818404149015171561070c57565b6106c8565b61072061072691939293610147565b92610147565b820391821161073157565b6106c8565b90565b61074d61074861075292610736565b61022b565b610147565b90565b634e487b7160e01b5f52601260045260245ffd5b61077561077b91610147565b91610147565b908115610786570490565b610755565b61079a6107a091939293610147565b92610147565b82018092116107ab57565b6106c8565b6107cf6107ca61083a926107c26105e3565b506002610262565b6106af565b61083461081d6107e1602084016106bb565b926108176108036107f35f84016106bb565b6107fd6001610294565b906106dc565b9161081160404292016106bb565b90610711565b906106dc565b61082e670de0b6b3a7640000610739565b90610769565b9061078b565b90565b90565b61085461084f6108599261083d565b61022b565b610147565b90565b60209181520190565b5f7f416d6f756e74207a65726f000000000000000000000000000000000000000000910152565b610899600b60209261085c565b6108a281610865565b0190565b6108bb9060208101905f81830391015261088c565b90565b156108c557565b6108cd6100e1565b62461bcd60e51b8152806108e3600482016108a6565b0390fd5b5f7f496e73756666696369656e74207374616b650000000000000000000000000000910152565b61091b601260209261085c565b610924816108e7565b0190565b61093d9060208101905f81830391015261090e565b90565b1561094757565b61094f6100e1565b62461bcd60e51b81528061096560048201610928565b0390fd5b5f1b90565b9061097a5f1991610969565b9181191691161790565b61099861099361099d92610147565b61022b565b610147565b90565b90565b906109b86109b36109bf92610984565b6109a0565b825461096e565b9055565b5f80fd5b60e01b90565b151590565b6109db816109cd565b036109e257565b5f80fd5b905051906109f3826109d2565b565b90602082820312610a0e57610a0b915f016109e6565b90565b6100eb565b916020610a34929493610a2d60408201965f8301906101d4565b019061014a565b565b610a3e6100e1565b3d5f823e3d90fd5b610a6281610a5c610a565f610840565b91610147565b116108be565b610a94610a7b5f610a7560023390610262565b01610294565b610a8d610a8784610147565b91610147565b1015610940565b610abe81610ab85f610aa860023390610262565b0191610ab383610294565b610711565b906109a3565b610ade610aca5f610840565b6001610ad860023390610262565b016109a3565b610b077f0000000000000000000000000000000000000000000000000000000000000000610440565b602063a9059cbb913390610b2e5f8695610b39610b226100e1565b978896879586946109c7565b845260048401610a13565b03925af18015610bba57610b8e575b5033610b89610b777f7084f5476618d8e60b11ef0d7d3f06914655adb8793e28ff7f018d4c76d505d592610256565b92610b806100e1565b91829182610157565b0390a2565b610bae9060203d8111610bb3575b610ba68183610613565b8101906109f5565b610b48565b503d610b9c565b610a36565b5f7f4e6f207265776172647300000000000000000000000000000000000000000000910152565b610bf3600a60209261085c565b610bfc81610bbf565b0190565b610c159060208101905f818303910152610be6565b90565b15610c1f57565b610c276100e1565b62461bcd60e51b815280610c3d60048201610c00565b0390fd5b610c4a9061022e565b90565b610c5690610c41565b90565b610c629061024a565b90565b5f910312610c6f57565b6100eb565b610c7d336107b0565b610c9981610c93610c8d5f610840565b91610147565b11610c18565b610cb9610ca55f610840565b6001610cb360023390610262565b016109a3565b610cd0426002610cca813390610262565b016109a3565b610d01610cfc7f0000000000000000000000000000000000000000000000000000000000000000610c4d565b610c59565b630551e88d338392803b15610dbe57610d2d5f8094610d38610d216100e1565b978896879586946109c7565b845260048401610a13565b03925af18015610db957610d8d575b5033610d88610d767ffc30cddea38e2bf4d6ea7d3f9ed3b6ad7f176419f4963bd81318067a4aee73fe92610256565b92610d7f6100e1565b91829182610157565b0390a2565b610dac905f3d8111610db2575b610da48183610613565b810190610c65565b5f610d47565b503d610d9a565b610a36565b6109c3565b610dcb6111bf565b610dd3610dfd565b565b610de9610de4610dee9261083d565b61022b565b6100ef565b90565b610dfa90610dd5565b90565b610e0e610e095f610df1565b611229565b565b610e18610dc3565b565b5f90565b60018060a01b031690565b610e35610e3a91610278565b610e1e565b90565b610e479054610e29565b90565b610e52610e1a565b50610e5c5f610e3d565b90565b610e7090610e6b6111bf565b610e72565b565b610e7d8160016109a3565b610eb37f41d466ebd06fb97e7786086ac8b69b7eb7da798592036251291d34e9791cde0191610eaa6100e1565b91829182610157565b0390a1565b610ec190610e5f565b565b610ecc9061024a565b90565b604090610ef8610eff9496959396610eee60608401985f8501906101d4565b60208301906101d4565b019061014a565b565b610f1d81610f17610f115f610840565b91610147565b116108be565b610f467f0000000000000000000000000000000000000000000000000000000000000000610440565b60206323b872dd913390610f765f610f5d30610ec3565b95610f8188610f6a6100e1565b988997889687956109c7565b855260048501610ecf565b03925af1801561104357611017575b50610fbb81610fb55f610fa560023390610262565b0191610fb083610294565b61078b565b906109a3565b610fd2426002610fcc813390610262565b016109a3565b336110126110007f9e71bc8eea02a63969f509818f2dafb9254532904319f9dbda79b67bd34a5f3d92610256565b926110096100e1565b91829182610157565b0390a2565b6110379060203d811161103c575b61102f8183610613565b8101906109f5565b610f90565b503d611025565b610a36565b611059906110546111bf565b611103565b565b60207f6464726573730000000000000000000000000000000000000000000000000000917f4f776e61626c653a206e6577206f776e657220697320746865207a65726f20615f8201520152565b6110b5602660409261085c565b6110be8161105b565b0190565b6110d79060208101905f8183039101526110a8565b90565b156110e157565b6110e96100e1565b62461bcd60e51b8152806110ff600482016110c2565b0390fd5b6111319061112c8161112561111f61111a5f610df1565b6100fa565b916100fa565b14156110da565b611229565b565b61113c90611048565b565b5f7f4f776e61626c653a2063616c6c6572206973206e6f7420746865206f776e6572910152565b6111716020809261085c565b61117a8161113e565b0190565b6111939060208101905f818303910152611165565b90565b1561119d57565b6111a56100e1565b62461bcd60e51b8152806111bb6004820161117e565b0390fd5b6111e96111ca610e4a565b6111e36111dd6111d8611288565b6100fa565b916100fa565b14611196565b565b906111fc60018060a01b0391610969565b9181191691161790565b90565b9061121e61121961122592610256565b611206565b82546111eb565b9055565b6112325f610e3d565b61123c825f611209565b9061127061126a7f8be0079c531659141344cd1fd0a4f28419497f9722a3daafe3b4186f6b6457e093610256565b91610256565b916112796100e1565b806112838161037e565b0390a3565b611290610e1a565b50339056fea26469706673582212209323abac2e9175a060a20f8fd1fb11928833b8bbf3510c442cc204ec188f852664736f6c63430008180033","opcodes":"PUSH1 0xC0 PUSH1 0x40 MSTORE CALLVALUE PUSH3 0x5F JUMPI PUSH3 0x1F PUSH3 0x18 PUSH3 0x149 JUMP JUMPDEST SWAP1 PUSH3 0x307 JUMP JUMPDEST PUSH3 0x29 PUSH3 0x65 JUMP JUMPDEST PUSH2 0x12CB PUSH3 0x4B6 DUP3 CODECOPY PUSH1 0x80 MLOAD DUP2 DUP2 DUP2 PUSH2 0x41E ADD MSTORE DUP2 DUP2 PUSH2 0xAE3 ADD MSTORE PUSH2 0xF22 ADD MSTORE PUSH1 0xA0 MLOAD DUP2 DUP2 DUP2 PUSH2 0x1B2 ADD MSTORE PUSH2 0xCD8 ADD MSTORE PUSH2 0x12CB SWAP1 RETURN JUMPDEST PUSH3 0x6B JUMP JUMPDEST PUSH1 0x40 MLOAD SWAP1 JUMP JUMPDEST PUSH0 DUP1 REVERT JUMPDEST PUSH1 0x1F DUP1 NOT SWAP2 ADD AND SWAP1 JUMP JUMPDEST PUSH4 0x4E487B71 PUSH1 0xE0 SHL PUSH0 MSTORE PUSH1 0x41 PUSH1 0x4 MSTORE PUSH1 0x24 PUSH0 REVERT JUMPDEST SWAP1 PUSH3 0x99 SWAP1 PUSH3 0x6F JUMP JUMPDEST DUP2 ADD SWAP1 DUP2 LT PUSH1 0x1 DUP1 PUSH1 0x40 SHL SUB DUP3 GT OR PUSH3 0xB2 JUMPI PUSH1 0x40 MSTORE JUMP JUMPDEST PUSH3 0x79 JUMP JUMPDEST SWAP1 PUSH3 0xCF PUSH3 0xC7 PUSH3 0x65 JUMP JUMPDEST SWAP3 DUP4 PUSH3 0x8D JUMP JUMPDEST JUMP JUMPDEST PUSH0 DUP1 REVERT JUMPDEST PUSH1 0x1 DUP1 PUSH1 0xA0 SHL SUB AND SWAP1 JUMP JUMPDEST PUSH3 0xEB SWAP1 PUSH3 0xD5 JUMP JUMPDEST SWAP1 JUMP JUMPDEST PUSH3 0xF9 DUP2 PUSH3 0xE0 JUMP JUMPDEST SUB PUSH3 0x101 JUMPI JUMP JUMPDEST PUSH0 DUP1 REVERT JUMPDEST SWAP1 POP MLOAD SWAP1 PUSH3 0x114 DUP3 PUSH3 0xEE JUMP JUMPDEST JUMP JUMPDEST SWAP2 SWAP1 PUSH1 0x40 DUP4 DUP3 SUB SLT PUSH3 0x143 JUMPI DUP1 PUSH3 0x136 PUSH3 0x140 SWAP3 PUSH0 DUP7 ADD PUSH3 0x105 JUMP JUMPDEST SWAP4 PUSH1 0x20 ADD PUSH3 0x105 JUMP JUMPDEST SWAP1 JUMP JUMPDEST PUSH3 0xD1 JUMP JUMPDEST PUSH3 0x16C PUSH3 0x1781 DUP1 CODESIZE SUB DUP1 PUSH3 0x160 DUP2 PUSH3 0xB8 JUMP JUMPDEST SWAP3 DUP4 CODECOPY DUP2 ADD SWAP1 PUSH3 0x116 JUMP JUMPDEST SWAP1 SWAP2 JUMP JUMPDEST SWAP1 JUMP JUMPDEST SWAP1 JUMP JUMPDEST PUSH3 0x18F PUSH3 0x189 PUSH3 0x195 SWAP3 PUSH3 0x170 JUMP JUMPDEST PUSH3 0x173 JUMP JUMPDEST PUSH3 0xD5 JUMP JUMPDEST SWAP1 JUMP JUMPDEST PUSH3 0x1A3 SWAP1 PUSH3 0x176 JUMP JUMPDEST SWAP1 JUMP JUMPDEST PUSH1 0x20 SWAP2 DUP2 MSTORE ADD SWAP1 JUMP JUMPDEST PUSH0 PUSH32 0x5374616B696E6720746F6B656E207A65726F0000000000000000000000000000 SWAP2 ADD MSTORE JUMP JUMPDEST PUSH3 0x1E5 PUSH1 0x12 PUSH1 0x20 SWAP3 PUSH3 0x1A6 JUMP JUMPDEST PUSH3 0x1F0 DUP2 PUSH3 0x1AF JUMP JUMPDEST ADD SWAP1 JUMP JUMPDEST PUSH3 0x20B SWAP1 PUSH1 0x20 DUP2 ADD SWAP1 PUSH0 DUP2 DUP4 SUB SWAP2 ADD MSTORE PUSH3 0x1D6 JUMP JUMPDEST SWAP1 JUMP JUMPDEST ISZERO PUSH3 0x216 JUMPI JUMP JUMPDEST PUSH3 0x220 PUSH3 0x65 JUMP JUMPDEST PUSH3 0x461BCD PUSH1 0xE5 SHL DUP2 MSTORE DUP1 PUSH3 0x238 PUSH1 0x4 DUP3 ADD PUSH3 0x1F4 JUMP JUMPDEST SUB SWAP1 REVERT JUMPDEST PUSH0 PUSH32 0x47616D654C6F676963207A65726F000000000000000000000000000000000000 SWAP2 ADD MSTORE JUMP JUMPDEST PUSH3 0x272 PUSH1 0xE PUSH1 0x20 SWAP3 PUSH3 0x1A6 JUMP JUMPDEST PUSH3 0x27D DUP2 PUSH3 0x23C JUMP JUMPDEST ADD SWAP1 JUMP JUMPDEST PUSH3 0x298 SWAP1 PUSH1 0x20 DUP2 ADD SWAP1 PUSH0 DUP2 DUP4 SUB SWAP2 ADD MSTORE PUSH3 0x263 JUMP JUMPDEST SWAP1 JUMP JUMPDEST ISZERO PUSH3 0x2A3 JUMPI JUMP JUMPDEST PUSH3 0x2AD PUSH3 0x65 JUMP JUMPDEST PUSH3 0x461BCD PUSH1 0xE5 SHL DUP2 MSTORE DUP1 PUSH3 0x2C5 PUSH1 0x4 DUP3 ADD PUSH3 0x281 JUMP JUMPDEST SUB SWAP1 REVERT JUMPDEST PUSH3 0x2E2 PUSH3 0x2DC PUSH3 0x2E8 SWAP3 PUSH3 0xD5 JUMP JUMPDEST PUSH3 0x173 JUMP JUMPDEST PUSH3 0xD5 JUMP JUMPDEST SWAP1 JUMP JUMPDEST PUSH3 0x2F6 SWAP1 PUSH3 0x2C9 JUMP JUMPDEST SWAP1 JUMP JUMPDEST PUSH3 0x304 SWAP1 PUSH3 0x2EB JUMP JUMPDEST SWAP1 JUMP JUMPDEST PUSH3 0x376 SWAP1 PUSH3 0x316 PUSH3 0x37E JUMP JUMPDEST PUSH3 0x343 DUP2 PUSH3 0x33B PUSH3 0x334 PUSH3 0x32E PUSH0 PUSH3 0x198 JUMP JUMPDEST PUSH3 0xE0 JUMP JUMPDEST SWAP2 PUSH3 0xE0 JUMP JUMPDEST EQ ISZERO PUSH3 0x20E JUMP JUMPDEST PUSH3 0x370 DUP4 PUSH3 0x368 PUSH3 0x361 PUSH3 0x35B PUSH0 PUSH3 0x198 JUMP JUMPDEST PUSH3 0xE0 JUMP JUMPDEST SWAP2 PUSH3 0xE0 JUMP JUMPDEST EQ ISZERO PUSH3 0x29B JUMP JUMPDEST PUSH3 0x2F9 JUMP JUMPDEST PUSH1 0x80 MSTORE PUSH1 0xA0 MSTORE JUMP JUMPDEST PUSH3 0x392 PUSH3 0x38C PUSH3 0x398 JUMP JUMPDEST PUSH3 0x44A JUMP JUMPDEST JUMP JUMPDEST PUSH0 SWAP1 JUMP JUMPDEST PUSH3 0x3A2 PUSH3 0x394 JUMP JUMPDEST POP CALLER SWAP1 JUMP JUMPDEST PUSH0 SHR SWAP1 JUMP JUMPDEST PUSH1 0x1 DUP1 PUSH1 0xA0 SHL SUB AND SWAP1 JUMP JUMPDEST PUSH3 0x3C6 PUSH3 0x3CC SWAP2 PUSH3 0x3A7 JUMP JUMPDEST PUSH3 0x3AC JUMP JUMPDEST SWAP1 JUMP JUMPDEST PUSH3 0x3DB SWAP1 SLOAD PUSH3 0x3B7 JUMP JUMPDEST SWAP1 JUMP JUMPDEST PUSH0 SHL SWAP1 JUMP JUMPDEST SWAP1 PUSH3 0x3F6 PUSH1 0x1 DUP1 PUSH1 0xA0 SHL SUB SWAP2 PUSH3 0x3DE JUMP JUMPDEST SWAP2 DUP2 NOT AND SWAP2 AND OR SWAP1 JUMP JUMPDEST PUSH3 0x40B SWAP1 PUSH3 0x2C9 JUMP JUMPDEST SWAP1 JUMP JUMPDEST PUSH3 0x419 SWAP1 PUSH3 0x400 JUMP JUMPDEST SWAP1 JUMP JUMPDEST SWAP1 JUMP JUMPDEST SWAP1 PUSH3 0x439 PUSH3 0x433 PUSH3 0x441 SWAP3 PUSH3 0x40E JUMP JUMPDEST PUSH3 0x41C JUMP JUMPDEST DUP3 SLOAD PUSH3 0x3E3 JUMP JUMPDEST SWAP1 SSTORE JUMP JUMPDEST PUSH0 ADD SWAP1 JUMP JUMPDEST PUSH3 0x455 PUSH0 PUSH3 0x3CF JUMP JUMPDEST PUSH3 0x461 DUP3 PUSH0 PUSH3 0x41F JUMP JUMPDEST SWAP1 PUSH3 0x499 PUSH3 0x492 PUSH32 0x8BE0079C531659141344CD1FD0A4F28419497F9722A3DAAFE3B4186F6B6457E0 SWAP4 PUSH3 0x40E JUMP JUMPDEST SWAP2 PUSH3 0x40E JUMP JUMPDEST SWAP2 PUSH3 0x4A4 PUSH3 0x65 JUMP JUMPDEST DUP1 PUSH3 0x4B0 DUP2 PUSH3 0x445 JUMP JUMPDEST SUB SWAP1 LOG3 JUMP INVALID PUSH1 0x80 PUSH1 0x40 MSTORE PUSH1 0x4 CALLDATASIZE LT ISZERO PUSH2 0x13 JUMPI JUMPDEST PUSH2 0x5DF JUMP JUMPDEST PUSH2 0x1D PUSH0 CALLDATALOAD PUSH2 0xDB JUMP JUMPDEST DUP1 PUSH3 0x8CC262 EQ PUSH2 0xD6 JUMPI DUP1 PUSH4 0x134087A2 EQ PUSH2 0xD1 JUMPI DUP1 PUSH4 0x16934FC4 EQ PUSH2 0xCC JUMPI DUP1 PUSH4 0x2E1A7D4D EQ PUSH2 0xC7 JUMPI DUP1 PUSH4 0x372500AB EQ PUSH2 0xC2 JUMPI DUP1 PUSH4 0x715018A6 EQ PUSH2 0xBD JUMPI DUP1 PUSH4 0x72F702F3 EQ PUSH2 0xB8 JUMPI DUP1 PUSH4 0x7B0A47EE EQ PUSH2 0xB3 JUMPI DUP1 PUSH4 0x8DA5CB5B EQ PUSH2 0xAE JUMPI DUP1 PUSH4 0x9E447FC6 EQ PUSH2 0xA9 JUMPI DUP1 PUSH4 0xA694FC3A EQ PUSH2 0xA4 JUMPI PUSH4 0xF2FDE38B SUB PUSH2 0xE JUMPI PUSH2 0x5AC JUMP JUMPDEST PUSH2 0x579 JUMP JUMPDEST PUSH2 0x546 JUMP JUMPDEST PUSH2 0x511 JUMP JUMPDEST PUSH2 0x4DC JUMP JUMPDEST PUSH2 0x46E JUMP JUMPDEST PUSH2 0x3E9 JUMP JUMPDEST PUSH2 0x3B6 JUMP JUMPDEST PUSH2 0x383 JUMP JUMPDEST PUSH2 0x305 JUMP JUMPDEST PUSH2 0x1F6 JUMP JUMPDEST PUSH2 0x16C JUMP JUMPDEST PUSH1 0xE0 SHR SWAP1 JUMP JUMPDEST PUSH1 0x40 MLOAD SWAP1 JUMP JUMPDEST PUSH0 DUP1 REVERT JUMPDEST PUSH0 DUP1 REVERT JUMPDEST PUSH1 0x1 DUP1 PUSH1 0xA0 SHL SUB AND SWAP1 JUMP JUMPDEST PUSH2 0x103 SWAP1 PUSH2 0xEF JUMP JUMPDEST SWAP1 JUMP JUMPDEST PUSH2 0x10F DUP2 PUSH2 0xFA JUMP JUMPDEST SUB PUSH2 0x116 JUMPI JUMP JUMPDEST PUSH0 DUP1 REVERT JUMPDEST SWAP1 POP CALLDATALOAD SWAP1 PUSH2 0x127 DUP3 PUSH2 0x106 JUMP JUMPDEST JUMP JUMPDEST SWAP1 PUSH1 0x20 DUP3 DUP3 SUB SLT PUSH2 0x142 JUMPI PUSH2 0x13F SWAP2 PUSH0 ADD PUSH2 0x11A JUMP JUMPDEST SWAP1 JUMP JUMPDEST PUSH2 0xEB JUMP JUMPDEST SWAP1 JUMP JUMPDEST PUSH2 0x153 SWAP1 PUSH2 0x147 JUMP JUMPDEST SWAP1 MSTORE JUMP JUMPDEST SWAP2 SWAP1 PUSH2 0x16A SWAP1 PUSH0 PUSH1 0x20 DUP6 ADD SWAP5 ADD SWAP1 PUSH2 0x14A JUMP JUMPDEST JUMP JUMPDEST CALLVALUE PUSH2 0x19C JUMPI PUSH2 0x198 PUSH2 0x187 PUSH2 0x182 CALLDATASIZE PUSH1 0x4 PUSH2 0x129 JUMP JUMPDEST PUSH2 0x7B0 JUMP JUMPDEST PUSH2 0x18F PUSH2 0xE1 JUMP JUMPDEST SWAP2 DUP3 SWAP2 DUP3 PUSH2 0x157 JUMP JUMPDEST SUB SWAP1 RETURN JUMPDEST PUSH2 0xE7 JUMP JUMPDEST PUSH0 SWAP2 SUB SLT PUSH2 0x1AB JUMPI JUMP JUMPDEST PUSH2 0xEB JUMP JUMPDEST PUSH32 0x0 SWAP1 JUMP JUMPDEST PUSH2 0x1DD SWAP1 PUSH2 0xFA JUMP JUMPDEST SWAP1 MSTORE JUMP JUMPDEST SWAP2 SWAP1 PUSH2 0x1F4 SWAP1 PUSH0 PUSH1 0x20 DUP6 ADD SWAP5 ADD SWAP1 PUSH2 0x1D4 JUMP JUMPDEST JUMP JUMPDEST CALLVALUE PUSH2 0x226 JUMPI PUSH2 0x206 CALLDATASIZE PUSH1 0x4 PUSH2 0x1A1 JUMP JUMPDEST PUSH2 0x222 PUSH2 0x211 PUSH2 0x1B0 JUMP JUMPDEST PUSH2 0x219 PUSH2 0xE1 JUMP JUMPDEST SWAP2 DUP3 SWAP2 DUP3 PUSH2 0x1E1 JUMP JUMPDEST SUB SWAP1 RETURN JUMPDEST PUSH2 0xE7 JUMP JUMPDEST SWAP1 JUMP JUMPDEST PUSH2 0x242 PUSH2 0x23D PUSH2 0x247 SWAP3 PUSH2 0xEF JUMP JUMPDEST PUSH2 0x22B JUMP JUMPDEST PUSH2 0xEF JUMP JUMPDEST SWAP1 JUMP JUMPDEST PUSH2 0x253 SWAP1 PUSH2 0x22E JUMP JUMPDEST SWAP1 JUMP JUMPDEST PUSH2 0x25F SWAP1 PUSH2 0x24A JUMP JUMPDEST SWAP1 JUMP JUMPDEST SWAP1 PUSH2 0x26C SWAP1 PUSH2 0x256 JUMP JUMPDEST PUSH0 MSTORE PUSH1 0x20 MSTORE PUSH1 0x40 PUSH0 KECCAK256 SWAP1 JUMP JUMPDEST PUSH0 SHR SWAP1 JUMP JUMPDEST SWAP1 JUMP JUMPDEST PUSH2 0x28C PUSH2 0x291 SWAP2 PUSH2 0x278 JUMP JUMPDEST PUSH2 0x27D JUMP JUMPDEST SWAP1 JUMP JUMPDEST PUSH2 0x29E SWAP1 SLOAD PUSH2 0x280 JUMP JUMPDEST SWAP1 JUMP JUMPDEST PUSH2 0x2AC SWAP1 PUSH1 0x2 PUSH2 0x262 JUMP JUMPDEST PUSH2 0x2B7 PUSH0 DUP3 ADD PUSH2 0x294 JUMP JUMPDEST SWAP2 PUSH2 0x2D0 PUSH1 0x2 PUSH2 0x2C9 PUSH1 0x1 DUP6 ADD PUSH2 0x294 JUMP JUMPDEST SWAP4 ADD PUSH2 0x294 JUMP JUMPDEST SWAP1 JUMP JUMPDEST PUSH1 0x40 SWAP1 PUSH2 0x2FC PUSH2 0x303 SWAP5 SWAP7 SWAP6 SWAP4 SWAP7 PUSH2 0x2F2 PUSH1 0x60 DUP5 ADD SWAP9 PUSH0 DUP6 ADD SWAP1 PUSH2 0x14A JUMP JUMPDEST PUSH1 0x20 DUP4 ADD SWAP1 PUSH2 0x14A JUMP JUMPDEST ADD SWAP1 PUSH2 0x14A JUMP JUMPDEST JUMP JUMPDEST CALLVALUE PUSH2 0x338 JUMPI PUSH2 0x334 PUSH2 0x320 PUSH2 0x31B CALLDATASIZE PUSH1 0x4 PUSH2 0x129 JUMP JUMPDEST PUSH2 0x2A1 JUMP JUMPDEST PUSH2 0x32B SWAP4 SWAP2 SWAP4 PUSH2 0xE1 JUMP JUMPDEST SWAP4 DUP5 SWAP4 DUP5 PUSH2 0x2D3 JUMP JUMPDEST SUB SWAP1 RETURN JUMPDEST PUSH2 0xE7 JUMP JUMPDEST PUSH2 0x346 DUP2 PUSH2 0x147 JUMP JUMPDEST SUB PUSH2 0x34D JUMPI JUMP JUMPDEST PUSH0 DUP1 REVERT JUMPDEST SWAP1 POP CALLDATALOAD SWAP1 PUSH2 0x35E DUP3 PUSH2 0x33D JUMP JUMPDEST JUMP JUMPDEST SWAP1 PUSH1 0x20 DUP3 DUP3 SUB SLT PUSH2 0x379 JUMPI PUSH2 0x376 SWAP2 PUSH0 ADD PUSH2 0x351 JUMP JUMPDEST SWAP1 JUMP JUMPDEST PUSH2 0xEB JUMP JUMPDEST PUSH0 ADD SWAP1 JUMP JUMPDEST CALLVALUE PUSH2 0x3B1 JUMPI PUSH2 0x39B PUSH2 0x396 CALLDATASIZE PUSH1 0x4 PUSH2 0x360 JUMP JUMPDEST PUSH2 0xA46 JUMP JUMPDEST PUSH2 0x3A3 PUSH2 0xE1 JUMP JUMPDEST DUP1 PUSH2 0x3AD DUP2 PUSH2 0x37E JUMP JUMPDEST SUB SWAP1 RETURN JUMPDEST PUSH2 0xE7 JUMP JUMPDEST CALLVALUE PUSH2 0x3E4 JUMPI PUSH2 0x3C6 CALLDATASIZE PUSH1 0x4 PUSH2 0x1A1 JUMP JUMPDEST PUSH2 0x3CE PUSH2 0xC74 JUMP JUMPDEST PUSH2 0x3D6 PUSH2 0xE1 JUMP JUMPDEST DUP1 PUSH2 0x3E0 DUP2 PUSH2 0x37E JUMP JUMPDEST SUB SWAP1 RETURN JUMPDEST PUSH2 0xE7 JUMP JUMPDEST CALLVALUE PUSH2 0x417 JUMPI PUSH2 0x3F9 CALLDATASIZE PUSH1 0x4 PUSH2 0x1A1 JUMP JUMPDEST PUSH2 0x401 PUSH2 0xE10 JUMP JUMPDEST PUSH2 0x409 PUSH2 0xE1 JUMP JUMPDEST DUP1 PUSH2 0x413 DUP2 PUSH2 0x37E JUMP JUMPDEST SUB SWAP1 RETURN JUMPDEST PUSH2 0xE7 JUMP JUMPDEST PUSH32 0x0 SWAP1 JUMP JUMPDEST PUSH2 0x449 SWAP1 PUSH2 0x24A JUMP JUMPDEST SWAP1 JUMP JUMPDEST PUSH2 0x455 SWAP1 PUSH2 0x440 JUMP JUMPDEST SWAP1 MSTORE JUMP JUMPDEST SWAP2 SWAP1 PUSH2 0x46C SWAP1 PUSH0 PUSH1 0x20 DUP6 ADD SWAP5 ADD SWAP1 PUSH2 0x44C JUMP JUMPDEST JUMP JUMPDEST CALLVALUE PUSH2 0x49E JUMPI PUSH2 0x47E CALLDATASIZE PUSH1 0x4 PUSH2 0x1A1 JUMP JUMPDEST PUSH2 0x49A PUSH2 0x489 PUSH2 0x41C JUMP JUMPDEST PUSH2 0x491 PUSH2 0xE1 JUMP JUMPDEST SWAP2 DUP3 SWAP2 DUP3 PUSH2 0x459 JUMP JUMPDEST SUB SWAP1 RETURN JUMPDEST PUSH2 0xE7 JUMP JUMPDEST SHR SWAP1 JUMP JUMPDEST PUSH2 0x4B7 SWAP1 PUSH1 0x8 PUSH2 0x4BC SWAP4 MUL PUSH2 0x4A3 JUMP JUMPDEST PUSH2 0x27D JUMP JUMPDEST SWAP1 JUMP JUMPDEST SWAP1 PUSH2 0x4CA SWAP2 SLOAD PUSH2 0x4A7 JUMP JUMPDEST SWAP1 JUMP JUMPDEST PUSH2 0x4D9 PUSH1 0x1 PUSH0 SWAP1 PUSH2 0x4BF JUMP JUMPDEST SWAP1 JUMP JUMPDEST CALLVALUE PUSH2 0x50C JUMPI PUSH2 0x4EC CALLDATASIZE PUSH1 0x4 PUSH2 0x1A1 JUMP JUMPDEST PUSH2 0x508 PUSH2 0x4F7 PUSH2 0x4CD JUMP JUMPDEST PUSH2 0x4FF PUSH2 0xE1 JUMP JUMPDEST SWAP2 DUP3 SWAP2 DUP3 PUSH2 0x157 JUMP JUMPDEST SUB SWAP1 RETURN JUMPDEST PUSH2 0xE7 JUMP JUMPDEST CALLVALUE PUSH2 0x541 JUMPI PUSH2 0x521 CALLDATASIZE PUSH1 0x4 PUSH2 0x1A1 JUMP JUMPDEST PUSH2 0x53D PUSH2 0x52C PUSH2 0xE4A JUMP JUMPDEST PUSH2 0x534 PUSH2 0xE1 JUMP JUMPDEST SWAP2 DUP3 SWAP2 DUP3 PUSH2 0x1E1 JUMP JUMPDEST SUB SWAP1 RETURN JUMPDEST PUSH2 0xE7 JUMP JUMPDEST CALLVALUE PUSH2 0x574 JUMPI PUSH2 0x55E PUSH2 0x559 CALLDATASIZE PUSH1 0x4 PUSH2 0x360 JUMP JUMPDEST PUSH2 0xEB8 JUMP JUMPDEST PUSH2 0x566 PUSH2 0xE1 JUMP JUMPDEST DUP1 PUSH2 0x570 DUP2 PUSH2 0x37E JUMP JUMPDEST SUB SWAP1 RETURN JUMPDEST PUSH2 0xE7 JUMP JUMPDEST CALLVALUE PUSH2 0x5A7 JUMPI PUSH2 0x591 PUSH2 0x58C CALLDATASIZE PUSH1 0x4 PUSH2 0x360 JUMP JUMPDEST PUSH2 0xF01 JUMP JUMPDEST PUSH2 0x599 PUSH2 0xE1 JUMP JUMPDEST DUP1 PUSH2 0x5A3 DUP2 PUSH2 0x37E JUMP JUMPDEST SUB SWAP1 RETURN JUMPDEST PUSH2 0xE7 JUMP JUMPDEST CALLVALUE PUSH2 0x5DA JUMPI PUSH2 0x5C4 PUSH2 0x5BF CALLDATASIZE PUSH1 0x4 PUSH2 0x129 JUMP JUMPDEST PUSH2 0x1133 JUMP JUMPDEST PUSH2 0x5CC PUSH2 0xE1 JUMP JUMPDEST DUP1 PUSH2 0x5D6 DUP2 PUSH2 0x37E JUMP JUMPDEST SUB SWAP1 RETURN JUMPDEST PUSH2 0xE7 JUMP JUMPDEST PUSH0 DUP1 REVERT JUMPDEST PUSH0 SWAP1 JUMP JUMPDEST SWAP1 PUSH2 0x5F1 SWAP1 PUSH2 0x147 JUMP JUMPDEST SWAP1 MSTORE JUMP JUMPDEST PUSH1 0x1F DUP1 NOT SWAP2 ADD AND SWAP1 JUMP JUMPDEST PUSH4 0x4E487B71 PUSH1 0xE0 SHL PUSH0 MSTORE PUSH1 0x41 PUSH1 0x4 MSTORE PUSH1 0x24 PUSH0 REVERT JUMPDEST SWAP1 PUSH2 0x61D SWAP1 PUSH2 0x5F5 JUMP JUMPDEST DUP2 ADD SWAP1 DUP2 LT PUSH8 0xFFFFFFFFFFFFFFFF DUP3 GT OR PUSH2 0x637 JUMPI PUSH1 0x40 MSTORE JUMP JUMPDEST PUSH2 0x5FF JUMP JUMPDEST SWAP1 PUSH2 0x64F PUSH2 0x648 PUSH2 0xE1 JUMP JUMPDEST SWAP3 DUP4 PUSH2 0x613 JUMP JUMPDEST JUMP JUMPDEST PUSH2 0x65B PUSH1 0x60 PUSH2 0x63C JUMP JUMPDEST SWAP1 JUMP JUMPDEST SWAP1 PUSH2 0x6AD PUSH2 0x6A4 PUSH1 0x2 PUSH2 0x66F PUSH2 0x651 JUMP JUMPDEST SWAP5 PUSH2 0x686 PUSH2 0x67E PUSH0 DUP4 ADD PUSH2 0x294 JUMP JUMPDEST PUSH0 DUP9 ADD PUSH2 0x5E7 JUMP JUMPDEST PUSH2 0x69E PUSH2 0x695 PUSH1 0x1 DUP4 ADD PUSH2 0x294 JUMP JUMPDEST PUSH1 0x20 DUP9 ADD PUSH2 0x5E7 JUMP JUMPDEST ADD PUSH2 0x294 JUMP JUMPDEST PUSH1 0x40 DUP5 ADD PUSH2 0x5E7 JUMP JUMPDEST JUMP JUMPDEST PUSH2 0x6B8 SWAP1 PUSH2 0x65E JUMP JUMPDEST SWAP1 JUMP JUMPDEST PUSH2 0x6C5 SWAP1 MLOAD PUSH2 0x147 JUMP JUMPDEST SWAP1 JUMP JUMPDEST PUSH4 0x4E487B71 PUSH1 0xE0 SHL PUSH0 MSTORE PUSH1 0x11 PUSH1 0x4 MSTORE PUSH1 0x24 PUSH0 REVERT JUMPDEST PUSH2 0x6EB PUSH2 0x6F1 SWAP2 SWAP4 SWAP3 SWAP4 PUSH2 0x147 JUMP JUMPDEST SWAP3 PUSH2 0x147 JUMP JUMPDEST SWAP2 PUSH2 0x6FD DUP4 DUP3 MUL PUSH2 0x147 JUMP JUMPDEST SWAP3 DUP2 DUP5 DIV EQ SWAP1 ISZERO OR ISZERO PUSH2 0x70C JUMPI JUMP JUMPDEST PUSH2 0x6C8 JUMP JUMPDEST PUSH2 0x720 PUSH2 0x726 SWAP2 SWAP4 SWAP3 SWAP4 PUSH2 0x147 JUMP JUMPDEST SWAP3 PUSH2 0x147 JUMP JUMPDEST DUP3 SUB SWAP2 DUP3 GT PUSH2 0x731 JUMPI JUMP JUMPDEST PUSH2 0x6C8 JUMP JUMPDEST SWAP1 JUMP JUMPDEST PUSH2 0x74D PUSH2 0x748 PUSH2 0x752 SWAP3 PUSH2 0x736 JUMP JUMPDEST PUSH2 0x22B JUMP JUMPDEST PUSH2 0x147 JUMP JUMPDEST SWAP1 JUMP JUMPDEST PUSH4 0x4E487B71 PUSH1 0xE0 SHL PUSH0 MSTORE PUSH1 0x12 PUSH1 0x4 MSTORE PUSH1 0x24 PUSH0 REVERT JUMPDEST PUSH2 0x775 PUSH2 0x77B SWAP2 PUSH2 0x147 JUMP JUMPDEST SWAP2 PUSH2 0x147 JUMP JUMPDEST SWAP1 DUP2 ISZERO PUSH2 0x786 JUMPI DIV SWAP1 JUMP JUMPDEST PUSH2 0x755 JUMP JUMPDEST PUSH2 0x79A PUSH2 0x7A0 SWAP2 SWAP4 SWAP3 SWAP4 PUSH2 0x147 JUMP JUMPDEST SWAP3 PUSH2 0x147 JUMP JUMPDEST DUP3 ADD DUP1 SWAP3 GT PUSH2 0x7AB JUMPI JUMP JUMPDEST PUSH2 0x6C8 JUMP JUMPDEST PUSH2 0x7CF PUSH2 0x7CA PUSH2 0x83A SWAP3 PUSH2 0x7C2 PUSH2 0x5E3 JUMP JUMPDEST POP PUSH1 0x2 PUSH2 0x262 JUMP JUMPDEST PUSH2 0x6AF JUMP JUMPDEST PUSH2 0x834 PUSH2 0x81D PUSH2 0x7E1 PUSH1 0x20 DUP5 ADD PUSH2 0x6BB JUMP JUMPDEST SWAP3 PUSH2 0x817 PUSH2 0x803 PUSH2 0x7F3 PUSH0 DUP5 ADD PUSH2 0x6BB JUMP JUMPDEST PUSH2 0x7FD PUSH1 0x1 PUSH2 0x294 JUMP JUMPDEST SWAP1 PUSH2 0x6DC JUMP JUMPDEST SWAP2 PUSH2 0x811 PUSH1 0x40 TIMESTAMP SWAP3 ADD PUSH2 0x6BB JUMP JUMPDEST SWAP1 PUSH2 0x711 JUMP JUMPDEST SWAP1 PUSH2 0x6DC JUMP JUMPDEST PUSH2 0x82E PUSH8 0xDE0B6B3A7640000 PUSH2 0x739 JUMP JUMPDEST SWAP1 PUSH2 0x769 JUMP JUMPDEST SWAP1 PUSH2 0x78B JUMP JUMPDEST SWAP1 JUMP JUMPDEST SWAP1 JUMP JUMPDEST PUSH2 0x854 PUSH2 0x84F PUSH2 0x859 SWAP3 PUSH2 0x83D JUMP JUMPDEST PUSH2 0x22B JUMP JUMPDEST PUSH2 0x147 JUMP JUMPDEST SWAP1 JUMP JUMPDEST PUSH1 0x20 SWAP2 DUP2 MSTORE ADD SWAP1 JUMP JUMPDEST PUSH0 PUSH32 0x416D6F756E74207A65726F000000000000000000000000000000000000000000 SWAP2 ADD MSTORE JUMP JUMPDEST PUSH2 0x899 PUSH1 0xB PUSH1 0x20 SWAP3 PUSH2 0x85C JUMP JUMPDEST PUSH2 0x8A2 DUP2 PUSH2 0x865 JUMP JUMPDEST ADD SWAP1 JUMP JUMPDEST PUSH2 0x8BB SWAP1 PUSH1 0x20 DUP2 ADD SWAP1 PUSH0 DUP2 DUP4 SUB SWAP2 ADD MSTORE PUSH2 0x88C JUMP JUMPDEST SWAP1 JUMP JUMPDEST ISZERO PUSH2 0x8C5 JUMPI JUMP JUMPDEST PUSH2 0x8CD PUSH2 0xE1 JUMP JUMPDEST PUSH3 0x461BCD PUSH1 0xE5 SHL DUP2 MSTORE DUP1 PUSH2 0x8E3 PUSH1 0x4 DUP3 ADD PUSH2 0x8A6 JUMP JUMPDEST SUB SWAP1 REVERT JUMPDEST PUSH0 PUSH32 0x496E73756666696369656E74207374616B650000000000000000000000000000 SWAP2 ADD MSTORE JUMP JUMPDEST PUSH2 0x91B PUSH1 0x12 PUSH1 0x20 SWAP3 PUSH2 0x85C JUMP JUMPDEST PUSH2 0x924 DUP2 PUSH2 0x8E7 JUMP JUMPDEST ADD SWAP1 JUMP JUMPDEST PUSH2 0x93D SWAP1 PUSH1 0x20 DUP2 ADD SWAP1 PUSH0 DUP2 DUP4 SUB SWAP2 ADD MSTORE PUSH2 0x90E JUMP JUMPDEST SWAP1 JUMP JUMPDEST ISZERO PUSH2 0x947 JUMPI JUMP JUMPDEST PUSH2 0x94F PUSH2 0xE1 JUMP JUMPDEST PUSH3 0x461BCD PUSH1 0xE5 SHL DUP2 MSTORE DUP1 PUSH2 0x965 PUSH1 0x4 DUP3 ADD PUSH2 0x928 JUMP JUMPDEST SUB SWAP1 REVERT JUMPDEST PUSH0 SHL SWAP1 JUMP JUMPDEST SWAP1 PUSH2 0x97A PUSH0 NOT SWAP2 PUSH2 0x969 JUMP JUMPDEST SWAP2 DUP2 NOT AND SWAP2 AND OR SWAP1 JUMP JUMPDEST PUSH2 0x998 PUSH2 0x993 PUSH2 0x99D SWAP3 PUSH2 0x147 JUMP JUMPDEST PUSH2 0x22B JUMP JUMPDEST PUSH2 0x147 JUMP JUMPDEST SWAP1 JUMP JUMPDEST SWAP1 JUMP JUMPDEST SWAP1 PUSH2 0x9B8 PUSH2 0x9B3 PUSH2 0x9BF SWAP3 PUSH2 0x984 JUMP JUMPDEST PUSH2 0x9A0 JUMP JUMPDEST DUP3 SLOAD PUSH2 0x96E JUMP JUMPDEST SWAP1 SSTORE JUMP JUMPDEST PUSH0 DUP1 REVERT JUMPDEST PUSH1 0xE0 SHL SWAP1 JUMP JUMPDEST ISZERO ISZERO SWAP1 JUMP JUMPDEST PUSH2 0x9DB DUP2 PUSH2 0x9CD JUMP JUMPDEST SUB PUSH2 0x9E2 JUMPI JUMP JUMPDEST PUSH0 DUP1 REVERT JUMPDEST SWAP1 POP MLOAD SWAP1 PUSH2 0x9F3 DUP3 PUSH2 0x9D2 JUMP JUMPDEST JUMP JUMPDEST SWAP1 PUSH1 0x20 DUP3 DUP3 SUB SLT PUSH2 0xA0E JUMPI PUSH2 0xA0B SWAP2 PUSH0 ADD PUSH2 0x9E6 JUMP JUMPDEST SWAP1 JUMP JUMPDEST PUSH2 0xEB JUMP JUMPDEST SWAP2 PUSH1 0x20 PUSH2 0xA34 SWAP3 SWAP5 SWAP4 PUSH2 0xA2D PUSH1 0x40 DUP3 ADD SWAP7 PUSH0 DUP4 ADD SWAP1 PUSH2 0x1D4 JUMP JUMPDEST ADD SWAP1 PUSH2 0x14A JUMP JUMPDEST JUMP JUMPDEST PUSH2 0xA3E PUSH2 0xE1 JUMP JUMPDEST RETURNDATASIZE PUSH0 DUP3 RETURNDATACOPY RETURNDATASIZE SWAP1 REVERT JUMPDEST PUSH2 0xA62 DUP2 PUSH2 0xA5C PUSH2 0xA56 PUSH0 PUSH2 0x840 JUMP JUMPDEST SWAP2 PUSH2 0x147 JUMP JUMPDEST GT PUSH2 0x8BE JUMP JUMPDEST PUSH2 0xA94 PUSH2 0xA7B PUSH0 PUSH2 0xA75 PUSH1 0x2 CALLER SWAP1 PUSH2 0x262 JUMP JUMPDEST ADD PUSH2 0x294 JUMP JUMPDEST PUSH2 0xA8D PUSH2 0xA87 DUP5 PUSH2 0x147 JUMP JUMPDEST SWAP2 PUSH2 0x147 JUMP JUMPDEST LT ISZERO PUSH2 0x940 JUMP JUMPDEST PUSH2 0xABE DUP2 PUSH2 0xAB8 PUSH0 PUSH2 0xAA8 PUSH1 0x2 CALLER SWAP1 PUSH2 0x262 JUMP JUMPDEST ADD SWAP2 PUSH2 0xAB3 DUP4 PUSH2 0x294 JUMP JUMPDEST PUSH2 0x711 JUMP JUMPDEST SWAP1 PUSH2 0x9A3 JUMP JUMPDEST PUSH2 0xADE PUSH2 0xACA PUSH0 PUSH2 0x840 JUMP JUMPDEST PUSH1 0x1 PUSH2 0xAD8 PUSH1 0x2 CALLER SWAP1 PUSH2 0x262 JUMP JUMPDEST ADD PUSH2 0x9A3 JUMP JUMPDEST PUSH2 0xB07 PUSH32 0x0 PUSH2 0x440 JUMP JUMPDEST PUSH1 0x20 PUSH4 0xA9059CBB SWAP2 CALLER SWAP1 PUSH2 0xB2E PUSH0 DUP7 SWAP6 PUSH2 0xB39 PUSH2 0xB22 PUSH2 0xE1 JUMP JUMPDEST SWAP8 DUP9 SWAP7 DUP8 SWAP6 DUP7 SWAP5 PUSH2 0x9C7 JUMP JUMPDEST DUP5 MSTORE PUSH1 0x4 DUP5 ADD PUSH2 0xA13 JUMP JUMPDEST SUB SWAP3 GAS CALL DUP1 ISZERO PUSH2 0xBBA JUMPI PUSH2 0xB8E JUMPI JUMPDEST POP CALLER PUSH2 0xB89 PUSH2 0xB77 PUSH32 0x7084F5476618D8E60B11EF0D7D3F06914655ADB8793E28FF7F018D4C76D505D5 SWAP3 PUSH2 0x256 JUMP JUMPDEST SWAP3 PUSH2 0xB80 PUSH2 0xE1 JUMP JUMPDEST SWAP2 DUP3 SWAP2 DUP3 PUSH2 0x157 JUMP JUMPDEST SUB SWAP1 LOG2 JUMP JUMPDEST PUSH2 0xBAE SWAP1 PUSH1 0x20 RETURNDATASIZE DUP2 GT PUSH2 0xBB3 JUMPI JUMPDEST PUSH2 0xBA6 DUP2 DUP4 PUSH2 0x613 JUMP JUMPDEST DUP2 ADD SWAP1 PUSH2 0x9F5 JUMP JUMPDEST PUSH2 0xB48 JUMP JUMPDEST POP RETURNDATASIZE PUSH2 0xB9C JUMP JUMPDEST PUSH2 0xA36 JUMP JUMPDEST PUSH0 PUSH32 0x4E6F207265776172647300000000000000000000000000000000000000000000 SWAP2 ADD MSTORE JUMP JUMPDEST PUSH2 0xBF3 PUSH1 0xA PUSH1 0x20 SWAP3 PUSH2 0x85C JUMP JUMPDEST PUSH2 0xBFC DUP2 PUSH2 0xBBF JUMP JUMPDEST ADD SWAP1 JUMP JUMPDEST PUSH2 0xC15 SWAP1 PUSH1 0x20 DUP2 ADD SWAP1 PUSH0 DUP2 DUP4 SUB SWAP2 ADD MSTORE PUSH2 0xBE6 JUMP JUMPDEST SWAP1 JUMP JUMPDEST ISZERO PUSH2 0xC1F JUMPI JUMP JUMPDEST PUSH2 0xC27 PUSH2 0xE1 JUMP JUMPDEST PUSH3 0x461BCD PUSH1 0xE5 SHL DUP2 MSTORE DUP1 PUSH2 0xC3D PUSH1 0x4 DUP3 ADD PUSH2 0xC00 JUMP JUMPDEST SUB SWAP1 REVERT JUMPDEST PUSH2 0xC4A SWAP1 PUSH2 0x22E JUMP JUMPDEST SWAP1 JUMP JUMPDEST PUSH2 0xC56 SWAP1 PUSH2 0xC41 JUMP JUMPDEST SWAP1 JUMP JUMPDEST PUSH2 0xC62 SWAP1 PUSH2 0x24A JUMP JUMPDEST SWAP1 JUMP JUMPDEST PUSH0 SWAP2 SUB SLT PUSH2 0xC6F JUMPI JUMP JUMPDEST PUSH2 0xEB JUMP JUMPDEST PUSH2 0xC7D CALLER PUSH2 0x7B0 JUMP JUMPDEST PUSH2 0xC99 DUP2 PUSH2 0xC93 PUSH2 0xC8D PUSH0 PUSH2 0x840 JUMP JUMPDEST SWAP2 PUSH2 0x147 JUMP JUMPDEST GT PUSH2 0xC18 JUMP JUMPDEST PUSH2 0xCB9 PUSH2 0xCA5 PUSH0 PUSH2 0x840 JUMP JUMPDEST PUSH1 0x1 PUSH2 0xCB3 PUSH1 0x2 CALLER SWAP1 PUSH2 0x262 JUMP JUMPDEST ADD PUSH2 0x9A3 JUMP JUMPDEST PUSH2 0xCD0 TIMESTAMP PUSH1 0x2 PUSH2 0xCCA DUP2 CALLER SWAP1 PUSH2 0x262 JUMP JUMPDEST ADD PUSH2 0x9A3 JUMP JUMPDEST PUSH2 0xD01 PUSH2 0xCFC PUSH32 0x0 PUSH2 0xC4D JUMP JUMPDEST PUSH2 0xC59 JUMP JUMPDEST PUSH4 0x551E88D CALLER DUP4 SWAP3 DUP1 EXTCODESIZE ISZERO PUSH2 0xDBE JUMPI PUSH2 0xD2D PUSH0 DUP1 SWAP5 PUSH2 0xD38 PUSH2 0xD21 PUSH2 0xE1 JUMP JUMPDEST SWAP8 DUP9 SWAP7 DUP8 SWAP6 DUP7 SWAP5 PUSH2 0x9C7 JUMP JUMPDEST DUP5 MSTORE PUSH1 0x4 DUP5 ADD PUSH2 0xA13 JUMP JUMPDEST SUB SWAP3 GAS CALL DUP1 ISZERO PUSH2 0xDB9 JUMPI PUSH2 0xD8D JUMPI JUMPDEST POP CALLER PUSH2 0xD88 PUSH2 0xD76 PUSH32 0xFC30CDDEA38E2BF4D6EA7D3F9ED3B6AD7F176419F4963BD81318067A4AEE73FE SWAP3 PUSH2 0x256 JUMP JUMPDEST SWAP3 PUSH2 0xD7F PUSH2 0xE1 JUMP JUMPDEST SWAP2 DUP3 SWAP2 DUP3 PUSH2 0x157 JUMP JUMPDEST SUB SWAP1 LOG2 JUMP JUMPDEST PUSH2 0xDAC SWAP1 PUSH0 RETURNDATASIZE DUP2 GT PUSH2 0xDB2 JUMPI JUMPDEST PUSH2 0xDA4 DUP2 DUP4 PUSH2 0x613 JUMP JUMPDEST DUP2 ADD SWAP1 PUSH2 0xC65 JUMP JUMPDEST PUSH0 PUSH2 0xD47 JUMP JUMPDEST POP RETURNDATASIZE PUSH2 0xD9A JUMP JUMPDEST PUSH2 0xA36 JUMP JUMPDEST PUSH2 0x9C3 JUMP JUMPDEST PUSH2 0xDCB PUSH2 0x11BF JUMP JUMPDEST PUSH2 0xDD3 PUSH2 0xDFD JUMP JUMPDEST JUMP JUMPDEST PUSH2 0xDE9 PUSH2 0xDE4 PUSH2 0xDEE SWAP3 PUSH2 0x83D JUMP JUMPDEST PUSH2 0x22B JUMP JUMPDEST PUSH2 0xEF JUMP JUMPDEST SWAP1 JUMP JUMPDEST PUSH2 0xDFA SWAP1 PUSH2 0xDD5 JUMP JUMPDEST SWAP1 JUMP JUMPDEST PUSH2 0xE0E PUSH2 0xE09 PUSH0 PUSH2 0xDF1 JUMP JUMPDEST PUSH2 0x1229 JUMP JUMPDEST JUMP JUMPDEST PUSH2 0xE18 PUSH2 0xDC3 JUMP JUMPDEST JUMP JUMPDEST PUSH0 SWAP1 JUMP JUMPDEST PUSH1 0x1 DUP1 PUSH1 0xA0 SHL SUB AND SWAP1 JUMP JUMPDEST PUSH2 0xE35 PUSH2 0xE3A SWAP2 PUSH2 0x278 JUMP JUMPDEST PUSH2 0xE1E JUMP JUMPDEST SWAP1 JUMP JUMPDEST PUSH2 0xE47 SWAP1 SLOAD PUSH2 0xE29 JUMP JUMPDEST SWAP1 JUMP JUMPDEST PUSH2 0xE52 PUSH2 0xE1A JUMP JUMPDEST POP PUSH2 0xE5C PUSH0 PUSH2 0xE3D JUMP JUMPDEST SWAP1 JUMP JUMPDEST PUSH2 0xE70 SWAP1 PUSH2 0xE6B PUSH2 0x11BF JUMP JUMPDEST PUSH2 0xE72 JUMP JUMPDEST JUMP JUMPDEST PUSH2 0xE7D DUP2 PUSH1 0x1 PUSH2 0x9A3 JUMP JUMPDEST PUSH2 0xEB3 PUSH32 0x41D466EBD06FB97E7786086AC8B69B7EB7DA798592036251291D34E9791CDE01 SWAP2 PUSH2 0xEAA PUSH2 0xE1 JUMP JUMPDEST SWAP2 DUP3 SWAP2 DUP3 PUSH2 0x157 JUMP JUMPDEST SUB SWAP1 LOG1 JUMP JUMPDEST PUSH2 0xEC1 SWAP1 PUSH2 0xE5F JUMP JUMPDEST JUMP JUMPDEST PUSH2 0xECC SWAP1 PUSH2 0x24A JUMP JUMPDEST SWAP1 JUMP JUMPDEST PUSH1 0x40 SWAP1 PUSH2 0xEF8 PUSH2 0xEFF SWAP5 SWAP7 SWAP6 SWAP4 SWAP7 PUSH2 0xEEE PUSH1 0x60 DUP5 ADD SWAP9 PUSH0 DUP6 ADD SWAP1 PUSH2 0x1D4 JUMP JUMPDEST PUSH1 0x20 DUP4 ADD SWAP1 PUSH2 0x1D4 JUMP JUMPDEST ADD SWAP1 PUSH2 0x14A JUMP JUMPDEST JUMP JUMPDEST PUSH2 0xF1D DUP2 PUSH2 0xF17 PUSH2 0xF11 PUSH0 PUSH2 0x840 JUMP JUMPDEST SWAP2 PUSH2 0x147 JUMP JUMPDEST GT PUSH2 0x8BE JUMP JUMPDEST PUSH2 0xF46 PUSH32 0x0 PUSH2 0x440 JUMP JUMPDEST PUSH1 0x20 PUSH4 0x23B872DD SWAP2 CALLER SWAP1 PUSH2 0xF76 PUSH0 PUSH2 0xF5D ADDRESS PUSH2 0xEC3 JUMP JUMPDEST SWAP6 PUSH2 0xF81 DUP9 PUSH2 0xF6A PUSH2 0xE1 JUMP JUMPDEST SWAP9 DUP10 SWAP8 DUP9 SWAP7 DUP8 SWAP6 PUSH2 0x9C7 JUMP JUMPDEST DUP6 MSTORE PUSH1 0x4 DUP6 ADD PUSH2 0xECF JUMP JUMPDEST SUB SWAP3 GAS CALL DUP1 ISZERO PUSH2 0x1043 JUMPI PUSH2 0x1017 JUMPI JUMPDEST POP PUSH2 0xFBB DUP2 PUSH2 0xFB5 PUSH0 PUSH2 0xFA5 PUSH1 0x2 CALLER SWAP1 PUSH2 0x262 JUMP JUMPDEST ADD SWAP2 PUSH2 0xFB0 DUP4 PUSH2 0x294 JUMP JUMPDEST PUSH2 0x78B JUMP JUMPDEST SWAP1 PUSH2 0x9A3 JUMP JUMPDEST PUSH2 0xFD2 TIMESTAMP PUSH1 0x2 PUSH2 0xFCC DUP2 CALLER SWAP1 PUSH2 0x262 JUMP JUMPDEST ADD PUSH2 0x9A3 JUMP JUMPDEST CALLER PUSH2 0x1012 PUSH2 0x1000 PUSH32 0x9E71BC8EEA02A63969F509818F2DAFB9254532904319F9DBDA79B67BD34A5F3D SWAP3 PUSH2 0x256 JUMP JUMPDEST SWAP3 PUSH2 0x1009 PUSH2 0xE1 JUMP JUMPDEST SWAP2 DUP3 SWAP2 DUP3 PUSH2 0x157 JUMP JUMPDEST SUB SWAP1 LOG2 JUMP JUMPDEST PUSH2 0x1037 SWAP1 PUSH1 0x20 RETURNDATASIZE DUP2 GT PUSH2 0x103C JUMPI JUMPDEST PUSH2 0x102F DUP2 DUP4 PUSH2 0x613 JUMP JUMPDEST DUP2 ADD SWAP1 PUSH2 0x9F5 JUMP JUMPDEST PUSH2 0xF90 JUMP JUMPDEST POP RETURNDATASIZE PUSH2 0x1025 JUMP JUMPDEST PUSH2 0xA36 JUMP JUMPDEST PUSH2 0x1059 SWAP1 PUSH2 0x1054 PUSH2 0x11BF JUMP JUMPDEST PUSH2 0x1103 JUMP JUMPDEST JUMP JUMPDEST PUSH1 0x20 PUSH32 0x6464726573730000000000000000000000000000000000000000000000000000 SWAP2 PUSH32 0x4F776E61626C653A206E6577206F776E657220697320746865207A65726F2061 PUSH0 DUP3 ADD MSTORE ADD MSTORE JUMP JUMPDEST PUSH2 0x10B5 PUSH1 0x26 PUSH1 0x40 SWAP3 PUSH2 0x85C JUMP JUMPDEST PUSH2 0x10BE DUP2 PUSH2 0x105B JUMP JUMPDEST ADD SWAP1 JUMP JUMPDEST PUSH2 0x10D7 SWAP1 PUSH1 0x20 DUP2 ADD SWAP1 PUSH0 DUP2 DUP4 SUB SWAP2 ADD MSTORE PUSH2 0x10A8 JUMP JUMPDEST SWAP1 JUMP JUMPDEST ISZERO PUSH2 0x10E1 JUMPI JUMP JUMPDEST PUSH2 0x10E9 PUSH2 0xE1 JUMP JUMPDEST PUSH3 0x461BCD PUSH1 0xE5 SHL DUP2 MSTORE DUP1 PUSH2 0x10FF PUSH1 0x4 DUP3 ADD PUSH2 0x10C2 JUMP JUMPDEST SUB SWAP1 REVERT JUMPDEST PUSH2 0x1131 SWAP1 PUSH2 0x112C DUP2 PUSH2 0x1125 PUSH2 0x111F PUSH2 0x111A PUSH0 PUSH2 0xDF1 JUMP JUMPDEST PUSH2 0xFA JUMP JUMPDEST SWAP2 PUSH2 0xFA JUMP JUMPDEST EQ ISZERO PUSH2 0x10DA JUMP JUMPDEST PUSH2 0x1229 JUMP JUMPDEST JUMP JUMPDEST PUSH2 0x113C SWAP1 PUSH2 0x1048 JUMP JUMPDEST JUMP JUMPDEST PUSH0 PUSH32 0x4F776E61626C653A2063616C6C6572206973206E6F7420746865206F776E6572 SWAP2 ADD MSTORE JUMP JUMPDEST PUSH2 0x1171 PUSH1 0x20 DUP1 SWAP3 PUSH2 0x85C JUMP JUMPDEST PUSH2 0x117A DUP2 PUSH2 0x113E JUMP JUMPDEST ADD SWAP1 JUMP JUMPDEST PUSH2 0x1193 SWAP1 PUSH1 0x20 DUP2 ADD SWAP1 PUSH0 DUP2 DUP4 SUB SWAP2 ADD MSTORE PUSH2 0x1165 JUMP JUMPDEST SWAP1 JUMP JUMPDEST ISZERO PUSH2 0x119D JUMPI JUMP JUMPDEST PUSH2 0x11A5 PUSH2 0xE1 JUMP JUMPDEST PUSH3 0x461BCD PUSH1 0xE5 SHL DUP2 MSTORE DUP1 PUSH2 0x11BB PUSH1 0x4 DUP3 ADD PUSH2 0x117E JUMP JUMPDEST SUB SWAP1 REVERT JUMPDEST PUSH2 0x11E9 PUSH2 0x11CA PUSH2 0xE4A JUMP JUMPDEST PUSH2 0x11E3 PUSH2 0x11DD PUSH2 0x11D8 PUSH2 0x1288 JUMP JUMPDEST PUSH2 0xFA JUMP JUMPDEST SWAP2 PUSH2 0xFA JUMP JUMPDEST EQ PUSH2 0x1196 JUMP JUMPDEST JUMP JUMPDEST SWAP1 PUSH2 0x11FC PUSH1 0x1 DUP1 PUSH1 0xA0 SHL SUB SWAP2 PUSH2 0x969 JUMP JUMPDEST SWAP2 DUP2 NOT AND SWAP2 AND OR SWAP1 JUMP JUMPDEST SWAP1 JUMP JUMPDEST SWAP1 PUSH2 0x121E PUSH2 0x1219 PUSH2 0x1225 SWAP3 PUSH2 0x256 JUMP JUMPDEST PUSH2 0x1206 JUMP JUMPDEST DUP3 SLOAD PUSH2 0x11EB JUMP JUMPDEST SWAP1 SSTORE JUMP JUMPDEST PUSH2 0x1232 PUSH0 PUSH2 0xE3D JUMP JUMPDEST PUSH2 0x123C DUP3 PUSH0 PUSH2 0x1209 JUMP JUMPDEST SWAP1 PUSH2 0x1270 PUSH2 0x126A PUSH32 0x8BE0079C531659141344CD1FD0A4F28419497F9722A3DAAFE3B4186F6B6457E0 SWAP4 PUSH2 0x256 JUMP JUMPDEST SWAP2 PUSH2 0x256 JUMP JUMPDEST SWAP2 PUSH2 0x1279 PUSH2 0xE1 JUMP JUMPDEST DUP1 PUSH2 0x1283 DUP2 PUSH2 0x37E JUMP JUMPDEST SUB SWAP1 LOG3 JUMP JUMPDEST PUSH2 0x1290 PUSH2 0xE1A JUMP JUMPDEST POP CALLER SWAP1 JUMP INVALID LOG2 PUSH5 0x6970667358 0x22 SLT KECCAK256 SWAP4 0x23 0xAB 0xAC 0x2E SWAP2 PUSH22 0xA060A20F8FD1FB11928833B8BBF3510C442CC204EC18 DUP16 DUP6 0x26 PUSH5 0x736F6C6343 STOP ADDMOD XOR STOP CALLER "},"methodIdentifiers":{"claimRewards()":"372500ab","earned(address)":"008cc262","gameLogic()":"134087a2","owner()":"8da5cb5b","renounceOwnership()":"715018a6","rewardRate()":"7b0a47ee","setRewardRate(uint256)":"9e447fc6","stake(uint256)":"a694fc3a","stakes(address)":"16934fc4","stakingToken()":"72f702f3","transferOwnership(address)":"f2fde38b","withdraw(uint256)":"2e1a7d4d"}}}}}