{
  "_format": "hh3-artifact-1",
  "contractName": "Governance",
  "sourceName": "contracts/Governance.sol",
  "abi": [
    {
      "inputs": [
        {
          "internalType": "address",
          "name": "_eduToken",
          "type": "address"
        },
        {
          "internalType": "uint256",
          "name": "_votingPeriod",
          "type": "uint256"
        },
        {
          "internalType": "uint256",
          "name": "_quorumThreshold",
          "type": "uint256"
        },
        {
          "internalType": "uint256",
          "name": "_proposalThreshold",
          "type": "uint256"
        }
      ],
      "stateMutability": "nonpayable",
      "type": "constructor"
    },
    {
      "anonymous": false,
      "inputs": [
        {
          "indexed": true,
          "internalType": "address",
          "name": "previousOwner",
          "type": "address"
        },
        {
          "indexed": true,
          "internalType": "address",
          "name": "newOwner",
          "type": "address"
        }
      ],
      "name": "OwnershipTransferred",
      "type": "event"
    },
    {
      "anonymous": false,
      "inputs": [
        {
          "indexed": true,
          "internalType": "uint256",
          "name": "id",
          "type": "uint256"
        }
      ],
      "name": "ProposalCanceled",
      "type": "event"
    },
    {
      "anonymous": false,
      "inputs": [
        {
          "indexed": true,
          "internalType": "uint256",
          "name": "id",
          "type": "uint256"
        },
        {
          "indexed": false,
          "internalType": "address",
          "name": "proposer",
          "type": "address"
        },
        {
          "indexed": false,
          "internalType": "string",
          "name": "description",
          "type": "string"
        },
        {
          "indexed": false,
          "internalType": "uint256",
          "name": "startBlock",
          "type": "uint256"
        },
        {
          "indexed": false,
          "internalType": "uint256",
          "name": "endBlock",
          "type": "uint256"
        }
      ],
      "name": "ProposalCreated",
      "type": "event"
    },
    {
      "anonymous": false,
      "inputs": [
        {
          "indexed": true,
          "internalType": "uint256",
          "name": "id",
          "type": "uint256"
        }
      ],
      "name": "ProposalExecuted",
      "type": "event"
    },
    {
      "anonymous": false,
      "inputs": [
        {
          "indexed": false,
          "internalType": "uint256",
          "name": "newThreshold",
          "type": "uint256"
        }
      ],
      "name": "ProposalThresholdUpdated",
      "type": "event"
    },
    {
      "anonymous": false,
      "inputs": [
        {
          "indexed": false,
          "internalType": "uint256",
          "name": "newQuorum",
          "type": "uint256"
        }
      ],
      "name": "QuorumUpdated",
      "type": "event"
    },
    {
      "anonymous": false,
      "inputs": [
        {
          "indexed": true,
          "internalType": "uint256",
          "name": "id",
          "type": "uint256"
        },
        {
          "indexed": true,
          "internalType": "address",
          "name": "voter",
          "type": "address"
        },
        {
          "indexed": false,
          "internalType": "bool",
          "name": "support",
          "type": "bool"
        },
        {
          "indexed": false,
          "internalType": "uint256",
          "name": "weight",
          "type": "uint256"
        }
      ],
      "name": "Voted",
      "type": "event"
    },
    {
      "anonymous": false,
      "inputs": [
        {
          "indexed": false,
          "internalType": "uint256",
          "name": "newPeriod",
          "type": "uint256"
        }
      ],
      "name": "VotingPeriodUpdated",
      "type": "event"
    },
    {
      "inputs": [
        {
          "internalType": "uint256",
          "name": "proposalId",
          "type": "uint256"
        }
      ],
      "name": "cancelProposal",
      "outputs": [],
      "stateMutability": "nonpayable",
      "type": "function"
    },
    {
      "inputs": [
        {
          "internalType": "string",
          "name": "description",
          "type": "string"
        }
      ],
      "name": "createProposal",
      "outputs": [
        {
          "internalType": "uint256",
          "name": "",
          "type": "uint256"
        }
      ],
      "stateMutability": "nonpayable",
      "type": "function"
    },
    {
      "inputs": [],
      "name": "eduToken",
      "outputs": [
        {
          "internalType": "contract IERC20",
          "name": "",
          "type": "address"
        }
      ],
      "stateMutability": "view",
      "type": "function"
    },
    {
      "inputs": [
        {
          "internalType": "uint256",
          "name": "proposalId",
          "type": "uint256"
        }
      ],
      "name": "executeProposal",
      "outputs": [],
      "stateMutability": "nonpayable",
      "type": "function"
    },
    {
      "inputs": [
        {
          "internalType": "uint256",
          "name": "proposalId",
          "type": "uint256"
        }
      ],
      "name": "getProposalState",
      "outputs": [
        {
          "internalType": "string",
          "name": "",
          "type": "string"
        }
      ],
      "stateMutability": "view",
      "type": "function"
    },
    {
      "inputs": [
        {
          "internalType": "uint256",
          "name": "",
          "type": "uint256"
        },
        {
          "internalType": "address",
          "name": "",
          "type": "address"
        }
      ],
      "name": "hasVoted",
      "outputs": [
        {
          "internalType": "bool",
          "name": "",
          "type": "bool"
        }
      ],
      "stateMutability": "view",
      "type": "function"
    },
    {
      "inputs": [],
      "name": "owner",
      "outputs": [
        {
          "internalType": "address",
          "name": "",
          "type": "address"
        }
      ],
      "stateMutability": "view",
      "type": "function"
    },
    {
      "inputs": [],
      "name": "proposalCount",
      "outputs": [
        {
          "internalType": "uint256",
          "name": "",
          "type": "uint256"
        }
      ],
      "stateMutability": "view",
      "type": "function"
    },
    {
      "inputs": [],
      "name": "proposalThreshold",
      "outputs": [
        {
          "internalType": "uint256",
          "name": "",
          "type": "uint256"
        }
      ],
      "stateMutability": "view",
      "type": "function"
    },
    {
      "inputs": [
        {
          "internalType": "uint256",
          "name": "",
          "type": "uint256"
        }
      ],
      "name": "proposals",
      "outputs": [
        {
          "internalType": "uint256",
          "name": "id",
          "type": "uint256"
        },
        {
          "internalType": "address",
          "name": "proposer",
          "type": "address"
        },
        {
          "internalType": "string",
          "name": "description",
          "type": "string"
        },
        {
          "internalType": "uint256",
          "name": "forVotes",
          "type": "uint256"
        },
        {
          "internalType": "uint256",
          "name": "againstVotes",
          "type": "uint256"
        },
        {
          "internalType": "uint256",
          "name": "startBlock",
          "type": "uint256"
        },
        {
          "internalType": "uint256",
          "name": "endBlock",
          "type": "uint256"
        },
        {
          "internalType": "bool",
          "name": "executed",
          "type": "bool"
        },
        {
          "internalType": "bool",
          "name": "canceled",
          "type": "bool"
        }
      ],
      "stateMutability": "view",
      "type": "function"
    },
    {
      "inputs": [],
      "name": "quorumThreshold",
      "outputs": [
        {
          "internalType": "uint256",
          "name": "",
          "type": "uint256"
        }
      ],
      "stateMutability": "view",
      "type": "function"
    },
    {
      "inputs": [],
      "name": "renounceOwnership",
      "outputs": [],
      "stateMutability": "nonpayable",
      "type": "function"
    },
    {
      "inputs": [
        {
          "internalType": "uint256",
          "name": "_threshold",
          "type": "uint256"
        }
      ],
      "name": "setProposalThreshold",
      "outputs": [],
      "stateMutability": "nonpayable",
      "type": "function"
    },
    {
      "inputs": [
        {
          "internalType": "uint256",
          "name": "_quorum",
          "type": "uint256"
        }
      ],
      "name": "setQuorumThreshold",
      "outputs": [],
      "stateMutability": "nonpayable",
      "type": "function"
    },
    {
      "inputs": [
        {
          "internalType": "uint256",
          "name": "_period",
          "type": "uint256"
        }
      ],
      "name": "setVotingPeriod",
      "outputs": [],
      "stateMutability": "nonpayable",
      "type": "function"
    },
    {
      "inputs": [
        {
          "internalType": "address",
          "name": "newOwner",
          "type": "address"
        }
      ],
      "name": "transferOwnership",
      "outputs": [],
      "stateMutability": "nonpayable",
      "type": "function"
    },
    {
      "inputs": [
        {
          "internalType": "uint256",
          "name": "proposalId",
          "type": "uint256"
        },
        {
          "internalType": "bool",
          "name": "support",
          "type": "bool"
        }
      ],
      "name": "vote",
      "outputs": [],
      "stateMutability": "nonpayable",
      "type": "function"
    },
    {
      "inputs": [
        {
          "internalType": "uint256",
          "name": "",
          "type": "uint256"
        },
        {
          "internalType": "address",
          "name": "",
          "type": "address"
        }
      ],
      "name": "voteChoice",
      "outputs": [
        {
          "internalType": "bool",
          "name": "",
          "type": "bool"
        }
      ],
      "stateMutability": "view",
      "type": "function"
    },
    {
      "inputs": [],
      "name": "votingPeriod",
      "outputs": [
        {
          "internalType": "uint256",
          "name": "",
          "type": "uint256"
        }
      ],
      "stateMutability": "view",
      "type": "function"
    }
  ],
  "bytecode": "0x60a0604052346200005257620000226200001862000184565b929190916200031f565b6200002c62000058565b612739620004c0823960805181818161092f015281816118060152612054015261273990f35b6200005e565b60405190565b5f80fd5b601f801991011690565b634e487b7160e01b5f52604160045260245ffd5b906200008c9062000062565b810190811060018060401b03821117620000a557604052565b6200006c565b90620000c2620000ba62000058565b928362000080565b565b5f80fd5b60018060a01b031690565b620000de90620000c8565b90565b620000ec81620000d3565b03620000f457565b5f80fd5b905051906200010782620000e1565b565b90565b620001178162000109565b036200011f57565b5f80fd5b9050519062000132826200010c565b565b6080818303126200017e576200014d825f8301620000f8565b926200017b62000161846020850162000123565b9362000171816040860162000123565b9360600162000123565b90565b620000c4565b620001a762002bf9803803806200019b81620000ab565b92833981019062000134565b90919293565b90565b90565b620001cc620001c6620001d292620001ad565b620001b0565b620000c8565b90565b620001e090620001b3565b90565b60209181520190565b5f7f546f6b656e2061646472657373207a65726f0000000000000000000000000000910152565b620002226012602092620001e3565b6200022d81620001ec565b0190565b620002489060208101905f81830391015262000213565b90565b156200025357565b6200025d62000058565b62461bcd60e51b815280620002756004820162000231565b0390fd5b620002926200028c6200029892620000c8565b620001b0565b620000c8565b90565b620002a69062000279565b90565b620002b4906200029b565b90565b5f1b90565b90620002ca5f1991620002b7565b9181191691161790565b620002ed620002e7620002f39262000109565b620001b0565b62000109565b90565b90565b90620003136200030d6200031b92620002d4565b620002f6565b8254620002bc565b9055565b916200037b6200038392620003706200038b96956200033d6200038d565b6200036a81620003626200035b620003555f620001d5565b620000d3565b91620000d3565b14156200024b565b620002a9565b6080526002620002f9565b6003620002f9565b6004620002f9565b565b620003a16200039b620003a7565b62000454565b565b5f90565b620003b1620003a3565b503390565b5f1c90565b60018060a01b031690565b620003d5620003db91620003b6565b620003bb565b90565b620003ea9054620003c6565b90565b906200040060018060a01b0391620002b7565b9181191691161790565b620004159062000279565b90565b62000423906200040a565b90565b90565b90620004436200043d6200044b9262000418565b62000426565b8254620003ed565b9055565b5f0190565b6200045f5f620003de565b6200046b825f62000429565b90620004a36200049c7f8be0079c531659141344cd1fd0a4f28419497f9722a3daafe3b4186f6b6457e09362000418565b9162000418565b91620004ae62000058565b80620004ba816200044f565b0390a356fe60806040526004361015610013575b610c98565b61001d5f3561014c565b8063013cf08b1461014757806302a251a3146101425780630d61b5191461013d57806343859632146101385780634524c7e11461013357806349c2a1a61461012e578063715018a6146101295780637b7a91dd146101245780638d8788891461011f5780638da5cb5b1461011a5780639080936f14610115578063b58131b014610110578063c9d27afe1461010b578063da35c66414610106578063e0a8f6f514610101578063ea0217cf146100fc578063ece40cc1146100f7578063f2fde38b146100f25763fb4688550361000e57610c62565b610c0e565b610bbd565b610b8a565b610b57565b610b22565b610adf565b610a5a565b610a16565b6109c9565b61097f565b6108f8565b6108b6565b610880565b6107cc565b610796565b610657565b61061d565b610581565b60e01c90565b60405190565b5f80fd5b5f80fd5b5f80fd5b90565b61017081610164565b0361017757565b5f80fd5b9050359061018882610167565b565b906020828203126101a3576101a0915f0161017b565b90565b61015c565b90565b6101bf6101ba6101c492610164565b6101a8565b610164565b90565b906101d1906101ab565b5f5260205260405f2090565b5f1c90565b90565b6101f16101f6916101dd565b6101e2565b90565b61020390546101e5565b90565b60018060a01b031690565b61021d610222916101dd565b610206565b90565b61022f9054610211565b90565b634e487b7160e01b5f52602260045260245ffd5b9060016002830492168015610266575b602083101461026157565b610232565b91607f1691610256565b60209181520190565b5f5260205f2090565b905f929180549061029c61029583610246565b8094610270565b916001811690815f146102f357506001146102b7575b505050565b6102c49192939450610279565b915f925b8184106102db57505001905f80806102b2565b600181602092959395548486015201910192906102c8565b92949550505060ff19168252151560200201905f80806102b2565b9061031891610282565b90565b601f801991011690565b634e487b7160e01b5f52604160045260245ffd5b906103439061031b565b810190811067ffffffffffffffff82111761035d57604052565b610325565b9061038261037b92610372610152565b9384809261030e565b0383610339565b565b60ff1690565b61039661039b916101dd565b610384565b90565b6103a8905461038a565b90565b60081c90565b6103bd6103c2916103ab565b610384565b90565b6103cf90546103b1565b90565b6103dd9060056101c7565b6103e85f82016101f9565b916103f560018301610225565b9161040260028201610362565b9161040f600383016101f9565b9161041c600482016101f9565b91610429600583016101f9565b91610436600682016101f9565b9161044e600761044781850161039e565b93016103c5565b90565b61045a90610164565b9052565b60018060a01b031690565b6104729061045e565b90565b61047e90610469565b9052565b5190565b60209181520190565b5f5b8381106104a1575050905f910152565b806020918301518185015201610491565b6104d16104da6020936104df936104c881610482565b93848093610486565b9586910161048f565b61031b565b0190565b151590565b6104f1906104e3565b9052565b946101009661055a61056492610550610545610578999f9e9c9661057f9e9961053761056e9a60208f6105306101208201965f830190610451565b0190610475565b8c60408184039101526104b2565b9e60608b0190610451565b6080890190610451565b60a0870190610451565b60c0850190610451565b60e08301906104e8565b01906104e8565b565b346105bb576105b761059c61059736600461018a565b6103d2565b956105ae999799959195949294610152565b998a998a6104f5565b0390f35b610158565b5f9103126105ca57565b61015c565b1c90565b6105e39060086105e893026105cf565b6101e2565b90565b906105f691546105d3565b90565b61060560025f906105eb565b90565b919061061b905f60208501940190610451565b565b3461064d5761062d3660046105c0565b6106496106386105f9565b610640610152565b91829182610608565b0390f35b610158565b5f0190565b346106855761066f61066a36600461018a565b6111c4565b610677610152565b8061068181610652565b0390f35b610158565b61069381610469565b0361069a57565b5f80fd5b905035906106ab8261068a565b565b91906040838203126106d557806106c96106d2925f860161017b565b9360200161069e565b90565b61015c565b906106e4906101ab565b5f5260205260405f2090565b6107046106ff6107099261045e565b6101a8565b61045e565b90565b610715906106f0565b90565b6107219061070c565b90565b9061072e90610718565b5f5260205260405f2090565b61074a90600861074f93026105cf565b610384565b90565b9061075d915461073a565b90565b61077961077e926107746006935f946106da565b610724565b610752565b90565b9190610794905f602085019401906104e8565b565b346107c7576107c36107b26107ac3660046106ad565b90610760565b6107ba610152565b91829182610781565b0390f35b610158565b346107fa576107e46107df36600461018a565b611261565b6107ec610152565b806107f681610652565b0390f35b610158565b5f80fd5b5f80fd5b5f80fd5b909182601f830112156108455781359167ffffffffffffffff831161084057602001926001830284011161083b57565b610807565b610803565b6107ff565b9060208282031261087b575f82013567ffffffffffffffff811161087657610872920161080b565b9091565b610160565b61015c565b346108b1576108ad61089c61089636600461084a565b906117f3565b6108a4610152565b91829182610608565b0390f35b610158565b346108e4576108c63660046105c0565b6108ce611a7d565b6108d6610152565b806108e081610652565b0390f35b610158565b6108f560035f906105eb565b90565b34610928576109083660046105c0565b6109246109136108e9565b61091b610152565b91829182610608565b0390f35b610158565b7f000000000000000000000000000000000000000000000000000000000000000090565b61095a9061070c565b90565b61096690610951565b9052565b919061097d905f6020850194019061095d565b565b346109af5761098f3660046105c0565b6109ab61099a61092d565b6109a2610152565b9182918261096a565b0390f35b610158565b91906109c7905f60208501940190610475565b565b346109f9576109d93660046105c0565b6109f56109e4611a8b565b6109ec610152565b918291826109b4565b0390f35b610158565b610a139160208201915f8184039101526104b2565b90565b34610a4657610a42610a31610a2c36600461018a565b611c7e565b610a39610152565b918291826109fe565b0390f35b610158565b610a5760045f906105eb565b90565b34610a8a57610a6a3660046105c0565b610a86610a75610a4b565b610a7d610152565b91829182610608565b0390f35b610158565b610a98816104e3565b03610a9f57565b5f80fd5b90503590610ab082610a8f565b565b9190604083820312610ada5780610ace610ad7925f860161017b565b93602001610aa3565b90565b61015c565b34610b0e57610af8610af2366004610ab2565b90611f92565b610b00610152565b80610b0a81610652565b0390f35b610158565b610b1f60015f906105eb565b90565b34610b5257610b323660046105c0565b610b4e610b3d610b13565b610b45610152565b91829182610608565b0390f35b610158565b34610b8557610b6f610b6a36600461018a565b612312565b610b77610152565b80610b8181610652565b0390f35b610158565b34610bb857610ba2610b9d36600461018a565b612485565b610baa610152565b80610bb481610652565b0390f35b610158565b34610beb57610bd5610bd036600461018a565b6124e9565b610bdd610152565b80610be781610652565b0390f35b610158565b90602082820312610c0957610c06915f0161069e565b90565b61015c565b34610c3c57610c26610c21366004610bf0565b6125df565b610c2e610152565b80610c3881610652565b0390f35b610158565b610c5a610c5f92610c556007935f946106da565b610724565b610752565b90565b34610c9357610c8f610c7e610c783660046106ad565b90610c41565b610c86610152565b91829182610781565b0390f35b610158565b5f80fd5b610cad90610ca861266b565b611060565b565b90565b90565b610cc9610cc4610cce92610cb2565b6101a8565b610164565b90565b5f7f50726f706f73616c206e6f7420666f756e640000000000000000000000000000910152565b610d056012602092610486565b610d0e81610cd1565b0190565b610d279060208101905f818303910152610cf8565b90565b15610d3157565b610d39610152565b62461bcd60e51b815280610d4f60048201610d12565b0390fd5b5f7f566f74696e67206e6f7420656e64656400000000000000000000000000000000910152565b610d876010602092610486565b610d9081610d53565b0190565b610da99060208101905f818303910152610d7a565b90565b15610db357565b610dbb610152565b62461bcd60e51b815280610dd160048201610d94565b0390fd5b5f7f416c726561647920657865637574656400000000000000000000000000000000910152565b610e096010602092610486565b610e1281610dd5565b0190565b610e2b9060208101905f818303910152610dfc565b90565b15610e3557565b610e3d610152565b62461bcd60e51b815280610e5360048201610e16565b0390fd5b5f7f50726f706f73616c2063616e63656c6564000000000000000000000000000000910152565b610e8b6011602092610486565b610e9481610e57565b0190565b610ead9060208101905f818303910152610e7e565b90565b15610eb757565b610ebf610152565b62461bcd60e51b815280610ed560048201610e98565b0390fd5b634e487b7160e01b5f52601160045260245ffd5b610efc610f0291939293610164565b92610164565b8201809211610f0d57565b610ed9565b5f7f51756f72756d206e6f7420726561636865640000000000000000000000000000910152565b610f466012602092610486565b610f4f81610f12565b0190565b610f689060208101905f818303910152610f39565b90565b15610f7257565b610f7a610152565b62461bcd60e51b815280610f9060048201610f53565b0390fd5b5f7f50726f706f73616c2072656a6563746564000000000000000000000000000000910152565b610fc86011602092610486565b610fd181610f94565b0190565b610fea9060208101905f818303910152610fbb565b90565b15610ff457565b610ffc610152565b62461bcd60e51b81528061101260048201610fd5565b0390fd5b5f1b90565b9061102760ff91611016565b9181191691161790565b61103a906104e3565b90565b90565b9061105561105061105c92611031565b61103d565b825461101b565b9055565b611182611077611072600584906101c7565b610caf565b61109e6110855f83016101f9565b6110976110915f610cb5565b91610164565b1415610d2a565b6110c5436110bf6110b96110b4600686016101f9565b610164565b91610164565b11610dac565b6110e26110dd6110d76007840161039e565b156104e3565b610e2e565b6110ff6110fa6110f4600784016103c5565b156104e3565b610eb0565b611145611123611111600384016101f9565b61111d600485016101f9565b90610eed565b61113e61113861113360036101f9565b610164565b91610164565b1015610f6b565b611177611154600383016101f9565b61117161116b611166600486016101f9565b610164565b91610164565b11610fed565b600760019101611040565b6111ac7f712ae1383f79ac853f8d882153778e0260ef8f03b504e2866e0593e04d2b291f916101ab565b906111b5610152565b806111bf81610652565b0390a2565b6111cd90610c9c565b565b6111e0906111db61266b565b61121b565b565b906111ee5f1991611016565b9181191691161790565b90565b9061121061120b611217926101ab565b6111f8565b82546111e2565b9055565b6112268160036111fb565b61125c7ff18f88786aae85a652aadb99a82462616489a33370c9bcc7b245906812ef7cd191611253610152565b91829182610608565b0390a1565b61126a906111cf565b565b5f90565b60e01b90565b9050519061128382610167565b565b9060208282031261129e5761129b915f01611276565b90565b61015c565b6112ab610152565b3d5f823e3d90fd5b5f7f42656c6f772070726f706f73616c207468726573686f6c640000000000000000910152565b6112e76018602092610486565b6112f0816112b3565b0190565b6113099060208101905f8183039101526112da565b90565b1561131357565b61131b610152565b62461bcd60e51b815280611331600482016112f4565b0390fd5b61133e90610164565b5f19811461134c5760010190565b610ed9565b9061136461135d610152565b9283610339565b565b611371610120611351565b90565b9061137e90610164565b9052565b9061138c90610469565b9052565b5f80fd5b67ffffffffffffffff81116113b2576113ae60209161031b565b0190565b610325565b90825f939282370152565b909291926113d76113d282611394565b611351565b938185526020850190828401116113f3576113f1926113b7565b565b611390565b6114039136916113c2565b90565b52565b90611413906104e3565b9052565b6114219051610164565b90565b61142e9051610469565b90565b9061144260018060a01b0391611016565b9181191691161790565b90565b9061146461145f61146b92610718565b61144c565b8254611431565b9055565b5190565b601f602091010490565b1b90565b9190600861149c9102916114965f198461147d565b9261147d565b9181191691161790565b91906114bc6114b76114c4936101ab565b6111f8565b908354611481565b9055565b6114da916114d461126c565b916114a6565b565b5b8181106114e8575050565b806114f55f6001936114c8565b016114dd565b9190601f811161150b575b505050565b61151761153c93610279565b90602061152384611473565b83019310611544575b61153590611473565b01906114dc565b5f8080611506565b91506115358192905061152c565b90611562905f19906008026105cf565b191690565b8161157191611552565b906002021790565b9061158381610482565b9067ffffffffffffffff8211611643576115a7826115a18554610246565b856114fb565b602090601f83116001146115db579180916115ca935f926115cf575b5050611567565b90555b565b90915001515f806115c3565b601f198316916115ea85610279565b925f5b81811061162b57509160029391856001969410611611575b505050020190556115cd565b611621910151601f841690611552565b90555f8080611605565b919360206001819287870151815501950192016115ed565b610325565b9061165291611579565b565b61165e90516104e3565b90565b60081b90565b9061167461ff0091611661565b9181191691161790565b9061169361168e61169a92611031565b61103d565b8254611667565b9055565b90611778610100600761177e946116c25f82016116bc5f8801611417565b906111fb565b6116db600182016116d560208801611424565b9061144f565b6116f4600282016116ee6040880161146f565b90611648565b61170d6003820161170760608801611417565b906111fb565b6117266004820161172060808801611417565b906111fb565b61173f6005820161173960a08801611417565b906111fb565b6117586006820161175260c08801611417565b906111fb565b61177082820161176a60e08801611654565b90611040565b019201611654565b9061167e565b565b9061178a9161169e565b565b91906117a68161179f816117ab95610486565b80956113b7565b61031b565b0190565b906117df6117ea916117f1969897956060956117d260808701935f880190610475565b858303602087015261178c565b966040830190610451565b0190610451565b565b6117fb61126c565b50611854602061182a7f0000000000000000000000000000000000000000000000000000000000000000610951565b6370a0823190611849339261183d610152565b95869485938493611270565b8352600483016109b4565b03915afa908115611a2b575f916119fd575b5061187160046101f9565b61187a90610164565b9061188490610164565b101561188f9061130c565b61189960016101f9565b6118a290611335565b6118ad9060016111fb565b43436118b960026101f9565b6118c291610eed565b926118cd60016101f9565b338483905f8087918a935f955f976118e3611366565b995f8b01906118f191611374565b60208a01906118ff91611382565b611908916113f8565b604088019061191691611406565b61191f90610cb5565b606087019061192d91611374565b61193690610cb5565b608086019061194491611374565b60a085019061195291611374565b60c084019061196091611374565b60e083019061196e91611409565b61010082019061197d91611409565b600561198960016101f9565b611992916101c7565b9061199c91611780565b6119a660016101f9565b9233909192947f6c98a8c940418b35614f0cd02412d5c9606faff474cbb6cdd6640ba5d1a9f06b946119d7906101ab565b956119e0610152565b9485946119ed94866117af565b0390a26119fa60016101f9565b90565b611a1e915060203d8111611a24575b611a168183610339565b810190611285565b5f611866565b503d611a0c565b6112a3565b611a3861266b565b611a40611a6a565b565b611a56611a51611a5b92610cb2565b6101a8565b61045e565b90565b611a6790611a42565b90565b611a7b611a765f611a5e565b612697565b565b611a85611a30565b565b5f90565b611a93611a87565b50611a9d5f610225565b90565b606090565b90611ab7611ab283611394565b611351565b918252565b5f7f43616e63656c6564000000000000000000000000000000000000000000000000910152565b611aed6008611aa5565b90611afa60208301611abc565b565b611b04611ae3565b90565b5f7f4578656375746564000000000000000000000000000000000000000000000000910152565b611b386008611aa5565b90611b4560208301611b07565b565b611b4f611b2e565b90565b5f7f50656e64696e6700000000000000000000000000000000000000000000000000910152565b611b836007611aa5565b90611b9060208301611b52565b565b611b9a611b79565b90565b5f7f4163746976650000000000000000000000000000000000000000000000000000910152565b611bce6006611aa5565b90611bdb60208301611b9d565b565b611be5611bc4565b90565b5f7f4465666561746564000000000000000000000000000000000000000000000000910152565b611c196008611aa5565b90611c2660208301611be8565b565b611c30611c0f565b90565b5f7f5375636365656465640000000000000000000000000000000000000000000000910152565b611c646009611aa5565b90611c7160208301611c33565b565b611c7b611c5a565b90565b611c95611c9a91611c8d611aa0565b5060056101c7565b610caf565b611cc1611ca85f83016101f9565b611cba611cb45f610cb5565b91610164565b1415610d2a565b611ccd600782016103c5565b611ddd57611cdd6007820161039e565b611dd15743611cff611cf9611cf4600585016101f9565b610164565b91610164565b10611dc55743611d22611d1c611d17600685016101f9565b610164565b91610164565b1115611db957611d49611d37600383016101f9565b611d43600484016101f9565b90610eed565b611d64611d5e611d5960036101f9565b610164565b91610164565b10611dad57611d92611d8c611d876004611d80600386016101f9565b94016101f9565b610164565b91610164565b11611da257611d9f611c28565b90565b611daa611c73565b90565b50611db6611c28565b90565b50611dc2611bdd565b90565b50611dce611b92565b90565b50611dda611b47565b90565b50611de6611afc565b90565b5f7f566f74696e6720636c6f73656400000000000000000000000000000000000000910152565b611e1d600d602092610486565b611e2681611de9565b0190565b611e3f9060208101905f818303910152611e10565b90565b15611e4957565b611e51610152565b62461bcd60e51b815280611e6760048201611e2a565b0390fd5b5f7f416c726561647920766f74656400000000000000000000000000000000000000910152565b611e9f600d602092610486565b611ea881611e6b565b0190565b611ec19060208101905f818303910152611e92565b90565b15611ecb57565b611ed3610152565b62461bcd60e51b815280611ee960048201611eac565b0390fd5b5f7f4e6f20766f74696e6720706f7765720000000000000000000000000000000000910152565b611f21600f602092610486565b611f2a81611eed565b0190565b611f439060208101905f818303910152611f14565b90565b15611f4d57565b611f55610152565b62461bcd60e51b815280611f6b60048201611f2e565b0390fd5b916020611f90929493611f8960408201965f8301906104e8565b0190610451565b565b90611fa7611fa2600584906101c7565b610caf565b91611fcf611fb65f85016101f9565b611fc8611fc25f610cb5565b91610164565b1415610d2a565b43611fed611fe7611fe2600587016101f9565b610164565b91610164565b1015806121e3575b611ffe90611e42565b61202d61202861202261201d612016600686906106da565b3390610724565b61039e565b156104e3565b611ec4565b61204a61204561203f600786016103c5565b156104e3565b610eb0565b6120a260206120787f0000000000000000000000000000000000000000000000000000000000000000610951565b6370a0823190612097339261208b610152565b95869485938493611270565b8352600483016109b4565b03915afa9081156121de575f916121b0575b50926120d2846120cc6120c65f610cb5565b91610164565b11611f46565b6120f260016120ed6120e6600686906106da565b3390610724565b611040565b6121118361210c612105600786906106da565b3390610724565b611040565b825f1461218a576121399061213360038692019161212e836101f9565b610eed565b906111fb565b5b33919261217061216a7f7c2de587c00d75474a0c6c6fa96fd3b45dc974cd4e8a75f712bb84c950dce1b5936101ab565b93610718565b9361218561217c610152565b92839283611f6f565b0390a3565b6121ab906121a56004869201916121a0836101f9565b610eed565b906111fb565b61213a565b6121d1915060203d81116121d7575b6121c98183610339565b810190611285565b5f6120b4565b503d6121bf565b6112a3565b50611ffe436122056121ff6121fa600688016101f9565b610164565b91610164565b11159050611ff5565b5f7f4e6f7420617574686f72697a6564000000000000000000000000000000000000910152565b612242600e602092610486565b61224b8161220e565b0190565b6122649060208101905f818303910152612235565b90565b1561226e57565b612276610152565b62461bcd60e51b81528061228c6004820161224f565b0390fd5b5f7f416c72656164792063616e63656c656400000000000000000000000000000000910152565b6122c46010602092610486565b6122cd81612290565b0190565b6122e69060208101905f8183039101526122b7565b90565b156122f057565b6122f8610152565b62461bcd60e51b81528061230e600482016122d1565b0390fd5b6123c4612329612324600584906101c7565b610caf565b6123506123375f83016101f9565b6123496123435f610cb5565b91610164565b1415610d2a565b3361236e61236861236360018501610225565b610469565b91610469565b148015612406575b61237f90612267565b61239c6123976123916007840161039e565b156104e3565b610e2e565b6123b96123b46123ae600784016103c5565b156104e3565b6122e9565b60076001910161167e565b6123ee7f789cf55be980739dad1d0699b93b58e806b51c9d96619bfa8fe0a28abaa7b30c916101ab565b906123f7610152565b8061240181610652565b0390a2565b5061237f3361242461241e612419611a8b565b610469565b91610469565b149050612376565b61243d9061243861266b565b61243f565b565b61244a8160026111fb565b6124807f651c77f42613a075437aa794c44471e3abc3a661956a67aaee165bb7396974aa91612477610152565b91829182610608565b0390a1565b61248e9061242c565b565b6124a19061249c61266b565b6124a3565b565b6124ae8160046111fb565b6124e47f75176781f69c55e26fee85d480452b0b9038b9428704bb7b232fc1c638bbf803916124db610152565b91829182610608565b0390a1565b6124f290612490565b565b6125059061250061266b565b6125af565b565b60207f6464726573730000000000000000000000000000000000000000000000000000917f4f776e61626c653a206e6577206f776e657220697320746865207a65726f20615f8201520152565b6125616026604092610486565b61256a81612507565b0190565b6125839060208101905f818303910152612554565b90565b1561258d57565b612595610152565b62461bcd60e51b8152806125ab6004820161256e565b0390fd5b6125dd906125d8816125d16125cb6125c65f611a5e565b610469565b91610469565b1415612586565b612697565b565b6125e8906124f4565b565b5f7f4f776e61626c653a2063616c6c6572206973206e6f7420746865206f776e6572910152565b61261d60208092610486565b612626816125ea565b0190565b61263f9060208101905f818303910152612611565b90565b1561264957565b612651610152565b62461bcd60e51b8152806126676004820161262a565b0390fd5b612695612676611a8b565b61268f6126896126846126f6565b610469565b91610469565b14612642565b565b6126a05f610225565b6126aa825f61144f565b906126de6126d87f8be0079c531659141344cd1fd0a4f28419497f9722a3daafe3b4186f6b6457e093610718565b91610718565b916126e7610152565b806126f181610652565b0390a3565b6126fe611a87565b50339056fea26469706673582212207414eed894f84291b7e56700de509277bb792df119f94b407f88f7e4a1a1d13764736f6c63430008180033",
  "linkReferences": {},
  "deployedLinkReferences": {},
  "immutableReferences": {
    "4866": [
      {
        "length": 32,
        "start": 2351
      },
      {
        "length": 32,
        "start": 6150
      },
      {
        "length": 32,
        "start": 8276
      }
    ]
  },
  "inputSourceName": "project/contracts/Governance.sol",
  "buildInfoId": "solc-0_8_24-398f5484ed085fc7ad4c3f3f88b71ad9e40a81d1"
}