{
  "_format": "hh3-artifact-1",
  "contractName": "Governance",
  "sourceName": "contracts/Governance.sol",
  "abi": [
    {
      "inputs": [
        {
          "internalType": "address",
          "name": "_eduToken",
          "type": "address"
        },
        {
          "internalType": "uint256",
          "name": "_votingPeriod",
          "type": "uint256"
        },
        {
          "internalType": "uint256",
          "name": "_quorumThreshold",
          "type": "uint256"
        },
        {
          "internalType": "uint256",
          "name": "_proposalThreshold",
          "type": "uint256"
        }
      ],
      "stateMutability": "nonpayable",
      "type": "constructor"
    },
    {
      "anonymous": false,
      "inputs": [
        {
          "indexed": true,
          "internalType": "address",
          "name": "previousOwner",
          "type": "address"
        },
        {
          "indexed": true,
          "internalType": "address",
          "name": "newOwner",
          "type": "address"
        }
      ],
      "name": "OwnershipTransferred",
      "type": "event"
    },
    {
      "anonymous": false,
      "inputs": [
        {
          "indexed": true,
          "internalType": "uint256",
          "name": "id",
          "type": "uint256"
        }
      ],
      "name": "ProposalCanceled",
      "type": "event"
    },
    {
      "anonymous": false,
      "inputs": [
        {
          "indexed": true,
          "internalType": "uint256",
          "name": "id",
          "type": "uint256"
        },
        {
          "indexed": false,
          "internalType": "address",
          "name": "proposer",
          "type": "address"
        },
        {
          "indexed": false,
          "internalType": "string",
          "name": "description",
          "type": "string"
        },
        {
          "indexed": false,
          "internalType": "uint256",
          "name": "startBlock",
          "type": "uint256"
        },
        {
          "indexed": false,
          "internalType": "uint256",
          "name": "endBlock",
          "type": "uint256"
        }
      ],
      "name": "ProposalCreated",
      "type": "event"
    },
    {
      "anonymous": false,
      "inputs": [
        {
          "indexed": true,
          "internalType": "uint256",
          "name": "id",
          "type": "uint256"
        }
      ],
      "name": "ProposalExecuted",
      "type": "event"
    },
    {
      "anonymous": false,
      "inputs": [
        {
          "indexed": false,
          "internalType": "uint256",
          "name": "newThreshold",
          "type": "uint256"
        }
      ],
      "name": "ProposalThresholdUpdated",
      "type": "event"
    },
    {
      "anonymous": false,
      "inputs": [
        {
          "indexed": false,
          "internalType": "uint256",
          "name": "newQuorum",
          "type": "uint256"
        }
      ],
      "name": "QuorumUpdated",
      "type": "event"
    },
    {
      "anonymous": false,
      "inputs": [
        {
          "indexed": true,
          "internalType": "uint256",
          "name": "id",
          "type": "uint256"
        },
        {
          "indexed": true,
          "internalType": "address",
          "name": "voter",
          "type": "address"
        },
        {
          "indexed": false,
          "internalType": "bool",
          "name": "support",
          "type": "bool"
        },
        {
          "indexed": false,
          "internalType": "uint256",
          "name": "weight",
          "type": "uint256"
        }
      ],
      "name": "Voted",
      "type": "event"
    },
    {
      "anonymous": false,
      "inputs": [
        {
          "indexed": false,
          "internalType": "uint256",
          "name": "newPeriod",
          "type": "uint256"
        }
      ],
      "name": "VotingPeriodUpdated",
      "type": "event"
    },
    {
      "inputs": [
        {
          "internalType": "uint256",
          "name": "proposalId",
          "type": "uint256"
        }
      ],
      "name": "cancelProposal",
      "outputs": [],
      "stateMutability": "nonpayable",
      "type": "function"
    },
    {
      "inputs": [
        {
          "internalType": "string",
          "name": "description",
          "type": "string"
        }
      ],
      "name": "createProposal",
      "outputs": [
        {
          "internalType": "uint256",
          "name": "",
          "type": "uint256"
        }
      ],
      "stateMutability": "nonpayable",
      "type": "function"
    },
    {
      "inputs": [
        {
          "internalType": "string",
          "name": "description",
          "type": "string"
        },
        {
          "internalType": "address",
          "name": "target",
          "type": "address"
        },
        {
          "internalType": "bytes",
          "name": "callData",
          "type": "bytes"
        }
      ],
      "name": "createProposalWithTarget",
      "outputs": [
        {
          "internalType": "uint256",
          "name": "",
          "type": "uint256"
        }
      ],
      "stateMutability": "nonpayable",
      "type": "function"
    },
    {
      "inputs": [],
      "name": "eduToken",
      "outputs": [
        {
          "internalType": "contract IERC20",
          "name": "",
          "type": "address"
        }
      ],
      "stateMutability": "view",
      "type": "function"
    },
    {
      "inputs": [
        {
          "internalType": "uint256",
          "name": "proposalId",
          "type": "uint256"
        }
      ],
      "name": "executeProposal",
      "outputs": [],
      "stateMutability": "nonpayable",
      "type": "function"
    },
    {
      "inputs": [
        {
          "internalType": "uint256",
          "name": "proposalId",
          "type": "uint256"
        }
      ],
      "name": "getProposalState",
      "outputs": [
        {
          "internalType": "string",
          "name": "",
          "type": "string"
        }
      ],
      "stateMutability": "view",
      "type": "function"
    },
    {
      "inputs": [
        {
          "internalType": "uint256",
          "name": "",
          "type": "uint256"
        },
        {
          "internalType": "address",
          "name": "",
          "type": "address"
        }
      ],
      "name": "hasVoted",
      "outputs": [
        {
          "internalType": "bool",
          "name": "",
          "type": "bool"
        }
      ],
      "stateMutability": "view",
      "type": "function"
    },
    {
      "inputs": [],
      "name": "owner",
      "outputs": [
        {
          "internalType": "address",
          "name": "",
          "type": "address"
        }
      ],
      "stateMutability": "view",
      "type": "function"
    },
    {
      "inputs": [],
      "name": "proposalCount",
      "outputs": [
        {
          "internalType": "uint256",
          "name": "",
          "type": "uint256"
        }
      ],
      "stateMutability": "view",
      "type": "function"
    },
    {
      "inputs": [],
      "name": "proposalThreshold",
      "outputs": [
        {
          "internalType": "uint256",
          "name": "",
          "type": "uint256"
        }
      ],
      "stateMutability": "view",
      "type": "function"
    },
    {
      "inputs": [
        {
          "internalType": "uint256",
          "name": "",
          "type": "uint256"
        }
      ],
      "name": "proposals",
      "outputs": [
        {
          "internalType": "uint256",
          "name": "id",
          "type": "uint256"
        },
        {
          "internalType": "address",
          "name": "proposer",
          "type": "address"
        },
        {
          "internalType": "string",
          "name": "description",
          "type": "string"
        },
        {
          "internalType": "uint256",
          "name": "forVotes",
          "type": "uint256"
        },
        {
          "internalType": "uint256",
          "name": "againstVotes",
          "type": "uint256"
        },
        {
          "internalType": "uint256",
          "name": "startBlock",
          "type": "uint256"
        },
        {
          "internalType": "uint256",
          "name": "endBlock",
          "type": "uint256"
        },
        {
          "internalType": "bool",
          "name": "executed",
          "type": "bool"
        },
        {
          "internalType": "bool",
          "name": "canceled",
          "type": "bool"
        },
        {
          "internalType": "address",
          "name": "target",
          "type": "address"
        },
        {
          "internalType": "bytes",
          "name": "callData",
          "type": "bytes"
        }
      ],
      "stateMutability": "view",
      "type": "function"
    },
    {
      "inputs": [],
      "name": "quorumThreshold",
      "outputs": [
        {
          "internalType": "uint256",
          "name": "",
          "type": "uint256"
        }
      ],
      "stateMutability": "view",
      "type": "function"
    },
    {
      "inputs": [],
      "name": "renounceOwnership",
      "outputs": [],
      "stateMutability": "nonpayable",
      "type": "function"
    },
    {
      "inputs": [
        {
          "internalType": "uint256",
          "name": "_threshold",
          "type": "uint256"
        }
      ],
      "name": "setProposalThreshold",
      "outputs": [],
      "stateMutability": "nonpayable",
      "type": "function"
    },
    {
      "inputs": [
        {
          "internalType": "uint256",
          "name": "_quorum",
          "type": "uint256"
        }
      ],
      "name": "setQuorumThreshold",
      "outputs": [],
      "stateMutability": "nonpayable",
      "type": "function"
    },
    {
      "inputs": [
        {
          "internalType": "uint256",
          "name": "_period",
          "type": "uint256"
        }
      ],
      "name": "setVotingPeriod",
      "outputs": [],
      "stateMutability": "nonpayable",
      "type": "function"
    },
    {
      "inputs": [
        {
          "internalType": "address",
          "name": "newOwner",
          "type": "address"
        }
      ],
      "name": "transferOwnership",
      "outputs": [],
      "stateMutability": "nonpayable",
      "type": "function"
    },
    {
      "inputs": [
        {
          "internalType": "uint256",
          "name": "proposalId",
          "type": "uint256"
        },
        {
          "internalType": "bool",
          "name": "support",
          "type": "bool"
        }
      ],
      "name": "vote",
      "outputs": [],
      "stateMutability": "nonpayable",
      "type": "function"
    },
    {
      "inputs": [
        {
          "internalType": "uint256",
          "name": "",
          "type": "uint256"
        },
        {
          "internalType": "address",
          "name": "",
          "type": "address"
        }
      ],
      "name": "voteChoice",
      "outputs": [
        {
          "internalType": "bool",
          "name": "",
          "type": "bool"
        }
      ],
      "stateMutability": "view",
      "type": "function"
    },
    {
      "inputs": [
        {
          "internalType": "uint256",
          "name": "",
          "type": "uint256"
        },
        {
          "internalType": "address",
          "name": "",
          "type": "address"
        }
      ],
      "name": "voteSnapshot",
      "outputs": [
        {
          "internalType": "uint256",
          "name": "",
          "type": "uint256"
        }
      ],
      "stateMutability": "view",
      "type": "function"
    },
    {
      "inputs": [],
      "name": "votingPeriod",
      "outputs": [
        {
          "internalType": "uint256",
          "name": "",
          "type": "uint256"
        }
      ],
      "stateMutability": "view",
      "type": "function"
    }
  ],
  "bytecode": "0x60a0604052346200005257620000226200001862000184565b929190916200031f565b6200002c62000058565b612ffd620004c08239608051818181610c28015281816120e20152612d0e0152612ffd90f35b6200005e565b60405190565b5f80fd5b601f801991011690565b634e487b7160e01b5f52604160045260245ffd5b906200008c9062000062565b810190811060018060401b03821117620000a557604052565b6200006c565b90620000c2620000ba62000058565b928362000080565b565b5f80fd5b60018060a01b031690565b620000de90620000c8565b90565b620000ec81620000d3565b03620000f457565b5f80fd5b905051906200010782620000e1565b565b90565b620001178162000109565b036200011f57565b5f80fd5b9050519062000132826200010c565b565b6080818303126200017e576200014d825f8301620000f8565b926200017b62000161846020850162000123565b9362000171816040860162000123565b9360600162000123565b90565b620000c4565b620001a7620034bd803803806200019b81620000ab565b92833981019062000134565b90919293565b90565b90565b620001cc620001c6620001d292620001ad565b620001b0565b620000c8565b90565b620001e090620001b3565b90565b60209181520190565b5f7f546f6b656e2061646472657373207a65726f0000000000000000000000000000910152565b620002226012602092620001e3565b6200022d81620001ec565b0190565b620002489060208101905f81830391015262000213565b90565b156200025357565b6200025d62000058565b62461bcd60e51b815280620002756004820162000231565b0390fd5b620002926200028c6200029892620000c8565b620001b0565b620000c8565b90565b620002a69062000279565b90565b620002b4906200029b565b90565b5f1b90565b90620002ca5f1991620002b7565b9181191691161790565b620002ed620002e7620002f39262000109565b620001b0565b62000109565b90565b90565b90620003136200030d6200031b92620002d4565b620002f6565b8254620002bc565b9055565b916200037b6200038392620003706200038b96956200033d6200038d565b6200036a81620003626200035b620003555f620001d5565b620000d3565b91620000d3565b14156200024b565b620002a9565b6080526002620002f9565b6003620002f9565b6004620002f9565b565b620003a16200039b620003a7565b62000454565b565b5f90565b620003b1620003a3565b503390565b5f1c90565b60018060a01b031690565b620003d5620003db91620003b6565b620003bb565b90565b620003ea9054620003c6565b90565b906200040060018060a01b0391620002b7565b9181191691161790565b620004159062000279565b90565b62000423906200040a565b90565b90565b90620004436200043d6200044b9262000418565b62000426565b8254620003ed565b9055565b5f0190565b6200045f5f620003de565b6200046b825f62000429565b90620004a36200049c7f8be0079c531659141344cd1fd0a4f28419497f9722a3daafe3b4186f6b6457e09362000418565b9162000418565b91620004ae62000058565b80620004ba816200044f565b0390a356fe60806040526004361015610013575b610f91565b61001d5f3561016c565b8063013cf08b1461016757806302a251a3146101625780630d61b5191461015d5780631de313211461015857806343859632146101535780634524c7e11461014e57806349c2a1a614610149578063715018a6146101445780637b7a91dd1461013f5780637fe2ac4b1461013a5780638d878889146101355780638da5cb5b146101305780639080936f1461012b578063b58131b014610126578063c9d27afe14610121578063da35c6641461011c578063e0a8f6f514610117578063ea0217cf14610112578063ece40cc11461010d578063f2fde38b146101085763fb4688550361000e57610f5b565b610f07565b610eb6565b610e83565b610e50565b610e1b565b610dd8565b610d53565b610d0f565b610cc2565b610c78565b610bed565b610b0c565b610aca565b610a94565b6109e0565b6109aa565b6108ec565b6107e8565b6107ae565b61070f565b60e01c90565b60405190565b5f80fd5b5f80fd5b5f80fd5b90565b61019081610184565b0361019757565b5f80fd5b905035906101a882610187565b565b906020828203126101c3576101c0915f0161019b565b90565b61017c565b90565b6101df6101da6101e492610184565b6101c8565b610184565b90565b906101f1906101cb565b5f5260205260405f2090565b5f1c90565b90565b610211610216916101fd565b610202565b90565b6102239054610205565b90565b60018060a01b031690565b61023d610242916101fd565b610226565b90565b61024f9054610231565b90565b634e487b7160e01b5f52602260045260245ffd5b9060016002830492168015610286575b602083101461028157565b610252565b91607f1691610276565b60209181520190565b5f5260205f2090565b905f92918054906102bc6102b583610266565b8094610290565b916001811690815f1461031357506001146102d7575b505050565b6102e49192939450610299565b915f925b8184106102fb57505001905f80806102d2565b600181602092959395548486015201910192906102e8565b92949550505060ff19168252151560200201905f80806102d2565b90610338916102a2565b90565b601f801991011690565b634e487b7160e01b5f52604160045260245ffd5b906103639061033b565b810190811067ffffffffffffffff82111761037d57604052565b610345565b906103a261039b92610392610172565b9384809261032e565b0383610359565b565b60ff1690565b6103b66103bb916101fd565b6103a4565b90565b6103c890546103aa565b90565b60081c90565b6103dd6103e2916103cb565b6103a4565b90565b6103ef90546103d1565b90565b60101c90565b610404610409916103f2565b610226565b90565b61041690546103f8565b90565b60209181520190565b5f5260205f2090565b905f929180549061044561043e83610266565b8094610419565b916001811690815f1461049c5750600114610460575b505050565b61046d9192939450610422565b915f925b81841061048457505001905f808061045b565b60018160209295939554848601520191019290610471565b92949550505060ff19168252151560200201905f808061045b565b906104c19161042b565b90565b906104e46104dd926104d4610172565b938480926104b7565b0383610359565b565b6104f19060056101e7565b6104fc5f8201610219565b9161050960018301610245565b9161051660028201610382565b9161052360038301610219565b9161053060048201610219565b9161053d60058301610219565b9161054a60068201610219565b91610557600783016103be565b91610564600782016103e5565b9161057d60086105766007850161040c565b93016104c4565b90565b61058990610184565b9052565b60018060a01b031690565b6105a19061058d565b90565b6105ad90610598565b9052565b5190565b60209181520190565b5f5b8381106105d0575050905f910152565b8060209183015181850152016105c0565b61060061060960209361060e936105f7816105b1565b938480936105b5565b958691016105be565b61033b565b0190565b151590565b61062090610612565b9052565b5190565b60209181520190565b61065061065960209361065e9361064781610624565b93848093610628565b958691016105be565b61033b565b0190565b989694929199979593996101608a01915f8b0161067e91610580565b60208a0161068b916105a4565b88810360408a015261069c916105e1565b97606088016106aa91610580565b608087016106b791610580565b60a086016106c491610580565b60c085016106d191610580565b60e084016106de91610617565b61010083016106ec91610617565b61012082016106fa916105a4565b80820390610140015261070c91610631565b90565b3461074c5761074861072a6107253660046101aa565b6104e6565b9761073f9b999b979197969296959395610172565b9b8c9b8c610662565b0390f35b610178565b5f91031261075b57565b61017c565b1c90565b6107749060086107799302610760565b610202565b90565b906107879154610764565b90565b61079660025f9061077c565b90565b91906107ac905f60208501940190610580565b565b346107de576107be366004610751565b6107da6107c961078a565b6107d1610172565b91829182610799565b0390f35b610178565b5f0190565b34610816576108006107fb3660046101aa565b611511565b610808610172565b80610812816107e3565b0390f35b610178565b61082481610598565b0361082b57565b5f80fd5b9050359061083c8261081b565b565b9190604083820312610866578061085a610863925f860161019b565b9360200161082f565b90565b61017c565b90610875906101cb565b5f5260205260405f2090565b61089561089061089a9261058d565b6101c8565b61058d565b90565b6108a690610881565b90565b6108b29061089d565b90565b906108bf906108a9565b5f5260205260405f2090565b6108e46108e9926108df6008935f9461086b565b6108b5565b61077c565b90565b3461091d5761091961090861090236600461083e565b906108cb565b610910610172565b91829182610799565b0390f35b610178565b9061092c906101cb565b5f5260205260405f2090565b90610942906108a9565b5f5260205260405f2090565b61095e9060086109639302610760565b6103a4565b90565b90610971915461094e565b90565b61098d610992926109886006935f94610922565b610938565b610966565b90565b91906109a8905f60208501940190610617565b565b346109db576109d76109c66109c036600461083e565b90610974565b6109ce610172565b91829182610995565b0390f35b610178565b34610a0e576109f86109f33660046101aa565b6117a3565b610a00610172565b80610a0a816107e3565b0390f35b610178565b5f80fd5b5f80fd5b5f80fd5b909182601f83011215610a595781359167ffffffffffffffff8311610a54576020019260018302840111610a4f57565b610a1b565b610a17565b610a13565b90602082820312610a8f575f82013567ffffffffffffffff8111610a8a57610a869201610a1f565b9091565b610180565b61017c565b34610ac557610ac1610ab0610aaa366004610a5e565b906117de565b610ab8610172565b91829182610799565b0390f35b610178565b34610af857610ada366004610751565b610ae2611836565b610aea610172565b80610af4816107e3565b0390f35b610178565b610b0960035f9061077c565b90565b34610b3c57610b1c366004610751565b610b38610b27610afd565b610b2f610172565b91829182610799565b0390f35b610178565b909182601f83011215610b7b5781359167ffffffffffffffff8311610b76576020019260018302840111610b7157565b610a1b565b610a17565b610a13565b9190606083820312610be8575f83013567ffffffffffffffff8111610be35781610bab918501610a1f565b929093610bbb836020830161082f565b92604082013567ffffffffffffffff8111610bde57610bda9201610b41565b9091565b610180565b610180565b61017c565b34610c2157610c1d610c0c610c03366004610b80565b93929092611915565b610c14610172565b91829182610799565b0390f35b610178565b7f000000000000000000000000000000000000000000000000000000000000000090565b610c539061089d565b90565b610c5f90610c4a565b9052565b9190610c76905f60208501940190610c56565b565b34610ca857610c88366004610751565b610ca4610c93610c26565b610c9b610172565b91829182610c63565b0390f35b610178565b9190610cc0905f602085019401906105a4565b565b34610cf257610cd2366004610751565b610cee610cdd611964565b610ce5610172565b91829182610cad565b0390f35b610178565b610d0c9160208201915f8184039101526105e1565b90565b34610d3f57610d3b610d2a610d253660046101aa565b611b7a565b610d32610172565b91829182610cf7565b0390f35b610178565b610d5060045f9061077c565b90565b34610d8357610d63366004610751565b610d7f610d6e610d44565b610d76610172565b91829182610799565b0390f35b610178565b610d9181610612565b03610d9857565b5f80fd5b90503590610da982610d88565b565b9190604083820312610dd35780610dc7610dd0925f860161019b565b93602001610d9c565b90565b61017c565b34610e0757610df1610deb366004610dab565b90611ed1565b610df9610172565b80610e03816107e3565b0390f35b610178565b610e1860015f9061077c565b90565b34610e4b57610e2b366004610751565b610e47610e36610e0c565b610e3e610172565b91829182610799565b0390f35b610178565b34610e7e57610e68610e633660046101aa565b612305565b610e70610172565b80610e7a816107e3565b0390f35b610178565b34610eb157610e9b610e963660046101aa565b612478565b610ea3610172565b80610ead816107e3565b0390f35b610178565b34610ee457610ece610ec93660046101aa565b6124dc565b610ed6610172565b80610ee0816107e3565b0390f35b610178565b90602082820312610f0257610eff915f0161082f565b90565b61017c565b34610f3557610f1f610f1a366004610ee9565b6125d2565b610f27610172565b80610f31816107e3565b0390f35b610178565b610f53610f5892610f4e6007935f94610922565b610938565b610966565b90565b34610f8c57610f88610f77610f7136600461083e565b90610f3a565b610f7f610172565b91829182610995565b0390f35b610178565b5f80fd5b90565b90565b610faf610faa610fb492610f98565b6101c8565b610184565b90565b5f7f50726f706f73616c206e6f7420666f756e640000000000000000000000000000910152565b610feb60126020926105b5565b610ff481610fb7565b0190565b61100d9060208101905f818303910152610fde565b90565b1561101757565b61101f610172565b62461bcd60e51b81528061103560048201610ff8565b0390fd5b5f7f566f74696e67206e6f7420656e64656400000000000000000000000000000000910152565b61106d60106020926105b5565b61107681611039565b0190565b61108f9060208101905f818303910152611060565b90565b1561109957565b6110a1610172565b62461bcd60e51b8152806110b76004820161107a565b0390fd5b5f7f416c726561647920657865637574656400000000000000000000000000000000910152565b6110ef60106020926105b5565b6110f8816110bb565b0190565b6111119060208101905f8183039101526110e2565b90565b1561111b57565b611123610172565b62461bcd60e51b815280611139600482016110fc565b0390fd5b5f7f50726f706f73616c2063616e63656c6564000000000000000000000000000000910152565b61117160116020926105b5565b61117a8161113d565b0190565b6111939060208101905f818303910152611164565b90565b1561119d57565b6111a5610172565b62461bcd60e51b8152806111bb6004820161117e565b0390fd5b634e487b7160e01b5f52601160045260245ffd5b6111e26111e891939293610184565b92610184565b82018092116111f357565b6111bf565b5f7f51756f72756d206e6f7420726561636865640000000000000000000000000000910152565b61122c60126020926105b5565b611235816111f8565b0190565b61124e9060208101905f81830391015261121f565b90565b1561125857565b611260610172565b62461bcd60e51b81528061127660048201611239565b0390fd5b5f7f50726f706f73616c2072656a6563746564000000000000000000000000000000910152565b6112ae60116020926105b5565b6112b78161127a565b0190565b6112d09060208101905f8183039101526112a1565b90565b156112da57565b6112e2610172565b62461bcd60e51b8152806112f8600482016112bb565b0390fd5b5f1b90565b9061130d60ff916112fc565b9181191691161790565b61132090610612565b90565b90565b9061133b61133661134292611317565b611323565b8254611301565b9055565b61135a61135561135f92610f98565b6101c8565b61058d565b90565b61136b90611346565b90565b6113789054610266565b90565b905090565b905f929180549061139a61139383610266565b809461137b565b916001811690815f146113ec57506001146113b5575b505050565b6113c29192939450610422565b5f905b8382106113d857505001905f80806113b0565b6001816020925484860152019101906113c5565b92949550505060ff191682528015150201905f80806113b0565b61140f91611380565b90565b9061142561141e610172565b9283610359565b565b67ffffffffffffffff81116114455761144160209161033b565b0190565b610345565b9061145c61145783611427565b611412565b918252565b606090565b3d5f14611481576114763d61144a565b903d5f602084013e5b565b611489611461565b9061147f565b5f7f457865637574696f6e206661696c656400000000000000000000000000000000910152565b6114c360106020926105b5565b6114cc8161148f565b0190565b6114e59060208101905f8183039101526114b6565b90565b156114ef57565b6114f7610172565b62461bcd60e51b81528061150d600482016114d0565b0390fd5b611525611520600583906101e7565b610f95565b61154c6115335f8301610219565b61154561153f5f610f9b565b91610184565b1415611010565b6115734361156d61156761156260068601610219565b610184565b91610184565b11611092565b61159061158b611585600784016103be565b15610612565b611114565b6115ad6115a86115a2600784016103e5565b15610612565b611196565b6115f36115d16115bf60038401610219565b6115cb60048501610219565b906111d3565b6115ec6115e66115e16003610219565b610184565b91610184565b1015611251565b61162561160260038301610219565b61161f61161961161460048601610219565b610184565b91610184565b116112d3565b611633600160078301611326565b61163f6007820161040c565b61165961165361164e5f611362565b610598565b91610598565b1415806116ec575b6116a9575b506116917f712ae1383f79ac853f8d882153778e0260ef8f03b504e2866e0593e04d2b291f916101cb565b9061169a610172565b806116a4816107e3565b0390a2565b5f80826116d48260086116c160076116e6980161040c565b93016116cb610172565b92839182611406565b03925af16116e0611466565b506114e8565b5f611666565b506116f96008820161136e565b61170b6117055f610f9b565b91610184565b11611661565b6117229061171d61265e565b61175d565b565b906117305f19916112fc565b9181191691161790565b90565b9061175261174d611759926101cb565b61173a565b8254611724565b9055565b61176881600361173d565b61179e7ff18f88786aae85a652aadb99a82462616489a33370c9bcc7b245906812ef7cd191611795610172565b91829182610799565b0390a1565b6117ac90611711565b565b5f90565b369037565b906117dc6117c48361144a565b926020806117d28693611427565b92019103906117b2565b565b9061180e916117eb6117ae565b50906117f65f611362565b906118086118035f610f9b565b6117b7565b92612cf8565b90565b61181961265e565b611821611823565b565b61183461182f5f611362565b612f5b565b565b61183e611811565b565b5f7f5461726765742072657175697265640000000000000000000000000000000000910152565b611874600f6020926105b5565b61187d81611840565b0190565b6118969060208101905f818303910152611867565b90565b156118a057565b6118a8610172565b62461bcd60e51b8152806118be60048201611881565b0390fd5b5f80fd5b90825f939282370152565b909291926118e66118e182611427565b611412565b9381855260208501908284011161190257611900926118c6565b565b6118c2565b6119129136916118d1565b90565b61195d9461195791949392946119296117ae565b5061194f8461194861194261193d5f611362565b610598565b91610598565b1415611899565b949293611907565b92612cf8565b90565b5f90565b61196c611960565b506119765f610245565b90565b606090565b67ffffffffffffffff811161199c5761199860209161033b565b0190565b610345565b906119b36119ae8361197e565b611412565b918252565b5f7f43616e63656c6564000000000000000000000000000000000000000000000000910152565b6119e960086119a1565b906119f6602083016119b8565b565b611a006119df565b90565b5f7f4578656375746564000000000000000000000000000000000000000000000000910152565b611a3460086119a1565b90611a4160208301611a03565b565b611a4b611a2a565b90565b5f7f50656e64696e6700000000000000000000000000000000000000000000000000910152565b611a7f60076119a1565b90611a8c60208301611a4e565b565b611a96611a75565b90565b5f7f4163746976650000000000000000000000000000000000000000000000000000910152565b611aca60066119a1565b90611ad760208301611a99565b565b611ae1611ac0565b90565b5f7f4465666561746564000000000000000000000000000000000000000000000000910152565b611b1560086119a1565b90611b2260208301611ae4565b565b611b2c611b0b565b90565b5f7f5375636365656465640000000000000000000000000000000000000000000000910152565b611b6060096119a1565b90611b6d60208301611b2f565b565b611b77611b56565b90565b611b91611b9691611b89611979565b5060056101e7565b610f95565b611bbd611ba45f8301610219565b611bb6611bb05f610f9b565b91610184565b1415611010565b611bc9600782016103e5565b611cd957611bd9600782016103be565b611ccd5743611bfb611bf5611bf060058501610219565b610184565b91610184565b10611cc15743611c1e611c18611c1360068501610219565b610184565b91610184565b1115611cb557611c45611c3360038301610219565b611c3f60048401610219565b906111d3565b611c60611c5a611c556003610219565b610184565b91610184565b10611ca957611c8e611c88611c836004611c7c60038601610219565b9401610219565b610184565b91610184565b11611c9e57611c9b611b24565b90565b611ca6611b6f565b90565b50611cb2611b24565b90565b50611cbe611ad9565b90565b50611cca611a8e565b90565b50611cd6611a43565b90565b50611ce26119f8565b90565b5f7f566f74696e6720636c6f73656400000000000000000000000000000000000000910152565b611d19600d6020926105b5565b611d2281611ce5565b0190565b611d3b9060208101905f818303910152611d0c565b90565b15611d4557565b611d4d610172565b62461bcd60e51b815280611d6360048201611d26565b0390fd5b5f7f416c726561647920766f74656400000000000000000000000000000000000000910152565b611d9b600d6020926105b5565b611da481611d67565b0190565b611dbd9060208101905f818303910152611d8e565b90565b15611dc757565b611dcf610172565b62461bcd60e51b815280611de560048201611da8565b0390fd5b60e01b90565b90505190611dfc82610187565b565b90602082820312611e1757611e14915f01611def565b90565b61017c565b611e24610172565b3d5f823e3d90fd5b5f7f4e6f20766f74696e6720706f7765720000000000000000000000000000000000910152565b611e60600f6020926105b5565b611e6981611e2c565b0190565b611e829060208101905f818303910152611e53565b90565b15611e8c57565b611e94610172565b62461bcd60e51b815280611eaa60048201611e6d565b0390fd5b916020611ecf929493611ec860408201965f830190610617565b0190610580565b565b90611ee6611ee1600584906101e7565b610f95565b91611f0e611ef55f8501610219565b611f07611f015f610f9b565b91610184565b1415611010565b43611f2c611f26611f2160058701610219565b610184565b91610184565b101580612199575b611f3d90611d3e565b611f6c611f67611f61611f5c611f5560068690610922565b3390610938565b6103be565b15610612565b611dc0565b611f89611f84611f7e600786016103e5565b15610612565b611196565b611fa7611fa2611f9b6008849061086b565b33906108b5565b610219565b611fb9611fb35f610f9b565b91610184565b146120d8575b611fdd611fd8611fd16008849061086b565b33906108b5565b610219565b92611ffa84611ff4611fee5f610f9b565b91610184565b11611e85565b61201a600161201561200e60068690610922565b3390610938565b611326565b6120398361203461202d60078690610922565b3390610938565b611326565b825f146120b2576120619061205b60038692019161205683610219565b6111d3565b9061173d565b5b3391926120986120927f7c2de587c00d75474a0c6c6fa96fd3b45dc974cd4e8a75f712bb84c950dce1b5936101cb565b936108a9565b936120ad6120a4610172565b92839283611eae565b0390a3565b6120d3906120cd6004869201916120c883610219565b6111d3565b9061173d565b612062565b61213060206121067f0000000000000000000000000000000000000000000000000000000000000000610c4a565b6370a08231906121253392612119610172565b95869485938493611de9565b835260048301610cad565b03915afa801561219457612161915f91612166575b5061215c6121556008859061086b565b33906108b5565b61173d565b611fbf565b612187915060203d811161218d575b61217f8183610359565b810190611dfe565b5f612145565b503d612175565b611e1c565b50611f3d436121bb6121b56121b060068801610219565b610184565b91610184565b11159050611f34565b5f7f4e6f7420617574686f72697a6564000000000000000000000000000000000000910152565b6121f8600e6020926105b5565b612201816121c4565b0190565b61221a9060208101905f8183039101526121eb565b90565b1561222457565b61222c610172565b62461bcd60e51b81528061224260048201612205565b0390fd5b5f7f416c72656164792063616e63656c656400000000000000000000000000000000910152565b61227a60106020926105b5565b61228381612246565b0190565b61229c9060208101905f81830391015261226d565b90565b156122a657565b6122ae610172565b62461bcd60e51b8152806122c460048201612287565b0390fd5b60081b90565b906122db61ff00916122c8565b9181191691161790565b906122fa6122f561230192611317565b611323565b82546122ce565b9055565b6123b761231c612317600584906101e7565b610f95565b61234361232a5f8301610219565b61233c6123365f610f9b565b91610184565b1415611010565b3361236161235b61235660018501610245565b610598565b91610598565b1480156123f9575b6123729061221d565b61238f61238a612384600784016103be565b15610612565b611114565b6123ac6123a76123a1600784016103e5565b15610612565b61229f565b6007600191016122e5565b6123e17f789cf55be980739dad1d0699b93b58e806b51c9d96619bfa8fe0a28abaa7b30c916101cb565b906123ea610172565b806123f4816107e3565b0390a2565b506123723361241761241161240c611964565b610598565b91610598565b149050612369565b6124309061242b61265e565b612432565b565b61243d81600261173d565b6124737f651c77f42613a075437aa794c44471e3abc3a661956a67aaee165bb7396974aa9161246a610172565b91829182610799565b0390a1565b6124819061241f565b565b6124949061248f61265e565b612496565b565b6124a181600461173d565b6124d77f75176781f69c55e26fee85d480452b0b9038b9428704bb7b232fc1c638bbf803916124ce610172565b91829182610799565b0390a1565b6124e590612483565b565b6124f8906124f361265e565b6125a2565b565b60207f6464726573730000000000000000000000000000000000000000000000000000917f4f776e61626c653a206e6577206f776e657220697320746865207a65726f20615f8201520152565b61255460266040926105b5565b61255d816124fa565b0190565b6125769060208101905f818303910152612547565b90565b1561258057565b612588610172565b62461bcd60e51b81528061259e60048201612561565b0390fd5b6125d0906125cb816125c46125be6125b95f611362565b610598565b91610598565b1415612579565b612f5b565b565b6125db906124e7565b565b5f7f4f776e61626c653a2063616c6c6572206973206e6f7420746865206f776e6572910152565b612610602080926105b5565b612619816125dd565b0190565b6126329060208101905f818303910152612604565b90565b1561263c57565b612644610172565b62461bcd60e51b81528061265a6004820161261d565b0390fd5b612688612669611964565b61268261267c612677612fba565b610598565b91610598565b14612635565b565b5f7f42656c6f772070726f706f73616c207468726573686f6c640000000000000000910152565b6126be60186020926105b5565b6126c78161268a565b0190565b6126e09060208101905f8183039101526126b1565b90565b156126ea57565b6126f2610172565b62461bcd60e51b815280612708600482016126cb565b0390fd5b61271590610184565b5f1981146127235760010190565b6111bf565b612733610160611412565b90565b9061274090610184565b9052565b9061274e90610598565b9052565b909291926127676127628261197e565b611412565b9381855260208501908284011161278357612781926118c6565b565b6118c2565b612793913691612752565b90565b52565b906127a390610612565b9052565b52565b6127b49051610184565b90565b6127c19051610598565b90565b906127d560018060a01b03916112fc565b9181191691161790565b90565b906127f76127f26127fe926108a9565b6127df565b82546127c4565b9055565b5190565b601f602091010490565b1b90565b9190600861282f9102916128295f1984612810565b92612810565b9181191691161790565b919061284f61284a612857936101cb565b61173a565b908354612814565b9055565b61286d916128676117ae565b91612839565b565b5b81811061287b575050565b806128885f60019361285b565b01612870565b9190601f811161289e575b505050565b6128aa6128cf93610299565b9060206128b684612806565b830193106128d7575b6128c890612806565b019061286f565b5f8080612899565b91506128c8819290506128bf565b906128f5905f1990600802610760565b191690565b81612904916128e5565b906002021790565b90612916816105b1565b9067ffffffffffffffff82116129d65761293a826129348554610266565b8561288e565b602090601f831160011461296e5791809161295d935f92612962575b50506128fa565b90555b565b90915001515f80612956565b601f1983169161297d85610299565b925f5b8181106129be575091600293918560019694106129a4575b50505002019055612960565b6129b4910151601f8416906128e5565b90555f8080612998565b91936020600181928787015181550195019201612980565b610345565b906129e59161290c565b565b6129f19051610612565b90565b60101b90565b90612a0e62010000600160b01b03916129f4565b9181191691161790565b90612a2d612a28612a34926108a9565b6127df565b82546129fa565b9055565b5190565b9190601f8111612a4c575b505050565b612a58612a7d93610422565b906020612a6484612806565b83019310612a85575b612a7690612806565b019061286f565b5f8080612a47565b9150612a7681929050612a6d565b90612a9d81610624565b9067ffffffffffffffff8211612b5d57612ac182612abb8554610266565b85612a3c565b602090601f8311600114612af557918091612ae4935f92612ae9575b50506128fa565b90555b565b90915001515f80612add565b601f19831691612b0485610422565b925f5b818110612b4557509160029391856001969410612b2b575b50505002019055612ae7565b612b3b910151601f8416906128e5565b90555f8080612b1f565b91936020600181928787015181550195019201612b07565b610345565b90612b6c91612a93565b565b90612c7d6101406008612c8394612b925f8201612b8c5f88016127aa565b9061173d565b612bab60018201612ba5602088016127b7565b906127e2565b612bc460028201612bbe60408801612802565b906129db565b612bdd60038201612bd7606088016127aa565b9061173d565b612bf660048201612bf0608088016127aa565b9061173d565b612c0f60058201612c0960a088016127aa565b9061173d565b612c2860068201612c2260c088016127aa565b9061173d565b612c4160078201612c3b60e088016129e7565b90611326565b612c5b60078201612c5561010088016129e7565b906122e5565b612c7560078201612c6f61012088016127b7565b90612a18565b019201612a38565b90612b62565b565b90612c8f91612b6e565b565b9190612cab81612ca481612cb0956105b5565b80956118c6565b61033b565b0190565b90612ce4612cef91612cf696989795606095612cd760808701935f8801906105a4565b8583036020870152612c91565b966040830190610580565b0190610580565b565b919290612d036117ae565b50612d5c6020612d327f0000000000000000000000000000000000000000000000000000000000000000610c4a565b6370a0823190612d513392612d45610172565b95869485938493611de9565b835260048301610cad565b03915afa908115612f56575f91612f28575b50612d796004610219565b612d8290610184565b90612d8c90610184565b1015612d97906126e3565b612da16001610219565b612daa9061270c565b612db590600161173d565b439143612dc26002610219565b612dcb916111d3565b94612dd66001610219565b9133918685905f8089918c935f955f979899612df0612728565b9b5f8d0190612dfe91612736565b60208c0190612e0c91612744565b612e1591612788565b60408a0190612e2391612796565b612e2c90610f9b565b6060890190612e3a91612736565b612e4390610f9b565b6080880190612e5191612736565b60a0870190612e5f91612736565b60c0860190612e6d91612736565b60e0850190612e7b91612799565b610100840190612e8a91612799565b610120830190612e9991612744565b610140820190612ea8916127a7565b6005612eb46001610219565b612ebd916101e7565b90612ec791612c85565b612ed16001610219565b9233909192947f6c98a8c940418b35614f0cd02412d5c9606faff474cbb6cdd6640ba5d1a9f06b94612f02906101cb565b95612f0b610172565b948594612f189486612cb4565b0390a2612f256001610219565b90565b612f49915060203d8111612f4f575b612f418183610359565b810190611dfe565b5f612d6e565b503d612f37565b611e1c565b612f645f610245565b612f6e825f6127e2565b90612fa2612f9c7f8be0079c531659141344cd1fd0a4f28419497f9722a3daafe3b4186f6b6457e0936108a9565b916108a9565b91612fab610172565b80612fb5816107e3565b0390a3565b612fc2611960565b50339056fea26469706673582212203f24ff093f9f5859bc34cd8358f1cc97ae3872609bba372b7d47497ae62334cd64736f6c63430008180033",
  "linkReferences": {},
  "deployedLinkReferences": {},
  "immutableReferences": {
    "6773": [
      {
        "length": 32,
        "start": 3112
      },
      {
        "length": 32,
        "start": 8418
      },
      {
        "length": 32,
        "start": 11534
      }
    ]
  },
  "inputSourceName": "project/contracts/Governance.sol",
  "buildInfoId": "solc-0_8_24-cc675b33e49a67cb8d3ef1d7d739e37ebfe63353"
}