{
  "_format": "hh3-artifact-1",
  "contractName": "GameLogic",
  "sourceName": "contracts/GameLogic.sol",
  "abi": [
    {
      "inputs": [
        {
          "internalType": "address",
          "name": "_gameItem",
          "type": "address"
        }
      ],
      "stateMutability": "nonpayable",
      "type": "constructor"
    },
    {
      "anonymous": false,
      "inputs": [
        {
          "indexed": true,
          "internalType": "address",
          "name": "player",
          "type": "address"
        },
        {
          "indexed": false,
          "internalType": "uint256",
          "name": "tokenId",
          "type": "uint256"
        },
        {
          "indexed": false,
          "internalType": "string",
          "name": "uri",
          "type": "string"
        }
      ],
      "name": "ItemMinted",
      "type": "event"
    },
    {
      "anonymous": false,
      "inputs": [
        {
          "indexed": true,
          "internalType": "address",
          "name": "player",
          "type": "address"
        },
        {
          "indexed": false,
          "internalType": "uint256",
          "name": "tokenId",
          "type": "uint256"
        },
        {
          "indexed": false,
          "internalType": "uint8",
          "name": "newLevel",
          "type": "uint8"
        }
      ],
      "name": "ItemUpgraded",
      "type": "event"
    },
    {
      "anonymous": false,
      "inputs": [
        {
          "indexed": true,
          "internalType": "address",
          "name": "previousOwner",
          "type": "address"
        },
        {
          "indexed": true,
          "internalType": "address",
          "name": "newOwner",
          "type": "address"
        }
      ],
      "name": "OwnershipTransferred",
      "type": "event"
    },
    {
      "anonymous": false,
      "inputs": [
        {
          "indexed": true,
          "internalType": "address",
          "name": "player",
          "type": "address"
        },
        {
          "indexed": false,
          "internalType": "uint256",
          "name": "amount",
          "type": "uint256"
        },
        {
          "indexed": false,
          "internalType": "uint256",
          "name": "total",
          "type": "uint256"
        }
      ],
      "name": "XPGained",
      "type": "event"
    },
    {
      "anonymous": false,
      "inputs": [
        {
          "indexed": true,
          "internalType": "address",
          "name": "player",
          "type": "address"
        },
        {
          "indexed": false,
          "internalType": "uint256",
          "name": "amount",
          "type": "uint256"
        },
        {
          "indexed": false,
          "internalType": "uint256",
          "name": "remaining",
          "type": "uint256"
        }
      ],
      "name": "XPSpent",
      "type": "event"
    },
    {
      "inputs": [],
      "name": "gameItem",
      "outputs": [
        {
          "internalType": "contract GameItem",
          "name": "",
          "type": "address"
        }
      ],
      "stateMutability": "view",
      "type": "function"
    },
    {
      "inputs": [
        {
          "internalType": "address",
          "name": "player",
          "type": "address"
        },
        {
          "internalType": "uint256",
          "name": "amount",
          "type": "uint256"
        }
      ],
      "name": "grantXP",
      "outputs": [],
      "stateMutability": "nonpayable",
      "type": "function"
    },
    {
      "inputs": [
        {
          "internalType": "uint256",
          "name": "",
          "type": "uint256"
        }
      ],
      "name": "itemLevel",
      "outputs": [
        {
          "internalType": "uint8",
          "name": "",
          "type": "uint8"
        }
      ],
      "stateMutability": "view",
      "type": "function"
    },
    {
      "inputs": [
        {
          "internalType": "address",
          "name": "to",
          "type": "address"
        },
        {
          "internalType": "string",
          "name": "uri",
          "type": "string"
        },
        {
          "internalType": "uint256",
          "name": "initialXP",
          "type": "uint256"
        }
      ],
      "name": "mintItem",
      "outputs": [
        {
          "internalType": "uint256",
          "name": "tokenId",
          "type": "uint256"
        }
      ],
      "stateMutability": "nonpayable",
      "type": "function"
    },
    {
      "inputs": [],
      "name": "owner",
      "outputs": [
        {
          "internalType": "address",
          "name": "",
          "type": "address"
        }
      ],
      "stateMutability": "view",
      "type": "function"
    },
    {
      "inputs": [],
      "name": "renounceOwnership",
      "outputs": [],
      "stateMutability": "nonpayable",
      "type": "function"
    },
    {
      "inputs": [
        {
          "internalType": "address",
          "name": "player",
          "type": "address"
        },
        {
          "internalType": "uint256",
          "name": "amount",
          "type": "uint256"
        }
      ],
      "name": "spendXP",
      "outputs": [],
      "stateMutability": "nonpayable",
      "type": "function"
    },
    {
      "inputs": [
        {
          "internalType": "address",
          "name": "newOwner",
          "type": "address"
        }
      ],
      "name": "transferOwnership",
      "outputs": [],
      "stateMutability": "nonpayable",
      "type": "function"
    },
    {
      "inputs": [
        {
          "internalType": "uint256",
          "name": "tokenId",
          "type": "uint256"
        },
        {
          "internalType": "uint256",
          "name": "xpCost",
          "type": "uint256"
        }
      ],
      "name": "upgradeItem",
      "outputs": [],
      "stateMutability": "nonpayable",
      "type": "function"
    },
    {
      "inputs": [
        {
          "internalType": "address",
          "name": "",
          "type": "address"
        }
      ],
      "name": "xpBalance",
      "outputs": [
        {
          "internalType": "uint256",
          "name": "",
          "type": "uint256"
        }
      ],
      "stateMutability": "view",
      "type": "function"
    }
  ],
  "bytecode": "0x60a0604052346200004e576200001e6200001862000127565b62000257565b6200002862000054565b611319620003d6823960805181818161020c01528181610b5d0152611067015261131990f35b6200005a565b60405190565b5f80fd5b601f801991011690565b634e487b7160e01b5f52604160045260245ffd5b9062000088906200005e565b810190811060018060401b03821117620000a157604052565b62000068565b90620000be620000b662000054565b92836200007c565b565b5f80fd5b60018060a01b031690565b620000da90620000c4565b90565b620000e881620000cf565b03620000f057565b5f80fd5b905051906200010382620000dd565b565b9060208282031262000121576200011e915f01620000f4565b90565b620000c0565b6200014a620016ef803803806200013e81620000a7565b92833981019062000105565b90565b90565b90565b6200016c6200016662000172926200014d565b62000150565b620000c4565b90565b620001809062000153565b90565b60209181520190565b5f7f47616d654974656d2061646472657373207a65726f0000000000000000000000910152565b620001c2601560209262000183565b620001cd816200018c565b0190565b620001e89060208101905f818303910152620001b3565b90565b15620001f357565b620001fd62000054565b62461bcd60e51b8152806200021560048201620001d1565b0390fd5b620002326200022c6200023892620000c4565b62000150565b620000c4565b90565b620002469062000219565b90565b62000254906200023b565b90565b6200029990620002666200029e565b62000293816200028b620002846200027e5f62000175565b620000cf565b91620000cf565b1415620001eb565b62000249565b608052565b620002b2620002ac620002b8565b6200036a565b565b5f90565b620002c2620002b4565b503390565b5f1c90565b60018060a01b031690565b620002e6620002ec91620002c7565b620002cc565b90565b620002fb9054620002d7565b90565b5f1b90565b906200031660018060a01b0391620002fe565b9181191691161790565b6200032b9062000219565b90565b620003399062000320565b90565b90565b90620003596200035362000361926200032e565b6200033c565b825462000303565b9055565b5f0190565b620003755f620002ef565b62000381825f6200033f565b90620003b9620003b27f8be0079c531659141344cd1fd0a4f28419497f9722a3daafe3b4186f6b6457e0936200032e565b916200032e565b91620003c462000054565b80620003d08162000365565b0390a356fe60806040526004361015610013575b6106f0565b61001d5f356100bc565b80630551e88d146100b75780632500eacc146100b25780635e8e9cd6146100ad578063715018a6146100a85780638da5cb5b146100a35780639b72f1c11461009e578063c1442fff14610099578063cc6ace0314610094578063f2fde38b1461008f5763fe0f75070361000e576106ba565b610549565b610514565b610423565b6103ee565b610311565b6102bc565b610287565b6101c7565b610166565b60e01c90565b60405190565b5f80fd5b5f80fd5b5f80fd5b60018060a01b031690565b6100e8906100d4565b90565b6100f4816100df565b036100fb57565b5f80fd5b9050359061010c826100eb565b565b90565b61011a8161010e565b0361012157565b5f80fd5b9050359061013282610111565b565b919060408382031261015c5780610150610159925f86016100ff565b93602001610125565b90565b6100cc565b5f0190565b346101955761017f610179366004610134565b90610925565b6101876100c2565b8061019181610161565b0390f35b6100c8565b91906040838203126101c257806101b66101bf925f8601610125565b93602001610125565b90565b6100cc565b346101f6576101e06101da36600461019a565b90610b52565b6101e86100c2565b806101f281610161565b0390f35b6100c8565b5f91031261020557565b6100cc565b7f000000000000000000000000000000000000000000000000000000000000000090565b90565b61024561024061024a926100d4565b61022e565b6100d4565b90565b61025690610231565b90565b6102629061024d565b90565b61026e90610259565b9052565b9190610285905f60208501940190610265565b565b346102b7576102973660046101fb565b6102b36102a261020a565b6102aa6100c2565b91829182610272565b0390f35b6100c8565b346102ea576102cc3660046101fb565b6102d4610d46565b6102dc6100c2565b806102e681610161565b0390f35b6100c8565b6102f8906100df565b9052565b919061030f905f602085019401906102ef565b565b34610341576103213660046101fb565b61033d61032c610d80565b6103346100c2565b918291826102fc565b0390f35b6100c8565b9060208282031261035f5761035c915f016100ff565b90565b6100cc565b61036d9061024d565b90565b9061037a90610364565b5f5260205260405f2090565b1c90565b90565b61039d9060086103a29302610386565b61038a565b90565b906103b0915461038d565b90565b6103c9906103c46001915f92610370565b6103a5565b90565b6103d59061010e565b9052565b91906103ec905f602085019401906103cc565b565b3461041e5761041a610409610404366004610346565b6103b3565b6104116100c2565b918291826103d9565b0390f35b6100c8565b346104525761043c610436366004610134565b90610e52565b6104446100c2565b8061044e81610161565b0390f35b6100c8565b906020828203126104705761046d915f01610125565b90565b6100cc565b61048961048461048e9261010e565b61022e565b61010e565b90565b9061049b90610475565b5f5260205260405f2090565b60ff1690565b6104bd9060086104c29302610386565b6104a7565b90565b906104d091546104ad565b90565b6104e9906104e46002915f92610491565b6104c5565b90565b60ff1690565b6104fb906104ec565b9052565b9190610512905f602085019401906104f2565b565b346105445761054061052f61052a366004610457565b6104d3565b6105376100c2565b918291826104ff565b0390f35b6100c8565b346105775761056161055c366004610346565b610f49565b6105696100c2565b8061057381610161565b0390f35b6100c8565b5f80fd5b5f80fd5b601f801991011690565b634e487b7160e01b5f52604160045260245ffd5b906105ac90610584565b810190811067ffffffffffffffff8211176105c657604052565b61058e565b906105de6105d76100c2565b92836105a2565b565b67ffffffffffffffff81116105fe576105fa602091610584565b0190565b61058e565b90825f939282370152565b9092919261062361061e826105e0565b6105cb565b9381855260208501908284011161063f5761063d92610603565b565b610580565b9080601f830112156106625781602061065f9335910161060e565b90565b61057c565b90916060828403126106b55761067f835f84016100ff565b9260208301359067ffffffffffffffff82116106b0576106a4816106ad938601610644565b93604001610125565b90565b6100d0565b6100cc565b346106eb576106e76106d66106d0366004610667565b91611176565b6106de6100c2565b918291826103d9565b0390f35b6100c8565b5f80fd5b906107069161070161120d565b61087e565b565b90565b61071f61071a61072492610708565b61022e565b6100d4565b90565b6107309061070b565b90565b60209181520190565b5f7f5a65726f20616464726573730000000000000000000000000000000000000000910152565b610770600c602092610733565b6107798161073c565b0190565b6107929060208101905f818303910152610763565b90565b1561079c57565b6107a46100c2565b62461bcd60e51b8152806107ba6004820161077d565b0390fd5b5f1c90565b6107cf6107d4916107be565b61038a565b90565b6107e190546107c3565b90565b634e487b7160e01b5f52601160045260245ffd5b61080761080d9193929361010e565b9261010e565b820180921161081857565b6107e4565b5f1b90565b9061082e5f199161081d565b9181191691161790565b90565b9061085061084b61085792610475565b610838565b8254610822565b9055565b91602061087c92949361087560408201965f8301906103cc565b01906103cc565b565b906108a48261089d6108976108925f610727565b6100df565b916100df565b1415610795565b6108cc816108c66108b760018690610370565b916108c1836107d7565b6107f8565b9061083b565b6108e16108dc8392936001610370565b6107d7565b61090b7f018fb4e3082b6ab8359296d38dbbabea72e8c0f7b492f7d9a9cc0854b365eff292610364565b926109206109176100c2565b9283928361085b565b0390a2565b9061092f916106f4565b565b60e01b90565b90505190610944826100eb565b565b9060208282031261095f5761095c915f01610937565b90565b6100cc565b61096c6100c2565b3d5f823e3d90fd5b5f7f4e6f74206974656d206f776e6572000000000000000000000000000000000000910152565b6109a8600e602092610733565b6109b181610974565b0190565b6109ca9060208101905f81830391015261099b565b90565b156109d457565b6109dc6100c2565b62461bcd60e51b8152806109f2600482016109b5565b0390fd5b5f7f496e73756666696369656e742058500000000000000000000000000000000000910152565b610a2a600f602092610733565b610a33816109f6565b0190565b610a4c9060208101905f818303910152610a1d565b90565b15610a5657565b610a5e6100c2565b62461bcd60e51b815280610a7460048201610a37565b0390fd5b610a87610a8d9193929361010e565b9261010e565b8203918211610a9857565b6107e4565b610aa9610aae916107be565b6104a7565b90565b610abb9054610a9d565b90565b610ac7906104ec565b60ff8114610ad55760010190565b6107e4565b90610ae660ff9161081d565b9181191691161790565b610b04610aff610b09926104ec565b61022e565b6104ec565b90565b90565b90610b24610b1f610b2b92610af0565b610b0c565b8254610ada565b9055565b916020610b50929493610b4960408201965f8301906103cc565b01906104f2565b565b90610bab6020610b817f0000000000000000000000000000000000000000000000000000000000000000610259565b636352211e90610ba08692610b946100c2565b95869485938493610931565b8352600483016103d9565b03915afa8015610d1c57610bd9915f91610cee575b50610bd3610bcd336100df565b916100df565b146109cd565b610c28610c17610bf3610bee60013390610370565b6107d7565b610c1081610c09610c038761010e565b9161010e565b1015610a4f565b8390610a78565b610c2360013390610370565b61083b565b33610c3d610c3860013390610370565b6107d7565b610c677f44b283a234156030adfb0466f3245047a25246498f69b08f363513cdb6fed36c92610364565b92610c7c610c736100c2565b9283928361085b565b0390a2610c8b60028290610491565b610ca6610c9f610c9a83610ab1565b610abe565b8092610b0f565b90339091610cd47f9e16fe98daf9ffc5a41b550582c3980004f6720b94040dd500fc93677571a1e292610364565b92610ce9610ce06100c2565b92839283610b2f565b0390a2565b610d0f915060203d8111610d15575b610d0781836105a2565b810190610946565b5f610bc0565b503d610cfd565b610964565b610d2961120d565b610d31610d33565b565b610d44610d3f5f610727565b611277565b565b610d4e610d21565b565b5f90565b60018060a01b031690565b610d6b610d70916107be565b610d54565b90565b610d7d9054610d5f565b90565b610d88610d50565b50610d925f610d73565b90565b90610da791610da261120d565b610da9565b565b90610df9610de8610dc4610dbf60018690610370565b6107d7565b610de181610dda610dd48761010e565b9161010e565b1015610a4f565b8390610a78565b610df460018590610370565b61083b565b610e0e610e098392936001610370565b6107d7565b610e387f44b283a234156030adfb0466f3245047a25246498f69b08f363513cdb6fed36c92610364565b92610e4d610e446100c2565b9283928361085b565b0390a2565b90610e5c91610d95565b565b610e6f90610e6a61120d565b610f19565b565b60207f6464726573730000000000000000000000000000000000000000000000000000917f4f776e61626c653a206e6577206f776e657220697320746865207a65726f20615f8201520152565b610ecb6026604092610733565b610ed481610e71565b0190565b610eed9060208101905f818303910152610ebe565b90565b15610ef757565b610eff6100c2565b62461bcd60e51b815280610f1560048201610ed8565b0390fd5b610f4790610f4281610f3b610f35610f305f610727565b6100df565b916100df565b1415610ef0565b611277565b565b610f5290610e5e565b565b5f90565b90610f6c939291610f6761120d565b61105c565b90565b90505190610f7c82610111565b565b90602082820312610f9757610f94915f01610f6f565b90565b6100cc565b5190565b5f5b838110610fb2575050905f910152565b806020918301518185015201610fa2565b610fe2610feb602093610ff093610fd981610f9c565b93848093610733565b95869101610fa0565b610584565b0190565b916110179261100a60408201935f8301906102ef565b6020818403910152610fc3565b90565b9161103d9261103060408201935f8301906103cc565b6020818403910152610fc3565b90565b61105461104f61105992610708565b61022e565b61010e565b90565b93929091935061108b7f0000000000000000000000000000000000000000000000000000000000000000610259565b602063d0def5219184906110b25f89956110bd6110a66100c2565b97889687958694610931565b845260048401610ff4565b03925af1908115611171575f91611143575b50938285916110fe7f9aad673c07866c8b5f7049a3b0a7e8091c80c3685b33244faf2bb621f050fdd792610364565b9261111361110a6100c2565b9283928361101a565b0390a2806111296111235f611040565b9161010e565b11611133575b5050565b61113c91610925565b5f8061112f565b611164915060203d811161116a575b61115c81836105a2565b810190610f7e565b5f6110cf565b503d611152565b610964565b906111899291611184610f54565b610f58565b90565b5f7f4f776e61626c653a2063616c6c6572206973206e6f7420746865206f776e6572910152565b6111bf60208092610733565b6111c88161118c565b0190565b6111e19060208101905f8183039101526111b3565b90565b156111eb57565b6111f36100c2565b62461bcd60e51b815280611209600482016111cc565b0390fd5b611237611218610d80565b61123161122b6112266112d6565b6100df565b916100df565b146111e4565b565b9061124a60018060a01b039161081d565b9181191691161790565b90565b9061126c61126761127392610364565b611254565b8254611239565b9055565b6112805f610d73565b61128a825f611257565b906112be6112b87f8be0079c531659141344cd1fd0a4f28419497f9722a3daafe3b4186f6b6457e093610364565b91610364565b916112c76100c2565b806112d181610161565b0390a3565b6112de610d50565b50339056fea26469706673582212200f76223c56084674683e9d343151666c3a2fcf881b3609b06c8942d0fcf6e55164736f6c63430008180033",
  "linkReferences": {},
  "deployedLinkReferences": {},
  "immutableReferences": {
    "3042": [
      {
        "length": 32,
        "start": 524
      },
      {
        "length": 32,
        "start": 2909
      },
      {
        "length": 32,
        "start": 4199
      }
    ]
  },
  "inputSourceName": "project/contracts/GameLogic.sol",
  "buildInfoId": "solc-0_8_24-b04ee35c46fefe9c1650a2ebb2aee8f3524c6ea6"
}