{
  "_format": "hh3-artifact-1",
  "contractName": "EduToken",
  "sourceName": "contracts/EduToken.sol",
  "abi": [
    {
      "inputs": [],
      "stateMutability": "nonpayable",
      "type": "constructor"
    },
    {
      "inputs": [],
      "name": "InvalidShortString",
      "type": "error"
    },
    {
      "inputs": [
        {
          "internalType": "string",
          "name": "str",
          "type": "string"
        }
      ],
      "name": "StringTooLong",
      "type": "error"
    },
    {
      "anonymous": false,
      "inputs": [
        {
          "indexed": true,
          "internalType": "address",
          "name": "account",
          "type": "address"
        }
      ],
      "name": "AddressBlocked",
      "type": "event"
    },
    {
      "anonymous": false,
      "inputs": [
        {
          "indexed": true,
          "internalType": "address",
          "name": "account",
          "type": "address"
        }
      ],
      "name": "AddressUnblocked",
      "type": "event"
    },
    {
      "anonymous": false,
      "inputs": [
        {
          "indexed": true,
          "internalType": "address",
          "name": "owner",
          "type": "address"
        },
        {
          "indexed": true,
          "internalType": "address",
          "name": "spender",
          "type": "address"
        },
        {
          "indexed": false,
          "internalType": "uint256",
          "name": "value",
          "type": "uint256"
        }
      ],
      "name": "Approval",
      "type": "event"
    },
    {
      "anonymous": false,
      "inputs": [
        {
          "indexed": false,
          "internalType": "uint256",
          "name": "day",
          "type": "uint256"
        }
      ],
      "name": "DailyMintCapReset",
      "type": "event"
    },
    {
      "anonymous": false,
      "inputs": [],
      "name": "EIP712DomainChanged",
      "type": "event"
    },
    {
      "anonymous": false,
      "inputs": [
        {
          "indexed": false,
          "internalType": "address",
          "name": "account",
          "type": "address"
        }
      ],
      "name": "Paused",
      "type": "event"
    },
    {
      "anonymous": false,
      "inputs": [
        {
          "indexed": true,
          "internalType": "bytes32",
          "name": "role",
          "type": "bytes32"
        },
        {
          "indexed": true,
          "internalType": "bytes32",
          "name": "previousAdminRole",
          "type": "bytes32"
        },
        {
          "indexed": true,
          "internalType": "bytes32",
          "name": "newAdminRole",
          "type": "bytes32"
        }
      ],
      "name": "RoleAdminChanged",
      "type": "event"
    },
    {
      "anonymous": false,
      "inputs": [
        {
          "indexed": true,
          "internalType": "bytes32",
          "name": "role",
          "type": "bytes32"
        },
        {
          "indexed": true,
          "internalType": "address",
          "name": "account",
          "type": "address"
        },
        {
          "indexed": true,
          "internalType": "address",
          "name": "sender",
          "type": "address"
        }
      ],
      "name": "RoleGranted",
      "type": "event"
    },
    {
      "anonymous": false,
      "inputs": [
        {
          "indexed": true,
          "internalType": "bytes32",
          "name": "role",
          "type": "bytes32"
        },
        {
          "indexed": true,
          "internalType": "address",
          "name": "account",
          "type": "address"
        },
        {
          "indexed": true,
          "internalType": "address",
          "name": "sender",
          "type": "address"
        }
      ],
      "name": "RoleRevoked",
      "type": "event"
    },
    {
      "anonymous": false,
      "inputs": [
        {
          "indexed": true,
          "internalType": "address",
          "name": "from",
          "type": "address"
        },
        {
          "indexed": true,
          "internalType": "address",
          "name": "to",
          "type": "address"
        },
        {
          "indexed": false,
          "internalType": "uint256",
          "name": "value",
          "type": "uint256"
        }
      ],
      "name": "Transfer",
      "type": "event"
    },
    {
      "anonymous": false,
      "inputs": [
        {
          "indexed": false,
          "internalType": "address",
          "name": "account",
          "type": "address"
        }
      ],
      "name": "Unpaused",
      "type": "event"
    },
    {
      "inputs": [],
      "name": "DAILY_MINT_CAP",
      "outputs": [
        {
          "internalType": "uint256",
          "name": "",
          "type": "uint256"
        }
      ],
      "stateMutability": "view",
      "type": "function"
    },
    {
      "inputs": [],
      "name": "DEFAULT_ADMIN_ROLE",
      "outputs": [
        {
          "internalType": "bytes32",
          "name": "",
          "type": "bytes32"
        }
      ],
      "stateMutability": "view",
      "type": "function"
    },
    {
      "inputs": [],
      "name": "DOMAIN_SEPARATOR",
      "outputs": [
        {
          "internalType": "bytes32",
          "name": "",
          "type": "bytes32"
        }
      ],
      "stateMutability": "view",
      "type": "function"
    },
    {
      "inputs": [],
      "name": "MAX_SUPPLY",
      "outputs": [
        {
          "internalType": "uint256",
          "name": "",
          "type": "uint256"
        }
      ],
      "stateMutability": "view",
      "type": "function"
    },
    {
      "inputs": [],
      "name": "MINTER_ROLE",
      "outputs": [
        {
          "internalType": "bytes32",
          "name": "",
          "type": "bytes32"
        }
      ],
      "stateMutability": "view",
      "type": "function"
    },
    {
      "inputs": [],
      "name": "PAUSER_ROLE",
      "outputs": [
        {
          "internalType": "bytes32",
          "name": "",
          "type": "bytes32"
        }
      ],
      "stateMutability": "view",
      "type": "function"
    },
    {
      "inputs": [
        {
          "internalType": "address",
          "name": "owner",
          "type": "address"
        },
        {
          "internalType": "address",
          "name": "spender",
          "type": "address"
        }
      ],
      "name": "allowance",
      "outputs": [
        {
          "internalType": "uint256",
          "name": "",
          "type": "uint256"
        }
      ],
      "stateMutability": "view",
      "type": "function"
    },
    {
      "inputs": [
        {
          "internalType": "address",
          "name": "spender",
          "type": "address"
        },
        {
          "internalType": "uint256",
          "name": "amount",
          "type": "uint256"
        }
      ],
      "name": "approve",
      "outputs": [
        {
          "internalType": "bool",
          "name": "",
          "type": "bool"
        }
      ],
      "stateMutability": "nonpayable",
      "type": "function"
    },
    {
      "inputs": [
        {
          "internalType": "address",
          "name": "account",
          "type": "address"
        }
      ],
      "name": "balanceOf",
      "outputs": [
        {
          "internalType": "uint256",
          "name": "",
          "type": "uint256"
        }
      ],
      "stateMutability": "view",
      "type": "function"
    },
    {
      "inputs": [
        {
          "internalType": "address[]",
          "name": "recipients",
          "type": "address[]"
        },
        {
          "internalType": "uint256[]",
          "name": "amounts",
          "type": "uint256[]"
        }
      ],
      "name": "batchMint",
      "outputs": [],
      "stateMutability": "nonpayable",
      "type": "function"
    },
    {
      "inputs": [
        {
          "internalType": "address",
          "name": "account",
          "type": "address"
        }
      ],
      "name": "blockAddress",
      "outputs": [],
      "stateMutability": "nonpayable",
      "type": "function"
    },
    {
      "inputs": [
        {
          "internalType": "address",
          "name": "",
          "type": "address"
        }
      ],
      "name": "blocked",
      "outputs": [
        {
          "internalType": "bool",
          "name": "",
          "type": "bool"
        }
      ],
      "stateMutability": "view",
      "type": "function"
    },
    {
      "inputs": [
        {
          "internalType": "uint256",
          "name": "amount",
          "type": "uint256"
        }
      ],
      "name": "burn",
      "outputs": [],
      "stateMutability": "nonpayable",
      "type": "function"
    },
    {
      "inputs": [
        {
          "internalType": "address",
          "name": "account",
          "type": "address"
        },
        {
          "internalType": "uint256",
          "name": "amount",
          "type": "uint256"
        }
      ],
      "name": "burnFrom",
      "outputs": [],
      "stateMutability": "nonpayable",
      "type": "function"
    },
    {
      "inputs": [],
      "name": "dailyMinted",
      "outputs": [
        {
          "internalType": "uint256",
          "name": "",
          "type": "uint256"
        }
      ],
      "stateMutability": "view",
      "type": "function"
    },
    {
      "inputs": [],
      "name": "decimals",
      "outputs": [
        {
          "internalType": "uint8",
          "name": "",
          "type": "uint8"
        }
      ],
      "stateMutability": "view",
      "type": "function"
    },
    {
      "inputs": [
        {
          "internalType": "address",
          "name": "spender",
          "type": "address"
        },
        {
          "internalType": "uint256",
          "name": "subtractedValue",
          "type": "uint256"
        }
      ],
      "name": "decreaseAllowance",
      "outputs": [
        {
          "internalType": "bool",
          "name": "",
          "type": "bool"
        }
      ],
      "stateMutability": "nonpayable",
      "type": "function"
    },
    {
      "inputs": [],
      "name": "eip712Domain",
      "outputs": [
        {
          "internalType": "bytes1",
          "name": "fields",
          "type": "bytes1"
        },
        {
          "internalType": "string",
          "name": "name",
          "type": "string"
        },
        {
          "internalType": "string",
          "name": "version",
          "type": "string"
        },
        {
          "internalType": "uint256",
          "name": "chainId",
          "type": "uint256"
        },
        {
          "internalType": "address",
          "name": "verifyingContract",
          "type": "address"
        },
        {
          "internalType": "bytes32",
          "name": "salt",
          "type": "bytes32"
        },
        {
          "internalType": "uint256[]",
          "name": "extensions",
          "type": "uint256[]"
        }
      ],
      "stateMutability": "view",
      "type": "function"
    },
    {
      "inputs": [
        {
          "internalType": "bytes32",
          "name": "role",
          "type": "bytes32"
        }
      ],
      "name": "getRoleAdmin",
      "outputs": [
        {
          "internalType": "bytes32",
          "name": "",
          "type": "bytes32"
        }
      ],
      "stateMutability": "view",
      "type": "function"
    },
    {
      "inputs": [
        {
          "internalType": "bytes32",
          "name": "role",
          "type": "bytes32"
        },
        {
          "internalType": "address",
          "name": "account",
          "type": "address"
        }
      ],
      "name": "grantRole",
      "outputs": [],
      "stateMutability": "nonpayable",
      "type": "function"
    },
    {
      "inputs": [
        {
          "internalType": "bytes32",
          "name": "role",
          "type": "bytes32"
        },
        {
          "internalType": "address",
          "name": "account",
          "type": "address"
        }
      ],
      "name": "hasRole",
      "outputs": [
        {
          "internalType": "bool",
          "name": "",
          "type": "bool"
        }
      ],
      "stateMutability": "view",
      "type": "function"
    },
    {
      "inputs": [
        {
          "internalType": "address",
          "name": "spender",
          "type": "address"
        },
        {
          "internalType": "uint256",
          "name": "addedValue",
          "type": "uint256"
        }
      ],
      "name": "increaseAllowance",
      "outputs": [
        {
          "internalType": "bool",
          "name": "",
          "type": "bool"
        }
      ],
      "stateMutability": "nonpayable",
      "type": "function"
    },
    {
      "inputs": [],
      "name": "lastMintDay",
      "outputs": [
        {
          "internalType": "uint256",
          "name": "",
          "type": "uint256"
        }
      ],
      "stateMutability": "view",
      "type": "function"
    },
    {
      "inputs": [
        {
          "internalType": "address",
          "name": "to",
          "type": "address"
        },
        {
          "internalType": "uint256",
          "name": "amount",
          "type": "uint256"
        }
      ],
      "name": "mint",
      "outputs": [],
      "stateMutability": "nonpayable",
      "type": "function"
    },
    {
      "inputs": [],
      "name": "name",
      "outputs": [
        {
          "internalType": "string",
          "name": "",
          "type": "string"
        }
      ],
      "stateMutability": "view",
      "type": "function"
    },
    {
      "inputs": [
        {
          "internalType": "address",
          "name": "owner",
          "type": "address"
        }
      ],
      "name": "nonces",
      "outputs": [
        {
          "internalType": "uint256",
          "name": "",
          "type": "uint256"
        }
      ],
      "stateMutability": "view",
      "type": "function"
    },
    {
      "inputs": [],
      "name": "pause",
      "outputs": [],
      "stateMutability": "nonpayable",
      "type": "function"
    },
    {
      "inputs": [],
      "name": "paused",
      "outputs": [
        {
          "internalType": "bool",
          "name": "",
          "type": "bool"
        }
      ],
      "stateMutability": "view",
      "type": "function"
    },
    {
      "inputs": [
        {
          "internalType": "address",
          "name": "owner",
          "type": "address"
        },
        {
          "internalType": "address",
          "name": "spender",
          "type": "address"
        },
        {
          "internalType": "uint256",
          "name": "value",
          "type": "uint256"
        },
        {
          "internalType": "uint256",
          "name": "deadline",
          "type": "uint256"
        },
        {
          "internalType": "uint8",
          "name": "v",
          "type": "uint8"
        },
        {
          "internalType": "bytes32",
          "name": "r",
          "type": "bytes32"
        },
        {
          "internalType": "bytes32",
          "name": "s",
          "type": "bytes32"
        }
      ],
      "name": "permit",
      "outputs": [],
      "stateMutability": "nonpayable",
      "type": "function"
    },
    {
      "inputs": [],
      "name": "remainingDailyMintCapacity",
      "outputs": [
        {
          "internalType": "uint256",
          "name": "",
          "type": "uint256"
        }
      ],
      "stateMutability": "view",
      "type": "function"
    },
    {
      "inputs": [],
      "name": "remainingSupplyCapacity",
      "outputs": [
        {
          "internalType": "uint256",
          "name": "",
          "type": "uint256"
        }
      ],
      "stateMutability": "view",
      "type": "function"
    },
    {
      "inputs": [
        {
          "internalType": "bytes32",
          "name": "role",
          "type": "bytes32"
        },
        {
          "internalType": "address",
          "name": "account",
          "type": "address"
        }
      ],
      "name": "renounceRole",
      "outputs": [],
      "stateMutability": "nonpayable",
      "type": "function"
    },
    {
      "inputs": [
        {
          "internalType": "bytes32",
          "name": "role",
          "type": "bytes32"
        },
        {
          "internalType": "address",
          "name": "account",
          "type": "address"
        }
      ],
      "name": "revokeRole",
      "outputs": [],
      "stateMutability": "nonpayable",
      "type": "function"
    },
    {
      "inputs": [
        {
          "internalType": "bytes4",
          "name": "interfaceId",
          "type": "bytes4"
        }
      ],
      "name": "supportsInterface",
      "outputs": [
        {
          "internalType": "bool",
          "name": "",
          "type": "bool"
        }
      ],
      "stateMutability": "view",
      "type": "function"
    },
    {
      "inputs": [],
      "name": "symbol",
      "outputs": [
        {
          "internalType": "string",
          "name": "",
          "type": "string"
        }
      ],
      "stateMutability": "view",
      "type": "function"
    },
    {
      "inputs": [],
      "name": "totalSupply",
      "outputs": [
        {
          "internalType": "uint256",
          "name": "",
          "type": "uint256"
        }
      ],
      "stateMutability": "view",
      "type": "function"
    },
    {
      "inputs": [
        {
          "internalType": "address",
          "name": "to",
          "type": "address"
        },
        {
          "internalType": "uint256",
          "name": "amount",
          "type": "uint256"
        }
      ],
      "name": "transfer",
      "outputs": [
        {
          "internalType": "bool",
          "name": "",
          "type": "bool"
        }
      ],
      "stateMutability": "nonpayable",
      "type": "function"
    },
    {
      "inputs": [
        {
          "internalType": "address",
          "name": "from",
          "type": "address"
        },
        {
          "internalType": "address",
          "name": "to",
          "type": "address"
        },
        {
          "internalType": "uint256",
          "name": "amount",
          "type": "uint256"
        }
      ],
      "name": "transferFrom",
      "outputs": [
        {
          "internalType": "bool",
          "name": "",
          "type": "bool"
        }
      ],
      "stateMutability": "nonpayable",
      "type": "function"
    },
    {
      "inputs": [
        {
          "internalType": "address",
          "name": "account",
          "type": "address"
        }
      ],
      "name": "unblockAddress",
      "outputs": [],
      "stateMutability": "nonpayable",
      "type": "function"
    },
    {
      "inputs": [],
      "name": "unpause",
      "outputs": [],
      "stateMutability": "nonpayable",
      "type": "function"
    }
  ],
  "bytecode": "0x6101606040523462000070576200001562000247565b6200001f62000076565b61440162000d36823960805181612a5e015260a05181612a95015260c05181612a25015260e051816138200152610100518161384501526101205181611c4001526101405181611c75015261440190f35b6200007c565b60405190565b5f80fd5b601f801991011690565b634e487b7160e01b5f52604160045260245ffd5b90620000aa9062000080565b810190811060018060401b03821117620000c357604052565b6200008a565b90620000e0620000d862000076565b92836200009e565b565b60018060401b0381116200010157620000fd60209162000080565b0190565b6200008a565b906200011d6200011783620000e2565b620000c9565b918252565b5f7f456475436861696e2041636164656d7900000000000000000000000000000000910152565b62000155601062000107565b90620001646020830162000122565b565b6200017062000149565b90565b5f7f4544550000000000000000000000000000000000000000000000000000000000910152565b620001a6600362000107565b90620001b56020830162000173565b565b620001c16200019a565b90565b90565b90565b5f1b90565b620001e8620001e2620001ee92620001c4565b620001ca565b620001c7565b90565b620001fc5f620001cf565b90565b7f9f2df0fed2c77648de5860a4cc508cd0818c85b8b8a1ab4ceeef8d981c8956a690565b7f65d7a28e3265b37a6474929f336521b332c1681b933f6cb9f3376673440d862a90565b620002706200025562000166565b6200025f62000166565b62000269620001b7565b9162000308565b620002866200027e620001f1565b339062000806565b6200029c62000294620001ff565b339062000806565b620002b2620002aa62000223565b339062000806565b565b90620002c260ff91620001ca565b9181191691161790565b151590565b620002dc90620002cc565b90565b90565b90620002fc620002f66200030492620002d1565b620002df565b8254620002b4565b9055565b9062000315929162000324565b620003225f600a620002e2565b565b9062000331929162000333565b565b9062000340929162000342565b565b906200034f929162000351565b565b906200035e9291620003b1565b565b5f7f3100000000000000000000000000000000000000000000000000000000000000910152565b62000393600162000107565b90620003a26020830162000360565b565b620003ae62000387565b90565b90620003c99291620003c2620003a4565b9062000427565b565b90565b90565b60200190565b5190565b60018060a01b031690565b90565b62000402620003fc6200040892620003db565b620003e6565b620003db565b90565b6200041690620003e9565b90565b62000424906200040b565b90565b6200043c6200049a946200047a9394620004d6565b62000454816200044d6005620003cb565b906200091d565b610120526200047083620004696006620003cb565b906200091d565b61014052620003ce565b620004906200048982620003d7565b91620003d1565b2060e052620003ce565b620004b0620004a982620003d7565b91620003d1565b20610100524660a052620004c362000a64565b608052620004d13062000419565b60c052565b90620004e291620004e4565b565b90620004f091620004f2565b565b90620004fe9162000799565b565b5190565b634e487b7160e01b5f52602260045260245ffd5b90600160028304921680156200053b575b60208310146200053557565b62000504565b91607f169162000529565b5f5260205f2090565b601f602091010490565b1b90565b919060086200057c910291620005755f198462000559565b9262000559565b9181191691161790565b90565b620005a26200059c620005a89262000586565b620003e6565b62000586565b90565b90565b9190620005c9620005c3620005d29362000589565b620005ab565b9083546200055d565b9055565b5f90565b620005f091620005e9620005d6565b91620005ae565b565b5b818110620005ff575050565b806200060e5f600193620005da565b01620005f3565b9190601f811162000626575b505050565b62000635620006609362000546565b90602062000643846200054f565b8301931062000669575b62000658906200054f565b0190620005f2565b5f808062000621565b915062000658819290506200064d565b1c90565b906200068f905f199060080262000679565b191690565b81620006a0916200067d565b906002021790565b90620006b48162000500565b9060018060401b0382116200078557620006db82620006d4855462000518565b8562000615565b602090601f8311600114620007145791809162000702935f9262000707575b505062000694565b90555b565b90915001515f80620006fa565b601f19831691620007258562000546565b925f5b8181106200076c575091600293918560019694106200074f575b5050500201905562000705565b62000761910151601f8416906200067d565b90555f808062000742565b9193602060018192878701518155019501920162000728565b6200008a565b906200079791620006a8565b565b90620007ab620007b39260036200078b565b60046200078b565b565b620007c090620001c7565b90565b90620007cf90620007b5565b5f5260205260405f2090565b620007e6906200040b565b90565b90620007f590620007db565b5f5260205260405f2090565b5f0190565b6200081e6200081782849062000b1f565b15620002cc565b62000828575b5050565b6200085060016200084a5f6200084160098690620007c3565b018590620007e9565b620002e2565b906200085b62000b55565b906200089e62000897620008907f2f8788117e7eff1d82e926ec794901d17c78024a50270940304540a733656f0d95620007b5565b92620007db565b92620007db565b92620008a962000076565b80620008b58162000801565b0390a45f8062000824565b5f90565b90565b620008e0620008da620008e692620008c4565b620003e6565b62000586565b90565b90565b62000905620008ff6200090b92620008e9565b620001ca565b620001c7565b90565b6200091a60ff620008ec565b90565b9062000928620008c0565b506200093e6200093883620003ce565b620003d7565b620009556200094e6020620008c7565b9162000586565b105f146200096c5750620009699062000c92565b90565b5f6200097d62000984939262000b64565b016200078b565b62000998620009926200090e565b620007b5565b90565b5f90565b7f8b73c3c69bb8fe3d512ecc4cf759cc79239f7b179b0ffacaa9a75d522b39400f90565b620009cf9051620001c7565b90565b620009dd90620001c7565b9052565b620009ec9062000586565b9052565b620009fb90620003db565b90565b62000a0990620009f0565b9052565b9095949262000a629462000a4f62000a5a9262000a4460809662000a3960a088019c5f890190620009d2565b6020870190620009d2565b6040850190620009d2565b6060830190620009e1565b0190620009fe565b565b62000a6e6200099b565b5062000a796200099f565b62000acf62000a8960e0620009c3565b9162000abf62000a9b610100620009c3565b4662000aa73062000419565b9162000ab262000076565b9687956020870162000a0d565b602082018103825203826200009e565b62000ae562000ade82620003d7565b91620003d1565b2090565b5f90565b5f1c90565b60ff1690565b62000b0762000b0d9162000aed565b62000af2565b90565b62000b1c905462000af8565b90565b62000b4e915f62000b4162000b489362000b3862000ae9565b506009620007c3565b01620007e9565b62000b10565b90565b5f90565b62000b5f62000b51565b503390565b90565b90565b62000b8362000b7d62000b899262000b67565b620003e6565b62000586565b90565b60209181520190565b5f5b83811062000ba8575050905f910152565b80602091830151818501520162000b97565b62000bdf62000be960209362000bef9362000bd58162000500565b9384809362000b8c565b9586910162000b95565b62000080565b0190565b62000c0a9160208201915f81840391015262000bba565b90565b62000c2d62000c2762000c2083620003d7565b92620003d1565b620009c3565b906020811062000c3c575b5090565b62000c50905f199060200360080262000559565b165f62000c38565b62000c6762000c6d9162000aed565b62000589565b90565b62000c8962000c8362000c8f9262000586565b620001ca565b620001c7565b90565b62000c9c620008c0565b5062000ca881620003ce565b9062000cb482620003d7565b62000ccb62000cc4601f62000b6a565b9162000586565b1162000d0b575062000d028162000cfb62000cf462000cee62000d089562000c0d565b62000c58565b91620003d7565b1762000c70565b620007b5565b90565b62000d319062000d1a62000076565b91829163305a27a960e01b83526004830162000bf3565b0390fdfe60806040526004361015610013575b6112ae565b61001d5f3561029c565b806301ffc9a71461029757806306fdde0314610292578063095ea7b31461028d5780630d5c44301461028857806318160ddd14610283578063186d9d881461027e57806323b872dd14610279578063248a9ca3146102745780632f2ff15d1461026f578063313ce5671461026a57806332cb6b0c146102655780633644e5151461026057806336568abe1461025b57806339509351146102565780633f4ba83a1461025157806340c10f191461024c57806342966c68146102475780635c975abb14610242578063685731071461023d57806370a082311461023857806379cc6790146102335780637ecebe001461022e5780638456cb5914610229578063848465e31461022457806384b0196e1461021f57806391d148541461021a57806395d89b4114610215578063a217fddf14610210578063a457c2d71461020b578063a9059cbb14610206578063ad2bb1b314610201578063b222b59d146101fc578063d505accf146101f7578063d5391393146101f2578063d547741f146101ed578063dd62ed3e146101e8578063e27cafb9146101e3578063e5962195146101de578063e63ab1e9146101d95763f3dc38380361000e57611279565b611244565b6111e0565b61111c565b6110d7565b611076565b611041565b610fd8565b610f10565b610edd565b610ea7565b610e71565b610e3c565b610dcc565b610d96565b610d5a565b610c06565b610b92565b610b5d565b610b29565b610af4565b610abd565b61099f565b61096c565b61091a565b6108e7565b6108b1565b61087d565b610848565b610813565b610799565b61073d565b6106db565b61063f565b6105d2565b61057a565b610545565b6104b1565b6103ef565b610328565b60e01c90565b60405190565b5f80fd5b5f80fd5b5f80fd5b63ffffffff60e01b1690565b6102c9816102b4565b036102d057565b5f80fd5b905035906102e1826102c0565b565b906020828203126102fc576102f9915f016102d4565b90565b6102ac565b151590565b61030f90610301565b9052565b9190610326905f60208501940190610306565b565b346103585761035461034361033e3660046102e3565b6112b6565b61034b6102a2565b91829182610313565b0390f35b6102a8565b5f91031261036757565b6102ac565b5190565b60209181520190565b5f5b83811061038b575050905f910152565b80602091830151818501520161037b565b601f801991011690565b6103c56103ce6020936103d3936103bc8161036c565b93848093610370565b95869101610379565b61039c565b0190565b6103ec9160208201915f8184039101526103a6565b90565b3461041f576103ff36600461035d565b61041b61040a61144f565b6104126102a2565b918291826103d7565b0390f35b6102a8565b60018060a01b031690565b61043890610424565b90565b6104448161042f565b0361044b57565b5f80fd5b9050359061045c8261043b565b565b90565b61046a8161045e565b0361047157565b5f80fd5b9050359061048282610461565b565b91906040838203126104ac57806104a06104a9925f860161044f565b93602001610475565b90565b6102ac565b346104e2576104de6104cd6104c7366004610484565b90611465565b6104d56102a2565b91829182610313565b0390f35b6102a8565b1c90565b90565b6104fe90600861050393026104e7565b6104eb565b90565b9061051191546104ee565b90565b610520600b5f90610506565b90565b61052c9061045e565b9052565b9190610543905f60208501940190610523565b565b346105755761055536600461035d565b610571610560610514565b6105686102a2565b91829182610530565b0390f35b6102a8565b346105aa5761058a36600461035d565b6105a66105956114b1565b61059d6102a2565b91829182610530565b0390f35b6102a8565b906020828203126105c8576105c5915f0161044f565b90565b6102ac565b5f0190565b34610600576105ea6105e53660046105af565b61157e565b6105f26102a2565b806105fc816105cd565b0390f35b6102a8565b909160608284031261063a57610637610620845f850161044f565b9361062e816020860161044f565b93604001610475565b90565b6102ac565b346106705761066c61065b610655366004610605565b91611589565b6106636102a2565b91829182610313565b0390f35b6102a8565b90565b61068181610675565b0361068857565b5f80fd5b9050359061069982610678565b565b906020828203126106b4576106b1915f0161068c565b90565b6102ac565b6106c290610675565b9052565b91906106d9905f602085019401906106b9565b565b3461070b576107076106f66106f136600461069b565b611602565b6106fe6102a2565b918291826106c6565b0390f35b6102a8565b9190604083820312610738578061072c610735925f860161068c565b9360200161044f565b90565b6102ac565b3461076c57610756610750366004610710565b9061164d565b61075e6102a2565b80610768816105cd565b0390f35b6102a8565b60ff1690565b61078090610771565b9052565b9190610797905f60208501940190610777565b565b346107c9576107a936600461035d565b6107c56107b461167c565b6107bc6102a2565b91829182610784565b0390f35b6102a8565b90565b90565b6107e86107e36107ed926107ce565b6107d1565b61045e565b90565b6108056b033b2e3c9fd0803ce80000006107d4565b90565b6108106107f0565b90565b346108435761082336600461035d565b61083f61082e610808565b6108366102a2565b91829182610530565b0390f35b6102a8565b346108785761085836600461035d565b610874610863611692565b61086b6102a2565b918291826106c6565b0390f35b6102a8565b346108ac57610896610890366004610710565b9061174e565b61089e6102a2565b806108a8816105cd565b0390f35b6102a8565b346108e2576108de6108cd6108c7366004610484565b906117b6565b6108d56102a2565b91829182610313565b0390f35b6102a8565b34610915576108f736600461035d565b6108ff61180f565b6109076102a2565b80610911816105cd565b0390f35b6102a8565b346109495761093361092d366004610484565b90611855565b61093b6102a2565b80610945816105cd565b0390f35b6102a8565b9060208282031261096757610964915f01610475565b90565b6102ac565b3461099a5761098461097f36600461094e565b611861565b61098c6102a2565b80610996816105cd565b0390f35b6102a8565b346109cf576109af36600461035d565b6109cb6109ba611895565b6109c26102a2565b91829182610313565b0390f35b6102a8565b5f80fd5b5f80fd5b5f80fd5b909182601f83011215610a1a5781359167ffffffffffffffff8311610a15576020019260208302840111610a1057565b6109dc565b6109d8565b6109d4565b909182601f83011215610a595781359167ffffffffffffffff8311610a54576020019260208302840111610a4f57565b6109dc565b6109d8565b6109d4565b9091604082840312610ab8575f82013567ffffffffffffffff8111610ab35783610a899184016109e0565b929093602082013567ffffffffffffffff8111610aae57610aaa9201610a1f565b9091565b6102b0565b6102b0565b6102ac565b34610aef57610ad9610ad0366004610a5e565b92919091611a94565b610ae16102a2565b80610aeb816105cd565b0390f35b6102a8565b34610b2457610b20610b0f610b0a3660046105af565b611ab8565b610b176102a2565b91829182610530565b0390f35b6102a8565b34610b5857610b42610b3c366004610484565b90611ad6565b610b4a6102a2565b80610b54816105cd565b0390f35b6102a8565b34610b8d57610b89610b78610b733660046105af565b611b0e565b610b806102a2565b91829182610530565b0390f35b6102a8565b34610bc057610ba236600461035d565b610baa611b59565b610bb26102a2565b80610bbc816105cd565b0390f35b6102a8565b90565b610bdc610bd7610be192610bc5565b6107d1565b61045e565b90565b610bf86a0422ca8b0a00a425000000610bc8565b90565b610c03610be4565b90565b34610c3657610c1636600461035d565b610c32610c21610bfb565b610c296102a2565b91829182610530565b0390f35b6102a8565b60ff60f81b1690565b610c4d90610c3b565b9052565b610c5a9061042f565b9052565b5190565b60209181520190565b60200190565b610c7a9061045e565b9052565b90610c8b81602093610c71565b0190565b60200190565b90610cb2610cac610ca584610c5e565b8093610c62565b92610c6b565b905f5b818110610cc25750505090565b909192610cdb610cd56001928651610c7e565b94610c8f565b9101919091610cb5565b93959194610d36610d2b610d4a95610d1d610d4095610d579c9a610d1060e08c01925f8d0190610c44565b8a820360208c01526103a6565b9088820360408a01526103a6565b976060870190610523565b6080850190610c51565b60a08301906106b9565b60c0818403910152610c95565b90565b34610d9157610d6a36600461035d565b610d8d610d75611bfc565b93610d849795979391936102a2565b97889788610ce5565b0390f35b6102a8565b34610dc757610dc3610db2610dac366004610710565b90611cde565b610dba6102a2565b91829182610313565b0390f35b6102a8565b34610dfc57610ddc36600461035d565b610df8610de7611d08565b610def6102a2565b918291826103d7565b0390f35b6102a8565b90565b5f1b90565b610e1d610e18610e2292610e01565b610e04565b610675565b90565b610e2e5f610e09565b90565b610e39610e25565b90565b34610e6c57610e4c36600461035d565b610e68610e57610e31565b610e5f6102a2565b918291826106c6565b0390f35b6102a8565b34610ea257610e9e610e8d610e87366004610484565b90611dd4565b610e956102a2565b91829182610313565b0390f35b6102a8565b34610ed857610ed4610ec3610ebd366004610484565b90611e28565b610ecb6102a2565b91829182610313565b0390f35b6102a8565b34610f0b57610ef5610ef03660046105af565b611ebd565b610efd6102a2565b80610f07816105cd565b0390f35b6102a8565b34610f4057610f2036600461035d565b610f3c610f2b611f42565b610f336102a2565b91829182610530565b0390f35b6102a8565b610f4e81610771565b03610f5557565b5f80fd5b90503590610f6682610f45565b565b60e081830312610fd357610f7e825f830161044f565b92610f8c836020840161044f565b92610f9a8160408501610475565b92610fa88260608301610475565b92610fd0610fb98460808501610f59565b93610fc78160a0860161068c565b9360c00161068c565b90565b6102ac565b3461100d57610ff7610feb366004610f68565b9594909493919361213f565b610fff6102a2565b80611009816105cd565b0390f35b6102a8565b7f9f2df0fed2c77648de5860a4cc508cd0818c85b8b8a1ab4ceeef8d981c8956a690565b61103e611012565b90565b346110715761105136600461035d565b61106d61105c611036565b6110646102a2565b918291826106c6565b0390f35b6102a8565b346110a55761108f611089366004610710565b9061221e565b6110976102a2565b806110a1816105cd565b0390f35b6102a8565b91906040838203126110d257806110c66110cf925f860161044f565b9360200161044f565b90565b6102ac565b34611108576111046110f36110ed3660046110aa565b90612240565b6110fb6102a2565b91829182610530565b0390f35b6102a8565b611119600c5f90610506565b90565b3461114c5761112c36600461035d565b61114861113761110d565b61113f6102a2565b91829182610530565b0390f35b6102a8565b61116561116061116a92610424565b6107d1565b610424565b90565b61117690611151565b90565b6111829061116d565b90565b9061118f90611179565b5f5260205260405f2090565b60ff1690565b6111b19060086111b693026104e7565b61119b565b90565b906111c491546111a1565b90565b6111dd906111d8600d915f92611185565b6111b9565b90565b346112105761120c6111fb6111f63660046105af565b6111c7565b6112036102a2565b91829182610313565b0390f35b6102a8565b7f65d7a28e3265b37a6474929f336521b332c1681b933f6cb9f3376673440d862a90565b611241611215565b90565b346112745761125436600461035d565b61127061125f611239565b6112676102a2565b918291826106c6565b0390f35b6102a8565b346112a95761128936600461035d565b6112a5611294612268565b61129c6102a2565b91829182610530565b0390f35b6102a8565b5f80fd5b5f90565b6112be6112b2565b50806112d96112d3637965db0b60e01b6102b4565b916102b4565b149081156112e6575b5090565b6112f0915061228d565b5f6112e2565b606090565b634e487b7160e01b5f52602260045260245ffd5b906001600283049216801561132f575b602083101461132a57565b6112fb565b91607f169161131f565b60209181520190565b5f5260205f2090565b905f929180549061136561135e8361130f565b8094611339565b916001811690815f146113bc5750600114611380575b505050565b61138d9192939450611342565b915f925b8184106113a457505001905f808061137b565b60018160209295939554848601520191019290611391565b92949550505060ff19168252151560200201905f808061137b565b906113e19161134b565b90565b634e487b7160e01b5f52604160045260245ffd5b906114029061039c565b810190811067ffffffffffffffff82111761141c57604052565b6113e4565b9061144161143a926114316102a2565b938480926113d7565b03836113f8565b565b61144c90611421565b90565b6114576112f6565b506114626003611443565b90565b611482916114716112b2565b5061147a6122b3565b91909161248d565b600190565b5f90565b5f1c90565b61149c6114a19161148b565b6104eb565b90565b6114ae9054611490565b90565b6114b9611487565b506114c460026114a4565b90565b6114e0906114db6114d6610e25565b612549565b611527565b565b906114ee60ff91610e04565b9181191691161790565b61150190610301565b90565b90565b9061151c611517611523926114f8565b611504565b82546114e2565b9055565b61153c5f611537600d8490611185565b611507565b6115667f385b21b54e2348e690dec29e9741026142b02eaabfcc2fcb676cebcb7cd1653491611179565b9061156f6102a2565b80611579816105cd565b0390a2565b611587906114c7565b565b916115b3926115966112b2565b506115ab6115a26122b3565b829084916125df565b91909161284c565b600190565b5f90565b6115c590610675565b90565b906115d2906115bc565b5f5260205260405f2090565b90565b6115ed6115f29161148b565b6115de565b90565b6115ff90546115e1565b90565b600161161b611621926116136115b8565b5060096115c8565b016115f5565b90565b9061163f9161163a61163582611602565b612549565b611641565b565b9061164b91612969565b565b9061165791611624565b565b5f90565b90565b61167461166f6116799261165d565b6107d1565b610771565b90565b611684611659565b5061168f6012611660565b90565b61169a6115b8565b506116a3612a0b565b90565b60207f20726f6c657320666f722073656c660000000000000000000000000000000000917f416363657373436f6e74726f6c3a2063616e206f6e6c792072656e6f756e63655f8201520152565b611700602f604092610370565b611709816116a6565b0190565b6117229060208101905f8183039101526116f3565b90565b1561172c57565b6117346102a2565b62461bcd60e51b81528061174a6004820161170d565b0390fd5b9061177b916117768261177061176a6117656122b3565b61042f565b9161042f565b14611725565b612ac5565b565b634e487b7160e01b5f52601160045260245ffd5b6117a06117a69193929361045e565b9261045e565b82018092116117b157565b61177d565b6117e6916117c26112b2565b506117e06117ce6122b3565b916117db83948094612240565b611791565b9161248d565b600190565b6117fb6117f6611215565b612549565b611803611805565b565b61180d612bd2565b565b6118176117eb565b565b906118339161182e611829611012565b612549565b611835565b565b9061184791611842612c5e565b611849565b565b9061185391612e81565b565b9061185f91611819565b565b6118729061186d6122b3565b613146565b565b6118806118859161148b565b61119b565b90565b6118929054611874565b90565b61189d6112b2565b506118a8600a611888565b90565b906118c79392916118c26118bd611012565b612549565b6118c9565b565b906118dd9392916118d8612c5e565b6119ec565b565b5090565b5090565b5f7f4c656e677468206d69736d617463680000000000000000000000000000000000910152565b61191b600f602092610370565b611924816118e7565b0190565b61193d9060208101905f81830391015261190e565b90565b1561194757565b61194f6102a2565b62461bcd60e51b81528061196560048201611928565b0390fd5b61197d61197861198292610e01565b6107d1565b61045e565b90565b6001611991910161045e565b90565b634e487b7160e01b5f52603260045260245ffd5b91908110156119b8576020020190565b611994565b356119c78161043b565b90565b91908110156119da576020020190565b611994565b356119e981610461565b90565b93929193611a206119fe8284906118df565b611a1a611a14611a0f8988906118e3565b61045e565b9161045e565b14611940565b611a295f611969565b5b80611a47611a41611a3c8587906118df565b61045e565b9161045e565b1015611a8c57611a8790611a82611a68611a63858785916119a8565b6119bd565b611a7c611a778a8986916119ca565b6119df565b90612e81565b611985565b611a2a565b505050509050565b90611aa09392916118ab565b565b90611aac90611179565b5f5260205260405f2090565b611ace611ad391611ac7611487565b505f611aa2565b6114a4565b90565b90611af391611aee81611ae76122b3565b84916125df565b613146565b565b90611aff90611179565b5f5260205260405f2090565b90565b611b2d611b28611b3292611b20611487565b506007611af5565b611b0b565b613242565b90565b611b45611b40611215565b612549565b611b4d611b4f565b565b611b576132ba565b565b611b61611b35565b565b5f90565b5f90565b606090565b90565b611b7c9061116d565b90565b90611b92611b8b6102a2565b92836113f8565b565b67ffffffffffffffff8111611bac5760208091020190565b6113e4565b90611bc3611bbe83611b94565b611b7f565b918252565b369037565b90611bf2611bda83611bb1565b92602080611be88693611b94565b9201910390611bc8565b565b600f60f81b90565b611c04611b63565b50611c0d6112f6565b50611c166112f6565b50611c1f611487565b50611c28611b67565b50611c316115b8565b50611c3a611b6b565b50611c6f7f0000000000000000000000000000000000000000000000000000000000000000611c696005611b70565b906133c0565b90611ca47f0000000000000000000000000000000000000000000000000000000000000000611c9e6006611b70565b906133c0565b904690611cb030611b73565b90611cba5f610e09565b90611ccc611cc75f611969565b611bcd565b90611cd5611bf4565b96959493929190565b611d05915f611cfa611d0093611cf26112b2565b5060096115c8565b01611185565b611888565b90565b611d106112f6565b50611d1b6004611443565b90565b60207f207a65726f000000000000000000000000000000000000000000000000000000917f45524332303a2064656372656173656420616c6c6f77616e63652062656c6f775f8201520152565b611d786025604092610370565b611d8181611d1e565b0190565b611d9a9060208101905f818303910152611d6b565b90565b15611da457565b611dac6102a2565b62461bcd60e51b815280611dc260048201611d85565b0390fd5b90611dd1910361045e565b90565b611e2391611de06112b2565b50611e1d611dec6122b3565b91611df8838590612240565b92611e1684611e0f611e098561045e565b9161045e565b1015611d9d565b9392611dc6565b9161248d565b600190565b611e4591611e346112b2565b50611e3d6122b3565b91909161284c565b600190565b611e6390611e5e611e59610e25565b612549565b611e65565b565b611e7b6001611e76600d8490611185565b611507565b611ea57f71fa9c99da9552de60a9ccf693f5a91456cbb8c205c8e532b1f55339903543cf91611179565b90611eae6102a2565b80611eb8816105cd565b0390a2565b611ec690611e4a565b565b90565b611edf611eda611ee492611ec8565b6107d1565b61045e565b90565b634e487b7160e01b5f52601260045260245ffd5b611f07611f0d9161045e565b9161045e565b908115611f18570490565b611ee7565b611f2c611f329193929361045e565b9261045e565b8203918211611f3d57565b61177d565b611f4a611487565b50611f6142611f5b62015180611ecb565b90611efb565b611f7c611f76611f71600c6114a4565b61045e565b9161045e565b115f14611fa057611f9d611f8f5f611969565b5b611f98610be4565b611f1d565b90565b611f9d611fad600b6114a4565b611f90565b5f7f45524332305065726d69743a206578706972656420646561646c696e65000000910152565b611fe6601d602092610370565b611fef81611fb2565b0190565b6120089060208101905f818303910152611fd9565b90565b1561201257565b61201a6102a2565b62461bcd60e51b81528061203060048201611ff3565b0390fd5b7f6e71edae12b1b97f4d1f60370fef10105fa2faae0126114a169c64845d6126c990565b91946120a06120aa9298979561209660a09661208c6120b19a61208260c08a019e5f8b01906106b9565b6020890190610c51565b6040870190610c51565b6060850190610523565b6080830190610523565b0190610523565b565b60200190565b5190565b5f7f45524332305065726d69743a20696e76616c6964207369676e61747572650000910152565b6120f1601e602092610370565b6120fa816120bd565b0190565b6121139060208101905f8183039101526120e4565b90565b1561211d57565b6121256102a2565b62461bcd60e51b81528061213b600482016120fe565b0390fd5b92936121f39682966121ca6121d3946121b26121eb97996121734261216c6121668461045e565b9161045e565b111561200b565b6121a38b61217f612034565b928c61218d8197939161340e565b91926121976102a2565b97889660208801612058565b602082018103825203826113f8565b6121c46121be826120b9565b916120b3565b2061343f565b9290919261345c565b6121e56121df8461042f565b9161042f565b14612116565b91909161248d565b565b906122109161220b61220682611602565b612549565b612212565b565b9061221c91612ac5565b565b90612228916121f5565b565b9061223490611179565b5f5260205260405f2090565b6122659161225b61226092612253611487565b50600161222a565b611aa2565b6114a4565b90565b612270611487565b5061228a61227c6107f0565b6122846114b1565b90611f1d565b90565b6122956112b2565b506122af6122a96301ffc9a760e01b6102b4565b916102b4565b1490565b6122bb611b67565b503390565b6122d46122cf6122d992610e01565b6107d1565b610424565b90565b6122e5906122c0565b90565b60207f7265737300000000000000000000000000000000000000000000000000000000917f45524332303a20617070726f76652066726f6d20746865207a65726f206164645f8201520152565b6123426024604092610370565b61234b816122e8565b0190565b6123649060208101905f818303910152612335565b90565b1561236e57565b6123766102a2565b62461bcd60e51b81528061238c6004820161234f565b0390fd5b60207f7373000000000000000000000000000000000000000000000000000000000000917f45524332303a20617070726f766520746f20746865207a65726f2061646472655f8201520152565b6123ea6022604092610370565b6123f381612390565b0190565b61240c9060208101905f8183039101526123dd565b90565b1561241657565b61241e6102a2565b62461bcd60e51b815280612434600482016123f7565b0390fd5b906124445f1991610e04565b9181191691161790565b61246261245d6124679261045e565b6107d1565b61045e565b90565b90565b9061248261247d6124899261244e565b61246a565b8254612438565b9055565b9190916124b5816124ae6124a86124a35f6122dc565b61042f565b9161042f565b1415612367565b6124da836124d36124cd6124c85f6122dc565b61042f565b9161042f565b141561240f565b6124f9826124f46124ed6001859061222a565b8690611aa2565b61246d565b91909161254461253261252c7f8c5be1e5ebec7d5bd14f71427d1e84f3dd0314c0f7b2291e5b200ac8c7c3b92593611179565b93611179565b9361253b6102a2565b91829182610530565b0390a3565b61255b906125556122b3565b9061358e565b565b5f7f45524332303a20696e73756666696369656e7420616c6c6f77616e6365000000910152565b612591601d602092610370565b61259a8161255d565b0190565b6125b39060208101905f818303910152612584565b90565b156125bd57565b6125c56102a2565b62461bcd60e51b8152806125db6004820161259e565b0390fd5b6125ea818390612240565b90816125ff6125f95f1961045e565b9161045e565b0361260b575b50505050565b61263d9361263791612630846126296126238561045e565b9161045e565b10156125b6565b9392611dc6565b9161248d565b5f808080612605565b60207f6472657373000000000000000000000000000000000000000000000000000000917f45524332303a207472616e736665722066726f6d20746865207a65726f2061645f8201520152565b6126a06025604092610370565b6126a981612646565b0190565b6126c29060208101905f818303910152612693565b90565b156126cc57565b6126d46102a2565b62461bcd60e51b8152806126ea600482016126ad565b0390fd5b60207f6573730000000000000000000000000000000000000000000000000000000000917f45524332303a207472616e7366657220746f20746865207a65726f20616464725f8201520152565b6127486023604092610370565b612751816126ee565b0190565b61276a9060208101905f81830391015261273b565b90565b1561277457565b61277c6102a2565b62461bcd60e51b81528061279260048201612755565b0390fd5b60207f616c616e63650000000000000000000000000000000000000000000000000000917f45524332303a207472616e7366657220616d6f756e74206578636565647320625f8201520152565b6127f06026604092610370565b6127f981612796565b0190565b6128129060208101905f8183039101526127e3565b90565b1561281c57565b6128246102a2565b62461bcd60e51b81528061283a600482016127fd565b0390fd5b90612849910161045e565b90565b9190916128748161286d6128676128625f6122dc565b61042f565b9161042f565b14156126c5565b6128998361289261288c6128875f6122dc565b61042f565b9161042f565b141561276d565b6128a58184849161378c565b6128f26128e26128be6128b95f8590611aa2565b6114a4565b6128db816128d46128ce8861045e565b9161045e565b1015612815565b8490611dc6565b6128ed5f8490611aa2565b61246d565b612919826129136129045f8790611aa2565b9161290e836114a4565b61283e565b9061246d565b91909161296461295261294c7fddf252ad1be2c89b69c2b068fc378daa952ba7f163c4a11628f55a4df523b3ef93611179565b93611179565b9361295b6102a2565b91829182610530565b0390a3565b61297d612977828490611cde565b15610301565b612986575b5050565b6129a860016129a35f61299b600986906115c8565b018590611185565b611507565b906129b16122b3565b906129ee6129e86129e27f2f8788117e7eff1d82e926ec794901d17c78024a50270940304540a733656f0d956115bc565b92611179565b92611179565b926129f76102a2565b80612a01816105cd565b0390a45f80612982565b612a136115b8565b50612a1d30611b73565b612a4f612a497f000000000000000000000000000000000000000000000000000000000000000061042f565b9161042f565b1480612a8b575b5f14612a80577f000000000000000000000000000000000000000000000000000000000000000090565b612a8861380a565b90565b5046612abf612ab97f000000000000000000000000000000000000000000000000000000000000000061045e565b9161045e565b14612a56565b612ad0818390611cde565b612ad9575b5050565b612afa5f612af55f612aed600986906115c8565b018590611185565b611507565b90612b036122b3565b90612b40612b3a612b347ff6391f5c32d9c69d2a47ea670b442974b53935d1edc7fd64eb21e047a839171b956115bc565b92611179565b92611179565b92612b496102a2565b80612b53816105cd565b0390a45f80612ad5565b612b6561392a565b612b6d612b84565b565b9190612b82905f60208501940190610c51565b565b612b8f5f600a611507565b612b976122b3565b612bcd7f5db9ee0a495bf2e6ff9c91a7834c1ba4fdd244a5e8aa4e537bd38aeae4b073aa91612bc46102a2565b91829182612b6f565b0390a1565b612bda612b5d565b565b5f7f5061757361626c653a2070617573656400000000000000000000000000000000910152565b612c106010602092610370565b612c1981612bdc565b0190565b612c329060208101905f818303910152612c03565b90565b15612c3c57565b612c446102a2565b62461bcd60e51b815280612c5a60048201612c1d565b0390fd5b612c77612c72612c6c611895565b15610301565b612c35565b565b5f7f4d696e7420746f207a65726f2061646472657373000000000000000000000000910152565b612cad6014602092610370565b612cb681612c79565b0190565b612ccf9060208101905f818303910152612ca0565b90565b15612cd957565b612ce16102a2565b62461bcd60e51b815280612cf760048201612cba565b0390fd5b5f7f4164647265737320626c6f636b65640000000000000000000000000000000000910152565b612d2f600f602092610370565b612d3881612cfb565b0190565b612d519060208101905f818303910152612d22565b90565b15612d5b57565b612d636102a2565b62461bcd60e51b815280612d7960048201612d3c565b0390fd5b5f7f4461696c79206d696e7420636170206578636565646564000000000000000000910152565b612db16017602092610370565b612dba81612d7d565b0190565b612dd39060208101905f818303910152612da4565b90565b15612ddd57565b612de56102a2565b62461bcd60e51b815280612dfb60048201612dbe565b0390fd5b5f7f4d617820737570706c7920657863656564656400000000000000000000000000910152565b612e336013602092610370565b612e3c81612dff565b0190565b612e559060208101905f818303910152612e26565b90565b15612e5f57565b612e676102a2565b62461bcd60e51b815280612e7d60048201612e40565b0390fd5b90612f9791612eab81612ea4612e9e612e995f6122dc565b61042f565b9161042f565b1415612cd2565b612ed0612ecb612ec5612ec0600d8590611185565b611888565b15610301565b612d54565b612ee642612ee062015180611ecb565b90611efb565b80612f02612efc612ef7600c6114a4565b61045e565b9161045e565b11612f99575b50612f40612f20612f19600b6114a4565b8490611791565b612f39612f33612f2e610be4565b61045e565b9161045e565b1115612dd6565b612f75612f55612f4e6114b1565b8490611791565b612f6e612f68612f636107f0565b61045e565b9161045e565b1115612e58565b612f92612f8b83612f86600b6114a4565b611791565b600b61246d565b6139be565b565b612fac612fa55f611969565b600b61246d565b612fb781600c61246d565b612fed7f38f3386dd2b5e327a5321b0a1f2b40d770ab237891f947173f27ed36abefd13591612fe46102a2565b91829182610530565b0390a15f612f08565b60207f7300000000000000000000000000000000000000000000000000000000000000917f45524332303a206275726e2066726f6d20746865207a65726f206164647265735f8201520152565b6130506021604092610370565b61305981612ff6565b0190565b6130729060208101905f818303910152613043565b90565b1561307c57565b6130846102a2565b62461bcd60e51b81528061309a6004820161305d565b0390fd5b60207f6365000000000000000000000000000000000000000000000000000000000000917f45524332303a206275726e20616d6f756e7420657863656564732062616c616e5f8201520152565b6130f86022604092610370565b6131018161309e565b0190565b61311a9060208101905f8183039101526130eb565b90565b1561312457565b61312c6102a2565b62461bcd60e51b81528061314260048201613105565b0390fd5b61316b8161316461315e6131595f6122dc565b61042f565b9161042f565b1415613075565b61317f816131785f6122dc565b849161378c565b6131cc6131bc6131986131935f8590611aa2565b6114a4565b6131b5816131ae6131a88861045e565b9161045e565b101561311d565b8490611dc6565b6131c75f8490611aa2565b61246d565b6131e96131e2836131dd60026114a4565b611dc6565b600261246d565b906131f35f6122dc565b909161323d61322b6132257fddf252ad1be2c89b69c2b068fc378daa952ba7f163c4a11628f55a4df523b3ef93611179565b93611179565b936132346102a2565b91829182610530565b0390a3565b5f6132569161324f611487565b50016114a4565b90565b613261612c5e565b61326961326b565b565b6132776001600a611507565b61327f6122b3565b6132b57f62e78cea01bee320cd4e420270b5ea74000d11b0c9f74754ebdbfc544b05a258916132ac6102a2565b91829182612b6f565b0390a1565b6132c2613259565b565b90565b6132db6132d66132e0926132c4565b610e04565b610675565b90565b6132ed60ff6132c7565b90565b5f5260205f2090565b905f929180549061331361330c8361130f565b8094611339565b916001811690815f1461336a575060011461332e575b505050565b61333b91929394506132f0565b915f925b81841061335257505001905f8080613329565b6001816020929593955484860152019101929061333f565b92949550505060ff19168252151560200201905f8080613329565b9061338f916132f9565b90565b906133b26133ab926133a26102a2565b93848092613385565b03836113f8565b565b6133bd90613392565b90565b906133c96112f6565b506133d3826115bc565b6133ec6133e66133e16132e3565b610675565b91610675565b14155f1461340157506133fe90613afb565b90565b61340b91506133b4565b90565b61342561342a9161341d611487565b506007611af5565b611b0b565b9061343d61343783613242565b92613b4a565b565b6134599061344b6115b8565b50613454612a0b565b613b75565b90565b926134779261347f9461346d611b67565b5092909192613c27565b919091613e5c565b90565b61348e6134939161148b565b61244e565b90565b90565b6134ad6134a86134b292613496565b6107d1565b61045e565b90565b905090565b5f7f416363657373436f6e74726f6c3a206163636f756e7420000000000000000000910152565b6134ed601780926134b5565b6134f6816134ba565b0190565b61351f6135169260209261350d8161036c565b948580936134b5565b93849101610379565b0190565b5f7f206973206d697373696e6720726f6c6520000000000000000000000000000000910152565b613556601180926134b5565b61355f81613523565b0190565b61357d6135889392613577613582936134e1565b906134fa565b61354a565b906134fa565b90565b90565b906135a361359d838390611cde565b15610301565b6135ab575050565b613623916136016135da6135ca6135c461360695613f9f565b93613482565b6135d46020613499565b906141e5565b916135f26135e66102a2565b93849260208401613563565b602082018103825203826113f8565b61358b565b61360e6102a2565b91829162461bcd60e51b8352600483016103d7565b0390fd5b9061363a9291613635612c5e565b613740565b565b5f7f53656e64657220626c6f636b6564000000000000000000000000000000000000910152565b613670600e602092610370565b6136798161363c565b0190565b6136929060208101905f818303910152613663565b90565b1561369c57565b6136a46102a2565b62461bcd60e51b8152806136ba6004820161367d565b0390fd5b5f7f526563697069656e7420626c6f636b6564000000000000000000000000000000910152565b6136f26011602092610370565b6136fb816136be565b0190565b6137149060208101905f8183039101526136e5565b90565b1561371e57565b6137266102a2565b62461bcd60e51b81528061373c600482016136ff565b0390fd5b61378a925061377a6137859261377361376e61376861376361377f96600d611185565b611888565b15610301565b613695565b600d611185565b611888565b15610301565b613717565b565b906137979291613627565b565b7f8b73c3c69bb8fe3d512ecc4cf759cc79239f7b179b0ffacaa9a75d522b39400f90565b90959492613808946137f7613801926137ed6080966137e360a088019c5f8901906106b9565b60208701906106b9565b60408501906106b9565b6060830190610523565b0190610c51565b565b6138126115b8565b5061381b613799565b6138927f0000000000000000000000000000000000000000000000000000000000000000916138837f00000000000000000000000000000000000000000000000000000000000000004661386e30611b73565b916138776102a2565b968795602087016137bd565b602082018103825203826113f8565b6138a461389e826120b9565b916120b3565b2090565b5f7f5061757361626c653a206e6f7420706175736564000000000000000000000000910152565b6138dc6014602092610370565b6138e5816138a8565b0190565b6138fe9060208101905f8183039101526138cf565b90565b1561390857565b6139106102a2565b62461bcd60e51b815280613926600482016138e9565b0390fd5b61393a613935611895565b613901565b565b5f7f45524332303a206d696e7420746f20746865207a65726f206164647265737300910152565b613970601f602092610370565b6139798161393c565b0190565b6139929060208101905f818303910152613963565b90565b1561399c57565b6139a46102a2565b62461bcd60e51b8152806139ba6004820161397d565b0390fd5b906139e4826139dd6139d76139d25f6122dc565b61042f565b9161042f565b1415613995565b6139f86139f05f6122dc565b83839161378c565b613a15613a0e82613a0960026114a4565b611791565b600261246d565b613a3c81613a36613a275f8690611aa2565b91613a31836114a4565b61283e565b9061246d565b613a455f6122dc565b919091613a90613a7e613a787fddf252ad1be2c89b69c2b068fc378daa952ba7f163c4a11628f55a4df523b3ef93611179565b93611179565b93613a876102a2565b91829182610530565b0390a3565b67ffffffffffffffff8111613ab357613aaf60209161039c565b0190565b6113e4565b90613aca613ac583613a95565b611b7f565b918252565b369037565b90613af9613ae183613ab8565b92602080613aef8693613a95565b9201910390613acf565b565b613b036112f6565b50613b0d81614367565b90613b20613b1b6020613499565b613ad4565b918252602082015290565b90565b613b42613b3d613b4792613b2b565b6107d1565b61045e565b90565b613b7390613b6d5f613b5c6001613b2e565b920191613b68836114a4565b61283e565b9061246d565b565b604291613b806115b8565b50604051917f19010000000000000000000000000000000000000000000000000000000000008352600283015260228201522090565b5f90565b90565b613bd1613bcc613bd692613bba565b6107d1565b61045e565b90565b613c0e613c1594613c04606094989795613bfa608086019a5f8701906106b9565b6020850190610777565b60408301906106b9565b01906106b9565b565b613c1f6102a2565b3d5f823e3d90fd5b929190613c32611b67565b50613c3b613bb6565b50613c4583613482565b613c77613c717f7fffffffffffffffffffffffffffffff5d576e7357a4501ddfe92f46681b20a0613bbd565b9161045e565b11613ce957613c975f936020959293613c8e6102a2565b94859485613bd9565b838052039060015afa15613ce457613caf5f51610e04565b80613cca613cc4613cbf5f6122dc565b61042f565b9161042f565b14613cd457905f90565b50613cde5f6122dc565b90600190565b613c17565b50505050613cf65f6122dc565b90600390565b634e487b7160e01b5f52602160045260245ffd5b60051115613d1a57565b613cfc565b90613d2982613d10565b565b60207f7565000000000000000000000000000000000000000000000000000000000000917f45434453413a20696e76616c6964207369676e6174757265202773272076616c5f8201520152565b613d856022604092610370565b613d8e81613d2b565b0190565b613da79060208101905f818303910152613d78565b90565b5f7f45434453413a20696e76616c6964207369676e6174757265206c656e67746800910152565b613dde601f602092610370565b613de781613daa565b0190565b613e009060208101905f818303910152613dd1565b90565b5f7f45434453413a20696e76616c6964207369676e61747572650000000000000000910152565b613e376018602092610370565b613e4081613e03565b0190565b613e599060208101905f818303910152613e2a565b90565b80613e6f613e695f613d1f565b91613d1f565b145f14613e795750565b80613e8d613e876001613d1f565b91613d1f565b145f14613eb657613e9c6102a2565b62461bcd60e51b815280613eb260048201613e44565b0390fd5b80613eca613ec46002613d1f565b91613d1f565b145f14613ef357613ed96102a2565b62461bcd60e51b815280613eef60048201613deb565b0390fd5b613f06613f006003613d1f565b91613d1f565b14613f0d57565b613f156102a2565b62461bcd60e51b815280613f2b60048201613d92565b0390fd5b613f3890611151565b90565b613f4f613f4a613f5492610424565b6107d1565b61045e565b90565b90565b613f6e613f69613f7392613f57565b6107d1565b610771565b90565b613f806014613f5a565b90565b613f97613f92613f9c92610771565b6107d1565b61045e565b90565b613fbc613fb7613fd292613fb16112f6565b50613f2f565b613f3b565b613fcc613fc7613f76565b613f83565b906141e5565b90565b90565b613fec613fe7613ff192613fd5565b6107d1565b61045e565b90565b6140036140099193929361045e565b9261045e565b9161401583820261045e565b92818404149015171561402457565b61177d565b67ffffffffffffffff81116140475761404360209161039c565b0190565b6113e4565b9061405e61405983614029565b611b7f565b918252565b906140886140708361404c565b9260208061407e8693614029565b9201910390613acf565b565b600360fc1b90565b9061409c826120b9565b8110156140ae57600160209102010190565b611994565b600f60fb1b90565b6140c49061045e565b5f81146140d2576001900390565b61177d565b6f181899199a1a9b1b9c1cb0b131b232b360811b90565b6140f66140d7565b90565b90565b61411061410b614115926140f9565b6107d1565b61045e565b90565b60f81b90565b90565b61413561413061413a9261411e565b6107d1565b610771565b90565b61415c9061415661415061416194610771565b9161045e565b906104e7565b61045e565b90565b5f7f537472696e67733a20686578206c656e67746820696e73756666696369656e74910152565b61419760208092610370565b6141a081614164565b0190565b6141b99060208101905f81830391015261418b565b90565b156141c357565b6141cb6102a2565b62461bcd60e51b8152806141e1600482016141a4565b0390fd5b91906141ef6112f6565b50614286614276614225614220614210600261420b8791613fd8565b613ff4565b61421a6002613fd8565b90611791565b614063565b9261422e61408a565b6142458561423f5f935f1a93611969565b90614092565b5361424e6140b3565b614266856142606001935f1a93613b2e565b90614092565b536142716002613fd8565b613ff4565b6142806001613b2e565b90611791565b925b8361429c6142966001613b2e565b9161045e565b1115614302576142aa6140ee565b816142b5600f6140fc565b169160108310156142fd576142d16142f1926142f7941a614118565b6142e0859188905f1a92614092565b536142eb6004614121565b9061413d565b936140bb565b92614288565b611994565b6143299293506143249061431e6143185f611969565b9161045e565b146141bc565b61358b565b90565b61434061433b614345926132c4565b6107d1565b61045e565b90565b90565b61435f61435a61436492614348565b6107d1565b61045e565b90565b61437c61438191614376611487565b506115bc565b613482565b61438b60ff61432c565b16806143a061439a601f61434b565b9161045e565b116143a85790565b6143b06102a2565b632cd44ac360e21b8152806143c7600482016105cd565b0390fdfea26469706673582212206b0cfe651773fa9ec120679506e7686b8f0f3689fd788c5a3b58bb536902355364736f6c63430008180033",
  "linkReferences": {},
  "deployedLinkReferences": {},
  "immutableReferences": {
    "2618": [
      {
        "length": 32,
        "start": 10846
      }
    ],
    "2620": [
      {
        "length": 32,
        "start": 10901
      }
    ],
    "2622": [
      {
        "length": 32,
        "start": 10789
      }
    ],
    "2624": [
      {
        "length": 32,
        "start": 14368
      }
    ],
    "2626": [
      {
        "length": 32,
        "start": 14405
      }
    ],
    "2629": [
      {
        "length": 32,
        "start": 7232
      }
    ],
    "2632": [
      {
        "length": 32,
        "start": 7285
      }
    ]
  },
  "inputSourceName": "project/contracts/EduToken.sol",
  "buildInfoId": "solc-0_8_24-398f5484ed085fc7ad4c3f3f88b71ad9e40a81d1"
}