{
  "_format": "hh3-artifact-1",
  "contractName": "Staking",
  "sourceName": "contracts/Staking.sol",
  "abi": [
    {
      "inputs": [
        {
          "internalType": "address",
          "name": "_stakingToken",
          "type": "address"
        },
        {
          "internalType": "address",
          "name": "_gameLogic",
          "type": "address"
        }
      ],
      "stateMutability": "nonpayable",
      "type": "constructor"
    },
    {
      "anonymous": false,
      "inputs": [
        {
          "indexed": true,
          "internalType": "address",
          "name": "previousOwner",
          "type": "address"
        },
        {
          "indexed": true,
          "internalType": "address",
          "name": "newOwner",
          "type": "address"
        }
      ],
      "name": "OwnershipTransferred",
      "type": "event"
    },
    {
      "anonymous": false,
      "inputs": [
        {
          "indexed": false,
          "internalType": "uint256",
          "name": "newRate",
          "type": "uint256"
        }
      ],
      "name": "RewardRateUpdated",
      "type": "event"
    },
    {
      "anonymous": false,
      "inputs": [
        {
          "indexed": true,
          "internalType": "address",
          "name": "user",
          "type": "address"
        },
        {
          "indexed": false,
          "internalType": "uint256",
          "name": "xp",
          "type": "uint256"
        }
      ],
      "name": "RewardsClaimed",
      "type": "event"
    },
    {
      "anonymous": false,
      "inputs": [
        {
          "indexed": true,
          "internalType": "address",
          "name": "user",
          "type": "address"
        },
        {
          "indexed": false,
          "internalType": "uint256",
          "name": "amount",
          "type": "uint256"
        }
      ],
      "name": "Staked",
      "type": "event"
    },
    {
      "anonymous": false,
      "inputs": [
        {
          "indexed": true,
          "internalType": "address",
          "name": "user",
          "type": "address"
        },
        {
          "indexed": false,
          "internalType": "uint256",
          "name": "amount",
          "type": "uint256"
        }
      ],
      "name": "Withdrawn",
      "type": "event"
    },
    {
      "inputs": [],
      "name": "claimRewards",
      "outputs": [],
      "stateMutability": "nonpayable",
      "type": "function"
    },
    {
      "inputs": [
        {
          "internalType": "address",
          "name": "user",
          "type": "address"
        }
      ],
      "name": "earned",
      "outputs": [
        {
          "internalType": "uint256",
          "name": "",
          "type": "uint256"
        }
      ],
      "stateMutability": "view",
      "type": "function"
    },
    {
      "inputs": [],
      "name": "gameLogic",
      "outputs": [
        {
          "internalType": "address",
          "name": "",
          "type": "address"
        }
      ],
      "stateMutability": "view",
      "type": "function"
    },
    {
      "inputs": [],
      "name": "owner",
      "outputs": [
        {
          "internalType": "address",
          "name": "",
          "type": "address"
        }
      ],
      "stateMutability": "view",
      "type": "function"
    },
    {
      "inputs": [],
      "name": "renounceOwnership",
      "outputs": [],
      "stateMutability": "nonpayable",
      "type": "function"
    },
    {
      "inputs": [],
      "name": "rewardRate",
      "outputs": [
        {
          "internalType": "uint256",
          "name": "",
          "type": "uint256"
        }
      ],
      "stateMutability": "view",
      "type": "function"
    },
    {
      "inputs": [
        {
          "internalType": "uint256",
          "name": "_rate",
          "type": "uint256"
        }
      ],
      "name": "setRewardRate",
      "outputs": [],
      "stateMutability": "nonpayable",
      "type": "function"
    },
    {
      "inputs": [
        {
          "internalType": "uint256",
          "name": "amount",
          "type": "uint256"
        }
      ],
      "name": "stake",
      "outputs": [],
      "stateMutability": "nonpayable",
      "type": "function"
    },
    {
      "inputs": [
        {
          "internalType": "address",
          "name": "",
          "type": "address"
        }
      ],
      "name": "stakes",
      "outputs": [
        {
          "internalType": "uint256",
          "name": "amount",
          "type": "uint256"
        },
        {
          "internalType": "uint256",
          "name": "rewardDebt",
          "type": "uint256"
        },
        {
          "internalType": "uint256",
          "name": "lastUpdate",
          "type": "uint256"
        }
      ],
      "stateMutability": "view",
      "type": "function"
    },
    {
      "inputs": [],
      "name": "stakingToken",
      "outputs": [
        {
          "internalType": "contract IERC20",
          "name": "",
          "type": "address"
        }
      ],
      "stateMutability": "view",
      "type": "function"
    },
    {
      "inputs": [
        {
          "internalType": "address",
          "name": "newOwner",
          "type": "address"
        }
      ],
      "name": "transferOwnership",
      "outputs": [],
      "stateMutability": "nonpayable",
      "type": "function"
    },
    {
      "inputs": [
        {
          "internalType": "uint256",
          "name": "amount",
          "type": "uint256"
        }
      ],
      "name": "withdraw",
      "outputs": [],
      "stateMutability": "nonpayable",
      "type": "function"
    }
  ],
  "bytecode": "0x60c0604052346200005f576200001f6200001862000149565b9062000307565b6200002962000065565b6112cb620004b6823960805181818161041e01528181610ae30152610f22015260a0518181816101b20152610cd801526112cb90f35b6200006b565b60405190565b5f80fd5b601f801991011690565b634e487b7160e01b5f52604160045260245ffd5b9062000099906200006f565b810190811060018060401b03821117620000b257604052565b62000079565b90620000cf620000c762000065565b92836200008d565b565b5f80fd5b60018060a01b031690565b620000eb90620000d5565b90565b620000f981620000e0565b036200010157565b5f80fd5b905051906200011482620000ee565b565b91906040838203126200014357806200013662000140925f860162000105565b9360200162000105565b90565b620000d1565b6200016c62001781803803806200016081620000b8565b92833981019062000116565b9091565b90565b90565b6200018f62000189620001959262000170565b62000173565b620000d5565b90565b620001a39062000176565b90565b60209181520190565b5f7f5374616b696e6720746f6b656e207a65726f0000000000000000000000000000910152565b620001e56012602092620001a6565b620001f081620001af565b0190565b6200020b9060208101905f818303910152620001d6565b90565b156200021657565b6200022062000065565b62461bcd60e51b8152806200023860048201620001f4565b0390fd5b5f7f47616d654c6f676963207a65726f000000000000000000000000000000000000910152565b62000272600e602092620001a6565b6200027d816200023c565b0190565b620002989060208101905f81830391015262000263565b90565b15620002a357565b620002ad62000065565b62461bcd60e51b815280620002c56004820162000281565b0390fd5b620002e2620002dc620002e892620000d5565b62000173565b620000d5565b90565b620002f690620002c9565b90565b6200030490620002eb565b90565b6200037690620003166200037e565b62000343816200033b620003346200032e5f62000198565b620000e0565b91620000e0565b14156200020e565b620003708362000368620003616200035b5f62000198565b620000e0565b91620000e0565b14156200029b565b620002f9565b60805260a052565b620003926200038c62000398565b6200044a565b565b5f90565b620003a262000394565b503390565b5f1c90565b60018060a01b031690565b620003c6620003cc91620003a7565b620003ac565b90565b620003db9054620003b7565b90565b5f1b90565b90620003f660018060a01b0391620003de565b9181191691161790565b6200040b90620002c9565b90565b620004199062000400565b90565b90565b90620004396200043362000441926200040e565b6200041c565b8254620003e3565b9055565b5f0190565b620004555f620003cf565b62000461825f6200041f565b9062000499620004927f8be0079c531659141344cd1fd0a4f28419497f9722a3daafe3b4186f6b6457e0936200040e565b916200040e565b91620004a462000065565b80620004b08162000445565b0390a356fe60806040526004361015610013575b6105df565b61001d5f356100db565b80628cc262146100d6578063134087a2146100d157806316934fc4146100cc5780632e1a7d4d146100c7578063372500ab146100c2578063715018a6146100bd57806372f702f3146100b85780637b0a47ee146100b35780638da5cb5b146100ae5780639e447fc6146100a9578063a694fc3a146100a45763f2fde38b0361000e576105ac565b610579565b610546565b610511565b6104dc565b61046e565b6103e9565b6103b6565b610383565b610305565b6101f6565b61016c565b60e01c90565b60405190565b5f80fd5b5f80fd5b60018060a01b031690565b610103906100ef565b90565b61010f816100fa565b0361011657565b5f80fd5b9050359061012782610106565b565b906020828203126101425761013f915f0161011a565b90565b6100eb565b90565b61015390610147565b9052565b919061016a905f6020850194019061014a565b565b3461019c57610198610187610182366004610129565b6107b0565b61018f6100e1565b91829182610157565b0390f35b6100e7565b5f9103126101ab57565b6100eb565b7f000000000000000000000000000000000000000000000000000000000000000090565b6101dd906100fa565b9052565b91906101f4905f602085019401906101d4565b565b34610226576102063660046101a1565b6102226102116101b0565b6102196100e1565b918291826101e1565b0390f35b6100e7565b90565b61024261023d610247926100ef565b61022b565b6100ef565b90565b6102539061022e565b90565b61025f9061024a565b90565b9061026c90610256565b5f5260205260405f2090565b5f1c90565b90565b61028c61029191610278565b61027d565b90565b61029e9054610280565b90565b6102ac906002610262565b6102b75f8201610294565b916102d060026102c960018501610294565b9301610294565b90565b6040906102fc61030394969593966102f260608401985f85019061014a565b602083019061014a565b019061014a565b565b346103385761033461032061031b366004610129565b6102a1565b61032b9391936100e1565b938493846102d3565b0390f35b6100e7565b61034681610147565b0361034d57565b5f80fd5b9050359061035e8261033d565b565b9060208282031261037957610376915f01610351565b90565b6100eb565b5f0190565b346103b15761039b610396366004610360565b610a46565b6103a36100e1565b806103ad8161037e565b0390f35b6100e7565b346103e4576103c63660046101a1565b6103ce610c74565b6103d66100e1565b806103e08161037e565b0390f35b6100e7565b34610417576103f93660046101a1565b610401610e10565b6104096100e1565b806104138161037e565b0390f35b6100e7565b7f000000000000000000000000000000000000000000000000000000000000000090565b6104499061024a565b90565b61045590610440565b9052565b919061046c905f6020850194019061044c565b565b3461049e5761047e3660046101a1565b61049a61048961041c565b6104916100e1565b91829182610459565b0390f35b6100e7565b1c90565b6104b79060086104bc93026104a3565b61027d565b90565b906104ca91546104a7565b90565b6104d960015f906104bf565b90565b3461050c576104ec3660046101a1565b6105086104f76104cd565b6104ff6100e1565b91829182610157565b0390f35b6100e7565b34610541576105213660046101a1565b61053d61052c610e4a565b6105346100e1565b918291826101e1565b0390f35b6100e7565b346105745761055e610559366004610360565b610eb8565b6105666100e1565b806105708161037e565b0390f35b6100e7565b346105a75761059161058c366004610360565b610f01565b6105996100e1565b806105a38161037e565b0390f35b6100e7565b346105da576105c46105bf366004610129565b611133565b6105cc6100e1565b806105d68161037e565b0390f35b6100e7565b5f80fd5b5f90565b906105f190610147565b9052565b601f801991011690565b634e487b7160e01b5f52604160045260245ffd5b9061061d906105f5565b810190811067ffffffffffffffff82111761063757604052565b6105ff565b9061064f6106486100e1565b9283610613565b565b61065b606061063c565b90565b906106ad6106a4600261066f610651565b9461068661067e5f8301610294565b5f88016105e7565b61069e61069560018301610294565b602088016105e7565b01610294565b604084016105e7565b565b6106b89061065e565b90565b6106c59051610147565b90565b634e487b7160e01b5f52601160045260245ffd5b6106eb6106f191939293610147565b92610147565b916106fd838202610147565b92818404149015171561070c57565b6106c8565b61072061072691939293610147565b92610147565b820391821161073157565b6106c8565b90565b61074d61074861075292610736565b61022b565b610147565b90565b634e487b7160e01b5f52601260045260245ffd5b61077561077b91610147565b91610147565b908115610786570490565b610755565b61079a6107a091939293610147565b92610147565b82018092116107ab57565b6106c8565b6107cf6107ca61083a926107c26105e3565b506002610262565b6106af565b61083461081d6107e1602084016106bb565b926108176108036107f35f84016106bb565b6107fd6001610294565b906106dc565b9161081160404292016106bb565b90610711565b906106dc565b61082e670de0b6b3a7640000610739565b90610769565b9061078b565b90565b90565b61085461084f6108599261083d565b61022b565b610147565b90565b60209181520190565b5f7f416d6f756e74207a65726f000000000000000000000000000000000000000000910152565b610899600b60209261085c565b6108a281610865565b0190565b6108bb9060208101905f81830391015261088c565b90565b156108c557565b6108cd6100e1565b62461bcd60e51b8152806108e3600482016108a6565b0390fd5b5f7f496e73756666696369656e74207374616b650000000000000000000000000000910152565b61091b601260209261085c565b610924816108e7565b0190565b61093d9060208101905f81830391015261090e565b90565b1561094757565b61094f6100e1565b62461bcd60e51b81528061096560048201610928565b0390fd5b5f1b90565b9061097a5f1991610969565b9181191691161790565b61099861099361099d92610147565b61022b565b610147565b90565b90565b906109b86109b36109bf92610984565b6109a0565b825461096e565b9055565b5f80fd5b60e01b90565b151590565b6109db816109cd565b036109e257565b5f80fd5b905051906109f3826109d2565b565b90602082820312610a0e57610a0b915f016109e6565b90565b6100eb565b916020610a34929493610a2d60408201965f8301906101d4565b019061014a565b565b610a3e6100e1565b3d5f823e3d90fd5b610a6281610a5c610a565f610840565b91610147565b116108be565b610a94610a7b5f610a7560023390610262565b01610294565b610a8d610a8784610147565b91610147565b1015610940565b610abe81610ab85f610aa860023390610262565b0191610ab383610294565b610711565b906109a3565b610ade610aca5f610840565b6001610ad860023390610262565b016109a3565b610b077f0000000000000000000000000000000000000000000000000000000000000000610440565b602063a9059cbb913390610b2e5f8695610b39610b226100e1565b978896879586946109c7565b845260048401610a13565b03925af18015610bba57610b8e575b5033610b89610b777f7084f5476618d8e60b11ef0d7d3f06914655adb8793e28ff7f018d4c76d505d592610256565b92610b806100e1565b91829182610157565b0390a2565b610bae9060203d8111610bb3575b610ba68183610613565b8101906109f5565b610b48565b503d610b9c565b610a36565b5f7f4e6f207265776172647300000000000000000000000000000000000000000000910152565b610bf3600a60209261085c565b610bfc81610bbf565b0190565b610c159060208101905f818303910152610be6565b90565b15610c1f57565b610c276100e1565b62461bcd60e51b815280610c3d60048201610c00565b0390fd5b610c4a9061022e565b90565b610c5690610c41565b90565b610c629061024a565b90565b5f910312610c6f57565b6100eb565b610c7d336107b0565b610c9981610c93610c8d5f610840565b91610147565b11610c18565b610cb9610ca55f610840565b6001610cb360023390610262565b016109a3565b610cd0426002610cca813390610262565b016109a3565b610d01610cfc7f0000000000000000000000000000000000000000000000000000000000000000610c4d565b610c59565b630551e88d338392803b15610dbe57610d2d5f8094610d38610d216100e1565b978896879586946109c7565b845260048401610a13565b03925af18015610db957610d8d575b5033610d88610d767ffc30cddea38e2bf4d6ea7d3f9ed3b6ad7f176419f4963bd81318067a4aee73fe92610256565b92610d7f6100e1565b91829182610157565b0390a2565b610dac905f3d8111610db2575b610da48183610613565b810190610c65565b5f610d47565b503d610d9a565b610a36565b6109c3565b610dcb6111bf565b610dd3610dfd565b565b610de9610de4610dee9261083d565b61022b565b6100ef565b90565b610dfa90610dd5565b90565b610e0e610e095f610df1565b611229565b565b610e18610dc3565b565b5f90565b60018060a01b031690565b610e35610e3a91610278565b610e1e565b90565b610e479054610e29565b90565b610e52610e1a565b50610e5c5f610e3d565b90565b610e7090610e6b6111bf565b610e72565b565b610e7d8160016109a3565b610eb37f41d466ebd06fb97e7786086ac8b69b7eb7da798592036251291d34e9791cde0191610eaa6100e1565b91829182610157565b0390a1565b610ec190610e5f565b565b610ecc9061024a565b90565b604090610ef8610eff9496959396610eee60608401985f8501906101d4565b60208301906101d4565b019061014a565b565b610f1d81610f17610f115f610840565b91610147565b116108be565b610f467f0000000000000000000000000000000000000000000000000000000000000000610440565b60206323b872dd913390610f765f610f5d30610ec3565b95610f8188610f6a6100e1565b988997889687956109c7565b855260048501610ecf565b03925af1801561104357611017575b50610fbb81610fb55f610fa560023390610262565b0191610fb083610294565b61078b565b906109a3565b610fd2426002610fcc813390610262565b016109a3565b336110126110007f9e71bc8eea02a63969f509818f2dafb9254532904319f9dbda79b67bd34a5f3d92610256565b926110096100e1565b91829182610157565b0390a2565b6110379060203d811161103c575b61102f8183610613565b8101906109f5565b610f90565b503d611025565b610a36565b611059906110546111bf565b611103565b565b60207f6464726573730000000000000000000000000000000000000000000000000000917f4f776e61626c653a206e6577206f776e657220697320746865207a65726f20615f8201520152565b6110b5602660409261085c565b6110be8161105b565b0190565b6110d79060208101905f8183039101526110a8565b90565b156110e157565b6110e96100e1565b62461bcd60e51b8152806110ff600482016110c2565b0390fd5b6111319061112c8161112561111f61111a5f610df1565b6100fa565b916100fa565b14156110da565b611229565b565b61113c90611048565b565b5f7f4f776e61626c653a2063616c6c6572206973206e6f7420746865206f776e6572910152565b6111716020809261085c565b61117a8161113e565b0190565b6111939060208101905f818303910152611165565b90565b1561119d57565b6111a56100e1565b62461bcd60e51b8152806111bb6004820161117e565b0390fd5b6111e96111ca610e4a565b6111e36111dd6111d8611288565b6100fa565b916100fa565b14611196565b565b906111fc60018060a01b0391610969565b9181191691161790565b90565b9061121e61121961122592610256565b611206565b82546111eb565b9055565b6112325f610e3d565b61123c825f611209565b9061127061126a7f8be0079c531659141344cd1fd0a4f28419497f9722a3daafe3b4186f6b6457e093610256565b91610256565b916112796100e1565b806112838161037e565b0390a3565b611290610e1a565b50339056fea26469706673582212209323abac2e9175a060a20f8fd1fb11928833b8bbf3510c442cc204ec188f852664736f6c63430008180033",
  "linkReferences": {},
  "deployedLinkReferences": {},
  "immutableReferences": {
    "4479": [
      {
        "length": 32,
        "start": 1054
      },
      {
        "length": 32,
        "start": 2787
      },
      {
        "length": 32,
        "start": 3874
      }
    ],
    "4481": [
      {
        "length": 32,
        "start": 434
      },
      {
        "length": 32,
        "start": 3288
      }
    ]
  },
  "inputSourceName": "project/contracts/Staking.sol",
  "buildInfoId": "solc-0_8_24-5113aa9c080b92dda5eddaa8baa46ce7b33379aa"
}