{
  "_format": "hh3-artifact-1",
  "contractName": "SimplePaymaster",
  "sourceName": "contracts/SimplePaymaster.sol",
  "abi": [
    {
      "inputs": [
        {
          "internalType": "address",
          "name": "_entryPoint",
          "type": "address"
        }
      ],
      "stateMutability": "nonpayable",
      "type": "constructor"
    },
    {
      "inputs": [],
      "name": "entryPoint",
      "outputs": [
        {
          "internalType": "address",
          "name": "",
          "type": "address"
        }
      ],
      "stateMutability": "view",
      "type": "function"
    },
    {
      "inputs": [
        {
          "internalType": "uint8",
          "name": "",
          "type": "uint8"
        },
        {
          "internalType": "bytes",
          "name": "",
          "type": "bytes"
        },
        {
          "internalType": "uint256",
          "name": "",
          "type": "uint256"
        }
      ],
      "name": "postOp",
      "outputs": [],
      "stateMutability": "nonpayable",
      "type": "function"
    },
    {
      "inputs": [
        {
          "components": [
            {
              "internalType": "address",
              "name": "sender",
              "type": "address"
            },
            {
              "internalType": "uint256",
              "name": "nonce",
              "type": "uint256"
            },
            {
              "internalType": "bytes",
              "name": "initCode",
              "type": "bytes"
            },
            {
              "internalType": "bytes",
              "name": "callData",
              "type": "bytes"
            },
            {
              "internalType": "uint256",
              "name": "callGasLimit",
              "type": "uint256"
            },
            {
              "internalType": "uint256",
              "name": "verificationGasLimit",
              "type": "uint256"
            },
            {
              "internalType": "uint256",
              "name": "preVerificationGas",
              "type": "uint256"
            },
            {
              "internalType": "uint256",
              "name": "maxFeePerGas",
              "type": "uint256"
            },
            {
              "internalType": "uint256",
              "name": "maxPriorityFeePerGas",
              "type": "uint256"
            },
            {
              "internalType": "address",
              "name": "paymasterAndData",
              "type": "address"
            },
            {
              "internalType": "bytes",
              "name": "signature",
              "type": "bytes"
            }
          ],
          "internalType": "struct SimplePaymaster.UserOperation",
          "name": "userOp",
          "type": "tuple"
        },
        {
          "internalType": "bytes32",
          "name": "",
          "type": "bytes32"
        },
        {
          "internalType": "uint256",
          "name": "",
          "type": "uint256"
        }
      ],
      "name": "validatePaymasterUserOp",
      "outputs": [
        {
          "internalType": "bytes",
          "name": "context",
          "type": "bytes"
        },
        {
          "internalType": "uint256",
          "name": "validationData",
          "type": "uint256"
        }
      ],
      "stateMutability": "view",
      "type": "function"
    },
    {
      "inputs": [
        {
          "internalType": "address payable",
          "name": "to",
          "type": "address"
        }
      ],
      "name": "withdraw",
      "outputs": [],
      "stateMutability": "nonpayable",
      "type": "function"
    },
    {
      "stateMutability": "payable",
      "type": "receive"
    }
  ],
  "bytecode": "0x60a060405234610038576100196100146100fd565b61011e565b61002161003d565b61067c610124823960805181610398015261067c90f35b610043565b60405190565b5f80fd5b601f801991011690565b634e487b7160e01b5f52604160045260245ffd5b9061006f90610047565b810190811060018060401b0382111761008757604052565b610051565b9061009f61009861003d565b9283610065565b565b5f80fd5b60018060a01b031690565b6100b9906100a5565b90565b6100c5816100b0565b036100cc57565b5f80fd5b905051906100dd826100bc565b565b906020828203126100f8576100f5915f016100d0565b90565b6100a1565b61011b6107a0803803806101108161008c565b9283398101906100df565b90565b60805256fe60806040526004361015610015575b3661041d57005b61001f5f3561005e565b806351cff8d914610059578063a9a2340914610054578063af1c78601461004f5763b0d691fe0361000e576103e8565b610350565b6101f3565b6100d3565b60e01c90565b60405190565b5f80fd5b5f80fd5b5f80fd5b60018060a01b031690565b61008a90610076565b90565b61009681610081565b0361009d57565b5f80fd5b905035906100ae8261008d565b565b906020828203126100c9576100c6915f016100a1565b90565b61006e565b5f0190565b34610101576100eb6100e63660046100b0565b6104ff565b6100f3610064565b806100fd816100ce565b0390f35b61006a565b60ff1690565b61011581610106565b0361011c57565b5f80fd5b9050359061012d8261010c565b565b5f80fd5b5f80fd5b5f80fd5b909182601f830112156101755781359167ffffffffffffffff831161017057602001926001830284011161016b57565b610137565b610133565b61012f565b90565b6101868161017a565b0361018d57565b5f80fd5b9050359061019e8261017d565b565b906060828203126101ee576101b7815f8401610120565b92602083013567ffffffffffffffff81116101e9576101db836101e692860161013b565b939094604001610191565b90565b610072565b61006e565b3461021d576102033660046101a0565b5050505061020f610064565b80610219816100ce565b0390f35b61006a565b5f80fd5b90816101609103126102355790565b610222565b90565b6102468161023a565b0361024d57565b5f80fd5b9050359061025e8261023d565b565b90916060828403126102ad575f82013567ffffffffffffffff81116102a85761028e846102a5928501610226565b9361029c8160208601610251565b93604001610191565b90565b610072565b61006e565b5190565b60209181520190565b5f5b8381106102d1575050905f910152565b8060209183015181850152016102c1565b601f801991011690565b61030b61031460209361031993610302816102b2565b938480936102b6565b958691016102bf565b6102e2565b0190565b6103269061017a565b9052565b9291602061034661034e9360408701908782035f8901526102ec565b94019061031d565b565b3461038257610369610363366004610260565b9161061c565b9061037e610375610064565b9283928361032a565b0390f35b61006a565b5f91031261039157565b61006e565b7f000000000000000000000000000000000000000000000000000000000000000090565b6103c390610076565b90565b6103cf906103ba565b9052565b91906103e6905f602085019401906103c6565b565b34610418576103f8366004610387565b610414610403610396565b61040b610064565b918291826103d3565b0390f35b61006a565b5f80fd5b60209181520190565b5f7f4f6e6c7920454f41000000000000000000000000000000000000000000000000910152565b61045e6008602092610421565b6104678161042a565b0190565b6104809060208101905f818303910152610451565b90565b1561048a57565b610492610064565b62461bcd60e51b8152806104a86004820161046b565b0390fd5b90565b6104c36104be6104c892610076565b6104ac565b610076565b90565b6104d4906104af565b90565b6104e0906104cb565b90565b6104ec906104cb565b90565b6104f7610064565b3d5f823e3d90fd5b5f808061052881946105233361051d610517326103ba565b916103ba565b14610483565b6104d7565b610531306104e3565b3190828215610548575bf11561054357565b6104ef565b506108fc61053b565b606090565b5f90565b634e487b7160e01b5f52604160045260245ffd5b90610578906102e2565b810190811067ffffffffffffffff82111761059257604052565b61055a565b906105aa6105a3610064565b928361056e565b565b67ffffffffffffffff81116105ca576105c66020916102e2565b0190565b61055a565b906105e16105dc836105ac565b610597565b918252565b6105ef5f6105cf565b90565b6105fa6105e6565b90565b90565b61061461060f610619926105fd565b6104ac565b61017a565b90565b505050610627610551565b50610630610556565b506106396105f2565b906106435f610600565b9056fea2646970667358221220ea2cbd5b334c7f68de6748543f93c5002b5c5055f4a456b821ba9deb2a752a4664736f6c63430008180033",
  "linkReferences": {},
  "deployedLinkReferences": {},
  "immutableReferences": {
    "4370": [
      {
        "length": 32,
        "start": 920
      }
    ]
  },
  "inputSourceName": "project/contracts/SimplePaymaster.sol",
  "buildInfoId": "solc-0_8_24-5113aa9c080b92dda5eddaa8baa46ce7b33379aa"
}