{
  "_format": "hh3-artifact-1",
  "contractName": "SimplePaymaster",
  "sourceName": "contracts/SimplePaymaster.sol",
  "abi": [
    {
      "inputs": [
        {
          "internalType": "address",
          "name": "_entryPoint",
          "type": "address"
        }
      ],
      "stateMutability": "nonpayable",
      "type": "constructor"
    },
    {
      "anonymous": false,
      "inputs": [
        {
          "indexed": true,
          "internalType": "address",
          "name": "previousOwner",
          "type": "address"
        },
        {
          "indexed": true,
          "internalType": "address",
          "name": "newOwner",
          "type": "address"
        }
      ],
      "name": "OwnershipTransferred",
      "type": "event"
    },
    {
      "inputs": [],
      "name": "entryPoint",
      "outputs": [
        {
          "internalType": "address",
          "name": "",
          "type": "address"
        }
      ],
      "stateMutability": "view",
      "type": "function"
    },
    {
      "inputs": [],
      "name": "owner",
      "outputs": [
        {
          "internalType": "address",
          "name": "",
          "type": "address"
        }
      ],
      "stateMutability": "view",
      "type": "function"
    },
    {
      "inputs": [
        {
          "internalType": "uint8",
          "name": "",
          "type": "uint8"
        },
        {
          "internalType": "bytes",
          "name": "",
          "type": "bytes"
        },
        {
          "internalType": "uint256",
          "name": "",
          "type": "uint256"
        }
      ],
      "name": "postOp",
      "outputs": [],
      "stateMutability": "nonpayable",
      "type": "function"
    },
    {
      "inputs": [],
      "name": "renounceOwnership",
      "outputs": [],
      "stateMutability": "nonpayable",
      "type": "function"
    },
    {
      "inputs": [
        {
          "internalType": "address",
          "name": "newOwner",
          "type": "address"
        }
      ],
      "name": "transferOwnership",
      "outputs": [],
      "stateMutability": "nonpayable",
      "type": "function"
    },
    {
      "inputs": [
        {
          "components": [
            {
              "internalType": "address",
              "name": "sender",
              "type": "address"
            },
            {
              "internalType": "uint256",
              "name": "nonce",
              "type": "uint256"
            },
            {
              "internalType": "bytes",
              "name": "initCode",
              "type": "bytes"
            },
            {
              "internalType": "bytes",
              "name": "callData",
              "type": "bytes"
            },
            {
              "internalType": "uint256",
              "name": "callGasLimit",
              "type": "uint256"
            },
            {
              "internalType": "uint256",
              "name": "verificationGasLimit",
              "type": "uint256"
            },
            {
              "internalType": "uint256",
              "name": "preVerificationGas",
              "type": "uint256"
            },
            {
              "internalType": "uint256",
              "name": "maxFeePerGas",
              "type": "uint256"
            },
            {
              "internalType": "uint256",
              "name": "maxPriorityFeePerGas",
              "type": "uint256"
            },
            {
              "internalType": "bytes",
              "name": "paymasterAndData",
              "type": "bytes"
            },
            {
              "internalType": "bytes",
              "name": "signature",
              "type": "bytes"
            }
          ],
          "internalType": "struct SimplePaymaster.UserOperation",
          "name": "userOp",
          "type": "tuple"
        },
        {
          "internalType": "bytes32",
          "name": "",
          "type": "bytes32"
        },
        {
          "internalType": "uint256",
          "name": "",
          "type": "uint256"
        }
      ],
      "name": "validatePaymasterUserOp",
      "outputs": [
        {
          "internalType": "bytes",
          "name": "context",
          "type": "bytes"
        },
        {
          "internalType": "uint256",
          "name": "validationData",
          "type": "uint256"
        }
      ],
      "stateMutability": "view",
      "type": "function"
    },
    {
      "inputs": [
        {
          "internalType": "address payable",
          "name": "to",
          "type": "address"
        }
      ],
      "name": "withdraw",
      "outputs": [],
      "stateMutability": "nonpayable",
      "type": "function"
    },
    {
      "stateMutability": "payable",
      "type": "receive"
    }
  ],
  "bytecode": "0x60a06040523462000040576200001e6200001862000119565b6200013f565b6200002862000046565b610a07620002ab8239608051816102f90152610a0790f35b6200004c565b60405190565b5f80fd5b601f801991011690565b634e487b7160e01b5f52604160045260245ffd5b906200007a9062000050565b810190811060018060401b038211176200009357604052565b6200005a565b90620000b0620000a862000046565b92836200006e565b565b5f80fd5b60018060a01b031690565b620000cc90620000b6565b90565b620000da81620000c1565b03620000e257565b5f80fd5b90505190620000f582620000cf565b565b90602082820312620001135762000110915f01620000e6565b90565b620000b2565b6200013c62000cb280380380620001308162000099565b928339810190620000f7565b90565b620001496200014e565b608052565b620001626200015c62000168565b6200023f565b565b5f90565b6200017262000164565b503390565b5f1c90565b60018060a01b031690565b620001966200019c9162000177565b6200017c565b90565b620001ab905462000187565b90565b5f1b90565b90620001c660018060a01b0391620001ae565b9181191691161790565b90565b620001ec620001e6620001f292620000b6565b620001d0565b620000b6565b90565b6200020090620001d3565b90565b6200020e90620001f5565b90565b90565b906200022e62000228620002369262000203565b62000211565b8254620001b3565b9055565b5f0190565b6200024a5f6200019f565b62000256825f62000214565b906200028e620002877f8be0079c531659141344cd1fd0a4f28419497f9722a3daafe3b4186f6b6457e09362000203565b9162000203565b916200029962000046565b80620002a5816200023a565b0390a356fe60806040526004361015610015575b3661052957005b61001f5f3561008e565b806351cff8d914610089578063715018a6146100845780638da5cb5b1461007f578063a9a234091461007a578063b0d691fe14610075578063f2fde38b146100705763f465c77e0361000e576104f2565b610391565b61031b565b6102c8565b6101a6565b610145565b610103565b60e01c90565b60405190565b5f80fd5b5f80fd5b5f80fd5b60018060a01b031690565b6100ba906100a6565b90565b6100c6816100b1565b036100cd57565b5f80fd5b905035906100de826100bd565b565b906020828203126100f9576100f6915f016100d1565b90565b61009e565b5f0190565b346101315761011b6101163660046100e0565b6105c9565b610123610094565b8061012d816100fe565b0390f35b61009a565b5f91031261014057565b61009e565b3461017357610155366004610136565b61015d610624565b610165610094565b8061016f816100fe565b0390f35b61009a565b610181906100a6565b90565b61018d90610178565b9052565b91906101a4905f60208501940190610184565b565b346101d6576101b6366004610136565b6101d26101c1610663565b6101c9610094565b91829182610191565b0390f35b61009a565b60ff1690565b6101ea816101db565b036101f157565b5f80fd5b90503590610202826101e1565b565b5f80fd5b5f80fd5b5f80fd5b909182601f8301121561024a5781359167ffffffffffffffff831161024557602001926001830284011161024057565b61020c565b610208565b610204565b90565b61025b8161024f565b0361026257565b5f80fd5b9050359061027382610252565b565b906060828203126102c35761028c815f84016101f5565b92602083013567ffffffffffffffff81116102be576102b0836102bb928601610210565b939094604001610266565b90565b6100a2565b61009e565b346102f2576102d8366004610275565b505050506102e4610094565b806102ee816100fe565b0390f35b61009a565b7f000000000000000000000000000000000000000000000000000000000000000090565b3461034b5761032b366004610136565b6103476103366102f7565b61033e610094565b91829182610191565b0390f35b61009a565b61035981610178565b0361036057565b5f80fd5b9050359061037182610350565b565b9060208282031261038c57610389915f01610364565b90565b61009e565b346103bf576103a96103a4366004610373565b61076c565b6103b1610094565b806103bb816100fe565b0390f35b61009a565b5f80fd5b90816101609103126103d75790565b6103c4565b90565b6103e8816103dc565b036103ef57565b5f80fd5b90503590610400826103df565b565b909160608284031261044f575f82013567ffffffffffffffff811161044a57610430846104479285016103c8565b9361043e81602086016103f3565b93604001610266565b90565b6100a2565b61009e565b5190565b60209181520190565b5f5b838110610473575050905f910152565b806020918301518185015201610463565b601f801991011690565b6104ad6104b66020936104bb936104a481610454565b93848093610458565b95869101610461565b610484565b0190565b6104c89061024f565b9052565b929160206104e86104f09360408701908782035f89015261048e565b9401906104bf565b565b346105245761050b610505366004610402565b9161083f565b90610520610517610094565b928392836104cc565b0390f35b61009a565b5f80fd5b61053e906105396108ea565b610593565b565b90565b61055761055261055c926100a6565b610540565b6100a6565b90565b61056890610543565b90565b6105749061055f565b90565b6105809061055f565b90565b61058b610094565b3d5f823e3d90fd5b5f80806105a0819461056b565b6105a930610577565b31908282156105c0575bf1156105bb57565b610583565b506108fc6105b3565b6105d29061052d565b565b6105dc6108ea565b6105e4610611565b565b90565b6105fd6105f8610602926105e6565b610540565b6100a6565b90565b61060e906105e9565b90565b61062261061d5f610605565b610965565b565b61062c6105d4565b565b5f90565b5f1c90565b60018060a01b031690565b61064e61065391610632565b610637565b90565b6106609054610642565b90565b61066b61062e565b506106755f610656565b90565b610689906106846108ea565b61073c565b565b60209181520190565b60207f6464726573730000000000000000000000000000000000000000000000000000917f4f776e61626c653a206e6577206f776e657220697320746865207a65726f20615f8201520152565b6106ee602660409261068b565b6106f781610694565b0190565b6107109060208101905f8183039101526106e1565b90565b1561071a57565b610722610094565b62461bcd60e51b815280610738600482016106fb565b0390fd5b61076a906107658161075e6107586107535f610605565b610178565b91610178565b1415610713565b610965565b565b61077590610678565b565b606090565b5f90565b634e487b7160e01b5f52604160045260245ffd5b9061079e90610484565b810190811067ffffffffffffffff8211176107b857604052565b610780565b906107d06107c9610094565b9283610794565b565b67ffffffffffffffff81116107f0576107ec602091610484565b0190565b610780565b90610807610802836107d2565b6107bd565b918252565b6108155f6107f5565b90565b61082061080c565b90565b61083761083261083c926105e6565b610540565b61024f565b90565b50505061084a610777565b5061085361077c565b5061085c610818565b906108665f610823565b90565b5f7f4f776e61626c653a2063616c6c6572206973206e6f7420746865206f776e6572910152565b61089c6020809261068b565b6108a581610869565b0190565b6108be9060208101905f818303910152610890565b90565b156108c857565b6108d0610094565b62461bcd60e51b8152806108e6600482016108a9565b0390fd5b6109146108f5610663565b61090e6109086109036109c4565b610178565b91610178565b146108c1565b565b5f1b90565b9061092c60018060a01b0391610916565b9181191691161790565b61093f9061055f565b90565b90565b9061095a61095561096192610936565b610942565b825461091b565b9055565b61096e5f610656565b610978825f610945565b906109ac6109a67f8be0079c531659141344cd1fd0a4f28419497f9722a3daafe3b4186f6b6457e093610936565b91610936565b916109b5610094565b806109bf816100fe565b0390a3565b6109cc61062e565b50339056fea26469706673582212202a6f0cbecf43f7dab748fd7974461f41466eefa736e6c911635db0b5d85760e464736f6c63430008180033",
  "linkReferences": {},
  "deployedLinkReferences": {},
  "immutableReferences": {
    "7846": [
      {
        "length": 32,
        "start": 761
      }
    ]
  },
  "inputSourceName": "project/contracts/SimplePaymaster.sol",
  "buildInfoId": "solc-0_8_24-cc675b33e49a67cb8d3ef1d7d739e37ebfe63353"
}